:100000000C948E030C94AB030C94AB030C94AB03D5
:100010000C94AB030C94AB030C94AB030C94262808
:100020000C94AB030C94AB030C94AB030C94AB0398
:100030000C94AB030C94AB030C94AB030C94AB0388
:100040000C94AB030C948A280C94AB030C94AB0374
:100050000C94AB030C9490220C94AB030C94972952
:100060000C94AB030C9457290C94AB030C94AB0386
:100070000C94AB030C94AB030C94AB030C94AB0348
:100080000C94AB030C94AB030C94AB030C94AB0338
:100090000C94AB030C94AB030C94AB030C94AB0328
:1000A0000C94AB030C94AB030C94AB034552524F2E
:1000B000523A20727820627566666572206F7665A6
:1000C00072666C6F770A0025752000257520002563
:1000D0006C7520002569200025686875256E00254F
:1000E00075256E002569256E0023737069313D25E5
:1000F0007820647276313D256C7820677374313DC9
:10010000257820676366313D256C780A002373707B
:1001100069303D257820647276303D256C78206703
:100120007374303D257820676366303D256C780A0E
:1001300000256920000025642E25642E25642553A2
:100140002000435A5058253473582533735825637B
:1001500025357320004E4120000103050E0F1112BA
:1001600013151617383A000204253032780025643A
:100170002025642000256C692000253032686878CD
:10018000200025686869256E00256C69256E0025AC
:100190006C75256E00AA6A5A56555595A5A9AA45AB
:1001A00052524F523D25640A00237477686F206FC6
:1001B00066667365743D256420646973743D2564C7
:1001C0000A00237477686F20736574206F66667306
:1001D0006574423A2025640A00237477686F20739F
:1001E0006574206F6666736574413A2025640A0061
:1001F000490053005F006D007D009000A500BD0028
:10020000D900F8001C0143016E019C01CE010202DD
:1002100037026C02A102D30202032D0353037503BC
:100220009103A903BD03CD03DA03E303EB03F10359
:10023000F503F8032325642025752025750A00257C
:100240006C640A0023494E54360A00236F6C6963BC
:100250006E745F74696C743D256868750A00236F5D
:100260006C69636E745F746F7765723D256868753D
:100270000A00236472765F7374617475735B25641E
:100280005D3D2530386C780A00237370695F7374A4
:10029000617475735B25645D3D2530326868780A4A
:1002A00000000A0014F000F0001407BC0200000077
:1002B00000B004DC05A000A00010074C0400000002
:1002C00000000A0014F000F0001A09BC020000004F
:1002D0000064002C01500050001400DC05000000F8
:1002E00000DC05DC05000000002C283408000000BC
:1002F0000090019001000000002C3F000000000071
:1003000000D606D606000000002C28D0070000000A
:1003100000000F0014C800C8000F037E0400000096
:1003200000C409983AFA0096001604640000000020
:1003300000C4094C1DFA0096001001F401000000F1
:1003400000800C983AFA00FA000A039808000000AE
:100350000064009600320032000F00DC050000004F
:1003600000800CC044FA00FA002206F401000000EC
:1003700000800CC044FA00FA001206F401000000EC
:100380000040068025C800C8003F04F401000000BA
:1003900000C4094C1D5E015E010C027805000000DE
:1003A0000019001D00220028002E00360040004BDE
:1003B00000580069007C009200AD00CC00F1001AEA
:1003C000014A017E01B701F40133027102AF02E874
:1003D000021C034A0372039303AD03C303D303E078
:1003E00003E903F0036B696C6C65640A004D4355C7
:1003F00053523D3078253032780A00726561647955
:100400000A006265657081626F6F74B5636C6564C4
:10041000856565636C9F65657278A065657778A171
:100420006563686FAA66616E65B366616E738A669E
:1004300070776DB26672706D9D6D6F74728D706C39
:1004400065648270707374BF7070776DB170737013
:1004500064B97273656EAD72736D65AF72737374E8
:10046000AE73676263BA73676264BB7368646E83FA
:1004700074656D709E74696366A774696373A9740B
:100480006963759674696863C17469686F98746903
:100490006D61A374697068BD7469706FA5746973C8
:1004A000679A74697374C374726177B6747763669C
:1004B000A674776373A874776375957477646E8F89
:1004C00074776863C07477686F9774776D61A2748E
:1004D000777068BC7477706FA4747773679974775A
:1004E0007374C2747775708E756C6564847570777B
:1004F0006DB8766F6C74B076726177B77764656C3F
:10050000BE7769646CB4666D736BC4676F7365C5E1
:1005100074777466C874697466C974697363C775DF
:10052000737461CA74776766CB74696766CC5F70F1
:100530006F72E15F646472E25F70696EE3746D63B1
:1005400063CD6469720F656E610C656E64116C65D4
:10055000640D6C6F67426D6F741072737401736514
:1005600072037473744376657202726576137075E4
:100570006E12012E0643C3198327068D1D0697129E
:10058000069807069FED0EB45212B5F505BBF105AE
:10059000C0E005C1CF05C5170E00571B01C91C02DD
:1005A0009D1A03251912490C132B0C0CC91C0DC9DB
:1005B0001C0FC91C10C91C11C91C42C91C82C91CB2
:1005C00084B21C85C91C8AC91C95C91C96C91C9774
:1005D000B81A98B81AC7A81C99C91C9AC91C9DD3E7
:1005E0001B9EE91AB0E91AB60A1CB70A1CB1C91C4D
:1005F000B9C91CB8C91CB3C91CA4851AA5E11AA69F
:10060000B31DA7B31DA8B81AA9B81AAAB81AADC9BC
:100610001CAEC91CBAC91CBB581ABC231CBD231C68
:10062000BF461BC0021BC1021BC4B81AC8C91CC9E3
:10063000C91CCA231B0C0C180D0C180F0C18100C1D
:1006400018110C18420C18830C1881C214820C1853
:1006500084AA17850C188E02158F02158A0C18951E
:100660000C18960C1899ED129AED12A26312A3F2CF
:1006700013A46312A5F213A6EE16A7EE16A8ED12A8
:10068000A9ED12AA0C18B10C18B90C18B80C189DC9
:100690006314AD0C18AF6312BE0215BC0215BD0287
:1006A00015C2ED12C3ED12C0BB13C18413C40C18E4
:1006B000BFCA16C79716E12F16E32F16E22F16CAE8
:1006C000EA15CBB715CC8415A6751DA7751DE15885
:1006D0001CE3581CE2581C6525640A006F6B0A0075
:1006E0004552524F523A20636F6D6D616E64206FB8
:1006F000766572666C6F770A0045464765666700E7
:10070000202B2D2E303132333435363738396800CE
:100710006364696E6F7073757858000011241FBE92
:10072000CFEFDAE0DEBFCDBF12E0A0E0B1E0E4E061
:10073000F1E602C005900D92AA39B107D9F725E07C
:10074000AAE9B2E001C01D92A23BB207E1F70E9404
:10075000D61D0C9480300C940000CF92DF92EF9263
:10076000FF921F93CF93DF93FB01EE5BFF4F259129
:100770003491821793070CF056C0FB0125913491F8
:10078000281739070CF052C013E2C1E2D0E0B0E004
:10079000A0E021E1115019F490E080E03CC030E08D
:1007A000A901440F551FFB01E40FF51FE590F490DC
:1007B000FA013296E60FF71FC590D490A901C8162A
:1007C000D9063CF49E01240F351F35952795DA0193
:1007D000E1CF8E159F0544F49D01240F351F3595FB
:1007E0002795EA01AD01F3CFBC016E197F094EECEC
:1007F0004603C001479F900D1124B6016E197F0971
:100800000E94D72C4203C001439F900D11248E51AA
:100810009B4F860F971FDF91CF911F91FF90EF9015
:10082000DF90CF90089580E79EEFF5CF82EE94E0C1
:10083000F2CFF8942091300430913104282B392BD9
:100840003093310420933004789420913004309117
:10085000310428233923232BC1F70895F8942091DC
:10086000300430913104282B392B309331042093FC
:1008700030047894089580FD2D9A81FD2E9A2D984C
:100880002E980895813011F0599A08955C9A089530
:10089000813011F0599808955C980895E5E1F1E0F0
:1008A00090819A7F282F2170922B880F8470982B2B
:1008B000908382E090E00C94190490911501892FA7
:1008C000869582709170892B089593E0892790E036
:1008D000E5E1F1E09C01220F331F2270880F991F80
:1008E000880F991F8870822B2081257F822B80831F
:1008F00082E090E00C9419042091150130E021FB76
:10090000882780F935952795359527952270282BCE
:1009100083E08227089561EA73E09695879596951E
:1009200087950C94AD032091CC0421FF29C09C0134
:100930003695279536952795AAEBB3E10E940D2DA4
:100940009B01AC019AE056954795379527959A9566
:10095000D1F744275527A2EBB9E00E941C2DAB012B
:10096000BC012AE076956795579547952A95D1F76A
:1009700080910B0190910C01841B950B97FF02C095
:1009800090E080E00895CF93DF93F89492E0909305
:100990002B049091D004692F682770E0C091CD049A
:1009A000D091CE04E2EDF4E0A3E1B4E030E020E049
:1009B000AB01022E02C0559547950A94E2F740FF1D
:1009C0000AC0D383C283468150E013965C934E9352
:1009D0001297518340832F5F3F4F379618962330ED
:1009E000310531F710922C0424E020932D049870E7
:1009F000982B9093D0047894DF91CF9108958093B1
:100A0000CC04282F30E084FF13C028988091CC04B8
:100A100085FF10C05D98809116018C7F35952795D4
:100A20002370822B8093160188E090E00C942E04B2
:100A3000289AECCF5D9AEFCF3F9A882311F0479A1E
:100A4000089547980895EDECF4E0838188608383EE
:100A50000895CF93DF93EB01009749F41092900033
:100A6000D0930304C0930204DF91CF910895BC0199
:100A700090E080E00E94F22F9B01AC0160E074E204
:100A800084E799E40E94512F20E030E040E05FE3EA
:100A90000E94E42E0E94C32F683C710510F468EC9C
:100AA00070E0709399006093980080E480939000C8
:100AB000D7CF80917905803B09F44AC030F5883959
:100AC00009F449C090F4823409F448C030F48D3000
:100AD00009F447C090E080E00895823809F444C0EA
:100AE0008739C1F781E091E00895883A09F43FC061
:100AF00028F48E3979F789E094E00895893AD1F1A4
:100B00008A3A41F78DE795E00895883BB1F178F492
:100B1000833BB1F128F4813BE9F682E091E008954E
:100B2000863B89F1873BB1F689EE93E00895803CDE
:100B300069F138F4893B69F18A3B61F68BEB92E00D
:100B40000895813C49F1843C29F68EE294E00895B1
:100B500085E091E0089580E091E0089580EB92E0D7
:100B600008958CEC94E0089582E695E0089584E081
:100B700091E0089583E091E0089585E695E0089579
:100B80008CE294E0089581EF93E0089583E191E091
:100B9000089587E191E0089581E191E008958091C1
:100BA000FF0381FD0BC081E0809300018FEF9FEF79
:100BB000909312018093110180E008958EEF0895C3
:100BC0008091FF0380FD0BC081E0809301018FEFD6
:100BD0009FEF9093100180930F0180E008958EEFB6
:100BE00008951092BB0280E0089587E797E79093FD
:100BF00001088093000888E198E00FB6F894A89562
:100C0000809360000FBE90936000F894FFCF8091B6
:100C1000FF0381FD05C081E08093000180E008951D
:100C20008EEF08958091FF0380FD05C081E08093E1
:100C3000010180E008958EEF089580E00E94650430
:100C40008FEF809301018093000180E0089580E0A0
:100C50000E941C051092080480E0089588E198E045
:100C60000FB6F894A895809360000FBE9093600033
:100C7000F894FFCFFB0190E02491281307C0319630
:100C800085919491009741F0FC0109949F5F339600
:100C90004913F2CF89EF08958AEF08951F93CF93F8
:100CA000DF93C42FD0E02196215078F0DC01FB01C6
:100CB00030E01D91549115130DC03F5F31964313E1
:100CC000F8CFFB01E40FF11D2491822FDF91CF912A
:100CD0001F9108956C0F7D1FE7CF8EBD0DB407FEE9
:100CE000FDCF8EB50895CF93C82F80E58CBD1DBC78
:100CF0002C9881E40E946D068C2F0E946D068FEF68
:100D00000E946D062C9ACF910895CF93DF93D82F30
:100D1000C62F80E58CBD1DBC2C9880E40E946D061A
:100D20008D2F0E946D068C2F0E946D062C9ADF91EC
:100D3000CF9108958F929F92AF92BF92FF920F939F
:100D40001F93CF93DF93562FA091A802B091A902D1
:100D5000C82FD0E095E2899FF0011124E251FB4FAA
:100D6000628D738D6A0F7B1F738F628F808D918D63
:100D7000218932892817390708F425C10091AC026E
:100D80001091AD02800F911F821B930B918F808F6A
:100D90004789F090FF03052F10E0980184E0220FAF
:100DA000331F8A95E1F78F2D90E082239323838868
:100DB0009488A588B688892B09F452C081E0881AE6
:100DC0009108A108B108838A948AA58AB68A41FF4E
:100DD00050C085E28C9FF0018D9FF00D1124E251EF
:100DE000FB4F278130856F3F710511F008F03EC041
:100DF000A29FB001A39F700DB29F700D112490E0CF
:100E000080E033E0660F771F881F991F3A95D1F76E
:100E100025E22C9FF0012D9FF00D1124E251FB4F94
:100E200087849088A188B288860E971EA81EB91E56
:100E30008786908AA18AB28A848D958D0197958F35
:100E4000848F892B09F084C0842F8D7F42FF06C0D8
:100E500025813681328B218B108A1786482F78C0E6
:100E60009FEF891A990AA90AB90AADCF0E940D2DE0
:100E7000C8CF42FF27C085E28C9FF0018D9FF00D07
:100E80001124E251FB4F868D978DA0A1B1A101974E
:100E9000A109B109868F978FA0A3B1A3892B8A2BB3
:100EA0008B2B09F055C0942F9B7F43FD09C0852FE4
:100EB0008095F822F092FF031786108A118A128A11
:100EC000492F46C043FF44C085E28C9FF0018D9FAF
:100ED000F00D1124E251FB4F218532856F3F7105E2
:100EE00011F008F058C0A29FB001A39F700DB29FEF
:100EF000700D112490E080E023E0660F771F881FBB
:100F0000991F2A95D1F725E22C9FF0012D9FF00D16
:100F10001124E251FB4F87849088A188B288861AF9
:100F2000970AA80AB90A8786908AA18AB28A82A1FA
:100F300093A1019793A382A3892B51F4477F852F17
:100F40008095F822F092FF031786108A118A128A80
:100F500085E28C9FF0018D9FF00D1124E251FB4F33
:100F600084A18823D9F0815084A385E28C9FF0016D
:100F70008D9FF00D1124E251FB4F478B138E128E83
:100F8000852FDF91CF911F910F91FF90BF90AF9070
:100F90009F908F9008950E940D2DAECF8091AA0250
:100FA0009091AB0208231923012BF9F28091FF03E2
:100FB000952F909589238093FF038091B102852B13
:100FC0008093B102D2CF821B930B918F808F50E020
:100FD000D7CF8F929F92AF92BF92CF92DF92EF9234
:100FE000FF920F931F93CF93DF936A017B01082F2A
:100FF00010E095E2899FE0011124C251DB4FAB85DF
:10100000BC852D853E854D01820E931EB12CA12CF1
:10101000C814D904EA04FB0448F1BD8FAC8FC8188A
:10102000D908EA08FB08CE8EDF8EE8A2F9A23BA31E
:101030002AA386E0AB2B09F484E0232B09F0886017
:1010400095E2909FF001919FF00D1124E251FB4F2A
:10105000878BDF91CF911F910F91FF90EF90DF90E1
:10106000CF90BF90AF909F908F900895AB01960165
:101070000E941C2DA50194010E94EB2C3D8F2C8F0A
:101080001E8E1F8E18A219A2C21AD30ADBA2CAA2F0
:101090008AE0D6CF9F92AF92BF92CF92DF92EF922B
:1010A000FF920F931F93CF93DF93982E6A017B01DA
:1010B000082F10E0C1E0D0E002C0CC0FDD1F8A9500
:1010C000E2F7B090FF038C2F8B2109F04DC0C114C3
:1010D000D104E104F10491F1AC2EA0940E945D04CE
:1010E0001C141D041E041F045CF58A210E944E047A
:1010F0008C2F8295807F8095B822B092FF03B70134
:10110000A601892D0E94E90785E2809FF001819F59
:10111000F00D1124E251FB4F108A178683819481D0
:10112000928B818B80E484A38091B102A822A0924B
:10113000B1028091FF03C82BC093FF0380E015C06C
:101140008C2B0E944E04CE0124E0880F991F2A9513
:10115000E1F7B82AB092FF0344275527BA014C198A
:101160005D096E097F09CDCF8FEFDF91CF911F9180
:101170000F91FF90EF90DF90CF90BF90AF909F9036
:101180000895CF92DF92EF92FF920F931F93CF9328
:10119000DF93C82ED12C95E2899FE0011124C25122
:1011A000DB4F0D811E818B819C817801E81AF90A41
:1011B000080F191F2F8138852115310509F45EC0EC
:1011C000B70190E080E0ECE0660F771F881F991F61
:1011D000EA95D1F750E040E00E94EB2CF4E0569500
:1011E000479537952795FA95D1F7D8010E941C2D80
:1011F0006C5D7B408F4F9F4F28E438EE41E050E01C
:101200000E94EB2C3C872B8785E28C9DE0018D9D15
:10121000D00D1124C251DB4F29853A8521153105A6
:1012200081F1B70190E080E04CE0660F771F881FE6
:10123000991F4A95D1F750E040E00E94EB2C64E002
:1012400056954795379527956A95D1F7D8010E940D
:101250001C2D6C5D7B408F4F9F4F28E438EE41E0A2
:1012600050E00E94EB2C3E872D87DF91CF911F919C
:101270000F91FF90EF90DF90CF9008951C861B8612
:10128000C3CF1E861D86F1CFFF920F931F93CF937E
:10129000DF93F82EEB01F11049C080E890E00E9446
:1012A00019048091D8039091D903A091DA03B091E9
:1012B000DB03B7FFF2CF0F2D10E085E2F89EF001BF
:1012C0001124E251FB4F88819981948383838A8121
:1012D0009B81968385838C819D81908787838E8176
:1012E0009F81928781878F2D0E94C108F801EA5162
:1012F000FC4F88858083F801EC51FC4F8985808301
:10130000000F111FF801E052FC4F8A859B859183E5
:10131000808380E097E0F11002C080E790E0DF91E9
:10132000CF911F910F91FF900C94190480E098E0E9
:101330000E9419048091DC039091DD03A091DE03EB
:10134000B091DF03B7FFA7CFB6CFCF92DF92EF9276
:10135000FF920F931F93CF93DF93182FF62EEA017E
:101360000CE50CBD1DBC0E9448048F2D0E946D062B
:1013700080E00E946D0680E00E946D0680E00E9481
:101380006D0680E00E946D06812F0E9442040CBD14
:101390001DBC812F0E94480480E00E946D06082F2A
:1013A000E12FF0E0E854FD4F808380E00E946D065D
:1013B00090E0B0E0A0E0CC24D82EE92EFA2E80E018
:1013C0000E946D06C82AFE2CED2CDC2CCC2480E07B
:1013D0000E946D06C82AFE2CED2CDC2CCC2480E06B
:1013E0000E946D06C82A812F0E944204C882D982B9
:1013F000EA82FB82802FDF91CF911F910F91FF90A6
:10140000EF90DF90CF900895EF92FF920F931F938C
:10141000CF93DF93C82FE62ED22F132F042FF52E54
:101420008CE58CBD1DBC8C2F0E9448048E2D0E9423
:101430006D068F2D0E946D06802F0E946D06812FF4
:101440000E946D068D2F0E946D068C2F0E94420413
:1014500080E0DF91CF911F910F91FF90EF90089561
:10146000CF93DF9300D000D0CDB7DEB719821A82B8
:101470001B821C82AE014F5F5F4F61E00E94A50995
:1014800089810F900F900F900F90DF91CF91089569
:10149000CF92DF92EF92FF9299E0899FF0011124A1
:1014A000EE53FC4FC080D180E280F38090EFF922B0
:1014B000262F30E050E040E0522F442733272227E8
:1014C0002227332744275F702C293D294E295F2985
:1014D00020833183428353836CEEFF90EF90DF9043
:1014E000CF900C94040A99E0899FF0011124EE53E7
:1014F000FC4F6683262F660F330B440B550BA90157
:10150000332722276DEE0C94040ACF93DF93C82F64
:10151000D62F81E0603210F0D69580E099E0C99F27
:10152000F0011124EE53FC4F20813181428153811F
:101530004D7F90E0B0E0A0E061E1880F991FAA1F05
:10154000BB1F6A95D1F7282B392B4A2B5B2B2083A5
:10155000318342835383D483D5836CEE8C2F0E94D6
:10156000040A2D2F30E0322F222722273F71032E2D
:10157000000C440B550BDF712D2B4F6060E98C2F55
:10158000DF91CF910C94040A99E0899FF001112416
:10159000EE53FC4F8581408151816281738161FBF3
:1015A000442740F9411101C0880F08950F931F93FC
:1015B000CF93DF93EB01082F10E095E2899FF001B4
:1015C0001124E251FB4F2381348139832883258103
:1015D00036813B832A83278130853D832C83218577
:1015E00032853F832E830E94C40A888789E0809FCA
:1015F000F001819FF00D1124EE53FC4F8681898705
:10160000878190859B878A87DF91CF911F910F916A
:1016100008951F93CF93DF9300D000D0CDB7DEB7EE
:10162000182F83ED90E0A3E0B4E189839A83AB8324
:10163000BC8329E0129FF0011124EE53FC4F8083FC
:101640009183A283B38380E18483858383E086834F
:101650008CED95E09087878323ED30E043E054E103
:101660006CEE812F0E94040AAE014F5F5F4F6CE663
:10167000812F0E94A50989819A81AB81BC81833D1C
:101680009105A340B44159F520E030E0A90161E99A
:10169000812F0E94040A20E030E043E051E06DEE2B
:1016A000812F0E94040A2CED35E040E050E064E90F
:1016B000812F0E94040A20E831E340E050E060E816
:1016C000812F0E94040A812F0E94300A80E00F902F
:1016D0000F900F900F90DF91CF911F9108958FEF92
:1016E000F6CF1092FE031092F9038091CA0480FD98
:1016F00004C01092FB031092FA0381FD04C0109203
:10170000FD031092FC030895F89488E198E00FB669
:10171000F894A895809360000FBE9093600085EACE
:101720009AE59093010980930009FFCF90913404CA
:10173000809133042FEF3FEF891771F0E92FF0E02C
:10174000EA5CFB4F208130E09F5F80913204981764
:1017500008F090E090933404C90108958093CE007E
:101760008091C80086FFFCCF8091C8008064809380
:10177000C80090E080E00895EF92FF920F931F93CE
:10178000CF93DF93D82F082F10E0C80188549D4FC6
:101790007C01FC0180811F928F931F92DF9389E867
:1017A00092E09F938F930E94A52DF70180811F9255
:1017B0008F931F92DF9382E792E09F938F930E9413
:1017C000A52DF701C081C3708DB79EB70C960FB6DB
:1017D000F8949EBF0FBE8DBFC111C0E8000F111F4E
:1017E000000F111FF801E852FC4F80819181A28106
:1017F000B381B2FDC062B1FDC064DD2389F0809188
:10180000BD031F928F938BE492E09F938F930E946E
:10181000A52D0F900F900F900F908091BD0310C0D9
:101820008091BE031F928F938EE592E09F938F93DA
:101830000E94A52D0F900F900F900F908091BE03E6
:10184000843108F0C0618C2FDF91CF911F910F91EF
:10185000FF90EF900895E8EBF4E0808120E1829F13
:10186000C0011124992721812F70822B9F938F9380
:101870001F9286E08F938EE691E09F938F930E9454
:10188000A52D0F900F900F900F900F900F9080E06C
:101890000895CF92DF92EF92FF920F931F93CF9311
:1018A000DF93CDB7DEB760970FB6F894DEBF0FBEFB
:1018B000CDBF89E591E08E010F5F1F4F7E0121E1D1
:1018C000E20EF11CD80121E2FC013491E32FF0E09B
:1018D00020935700E491ED930196AE15BF05A1F753
:1018E00089E6C82E81E0D82EF80181918F01282F3A
:1018F000082E000C330B3F938F93DF92CF920E9400
:10190000A52D0F900F900F900F900E151F0561F7EA
:1019100080E060960FB6F894DEBF0FBECDBFDF91BA
:10192000CF911F910F91FF90EF90DF90CF9008958E
:10193000BF92CF92DF92EF92FF920F931F93CF93BC
:10194000DF9300D000D0CDB7DEB7B82E11E001C0D4
:10195000110F8A95EAF7F89400E1C12CD12C760199
:10196000812F0E943B048BE99FE00197F1F700C0B3
:101970000000812F0E943B0419821A821B821C8264
:10198000AE014F5F5F4F62E18B2D0E94A5098981F7
:101990009A81AB81BC81AF70BB27C80ED91EEA1EED
:1019A000FB1E8BE99FE00197F1F700C0000001509A
:1019B000B9F67894C60124E0969587952A95E1F7C3
:1019C0000F900F900F900F90DF91CF911F910F917B
:1019D000FF90EF90DF90CF90BF9008951F93CF932B
:1019E000DF9300D000D0CDB7DEB7162FEFECF7E0D5
:1019F0003197F1F700C00000F89419821A821B8217
:101A00001C82AE014F5F5F4F64E00E94A50989818F
:101A10007894812783710F900F900F900F90DF9132
:101A2000CF911F910895EF92FF920F931F93CF9341
:101A3000DF93D82F01E010E001C0000F8A95EAF78C
:101A40000E947C04F82E0E945D04E82EC02FC095F1
:101A50008F2D8C230E9465048E2D8C230E944E04B2
:101A600060E18D2F0E94EE0CC82FD13061F12D9ACC
:101A700061E18D2F0E94EE0CC82BD13031F12D98F1
:101A80008E2D802B0E944E0462E18D2F0E94EE0C61
:101A9000C82B802F0E943B048F2D802B0E94650451
:101AA00062E08D2F0E94EE0CC82B8E2D0E944E04FA
:101AB0008F2D0E9465048C2FDF91CF911F910F9184
:101AC000FF90EF9008952E9AD3CF2E98D9CF0F93F1
:101AD0001F93CF93DF93EB01482F50E02091FF033A
:101AE00030E0082E02C0359527950A94E2F720FDD4
:101AF00043C095E2949FF001959FF00D1124E251AF
:101B0000FB4F43895489658976898E010D2E000C1F
:101B1000220B330B400F511F621F731F438B548BDB
:101B2000658B768B01E010E001C0000F8A95EAF723
:101B3000D7FF10C0D195C195D1090E945D04802BBB
:101B40000E944E04219760F480E0DF91CF911F91B5
:101B50000F9108950E945D04902F90958923F0CFF6
:101B6000F894802F0E943B0478948FE99FE00197BE
:101B7000F1F700C00000E6CF8EEFE7CFFF920F93A2
:101B80001F93CF93DF93F82E8B01C82FD0E09E01D7
:101B90002F5F3F4F80E0922F9295907F0E94190413
:101BA000FE01EE0FFF1FEC52FC4F20813181C80176
:101BB000821B930BC856DD4F688170E0660F771F5C
:101BC0000E94D72CD62FC72F1F930F933F932F938D
:101BD0007F936F9384E392E09F938F930E94A52D50
:101BE0008DB79EB708960FB6F8949EBF0FBE8DBFF7
:101BF0006D2F7C2F8F2DDF91CF911F910F91FF9033
:101C00000C94670D262F50E0542F442780589F4F87
:101C1000480F591F60E0752F822F90E0880F991FA1
:101C2000681B790B60587109822F0C94BE0D83E0FC
:101C3000809362050E94230580E48093170184E06D
:101C400080937A0580E00895EF92FF921F93CF93DF
:101C5000DF937C01CB01142F160F181306C0DF9100
:101C6000CF911F91FF90EF900895EC01C7010E9462
:101C7000A02E89938FEFE81AF80ACE01EECF1F93BA
:101C8000CF93DF93CDB7DEB760970FB6F894DEBF82
:101C90000FBECDBF182F67FD18C020E032E08111C4
:101CA00002C020E031E040E16402C001112440E1C3
:101CB000BE016F5F7F4F820F931F0E94240EBE01F3
:101CC0006F5F7F4F812F0E94440960960FB6F89492
:101CD000DEBF0FBECDBFDF91CF911F910895EF9270
:101CE000FF921F93CF93DF937C01142F115030F498
:101CF000DF91CF911F91FF90EF900895EB016991D3
:101D0000C7010E94AE2E8FEFE81AF80ABE01EECF8F
:101D1000BF92CF92DF92EF92FF920F931F93CF93D8
:101D2000DF93CDB7DEB760970FB6F894DEBF0FBE76
:101D3000CDBFB82E162FBE016F5F7F4F0E94D60A0F
:101D4000E12C92E0F92EB11003C0E12CFF24F394B2
:101D500017FD1CC020E11202C001112440E1BE01A8
:101D60006F5F7F4F8E0D9F1D0E946F0E60960FB6A6
:101D7000F894DEBF0FBECDBFDF91CF911F910F91C1
:101D8000FF90EF90DF90CF90BF90089510E000E0BB
:101D90006E0181E1C80ED11CF801B1101BC0EF5DCE
:101DA000FC4FCE0101962491DC012D93CD0131969B
:101DB000AC15BD05C1F740E1BE016F5F7F4FC801A3
:101DC0008E0D9F1D0E946F0E005F1F4F0038110582
:101DD00019F7CCCFEF55FD4FE4CFCF93DF93C0E0A1
:101DE000D1E06FEFCE010E94AE2E2196C63183E086
:101DF000D807B9F780E0DF91CF9108958091B204C0
:101E00009091B304A091B404B091B50485FF07C0CC
:101E10006091040167FD03C080E00E94880E8091FC
:101E2000B2049091B304A091B404B091B50486FFBC
:101E300007C06091030167FD03C081E00E94880E26
:101E40008091B2049091B304A091B404B091B50410
:101E500087FF04C06FEF80E00E94880E8091B2047B
:101E60009091B304A091B404B091B50490FF04C064
:101E70006FEF81E00E94880E8091B2049091B304CC
:101E8000A091B404B091B50491FF08C06091130112
:101E90007091140180E093E00E94C02E8091B20402
:101EA0009091B304A091B404B091B50492FF08C01E
:101EB000609111017091120180E193E00E94C02EA7
:101EC0008091B2049091B304A091B404B091B50490
:101ED00093FF08C060910F017091100182E093E0C0
:101EE0000E94C02E8091B2049091B304A091B404DA
:101EF000B091B50494FF08C060910D0170910E017E
:101F000082E193E00E94C02E8091B2049091B304CC
:101F1000A091B404B091B50495FF0CC06091B704D2
:101F200084E193E00E94AE2E6091B60485E193E0D7
:101F30000E94AE2E1092B2041092B3041092B40418
:101F40001092B5040895CF92DF92EF92FF928091A4
:101F500063058823E9F08630B9F048F4833071F0E6
:101F6000843081F0FF90EF90DF90CF90089587301C
:101F700069F08830B9F710926305F4CF84E080935C
:101F80006305F0CF85E0FBCF87E0F9CF88E0F7CF9E
:101F90008091010118165CF4833009F40DC10CF036
:101FA000A1C0813009F4AFC0823009F4D7C080915C
:101FB000000118165CF4843009F452C20CF0E9C137
:101FC000813009F428C2833009F43EC2F894F090BD
:101FD000E8031092E8037894FF2009F4C3CFF0FEE1
:101FE00010C08091F1039091F20360EF71E096953B
:101FF0008795969587950E94AD0390930A048093E8
:102000000904F1FE0AC08091F3039091F4030E9449
:102010008B0490930C0480930B04F2FE0AC0809111
:10202000F5039091F6030E948B0490930E04809325
:102030000D04F3FE0AC08091F7039091F8030E940B
:102040008B049093100480930F04F4FE0AC08091D7
:10205000E9039091EA030E94930490930601809310
:102060000501F5FE0AC08091EB039091EC030E94FC
:1020700093049093080180930701F6FE0AC08091B3
:10208000ED039091EE030E94930490930A018093D4
:102090000901F7FE67CF2091EF033091F0033695E9
:1020A000279536952795AAEBB3E10E940D2D9B014C
:1020B000AC019AE056954795379527959A95D1F7B3
:1020C00044275527A8E3BAE10E941C2D2AE09695E3
:1020D0008795779567952A95D1F770930C01609352
:1020E0000B0140CF843009F49FC0853009F05FCFE9
:1020F0008091FF0380FD5BCF8091B10280FD47C1DD
:102100001092010154CF1092B60280910105909176
:102110000205A0910305B09104058093B20290934B
:10212000B302A093B402B093B5021092040160E030
:1021300080E00E943F0E0E947C0481600E94650442
:102140008091640581608093640540EE53E964E00A
:1021500070E080E00E944A0882E029C08091FF037D
:1021600080FD25CF8091B10280FF24C02FEF31EE9A
:1021700084E0215030408040E1F700C000008091B1
:10218000010590910205A0910305B091040580938B
:10219000B2029093B302A093B402B093B50240E0B0
:1021A00058EF6FEF7FEF80E00E944A0883E0809352
:1021B0000101FDCE8EEFFBCF8091FF0380FDF7CEB6
:1021C0008091B10280FDE3C08091010590910205EC
:1021D000A0910305B09104058093B2029093B302DD
:1021E000A093B402B093B50281E08093040161E052
:1021F00080E00E943F0E8091010590910205A09120
:102200000305B09104058093B2029093B302A093AA
:10221000B402B093B50240E058E160E070E080E0C5
:102220000E944A0884E0C3CF8091FF0380FDBFCEA7
:102230008091B10280FFBECFC0900105D090020511
:10224000E0900305F09004058091B2029091B302F2
:10225000A091B402B091B502C81AD90AEA0AFB0AE1
:102260008091B602813001F18230C1F181119FCE9F
:10227000FF92EF92DF92CF9289ED91E09F938F933F
:102280000E94A52D0F900F900F900F900F900F9020
:1022900080910F019091100197FD04C082E080931E
:1022A000B6025ACF81E0FBCFFF92EF92DF92CF923E
:1022B00082EC91E09F938F930E94A52DD092100104
:1022C000C0920F0182E08093B602809301010F90CB
:1022D0000F900F900F900F900F9069CEFF92EF929A
:1022E000DF92CF92809110018F9380910F018F9395
:1022F00089EA91E09F938F930E94A52D80910F0111
:1023000090911001AC0140585109052E000C660B4C
:10231000770B2DB73EB7285F3F4F0FB6F8943EBFFF
:102320000FBE2DBFC416D506E606F70650F180583D
:102330009F4F092E000CAA0BBB0B8C159D05AE05FB
:10234000BF05F8F01092040160E080E00E943F0EAB
:102350008091010590910205A0910305B0910405BB
:102360008093B2029093B302A093B402B093B502EB
:1023700040E05CEF6FEF7FEF80E00E944A0885E06D
:1023800016CF8FEF9FEF9093100180930F018DEF89
:102390000ECF853009F471C0863009F017CE8091D8
:1023A000FF0381FD13CE81E090E00E94190480912B
:1023B000C80487FD75C0809111019091120197FFAB
:1023C0001FC080E090E20E9419048091D603909192
:1023D000D70390931201809311018091B2049091E0
:1023E000B304A091B404B091B50494608093B20496
:1023F0009093B304A093B404B093B5040E94FE0E6E
:1024000040E061E080911101909112010E94020E62
:1024100010920001DBCD0E947C0482600E94650462
:102420001092030160E081E00E943F0E81E090E0A5
:102430000E9419048091C80487FD02C084E001C095
:1024400083E080930001C2CD8091FF0381FDBECD6A
:1024500040E05EEC6FEF7FEF81E00E944A08EECF34
:102460008091FF0381FDB2CD40E052E060E070E07A
:1024700081E00E944A0885E0E4CF8091FF0381FD5E
:10248000A5CD81E08093030161E00E943F0E40E012
:102490005CEF6FEF7FEF81E00E944A0886E0D1CFCA
:1024A0008EEFCFCF8091FF03837051F480910101B3
:1024B000181634F080910001181614F080E0089589
:1024C0000E94A30FEFCFCF92DF92EF92FF92CF93B4
:1024D000DF9300D000D000D0CDB7DEB7CE01059697
:1024E0009F938F9304979F938F9389E891E09F9395
:1024F0008F93809178058F93809177058F930E94B9
:10250000CA2D0FB6F894DEBF0FBECDBF019771F094
:102510008DEF26960FB6F894DEBF0FBECDBFDF91CC
:10252000CF91FF90EF90DF90CF9008958D8187FD40
:10253000F0CF80917905843A19F18F3A79F1823A96
:1025400009F049C0C980DA80EB80FC800E947C04DD
:1025500081600E9465048091010590910205A0911F
:102560000305B0910405B701A601481B590B6A0B7E
:102570007B0B80E00E944A0887FF0EC08EEFC9CF18
:1025800089819A81AB81BC8180930105909302057A
:10259000A0930305B093040580E0BBCF49815A8125
:1025A0006B817C818CEF413C34ED530731E0630754
:1025B00071050CF0AECF809100048260809300041E
:1025C00070956095509541955F4F6F4F7F4F80E0BC
:1025D0000E944A08E1CF8AEF9CCFCF93DF9300D0CF
:1025E0000F92CDB7DEB7CE0101969F938F930296DF
:1025F0009F938F9382E891E09F938F9380917805CA
:102600008F93809177058F930E94CA2D0FB6F8940F
:10261000DEBF0FBECDBF019739F08DEF0F900F9049
:102620000F90DF91CF910895898187FDF7CF809139
:102630007905883A11F130F4893981F08A39B9F095
:102640008AEFECCF823C69F1833C99F1893AC1F77A
:102650006B816F3F01F56093030107C08B8180930D
:10266000E40380E290E00E94190480E0D7CF8B81E0
:102670008093E50380E092E0F6CF6B816F3F19F421
:1026800060930401F2CF6830D0F46093040180E0DD
:102690000E943F0EEACF683090F46093030181E01E
:1026A000F7CF6B81062E000C770B80E00E94670D40
:1026B000B5CF6B81062E000C770B81E0F7CF8CEF46
:1026C000ADCFCF93DF9300D0CDB7DEB79E012F5FA4
:1026D0003F4F3F932F937F936F9324EE30E03F93D0
:1026E0002F939F938F930E94CA2D0FB6F894DEBF4D
:1026F0000FBECDBF019731F489810F900F90DF910C
:10270000CF9108958DEFF9CFCF93DF9300D0CDB760
:10271000DEB7BE016F5F7F4F80917705909178059E
:102720000E94611387FD20C089819A819C012F5FDF
:102730003F4F21303140E8F4909312018093110112
:102740008091B2049091B304A091B404B091B50407
:1027500094608093B2049093B304A093B404B093B4
:10276000B5040E94FE0E80E00F900F90DF91CF9194
:1027700008958CEFF9CFCF93DF9300D0CDB7DEB7BC
:10278000BE016F5F7F4F80917705909178050E9421
:10279000611387FD20C089819A819C012F5F3F4F83
:1027A00021343105E8F49093140180931301809152
:1027B000B2049091B304A091B404B091B5049260B6
:1027C0008093B2049093B304A093B404B093B5047F
:1027D0000E94FE0E80E00F900F90DF91CF91089540
:1027E0008CEFF9CF0F931F93CF93DF9300D0CDB72A
:1027F000DEB7BE016F5F7F4F8091770590917805BE
:102800000E94611387FD07C080917905833A51F0DA
:10281000853A31F18AEF0F900F90DF91CF911F91A0
:102820000F91089509811A810E947C0482600E94A0
:102830006504A801110F660B770B80912605909116
:102840002705A0912805B0912905481B590B6A0B53
:102850007B0B81E00E944A0887FF10C08EEFDBCF20
:1028600089819A81092E000CAA0BBB0B8093260547
:1028700090932705A0932805B093290580E0CBCF3E
:10288000CF93DF9300D0CDB7DEB79E012F5F3F4FD0
:102890003F932F937F936F932FED30E03F932F93D0
:1028A0009F938F930E94CA2D0FB6F894DEBF0FBE80
:1028B000CDBF019731F489810F900F90DF91CF91B7
:1028C00008958DEFF9CFCF92DF92EF92FF921F9391
:1028D000CF93DF9300D0CDB7DEB71A82198282ED95
:1028E000E82E84E0F82E10E090E3C92E95E7D92E6B
:1028F000BE016F5F7F4F80917705909178050E94B0
:10290000401487FD30C069817A81113041F0123066
:10291000A1F1613F9AE0790730F08CEF24C0653E69
:10292000ECE07E07D0F7643F91E07907B0F32091A7
:10293000770530917805280F311D87FD3A95309342
:10294000780520937705C6010E94C32CF7016683A2
:102950008091D0040E94C3041F5FF7E0EF0EF11CCA
:10296000133031F680E00F900F90DF91CF911F91DF
:10297000FF90EF90DF90CF9008956938F3E17F07E3
:1029800090F2CBCFCF93DF9300D000D0CDB7DEB79E
:10299000BE016F5F7F4F80917705909178050E940F
:1029A000401487FD26C02091770530917805A90154
:1029B000480F511D87FD5A95CA01509378054093E1
:1029C0007705BE016D5F7F4F0E94401487FD11C0E7
:1029D00089819A819C01205131092937334180F442
:1029E0006B817C81613127E2720750F40E942905D6
:1029F00080E00F900F900F900F90DF91CF9108958E
:102A00008CEFF7CFCF93DF9300D0CDB7DEB7BE0109
:102A10006F5F7F4F80917705909178050E944014F9
:102A200087FD0AC0809179058C3BB9F150F48E384E
:102A3000D9F08F3831F18AEF0F900F90DF91CF915D
:102A400008958D3BA1F18E3BB1F789819A819093D6
:102A50000504809304048091040490910504892B5B
:102A600061F00E94A30FF7CF49815A8170E060E0C6
:102A700080E00E944A0887FD02C080E0DDCF8EEF33
:102A8000DBCF49815A8170E060E070956095509588
:102A900041955F4F6F4F7F4FEBCF69817A81611511
:102AA00084E0780760F480E00E94BE0DC5CF6981A4
:102AB0007A81611584E0780710F481E0F5CF8CEF1E
:102AC000BBCFCF93DF9300D0CDB7DEB79E012F5F92
:102AD0003F4F3F932F937F936F9328ED30E03F93C9
:102AE0002F939F938F930E94CA2D0FB6F894DEBF49
:102AF0000FBECDBF019731F489810F900F90DF9108
:102B0000CF9108958DEFF9CF1F93CF93DF930F925D
:102B1000CDB7DEB7BE016F5F7F4F80917705909193
:102B200078050E94611587FD1DC0209177053091C1
:102B30007805280F311D87FD3A953093780520934D
:102B4000770519818CEF123068F480E090E20E94E2
:102B50001904412F61E08091D6039091D7030E9420
:102B6000020E80E00F90DF91CF911F9108951F9387
:102B7000CF93DF930F92CDB7DEB7BE016F5F7F4F6C
:102B800080917705909178050E94611587FD1DC0A1
:102B90002091770530917805280F311D87FD3A95F2
:102BA000309378052093770519818CEF123068F403
:102BB00080E090E10E941904412F60E08091D403ED
:102BC0009091D5030E94020E80E00F90DF91CF918B
:102BD0001F910895CF93DF930F92CDB7DEB7BE015B
:102BE0006F5F7F4F80917705909178050E94611506
:102BF00087FD26C02091770530917805280F311D7B
:102C000087FD3A9530937805209377058981813047
:102C1000D9F410926A0510926B0510926C0510920F
:102C20006D0544E06AE675E086E190E00E946F0E73
:102C300044E06EE675E080E290E00E946F0E80E076
:102C40000F90DF91CF910895823059F710926E0561
:102C500010926F051092700510927105E2CF1F93CC
:102C6000CF93DF930F92CDB7DEB780917705909128
:102C70007805FC0110812EEB210F253008F051C0A2
:102C800001969093780580937705BE016F5F7F4F23
:102C90000E94611587FD46C080917905823E69F1E9
:102CA000833EB9F0813E39F48981143471F02CF4FB
:102CB000133449F085B980E035C0153441F016343D
:102CC000C9F781BBF8CF88B9F6CF8BB9F4CF8EB9ED
:102CD000F2CF8981143469F024F4133441F083B9BC
:102CE000EACF153441F01634D1F78FB9E4CF86B965
:102CF000E2CF89B9E0CF8CB9DECF8981143469F095
:102D000024F4133441F084B9D6CF153441F016348D
:102D1000D1F780BBD0CF87B9CECF8AB9CCCF8DB910
:102D2000CACF8CEF0F90DF91CF911F91089567EB81
:102D300074E080917705909178050E94611587FD78
:102D400028C02091770530917805A901480F511DC1
:102D500087FD5A95CA01509378054093770566EB35
:102D600074E00E94611587FD14C08091B2049091B7
:102D7000B304A091B404B091B50490628093B204FE
:102D80009093B304A093B404B093B5040E94FE0ED4
:102D900080E00895CF93DF930F92CDB7DEB7BE01E9
:102DA0006F5F7F4F80917705909178050E94611544
:102DB00087FD0AC08981823078F4882349F0EE9A31
:102DC00081E08093B70280E00F90DF91CF9108956A
:102DD000EE981092B702F7CF8CEFF6CFDF92EF921A
:102DE000FF920F931F93CF93DF93CDB7DEB760971A
:102DF0000FB6F894DEBF0FBECDBFD0907905E0903E
:102E00007705F0907805BE016F5F7F4FC7010E9484
:102E1000401487FD5DC08701080F111D87FD1A95BD
:102E2000F8019081992341F0BE016D5F7F4FC80189
:102E30000E94401487FD4CC0080F111D87FD1A9594
:102E4000F8019081992341F0BE016B5F7F4FC8016B
:102E50000E94401487FD3CC0080F111D87FD1A9584
:102E6000F8019081992341F0BE01695F7F4FC8014D
:102E70000E94401487FD2CC0080F111D87FD1A9574
:102E8000F8019081992341F0BE01675F7F4FC8012F
:102E90000E94611587FD1CC0080F111D87FD1A9542
:102EA000F8019081992341F0BE01665F7F4FC80110
:102EB0000E94611587FD0CC0080F111D87FD1A9532
:102EC000F8018081811112C0802F8E1987FF17C0F1
:102ED00060960FB6F894DEBF0FBECDBFDF91CF91E5
:102EE0001F910F91FF90EF90DF900895BE01655FF5
:102EF0007F4FC8010E94401487FFE6CFE9CF81E0F1
:102F0000F7EADF1280E0BE016F5F7F4F0E94440945
:102F100087EAD816A9F08091B2049091B304A091E9
:102F2000B404B091B50480628093B2049093B3046A
:102F3000A093B404B093B5040E94FE0E80E0C8CF05
:102F40008091B2049091B304A091B404B091B504FF
:102F50008064EACFCF93DF9300D000D000D00F92EF
:102F6000CDB7DEB7BE01695F7F4F80917705909145
:102F700078050E94611587FD3DC0E0917705F091CD
:102F80007805E80FF11D87FDFA95F0937805E09339
:102F9000770519821A821B821C828081811113C0DD
:102FA00089819A81AB81BC81809366059093670586
:102FB000A0936805B09369058091CC049F8191111D
:102FC00026C08D7F25C0CE0105969F938F930497D1
:102FD0009F938F938FE891E09F938F93FF93EF934D
:102FE0000E94CA2D0FB6F894DEBF0FBECDBF019769
:102FF00051F08DEF27960FB6F894DEBF0FBECDBF10
:10300000DF91CF9108958D8187FFCACFF3CF826082
:103010000E94FF0480E0EECF1F93CF93DF930F92C7
:10302000CDB7DEB7BE016F5F7F4F8091770590917E
:1030300078050E94611587FD19C080917905853852
:1030400009F4ADC058F5803109F470C0A0F48D309A
:1030500009F457C08F3009F458C08C30C9F5898104
:10306000843008F0F0C00E94650480E00F90DF918A
:10307000CF911F910895823809F480C0833809F4F4
:1030800074C0813129F59981943008F0DCC08091B9
:103090006405807F892B80936405E7CF8A3A09F421
:1030A0008AC078F4853909F44CC0863909F454C0D3
:1030B0008A3871F48981803108F0C5C00E94C30448
:1030C000D4CF813B09F47EC080F48D3A09F495C0D9
:1030D000813B09F4B0C0893B09F4B2C0E0EBF2E0F7
:1030E000823409F4AAC08AEFC1CF883B09F470C0CA
:1030F000843C71F78981803108F0A5C080932E044B
:10310000B4CF89810E94FF04B0CF8981843008F058
:103110009AC09091FF039F7040E1849F9001112419
:10312000922B9093FF030E944E049FCF998194307D
:1031300008F089C08091FF03807F892B8093FF0373
:1031400094CF8981803408F07EC08093E60380E1CB
:1031500090E00E94190489CF8981803408F073C0FF
:103160008093E70380E091E0F4CF1981111103C04F
:1031700080E00E941C051093080477CF8981843079
:1031800008F061C080936205882319F00E9423052E
:103190006CCF8091D004877F8093D00466CF9981D3
:1031A000923008F050C08091CC04992311F08460D3
:1031B000A9CF8B7FA7CF8981823008F044C080934C
:1031C0007D0553CF89818531F0F5809302014DCF84
:1031D00089818B3FC0F580936505882321F08A3F64
:1031E00039F4589A01C0589884B58F7C84BD3DCF7E
:1031F0008A5F88BD84B58062F9CF9981923018F5D5
:1032000080911601992369F084608093160188E00B
:1032100090E00E9419048091000481608093000472
:1032200024CF8B7F8093160188E090E00E941904E0
:10323000109200041ACFE2E0F1E08981808315CF7B
:10324000E7E1F1E0FACF8CEF11CFAF92BF92DF92BE
:10325000EF92FF920F931F93CF93DF93CDB7DEB71B
:1032600060970FB6F894DEBF0FBECDBF8091B80453
:103270008F3FC9F485E591E09F938F930E94A52D20
:103280000F900F9080E060960FB6F894DEBF0FBEEF
:10329000CDBFDF91CF911F910F91FF90EF90DF9005
:1032A000BF90AF9008958E010F5F1F4F80E1F8012E
:1032B00011928A95E9F744E050E06BEB74E0C801A5
:1032C0000E946B2E7E01F6E0EF0EF11C43E050E011
:1032D0006FEB74E0C7010E946B2ED090C204DA86B7
:1032E0005E018BE0A80EB11C45E050E063EC74E099
:1032F000C5010E946B2EBF92AF928D2D0D2C000C3C
:10330000990B9F93DF92FF92EF921F930F9382E4AA
:1033100091E09F938F930E94A52D0FB6F894DEBF86
:103320000FBECDBFAFCFCF93DF93CDB7DEB7AE012A
:103330004B5F5F4FFA0161917191AF01809173050D
:10334000909174050E94E32DDF91CF910895CF9362
:10335000DF93C82FD0E01F928F938FE991E09F9366
:103360008F930E9493198FEF80937A05FE01EB569D
:10337000FE4FE491F89478940F900F900F900F9077
:10338000DF91CF910895AF92BF92CF92DF92EF92EB
:10339000FF920F931F93CF93DF9300D000D0CDB750
:1033A000DEB7F89419821A821B821C82AE014F5F2D
:1033B0005F4F60E080E00E94A50919810A81FB80CF
:1033C000EC8080E00E94300AEF92FF920F931F93EF
:1033D0001F928F9308ED13E0F80183818F93828110
:1033E0008F9381818F9380818F9388EBE82E82E089
:1033F000F82EF70180811F928F938DE091E09F93CB
:103400008F930E94931919821A821B821C82AE012B
:103410004F5F5F4F60E081E00E94A509D980CA80BC
:10342000BB80AC8081E00E94300AAF92BF92CF9205
:10343000DF921F928F93F80187818F9386818F93FC
:1034400085818F9384818F93F70181811F928F9360
:1034500089EE90E09F938F930E94931978940FB612
:10346000F894DEBF0FBECDBF80E00F900F900F909D
:103470000F90DF91CF911F910F91FF90EF90DF9010
:10348000CF90BF90AF900895CF93DF93CDB7DEB7C5
:10349000AE014B5F5F4FFA0161917191AF01809175
:1034A0007B0590917C050E94E32DDF91CF910895DB
:1034B0000F931F93CF93DF938091BB02E091BC03E6
:1034C000E81BC82F8A3008F0CAE08C1B8093BB022F
:1034D000CE0F0AE711E0EC1306C080E0DF91CF9138
:1034E0001F910F910895D1E0DE0FF0E0E454FD4FFD
:1034F00080811F928F931F930F930E94441A0F9005
:103500000F900F900F90ED2FE6CFEEEEF4E086894E
:103510008F9385898F9384898F9383898F9385E790
:1035200091E09F938F930E94441A0F900F900F90F9
:103530000F900F900F9080E0089585E391E09F93A6
:103540008F931F921F921F921F921F9281E08F9361
:1035500086E391E09F938F930E94441A8DB79EB7A4
:103560000A960FB6F8949EBF0FBE8DBF80E00895F7
:103570000E9459050097A1F0FC018081282F082E98
:10358000000C330B3F938F9381E391E09F938F93D4
:103590000E94441A0F900F900F900F9080E00895B2
:1035A00080E0ECCF9F938F9384ED90E09F938F9377
:1035B0000E94441A0F900F900F900F9097FD80E09B
:1035C000089580912605909127050E94D21A80E0E7
:1035D00008950F931F93CF93DF930E94590500978F
:1035E00059F0EC018C01085F1F4F899199910E945D
:1035F000D21AC017D107C9F780E0DF91CF911F9190
:103600000F9108950E945905009739F0FC018081BF
:1036100091810E94D21A80E0089590E080E0F9CF75
:103620009F938F937F936F938FEC90E09F938F93F3
:103630000E94441A0F900F900F900F900F900F90D0
:1036400097FD80E00895CF93DF93C5E6D5E06D81C7
:103650007E818F8198850E94101B69857A858B8574
:103660009C850E94101B80E0DF91CF9108959F936D
:103670008F938BEC90E09F938F930E94441A0F904E
:103680000F900F900F9097FD80E008958FEF93E0DB
:103690000E94A02E8150990B2AE0AC01249FC0010A
:1036A000259F900D11240E94371B80E008951092F1
:1036B000AF021092AE028091AE029091AF022091C3
:1036C000FF032370822B9093AF028093AE02809110
:1036D0007A058F3F21F085E090E00E941904209147
:1036E000C90427FD09C08091AE029091AF028064A9
:1036F0009093AF028093AE0225FD09C08091AE0287
:103700009091AF0280689093AF028093AE02809157
:10371000C80487FD09C08091AE029091AF0291600C
:103720009093AF028093AE0280917205882349F096
:103730008091AE029091AF0290629093AF0280931D
:10374000AE0280917A05823001F581E080936205B6
:103750000E94230583E080937A0585E08093070427
:1037600080912C04882349F08091AE029091AF02A1
:1037700090649093AF028093AE028091AE029091DC
:10378000AF020E94371B80E0089580917A058F3F39
:1037900021F78091AE029091AF0290689093AF02B2
:1037A0008093AE02DACFEF92FF920F931F93CF93E5
:1037B000DF9383E1E82E84E0F82ED0E0C0E000E360
:1037C00015E7F701628173816115710571F08091D0
:1037D000D00490E00C2E02C0959587950A94E2F7EC
:1037E00080FF15C0C8010E94C32CCB010E94371B6B
:1037F000219628E0E20EF11CC330D10511F780E0DC
:10380000DF91CF911F910F91FF90EF90089570E09D
:1038100060E0EBCF0F931F93CF93DF930E94590586
:10382000009759F0EC018C01085F1F4F8991999125
:103830000E94371BC017D107C9F780E0DF91CF91F5
:103840001F910F9108950E945905009739F0FC01CE
:10385000808191810E94371B80E0089580917905D5
:103860008C3B29F08D3B61F090E080E0F3CF80E06D
:1038700090E10E9419048091D4039091D503EACF7E
:1038800080E090E20E9419048091D6039091D703C2
:10389000E1CF1F928F9387EC90E09F938F930E94CC
:1038A000441A0F900F900F900F9097FD80E00895AD
:1038B000E0917705F091780590812EEB290F253066
:1038C00008F044C020917905223E69F1233EC1F001
:1038D000213E31F4943481F03CF4933459F085B1B5
:1038E0000E94491C80E00895953441F09634B9F760
:1038F00081B3F6CF88B1F4CF8BB1F2CF8EB1F0CFD8
:10390000943469F024F4933441F083B1E9CF9534D1
:1039100041F09634D1F78FB1E3CF86B1E1CF89B1D1
:10392000DFCF8CB1DDCF943469F024F4933441F0CF
:1039300084B1D6CF953441F09634D1F780B3D0CF4F
:1039400087B1CECF8AB1CCCF8DB1CACF8CEF0895DD
:103950008091B7040E94491C8091B6040E94491CC2
:1039600080E008958091CC04869581700E94491C66
:103970006091660570916705809168059091690571
:10398000611571058105910511F00E94101B80E001
:1039900008950E945905009731F0FC0180810E9432
:1039A000491C80E00895809179058539F1F1A8F4EA
:1039B000803189F140F48C3041F18F3049F1813010
:1039C000F9F080E0ECCF853851F18A3809F441C034
:1039D0008131B9F78091640520C08D3A81F140F4BE
:1039E000893939F18A3941F1863959F781E01EC0A8
:1039F000883C49F1893C59F18E3A19F78CB111C0D4
:103A00008091720510927205CACF0E947C04C7CFC4
:103A10000E945D04C4CF8091FF038F70C0CF80915E
:103A2000CC0482FB882780F9BACF80E00E94C40AC8
:103A3000B6CF8091C803B3CF8091D103B0CF80912E
:103A400000048170ACCF80E00E94BC0BA8CF81E065
:103A5000FBCF8091D0048770A2CFFF920F931F936A
:103A6000CF93DF938C01FC01808191810E94371BF1
:103A7000C82FF801828193810E94371BC80FF8017B
:103A8000848195810E94371BC80FF8018681978138
:103A90000E94371BC80FF80180850E94491CC80F7F
:103AA000F8018185282F082E000C330B3F938F934C
:103AB00081E391E09F938F930E94441AF82ED92FAF
:103AC000F801828593850E94371B2F2D3D2F0F9083
:103AD0000F900F900F9037FD20E08C0F820FDF9139
:103AE000CF911F910F91FF9008951F93CF93DF9374
:103AF000CDB7DEB761970FB6F894DEBF0FBECDBF6E
:103B000010917905BE016F5E7F4F8091770590918E
:103B100078050E94611587FD1AC08989883008F5EB
:103B200020E032E0173A11F020E031E040E1849FDC
:103B3000C001112440E1BE016F5F7F4F820F931FD0
:103B40000E94240ECE0101960E942D1D80E06196F8
:103B50000FB6F894DEBF0FBECDBFDF91CF911F919E
:103B600008958CEFF4CFCF93DF93CDB7DEB7609796
:103B70000FB6F894DEBF0FBECDBF81E090917905FE
:103B8000973A09F080E0BE016F5F7F4F0E94D60A2E
:103B9000CE0101960E942D1D80E060960FB6F8942C
:103BA000DEBF0FBECDBFDF91CF910895CDB7DEB799
:103BB00060970FB6F894DEBF0FBECDBF84B7809379
:103BC000720514BE8091720583FF11C080910009B7
:103BD00090910109853A9A4551F480917205877F49
:103BE00080937205809172058068809372058AE5E2
:103BF00095EA90930109809300099FB7F894A895DE
:103C000084B7877F84BF18E1109360001092600032
:103C10009FBF8FE00FB6F894A895109360000FBE79
:103C2000809360001092D7001092D80095E1909395
:103C3000C5008093C60080E8809361001092610007
:103C4000789481E00E941C058091C8008260809376
:103C5000C80080E18093CC001093C9008091C90016
:103C600080688093C9008CE78093320410923304FB
:103C7000109234048AE992E02EEA3BE03093A302EA
:103C80002093A20226E93BE03093A5022093A402F0
:103C900023E020939D021092A7021092A6025A9A46
:103CA0009093AD058093AC059093AF058093AE05DE
:103CB00090937F0580937E0590937C0580937B0590
:103CC0009093740580937305809172051F928F9372
:103CD0008DEE93E09F938F930E94931980917100D2
:103CE000817F80937100109290008AE08093910010
:103CF000109299001092980010929B0010929A00D6
:103D000010929D0010929C001092950010929400C9
:103D10003E9A46980F900F900F900F908091B804A4
:103D20008F3FC1F48FEF9FEF9093140180931301A5
:103D300090931201809311018FEF9FEFDC0180932C
:103D4000B2049093B304A093B404B093B5040E945A
:103D5000FE0EA5C044E06AE675E086E190E00E94B0
:103D6000240E80916A0590916B05A0916C05B0912D
:103D70006D058F3F9F4FAF4FBF4F79F410926A058B
:103D800010926B0510926C0510926D0544E06AE686
:103D900075E086E190E00E946F0E44E06EE675E00B
:103DA00080E290E00E94240E80916E0590916F0554
:103DB000A0917005B09171058F3F9F4FAF4FBF4FDE
:103DC00079F410926E0510926F05109270051092A2
:103DD000710544E06EE675E080E290E00E946F0EAF
:103DE00000E011E040E1BE016F5F7F4FC8010E941B
:103DF000240E89819A8181329E4408F093CF8B8171
:103E00009C8181329E4408F08DCF8D819E810C97DC
:103E10008D34924008F086CF8F8198850C978D3431
:103E2000924008F07FCF8985803408F07BCF8B8566
:103E30009C858938934108F075CF005F1F4F00388B
:103E400041E0140779F680E093E00E94A82E909359
:103E500014018093130180E193E00E94A82E9093B7
:103E600012018093110182E093E00E94A82E9093AA
:103E7000100180930F0182E193E00E94A82E90939D
:103E80000E0180930D0184E193E00E94A02E8093A7
:103E9000B70485E193E00E94A02E8093B6042EE93A
:103EA00032E6F901459155916591749180E090E079
:103EB000DC01F0E0E0E02E173F0709F09DC0481755
:103EC00059076A077B0709F0A6C040E050E0BA0135
:103ED000E0E0F0E7CF010196E4914E0F511D611D26
:103EE000711DFC01803FAFE79A07A1F746365D4997
:103EF0006740710509F091C0A8EBB4E09D01FC0199
:103F00004491F90141939F0101968115F0E89F07C3
:103F1000B1F728EC34E08D918F3F09F077C08093A2
:103F2000B80489E0F0E0E0E080935700E491EE35DA
:103F300009F075C0E3E0F0E080935700E491E83DBC
:103F400009F06DC0E2E0F0E080935700E491E83CB6
:103F500009F065C0E1E0F0E08093570084918F7331
:103F60008F3219F085E00E94A71984B1817F84B94E
:103F700084B1876084B985B1817F85B9289A80E54D
:103F80008CBD1DBC8AB182618AB98BB182618BB94B
:103F90008FE39CE90197F1F700C00000249A2C9A66
:103FA0002C982C9A60E880E00E94850660EE81E003
:103FB0000E9485066AEC82E10E94850660EE83E13C
:103FC0000E94850680E00E947306803851F19FEFC1
:103FD000809172058E7FB1F58091C90487FF32C050
:103FE00085EE93E09F938F930E94931980E00E9447
:103FF0001C050F900F90FFCF8F010F5F1F4FE491B3
:104000008E0F911DA11DB11DF80155CF2A173B0739
:1040100009F081CF86CF81E0A6CF82E0A4CF84E0F3
:10402000A2CF81E00E947306803E89F682E10E9461
:1040300073068093C80483E10E9473068093C904C9
:1040400090E0C6CF9F3F19F486E00E94A719109216
:10405000CB041092CA0480917A00876080937A0022
:1040600080917C00806480937C0080917A008068DD
:1040700080937A0013E010937E000E94710B279AC0
:10408000209A559A509A2F9A289A5D9A589A81E0C8
:104090008093CC04809362058AEF8093650584E168
:1040A00090E09093E8048093E70488E08093D00444
:1040B00024E12093D8048CE390E09093D304809380
:1040C000D2042093DF049093DA048093D9042093E0
:1040D000E6049093E1048093E004259A269A2D98B3
:1040E0002E9856985798519A549A599A5C9A80E00B
:1040F0000E94090B082F81E00E94090B87FD02C076
:1041000007FF96C087E00E94A71980B38F7880BB15
:1041100081B3806781BB879A80911601877E8093E7
:10412000160188E090E00E942E0410925D0562E383
:1041300070E088EB91E00E94290510925E051092D4
:104140005F05109260051092610583E084BD85BD16
:104150009DE797BD96E096BD80936E0080916A00C2
:104160008F7C80936A0080916A00806280936A00ED
:1041700080917A05811108C00E94130D882309F4EB
:1041800000C188E00E94A71980917A05811105C0BD
:104190000E94980C81E00E94980C80917A05811110
:1041A0000CC012E0109362050E94230588E0809302
:1041B000170110937A05109263058BEF93E09F939C
:1041C0008F930E94A52D0F900F9080EEE82E86E031
:1041D000F82EA8958091750590917605892B09F0A8
:1041E000D6C08DB79EB79093760580937505809164
:1041F000AA059091AB058A970CF4EFC08FEF209140
:10420000AA053091AB052A3231050CF4EFC03F937B
:104210002F93FF92EF920E94441A1092AB051092D6
:10422000AA050F900F900F900F900E94A30FD1CF6F
:1042300064E080E00E94480A62E081E00E94480A4F
:1042400068E180E00E94850A66E080E00E94730ACF
:1042500068E181E00E94850A68E081E00E94730ABB
:104260009FEFA0E7B2E09150A040B040E1F700C05E
:1042700000000BE1E8EFF4E0DF01202F1D922A950A
:10428000E9F788E58093EE0480E293E09093F004F0
:104290008093EF0490E8E92E9CE0F92EF092F2046E
:1042A000E092F10480EC94E49093F4048093F3049E
:1042B0008AEF90E09093F6048093F5049093F804CD
:1042C0008093F70480E00E94C108EDE1F5E0DF0192
:1042D0001D920A95E9F789E580931305F09215057B
:1042E000E092140580EC93E09093170580931605F7
:1042F00080E095E090931905809318058CE090E09C
:1043000090931B0580931A0590931D0580931C05BF
:1043100081E00E94C108809181008F7E809381009E
:1043200080918100886080938100809180008D7FE2
:1043300080938000809180008E7F809380008091A8
:1043400080008F7380938000809180008F7C8093A9
:10435000800080918100887F82608093810080E06E
:1043600092E09093890080938800109285001092CB
:10437000840080916F00826080936F0010936405C9
:10438000C4CE81E00E94130D8111FBCEFDCE2DB76E
:104390003EB780917505909176052817390709F485
:1043A00026CF0E94840B8D3011F08A3009F480E012
:1043B0002091AA053091AB05F901E058FA4F8083AE
:1043C000882309F41CCF2F5F3F4F3093AB05209318
:1043D000AA052A3231050CF012CF80917E0590910A
:1043E0007F050E943B2D87FFDECF09CF12161306F3
:1043F0000CF01BCF811119CF80917D05882381F0AE
:1044000060917B0570917C0580E895E00E947A2E92
:1044100060917B0570917C058AE090E00E94752D8B
:1044200010918005113211F01F33A1F4E091810544
:10443000EE2309F44DC0809184058F7D71F42CE04A
:1044400043E062E475E081E895E00E944E06E3E017
:104450008F3F91F423E030E034C0809185058F7D5B
:10446000C9F720E444E062E074E081E895E00E944E
:104470004E06E4E08F3F71F30E2E000CFF0BEF575A
:10448000FA4F9081911126C090917A059F3F19F4BF
:10449000823008F03FC0809379054DE062E775E017
:1044A000113229F044E369E975E01F3399F60E945F
:1044B0003A06E82FFF27E1950CF4F0959F01882339
:1044C00061F187ED96E03F932F939F938F93A3CE57
:1044D00080E0D2CF903209F0BDCF90917A059F3F16
:1044E000C9F0803E20F090917A05943099F4809341
:1044F00079053196F0937805E093770541E365E31C
:1045000076E01132A1F21F3309F0A4CF45E068EC48
:1045100076E0CDCF25E030E0D4CF8CED96E0D3CF60
:104520001F920F920FB60F9211245F926F927F929B
:104530008F929F92AF92BF92CF92DF92EF92FF92B3
:104540000F931F932F933F934F935F936F937F939B
:104550008F939F93AF93BF93EF93FF93CF93DF938B
:1045600000D000D0CDB7DEB780917A058F3F79F1CA
:1045700080911104909112049C012F5F3F4F309362
:10458000120420931104883E934008F44AC110920B
:104590001204109211048091090490910A04853844
:1045A0009340CCF180917A058F3FA9F18FEF8093F2
:1045B00015016FEF82E10E9485061092160160E0FE
:1045C00083E10E9485068F9889E00E94A7190F90C9
:1045D0000F900F900F90DF91CF91FF91EF91BF91CE
:1045E000AF919F918F917F916F915F914F913F918B
:1045F0002F911F910F91FF90EF90DF90CF90BF9080
:10460000AF909F908F907F906F905F900F900FBEB4
:104610000F901F901895789480910804882339F0A2
:10462000815080930804811102C00E941C05809172
:104630007A058330A9F480910704882389F080915A
:10464000070481508093070481110AC012E010937F
:1046500062050E94230588E08093170110937A0574
:104660008091C90487FDC6C0809106048F5F809346
:104670000604863048F064E670E08CED90E00E941D
:10468000290580E00E941C0584E090E00E942E0431
:104690008091CC0481FF26C080916A0590916B05C2
:1046A000A0916C05B0916D050196A11DB11D80937F
:1046B0006A0590936B05A0936C05B0936D0580918E
:1046C0006E0590916F05A0917005B09171050196EE
:1046D000A11DB11D80936E0590936F05A093700589
:1046E000B093710580912B04811197C0C090D004C4
:1046F000D12C90902C0440912D04E2EDF4E023E1C4
:1047000034E0F12CE12CAA24A394B12C5E2CC60138
:104710000E2C02C0959587950A94E2F780FF52C04F
:10472000D9016D917C91119700811181868061156D
:10473000710509F46AC0892D90E0809590950E2C42
:1047400002C0959587950A94E2F780FF5EC01496A3
:104750008D919C91880F991F0E94C32CD9011296AC
:104760008D919C911397680F791F76956795139695
:104770007C936E931297882D90E068177907E8F57F
:10478000861B970B880F991F800F911F9183808341
:10479000D90111961C921E9215961C921E92149786
:1047A000882D90E0608171816817790758F4411174
:1047B00006C0B50101C0660F5A94EAF7962A9183A4
:1047C00080834150BFEFEB1AFB0A3796285F3F4FBB
:1047D00063E0E616F10409F099CF90922C0440931F
:1047E0002D0480910009909101098A35954AD9F0EC
:1047F0000E94840B1092060447CF8617970740F655
:10480000800F911F861B970BC1CFC8019695879586
:10481000081B190B11830083C3CF815080932B0495
:10482000E0CF7894DECF8091660590916705A091E6
:104830006805B09169050097A105B105E9F00197F8
:10484000A109B1098093660590936705A093680557
:10485000B0936905892B8A2B8B2B71F48091CC0442
:104860008D7F8093CC04809116018E7F80931601FA
:1048700088E090E00E942E04809104049091050449
:10488000892B49F08091040490910504019790933D
:10489000050480930404809102049091030400971E
:1048A00049F001979093030480930204892B11F43B
:1048B000109290008091BF0381110DC0809130044F
:1048C0009091310481689860909331048093300412
:1048D0008BE08093BF03F090FF03E090BF038F2D28
:1048E000837009F404C1B2E0EB1290C00E947C0412
:1048F00080FF19C09091BE034091D8035091D90315
:104900006091DA037091DB03442755276627707E98
:10491000411551056105704609F06EC0943118F4D7
:104920009F5F9093BE0381FF19C08091BD034091AA
:10493000DC035091DD036091DE037091DF034427B7
:1049400055276627707E411551056105704609F0AF
:1049500058C0843118F48F5F8093BD03EA94E092CD
:10496000BF039FB192959F708091CF0440912F0417
:104970004927482390932F049091D1042091CD048E
:104980003091CE04E3E1F4E0B0E0A0E050E001E0DB
:1049900010E0692F70E00A2E02C0759567950A94A1
:1049A000E2F760FFA7C0B8010A2E01C0660F0A94A3
:1049B000EAF7609596231782168211963896A330EF
:1049C000B10539F74091E9045091EA0442175307C1
:1049D00009F0CCC0409162056091C0037091C103A1
:1049E000423009F4A6C0433009F469C1413009F0EE
:1049F000AFC040910201AAC0992309F494CF91500D
:104A000090CF882309F4AACF8150A6CF21E0E212EB
:104A1000A5CF8091D8039091D9039C0133703A833C
:104A200029830091DC031091DD03980133703C83EE
:104A30002B83F1FA662460F8712C660C771CFE015A
:104A4000E60DF71D218132813695279536952795FC
:104A5000E091BC0331E03E0F3093BC03F0E0E4543E
:104A6000FD4F20832091BB022F3F19F02F5F209331
:104A7000BB022F2D21712130B1F43091040131118D
:104A800012C0807E937040910A0550910B05842BD3
:104A9000952B892B41F42093BA0264EF71E088EEE4
:104AA00093E00E9429058F2D8272823209F056CF41
:104AB00080910301811113C0007E137080912F0536
:104AC00090913005082B192B012B49F482E080933B
:104AD000BA0264EF71E088EE93E00E9429058091AC
:104AE000C80487FD3BCF82E08093BA0237CF109293
:104AF000BA0234CFBA010A2E02C0759567950A949E
:104B0000E2F760FF5ACFE680F780E114F10471F01C
:104B100064817581620F731F6E197F0975836483C9
:104B2000608171816F5F7F4F7183608337832683DC
:104B300044CFFB01A4E0F695E795AA95E1F761342F
:104B400041E0740708F4B8C048E24E1B4093ED04FE
:104B500040911701460F572F511D4138B2E05B07B6
:104B600008F0B5C05093C1034093C0036091D004D6
:104B700070E0E2EDF4E050E040E0A1E0B0E0F42EBF
:104B80008B01042E02C0159507950A94E2F700FFE9
:104B9000A3C00281138102171307A1F48D01042E13
:104BA00001C0000F0A94EAF7802B902B008111813D
:104BB000020F131F138302830681020F132F111D8F
:104BC00015830483048115810217130739F48D01BD
:104BD00001C0000FFA94EAF7009580234F5F5F4F02
:104BE00037964430510559F68093CF049093D10401
:104BF00082FF79C08F988091CF0483FF76C02F9A6F
:104C0000109115011F78E0E18E9FC0011124182B2F
:104C10001093150182E090E00E942E048091CD0453
:104C20009091CE0401969093CE048093CD04809110
:104C3000300490913104892B39F1809130049091A6
:104C4000310481FF0DC0612F82E10E9485068091B1
:104C50003004909131048D7F90933104809330041F
:104C6000809130049091310483FF41C0609116011E
:104C700083E10E9485068091300490913104877F02
:104C8000909331048093300480910104882309F4C7
:104C90004AC181508093010480910004833009F05F
:104CA00096CC629B94CC81E0809300048091FF03BA
:104CB0008E7F8093FF038BCCE093ED0449CF61346A
:104CC000A1E07A0708F095CE1092ED0441CF109242
:104CD000C1031092C0034ACF8D01042E01C0000F02
:104CE0000A94EAF779CF8F9A86CF2F9889CF80914F
:104CF00030049091310480FF0BC082E10E94730662
:104D00008093C80480913004909131048E7FB8CF95
:104D1000809130049091310482FF0BC083E10E94A6
:104D200073068093C90480913004909131048B7F85
:104D3000A7CF809130049091310484FF0BC0609123
:104D4000E60380E00E94850A80913004909131044E
:104D50008F7E96CF809130049091310485FF0BC0F7
:104D60006091E40380E00E94730A80913004909186
:104D700031048F7D85CF809130049091310486FF7E
:104D800014C02091E0033091E1033093CA032093D3
:104D9000C90350E040E064E980E00E94040A809189
:104DA0003004909131048F7B6BCF809130049091CF
:104DB000310487FF1DC019821A821B821C82AE013A
:104DC0004F5F5F4F6FE680E00E94A50989819A815D
:104DD000AB81BC818093D8039093D903A093DA036D
:104DE000B093DB0380913004909131048F7748CFEA
:104DF000809130049091310490FF0BC06091E703E3
:104E000081E00E94850A80913004909131049E7F58
:104E100037CF809130049091310491FF0BC06091A5
:104E2000E50381E00E94730A80913004909131047F
:104E30009D7F26CF809130049091310492FF14C061
:104E40002091E2033091E3033093D3032093D20304
:104E500050E040E064E981E00E94040A809130045F
:104E6000909131049B7F0CCF80913004909131045C
:104E700093FF1DC019821A821B821C82AE014F5FF4
:104E80005F4F6FE681E00E94A50989819A81AB811D
:104E9000BC818093DC039093DD03A093DE03B09389
:104EA000DF038091300490913104977FE9CE8091A7
:104EB00030049091310494FF18C019821A821B8229
:104EC0001C82AE014F5F5F4F6AE680E00E94A50939
:104ED00089819A8193709093D5038093D4038091B4
:104EE0003004909131049F7ECBCE8091300490911C
:104EF000310495FFC9CE19821A821B821C82AE0131
:104F00004F5F5F4F6AE681E00E94A50989819A811F
:104F100093709093D7038093D6038091300490913F
:104F200031049F7DADCE84E1809301048091FE0326
:104F300087FF81C08F70E82FF0E021E030E0082E7D
:104F400002C0220F331F0A94E2F74091CA04509125
:104F5000CB0424233523232B71F440917800509106
:104F60007900EE0FFF1FE650FC4F20813181240FA6
:104F7000351F3183208391E0882309F441C080915B
:104F8000F9038F5F8093F9038430C8F180915D0548
:104F9000282F30E0220F331FF901EF50FC4F4091D2
:104FA000FA035091FB035183408327513C4F4091BA
:104FB000FC035091FD03D9014D935C9321E130E056
:104FC000082E01C0220F0A94EAF79091E803922B71
:104FD0009093E8038F5F182F137080911601877EDE
:104FE000B8E01B9F90011124822B8093160188E06A
:104FF00090E00E942E0410935D050E94710B90E0DA
:1050000080E0492F21E030E0B90163707727672BFA
:1050100019F0442331F040E0220F331F8F5F8031BD
:1050200099F720917C008770287F822B80937C00E9
:105030009093FE0331CE80917A00806480937A0051
:105040008091FE0380688093FE0326CE1F920F920C
:105050000FB60F92112410925E0510925F05109208
:10506000600510926105EE98789480E00E946504D6
:1050700080E00E94C30480E00E94FF0483EF91E07F
:10508000909399008093980080E48093900080ED45
:1050900097E0909303048093020484E492E09F934A
:1050A0008F930E9493190F900F90C12CD12C7601F1
:1050B000CFE3D2E0FF92EF92DF92CF92DF93CF93D4
:1050C0000E9493196091B7028FEF860F0F900F9097
:1050D0000F900F900F900F908E3F48F48FEF93E05A
:1050E0000E94C62E8091B7028F5F8093B7028AE03C
:1050F000C80ED11CE11CF11C80915E0590915F05EA
:10510000A0916005B09161058C159D05AE05BF05A8
:1051100098F3D0CF1F920F920FB60F9211242F93B6
:105120003F934F935F936F937F938F939F93AF932F
:10513000BF93CF93EF93FF9310928500109284005A
:1051400081E090E04091FF045091000520912405FA
:10515000309125054217530710F090E080E025E2DA
:10516000289FF001299FF00D1124E251FB4F218966
:1051700032893093AD022093AC022115310509F438
:105180008FC089B182958695869583709091BA0279
:10519000892B90916405892390E09093AB028093D2
:1051A000AA02203A86E3380708F44BC056E0369549
:1051B00027955A95E1F7F901E85EFE4F26A130E008
:1051C0003093A9022093A8028091FF03C82FC170D9
:1051D00080FF05C061E080E00E949A06C82F8091A0
:1051E000FF0381FF05C062E081E00E949A06C82BA0
:1051F0008C2F0E943B048091A8029091A902909369
:1052000089008093880020918400309185002817C0
:10521000390728F00A979093850080938400FF91C6
:10522000EF91CF91BF91AF919F918F917F916F91AE
:105230005F914F913F912F910F900FBE0F901F9054
:105240001895203A86E2380750F045E036952795C4
:105250004A95E1F7F901EC59FF4F2081B0CF203A90
:105260008EE1380748F094E0369527959A95E1F756
:10527000F901E05DF040F1CF2032310570F0B90165
:105280007695679590E080E060587B47814E9F4F10
:1052900050E040E00E94EB2C93CF30E020E090CF34
:1052A00080ED97E09093A9028093A802A4CF1F926B
:1052B0001FB61F9211242F938F939F93EF93FF9309
:1052C0002091CE008091330490913404E82FF0E0D7
:1052D000EA5CFB4F20838F5F20913204821708F035
:1052E00080E0981319C0F894ECEAF0E08091C800CF
:1052F00085FFFCCF84918093CE008091C80086FF0B
:10530000FCCF319680E0E73CF80781F77894109263
:1053100033041092340402C080933304FF91EF9160
:105320009F918F912F911F901FBE1F9018951F92D4
:105330001FB61F9211248F939F93AF93BF9386B58F
:105340008A5F86BD789480915E0590915F05A091FB
:105350006005B09161050196A11DB11D80935E05A8
:1053600090935F05A0936005B0936105BF91AF91E5
:105370009F918F911F901FBE1F901895ABE0B0E0DA
:10538000E4ECF9E20C94902C5C016B013A01FC0115
:1053900017821682838181FFF5C0CE0101964C01F0
:1053A000F501F380F601F3FC1591F3FE11916F0105
:1053B000112309F437C0153239F4F3FC1591F3FECB
:1053C00011916F011532B9F5B501812F90E00E945E
:1053D000752DE6CF112331F1612F70E080E097E069
:1053E0000E94302D892BA1F4133219F11C3679F06B
:1053F000612F70E089EF96E00E94302D892BE9F053
:10540000F4E06F0E711CB5018FE390E0E0CF00680F
:10541000F601F3FC1591F3FE11916F0107FFDACF4E
:105420001111E6CFF501868197812B96EEE00C9461
:10543000AC2C00E1EDCF00E0F1CF133609F455C0FC
:10544000133709F459C0133509F455C0143619F04F
:10545000193609F06BC0F30107FF60C061917191CB
:10546000819191913F010F7E97FF08C090958095A3
:10547000709561957F4F8F4F9F4F00642AE030E019
:10548000A4010E940A2EE82EE81806FF05C0B50107
:105490008DE290E00E94752D04FF15C0FE01EE0D17
:1054A000F11D8081803379F0B50180E390E00E94A6
:1054B000752D02FF08C0802F807290E0B501885AD8
:1054C0009F4F0E94752DEA94F12CFFEFEF1AFF0A0F
:1054D000E80CF91CF70182917F01B50190E00E9470
:1054E000752DE814F904B1F75BCFB501F301819193
:1054F00091913F016CCF0160F301E190F1903F0188
:10550000F70100FD859100FF81917F01882309F457
:1055100047CFB50190E00E94752DF2CF6191719156
:105520003F01072E000C880B990B9DCF1037F1F02F
:1055300040F41835E9F01F3609F074CF28E030E068
:105540000CC0153739F0183709F06CCF046220E130
:1055500030E003C00F7E2AE030E0F30107FF0CC00B
:1055600061917191819191913F018ACF0061EECF5C
:10557000046020E132E0F1CF619171913F0190E050
:1055800080E07ECF8FEF9FEF50CF20FD09C0FC0160
:1055900023FD05C022FF02C07383628351834083D1
:1055A000089533E044FD10C034E046FD0DC0DB013A
:1055B000FC01AA0FBB1FEE1FFF1F1094D1F76A0F4B
:1055C0007B1F8E1F9F1F31E0660F771F881F991F5B
:1055D0003150D1F7620F711D811D911D08950F93F8
:1055E0001F93CF93DF938C01C8010E943B2DEC01E8
:1055F00097FD08C00E94272D892BB1F7B801CE0175
:105600000E94F22DCE01DF91CF911F910F9108954D
:105610008F929F92AF92BF92EF92FF920F931F9340
:10562000CF93DF938C01D62F7A01B22E0E943B2DAF
:105630009C0133272B32310529F02D323105A9F495
:105640006894B7F8D15061F480E0DF91CF911F9159
:105650000F91FF90EF90BF90AF909F908F90089523
:10566000C8010E943B2D97FDEFCFCB2DCD7F2B2D79
:105670002073F9F48033E9F4AA24AA94AD0E89F0DA
:10568000C8010E943B2D97FD0CC0282F2F7D283587
:1056900061F4C264D25029F0C8010E943B2D97FFEB
:1056A00008C0812C912C54011BC0B6FE2BC0C260D7
:1056B000DA2D812C912C540120ED280F283028F16F
:1056C000C4FD09C02A3008F1C6FF05C02F7D3FEE9A
:1056D000320F3630C8F0B8010E94F22DC1FFB4CFAE
:1056E000C7FF08C0B094A09490948094811C911C32
:1056F000A11CB11C2C2FB501A401C7010E94C52A11
:1057000081E0A3CFC261D4CF27504C2FC501B40193
:105710000E94D12A4B015C01C260D15009F3C8013B
:105720000E943B2D97FFC8CFDBCFB0E0A0E0EBE9B4
:10573000FBE20C94902C5C01EB01742E652EFC01B5
:1057400017821682C12CF501F380FE01F3FC8591CE
:10575000F3FE8191182FEF018823E9F090E00E9479
:10576000272D892B21F0C5010E94EF2AECCF15329D
:1057700041F4FE01F3FC1591F3FE1191EF01153296
:1057800069F4C5010E943B2D97FD9DC01817D9F201
:10579000B5010E94F22D8C2D90E099C000E01A32E4
:1057A00031F4F3FC1591F3FE1191EF0101E0D12CDE
:1057B00020ED210F2A3048F101FF37C0DD2059F3D9
:1057C0001836B1F11C3609F43DC0112321F3612FC5
:1057D00070E080E197E00E94302D892BE1F2F12CFE
:1057E000E12C00FD06C0E72DF62DE190F1907E2E14
:1057F0006F2E1E3679F5F5014681578170E060E025
:10580000202FC7010E94C52A9ECF02606D2D70E037
:1058100090E080E040E20E94D12AD62EFE01F3FC07
:105820001591F3FE1191EF01C3CFDD24DA94C8CFB7
:10583000FE01F3FC1591F3FE1191EF01183609F00A
:10584000C4CF08600460FE01F3FC1591F3FE1191D2
:10585000EF01BBCF1336B1F401FD02C0DD24D394B8
:10586000C5010E943B2D97FD2EC0E114F10419F0F3
:10587000F70181937F01DA94D110F2CF00FD63CF5D
:10588000C39461CFC5010E94EF2A97FD1CC01F364B
:1058900009F440C030F4143641F0193639F0006490
:1058A00005C0133711F11537D1F70062202FA7017A
:1058B0006D2DC5010E94082B8111E0CFF501838178
:1058C000807309F468CF8FEF9FEFC11064CFCDB71D
:1058D000DEB7EEE00C94AC2CE114F10419F0F70102
:1058E00081927F01DA94DD2071F0C5010E943B2D89
:1058F0004C0197FD08C00E94272D892B69F3B50143
:10590000C4010E94F22DE114F10409F4B7CFF701AC
:105910001082B4CF0061CACF2F923F924F925F9214
:105920006F927F928F929F92AF92BF92CF92DF92AF
:10593000EF92FF920F931F93CF93DF93CDB7DEB714
:10594000CA1BDB0B0FB6F894DEBF0FBECDBF0994A8
:105950002A88398848885F846E847D848C849B84FF
:10596000AA84B984C884DF80EE80FD800C811B810D
:10597000AA81B981CE0FD11D0FB6F894DEBF0FBE3C
:10598000CDBFED010895AA1BBB1B51E107C0AA1FA3
:10599000BB1FA617B70710F0A61BB70B881F991FD0
:1059A0005A95A9F780959095BC01CD01089597FB74
:1059B000072E16F4009407D077FD09D00E94C32C5F
:1059C00007FC05D03EF4909581959F4F0895709502
:1059D00061957F4F0895A1E21A2EAA1BBB1BFD0102
:1059E0000DC0AA1FBB1FEE1FFF1FA217B307E407BE
:1059F000F50720F0A21BB30BE40BF50B661F771F16
:105A0000881F991F1A9469F76095709580959095F5
:105A10009B01AC01BD01CF010895A29FB001B39FCE
:105A2000C001A39F700D811D1124911DB29F700DA7
:105A3000811D1124911D08950E940D2DA59F900D8B
:105A4000B49F900DA49F800D911D11240895911174
:105A50000C94682E803219F089508550C8F708954B
:105A6000FC010590061621F00020D9F7C001089529
:105A70003197CF010895CF93DF93EC012B8120FF65
:105A80002FC026FF0CC02F7B2B838E819F81019618
:105A90009F838E838A8190E0DF91CF91089522FFCA
:105AA00014C0E881F9818081082E000C990B2062D6
:105AB0000097A9F03196F983E8832E813F812F5F0B
:105AC0003F4F3F832E839927E7CFEA85FB850995D2
:105AD00097FFF3CF2B81019631F080E2282B2B83A7
