:100000000C94A1030C94BE030C94BE030C94BE0389
:100010000C94BE030C94BE030C94BE030C942F27C7
:100020000C94BE030C94BE030C94BE030C94BE034C
:100030000C94BE030C94BE030C94BE030C94BE033C
:100040000C94BE030C9404080C94BE030C94BE03E1
:100050000C94BE030C940E210C94BE030C94D50E8C
:100060000C94BE030C94930E0C94BE030C94BE032C
:100070000C94BE030C94BE030C94BE030C94BE03FC
:100080000C94BE030C94BE030C94BE030C94BE03EC
:100090000C94BE030C94BE030C94BE030C94BE03DC
:1000A0000C94BE030C94BE030C94BE034552524FF5
:1000B000523A20727820627566666572206F7665A6
:1000C00072666C6F770A00AA6A5A56555595A5A9AB
:1000D000AA2575200025752000256920002568685F
:1000E00075256E002575256E002569256E00237324
:1000F0007069313D257820647276313D256C782019
:10010000677374313D257820676366313D256C78CF
:100110000A0023737069303D257820647276303D83
:10012000256C7820677374303D25782067636630CE
:100130003D256C780A003F3F3F3F004552524F52E9
:100140003D256420282553290A004E4F4E45004383
:10015000485341004348534200534E4E53004655C6
:100160005345004C4F434B004753504900545350A4
:1001700049005453494700414443560054484552AE
:10018000004D4F544F0046414E5300554C454400DE
:10019000490053005F006D007D009000A500BD0088
:1001A000D900F8001C0143016E019C01CE0102023E
:1001B00037026C02A102D30202032D03530375031D
:1001C0009103A903BD03CD03DA03E303EB03F103BA
:1001D000F503F803237469706820737465707320E5
:1001E00025640A0025692000256C7520002D7263A6
:1001F0003000534C412D636F6E74726F6C20256418
:100200002E25642E25642D256425532000435A5045
:1002100058253473582533735825632535732000CA
:100220004E4120000103050E0F1112131516173849
:100230003A0002042530327800256420256420002D
:10024000256C692000253032686878200023747797
:1002500070682073746570732025640A00256C69CA
:10026000256E0025686869256E006B696C6C656495
:100270000A004D435553523D3078253032780A00FC
:1002800073746172740A006265657081626F6F7465
:10029000B5636C6564856565636C9F65657278A000
:1002A00065657778A16563686FAA66616E65B366F8
:1002B000616E738A6670776DB26672706D9D6D6FD8
:1002C00074728D706C65648270707374BF707077B7
:1002D0006DB170737064B97273656EAD72736D6574
:1002E000AF72737374AE73676263BA73676264BB31
:1002F0007368646E8374656D709E74696366A774B9
:10030000696373A9746963759674696863C1746974
:10031000686F9874696D61A374697068BD74697061
:100320006FA5746973679A74697374C37472617723
:10033000B674776366A674776373A87477637595EC
:100340007477646E8F74776863C07477686F97741E
:10035000776D61A274777068BC7477706FA47477DE
:1003600073679974777374C2747775708E756C65E2
:1003700064847570776DB8766F6C74B076726177DF
:10038000B77764656CBE7769646CB4666D736BC473
:10039000676F7365C574777466C874697466C97469
:1003A000697363C775737461CA5F706F72E15F646C
:1003B0006472E25F70696EE36469720F656E610C6E
:1003C000656E6411657272416C65640D6C6F674295
:1003D0006D6F741072737401736572037473744378
:1003E000766572027265761370756E12013304437E
:1003F000D70C83E9058DDF05971E049809049F84B7
:1004000005B47305B5F703BBF303C0DF03C1CB032A
:10041000C5C003CACE0400B918018E1B028B190394
:10042000371A12D51913201A0C8E1B0D8E1B0F8E26
:100430001B108E1B118E1B418E1B428E1B828E1B2E
:1004400084A918858E1B8A8E1B958E1B968E1B97F2
:10045000741B98741BC79F18998E1B9A8E1B9D281E
:100460001B9E0F1BB00F1BB6F61AB7F61AB18E1BE8
:10047000B98E1BB88E1BB2281BB38E1BA47319A593
:10048000CD19A6AA19A7AA19A8741BA9741BAA7426
:100490001BAD8E1BAE8E1BBA8E1BBB4419BC401B02
:1004A000BD401BBF3319C0661BC1661BC4741BC88B
:1004B0008E1BC98E1BCAA51A0C7A170D7A170F7AD4
:1004C00017107A17117A17417A17427A17837A1719
:1004D000814C15827A17840415857A178E79168FC8
:1004E00079168A7A17957A17967A179918179A189B
:1004F000179F8405A29B15A32816A49B15A5281653
:10050000A63C14A73C14A81817A91817AA7A17B163
:100510007A17B97A17B87A17B25D10AD7A17AF9B10
:1005200015BE7916BC7916BD7916C21817C31817EF
:10053000C0F110C1B810C47A17BF3710C70010E15E
:10054000910FE3910FE2910FA6510FA7510FE1FE1A
:100550000EE3FE0EE2FE0E6525640A006F6B0A00D4
:100560004552524F523A20636F6D6D616E64206F39
:10057000766572666C6F770A00256C640A00234901
:100580004E54360A00236F6C69636E745F74696C35
:10059000743D256868750A00236F6C69636E745F2B
:1005A000746F7765723D256868750A0023647276FA
:1005B0005F7374617475735B25645D3D2530386CC1
:1005C000780A00237370695F7374617475735B25B7
:1005D000645D3D2530326868780A00000A0014F036
:1005E00000F0001407BC0200000000B004DC05A00D
:1005F00000A00010074C0400000000000F00145081
:100600000050001006DC050000000064007800C8FF
:1006100000C8000B00DC0500000000DC05DC050064
:100620000000002C28340800000000900190010018
:100630000000003E3F000000000000D606D6060085
:100640000000002C28D00700000000000F0014C894
:1006500000C8000F037E0400000000C409983AFAA5
:100660000096001604640000000000C4094C1DFA46
:100670000096001001F40100000000800C983AFA86
:1006800000FA000A03980800000000640096003297
:100690000032000F00DC0500000000800CC044FAAE
:1006A00000FA002206F40100000000800CC044FAA9
:1006B00000FA001206F4010000000040068025C880
:1006C00000C8003F04F40100000000C4094C1D5E96
:1006D000015E010C0278050000000019001D0022D7
:1006E0000028002E00360040004B00580069007CB6
:1006F000009200AD00CC00F1001A014A017E01B762
:1007000001F40133027102AF02E8021C034A0372D2
:10071000039303AD03C303D303E003E903F00345ED
:10072000464765666700202B2D2E30313233343535
:100730003637383968006364696E6F70737578583E
:10074000000011241FBECFEFDAE0DEBFCDBF27E0EF
:10075000A6E3B4E001C01D92A333B207E1F714E0B1
:10076000A0E0B1E0EAE6F5E602C005900D92A633FE
:10077000B107D9F70E94641C0C94B3320C940000AA
:1007800083E080938E0580E480930D0184E0809364
:10079000A20580E008958091190781FD0EC081E0D7
:1007A000809300018FEF9FEF9093040180930301EA
:1007B00080E18093510480E008958EEF0895809148
:1007C000190780FD0EC081E0809301018FEF9FEF3C
:1007D00090930601809305018AE08093460480E0AF
:1007E00008958EEF089510920D0680E0089587E732
:1007F00097E7909301088093000898E088E10FB68E
:10080000F894A895809360000FBE90936000F894D0
:10081000FFCF90911907892F827091FD0DC091E053
:1008200090930001209107013091080137FD80E18C
:100830008093510480E008958EEF089590911907F8
:10084000892F817090FD0DC091E09093010120915E
:10085000090130910A0137FD80E18093460480E070
:1008600008958EEF089598E088E10FB6F894A89562
:10087000809360000FBE90936000F894FFCF8F923A
:100880009F92AF92BF92CF92DF92EF92FF920F931F
:100890001F93CF93DF936A017B01082F10E095E24D
:1008A000899FE0011124C85EDA4FAB85BC852D8598
:1008B0003E8549018A0E9B1EA12CB12C4815590575
:1008C0006A057B05A8F0BD8FAC8FC818D908EA0867
:1008D000FB08CE8EDF8EE8A2F9A23BA32AA3AB2BA6
:1008E00011F086E001C084E0232BA9F0886013C0DA
:1008F0009A01AB010E94AA30A50194010E947930AF
:100900003D8F2C8F1E8E1F8E18A219A2C21AD30AD9
:10091000DBA2CAA28AE095E2909FF001919FF00DC0
:100920001124E85EFA4F878BDF91CF911F910F91D1
:10093000FF90EF90DF90CF90BF90AF909F908F90FF
:1009400008958EBD0DB407FEFDCF8EB5089580913C
:100950006D0490916C04981781F0E82FF0E0E15954
:10096000FB4F208130E08F5F90916B04891708F076
:1009700080E080936D04C90108958FEF9FEF089583
:100980008093CE008091C80086FFFCCF8091C80084
:1009900080648093C80080E090E00895CF92DF9259
:1009A000EF92FF92CF93DF93CDB7DEB728970FB6C4
:1009B000F894DEBF0FBECDBF8091050581FF85C0D5
:1009C0001D821E821F82188619821A821B821C8237
:1009D00044E0BE016B5F7F4F86E190E00E945C2A9D
:1009E00044E0BE016F5F7F4F8AE190E00E945C2A85
:1009F000C0901F07D0902007E0902107F0902207B9
:100A00008D819E81AF81B8858C0D9D1DAE1DBF1D52
:100A10008D839E83AF83B88720910201822F90E05F
:100A2000A0E0B0E09C01AD0185E0220F331F441F20
:100A3000551F8A95D1F7A0911301B09114018091AF
:100A4000150190911601A80FB91F8091170190917F
:100A50001801A80FB91F0E94AA3020E836E948E91A
:100A600050E00E947930C701B6010E94413020E178
:100A70003EE040E050E00E94793089819A81AB816C
:100A8000BC81820F931FA41FB51F89839A83AB83F8
:100A9000BC8344E050E0BE016B5F7F4F86E190E095
:100AA0000E94212944E050E0BE016F5F7F4F8AE140
:100AB00090E00E94212910921F07109220071092A7
:100AC00021071092220780E001C08BEF28960FB615
:100AD000F894DEBF0FBECDBFDF91CF91FF90EF90B6
:100AE000DF90CF90089580911907837019F00E94CC
:100AF000C311F9CF809101011816CCF38091000148
:100B00001816ACF380E00895CF92DF92EF92FF9237
:100B10000F931F93CF93DF9300D000D0CDB7DEB7F4
:100B200000E011E06FEFC8010E940B300F5F1F4F14
:100B3000063123E01207B1F719821A821B821C8248
:100B400044E0BE016F5F7F4F86E190E00E945C2A27
:100B500089819A81AB81BC818F3F9F4FAF4FBF4F3F
:100B600001F519821A821B821C82CE0101967C013A
:100B70006C0106E110E0F60161916F01C8010E946D
:100B800023300F5F1F4F0A311105A9F7F70161915B
:100B90007F01C8010E9423300F5F1F4F0E311105E6
:100BA000A9F780E00F900F900F900F90DF91CF91F9
:100BB0001F910F91FF90EF90DF90CF90089580E00C
:100BC0000E946B288FEF809301018093000180E0E9
:100BD000089580E00E94B02A1092250780E00895D1
:100BE000E091A105ED50E83B40F4F0E0EE0FFF1F6F
:100BF000E556FD4F80819181089580E090E0089551
:100C0000FB0190E0941781F02491BF016D5F7F4F4D
:100C1000281307C0319685919491009739F0FC0113
:100C200009949F5FFB01EECF89EF08958AEF089545
:100C30000F931F93CF93DF93582FC42FD0E02196AB
:100C40002223B1F0FB01DC013A2F351B341728F4C5
:100C50000D91149131960117B9F32150341305C049
:100C6000FB01E30FF11D849104C06C0F7D1FE8CFE1
:100C70008FEFDF91CF911F910F910895CF93DF9365
:100C8000CDB7DEB7AE014B5F5F4FFA016191719155
:100C9000AF0180919B0590919C050E94742FDF917C
:100CA000CF910895CF93DF93CDB7DEB7AE014B5F01
:100CB0005F4FFA0161917191AF018091A30590910D
:100CC000A4050E94742FDF91CF910895CF93DF93F5
:100CD00000D0CDB7DEB79E012F5F3F4F3F932F93DC
:100CE0007F936F9329EE30E03F932F939F938F93E1
:100CF0000E945B2F0FB6F894DEBF0FBECDBF0197E9
:100D000011F4898101C08DEF0F900F90DF91CF9189
:100D10000895CF93DF9300D0CDB7DEB79E012F5F4C
:100D20003F4F3F932F937F936F9324EE30E03F9399
:100D30002F939F938F930E945B2F0FB6F894DEBF83
:100D40000FBECDBF019711F4898101C08DEF0F90C7
:100D50000F90DF91CF910895CF93DF9300D0CDB75F
:100D6000DEB79E012F5F3F4F3F932F937F936F938B
:100D70002DED30E03F932F939F938F930E945B2F35
:100D80000FB6F894DEBF0FBECDBF019711F4898175
:100D900001C08DEF0F900F90DF91CF9108959F9339
:100DA0008F9389ED90E09F938F930E9452060F904E
:100DB0000F900F900F9097FD80E008959F938F9371
:100DC00085ED90E09F938F930E9452060F900F90B5
:100DD0000F900F9097FD80E008951F928F9381ED03
:100DE00090E09F938F930E9452060F900F900F9068
:100DF0000F9097FD80E008950F931F93CF938C0180
:100E0000FC01808191810E94DE06C82FF801828159
:100E100093810E94DE06C80FF801848195810E94AB
:100E2000DE06C80FF801868197810E94DE06C80F92
:100E3000F80180850E94ED06C80FF8018185282FF2
:100E4000082E000C330B3F938F9384EE91E09F9319
:100E50008F930E9452060F900F900F900F9097FD66
:100E600002C0982F01C090E0C90FF80182859385D8
:100E70000E94DE068C0FCF911F910F9108958091F3
:100E80004504882309F46BC0809144049091430485
:100E90008823C1F0815080934404911160C08FE693
:100EA00094E0909399008093980080E48093900060
:100EB0002F9A8091050581608093050581E08093DC
:100EC00043040895992351F0109290002F98809137
:100ED00005058E7F8093050510924304809142049E
:100EE000882321F081508093420408952091410489
:100EF000E22FE695E695F0E0E35CFB4F808190E021
:100F0000422F437023E030E0241B3109220F331FAE
:100F100002C0959587952A95E2F78370823059F043
:100F2000833081F0813019F01092440407C080E3CF
:100F30008093440404C080E98093440480E3809358
:100F4000420402C010924104809141048F5F80935B
:100F5000410490914504891710F0109241040895BE
:100F6000CF92DF92EF92FF926B017C0120E030E0A4
:100F7000A9010E942231811103C0109290001CC06F
:100F8000A701960160E074E284E799E40E942731AA
:100F900020E030E040E05FE30E94B5300E949931EC
:100FA000683C710510F468EC70E0709399006093F0
:100FB000980080E480939000FF90EF90DF90CF90B6
:100FC0000895E82FF0E0E953FF4FE491F0E0FE2FA1
:100FD000EE27853010F0E06401C0E068F894F093EB
:100FE0003D04E0933E041092410410924404109298
:100FF000420488E080934504789408958EBD0DB432
:1010000007FEFDCF8EB508951F920F920FB60F9277
:1010100011244F925F926F927F928F929F92AF9224
:10102000BF92CF92DF92FF920F931F932F933F9324
:101030004F935F936F937F938F939F93AF93BF93E0
:10104000CF93DF93EF93FF9310928500109284006B
:10105000C0902905D0902A0500914E0510914F05AA
:10106000E1E0C016D10608F0E0E0E0933C0445E280
:10107000E49FF0011124E85EFA4FC189D289D09330
:101080003B04C0933A04809184009091850020979E
:1010900009F4B7C2F9B0F294F694F69493E0F92209
:1010A00080910C06F82A80919405F8228F2D90E00B
:1010B0009093390480933804C03A56E3D50750F032
:1010C000FE0186E0F695E7958A95E1F7E55EFE4F2D
:1010D00046A11AC0C03A66E2D60748F0FE01B5E064
:1010E000F695E795BA95E1F7E959FF4F0CC0C03A7C
:1010F0007EE1D70758F0FE01A4E0F695E795AA95A2
:10110000E1F7ED5CF040408150E01AC0C032D105FB
:10111000A8F0BE0176956795CB01A0E0B0E0BC01D8
:10112000CD0160587B47814E9F4F4E01A12CB12CC1
:10113000A50194010E947930A90102C040E050E06D
:101140005093370440933604809184009091850039
:10115000F0911907F0FF24C1209132053091330539
:10116000240F351F309333052093320580913005CD
:1011700090913105C816D90608F40CC18C0F9D1F3B
:101180008C199D099093310580933005E0912F05CE
:1011900080912B0590912C05A0912D05B0912E05E5
:1011A000F4FF04C00197A109B10903C00196A11D74
:1011B000B11D80932B0590932C05A0932D05B09322
:1011C0002E05E1FF50C0A0911F05B09120052F3FD3
:1011D000310509F058F44A9FB0014B9F700D5A9F9A
:1011E000700D1124CB01A0E0B0E005C09A010E946F
:1011F0009B30DC01CB0173E0880F991FAA1FBB1F36
:101200007A95D1F78090270590902805A090290520
:10121000B0902A05880D991DAA1DBB1D8093270536
:1012200090932805A0932905B0932A058091340551
:101230009091350501979093350580933405892B5E
:1012400009F08BC08E2F8D7FE2FF86C020911D0597
:1012500030911E0530932A05209329051092280508
:101260001092270579C0E2FF28C080913605909141
:101270003705A0913805B09139050197A109B10949
:101280008093360590933705A0933805B0933905C0
:10129000892B8A2B8B2B09F060C08E2F8B7FE3FD6F
:1012A0005BC0FE7FF0931907109227051092280566
:1012B0001092290510922A054FC0E3FF4EC0A0915D
:1012C0002105B09122052F3F310509F058F44A9FBE
:1012D000B0014B9F700D5A9F700D1124CB01A0E0FF
:1012E000B0E005C09A010E949B30DC01CB0163E0B5
:1012F000880F991FAA1FBB1F6A95D1F780902705F9
:1013000090902805A0902905B0902A052401350168
:10131000481A590A6A0A7B0A409227055092280502
:101320006092290570922A0580913A0590913B05BB
:10133000019790933B0580933A05892B71F4E77FE1
:10134000FE7FF0931907109227051092280510923E
:10135000290510922A0501C0E82F80913C058823B9
:1013600021F0815080933C050CC0F0FE0AC08091B2
:1013700019078E7F809319078091520481608093B2
:101380005204E0932F051092330510923205DD24AC
:10139000D39407C08C199D09909331058093300533
:1013A000D12CF0911907F1FF28C180915705909138
:1013B0005805840F951F90935805809357052091E9
:1013C0005505309156050217130708F40DC1C20FD9
:1013D000D31FC01BD10BD0935605C0935505E09188
:1013E00054050091500510915105209152053091FE
:1013F0005305F5FF05C0015011092109310904C049
:101400000F5F1F4F2F4F3F4F009350051093510513
:101410002093520530935305E1FF50C0A09144053D
:10142000B09145058F3F910509F058F44A9FB001EE
:101430004B9F700D5A9F700D1124CB01A0E0B0E0BE
:1014400005C09A010E949B30DC01CB0133E0880F7C
:10145000991FAA1FBB1F3A95D1F700914C05109117
:101460004D0520914E0530914F05800F911FA21F11
:10147000B31F80934C0590934D05A0934E05B093F8
:101480004F058091590590915A05019790935A05FF
:1014900080935905892B09F08BC08E2F8D7FE2FF39
:1014A00086C0209142053091430530934F0520932B
:1014B0004E0510924D0510924C0579C0E2FF28C0F0
:1014C00080915B0590915C05A0915D05B0915E05F2
:1014D0000197A109B10980935B0590935C05A093E6
:1014E0005D05B0935E05892B8A2B8B2B09F060C0BC
:1014F0008E2F8B7FE3FD5BC0FD7FF0931907109269
:101500004C0510924D0510924E0510924F054FC09C
:10151000E3FF4EC0A0914605B09147058F3F91056E
:1015200009F058F44A9FB0014B9F700D5A9F700DFF
:101530001124CB01A0E0B0E005C09A010E949B30CD
:10154000DC01CB0123E0880F991FAA1FBB1F2A953E
:10155000D1F700914C0510914D0520914E05309129
:101560004F05B901A801481B590B6A0B7B0B40932F
:101570004C0550934D0560934E0570934F05809137
:101580005F059091600501979093600580935F05DA
:10159000892B71F4E77FFD7FF093190710924C05BA
:1015A00010924D0510924E0510924F0501C0E82F84
:1015B00080916105882321F08150809361050CC0E2
:1015C000F1FE0AC0809119078D7F809319078091E1
:1015D0005204826080935204E0935405109258059F
:1015E0001092570582E008C0E901C01BD10BD093CF
:1015F0005605C093550580E0D82A8D2D0E943928C4
:1016000006C080ED97E09093370480933604809174
:10161000360490913704909389008093880020913C
:10162000840030918500809136049091370428170A
:10163000390728F00A979093850080938400FF91E2
:10164000EF91DF91CF91BF91AF919F918F917F915A
:101650006F915F914F913F912F911F910F91FF904B
:10166000DF90CF90BF90AF909F908F907F906F90C2
:101670005F904F900F900FBE0F901F901895CF92D4
:10168000DF92EF92FF920F931F93CF93DF9300D0DF
:1016900000D0CDB7DEB7082F10E021E030E06901BF
:1016A000082E01C0CC0C0A94EAF7909119079C21EE
:1016B00009F05BC0411551056105710509F457C07A
:1016C000F82EEC2CE09449835A836B837C831416A8
:1016D0001506160617069CF40E9461288E210E94AA
:1016E00052288C2D8295807F8095909119078923AF
:1016F0008093190749815A816B817C8118C00E94AF
:1017000061288C290E945228809119079C2D92955E
:10171000907F892B8093190749815A816B817C8145
:1017200070956095509541955F4F6F4F7F4F8F2D0E
:101730000E943F0485E2809FF001819FF00D1124FB
:10174000E85EFA4F108A178683819481928B818B91
:1017500080E484A380915204E822E09252048091B4
:1017600019078C298093190702C08FEF01C080E010
:101770000F900F900F900F90DF91CF911F910F91CD
:10178000FF90EF90DF90CF900895CF92DF92EF928D
:10179000FF920F931F93CF93DF93C82ED12C95E226
:1017A000899FE0011124C85EDA4F8D819E810B81F3
:1017B0001C817C01E01AF10A080F191F2F8138855E
:1017C0002115310539F1C701A0E0B0E0BC01CD0120
:1017D000ECE0660F771F881F991FEA95D1F740E06C
:1017E00050E00E947930F4E056954795379527955B
:1017F000FA95D1F7D8010E94AA306C5D7B408F4FDB
:101800009F4F28E438EE41E050E00E9479303C8759
:101810002B8702C01C861B8685E28C9DE0018D9D76
:10182000D00D1124C85EDA4F29853A85211531057E
:1018300039F1C701A0E0B0E0BC01CD014CE0660F7A
:10184000771F881F991F4A95D1F740E050E00E940A
:10185000793064E056954795379527956A95D1F785
:10186000D8010E94AA306C5D7B408F4F9F4F28E4C7
:1018700038EE41E050E00E9479303E872D8702C06B
:101880001E861D86DF91CF911F910F91FF90EF90E3
:10189000DF90CF9008958F929F92BF92CF92DF9268
:1018A000EF92FF920F931F93CF93DF931F92CDB7C9
:1018B000DEB7B82E8A018CE5F82EFCBC1DBC8B2D42
:1018C00069830E9449286981862F0E94A10480E0D3
:1018D0000E94A10480E00E94A10480E00E94A10473
:1018E00080E00E94A1048B2D0E944028FCBC1DBCFE
:1018F0008B2D0E944928EB2CF12C80E00E94A10442
:1019000097012B523A4F4901F901808380E00E94F0
:10191000A104C82ED12CE12CF12CFE2CED2CDC2CBA
:10192000CC2480E00E94A104C82AFE2CED2CDC2CE3
:10193000CC2480E00E94A104C82AFE2CED2CDC2CD3
:10194000CC2480E00E94A104C82A8B2D0E9440284C
:101950000115110529F0F801C082D182E282F382DB
:10196000F40180810F90DF91CF911F910F91FF9033
:10197000EF90DF90CF90BF909F908F900895CF937E
:10198000DF9300D000D0CDB7DEB719821A821B8258
:101990001C82AE014F5F5F4F61E00E944B0C89815A
:1019A0000F900F900F900F90DF91CF910895AF920D
:1019B000BF92CF92DF92EF92FF920F931F93CF933C
:1019C000DF9300D000D0CDB7DEB7F89419821A8229
:1019D0001B821C82AE014F5F5F4F60E080E00E947F
:1019E0004B0C19810A81FB80EC8080E00E94BF0CC7
:1019F000EF92FF920F931F931F928F9301E117E0D5
:101A0000F80183818F9382818F9381818F9380816D
:101A10008F9385EDE82E85E0F82EF70180811F92E7
:101A20008F9382E191E09F938F930E943E061982EB
:101A30001A821B821C82AE014F5F5F4F60E081E023
:101A40000E944B0CD980CA80BB80AC8081E00E9490
:101A5000BF0CAF92BF92CF92DF921F928F93F8018B
:101A600087818F9386818F9385818F9384818F93D4
:101A7000F70181811F928F938EEE90E09F938F9359
:101A80000E943E0678940FB6F894DEBF0FBECDBF1D
:101A900080E00F900F900F900F90DF91CF911F91EA
:101AA0000F91FF90EF90DF90CF90BF90AF9008958F
:101AB0001F93CF93DF9300D000D01F92CDB7DEB736
:101AC000182F8CE58CBD1DBC812F2D833C834B834F
:101AD0005A8369830E9449286981862F0E94A10444
:101AE0005A81852F0E94A1044B81842F0E94A1045A
:101AF0003C81832F0E94A1042D81822F0E94A1048A
:101B0000812F0E94402880E00F900F900F900F903F
:101B10000F90DF91CF911F91089599E0899FF00177
:101B20001124EA5FFA4F6683462F660F550B660B4A
:101B3000770B332722276DEE0C94580DCF92DF924E
:101B4000EF92FF921F93CF93DF93182F603218F01C
:101B5000669520E001C021E0822F90E0A0E0B0E097
:101B60006C017D0181E1CC0CDD1CEE1CFF1C8A9513
:101B7000D1F789E0189FE0011124CA5FDA4F88810C
:101B80009981AA81BB81AD7FA7019601282B392BB2
:101B90004A2B5B2B288339834A835B836C836D8359
:101BA0006CEE812F0E94580D2C812F71822F90E0B6
:101BB000A0E0B0E0AF604D814F7150E0542F44275A
:101BC000052E000C660B770B9A01AB01282B392BE5
:101BD0004A2B5B2B60E9812FDF91CF911F91FF9002
:101BE000EF90DF90CF900C94580D29E0829FC001B8
:101BF0001124FC01EA5FFA4F4081518162817381B7
:101C0000858161FF880F0895FF920F931F93CF93F3
:101C1000DF9300D000D0CDB7DEB7F82E83ED90E093
:101C2000A3E0B4E189839A83AB83BC8329E0F29E6D
:101C3000800111240A5F1A4FF80180839183A283E7
:101C4000B38380E18483858383E086838CED95E094
:101C50009087878323ED30E043E054E16CEE8F2DD5
:101C60000E94580DAE014F5F5F4F6CE68F2D0E94B2
:101C70004B0CF801408151816281738189819A8185
:101C8000AB81BC81481759076A077B0771F520E0D3
:101C900030E0A90161E98F2D0E94580DF8012681DD
:101CA000822F220F990BAA0BBB0BDC0199278827E7
:101CB0009C01AD0151606DEE8F2D0E94580DF80111
:101CC0002781308540E050E064E98F2D0E94580D57
:101CD00020E831E340E050E060E88F2D0E94580D8D
:101CE0008F2D0E94BF0C80E001C08FEF0F900F90EE
:101CF0000F900F90DF91CF911F910F91FF9008955A
:101D00001092F9051092F4058091030580FD04C03E
:101D10001092F6051092F50581FD04C01092F805A9
:101D20001092F70508951F920F920FB60F9211248B
:101D30002F938F939F93EF93FF932091CE008091E9
:101D40006C0490916D04E82FF0E0E159FB4F208383
:101D50008F5F20916B04821708F080E0891719F0DB
:101D600080936C0418C0F894ECEAF0E08BE18E0FDD
:101D70009091C80095FFFCCF94919093CE009091E4
:101D8000C80096FFFCCF31968E13F2CF7894109254
:101D90006C0410926D04FF91EF919F918F912F91A0
:101DA0000F900FBE0F901F9018951F920F920FB6B5
:101DB0000F9211248F939F93AF93BF9386B58A5F41
:101DC00086BD789480918A0590918B05A0918C05B1
:101DD000B0918D050196A11DB11D80938A05909348
:101DE0008B05A0938C05B0938D05BF91AF919F910A
:101DF0008F910F900FBE0F901F901895E0919F0547
:101E0000F091A00590812EEB290F253008F047C0F6
:101E10002091A105223E61F1233EB1F0213ED9F58A
:101E2000943461F018F4933439F004C0953441F0DF
:101E3000963441F085B12FC088B12DC08BB12BC035
:101E40008EB129C081B327C0943461F018F4933463
:101E500039F004C0953441F0963441F083B11BC091
:101E600086B119C089B117C08CB115C08FB113C02C
:101E7000943461F018F4933439F004C0953441F08F
:101E8000963441F084B107C087B105C08AB103C060
:101E90008DB101C080B30E94ED0680E008958CEF03
:101EA00008951F93CF93DF93CDB7DEB761970FB639
:101EB000F894DEBF0FBECDBF1091A105BE016F5ECD
:101EC0007F4F80919F059091A0050E94AC06809362
:101ED000470487FD1CC029892830C0F4173A19F43B
:101EE00080E092E002C080E091E040E1BE016F5FDF
:101EF0007F4F30E1239F800D911D11240E945C2AA9
:101F0000CE0101960E94FC0680E001C08CEF619634
:101F10000FB6F894DEBF0FBECDBFDF91CF911F91FA
:101F200008951F93CF93DF931F92CDB7DEB7E09153
:101F30009F05F091A00510812EEB210F253008F0B0
:101F400057C0CF0101969093A00580939F05BE01D5
:101F50006F5F7F4F0E94AC068093470487FD4BC0A4
:101F60008091A105823E79F1833EC1F0813E09F066
:101F700041C08981143461F018F4133439F004C07D
:101F8000153441F0163441F085B934C088B932C0F7
:101F90008BB930C08EB92EC081BB2CC0898114345E
:101FA00061F018F4133439F004C0153441F01634DC
:101FB00041F083B91FC086B91DC089B91BC08CB957
:101FC00019C08FB917C08981143461F018F4133423
:101FD00039F004C0153441F0163441F084B90AC018
:101FE00087B908C08AB906C08DB904C080BB02C0D9
:101FF0008CEF01C080E00F90DF91CF911F91089589
:102000006CEE74E080919F059091A0050E94AC0653
:102010008093470487FD2AC020919F053091A00539
:10202000A901480F511D87FD5A95CA015093A0057B
:1020300040939F056BEE74E00E94AC0680934704CA
:1020400087FD14C08091ED049091EE04A091EF04FF
:10205000B091F00490628093ED049093EE04A0930D
:10206000EF04B093F0040E94B72980E00895CF9365
:10207000DF931F92CDB7DEB7BE016F5F7F4F8091B8
:102080009F059091A0050E94AC068093470487FDB0
:1020900010C08981823060F4882329F0EE9A81E0B3
:1020A0008093D40503C0EE981092D40580E001C05F
:1020B0008CEF0F90DF91CF910895CF93DF9300D0F5
:1020C0001F92CDB7DEB7BE016D5F7F4F80919F0538
:1020D0009091A0050E94AC068093470487FD42C002
:1020E0009B81993210F08CEF3DC020919F0530917B
:1020F000A005A901480F511D87FD5A95CA015093AB
:10210000A00540939F05BE016E5F7F4F0E94AC0605
:102110008093470487FD26C09A81953120F720914E
:102120009F053091A005A901480F511D87FD5A95C3
:10213000CA015093A00540939F05BE016F5F7F4F7A
:102140000E94AC068093470487FD0CC089818531CD
:1021500050F69B81909396059A8190939705809372
:10216000980580E00F900F900F90DF91CF91089528
:10217000CF93DF9300D0CDB7DEB7BE016F5F7F4F47
:1021800080919F059091A0050E9466068093470468
:1021900087FD22C089819A819C012F5F3F4F2130AA
:1021A0003140C8F490930801809307018091ED04B9
:1021B0009091EE04A091EF04B091F00494608093AC
:1021C000ED049093EE04A093EF04B093F0040E940A
:1021D000B72980E001C08CEF0F900F90DF91CF9175
:1021E0000895CF93DF9300D0CDB7DEB7BE016F5F08
:1021F0007F4F80919F059091A0050E946606809375
:10220000470487FD22C089819A819C012F5F3F4F3F
:1022100021343105C8F490930A018093090180911B
:10222000ED049091EE04A091EF04B091F00492605F
:102230008093ED049093EE04A093EF04B093F00428
:102240000E94B72980E001C08CEF0F900F90DF91C2
:10225000CF910895CF93DF93EC0180E090E20E944C
:10226000421CCE0196958795969587952091D90524
:102270003091DA053695279536952795821B930B75
:10228000813891053CF020E031E0A901481B590B51
:10229000CA0105C080385FEF95070CF49395C82FED
:1022A000880FDD0BDF93CF9384ED91E09F938F93A5
:1022B0000E943E060F900F900F900F90CE01DF917D
:1022C000CF910C949027CF93DF93CDB7DEB7609773
:1022D0000FB6F894DEBF0FBECDBF8F3F19F48093C9
:1022E000110115C08830A8F48093110120E1820209
:1022F000C001112440E1BE016F5F7F4F9E5F0E94CD
:102300005C2ABE016F5F7F4F81E00E948E2680E0D5
:1023100001C08CEF60960FB6F894DEBF0FBECDBF44
:10232000DF91CF910895CF93DF93CDB7DEB760975C
:102330000FB6F894DEBF0FBECDBF8F3F19F4809368
:10234000120115C08830A8F48093120120E18202A6
:10235000C001112440E1BE016F5F7F4F93950E9441
:102360005C2ABE016F5F7F4F80E00E948E2680E076
:1023700001C08CEF60960FB6F894DEBF0FBECDBFE4
:10238000DF91CF9108950F931F93CF9380918F0585
:102390008823D9F08530A1F038F4833071F084308F
:1023A00009F022C285E00CC0873069F040F0883027
:1023B00009F01AC210928F0517C284E001C087E0AD
:1023C00080938F0511C288E0FBCF80910101181620
:1023D0000CF01BC1833009F46AC02CF4813051F039
:1023E000823079F112C1843009F457C0853009F484
:1023F00002C10BC11092570480912B0590912C05BE
:10240000A0912D05B0912E05809353049093540410
:10241000A0935504B093560480E00E9493110E944B
:10242000802881600E946B28809194058160809350
:10243000940540E859EA63E070E080E00E943F0BB9
:1024400091C08091190780FDE0C08091520480FF07
:102450002CC02FEF81EE94E0215080409040E1F7B6
:1024600000C0000080912B0590912C05A0912D05B6
:10247000B0912E058093530490935404A093550477
:10248000B093560440E058EF6FEF7FEF80E00E947A
:102490003F0B83E080930101B8C08091190780FD54
:1024A000B4C08091520480FD36C08EEFF3CF80918E
:1024B000190780FDAAC08091520480FD9AC08091C6
:1024C0002B0590912C05A0912D05B0912E058093A0
:1024D000530490935404A0935504B093560481E0A0
:1024E0000E94931180912B0590912C05A0912D05B0
:1024F000B0912E058093530490935404A0935504F7
:10250000B093560440E058E160E070E080E00E9443
:102510003F0B84E0BFCF40912B0550912C0560917B
:102520002D0570912E058091530490915404A09133
:102530005504B0915604481B590B6A0B7B0B8091D4
:102540005704813089F08230B9F081115EC08091EA
:1025500005019091060197FD02C082E001C081E073
:102560008093570482E096CF509306014093050173
:1025700082E0809357048ECF8091050190910601EF
:102580008C0100581109012E000C220B330B40174F
:1025900051076207730738F180589F4F092E000CCE
:1025A000AA0BBB0B84179507A607B707E0F080E0DE
:1025B0000E94931180912B0590912C05A0912D05DF
:1025C000B0912E058093530490935404A093550426
:1025D000B093560440E05CEF6FEF7FEF80E00E9425
:1025E0003F0B85E057CF8FEF9FEF909306018093CD
:1025F00005018DEF4FCF8091190780FD06C08091B6
:10260000520480FDF6CF109201018091000118164E
:102610000CF05BC0843051F12CF4813041F08330F8
:10262000C1F053C0853079F18630E9F14EC00E9487
:10263000802882600E946B2880E00E94631181E004
:1026400090E00E94421C8091010587FF0DC083E04D
:102650003AC08091190781FD38C040E05EEC6FEF11
:102660007FEF81E00E943F0B84E02DC0809119072D
:1026700081FD2BC040E052E060E070E081E00E940C
:102680003F0B85E020C08091190781FD1EC081E0CD
:102690000E94631140E05CEF6FEF7FEF81E00E94EA
:1026A0003F0B86E010C08091190781FD0EC081E0CC
:1026B00090E00E94421C8091010587FD03C01092AA
:1026C000000103C08EEF80930001F894C091E305F0
:1026D0001092E3057894CC2309F486C0C0FF10C0A3
:1026E0008091EC059091ED0560E971E096958795F4
:1026F000969587950E94E52A90934A048093490411
:10270000C1FF0AC08091EE059091EF050E94E72875
:1027100090934C0480934B04C2FF0AC08091F00553
:102720009091F1050E94E72890934E0480934D0408
:10273000C3FF0AC08091F2059091F3050E94E7283B
:102740009093500480934F04C4FF0AC08091E40525
:102750009091E5050E94EF28909314018093130156
:10276000C5FF0AC08091E6059091E7050E94EF2819
:102770009093160180931501C6FF0AC08091E80569
:102780009091E9050E94EF2890931801809317011A
:10279000C7FF2AC02091EA053091EB0536952795B1
:1027A00036952795AAEBB3E10E949B30DC01CB0163
:1027B0002AE0B695A795979587952A95D1F79C011C
:1027C000AD0144275527A8E3BAE10E94AA30DC01F5
:1027D000CB013AE0B695A795979587953A95D1F7AD
:1027E00090931A0180931901CF911F910F91089531
:1027F000CF93C82F8E3038F425E0829FC00111247A
:10280000865B9E4F02C086E391E09F938F931F9259
:10281000CF938BE391E09F938F930E943E06C093EA
:1028200048040F900F900F900F900F900F90C130B1
:10283000C1F40FB6F894A8958091600088618093E8
:102840006000109260000FBEF89481E00E94E107E2
:102850000E943F078FE09EE00197F1F700C0000063
:10286000F7CFC93038F48FEF8093A2058C2FCF912A
:102870000C94E107CF910895DF92EF92FF920F93AE
:102880001F93CF93DF93CDB7DEB762970FB6F8945F
:10289000DEBF0FBECDBFD090A105E0909F05F090A8
:1028A000A005BE016F5F7F4FC7010E94890687FDAB
:1028B0009DC08701080F111D87FD1A95F8019081B1
:1028C000992341F0BE016D5F7F4FC8010E948906C8
:1028D00087FD8CC0080F111D87FD1A95F8019081A6
:1028E000992341F0BE016B5F7F4FC8010E948906AA
:1028F00087FD7CC0080F111D87FD1A95F801908196
:10290000992341F0BE01695F7F4FC8010E9489068B
:1029100087FD6CC0080F111D87FD1A95F801908185
:10292000992341F0BE01675F7F4FC8010E94AC064A
:1029300087FD5CC0080F111D87FD1A95F801908175
:102940009923E1F0CE0141969F938F9307979F9330
:102950008F9383E692E09F938F931F930F930E9430
:102960005B2F0FB6F894DEBF0FBECDBF019721F4E9
:10297000898987FF03C03AC08DEF38C0080F111D49
:1029800087FD1A95F8018081811105C0802F8E196D
:1029900087FF0AC02BC0BE01655F7F4FC8010E9440
:1029A000890687FFF3CF22C011E0F7EADF1210E0BB
:1029B000BE016F5F7F4F812F0E948E268091ED04B4
:1029C0009091EE04A091EF04B091F004111102C0B7
:1029D000806201C080648093ED049093EE04A09324
:1029E000EF04B093F0040E94B72980E062960FB61E
:1029F000F894DEBF0FBECDBFDF91CF911F910F9135
:102A0000FF90EF90DF900895CF93DF9300D01F9257
:102A1000CDB7DEB7BE016D5F7F4F80919F0590916E
:102A2000A0050E94AC068093470487FD2FC020912B
:102A30009F053091A005A901480F511D87FD5A95AA
:102A4000CA015093A00540939F051A821982FA018A
:102A5000208121110DC089819A8190931E07809356
:102A60001D079B8180910505992361F082600BC051
:102A7000BE016F5F7F4F0E9489068093470487FFE6
:102A8000EACF04C08D7F0E94962A80E00F900F90BD
:102A90000F90DF91CF9108950F931F93CF93DF9302
:102AA00000D000D0CDB7DEB7BE016D5F7F4F809103
:102AB0009F059091A0050E9489068093470487FD99
:102AC00031C020919F053091A005A901480F511DEB
:102AD00087FD5A95CA015093A00540939F05BE01FA
:102AE0006F5F7F4F0E9489068093470487FD1AC05D
:102AF0006B817C81CB0140978937934190F40981A8
:102B00001A81013187E2180760F480E090E00E94AA
:102B1000C8310E94B007109389050093880580E0B2
:102B200001C08CEF0F900F900F900F90DF91CF911D
:102B30001F910F910895CF92DF92EF92FF92CF9362
:102B4000DF9300D000D000D0CDB7DEB7CE01059620
:102B50009F938F9304979F938F938DE592E09F931C
:102B60008F938091A0058F9380919F058F930E94F2
:102B70005B2F0FB6F894DEBF0FBECDBF019711F4E7
:102B80008D8101C08DEF8093470487FD54C08091F3
:102B9000A105843A11F18F3A69F1823A09F046C0F1
:102BA000C980DA80EB80FC800E94802881600E94CE
:102BB0006B2880912B0590912C05A0912D05B0914B
:102BC0002E05B701A601481B590B6A0B7B0B80E051
:102BD0000E943F0B87FD2CC027C089819A81AB8161
:102BE000BC8180932B0590932C05A0932D05B09369
:102BF0002E051AC049815A816B817C81413C34ED9C
:102C0000530731E063077105ACF48091FA058260E7
:102C10008093FA0570956095509541955F4F6F4F81
:102C20007F4F80E00E943F0B80E005C08AEF03C029
:102C30008EEF01C08CEF26960FB6F894DEBF0FBE64
:102C4000CDBFDF91CF91FF90EF90DF90CF900895AF
:102C50000F931F93CF93DF9300D0CDB7DEB7BE01A4
:102C60006F5F7F4F80919F059091A0050E9466063F
:102C70008093470487FD36C08091A105833A89F08F
:102C8000853A69F589819A81092E000CAA0BBB0B44
:102C90008093500590935105A0935205B09353052E
:102CA0001CC009811A810E94802882600E946B28C2
:102CB000A801110F660B770B80915005909151057B
:102CC000A0915205B0915305481B590B6A0B7B0B21
:102CD00081E00E943F0B87FD04C080E003C08AEFC3
:102CE00001C08EEF0F900F90DF91CF911F910F9148
:102CF00008950F931F93CF93DF9300D0CDB7DEB726
:102D0000BE016F5F7F4F80919F059091A0050E944B
:102D100089068093470487FD84C08091A1058C3B80
:102D2000A9F188F48E38E1F08F3809F077C0498135
:102D30005A8160E070E070956095509541955F4FC5
:102D40006F4F7F4F11C08D3B09F45FC08E3B09F080
:102D500065C089819A8190931C0780931B070BC0E3
:102D600049815A8160E070E080E00E943F0B87FF5C
:102D70000BC08EEF56C080911B0790911C07892BCA
:102D800019F00E94C311F7CF80E04BC009811A816E
:102D9000011524E0120708F043C080E090E10E9492
:102DA000421CC80124E0969587952A95E1F7209169
:102DB000D7053091D80544E0369527954A95E1F737
:102DC000821B930B813291053CF020E430E0A90195
:102DD000481B590BCA0106C0803E5FEF950714F4EB
:102DE000805C9F4F082F880F110B1F930F938DE46A
:102DF00092E09F938F930E943E06C8010E94D227C3
:102E00000F900F900F900F900CC089819A818115BF
:102E100024E0920728F40E942A1103C08AEF01C01F
:102E20008CEF0F900F90DF91CF911F910F9108952C
:102E3000CF93DF9300D01F92CDB7DEB7CE010196BE
:102E40009F938F9302969F938F9383E692E09F9335
:102E50008F938091A0058F9380919F058F930E94FF
:102E60005B2F0FB6F894DEBF0FBECDBF019711F4F4
:102E7000898101C08DEF8093470487FD35C0809123
:102E8000A105883AF1F050F4893991F08A3959F561
:102E90008B818093E00580E092E00FC0823CA9F036
:102EA000833CD1F0893AF9F48B810E9463111CC0F4
:102EB0008B818093DF0580E290E00E94421C80E0DD
:102EC00013C08B810E9493110FC08B81082E000CC0
:102ED000990B0E94D22708C08B81082E000C990BF9
:102EE0000E94902701C08AEF0F900F900F90DF9102
:102EF000CF9108951F93CF93DF931F92CDB7DEB785
:102F0000BE016F5F7F4F80919F059091A0050E9449
:102F1000AC068093470487FD0DC18091A1058538DB
:102F200009F49BC0D8F4803109F44FC040F48D30CF
:102F3000C9F18F30C9F18C3009F0E5C02CC0813463
:102F400009F459C020F4813109F44AC0DCC0823848
:102F500009F47CC0833809F470C0D5C08A3A09F4FA
:102F60008AC050F4853909F454C0863909F45AC02E
:102F70008A3809F0C8C046C0813B09F483C020F4F8
:102F80008D3A09F49CC0BFC0883B09F482C0843CE0
:102F900009F4B3C0B8C08981843008F0C8C00E9469
:102FA0006B28C3C0898162C08981843008F0BFC0AA
:102FB00090E1899F90011124909119079F70292B0E
:102FC000209319070E945228B0C08981843008F0EC
:102FD000AEC090911907907F892B80931907A5C0E7
:102FE0008981843008F0A3C090919405907F892B4B
:102FF000809394059AC08981893008F098C00E9416
:10300000F81393C08981803108F091C00E947E2A14
:103010008CC08981803408F08AC08093E10580E10A
:1030200090E008C08981803408F081C08093E20577
:1030300080E091E00E94421C78C01981111103C008
:1030400080E00E94B02A109325076FC089818430E8
:1030500008F06DC080938E0568C09981923008F0A9
:1030600066C080910505992321F084600E94962A0C
:103070005CC08B7FFBCF8981823008F058C0809381
:10308000A50553C08981853108F051C0809395050D
:103090004CC089818B3F08F04AC08093020188238D
:1030A00021F08A3F31F4589A01C0589884B58F7C3A
:1030B00004C08A5F88BD84B5806284BD36C09981B2
:1030C0009230A8F580910C01992369F08460809377
:1030D0000C0188E090E00E94421C8091FA0581601A
:1030E0008093FA0522C08B7F80930C0188E090E0EA
:1030F0000E94421C1092FA0518C089818031B8F4F0
:1031000080930E0112C0813B51F0893B29F082343B
:1031100081F4EAE5F4E005C0EDE0F1E002C0E5E9A4
:10312000F5E0309731F08981808380E003C08CEF37
:1031300001C08AEF0F90DF91CF911F910895809188
:10314000EC040E94ED068091EB040E94ED0680E005
:10315000089580910505869581700E94ED06809105
:103160001D0790911E07009711F00E94DE0680E077
:103170000895109259041092580480915804909127
:103180005904209119072370822B9093590480933E
:1031900058048091A2058F3F21F085E090E00E94C5
:1031A000421C2091020527FD09C08091580490918E
:1031B00059048064909359048093580425FD09C0F4
:1031C0008091580490915904806890935904809399
:1031D00058048091010587FD09C0809158049091A1
:1031E00059049160909359048093580480919A05F2
:1031F000882349F0809158049091590490629093EB
:103200005904809358048091A205823039F481E0FA
:1032100080938E0583E08093A2050DC08091A20566
:103220008F3F49F48091580490915904906890938D
:1032300059048093580485E0809324078091FB050E
:10324000882349F080915804909159049064909398
:1032500059048093580480915804909159040E9415
:10326000DE0680E008958FEF93E00E94FD2F90E04E
:1032700001972AE0AC01249FC001259F900D1124E5
:103280000E94DE0680E008950F931F93CF93DF9393
:1032900080910D06E0910E07E81B8A3010F4982FFC
:1032A00001C09AE0891B80930D06C92FCE0F05E45B
:1032B00012E0EC1791F0D1E0DE0FF0E0E25FF94FA1
:1032C00080811F928F931F930F930E9452060F903D
:1032D0000F900F900F90ED2FECCF80E0DF91CF910A
:1032E0001F910F910895E8E1F5E086898F93858914
:1032F0008F9384898F9383898F9380E492E09F9347
:103300008F930E9452060F900F900F900F900F9086
:103310000F9080E008958DEE91E09F938F9381E070
:103320008F9389E98F931F9289E08F931F928F93D8
:103330001F921F9282EF91E09F938F930E945206FB
:103340008DB79EB70C960FB6F8949EBF0FBE8DBF7B
:1033500080E00895CF93DF93CDB7DEB760970FB6C7
:10336000F894DEBF0FBECDBF81E09091A105973AE2
:1033700009F080E0BE016F5F7F4F0E94FC26CE0106
:1033800001960E94FC0680E060960FB6F894DEBFBE
:103390000FBECDBFDF91CF910895809150059091E0
:1033A00051050E94CF0680E00895CF92DF92FF92F0
:1033B0000F931F93CF93DF93CDB7DEB760970FB610
:1033C000F894DEBF0FBECDBF24E232E08E010F5F66
:1033D0001F4FD80141E290E1F92EF00EF9018491DE
:1033E000E82FF0E04093570084918D932F5F3F4F7B
:1033F000FA12F4CF84E3C82E82E0D82EF80181912E
:103400008F01282F082E000C330B3F938F93DF92F0
:10341000CF920E94352F0F900F900F900F90F012C7
:10342000EDCF80E060960FB6F894DEBF0FBECDBF43
:10343000DF91CF911F910F91FF90DF90CF90089572
:1034400081EF94E00E94852E9F938F931F9286E0D8
:103450008F9389E392E09F938F930E94352F0F9073
:103460000F900F900F900F900F9080E00895AF9203
:10347000BF92DF92EF92FF920F931F93CF93DF9350
:10348000CDB7DEB760970FB6F894DEBF0FBECDBFE5
:103490008091F1048F3F49F480E292E09F938F93F3
:1034A0000E94352F0F900F903FC08E010F5F1F4F6E
:1034B00080E1F80111928A95E9F744E050E064EF69
:1034C00074E0C8010E947A327E01F6E0EF0EF11C32
:1034D00043E050E068EF74E0C7010E947A32D09078
:1034E000FB04DA865E018BE0A80EB11C45E050E0DB
:1034F0006CEF74E0C5010E947A32BF92AF928D2DBD
:103500000D2C000C990B9F93DF92FF92EF921F936B
:103510000F938DE092E09F938F930E94352F0FB60B
:10352000F894DEBF0FBECDBF80E060960FB6F89472
:10353000DEBF0FBECDBFDF91CF911F910F91FF90E6
:10354000EF90DF90BF90AF9008950F931F93CF93AC
:10355000DF9300D000D0CDB7DEB719821A821B826C
:103560001C8244E0BE016F5F7F4F86E190E00E94C5
:103570005C2A40911F0750912007609121077091AC
:10358000220789819A81AB81BC81840F951FA61F78
:10359000B71FBF93AF939F938F9308EE11E01F93D4
:1035A0000F930E94520644E0BE016F5F7F4F8AE195
:1035B00090E00E945C2A8C818F938B818F938A810B
:1035C0008F9389818F931F930F930E9452060FB69A
:1035D000F894DEBF0FBECDBF80E00F900F900F902C
:1035E0000F90DF91CF911F910F9108950F931F932B
:1035F000CF93DF930E94F005009759F0EC018C0106
:10360000085F1F4F899199910E94DE06C017D1076C
:10361000C9F780E0DF91CF911F910F9108950F932B
:103620001F93CF93DF930E94F005009759F0EC01B0
:103630008C01085F1F4F899199910E94CF06C01796
:10364000D107C9F780E0DF91CF911F910F910895C5
:103650000F931F93CF93DF930E94F005009751F0D3
:10366000EC018C010C5F1F4F89910E94ED06C01781
:10367000D107D1F780E0DF91CF911F910F9108958D
:103680000E94F005009721F0FC01808191811AC011
:103690008091A1058C3B59F08D3B91F480E090E244
:1036A0000E94421C8091D9059091DA050BC080E000
:1036B00090E10E94421C8091D7059091D80502C0EC
:1036C00080E090E00E94DE0680E008950E94F00510
:1036D000009721F0FC018081918102C080E090E0A0
:1036E0000E94CF0680E008950E94F005009719F02F
:1036F000FC01808101C080E0282F082E000C330BD4
:103700003F938F9384EE91E09F938F930E94520694
:103710000F900F900F900F9080E008950E94F00599
:10372000009719F0FC01808153C08091A105853973
:10373000B1F198F48F3049F140F4813009F18C30C7
:1037400009F045C00E94802843C0813121F100F179
:103750008538E9F58091050530C08D3A51F140F486
:10376000893909F18A3911F1863989F581E018C062
:10377000883C39F1893C39F18E3A49F58CB11DC04C
:1037800080919A0510929A0523C00E94612820C05A
:103790008091190702C0809194058F7019C080E054
:1037A0000E94F50D15C080910C0512C08091150581
:1037B0000FC08091FA0581700BC082FB882780F9C9
:1037C00007C080E001C081E00E94192601C080E0AE
:1037D0000E94ED0680E00895BF92CF92DF92EF92B3
:1037E000FF920F931F93CF93DF9300D000D0CDB7FC
:1037F000DEB7B82E11E001C0110F8A95EAF7F894F0
:1038000000E1C12CD12C7601812F0E9439288BE94F
:103810009FE00197F1F700C00000812F0E94392836
:1038200019821A821B821C82AE014F5F5F4F62E1D8
:103830008B2D0E944B0C49815A816B817C816F706A
:103840007727C40ED51EE61EF71E8BE99FE0019771
:10385000F1F700C000000150B9F67894C60124E0E9
:10386000969587952A95E1F70F900F900F900F90FE
:10387000DF91CF911F910F91FF90EF90DF90CF904C
:10388000BF900895F8942091690430916A04282B20
:10389000392B30936A042093690478942091690449
:1038A00030916A0428233923232BC1F70895F89413
:1038B0002091690430916A04822B932B90936A04BF
:1038C0008093690478940895CF93DF93CDB7DEB7E2
:1038D00061970FB6F894DEBF0FBECDBF84B780935B
:1038E0009A0514BE80919A0583FF11C0809100094A
:1038F00090910109853A9A4551F480919A05877F04
:1039000080939A0580919A05806880939A058AE54C
:1039100095EA90930109809300099FB7F894A895C0
:1039200084B7877F84BF18E1109360001092600015
:103930009FBF8FE00FB6F894A895109360000FBE5C
:10394000809360001092D7001092D80095E1909378
:10395000C5008093C60080E88093610010926100EA
:10396000789481E00E94B02A8091C80082608093A0
:10397000C80080E18093CC001093C9008091C900F9
:1039800080688093C9008CE780936B0410926C046C
:1039900010926D048BE594E020EC34E030936404E5
:1039A0002093630427EA34E030936604209365048F
:1039B00023E020935E0410926804109267045A9AE0
:1039C00090932E0780932D079093300780932F07B5
:1039D0009093A7058093A6059093A4058093A305D3
:1039E00090939C0580939B0580E892E09F938F9332
:1039F0000E94352F80919A051F928F9382E792E063
:103A00009F938F930E943E0680917100817F8093E7
:103A10007100109290008AE08093910010929900BA
:103A20001092980010929B0010929A0010929D00A4
:103A300010929C0010929500109294003E9A469825
:103A40000F900F900F900F900F900F908091F104B6
:103A50008F3F41F100E011E040E1BE016F5F7F4F19
:103A6000C8010E945C2A89819A8181329E44D0F4E7
:103A70008B819C8181329E44A8F48D819E810C971C
:103A80008D34924078F48F8198850C978D349240D4
:103A900048F48985803430F48B859C85893893413E
:103AA00008F430C38FEF9FEF90930A0180930901D0
:103AB00090930801809307018FEF9FEFDC018093C3
:103AC000ED049093EE04A093EF04B093F0040E94F1
:103AD000B729E0EAF8E6459155916591749180E047
:103AE00090E0DC01E0E0F0E028E6E03AF20751F097
:103AF0009F012F5F3F4FE4918E0F911DA11DB11DBE
:103B0000F901F2CF481759076A077B0709F048C047
:103B100080E090E0DC01E0E0F0E79F012F5F3F4FA5
:103B2000E4918E0F911DA11DB11DF901203F3F476A
:103B3000A1F786369D49A740B10509F06BC3A1EFF7
:103B4000B4E0E0EFFFE784918D933196E11580E8D2
:103B5000F807C9F7E1EFF4E0CF01805F91919F3F53
:103B600019F49093F10402C08E13F8CF89E0E0E0DD
:103B7000F0E080935700E491EE3509F04DC3E3E0A7
:103B8000F0E080935700E491E83D09F045C3E2E09E
:103B9000F0E080935700E491E83C09F03DC3E6C2B1
:103BA00081E00E94F81384B1817F84B984B1876079
:103BB00084B985B1817F85B9289A80E58CBD1DBC0B
:103BC0008AB182618AB98BB182618BB9AFE3BCE9FA
:103BD0001197F1F700C00000249A2C9A2C982C9A87
:103BE00060E880E00E94C92A60EE81E00E94C92A54
:103BF0006AE882E10E94C92A60EE83E10E94C92A34
:103C000080E00E94B72A803809F0BBC281E00E94A0
:103C1000B72A803E09F0B5C282E10E94B72A80939C
:103C2000010583E10E94B72A8093020590E080910C
:103C30009A058E7F81F48091020587FF0CC08AE689
:103C400092E09F938F930E943E0680E00E94B02AEC
:103C50000F900F90FFCF9F3F19F486E00E94F8135A
:103C6000109204051092030580917A00876080937A
:103C70007A0080917C00806480937C0080917A003F
:103C8000806880937A0013E010937E000E94800E7B
:103C9000279A209A559A509A2F9A289A5D9A589A5C
:103CA00081E08093050580938E0584E180939605DD
:103CB0008093970580939805809399058093950547
:103CC000259A269A2D982E9856985798519A549A34
:103CD000599A5C9A80E00E94040E082F001F00276A
:103CE000001F81E00E94040E87FD02C0002321F026
:103CF00087E00E94F813D0C08091060590910705D7
:103D0000A0910805B0910905B07F9C01AD015460F8
:103D10002093060530930705409308055093090545
:103D20006CEE80E00E94580D80910F059091100577
:103D3000A0911105B0911205B07F9C01AD015260B8
:103D400020930F05309310054093110550931205F1
:103D50006CEE81E00E94580D68E180E00E949E0DAB
:103D600066E080E00E948D0D68E181E00E949E0D7A
:103D700068E081E00E948D0DBFEF20E742E0B15086
:103D800020404040E1F700C0000005E2E8E1F5E036
:103D9000DF01202F1D922A95E9F788E58093180509
:103DA00080E293E090931A058093190580E8E82E4D
:103DB0008CE0F82EF0921C05E0921B0580EC94E458
:103DC00090931E0580931D058AEF90E09093200547
:103DD00080931F05909322058093210580E00E9427
:103DE000C50BEDE3F5E0DF011D920A95E9F789E5E2
:103DF00080933D05F0923F05E0923E0580EC93E014
:103E0000909341058093400580E095E090934305B1
:103E1000809342058CE090E09093450580934405A3
:103E2000909347058093460581E00E94C50B8091E1
:103E300081008F7E809381008091810088608093D3
:103E40008100809180008D7F809380008091800030
:103E50008E7F80938000809180008F73809380009C
:103E6000809180008F7C8093800080918100887F8A
:103E700082608093810080E092E09093890080933B
:103E80008800109285001092840080916F008260FB
:103E900080936F001093940580B38F7880BB81B3BB
:103EA000806781BB879A80910C01877E80930C018B
:103EB00088E090E00E94571C1092870560E070E057
:103EC0008CED93E40E94B00782E390E09093890523
:103ED0008093880510928A0510928B0510928C05AC
:103EE00010928D0583E084BD85BD9DE797BD96E06A
:103EF00096BD80936E0080916A008F7C80936A00EB
:103F000080916A00806280936A008091A20581118D
:103F10000DC00E948F28882321F088E00E94F813AA
:103F200005C081E00E948F288111F7CF8091A20502
:103F300081110DC00E94EC1B909391058093900518
:103F400081E00E94EC1B90939305809392058091F1
:103F5000A20581110AC082E080938E0598E09093BB
:103F60000D018093A20510928F0500E615E0A8953B
:103F700080919D0590919E05892B39F48DB79EB750
:103F800090939E0580939D051BC020919D053091C7
:103F90009E058DB79EB72817390791F0F89498E0E1
:103FA00088E10FB6F894A895809360000FBE9093B7
:103FB000600085EA9AE59093010980930009FFCF9C
:103FC0008091D2059091D3058A97CCF08FEF22C0D3
:103FD0008D30F1F08A30E1F02091D2053091D30597
:103FE000F901E855FA4F80838823A1F02F5F3F4FF6
:103FF0003093D3052093D2052A3231055CF48091A9
:10400000A6059091A7050E94BF2E87FFE1CF02C0B1
:1040100080E0E2CF2091D2053091D3052A323105DC
:104020002CF03F932F931F930F935FC0121613062C
:104030000CF065C0811163C08091A505882381F0D3
:104040006091A3057091A40588EA95E00E948932E9
:104050006091A3057091A4058AE090E00E94FD2E76
:104060003091A805313219F03F3309F09FC0E0913B
:10407000A905EE2309F4A1C08091AC058F7D09F05C
:1040800082C02DE043E068EB73E089EA95E0398B6C
:104090000E94180639898F3F09F488C0E3E00E2E8C
:1040A000000CFF0BE755FA4F908191117DC0909164
:1040B000A2059F3F09F483C08093A105313209F026
:1040C00084C04EE06CEE73E00E940006482F552736
:1040D00041950CF450959A01882309F469C087E54D
:1040E00095E03F932F939F938F930E9452061092D7
:1040F000D3051092D2050F900F900F900F900E9451
:10410000C31135CF005F1F4F003851E0150709F08C
:10411000A3CC80E093E00E94053090930A01809345
:10412000090180E193E00E9405309093080180939B
:10413000070182E093E00E9405309093060180938E
:10414000050182E193E00E94053090930401809381
:10415000030184E193E00E94FD2F8093EC0486E14B
:1041600093E00E94FD2F8093EB04B3CCE1E0F0E0FC
:104170008093570084918F738F3209F414CD85E0BA
:1041800010CD9FEF54CD8091AD058F7D79F42DE357
:1041900044E067E872E089EA95E0398B0E941806EE
:1041A00039898F3F41F402C09032A9F08DEF8ECF54
:1041B0008CE595E096CFE4E072CF80E070CF82305E
:1041C00008F47ACF813421F577CF3F3379F746E38E
:1041D00066E174E079CF31969091A2059F3FC1F0DE
:1041E000803E20F09091A205943091F48093A10537
:1041F000F093A005E0939F05313221F440E368EB92
:1042000074E062CF3F3391F645E068E475E05CCF3F
:104210008BEF5CCF82E0C5CC84E0C3CC1F920F92C1
:104220000FB60F9211240F931F932F933F934F9329
:104230005F936F937F938F939F93AF93BF93EF930E
:10424000FF93CF93DF93CDB7DEB72597DEBFCDBF0A
:1042500080912607909127079C012F5F3F4F309355
:10426000270720932607883E934008F460C01092E9
:10427000270710922607789480912507882339F024
:10428000815080932507811102C00E94B02A80913D
:10429000A205833099F480912407882379F08091D6
:1042A0002407815080932407811108C082E0809305
:1042B0008E0598E090930D018093A20580910205F0
:1042C00087FD17C0809123078F5F80932307863077
:1042D00090F060E070E08CE593E40E94B00784E623
:1042E00090E0909389058093880580E00E94B02A31
:1042F00002C01092230784E090E00E94571C809136
:10430000050581FF15C080911F0790912007A0919E
:104310002107B09122070196A11DB11D80931F07AF
:1043200090932007A0932107B093220701C07894AF
:1043300080910009909101098A35954A91F0F8948D
:1043400098E088E10FB6F894A895809360000FBEBE
:104350009093600085EA9AE59093010980930009A3
:10436000FFCF8091A2058F3F19F40E943F0747C4F9
:1043700080911D0790911E070097A9F001979093D7
:104380001E0780931D07892B71F4809105058D7F91
:104390008093050580910C018E7F80930C0188E04D
:1043A00090E00E94571C80911B0790911C07892B5D
:1043B00049F080911B0790911C07019790931C076F
:1043C00080931B078091880590918905009749F09B
:1043D00001979093890580938805892B11F4109299
:1043E000900080911A0781110DC08091690490910D
:1043F0006A048168986090936A04809369048BE0F2
:1044000080931A0720911907822F837009F4BEC088
:1044100021FBEE27E0F980911A07823009F041C0B4
:104420000E94802880FF1CC0409111075091120704
:104430006091130770911407442755276627707EF3
:1044400090911007411551056105704621F4943192
:1044500038F49F5F03C0992319F09150909310078F
:1044600081FF96C04091150750911607609117077C
:1044700070911807442755276627707E80910F0793
:10448000411551056105704629F4843108F080C05A
:104490008F5F04C0882309F47BC0815080930F078D
:1044A00077C0813009F074C0809111079091120794
:1044B00093709A83898300911507109116071370E2
:1044C0001C830B83A0910E0731E03A0F30930E0747
:1044D000B0E0A25FB94FF0E0EE0FFF1FEC0FFD1F41
:1044E0004181528156954795569547954C93309109
:1044F0000D063F3F19F03F5F30930D06322F3171AB
:104500003130E1F440911201411118C08097B0F4AC
:104510008091340590913505892B81F430930C06F8
:1045200060E070E08AE794E42D830E94B00784EF96
:1045300091E090938905809388052D81822F827266
:10454000823231F580911101811118C000321105BC
:10455000A8F48091590590915A05892B79F482E04D
:1045600080930C0660E070E08AE794E40E94B00754
:1045700084EF91E0909389058093880580910105EF
:1045800087FD06C082E080930C0602C010920C06E4
:1045900080911A07815080931A0780910B06811130
:1045A00066C080910A0620912C0781110AC0809173
:1045B0009605809305068091040620FB80F9809380
:1045C0000406809197058093060680919805809354
:1045D0000706809199058093080630918E05809199
:1045E0000206909103063130D1F0F0F0323019F02C
:1045F000333089F01BC0AC0114E0569547951A95ED
:10460000E1F7813431E0930718F038E2341B09C038
:10461000409309060BC0813431E0930728F03091B4
:1046200095053093090602C01092090630910D01DC
:10463000830F911D90930306809302068138924068
:1046400020F0109203061092020690910406917FCA
:10465000822F8E702091050520FD02C020E001C050
:1046600020E1892B822B809304062F9A8F989091BA
:10467000050680910A06981305C0809104068E7F76
:104680008093040690910B0680910606891305C05D
:10469000809104068D7F809304068091070689131C
:1046A00001C08F9A90910B0680910806891305C06E
:1046B00080910406877F8093040680910906891300
:1046C00001C02F9880910B068F5F80930B06843179
:1046D00010F010920B0680910A068F5F80930A06F5
:1046E000883210F010920A068091040620E1829F21
:1046F000C001112490910B019F70892B80930B01B5
:1047000082E090E00E94571C8091690490916A04B5
:10471000892B09F444C18091690490916A0481FF56
:104720000EC060910B0182E10E94C92A8091690448
:1047300090916A048D7F90936A04809369048091BC
:10474000690490916A0483FF0BC060910C0183E1BE
:104750000E94C92A8091690490916A04877F1BC1D5
:104760008091690490916A0480FF0BC082E10E94ED
:10477000B72A809301058091690490916A048E7F25
:104780000AC18091690490916A0482FF0BC083E1A1
:104790000E94B72A809302058091690490916A046F
:1047A0008B7FF9C08091690490916A0484FF0BC0EB
:1047B0006091E10580E00E949E0D809169049091D6
:1047C0006A048F7EE8C08091690490916A0485FF35
:1047D0000BC06091DF0580E00E948D0D809169041F
:1047E00090916A048F7DD7C08091690490916A048A
:1047F00086FF14C02091DB053091DC0530930E0557
:1048000020930D0540E050E064E980E00E94580DDF
:104810008091690490916A048F7BBDC08091690486
:1048200090916A0487FF1DC019821A821B821C8224
:10483000AE014F5F5F4F6FE680E00E944B0C8981B5
:104840009A81AB81BC818093110790931207A0934A
:104850001307B09314078091690490916A048F77CD
:104860009AC08091690490916A0490FF0BC0609196
:10487000E20581E00E949E0D8091690490916A0496
:104880009E7F89C08091690490916A0491FF0BC05A
:104890006091E00581E00E948D0D80916904909106
:1048A0006A049D7F78C08091690490916A0492FFA8
:1048B00014C02091DD053091DE053093170520935B
:1048C000160540E050E064E981E00E94580D8091B7
:1048D000690490916A049B7F5EC080916904909105
:1048E0006A0493FF1DC019821A821B821C82AE01CA
:1048F0004F5F5F4F6FE681E00E944B0C89819A8188
:10490000AB81BC818093150790931607A09317077E
:10491000B09318078091690490916A04977F3BC017
:104920008091690490916A0494FF18C019821A82D8
:104930001B821C82AE014F5F5F4F6AE680E00E94DF
:104940004B0C89819A8193709093D8058093D705F9
:104950008091690490916A049F7E1DC080916904D2
:1049600090916A0495FF1BC019821A821B821C82D7
:10497000AE014F5F5F4F6AE681E00E944B0C898178
:104980009A8193709093DA058093D9058091690498
:1049900090916A049F7D90936A048093690480914A
:1049A0000106882321F081508093010694C084E1A0
:1049B000809301068091F90587FF83C08F70E82FEF
:1049C000F0E021E030E0082E02C0220F331F0A94ED
:1049D000E2F7409103055091040524233523232B4E
:1049E00071F42091780030917900EE0FFF1FEB50A9
:1049F000FA4F40815181240F351F31832083882352
:104A000009F441C08091F4058F5F8093F4058430F0
:104A1000E0F180918705282F30E0220F331FF90144
:104A2000E451FA4F4091F5055091F60551834083CA
:104A3000F901EC51FA4F4091F7055091F805518377
:104A4000408321E130E0082E01C0220F0A94EAF7EA
:104A50009091E305292B2093E3058F5F182F1370A6
:104A600038E0139FC001112490910C01977E892B8F
:104A700080930C0188E090E00E94571C10938705FA
:104A80000E94800E02C021E001C020E0922F80E051
:104A900041E050E0BA0163707727672B19F0992342
:104AA00031F090E0440F551F8F5F803199F790915E
:104AB0007C008770987F892B80937C002093F90578
:104AC0000AC080917A00806480937A008091F90511
:104AD00080688093F9052FB122952F708091000690
:104AE00082279091040689232093000690910B065B
:104AF0009330D8F09091FC059F3F29F080FF03C0D0
:104B00009F5F9093FC059091FD059F3F29F081FFE9
:104B100003C09F5F9093FD059091FE059F3F29F094
:104B200082FF03C09F5F9093FE0580910F019091DB
:104B3000100101979093100180930F01892B09F0C8
:104B400050C0809128076091FC0570E0680F711DCE
:104B50007695679560932807809129074091FD0518
:104B600050E0480F511D5695479540932907809175
:104B70002A072091FE0530E0280F311D3695279534
:104B800020932A071092FC051092FD051092FE0555
:104B900088E592E09093100180930F0190912C078B
:104BA00090FF07C0809196058A3018F081E0672B4E
:104BB00009F080E091FF07C060919705653018F01B
:104BC000452B09F4826092FF07C0909198059530BB
:104BD00018F0232B09F4846090910E0189238093AF
:104BE000FB058091FA05833051F4629B08C081E097
:104BF0008093FA05809119078E7F809319070F9093
:104C00000F900F900F900F90DF91CF91FF91EF9148
:104C1000BF91AF919F918F917F916F915F914F91D4
:104C20003F912F911F910F910F900FBE0F901F90EA
:104C30001895EF92FF920F931F93CF93DF93D82F86
:104C4000082F10E098012B523A4F7901F901808129
:104C50001F928F931F92DF9383EC95E09F938F9326
:104C60000E94352FF70180811F928F931F92DF934F
:104C70008CEA95E09F938F930E94352FF7018081F6
:104C800083702DB73EB7245F3F4F0FB6F8943EBFF9
:104C90000FBE2DBF882311F0C0E801C0C0E0000F97
:104CA000111F000F111FF801EF5EF84F80819181F5
:104CB000A281B381B2FDC062B1FDC064D11111C047
:104CC000809110071F928F9388E995E09F938F93AF
:104CD0000E94352F0F900F900F900F90809110072A
:104CE00012C0D13099F480910F071F928F9385E8FD
:104CF00095E09F938F930E94352F0F900F900F9008
:104D00000F9080910F07843108F0C0618C2FDF91E4
:104D1000CF911F910F91FF90EF900895EF92FF9226
:104D20001F93CF93DF93182FEB01111142C080E83E
:104D300090E00E94421C8091110790911207A0916F
:104D40001307B0911407B7FFF2CFE12EF12C85E2E3
:104D5000189FF0011124E85EFA4F888199819483AD
:104D600083838A819B81968385838C819D819087B3
:104D700087838E819F8192878187812F0E94C50BB7
:104D80009701F901EF51FA4F88858083F901E152CB
:104D9000FA4F89858083220F331FF901E552FA4FBC
:104DA0008A859B8591838083111115C080E790E0EF
:104DB00016C0113009F0B9CF80E098E00E94421C83
:104DC0008091150790911607A0911707B0911807C9
:104DD000B7FFF2CFBACF113049F480E097E0DF910E
:104DE000CF911F91FF90EF900C94421CDF91CF91D7
:104DF0001F91FF90EF9008950F931F93CF93DF9330
:104E0000EB01082F10E095E2899FF0011124E85E84
:104E1000FA4F2381348139832883258136813B836E
:104E20002A83278130853D832C83218532853F83EA
:104E30002E830E94F50D888789E0809FF001819F75
:104E4000F00D1124EA5FFA4F86818987878190856A
:104E50009B878A87DF91CF911F910F9108951F92B1
:104E60000F920FB60F92112410928A0510928B05A3
:104E700010928C0510928D05EE98789480E00E9437
:104E80006B2880E00E947E2A80E00E94962A60E0E3
:104E900070E08AEF94E40E94B00780ED97E0909371
:104EA0008905809388058EE795E09F938F930E94F4
:104EB0003E060F900F90C12CD12C7601C9E7D5E0AA
:104EC000FF92EF92DF92CF92DF93CF930E943E0644
:104ED0006091D4058FEF860F0F900F900F900F9079
:104EE0000F900F908E3F48F48FEF93E00E94233095
:104EF0008091D4058F5F8093D4058AE0C80ED11CC1
:104F0000E11CF11C80918A0590918B05A0918C0584
:104F1000B0918D058C159D05AE05BF0598F3D0CFDA
:104F2000CF93DF93EC018091190781FD37C0409149
:104F30005005509151056091520570915305CE0175
:104F40000D2E000CAA0BBB0B840F951FA61FB71FBD
:104F50008093500590935105A0935205B09353054B
:104F6000D7FF07C0D195C195D1090E946128826001
:104F700003C00E9461288D7F0E945228219760F013
:104F8000F89482E00E94392878948FE99FE0019795
:104F9000F1F700C00000F2CF80E001C08EEFDF919A
:104FA000CF910895CF93DF93EC018091190780FD95
:104FB00037C040912B0550912C0560912D057091C3
:104FC0002E05CE010D2E000CAA0BBB0B840F951FD6
:104FD000A61FB71F80932B0590932C05A0932D053A
:104FE000B0932E05D7FF07C0D195C195D1090E9476
:104FF0006128816003C00E9461288E7F0E94522830
:10500000219760F0F89481E00E94392878948FE924
:105010009FE00197F1F700C00000F2CF80E001C0EF
:105020008EEFDF91CF9108951F93CF93DF9300D040
:1050300000D0CDB7DEB7162FEFECF7E03197F1F7E0
:1050400000C00000F89419821A821B821C82AE01F3
:105050004F5F5F4F64E00E944B0C898178948127F9
:1050600083710F900F900F900F90DF91CF911F9150
:10507000089580FD2D9A81FD2E9A2D982E980895E1
:10508000882319F0813019F00895599A08955C9A8F
:105090000895882319F0813019F0089559980895DA
:1050A0005C980895EBE0F1E0282F217090819A7FC1
:1050B000922B8270880F892B808382E090E00C9481
:1050C000421C80910B01282F247030E035952795E4
:1050D0008170822B089593E08927EBE0F1E0282F7F
:1050E000217030E0220F331F8270880F880F282B29
:1050F0008081857F282B208382E090E00C94421CE5
:1051000090910B01292F287030E035952795359522
:10511000279596959170922B83E089270895EF92B9
:10512000FF920F931F93CF93DF93C82F01E010E0FE
:1051300001C0000F8A95EAF70E948028F82E0E948D
:105140006128E82ED02FD0958F2D8D230E946B28BB
:105150008E2D8D230E94522860E18C2F0E941428EE
:10516000D82FCC2321F0C13019F42E9A01C02D9AEA
:1051700061E18C2F0E941428D82BCC2321F0C13060
:1051800019F42E9801C02D988E2D802B0E94522844
:1051900062E18C2F0E941428D82B802F0E9439287E
:1051A0008F2D802B0E946B2862E08C2F0E94142888
:1051B000D82B8E2D0E9452288F2D0E946B288D2F68
:1051C000DF91CF911F910F91FF90EF9008956BEDBC
:1051D00076E096958795969587950C94E52A20918B
:1051E000050521FF2BC09C013695279536952795FF
:1051F000AAEBB3E10E949B30DC01CB012AE0B6951B
:10520000A795979587952A95D1F79C01AD014427DD
:105210005527A2EBB9E00E94AA30AB01BC013AE0ED
:1052200076956795579547953A95D1F780911901ED
:1052300090911A01841B950B97FF02C080E090E0CB
:105240000895EF92FF921F93CF93DF937B01C82FB6
:10525000D92F142F180F1C1741F0F70161917F010E
:10526000CE010E940B302196F6CFDF91CF911F9196
:10527000FF90EF9008958F929F92AF92BF92CF923E
:10528000DF92EF92FF920F931F93CF93DF93CDB7EF
:10529000DEB760970FB6F894DEBF0FBECDBFD82E35
:1052A000B62E9E012F5F3F4F7901B9010E94FC2667
:1052B000D11006C0B7FC02C0E5E00AC0E7E008C0B4
:1052C00031E0D3120CC0B7FC02C0E6E001C0E8E058
:1052D000F0E0EE0FFF1FE55FFB4F80809180B7FC91
:1052E0000CC040E1B701C4012B2D30E12302800D39
:1052F000911D11240E94212927C0A12CB12C80E1ED
:10530000C82ECE0CD11004C08501055A194F06C015
:1053100081E0D81203C0850105521A4FD701F80168
:10532000CA1621F084918D933196FACF40E1B701EE
:10533000C501880D991D0E94212990E1A90EB11C7B
:1053400020E8A216B104F1F660960FB6F894DEBF1D
:105350000FBECDBFDF91CF911F910F91FF90EF90C6
:10536000DF90CF90BF90AF909F908F9008958091E5
:10537000ED049091EE04A091EF04B091F00485FF4C
:1053800007C06091120167FD03C080E00E943B29C5
:105390008091ED049091EE04A091EF04B091F0049F
:1053A00086FF07C06091110167FD03C081E00E9484
:1053B0003B298091ED049091EE04A091EF04B0910F
:1053C000F00487FF04C06FEF80E00E943B298091CA
:1053D000ED049091EE04A091EF04B091F00490FFE1
:1053E00004C06FEF81E00E943B298091ED04909111
:1053F000EE04A091EF04B091F00491FF08C0609119
:10540000090170910A0180E093E00E941D308091B3
:10541000ED049091EE04A091EF04B091F00492FF9E
:1054200008C0609107017091080180E193E00E943B
:105430001D308091ED049091EE04A091EF04B091A5
:10544000F00493FF08C0609105017091060182E0AD
:1054500093E00E941D308091ED049091EE04A091A4
:10546000EF04B091F00494FF08C0609103017091C3
:10547000040182E193E00E941D308091ED0490913F
:10548000EE04A091EF04B091F00495FF0CC0609180
:10549000EC0484E193E00E940B306091EB0486E120
:1054A00093E00E940B301092ED041092EE041092E3
:1054B000EF041092F0040895EF92FF920F931F9360
:1054C000CF93DF931F92CDB7DEB77B018C01061B14
:1054D000170B415058F0C8018E0D9F1D49830E9443
:1054E000FD2FF70181937F014981F3CF0F90DF9169
:1054F000CF911F910F91FF90EF90089590912C07FD
:1055000090959823F89490FF03C022E020932807F9
:1055100091FF03C022E02093290792FF03C092E08D
:1055200090932A0780932C0778940895809305051B
:1055300084FF02C0289801C0289A9091050595FF24
:1055400002C05D9801C05D9A8670869590910C01AD
:105550009C7F892B80930C0188E090E00C94571C71
:105560003F9A882311F0479A089547980895CF935A
:10557000C82F80E58CBD1DBC2C9881E40E94FE07DD
:105580008C2F0E94FE078FEF0E94FE072C9ACF916E
:1055900008951F93CF93DF931F92CDB7DEB7182FD7
:1055A00080E58CBD1DBC2C9880E469830E94FE07B9
:1055B000812F0E94FE076981862F0E94FE072C9A88
:1055C0000F90DF91CF911F910895EF92FF921F935B
:1055D000CF93DF93FB01EE5BFF4F25913491821750
:1055E00093070CF04CC0FB01259134912817390723
:1055F0000CF048C013E2A1E2B0E040E050E021E14D
:10560000115009F439C030E0E901CC0FDD1FFB0176
:10561000EC0FFD1FE590F490FE013296E60FF71FA8
:10562000C591D491C817D90724F4A9012A0F3B1FAB
:1056300006C08E159F0534F4D901240F351F35950A
:105640002795DECF4EEC4203B001439F700D11242D
:105650009B012E513B4FBC016E197F094603C001CF
:10566000479F900D1124BE016E197F090E9465307D
:10567000C901860F971F08C080E090E005C080E751
:105680009EEF02C082EE94E0DF91CF911F91FF90D8
:10569000EF900895ACE0B0E0E0E5FBE20C94522E10
:1056A0006C015B017A01FC0117821682838181FF04
:1056B0000EC1CE0101964C01F6010381F50103FDF7
:1056C000159103FF11915F01112309F4FCC01532FC
:1056D00049F403FD159103FF11915F01153211F09B
:1056E00020E01BC0B601812F90E00E94FD2E370103
:1056F0007301E2CF112309F4E6C0612F70E086E266
:1057000097E02C870E94AC2E2C85892B49F0F5015F
:1057100003FD159103FF11915F0127FFEBCF09C036
:10572000133229F01C3609F0D5C02068F0CF20E1F3
:10573000EECF022F112309F4C6C0612F70E08FE174
:1057400097E02C870E94AC2E2C85892B41F03701E5
:10575000F4E06F0E711CB6018FE390E011C01336B8
:1057600039F0133781F0133519F5022F01600BC0A2
:10577000370182E0680E711CB601F70180819181CA
:105780000E94FD2EB5CF3701F2E06F0E711CF701BC
:10579000E080F180F70100FD859100FF81917F019C
:1057A000882309F4A5CFB60190E00E94FD2EF2CF28
:1057B000143611F0193629F5370127FF09C0F4E036
:1057C0006F0E711CF70160817181828193810AC023
:1057D000F2E06F0E711CF70160817181072E000CE1
:1057E000880B990B022F0F7E97FF08C0909580952C
:1057F000709561957F4F8F4F9F4F00642AE030E096
:1058000033C0103799F040F41835B1F01F3609F065
:105810005AC028E030E014C0153719F0183741F0AD
:1058200052C0022F0F7E2AE030E00AC0022F006132
:10583000046220E130E004C0022F046020E132E085
:10584000370107FF09C0F4E06F0E711CF70160819A
:1058500071818281938108C0F2E06F0E711CF701A3
:105860006081718180E090E0A4010E949C2F182F3C
:10587000181906FF05C0B6018DE290E00E94FD2ECA
:1058800004FF15C0FE01E10FF11D8081803379F026
:10589000B60180E390E00E94FD2E02FF08C0007276
:1058A000802F90E0B601885A9F4F0E94FD2E115024
:1058B000F401E10FF11D8081B60190E00E94FD2E00
:1058C0001111F5CF15CFF6018681978105C08FEFB5
:1058D0009FEF02C0022F31CF2C96EEE00C946E2E7B
:1058E00020FD09C0FC0123FD05C022FF02C0738317
:1058F000628351834083089544FD10C046FD10C06B
:10590000DB01FC01AA0FBB1FEE1FFF1F1094D1F794
:105910006A0F7B1F8E1F9F1F31E003C033E001C061
:1059200034E0660F771F881F991F3150D1F7620F3F
:10593000711D811D911D08950F931F93CF93DF93C8
:105940008C01C8010E94BF2EEC0197FD08C00E9487
:10595000A32E892BB1F7B801CE010E94832FCE016F
:10596000DF91CF911F910F910895A1E0B0E0EBEB93
:10597000FCE20C94542E8C01C62E7A0129830E94DD
:10598000BF2EAC01552729814B32510521F04D32F4
:10599000510569F42068CA94C11002C080E076C045
:1059A000C80129830E94BF2E298197FDF7CF322F8E
:1059B0003D7FD32E322F307349F5803339F5BB2428
:1059C000BA94BC0C09F44EC0C80129830E94BF2EB2
:1059D000298197FD47C0382F3F7D383569F48D2DDB
:1059E0008264D82ECA94CA94CC20E1F1C8010E94E6
:1059F000BF2E97FF0BC036C026FF04C02D2D22609E
:105A0000D22E03C03D2D3261D32ECB2C812C912C74
:105A1000540120ED280F283080F0D4FE04C0B801D6
:105A20000E94832F1CC02A3040F0D6FEF8CF2F7D75
:105A30003FEE320F363098F727504D2DC501B40197
:105A40000E947C2C4B015C018D2D8260D82ECA9463
:105A5000CC2059F0C8010E94BF2E97FFDACFD1FCAD
:105A600004C09CCF812C912C5401D7FE08C0B09467
:105A7000A09490948094811C911CA11CB11C2D2D8C
:105A8000B501A401C7010E94702C81E02196ECE0D1
:105A90000C94702EA1E0B0E0E0E5FDE20C94502EF5
:105AA0007C012B015A01FC0117821682812CF7011F
:105AB0007380F20173FC859173FE8191382F2F0161
:105AC000882309F4E2C090E039830E94A32E398133
:105AD000892B21F0C7010E949C2CE9CF353241F47B
