:100000000C949F030C94BC030C94BC030C94BC0391
:100010000C94BC030C94BC030C94BC030C94762687
:100020000C94BC030C94BC030C94BC030C94BC0354
:100030000C94BC030C94BC030C94BC030C94BC0344
:100040000C94BC030C9413070C94BC030C94BC03D9
:100050000C94BC030C944A200C94BC030C94E40D47
:100060000C94BC030C94A20D0C94BC030C94BC0324
:100070000C94BC030C94BC030C94BC030C94BC0304
:100080000C94BC030C94BC030C94BC030C94BC03F4
:100090000C94BC030C94BC030C94BC030C94BC03E4
:1000A0000C94BC030C94BC030C94BC034552524FFB
:1000B000523A20727820627566666572206F7665A6
:1000C00072666C6F770A00AA6A5A56555595A5A9AB
:1000D000AA2575200025752000256920002568685F
:1000E00075256E002575256E002569256E00237324
:1000F0007069313D257820647276313D256C782019
:10010000677374313D257820676366313D256C78CF
:100110000A0023737069303D257820647276303D83
:10012000256C7820677374303D25782067636630CE
:100130003D256C780A0025692000256C752000009B
:10014000534C412D636F6E74726F6C2025642E25A5
:10015000642E25642D256425532000435A505825CC
:1001600034735825337358256325357320004E4169
:1001700020000103050E0F111213151617383A004F
:100180000204253032780025642025642000256C87
:100190006920002530326868782000237477706801
:1001A0002073746570732025640A00256C69256EC0
:1001B0000025686869256E003F3F3F3F0045525269
:1001C0004F523D256420282553290A004E4F4E45A5
:1001D0000043485341004348534200534E4E53009E
:1001E00046555345004C4F434B004753504900542C
:1001F0005350490054534947004144435600544822
:100200004552004D4F544F0046414E5300554C450A
:100210004400490053005F006D007D009000A50080
:10022000BD00D900F8001C0143016E019C01CE0104
:10023000020237026C02A102D30202032D03530310
:1002400075039103A903BD03CD03DA03E303EB03B5
:10025000F103F503F8032374697068207374657003
:10026000732025640A006B696C6C65640A004D4359
:100270005553523D3078253032780A0073746172DC
:10028000740A006265657081626F6F74B5636C6536
:1002900064856565636C9F65657278A06565777830
:1002A000A16563686FAA66616E65B366616E738AE5
:1002B0006670776DB26672706D9D6D6F74728D70C1
:1002C0006C65648270707374BF7070776DB1707399
:1002D0007064B97273656EAD72736D65AF7273736E
:1002E00074AE73676263BA73676264BB7368646E8B
:1002F0008374656D709E74696366A774696373A97E
:10030000746963759674696863C17469686F987479
:10031000696D61A374697068BD7469706FA5746953
:1003200073679A74697374C374726177B674776310
:1003300066A674776373A874776375957477646E33
:100340008F74776863C07477686F9774776D61A2F4
:1003500074777068BC7477706FA4747773679974DE
:10036000777374C2747775708E756C6564847570FC
:10037000776DB8766F6C74B076726177B7776465B5
:100380006CBE7769646CB4666D736BC4676F7365BC
:10039000C574777466C874697466C974697363C711
:1003A00075737461CA5F706F72E15F646472E25F5B
:1003B00070696EE36469720F656E610C656E64113D
:1003C000657272416C65640D6C6F67426D6F74107D
:1003D0007273740173657203747374437665720289
:1003E0007265761370756E1201310443E60B83F863
:1003F000048DEE04971C049807049FDD04B4CC041C
:10040000B5F503BBF103C0DD03C1C903C5BE0300DD
:10041000E51201891502B713038314123814131A55
:10042000140C89150D89150F891510891511891559
:1004300041891542891582891584D5128589158AC5
:100440008915958915968915976F15986F15C7CBDE
:10045000129989159A89159D23159E0A15B00A15BA
:10046000B6F114B7F114B18915B98915B88915B267
:100470002315B38915A49F13A51214A6EF13A7EF94
:1004800013A86F15A96F15AA6F15AD8915AE89153B
:10049000BA8915BB7013BC3B15BD3B15BF5F13C0BC
:1004A0006115C16115C46F15C88915C98915CAD7E9
:1004B000130CA6110DA6110FA61110A61111A6114D
:1004C00041A61142A61183A61181780F82A611843C
:1004D000300F85A6118EA5108FA5108AA61195A69E
:1004E0001196A6119944119A44119FDD04A2C70FD9
:1004F000A35410A4C70FA55410A6680EA7680EA891
:100500004411A94411AAA611B1A611B9A611B8A601
:1005100011B20D0EADA611AFC70FBEA510BCA51030
:10052000BDA510C24411C34411C0B617C17D17C484
:10053000A611BF2017C7E916E17A16E37A16E27A08
:1005400016CA4617A63A16A73A16E1E715E3E715C5
:10055000E2E7156525640A006F6B0A004552524FA9
:10056000523A20636F6D6D616E64206F76657266BE
:100570006C6F770A00256C640A0023494E54360AD2
:1005800000236F6C69636E745F74696C743D2568D9
:1005900068750A00236F6C69636E745F746F7765AA
:1005A000723D256868750A00236472765F73746112
:1005B0007475735B25645D3D2530386C780A0023C3
:1005C0007370695F7374617475735B25645D3D2539
:1005D00030326868780A00000A0014F000F0001455
:1005E00007BC0200000000B004DC05A000A0001061
:1005F000074C0400000000000F00145000500010D1
:1006000006DC050000000064007800C800C8000B8C
:1006100000DC0500000000DC05DC05000000002C0B
:100620002834080000000090019001000000003E06
:100630003F000000000000D606D606000000002C97
:1006400028D00700000000000F0014C800C8000FE9
:10065000037E0400000000C409983AFA00960016D0
:1006600004640000000000C4094C1DFA009600104C
:1006700001F40100000000800C983AFA00FA000A28
:100680000398080000000064009600320032000F5A
:1006900000DC0500000000800CC044FA00FA0022D3
:1006A00006F40100000000800CC044FA00FA0012B9
:1006B00006F4010000000040068025C800C8003F85
:1006C00004F40100000000C4094C1D5E015E010C31
:1006D0000278050000000019001D00220028002EED
:1006E00000360040004B00580069007C009200ADCD
:1006F00000CC00F1001A014A017E01B701F4013378
:10070000027102AF02E8021C034A0372039303ADB5
:1007100003C303D303E003E903F0034546476566DB
:100720006700202B2D2E30313233343536373839AF
:1007300068006364696E6F707375785800001124E7
:100740001FBECFEFDAE0DEBFCDBF27E0A4E3B4E009
:1007500001C01D92A233B207E1F714E0A0E0B1E0BE
:10076000ECE8F3E602C005900D92A433B107D9F787
:100770000E94791B0C94C4310C94000083E0809398
:100780008C0580E480930C0184E08093A70580E0D1
:10079000089580911E0781FD0EC081E080930001C5
:1007A0008FEF9FEF909303018093020180E180938C
:1007B000520480E008958EEF089580911E0780FD19
:1007C0000EC081E0809301018FEF9FEF90930501B0
:1007D000809304018AE08093440480E008958EEFC2
:1007E00008951092120680E0089587E797E79093A6
:1007F00001088093000898E088E10FB6F894A89566
:10080000809360000FBE90936000F894FFCF9091AA
:100810001E07892F827091FD0DC091E09093000119
:10082000209106013091070137FD80E18093520449
:1008300080E008958EEF089590911E07892F8170B2
:1008400090FD0DC091E0909301012091080130913D
:10085000090137FD80E18093440480E008958EEF24
:10086000089598E088E10FB6F894A8958093600009
:100870000FBE90936000F894FFCF8F929F92AF923B
:10088000BF92CF92DF92EF92FF920F931F93CF937D
:10089000DF936A017B01082F10E095E2899FE00158
:1008A0001124CA5EDA4FAB85BC852D853E85490192
:1008B0008A0E9B1EA12CB12C481559056A057B0593
:1008C000A8F0BD8FAC8FC818D908EA08FB08CE8EF7
:1008D000DF8EE8A2F9A23BA32AA3AB2B11F086E09E
:1008E00001C084E0232BA9F0886013C09A01AB01FA
:1008F0000E94BB2FA50194010E948A2F3D8F2C8F4F
:100900001E8E1F8E18A219A2C21AD30ADBA2CAA277
:100910008AE095E2909FF001919FF00D1124EA5E2C
:10092000FA4F878BDF91CF911F910F91FF90EF903E
:10093000DF90CF90BF90AF909F908F9008958EBD25
:100940000DB407FEFDCF8EB5089580916B04909194
:100950006A04981781F0E82FF0E0E359FB4F2081FB
:1009600030E08F5F90916904891708F080E08093F0
:100970006B04C90108958FEF9FEF08958093CE0017
:100980008091C80086FFFCCF8091C800806480936E
:10099000C80080E090E0089580911E07837019F0F0
:1009A0000E948818F9CF809101011816CCF380912C
:1009B00000011816ACF380E00895CF93DF93C0E0F8
:1009C000D1E06FEFCE010E942C2F2196C63183E03B
:1009D000D807B9F780E0DF91CF91089580E00E94B9
:1009E000B2278FEF809301018093000180E008958A
:1009F00080E00E94F7291092240780E00895E0919A
:100A0000A605ED50E83B40F4F0E0EE0FFF1FE65680
:100A1000FD4F80819181089580E090E00895FB0171
:100A200090E0941781F02491BF016D5F7F4F2813F0
:100A300007C0319685919491009739F0FC01099493
:100A40009F5FFB01EECF89EF08958AEF08950F9322
:100A50001F93CF93DF93582FC42FD0E021962223EA
:100A6000B1F0FB01DC013A2F351B341728F40D914E
:100A7000149131960117B9F32150341305C0FB01CD
:100A8000E30FF11D849104C06C0F7D1FE8CF8FEF41
:100A9000DF91CF911F910F910895CF93DF93CDB741
:100AA000DEB7AE014B5F5F4FFA0161917191AF010B
:100AB0008091A0059091A1050E94952EDF91CF9184
:100AC0000895CF93DF93CDB7DEB7AE014B5F5F4F95
:100AD000FA0161917191AF018091A8059091A905EA
:100AE0000E94952EDF91CF910895CF93DF9300D090
:100AF000CDB7DEB79E012F5F3F4F3F932F937F937C
:100B00006F9329EE30E03F932F939F938F930E9432
:100B10007C2E0FB6F894DEBF0FBECDBF019711F447
:100B2000898101C08DEF0F900F90DF91CF910895D3
:100B3000CF93DF9300D0CDB7DEB79E012F5F3F4F3D
:100B40003F932F937F936F9324EE30E03F932F9347
:100B50009F938F930E947C2E0FB6F894DEBF0FBE3A
:100B6000CDBF019711F4898101C08DEF0F900F90D7
:100B7000DF91CF910895CF93DF9300D0CDB7DEB74B
:100B80009E012F5F3F4F3F932F937F936F932DEDE8
:100B900030E03F932F939F938F930E947C2E0FB64C
:100BA000F894DEBF0FBECDBF019711F4898101C05B
:100BB0008DEF0F900F90DF91CF9108959F938F93BA
:100BC00089ED90E09F938F930E9461050F900F90A5
:100BD0000F900F9097FD80E008959F938F9385ED80
:100BE00090E09F938F930E9461050F900F900F905C
:100BF0000F9097FD80E008951F928F9381ED90E014
:100C00009F938F930E9461050F900F900F900F900C
:100C100097FD80E008950F931F93CF938C01FC0103
:100C2000808191810E94ED05C82FF8018281938116
:100C30000E94ED05C80FF801848195810E94ED05A1
:100C4000C80FF801868197810E94ED05C80FF80151
:100C500080850E94FC05C80FF8018185282F082E89
:100C6000000C330B3F938F9386E391E09F938F9318
:100C70000E9461050F900F900F900F9097FD02C09A
:100C8000982F01C090E0C90FF801828593850E94DA
:100C9000ED058C0FCF911F910F9108958091430422
:100CA000882309F46BC08091420490914104882309
:100CB000C1F0815080934204911160C08FE694E0AE
:100CC000909399008093980080E4809390002F9AED
:100CD0008091030581608093030581E08093410446
:100CE0000895992351F0109290002F988091030558
:100CF0008E7F8093030510924104809140048823E5
:100D000021F0815080934004089520913F04E22F08
:100D1000E695E695F0E0E55CFB4F808190E0422FA0
:100D2000437023E030E0241B3109220F331F02C03F
:100D3000959587952A95E2F78370823059F0833034
:100D400081F0813019F01092420407C080E3809353
:100D5000420404C080E98093420480E3809340040D
:100D600002C010923F0480913F048F5F80933F0444
:100D700090914304891710F010923F040895CF9288
:100D8000DF92EF92FF926B017C0120E030E0A9013D
:100D90000E943330811103C0109290001CC0A70143
:100DA000960160E074E284E799E40E94383020E024
:100DB00030E040E05FE30E94C62F0E94AA30683C0A
:100DC000710510F468EC70E07093990060939800DE
:100DD00080E480939000FF90EF90DF90CF90089593
:100DE000E82FF0E0E953FF4FE491F0E0FE2FEE270B
:100DF000853010F0E06401C0E068F894F0933B04A3
:100E0000E0933C0410923F0410924204109240047C
:100E100088E080934304789408958EBD0DB407FE56
:100E2000FDCF8EB508951F920F920FB60F92112429
:100E30004F925F926F927F928F929F92AF92BF92EA
:100E4000CF92DF92FF920F931F932F933F934F9375
:100E50005F936F937F938F939F93AF93BF93CF9342
:100E6000DF93EF93FF931092850010928400C0905F
:100E70002705D090280500914C0510914D05E1E023
:100E8000C016D10608F0E0E0E0933A0445E2E49FA2
:100E9000F0011124EA5EFA4FC189D289D093390456
:100EA000C09338048091840090918500209709F4C4
:100EB000B7C2F9B0F294F694F69493E0F9228091D7
:100EC0001106F82A80919205F8228F2D90E09093D8
:100ED000370480933604C03A56E3D50750F0FE013C
:100EE00086E0F695E7958A95E1F7E65EFE4F46A126
:100EF0001AC0C03A66E2D60748F0FE01B5E0F695A2
:100F0000E795BA95E1F7EA59FF4F0CC0C03A7EE188
:100F1000D70758F0FE01A4E0F695E795AA95E1F70A
:100F2000EE5CF040408150E01AC0C032D105A8F01C
:100F3000BE0176956795CB01A0E0B0E0BC01CD0184
:100F400060587B47814E9F4F4E01A12CB12CA501CB
:100F500094010E948A2FA90102C040E050E0509302
:100F60003504409334048091840090918500F09181
:100F70001E07F0FF24C12091300530913105240F68
:100F8000351F309331052093300580912E059091C7
:100F90002F05C816D90608F40CC18C0F9D1F8C199B
:100FA0009D0990932F0580932E05E0912D0580914A
:100FB000290590912A05A0912B05B0912C05F4FFED
:100FC00004C00197A109B10903C00196A11DB11D7B
:100FD0008093290590932A05A0932B05B0932C05A7
:100FE000E1FF50C0A0911D05B0911E052F3F3105B6
:100FF00009F058F44A9FB0014B9F700D5A9F700D35
:101000001124CB01A0E0B0E005C09A010E94AC2FF2
:10101000DC01CB0173E0880F991FAA1FBB1F7A95D3
:10102000D1F78090250590902605A0902705B090D7
:101030002805880D991DAA1DBB1D80932505909339
:101040002605A0932705B09328058091320590913D
:10105000330501979093330580933205892B09F06E
:101060008BC08E2F8D7FE2FF86C020911B053091B3
:101070001C05309328052093270510922605109211
:10108000250579C0E2FF28C080913405909135058F
:10109000A0913605B09137050197A109B109809358
:1010A000340590933505A0933605B0933705892B09
:1010B0008A2B8B2B09F060C08E2F8B7FE3FD5BC0EA
:1010C000FE7FF0931E0710922505109226051092C0
:1010D0002705109228054FC0E3FF4EC0A0911F05C1
:1010E000B09120052F3F310509F058F44A9FB00117
:1010F0004B9F700D5A9F700D1124CB01A0E0B0E002
:1011000005C09A010E94AC2FDC01CB0163E0880F7F
:10111000991FAA1FBB1F6A95D1F780902505909053
:101120002605A0902705B090280524013501481A0E
:10113000590A6A0A7B0A4092250550922605609258
:1011400027057092280580913805909139050197FF
:101150009093390580933805892B71F4E77FFE7FE2
:10116000F0931E0710922505109226051092270570
:101170001092280501C0E82F80913A05882321F0BC
:10118000815080933A050CC0F0FE0AC080911E0782
:101190008E7F80931E078091530481608093530457
:1011A000E0932D051092310510923005DD24D39483
:1011B00007C08C199D0990932F0580932E05D12C83
:1011C000F0911E07F1FF28C18091550590915605B9
:1011D000840F951F909356058093550520915305D4
:1011E000309154050217130708F40DC1C20FD31F25
:1011F000C01BD10BD0935405C0935305E091520509
:1012000000914E0510914F052091500530915105E8
:10121000F5FF05C0015011092109310904C00F5F14
:101220001F4F2F4F3F4F00934E0510934F052093B4
:10123000500530935105E1FF50C0A0914205B09197
:1012400043058F3F910509F058F44A9FB0014B9F29
:10125000700D5A9F700D1124CB01A0E0B0E005C0C5
:101260009A010E94AC2FDC01CB0133E0880F991F5B
:10127000AA1FBB1F3A95D1F700914A0510914B0563
:1012800020914C0530914D05800F911FA21FB31F77
:1012900080934A0590934B05A0934C05B0934D0560
:1012A0008091570590915805019790935805809328
:1012B0005705892B09F08BC08E2F8D7FE2FF86C0EA
:1012C000209140053091410530934D0520934C0508
:1012D00010924B0510924A0579C0E2FF28C0809118
:1012E000590590915A05A0915B05B0915C05019755
:1012F000A109B1098093590590935A05A0935B0504
:10130000B0935C05892B8A2B8B2B09F060C08E2F44
:101310008B7FE3FD5BC0FD7FF0931E0710924A05B3
:1013200010924B0510924C0510924D054FC0E3FFF3
:101330004EC0A0914405B09145058F3F910509F03D
:1013400058F44A9FB0014B9F700D5A9F700D1124A5
:10135000CB01A0E0B0E005C09A010E94AC2FDC01F7
:10136000CB0123E0880F991FAA1FBB1F2A95D1F735
:1013700000914A0510914B0520914C0530914D0587
:10138000B901A801481B590B6A0B7B0B40934A0516
:1013900050934B0560934C0570934D0580915D050E
:1013A00090915E05019790935E0580935D05892B72
:1013B00071F4E77FFD7FF0931E0710924A051092AB
:1013C0004B0510924C0510924D0501C0E82F8091FD
:1013D0005F05882321F0815080935F050CC0F1FEEA
:1013E0000AC080911E078D7F80931E078091530451
:1013F000826080935304E093520510925605109238
:10140000550582E008C0E901C01BD10BD0935405FB
:10141000C093530580E0D82A8D2D0E94802706C0F6
:1014200080ED97E0909335048093340480913404E8
:1014300090913504909389008093880020918400D6
:101440003091850080913404909135042817390734
:1014500028F00A979093850080938400FF91EF9184
:10146000DF91CF91BF91AF919F918F917F916F91BC
:101470005F914F913F912F911F910F91FF90DF90BE
:10148000CF90BF90AF909F908F907F906F905F9024
:101490004F900F900FBE0F901F901895CF92DF9234
:1014A000EF92FF920F931F93CF93DF9300D000D062
:1014B000CDB7DEB7082F10E021E030E06901082E3B
:1014C00001C0CC0C0A94EAF790911E079C2109F008
:1014D0005BC0411551056105710509F457C0F82E2F
:1014E000EC2CE09449835A836B837C831416150695
:1014F000160617069CF40E94A8278E210E949927A1
:101500008C2D8295807F809590911E0789238093F2
:101510001E0749815A816B817C8118C00E94A827CF
:101520008C290E94992780911E079C2D9295907F6F
:10153000892B80931E0749815A816B817C8170952C
:101540006095509541955F4F6F4F7F4F8F2D0E9453
:101550003D0485E2809FF001819FF00D1124EA5E39
:10156000FA4F108A178683819481928B818B80E455
:1015700084A380915304E822E092530480911E07D3
:101580008C2980931E0702C08FEF01C080E00F906E
:101590000F900F900F90DF91CF911F910F91FF90BF
:1015A000EF90DF90CF900895CF92DF92EF92FF926D
:1015B0000F931F93CF93DF93C82ED12C95E2899F71
:1015C000E0011124CA5EDA4F8D819E810B811C815E
:1015D0007C01E01AF10A080F191F2F8138852115A7
:1015E000310539F1C701A0E0B0E0BC01CD01ECE06C
:1015F000660F771F881F991FEA95D1F740E050E0EA
:101600000E948A2FF4E05695479537952795FA95CD
:10161000D1F7D8010E94BB2F6C5D7B408F4F9F4F4D
:1016200028E438EE41E050E00E948A2F3C872B8767
:1016300002C01C861B8685E28C9DE0018D9DD00D2D
:101640001124CA5EDA4F29853A852115310539F111
:10165000C701A0E0B0E0BC01CD014CE0660F771FF0
:10166000881F991F4A95D1F740E050E00E948A2FC9
:1016700064E056954795379527956A95D1F7D80137
:101680000E94BB2F6C5D7B408F4F9F4F28E438EE4C
:1016900041E050E00E948A2F3E872D8702C01E86BF
:1016A0001D86DF91CF911F910F91FF90EF90DF90FA
:1016B000CF9008958F929F92BF92CF92DF92EF9238
:1016C000FF920F931F93CF93DF931F92CDB7DEB797
:1016D000B82E8A018CE5F82EFCBC1DBC8B2D6983CD
:1016E0000E9490276981862F0E949F0480E00E94BB
:1016F0009F0480E00E949F0480E00E949F0480E09D
:101700000E949F048B2D0E948727FCBC1DBC8B2D43
:101710000E949027EB2CF12C80E00E949F049701FF
:1017200026523A4F4901F901808380E00E949F04CC
:10173000C82ED12CE12CF12CFE2CED2CDC2CCC2451
:1017400080E00E949F04C82AFE2CED2CDC2CCC24C7
:1017500080E00E949F04C82AFE2CED2CDC2CCC24B7
:1017600080E00E949F04C82A8B2D0E9487270115C4
:10177000110529F0F801C082D182E282F382F401DE
:1017800080810F90DF91CF911F910F91FF90EF908B
:10179000DF90CF90BF909F908F900895CF93DF936D
:1017A00000D000D0CDB7DEB719821A821B821C820E
:1017B000AE014F5F5F4F61E00E945A0B89810F902D
:1017C0000F900F900F90DF91CF910895AF92BF923D
:1017D000CF92DF92EF92FF920F931F93CF93DF93FD
:1017E00000D000D0CDB7DEB7F89419821A821B82E0
:1017F0001C82AE014F5F5F4F60E080E00E945A0B99
:1018000019810A81FB80EC8080E00E94CE0BEF9270
:10181000FF920F931F931F928F9306E117E0F80139
:1018200083818F9382818F9381818F9380818F9326
:101830008AEDE82E85E0F82EF70180811F928F93C4
:1018400082E191E09F938F930E944D0519821A8245
:101850001B821C82AE014F5F5F4F60E081E00E94FF
:101860005A0BD980CA80BB80AC8081E00E94CE0B2D
:10187000AF92BF92CF92DF921F928F93F801878130
:101880008F9386818F9385818F9384818F93F701C6
:1018900081811F928F938EEE90E09F938F930E9491
:1018A0004D0578940FB6F894DEBF0FBECDBF80E033
:1018B0000F900F900F900F90DF91CF911F910F918C
:1018C000FF90EF90DF90CF90BF90AF9008951F935F
:1018D000CF93DF9300D000D01F92CDB7DEB7182F83
:1018E0008CE58CBD1DBC812F2D833C834B835A839B
:1018F00069830E9490276981862F0E949F045A81E4
:10190000852F0E949F044B81842F0E949F043C815D
:10191000832F0E949F042D81822F0E949F04812F7C
:101920000E94872780E00F900F900F900F900F90EC
:10193000DF91CF911F91089599E0899FF0011124C3
:10194000EC5FFA4F6683462F660F550B660B770BDD
:10195000332722276DEE0C94670CCF92DF92EF9223
:10196000FF921F93CF93DF93182F603218F0669584
:1019700020E001C021E0822F90E0A0E0B0E06C0107
:101980007D0181E1CC0CDD1CEE1CFF1C8A95D1F79A
:1019900089E0189FE0011124CC5FDA4F888199819A
:1019A000AA81BB81AD7FA7019601282B392B4A2B39
:1019B0005B2B288339834A835B836C836D836CEE56
:1019C000812F0E94670C2C812F71822F90E0A0E064
:1019D000B0E0AF604D814F7150E0542F4427052E89
:1019E000000C660B770B9A01AB01282B392B4A2B85
:1019F0005B2B60E9812FDF91CF911F91FF90EF90DA
:101A0000DF90CF900C94670C29E0829FC0011124D5
:101A1000FC01EC5FFA4F40815181628173818581C5
:101A200061FF880F0895FF920F931F93CF93DF9369
:101A300000D000D0CDB7DEB7F82E83ED90E0A3E064
:101A4000B4E189839A83AB83BC8329E0F29E800151
:101A500011240C5F1A4FF80180839183A283B38312
:101A600080E18483858383E086838CED95E0908795
:101A7000878323ED30E043E054E16CEE8F2D0E942C
:101A8000670CAE014F5F5F4F6CE68F2D0E945A0BC3
:101A9000F801408151816281738189819A81AB8192
:101AA000BC81481759076A077B0771F520E030E0D1
:101AB000A90161E98F2D0E94670CF8012681822F10
:101AC000220F990BAA0BBB0BDC01992788279C01DD
:101AD000AD0151606DEE8F2D0E94670CF8012781DA
:101AE000308540E050E064E98F2D0E94670C20E8CB
:101AF00031E340E050E060E88F2D0E94670C8F2DAD
:101B00000E94CE0B80E001C08FEF0F900F900F90DE
:101B10000F90DF91CF911F910F91FF900895109238
:101B2000FE051092F9058091010580FD04C0109218
:101B3000FB051092FA0581FD04C01092FD0510927C
:101B4000FC0508951F920F920FB60F9211242F9348
:101B50008F939F93EF93FF932091CE0080916A041F
:101B600090916B04E82FF0E0E359FB4F20838F5FE7
:101B700020916904821708F080E0891719F080939A
:101B80006A0418C0F894ECEAF0E08BE18E0F9091B3
:101B9000C80095FFFCCF94919093CE009091C8001F
:101BA00096FFFCCF31968E13F2CF789410926A0490
:101BB00010926B04FF91EF919F918F912F910F9055
:101BC0000FBE0F901F9018951F920F920FB60F9295
:101BD00011248F939F93AF93BF9386B58A5F86BD81
:101BE00078948091880590918905A0918A05B0919B
:101BF0008B050196A11DB11D8093880590938905E1
:101C0000A0938A05B0938B05BF91AF919F918F915F
:101C10000F900FBE0F901F901895CF93DF9300D0B9
:101C20001F92CDB7DEB7BE016D5F7F4F8091A405D7
:101C30009091A5050E94BB058093480487FD42C092
:101C40009B81993210F08CEF3DC02091A40530911A
:101C5000A505A901480F511D87FD5A95CA0150934A
:101C6000A5054093A405BE016E5F7F4F0E94BB0592
:101C70008093480487FD26C09A81953120F72091F2
:101C8000A4053091A505A901480F511D87FD5A955E
:101C9000CA015093A5054093A405BE016F5F7F4F15
:101CA0000E94BB058093480487FD0CC08981853163
:101CB00050F69B81909394059A819093950580931B
:101CC000960580E00F900F900F90DF91CF910895CF
:101CD000DF92EF92FF920F931F93CF93DF93CDB7D5
:101CE000DEB762970FB6F894DEBF0FBECDBFD090BF
:101CF000A605E090A405F090A505BE016F5F7F4F9B
:101D0000C7010E94980587FD9DC08701080F111D1E
:101D100087FD1A95F8019081992341F0BE016D5F0E
:101D20007F4FC8010E94980587FD8CC0080F111DC8
:101D300087FD1A95F8019081992341F0BE016B5FF0
:101D40007F4FC8010E94980587FD7CC0080F111DB8
:101D500087FD1A95F8019081992341F0BE01695FD2
:101D60007F4FC8010E94980587FD6CC0080F111DA8
:101D700087FD1A95F8019081992341F0BE01675FB4
:101D80007F4FC8010E94BB0587FD5CC0080F111D75
:101D900087FD1A95F80190819923E1F0CE014196D3
:101DA0009F938F9307979F938F9381EB91E09F93DE
:101DB0008F931F930F930E947C2E0FB6F894DEBF73
:101DC0000FBECDBF019721F4898987FF03C03AC0B8
:101DD0008DEF38C0080F111D87FD1A95F80180811D
:101DE000811105C0802F8E1987FF0AC02BC0BE014C
:101DF000655F7F4FC8010E94980587FFF3CF22C01F
:101E000011E0F7EADF1210E0BE016F5F7F4F812F14
:101E10000E94D5258091EB049091EC04A091ED04F3
:101E2000B091EE04111102C0806201C08064809301
:101E3000EB049093EC04A093ED04B093EE040E94A5
:101E4000FE2880E062960FB6F894DEBF0FBECDBFCD
:101E5000DF91CF911F910F91FF90EF90DF90089548
:101E6000CF93DF9300D01F92CDB7DEB7BE016D5F79
:101E70007F4F8091A4059091A5050E94BB0580939A
:101E8000480487FD2FC02091A4053091A505A90124
:101E9000480F511D87FD5A95CA015093A5054093DF
:101EA000A4051A821982FA01208121110DC08981AD
:101EB0009A8190939A05809399059B81809103055F
:101EC000992361F082600BC0BE016F5F7F4F0E945B
:101ED00098058093480487FFEACF04C08D7F0E9455
:101EE000DD2980E00F900F900F90DF91CF91089542
:101EF0000F931F93CF93DF9300D000D0CDB7DEB701
:101F0000BE016D5F7F4F8091A4059091A5050E9451
:101F100098058093480487FD31C02091A405309135
:101F2000A505A901480F511D87FD5A95CA01509377
:101F3000A5054093A405BE016F5F7F4F0E949805E1
:101F40008093480487FD1AC06B817C81CB01409748
:101F50008937934190F409811A81013187E218078A
:101F600060F480E090E00E94D9300E94BF06109398
:101F700087050093860580E001C08CEF0F900F90DD
:101F80000F900F90DF91CF911F910F910895CF92F5
:101F9000DF92EF92FF92CF93DF9300D000D000D07A
:101FA000CDB7DEB7CE0105969F938F9304979F938D
:101FB0008F938BEA91E09F938F938091A5058F93E8
:101FC0008091A4058F930E947C2E0FB6F894DEBFFB
:101FD0000FBECDBF019711F48D8101C08DEF8093AD
:101FE000480487FD54C08091A605843A11F18F3AC8
:101FF00069F1823A09F046C0C980DA80EB80FC8042
:102000000E94C72781600E94B22780912905909184
:102010002A05A0912B05B0912C05B701A601481BFC
:10202000590B6A0B7B0B80E00E944E0A87FD2CC087
:1020300027C089819A81AB81BC81809329059093C7
:102040002A05A0932B05B0932C051AC049815A810B
:102050006B817C81413C34ED530731E063077105AE
:10206000ACF48091FF0582608093FF0570956095C8
:10207000509541955F4F6F4F7F4F80E00E944E0A11
:1020800080E005C08AEF03C08EEF01C08CEF26967A
:102090000FB6F894DEBF0FBECDBFDF91CF91FF909A
:1020A000EF90DF90CF9008950F931F93CF93DF931E
:1020B00000D0CDB7DEB7BE016F5F7F4F8091A40522
:1020C0009091A5050E9475058093480487FD36C050
:1020D0008091A605833A89F0853A69F589819A81CC
:1020E000092E000CAA0BBB0B80934E0590934F0555
:1020F000A0935005B09351051CC009811A810E941C
:10210000C72782600E94B227A801110F660B770BC8
:1021100080914E0590914F05A0915005B0915105C9
:10212000481B590B6A0B7B0B81E00E944E0A87FD0E
:1021300004C080E003C08AEF01C08EEF0F900F90C3
:10214000DF91CF911F910F9108950F931F93CF931C
:10215000DF9300D0CDB7DEB7BE016F5F7F4F8091B8
:10216000A4059091A5050E9498058093480487FDD9
:1021700084C08091A6058C3BA9F188F48E38E1F0EB
:102180008F3809F077C049815A8160E070E070951E
:102190006095509541955F4F6F4F7F4F11C08D3BBC
:1021A00009F45FC08E3B09F065C089819A819093E4
:1021B0002107809320070BC049815A8160E070E0BD
:1021C00080E00E944E0A87FF0BC08EEF56C08091C0
:1021D000200790912107892B19F00E948818F7CFCA
:1021E00080E04BC009811A81011524E0120708F034
:1021F00043C080E090E10E94571BC80124E09695FF
:1022000087952A95E1F72091DC053091DD0544E0C2
:10221000369527954A95E1F7821B930B81329105FC
:102220003CF020E430E0A901481B590BCA0106C06C
:10223000803E5FEF950714F4805C9F4F082F880F56
:10224000110B1F930F938BE991E09F938F930E9443
:102250004D05C8010E9419270F900F900F900F9005
:102260000CC089819A81811524E0920728F40E948C
:10227000EF1703C08AEF01C08CEF0F900F90DF9132
:10228000CF911F910F910895CF93DF9300D01F92AC
:10229000CDB7DEB7CE0101969F938F9302969F93A1
:1022A0008F9381EB91E09F938F938091A5058F93FE
:1022B0008091A4058F930E947C2E0FB6F894DEBF08
:1022C0000FBECDBF019711F4898101C08DEF8093BE
:1022D000480487FD35C08091A605883AF1F050F496
:1022E000893991F08A3959F58B818093E50580E031
:1022F00092E00FC0823CA9F0833CD1F0893AF9F416
:102300008B810E9428181CC08B818093E40580E299
:1023100090E00E94571B80E013C08B810E945818E8
:102320000FC08B81082E000C990B0E94192708C042
:102330008B81082E000C990B0E94D72601C08AEFD2
:102340000F900F900F90DF91CF9108951F93CF932F
:10235000DF931F92CDB7DEB7BE016F5F7F4F8091D5
:10236000A4059091A5050E94BB058093480487FDB4
:102370000DC18091A605853809F49BC0D8F4803141
:1023800009F44FC040F48D30C9F18F30C9F18C3061
:1023900009F0E5C02CC0813409F459C020F4813122
:1023A00009F44AC0DCC0823809F47CC0833809F4DF
:1023B00070C0D5C08A3A09F48AC050F4853909F44E
:1023C00054C0863909F45AC08A3809F0C8C046C0DA
:1023D000813B09F483C020F48D3A09F49CC0BFC04E
:1023E000883B09F482C0843C09F4B3C0B8C0898139
:1023F000843008F0C8C00E94B227C3C0898162C07F
:102400008981843008F0BFC090E1899F9001112438
:1024100090911E079F70292B20931E070E949927D9
:10242000B0C08981843008F0AEC090911E07907FC3
:10243000892B80931E07A5C08981843008F0A3C032
:1024400090919205907F892B809392059AC0898103
:10245000893008F098C00E94BD1A93C089818031EC
:1024600008F091C00E94C5298CC08981803408F091
:102470008AC08093E60580E190E008C089818034BD
:1024800008F081C08093E70580E091E00E94571B2F
:1024900078C01981111103C080E00E94F7291093C0
:1024A00024076FC08981843008F06DC080938C054B
:1024B00068C09981923008F066C080910305992325
:1024C00021F084600E94DD295CC08B7FFBCF898175
:1024D000823008F058C08093AA0553C089818531A5
:1024E00008F051C0809393054CC089818B3F08F060
:1024F0004AC080939805882321F08A3F31F4589A86
:1025000001C0589884B58F7C04C08A5F88BD84B5AB
:10251000806284BD36C099819230A8F580910B010C
:10252000992369F0846080930B0188E090E00E9419
:10253000571B8091FF0581608093FF0522C08B7F30
:1025400080930B0188E090E00E94571B1092FF05DA
:1025500018C089818031B8F480930D0112C0813B8D
:1025600051F0893B29F0823481F4E7E4F4E005C0BE
:10257000ECE0F1E002C0E3E9F5E0309731F0898169
:10258000808380E003C08CEF01C08AEF0F90DF9161
:10259000CF911F9108958091EA040E94FC058091DB
:1025A000E9040E94FC0580E008958091030586956A
:1025B00081700E94FC058091990590919A05009781
:1025C00011F00E94ED0580E00895109246041092EB
:1025D0004504809145049091460420911E07237084
:1025E000822B90934604809345048091A7058F3FEA
:1025F00021F085E090E00E94571B2091000527FD07
:1026000009C08091450490914604806490934604EB
:102610008093450425FD09C08091450490914604AE
:10262000806890934604809345048091FF0487FD61
:1026300009C08091450490914604916090934604AE
:102640008093450480919F05882349F0809145043B
:102650009091460490629093460480934504809143
:10266000A705823039F481E080938C0583E0809364
:10267000A7050DC08091A7058F3F49F480914504BF
:10268000909146049068909346048093450485E0B9
:102690008093230780910006882349F080914504A8
:1026A00090914604906490934604809345048091F1
:1026B0004504909146040E94ED0580E008958FEF57
:1026C00093E00E941E2F90E001972AE0AC01249F26
:1026D000C001259F900D11240E94ED0580E0089512
:1026E0000F931F93CF93DF9380911206E09113070E
:1026F000E81B8A3010F4982F01C09AE0891B809360
:102700001206C92FCE0F03E911E0EC1791F0D1E0CA
:10271000DE0FF0E0ED5EF94F80811F928F931F93E3
:102720000F930E9461050F900F900F900F90ED2F67
:10273000ECCF80E0DF91CF911F910F910895E6E1FA
:10274000F5E086898F9385898F9384898F93838918
:102750008F938EE891E09F938F930E9461050F9075
:102760000F900F900F900F900F9080E008958FE3DF
:1027700091E09F938F9381E08F938AEA8F931F92CA
:102780008BE08F931F9289E08F931F921F9280E4BA
:1027900091E09F938F930E9461058DB79EB70C9631
:1027A0000FB6F8949EBF0FBE8DBF80E00895E8E994
:1027B000F5E086818F9385818F9384818F938381C8
:1027C0008F938AE391E09F938F930E9461050F900E
:1027D0000F900F900F900F900F9080E00895CF937F
:1027E000DF93CDB7DEB760970FB6F894DEBF0FBEAC
:1027F000CDBF81E09091A605973A09F080E0BE0137
:102800006F5F7F4F0E944326CE0101960E940B0608
:1028100080E060960FB6F894DEBF0FBECDBFDF91AB
:10282000CF91089580914E0590914F050E94DE054D
:1028300080E00895EFEEF4E0808120E1829FC00106
:102840001124992721812F70822B9F938F931F92A0
:1028500086E08F9387E891E09F938F930E94562E96
:102860000F900F900F900F900F900F9080E00895B1
:10287000CF92DF92FF920F931F93CF93DF93CDB749
:10288000DEB760970FB6F894DEBF0FBECDBF22E76C
:1028900031E08E010F5F1F4FD80141E290E1F92E28
:1028A000F00EF9018491E82FF0E0409357008491F5
:1028B0008D932F5F3F4FFA12F4CF82E8C82E81E04C
:1028C000D82EF80181918F01282F082E000C330B90
:1028D0003F938F93DF92CF920E94562E0F900F90CE
:1028E0000F900F90F012EDCF80E060960FB6F89445
:1028F000DEBF0FBECDBFDF91CF911F910F91FF9033
:10290000DF90CF900895AF92BF92DF92EF92FF9247
:102910000F931F93CF93DF93CDB7DEB760970FB6BA
:10292000F894DEBF0FBECDBF8091EF048F3F49F416
:102930008EE691E09F938F930E94562E0F900F90FA
:102940003FC08E010F5F1F4F80E1F80111928A9501
:10295000E9F744E050E062EF74E0C8010E948B3177
:102960007E01F6E0EF0EF11C43E050E066EF74E00C
:10297000C7010E948B31D090F904DA865E018BE0AA
:10298000A80EB11C45E050E06AEF74E0C5010E945A
:102990008B31BF92AF928D2D0D2C000C990B9F9314
:1029A000DF92FF92EF921F930F938BE591E09F933D
:1029B0008F930E94562E0FB6F894DEBF0FBECDBF88
:1029C00080E060960FB6F894DEBF0FBECDBFDF91FA
:1029D000CF911F910F91FF90EF90DF90BF90AF903C
:1029E00008950F931F93CF93DF930E94FF040097E6
:1029F00059F0EC018C01085F1F4F899199910E9459
:102A0000ED05C017D107C9F780E0DF91CF911F9185
:102A10000F9108950F931F93CF93DF930E94FF04AC
:102A2000009759F0EC018C01085F1F4F8991999133
:102A30000E94DE05C017D107C9F780E0DF91CF9172
:102A40001F910F9108950F931F93CF93DF930E94CF
:102A5000FF04009751F0EC018C010C5F1F4F89912E
:102A60000E94FC05C017D107D1F780E0DF91CF911C
:102A70001F910F9108950E94FF04009721F0FC011F
:102A8000808191811AC08091A6058C3B59F08D3BC5
:102A900091F480E090E20E94571B8091DE059091B6
:102AA000DF050BC080E090E10E94571B8091DC05A0
:102AB0009091DD0502C080E090E00E94ED0580E08D
:102AC00008950E94FF04009721F0FC01808191810C
:102AD00002C080E090E00E94DE0580E008950E9440
:102AE000FF04009719F0FC01808101C080E0282FCD
:102AF000082E000C330B3F938F9386E391E09F9356
:102B00008F930E9461050F900F900F900F9080E0BF
:102B100008950E94FF04009719F0FC01808153C0C2
:102B20008091A6058539B1F198F48F3049F140F4D0
:102B3000813009F18C3009F045C00E94C72743C09D
:102B4000813121F100F18538E9F58091030530C02C
:102B50008D3A51F140F4893909F18A3911F18639F8
:102B600089F581E018C0883C39F1893C39F18E3A09
:102B700049F58CB11DC080919F0510929F0523C01F
:102B80000E94A82720C080911E0702C08091920554
:102B90008F7019C080E00E94040D15C080910A0555
:102BA00012C0809113050FC08091FF0581700BC08A
:102BB00082FB882780F907C080E001C081E00E9485
:102BC000602501C080E00E94FC0580E00895E0914E
:102BD000A405F091A50590812EEB290F253008F072
:102BE00047C02091A605223E61F1233EB1F0213E6F
:102BF000D9F5943461F018F4933439F004C0953465
:102C000041F0963441F085B12FC088B12DC08BB111
:102C10002BC08EB129C081B327C0943461F018F461
:102C2000933439F004C0953441F0963441F083B1C7
:102C30001BC086B119C089B117C08CB115C08FB146
:102C400013C0943461F018F4933439F004C095340F
:102C500041F0963441F084B107C087B105C08AB114
:102C600003C08DB101C080B30E94FC0580E00895CF
:102C70008CEF08951F93CF93DF93CDB7DEB76197A5
:102C80000FB6F894DEBF0FBECDBF1091A605BE01F2
:102C90006F5E7F4F8091A4059091A5050E94BB05B2
:102CA0008093480487FD1CC029892830C0F4173A56
:102CB00019F480E092E002C080E091E040E1BE01C2
:102CC0006F5F7F4F30E1239F800D911D11240E9483
:102CD000A329CE0101960E940B0680E001C08CEF73
:102CE00061960FB6F894DEBF0FBECDBFDF91CF91D6
:102CF0001F9108951F93CF93DF931F92CDB7DEB737
:102D0000E091A405F091A50510812EEB210F25304F
:102D100008F057C0CF0101969093A5058093A405B4
:102D2000BE016F5F7F4F0E94BB058093480487FD03
:102D30004BC08091A605823E79F1833EC1F0813E71
:102D400009F041C08981143461F018F4133439F06A
:102D500004C0153441F0163441F085B934C088B947
:102D600032C08BB930C08EB92EC081BB2CC08981D6
:102D7000143461F018F4133439F004C0153441F000
:102D8000163441F083B91FC086B91DC089B91BC074
:102D90008CB919C08FB917C08981143461F018F447
:102DA000133439F004C0153441F0163441F084B9BD
:102DB0000AC087B908C08AB906C08DB904C080BBF3
:102DC00002C08CEF01C080E00F90DF91CF911F9186
:102DD00008956AEE74E08091A4059091A5050E9483
:102DE000BB058093480487FD2AC02091A40530913B
:102DF000A505A901480F511D87FD5A95CA01509399
:102E0000A5054093A40569EE74E00E94BB0580937C
:102E1000480487FD14C08091EB049091EC04A091CC
:102E2000ED04B091EE0490628093EB049093EC0477
:102E3000A093ED04B093EE040E94FE2880E0089574
:102E4000CF93DF931F92CDB7DEB7BE016F5F7F4F89
:102E50008091A4059091A5050E94BB05809348042C
:102E600087FD10C08981823060F4882329F0EE9AB2
:102E700081E08093D90503C0EE981092D90580E0D7
:102E800001C08CEF0F90DF91CF910895CF93DF9326
:102E90001F92CDB7DEB7BE016F5F7F4F8091A40553
:102EA0009091A5050E94BB058093480487FD21C031
:102EB0002091A4053091A505A901480F511D87FD5A
:102EC0005A955093A5054093A4058981813041F41A
:102ED00010929B0510929C0510929D0510929E05E4
:102EE00044E050E06BE975E086E190E00E946828DC
:102EF00080E00F90DF91CF910895CF93DF9300D0C2
:102F0000CDB7DEB7BE016F5F7F4F8091A405909172
:102F1000A5050E9475058093480487FD22C089811C
:102F20009A819C012F5F3F4F21303140C8F490932C
:102F30000701809306018091EB049091EC04A0912D
:102F4000ED04B091EE0494608093EB049093EC0454
:102F5000A093ED04B093EE040E94FE2880E001C02F
:102F60008CEF0F900F90DF91CF910895CF93DF9367
:102F700000D0CDB7DEB7BE016F5F7F4F8091A40553
:102F80009091A5050E9475058093480487FD22C095
:102F900089819A819C012F5F3F4F21343105C8F40C
:102FA00090930901809308018091EB049091EC04C7
:102FB000A091ED04B091EE0492608093EB049093A5
:102FC000EC04A093ED04B093EE040E94FE2880E090
:102FD00001C08CEF0F900F90DF91CF910895CF93A8
:102FE000DF93EC0180E090E20E94571BCE019695A2
:102FF0008795969587952091DE053091DF0536956A
:10300000279536952795821B930B813891053CF0C7
:1030100020E031E0A901481B590BCA0105C08038E6
:103020005FEF95070CF49395C82F880FDD0BDF93A6
:10303000CF9386E592E09F938F930E944D050F906A
:103040000F900F900F90CE01DF91CF910C94D72667
:10305000CF93DF93CDB7DEB760970FB6F894DEBF9E
:103060000FBECDBF8F3F19F48093100115C088307B
:10307000A8F48093100120E18202C001112440E1F4
:10308000BE016F5F7F4F9E5F0E94A329BE016F5FED
:103090007F4F81E00E94D52580E001C08CEF6096D3
:1030A0000FB6F894DEBF0FBECDBFDF91CF9108956C
:1030B000CF93DF93CDB7DEB760970FB6F894DEBF3E
:1030C0000FBECDBF8F3F19F48093110115C088301A
:1030D000A8F48093110120E18202C001112440E193
:1030E000BE016F5F7F4F93950E94A329BE016F5F62
:1030F0007F4F80E00E94D52580E001C08CEF609674
:103100000FB6F894DEBF0FBECDBFDF91CF9108950B
:103110000F931F93CF9380918D058823D9F085302D
:10312000A1F038F4833071F0843009F022C285E0D8
:103130000CC0873069F040F0883009F01AC2109254
:103140008D0517C284E001C087E080938D0511C210
:1031500088E0FBCF8091010118160CF01BC1833071
:1031600009F46AC02CF4813051F0823079F112C137
:10317000843009F457C0853009F402C10BC11092A4
:1031800058048091290590912A05A0912B05B091B2
:103190002C058093540490935504A0935604B09347
:1031A000570480E00E9458180E94C72781600E943F
:1031B000B2278091920581608093920540E859EA98
:1031C00063E070E080E00E944E0A91C080911E078B
:1031D00080FDE0C08091530480FF2CC02FEF81EE72
:1031E00094E0215080409040E1F700C000008091C1
:1031F000290590912A05A0912B05B0912C0580936B
:10320000540490935504A0935604B093570440E09F
:1032100058EF6FEF7FEF80E00E944E0A83E08093CB
:103220000101B8C080911E0780FDB4C08091530495
:1032300080FD36C08EEFF3CF80911E0780FDAAC0BF
:103240008091530480FD9AC08091290590912A05B0
:10325000A0912B05B0912C058093540490935504B4
:10326000A0935604B093570481E00E9458188091AF
:10327000290590912A05A0912B05B0912C058093EA
:10328000540490935504A0935604B093570440E01F
:1032900058E160E070E080E00E944E0A84E0BFCF19
:1032A0004091290550912A0560912B0570912C05BC
:1032B0008091540490915504A0915604B091570404
:1032C000481B590B6A0B7B0B80915804813089F0A5
:1032D0008230B9F081115EC08091040190910501A6
:1032E00097FD02C082E001C081E08093580482E033
:1032F00096CF509305014093040182E080935804D7
:103300008ECF80910401909105018C010058110924
:10331000012E000C220B330B401751076207730775
:1033200038F180589F4F092E000CAA0BBB0B841755
:103330009507A607B707E0F080E00E945818809133
:10334000290590912A05A0912B05B0912C05809319
:10335000540490935504A0935604B093570440E04E
:103360005CEF6FEF7FEF80E00E944E0A85E057CF61
:103370008FEF9FEF90930501809304018DEF4FCF66
:1033800080911E0780FD06C08091530480FDF6CF1A
:10339000109201018091000118160CF05BC084307E
:1033A00051F12CF4813041F08330C1F053C08530AD
:1033B00079F18630E9F14EC00E94C72782600E94F1
:1033C000B22780E00E94281881E090E00E94571BFD
:1033D0008091FF0487FF0DC083E03AC080911E07F3
:1033E00081FD38C040E05EEC6FEF7FEF81E00E942E
:1033F0004E0A84E02DC080911E0781FD2BC040E065
:1034000052E060E070E081E00E944E0A85E020C05A
:1034100080911E0781FD1EC081E00E94281840E0B7
:103420005CEF6FEF7FEF81E00E944E0A86E010C0F4
:1034300080911E0781FD0EC081E090E00E94571B25
:103440008091FF0487FD03C01092000103C08EEF3E
:1034500080930001F894C091E8051092E8057894F3
:10346000CC2309F486C0C0FF10C08091F105909173
:10347000F20562E172E096958795969587950E9490
:103480002C2A90934B0480934A04C1FF0AC0809178
:10349000F3059091F4050E942E2890934D0480939B
:1034A0004C04C2FF0AC08091F5059091F6050E9478
:1034B0002E2890934F0480934E04C3FF0AC080913E
:1034C000F7059091F8050E942E289093510480935F
:1034D0005004C4FF0AC08091E9059091EA050E945A
:1034E00036289093130180931201C5FF0AC0809182
:1034F000EB059091EC050E9436289093150180937E
:103500001401C6FF0AC08091ED059091EE050E945E
:1035100036289093170180931601C7FF2AC0209187
:10352000EF053091F0053695279536952795AAEB4E
:10353000B3E10E94AC2FDC01CB012AE0B695A79540
:10354000979587952A95D1F79C01AD01442755277A
:10355000A8E3BAE10E94BB2FDC01CB013AE0B695AB
:10356000A795979587953A95D1F7909319018093F0
:103570001801CF911F910F910895CF93C82F8E30CE
:1035800038F425E0829FC001112484539E4F02C06D
:1035900088EB91E09F938F931F92CF938DEB91E0F7
:1035A0009F938F930E944D05C09349040F900F90F5
:1035B0000F900F900F900F90C130C1F40FB6F89498
:1035C000A8958091600088618093600010926000EF
:1035D0000FBEF89481E00E94F0060E944E068FE034
:1035E0009EE00197F1F700C00000F7CFC93038F432
:1035F0008FEF8093A7058C2FCF910C94F006CF917D
:103600000895BF92CF92DF92EF92FF920F931F9394
:10361000CF93DF9300D000D0CDB7DEB7B82E11E046
:1036200001C0110F8A95EAF7F89400E1C12CD12C62
:103630007601812F0E9480278BE99FE00197F1F7A7
:1036400000C00000812F0E94802719821A821B82ED
:103650001C82AE014F5F5F4F62E18B2D0E945A0BBF
:1036600049815A816B817C816F707727C40ED51E8A
:10367000E61EF71E8BE99FE00197F1F700C00000FE
:103680000150B9F67894C60124E0969587952A955D
:10369000E1F70F900F900F900F90DF91CF911F9156
:1036A0000F91FF90EF90DF90CF90BF900895F89426
:1036B0002091670430916804282B392B30936804DB
:1036C000209367047894209167043091680428233C
:1036D0003923232BC1F70895F89420916704309182
:1036E0006804822B932B90936804809367047894EA
:1036F0000895CF93DF93CDB7DEB761970FB6F894F7
:10370000DEBF0FBECDBF84B780939F0514BE8091EE
:103710009F0583FF11C08091000990910109853AAE
:103720009A4551F480919F05877F80939F058091F2
:103730009F05806880939F058AE595EA909301092B
:10374000809300099FB7F894A89584B7877F84BFBA
:1037500018E110936000109260009FBF8FE00FB6D9
:10376000F894A895109360000FBE809360001092AB
:10377000D7001092D80095E19093C5008093C600C1
:1037800080E88093610010926100789481E00E944B
:10379000F7298091C80082608093C80080E18093FF
:1037A000CC001093C9008091C90080688093C90043
:1037B0008CE78093690410926A0410926B0489E587
:1037C00094E02EEB34E0309362042093610425EA08
:1037D00034E0309364042093630423E020935C047A
:1037E00010926604109265045A9A90932D07809364
:1037F0002C0790932F0780932E079093AC0580930E
:10380000AB059093A9058093A8059093A10580939B
:10381000A0058CE792E09F938F930E94562E809193
:103820009F051F928F938EE692E09F938F930E9445
:103830004D0580917100817F8093710010929000FE
:103840008AE0809391001092990010929800109253
:103850009B0010929A0010929D0010929C00109272
:103860009500109294003E9A46980F900F900F90FA
:103870000F900F900F908091EF048F3F09F44BC091
:1038800044E06BE975E086E190E00E94A329809115
:103890009B0590919C05A0919D05B0919E058F3F41
:1038A0009F4FAF4FBF4F79F410929B0510929C052C
:1038B00010929D0510929E0544E06BE975E086E14B
:1038C00090E00E94682800E011E040E1BE016F5FD7
:1038D0007F4FC8010E94A32989819A8181329E4429
:1038E000D0F48B819C8181329E44A8F48D819E818D
:1038F0000C978D34924078F48F8198850C978D3495
:10390000924048F48985803430F48B859C858938D1
:10391000934108F433C38FEF9FEF90930901809395
:10392000080190930701809306018FEF9FEFDC0160
:103930008093EB049093EC04A093ED04B093EE0419
:103940000E94FE28E0ECF6E6459155916591749150
:1039500080E090E0DC01E0E0F0E026E6E03CF20709
:1039600051F09F012F5F3F4FE4918E0F911DA11DDC
:10397000B11DF901F2CF481759076A077B0709F013
:1039800048C080E090E0DC01E0E0F0E79F012F5FBD
:103990003F4FE4918E0F911DA11DB11DF901203FF4
:1039A0003F47A1F786369D49A740B10509F06EC390
:1039B000AFEEB4E0E0EFFFE784918D933196E1152F
:1039C00080E8F807C9F7EFEEF4E0CF01805F91914E
:1039D0009F3F19F49093EF0402C08E13F8CF89E053
:1039E000E0E0F0E080935700E491EE3509F050C339
:1039F000E3E0F0E080935700E491E83D09F048C32C
:103A0000E2E0F0E080935700E491E83C09F040C325
:103A1000E9C281E00E94BD1A84B1817F84B984B17A
:103A2000876084B985B1817F85B9289A80E58CBD8E
:103A30001DBC8AB182618AB98BB182618BB9AFE357
:103A4000BCE91197F1F700C00000249A2C9A2C9839
:103A50002C9A60E880E00E94102A60EE81E00E94CB
:103A6000102A6AE882E10E94102A60EE83E10E9437
:103A7000102A80E00E94FE29803809F0BEC281E051
:103A80000E94FE29803E09F0B8C282E10E94FE2910
:103A90008093FF0483E10E94FE298093000590E05B
:103AA00080919F058E7F81F48091000587FF0CC077
:103AB00086E692E09F938F930E944D0580E00E94DE
:103AC000F7290F900F90FFCF9F3F19F486E00E94D7
:103AD000BD1A109202051092010580917A0087604C
:103AE00080937A0080917C00806480937C00809138
:103AF0007A00806880937A0013E010937E000E9421
:103B00008F0D279A209A559A509A2F9A289A5D9A43
:103B1000589A81E08093030580938C058AEF809307
:103B2000980584E18093940580939505809396058C
:103B30008093970580939305259A269A2D982E9821
:103B400056985798519A549A599A5C9A80E00E94D4
:103B5000130D082F001F0027001F81E00E94130D86
:103B600087FD02C0002321F087E00E94BD1AD0C06B
:103B70008091040590910505A0910605B091070577
:103B8000B07F9C01AD01546020930405309305057E
:103B900040930605509307056CEE80E00E94670C89
:103BA00080910D0590910E05A0910F05B091100523
:103BB000B07F9C01AD01526020930D0530930E053E
:103BC00040930F05509310056CEE81E00E94670C46
:103BD00068E180E00E94AD0C66E080E00E949C0CF1
:103BE00068E181E00E94AD0C68E081E00E949C0CDD
:103BF000BFEF20E742E0B15020404040E1F700C075
:103C0000000005E2E6E1F5E0DF01202F1D922A9594
:103C1000E9F788E58093160580E293E09093180514
:103C20008093170580E8E82E8CE0F82EF0921A05B4
:103C3000E092190580EC94E490931C0580931B0599
:103C40008AEF90E090931E0580931D0590932005C8
:103C500080931F0580E00E94D40AEBE3F5E0DF01CA
:103C60001D920A95E9F789E580933B05F0923D05A1
:103C7000E0923C0580EC93E090933F0580933E05F5
:103C800080E095E090934105809340058CE090E0C2
:103C90009093430580934205909345058093440596
:103CA00081E00E94D40A809181008F7E8093810000
:103CB00080918100886080938100809180008D7F59
:103CC00080938000809180008E7F8093800080911F
:103CD00080008F7380938000809180008F7C809320
:103CE000800080918100887F82608093810080E0E5
:103CF00092E0909389008093880010928500109242
:103D0000840080916F00826080936F001093920511
:103D100080B38F7880BB81B3806781BB879A8091A5
:103D20000B01877E80930B0188E090E00E946C1B62
:103D30001092850560E070E08CED93E40E94BF0670
:103D400082E390E090938705809386051092880522
:103D50001092890510928A0510928B0583E084BD2C
:103D600085BD9DE797BD96E096BD80936E008091DE
:103D70006A008F7C80936A0080916A0080628093E1
:103D80006A008091A70581110DC00E94D627882363
:103D900021F088E00E94BD1A05C081E00E94D6276C
:103DA0008111F7CF8091A70581110DC00E94011BE1
:103DB00090938F0580938E0581E00E94011B909364
:103DC0009105809390058091A70581110AC082E03A
:103DD00080938C0598E090930C018093A705109236
:103DE0008D050CE515E0A8958091A2059091A3059D
:103DF000892B39F48DB79EB79093A3058093A205C4
:103E00001BC02091A2053091A3058DB79EB728173E
:103E1000390791F0F89498E088E10FB6F894A895E6
:103E2000809360000FBE9093600085EA9AE59093BE
:103E3000010980930009FFCF8091D7059091D805A3
:103E40008A97CCF08FEF22C08D30F1F08A30E1F00C
:103E50002091D7053091D805F901E355FA4F8083B9
:103E60008823A1F02F5F3F4F3093D8052093D705CB
:103E70002A3231055CF48091AB059091AC050E942B
:103E8000E02D87FFE1CF02C080E0E2CF2091D7058F
:103E90003091D8052A3231052CF03F932F931F9390
:103EA0000F935FC0121613060CF065C0811163C03A
:103EB0008091AA05882381F06091A8057091A905D9
:103EC0008DEA95E00E949A316091A8057091A9054C
:103ED0008AE090E00E941E2E3091AD05313219F03B
:103EE0003F3309F09FC0E091AE05EE2309F4A1C075
:103EF0008091B1058F7D09F082C02DE043E064EB35
:103F000073E08EEA95E0398B0E94270539898F3F4F
:103F100009F488C0E3E00E2E000CFF0BE255FA4FC7
:103F2000908191117DC09091A7059F3F09F483C0B6
:103F30008093A605313209F084C04DE068EE73E04D
:103F40000E940F05482F552741950CF450959A0172
:103F5000882309F469C083E595E03F932F939F93ED
:103F60008F930E9461051092D8051092D7050F908B
:103F70000F900F900F900E94881835CF005F1F4F51
:103F8000003851E0150709F0A0CC80E093E00E94D2
:103F9000262F909309018093080180E193E00E940D
:103FA000262F909307018093060182E093E00E9400
:103FB000262F909305018093040182E193E00E94F3
:103FC000262F909303018093020184E193E00E94E5
:103FD0001E2F8093EA0485E193E00E941E2F8093B8
:103FE000E904B0CCE1E0F0E08093570084918F7356
:103FF0008F3209F411CD85E00DCD9FEF51CD809129
:10400000B2058F7D79F42DE344E063E872E08EEA37
:1040100095E0398B0E94270539898F3F41F402C012
:104020009032A9F08DEF8ECF88E595E096CFE4E051
:1040300072CF80E070CF823008F47ACF813421F5DE
:1040400077CF3F3379F746E36FE074E079CF31966D
:104050009091A7059F3FC1F0803E20F09091A70569
:10406000943091F48093A605F093A505E093A40500
:10407000313221F441E361EB74E062CF3F3391F6DA
:1040800045E064E475E05CCF8BEF5CCF82E0C2CCAE
:1040900084E0C0CC1F920F920FB60F9211240F93A1
:1040A0001F932F933F934F935F936F937F938F93C0
:1040B0009F93AF93BF93EF93FF93CF93DF93CDB7CE
:1040C000DEB72597DEBFCDBF8091250790912607EB
:1040D0009C012F5F3F4F3093260720932507883E92
:1040E000934008F460C01092260710922507789438
:1040F00080912407882339F081508093240781110F
:1041000002C00E94F7298091A705833099F480911D
:104110002307882379F08091230781508093230718
:10412000811108C082E080938C0598E090930C0187
:104130008093A7058091000587FD17C08091220715
:104140008F5F80932207863090F060E070E08CE50E
:1041500093E40E94BF0684E690E0909387058093E5
:10416000860580E00E94F72902C01092220784E0B1
:1041700090E00E946C1B8091030581FF15C0809127
:104180009B0590919C05A0919D05B0919E0501967F
:10419000A11DB11D80939B0590939C05A0939D0547
:1041A000B0939E0501C07894809100099091010917
:1041B0008A35954A91F0F89498E088E10FB6F89422
:1041C000A895809360000FBE9093600085EA9AE501
:1041D0009093010980930009FFCF8091A7058F3F3D
:1041E00019F40E944E0652C48091990590919A0547
:1041F0000097A9F0019790939A0580939905892BD0
:1042000071F4809103058D7F8093030580910B01EC
:104210008E7F80930B0188E090E00E946C1B809160
:10422000200790912107892B49F0809120079091D8
:10423000210701979093210780932007809186059D
:1042400090918705009749F0019790938705809397
:104250008605892B11F41092900080911F0781111F
:104260000DC0809167049091680481689860909374
:104270006804809367048BE080931F0720911E07DA
:10428000822F837009F4BEC021FBEE27E0F98091F4
:104290001F07823009F041C00E94C72780FF1CC061
:1042A00040911607509117076091180770911907F0
:1042B000442755276627707E9091150741155105B3
:1042C0006105704621F4943138F49F5F03C099234F
:1042D00019F091509093150781FF96C040911A07ED
:1042E00050911B0760911C0770911D0744275527AB
:1042F0006627707E8091140741155105610570464F
:1043000029F4843108F080C08F5F04C0882309F449
:104310007BC081508093140777C0813009F074C04E
:10432000809116079091170793709A838983009163
:104330001A0710911B0713701C830B83A09113079E
:1043400031E03A0F30931307B0E0AD5EB94FF0E0C3
:10435000EE0FFF1FEC0FFD1F4181528156954795CF
:10436000569547954C93309112063F3F19F03F5FA9
:1043700030931206322F31713130E1F44091110146
:10438000411118C08097B0F48091320590913305A7
:10439000892B81F43093110660E070E08AE794E4A1
:1043A0002D830E94BF0684EF91E090938705809350
:1043B00086052D81822F8272823231F58091100123
:1043C000811118C000321105A8F480915705909111
:1043D0005805892B79F482E08093110660E070E043
:1043E0008AE794E40E94BF0684EF91E090938705EA
:1043F000809386058091FF0487FD06C082E080934C
:10440000110602C01092110680911F0781508093FF
:104410001F078091100690910F06811162C0409194
:104420002B0791110AC02091940520930A06209130
:10443000090640FB20F92093090620919505209359
:104440000B062091960520930C062091970520934A
:104450000D0650918C0520910706309108065130C9
:10446000D1F0F0F0523019F0533089F01BC0B9018F
:1044700014E0769567951A95E1F7213451E03507F8
:1044800018F058E2561B09C060930E060BC0213489
:1044900051E0350728F05091930550930E0602C065
:1044A00010920E0650910C01250F311D3093080615
:1044B000209307062138324020F01092080610920F
:1044C000070630910906317F242F2E704091030595
:1044D00040FD02C040E001C040E1232B242B20938B
:1044E000090620910A06291305C0209109062E7F8E
:1044F0002093090620910B06281305C02091090678
:104500002D7F2093090620910C06281305C02091C9
:1045100009062B7F2093090620910D06281305C05C
:1045200020910906277F2093090620910E06281363
:1045300005C0209109062F7E209309068F5F809386
:104540001006843110F01092100681E0890F8093DC
:104550000F06883210F010920F068091090682FF34
:1045600002C08F9801C08F9A8091090684FF02C013
:104570002F9A01C02F988091090620E1829FC001E7
:10458000112490910A019F70892B80930A0182E087
:1045900090E00E946C1B8091670490916804892BC5
:1045A00009F444C1809167049091680481FF0EC0B2
:1045B00060910A0182E10E94102A80916704909123
:1045C00068048D7F909368048093670480916704EA
:1045D0009091680483FF0BC060910B0183E10E94FE
:1045E000102A8091670490916804877F1BC1809195
:1045F00067049091680480FF0BC082E10E94FE294D
:104600008093FF0480916704909168048E7F0AC1B3
:10461000809167049091680482FF0BC083E10E943F
:10462000FE298093000580916704909168048B7F38
:10463000F9C0809167049091680484FF0BC0609179
:10464000E60580E00E94AD0C8091670490916804BB
:104650008F7EE8C0809167049091680485FF0BC04D
:104660006091E40580E00E949C0C80916704909129
:1046700068048F7DD7C0809167049091680486FF9D
:1046800014C02091E0053091E10530930C05209392
:104690000B0540E050E064E980E00E94670C8091E7
:1046A0006704909168048F7BBDC0809167049091EE
:1046B000680487FF1DC019821A821B821C82AE010A
:1046C0004F5F5F4F6FE680E00E945A0B89819A81AD
:1046D000AB81BC818093160790931707A0931807AE
:1046E000B093190780916704909168048F779AC0FE
:1046F000809167049091680490FF0BC06091E7057A
:1047000081E00E94AD0C80916704909168049E7FC7
:1047100089C0809167049091680491FF0BC06091FB
:10472000E50581E00E949C0C8091670490916804EB
:104730009D7F78C0809167049091680492FF14C0B7
:104740002091E2053091E30530931505209314057F
:1047500040E050E064E981E00E94670C80916704CA
:10476000909168049B7F5EC080916704909168047B
:1047700093FF1DC019821A821B821C82AE014F5FFB
:104780005F4F6FE681E00E945A0B89819A81AB816D
:10479000BC8180931A0790931B07A0931C07B093CA
:1047A0001D078091670490916804977F3BC08091BA
:1047B00067049091680494FF18C019821A821B82C2
:1047C0001C82AE014F5F5F4F6AE680E00E945A0B89
:1047D00089819A8193709093DD058093DC058091A7
:1047E0006704909168049F7E1DC08091670490913A
:1047F000680495FF1BC019821A821B821C82AE01BD
:104800004F5F5F4F6AE681E00E945A0B89819A816F
:1048100093709093DF058093DE05809167049091FB
:1048200068049F7D909368048093670480910606D6
:10483000882321F081508093060694C084E1809300
:1048400006068091FE0587FF83C08F70E82FF0E099
:1048500021E030E0082E02C0220F331F0A94E2F755
:10486000409101055091020524233523232B71F437
:104870002091780030917900EE0FFF1FE650FA4F3B
:1048800040815181240F351F31832083882309F40F
:1048900041C08091F9058F5F8093F9058430E0F184
:1048A00080918505282F30E0220F331FF901EF504A
:1048B000FA4F4091FA055091FB0551834083F9016D
:1048C000E751FA4F4091FC055091FD05518340831B
:1048D00021E130E0082E01C0220F0A94EAF79091FE
:1048E000E805292B2093E8058F5F182F137058E0F7
:1048F000159FC001112490910B01977E892B809305
:104900000B0188E090E00E946C1B109385050E94CB
:104910008F0D02C021E001C020E0922F80E041E035
:1049200050E0BA0163707727672B19F0992331F0B3
:1049300090E0440F551F8F5F803199F790917C0074
:104940008770987F892B80937C002093FE050AC096
:1049500080917A00806480937A008091FE0580685F
:104960008093FE052FB122952F7080910506822736
:1049700090910906892320930506909110069330A3
:10498000D8F0909101069F3F29F080FF03C09F5F00
:1049900090930106909102069F3F29F081FF03C08A
:1049A0009F5F90930206909103069F3F29F082FF3C
:1049B00003C09F5F9093030680910E0190910F01B9
:1049C000019790930F0180930E01892B09F050C03D
:1049D000809127076091010670E0680F711D769540
:1049E000679560932707809128074091020650E061
:1049F000480F511D569547954093280780912907E8
:104A00002091030630E0280F311D3695279520931D
:104A1000290710920106109202061092030688E5FB
:104A200092E090930F0180930E0190912B0790FFDD
:104A300007C0809194058A3018F081E0672B09F057
:104A400080E091FF07C060919505653018F0452B17
:104A500009F4826092FF07C090919605953018F096
:104A6000232B09F4846090910D0189238093000623
:104A70008091FF05833051F4629B08C081E08093F0
:104A8000FF0580911E078E7F80931E070F900F9069
:104A90000F900F900F90DF91CF91FF91EF91BF9109
:104AA000AF919F918F917F916F915F914F913F91C6
:104AB0002F911F910F910F900FBE0F901F9018957F
:104AC000EF92FF920F931F93CF93DF93D82F082F6E
:104AD00010E0980126523A4F7901F90180811F9226
:104AE0008F931F92DF938FEB95E09F938F930E949C
:104AF000562EF70180811F928F931F92DF9388EAD1
:104B000095E09F938F930E94562EF70180818370CA
:104B10002DB73EB7245F3F4F0FB6F8943EBF0FBE90
:104B20002DBF882311F0C0E801C0C0E0000F111FA5
:104B3000000F111FF801EA5EF84F80819181A28178
:104B4000B381B2FDC062B1FDC064D11111C08091CA
:104B500015071F928F9384E995E09F938F930E948E
:104B6000562E0F900F900F900F908091150712C046
:104B7000D13099F4809114071F928F9381E895E0CA
:104B80009F938F930E94562E0F900F900F900F902F
:104B900080911407843108F0C0618C2FDF91CF9190
:104BA0001F910F91FF90EF900895EF92FF921F9346
:104BB000CF93DF93182FEB01111142C080E890E0F2
:104BC0000E94571B8091160790911707A091180714
:104BD000B0911907B7FFF2CFE12EF12C85E2189FB3
:104BE000F0011124EA5EFA4F8881998194838383CE
:104BF0008A819B81968385838C819D819087878321
:104C00008E819F8192878187812F0E94D40A97018C
:104C1000F901EA51FA4F88858083F901EC51FA4F86
:104C200089858083220F331FF901E052FA4F8A856C
:104C30009B8591838083111115C080E790E016C099
:104C4000113009F0B9CF80E098E00E94571B8091A5
:104C50001A0790911B07A0911C07B0911D07B7FF81
:104C6000F2CFBACF113049F480E097E0DF91CF91D5
:104C70001F91FF90EF900C94571BDF91CF911F91E4
:104C8000FF90EF9008950F931F93CF93DF93EB0165
:104C9000082F10E095E2899FF0011124EA5EFA4F97
:104CA0002381348139832883258136813B832A837C
:104CB000278130853D832C83218532853F832E8358
:104CC0000E94040D888789E0809FF001819FF00D8C
:104CD0001124EC5FFA4F86818987878190859B87B5
:104CE0008A87DF91CF911F910F9108951F920F92A4
:104CF0000FB60F9211241092880510928905109218
:104D00008A0510928B05EE98789480E00E94B22775
:104D100080E00E94C52980E00E94DD2960E070E00B
:104D20008AEF94E40E94BF0680ED97E09093870598
:104D3000809386058AE795E09F938F930E944D05A7
:104D40000F900F90C12CD12C7601C5E7D5E0FF92D2
:104D5000EF92DF92CF92DF93CF930E944D05609147
:104D6000D9058FEF860F0F900F900F900F900F9037
:104D70000F908E3F48F48FEF93E00E94442F809174
:104D8000D9058F5F8093D9058AE0C80ED11CE11C3C
:104D9000F11C8091880590918905A0918A05B091B8
:104DA0008B058C159D05AE05BF0598F3D0CFCF932D
:104DB000DF93EC0180911E0781FD37C040914E05C5
:104DC00050914F056091500570915105CE010D2E07
:104DD000000CAA0BBB0B840F951FA61FB71F809357
:104DE0004E0590934F05A0935005B0935105D7FF02
:104DF00007C0D195C195D1090E94A827826003C040
:104E00000E94A8278D7F0E949927219760F0F8942F
:104E100082E00E94802778948FE99FE00197F1F764
:104E200000C00000F2CF80E001C08EEFDF91CF9193
:104E30000895CF93DF93EC0180911E0780FD37C06A
:104E40004091290550912A0560912B0570912C0500
:104E5000CE010D2E000CAA0BBB0B840F951FA61FB5
:104E6000B71F8093290590932A05A0932B05B09333
:104E70002C05D7FF07C0D195C195D1090E94A8275D
:104E8000816003C00E94A8278E7F0E9499272197E6
:104E900060F0F89481E00E94802778948FE99FE089
:104EA0000197F1F700C00000F2CF80E001C08EEF63
:104EB000DF91CF9108951F93CF93DF9300D000D05F
:104EC000CDB7DEB7162FEFECF7E03197F1F700C062
:104ED0000000F89419821A821B821C82AE014F5F77
:104EE0005F4F64E00E945A0B898178948127837117
:104EF0000F900F900F900F90DF91CF911F91089519
:104F000080FD2D9A81FD2E9A2D982E980895882344
:104F100019F0813019F00895599A08955C9A08950E
:104F2000882319F0813019F00895599808955C98F4
:104F30000895EAE0F1E0282F217090819A7F922B6A
:104F40008270880F892B808382E090E00C94571B3D
:104F500080910A01282F247030E0359527958170C3
:104F6000822B089593E08927EAE0F1E0282F217051
:104F700030E0220F331F8270880F880F282B80812A
:104F8000857F282B208382E090E00C94571B909122
:104F90000A01292F287030E03595279535952795FA
:104FA00096959170922B83E089270895EF92FF9256
:104FB0000F931F93CF93DF93C82F01E010E001C040
:104FC000000F8A95EAF70E94C727F82E0E94A827AB
:104FD000E82ED02FD0958F2D8D230E94B2278E2DB5
:104FE0008D230E94992760E18C2F0E945B27D82F88
:104FF000CC2321F0C13019F42E9A01C02D9A61E121
:105000008C2F0E945B27D82BCC2321F0C13019F4C0
:105010002E9801C02D988E2D802B0E94992762E139
:105020008C2F0E945B27D82B802F0E9480278F2DEA
:10503000802B0E94B22762E08C2F0E945B27D82B26
:105040008E2D0E9499278F2D0E94B2278D2FDF91E0
:10505000CF911F910F91FF90EF90089567ED76E04B
:1050600096958795969587950C942C2A2091030503
:1050700021FF2BC09C013695279536952795AAEBE5
:10508000B3E10E94AC2FDC01CB012AE0B695A795D5
:10509000979587952A95D1F79C01AD01442755270F
:1050A000A2EBB9E00E94BB2FAB01BC013AE07695C0
:1050B0006795579547953A95D1F78091180190914A
:1050C0001901841B950B97FF02C080E090E00895C2
:1050D000EF92FF921F93CF93DF937B01C82FD92FBD
:1050E000142F180F1C1741F0F70161917F01CE01B9
:1050F0000E942C2F2196F6CFDF91CF911F91FF9028
:10510000EF9008958F929F92AF92BF92CF92DF92CD
:10511000EF92FF920F931F93CF93DF93CDB7DEB73C
:1051200060970FB6F894DEBF0FBECDBFD82EB62E57
:105130009E012F5F3F4F7901B9010E944326D11094
:1051400006C0B7FC02C0E5E00AC0E7E008C031E0F5
:10515000D3120CC0B7FC02C0E6E001C0E8E0F0E00A
:10516000EE0FFF1FE65FFB4F80809180B7FC0CC005
:1051700040E1B701C4012B2D30E12302800D911DC8
:1051800011240E94682827C0A12CB12C80E1C82ED0
:10519000CE0CD11004C08501095A194F06C081E018
:1051A000D81203C0850109521A4FD701F801CA1657
:1051B00021F084918D933196FACF40E1B701C5017A
:1051C000880D991D0E94682890E1A90EB11C20E865
:1051D000A216B104F1F660960FB6F894DEBF0FBECA
:1051E000CDBFDF91CF911F910F91FF90EF90DF9096
:1051F000CF90BF90AF909F908F9008958091EB04D7
:105200009091EC04A091ED04B091EE0485FF07C0ED
:105210006091110167FD03C080E00E9482288091A7
:10522000EB049091EC04A091ED04B091EE0486FFA4
:1052300007C06091100167FD03C081E00E948228D1
:105240008091EB049091EC04A091ED04B091EE04F8
:1052500087FF04C06FEF80E00E9482288091EB04FA
:105260009091EC04A091ED04B091EE0490FF04C085
:105270006FEF81E00E9482288091EB049091EC0412
:10528000A091ED04B091EE0491FF08C06091080177
:105290007091090180E093E00E943E2F8091EB0421
:1052A0009091EC04A091ED04B091EE0492FF08C03F
:1052B000609106017091070180E193E00E943E2F0A
:1052C0008091EB049091EC04A091ED04B091EE0478
:1052D00093FF08C0609104017091050182E093E0A2
:1052E0000E943E2F8091EB049091EC04A091ED047C
:1052F000B091EE0494FF08C0609102017091030127
:1053000082E193E00E943E2F8091EB049091EC04A7
:10531000A091ED04B091EE0495FF0CC06091EA04F9
:1053200084E193E00E942C2F6091E90486E193E0F0
:105330000E942C2F1092EB041092EC041092ED04BA
:105340001092EE040895EF92FF920F931F93CF9364
:10535000DF931F92CDB7DEB77B018C01061B170BC5
:10536000415058F0C8018E0D9F1D49830E941E2F89
:10537000F70181937F014981F3CF0F90DF91CF91A6
:105380001F910F91FF90EF90089590912B079095AA
:105390009823F89490FF03C022E02093270791FF01
:1053A00003C022E02093280792FF03C092E090936D
:1053B000290780932B07789408958093030584FF31
:1053C00002C0289801C0289A9091030595FF02C059
:1053D0005D9801C05D9A8670869590910B019C7FC7
:1053E000892B80930B0188E090E00C946C1B3F9A12
:1053F000882311F0479A089547980895CF93C82FAE
:1054000080E58CBD1DBC2C9881E40E940D078C2F7B
:105410000E940D078FEF0E940D072C9ACF910895DF
:105420001F93CF93DF931F92CDB7DEB7182F80E580
:105430008CBD1DBC2C9880E469830E940D07812FD0
:105440000E940D076981862F0E940D072C9A0F90EC
:10545000DF91CF911F910895EF92FF921F93CF9309
:10546000DF93FB01EE5BFF4F259134918217930789
:105470000CF04CC0FB0125913491281739070CF032
:1054800048C013E2A1E2B0E040E050E021E1115059
:1054900009F439C030E0E901CC0FDD1FFB01EC0F4E
:1054A000FD1FE590F490FE013296E60FF71FC591BF
:1054B000D491C817D90724F4A9012A0F3B1F06C0AD
:1054C0008E159F0534F4D901240F351F3595279586
:1054D000DECF4EEC4203B001439F700D11249B01BF
:1054E0002E513B4FBC016E197F094603C001479FF7
:1054F000900D1124BE016E197F090E94762FC901FB
:10550000860F971F08C080E090E005C080E79EEFFF
:1055100002C082EE94E0DF91CF911F91FF90EF9057
:105520000895ACE0B0E0E7E9FAE20C94992D6C0143
:105530005B017A01FC0117821682838181FF0EC113
:10554000CE0101964C01F6010381F50103FD159191
:1055500003FF11915F01112309F4FCC0153249F4D6
:1055600003FD159103FF11915F01153211F020E049
:105570001BC0B601812F90E00E941E2E37017301DF
:10558000E2CF112309F4E6C0612F70E082E297E0D8
:105590002C870E94D52D2C85892B49F0F50103FD20
:1055A000159103FF11915F0127FFEBCF09C0133263
:1055B00029F01C3609F0D5C02068F0CF20E1EECFED
:1055C000022F112309F4C6C0612F70E08BE197E030
:1055D0002C870E94D52D2C85892B41F03701F4E0D2
:1055E0006F0E711CB6018FE390E011C0133639F0D5
:1055F000133781F0133519F5022F01600BC0370105
:1056000082E0680E711CB601F701808191810E94D1
:105610001E2EB5CF3701F2E06F0E711CF701E0804E
:10562000F180F70100FD859100FF81917F018823C2
:1056300009F4A5CFB60190E00E941E2EF2CF1436D9
:1056400011F0193629F5370127FF09C0F4E06F0E74
:10565000711CF70160817181828193810AC0F2E03F
:105660006F0E711CF70160817181072E000C880B91
:10567000990B022F0F7E97FF08C09095809570952B
:1056800061957F4F8F4F9F4F00642AE030E033C019
:10569000103799F040F41835B1F01F3609F05AC0B0
:1056A00028E030E014C0153719F0183741F052C027
:1056B000022F0F7E2AE030E00AC0022F0061046250
:1056C00020E130E004C0022F046020E132E0370125
:1056D00007FF09C0F4E06F0E711CF7016081718152
:1056E0008281938108C0F2E06F0E711CF701608126
:1056F000718180E090E0A4010E94BD2E182F18193E
:1057000006FF05C0B6018DE290E00E941E2E04FF48
:1057100015C0FE01E10FF11D8081803379F0B601E3
:1057200080E390E00E941E2E02FF08C00072802FCE
:1057300090E0B601885A9F4F0E941E2E1150F4012E
:10574000E10FF11D8081B60190E00E941E2E111123
:10575000F5CF15CFF6018681978105C08FEF9FEFBA
:1057600002C0022F31CF2C96EEE00C94B52D20FD17
:1057700009C0FC0123FD05C022FF02C073836283C0
:1057800051834083089544FD10C046FD10C0DB01E5
:10579000FC01AA0FBB1FEE1FFF1F1094D1F76A0F69
:1057A0007B1F8E1F9F1F31E003C033E001C034E038
:1057B000660F771F881F991F3150D1F7620F711D37
:1057C000811D911D08950F931F93CF93DF938C013B
:1057D000C8010E94E02DEC0197FD08C00E94CC2D6D
:1057E000892BB1F7B801CE010E94A42ECE01DF9122
:1057F000CF911F910F910895A1E0B0E0E2E0FCE2AB
:105800000C949B2D8C01C62E7A0129830E94E02DD9
:10581000AC01552729814B32510521F04D325105FC
:1058200069F42068CA94C11002C080E076C0C80143
:1058300029830E94E02D298197FDF7CF322F3D7FEC
:10584000D32E322F307349F5803339F5BB24BA9407
:10585000BC0C09F44EC0C80129830E94E02D2981A7
:1058600097FD47C0382F3F7D383569F48D2D826410
:10587000D82ECA94CA94CC20E1F1C8010E94E02D30
:1058800097FF0BC036C026FF04C02D2D2260D22EFC
:1058900003C03D2D3261D32ECB2C812C912C540191
:1058A00020ED280F283080F0D4FE04C0B8010E94FB
:1058B000A42E1CC02A3040F0D6FEF8CF2F7D3FEE3C
:1058C000320F363098F727504D2DC501B4010E9494
:1058D000C32B4B015C018D2D8260D82ECA94CC2045
:1058E00059F0C8010E94E02D97FFDACFD1FC04C027
:1058F0009CCF812C912C5401D7FE08C0B094A09469
:1059000090948094811C911CA11CB11C2D2DB5017B
:10591000A401C7010E94B72B81E02196ECE00C9412
:10592000B72DA1E0B0E0E7E9FCE20C94972D7C01F3
:105930002B015A01FC0117821682812CF70173801A
:10594000F20173FC859173FE8191382F2F0188231A
:1059500009F4E2C090E039830E94CC2D3981892B73
:1059600021F0C7010E94E32BE9CF353241F4F20167
:1059700073FC359173FE31912F01353269F4C70103
:1059800039830E94E02D398197FDC4C03817B1F2E8
:10599000B7010E94A42EC0C03A3239F473FC35918D
:1059A00073FE31912F0111E001C010E0620160E04F
:1059B00020ED230F2A3070F4126070E080E090E058
:1059C00040E20E94C32BF60173FC359173FE3191C6
:1059D0006F01EECF962E032F260111FF03C0611138
:1059E00003C09AC099249A94383619F03C3651F085
:1059F00010C0F60173FC059173FE01912F0108366A
:105A000041F418601460F20173FC059173FE01917A
:105A10002F01002309F480C0602F70E082E397E03B
:105A20000E94D52D892B09F477C010FD07C0F50120
:105A3000C080D180C50102965C0102C0C12CD12C6E
:105A40000E3651F4F7014681578160E070E0212F56
:105A5000C6010E94B72B72CF0336A9F411FD02C014
:105A600099249394C7010E94E02D97FD53C0C1145F
:105A7000D10429F0F6018083C60101966C019A9445
:105A80009110F0CF43C0C7010E94E32B97FD42C0A5
:105A90000F3661F128F4043639F1093651F128C086
:105AA000033771F0053701F123C0C114D10429F087
:105AB000F6016082C60101966C019A94992071F0FA
:105AC000C7010E94E02D3C0197FD08C00E94CC2D2B
:105AD000892B59F3B701C3010E94A42EC114D1042C
