:100000000C94C4030C94E1030C94E1030C94E103FD
:100010000C94E1030C94E1030C94E1030C949A28F2
:100020000C94E1030C94E1030C94E1030C94E103C0
:100030000C94E1030C94E1030C94E1030C94E103B0
:100040000C94E1030C94FE280C94E1030C94E1035E
:100050000C94E1030C9429230C94E1030C94132ACF
:100060000C94E1030C94D3290C94E1030C94E10368
:100070000C94E1030C94E1030C94E1030C94E10370
:100080000C94E1030C94E1030C94E1030C94E10360
:100090000C94E1030C94E1030C94E1030C94E10350
:1000A0000C94E1030C94E1030C94E1034552524F8C
:1000B000523A20727820627566666572206F7665A6
:1000C00072666C6F770A00AA6A5A56555595A5A9AB
:1000D000AA2575200025752000256920002568685F
:1000E00075256E002575256E002569256E00237324
:1000F0007069313D257820647276313D256C782019
:10010000677374313D257820676366313D256C78CF
:100110000A0023737069303D257820647276303D83
:10012000256C7820677374303D25782067636630CE
:100130003D256C780A002569200000534C412D6351
:100140006F6E74726F6C2025642E25642E25642DCD
:10015000256425532000435A5058253473582533BD
:100160007358256325357320004E41200001030597
:100170000E0F111213151617383A000204253032EB
:10018000780025642025642000256C752000256CEE
:100190006920002530326868782000237477706801
:1001A0002073746570732025640A00256C69256EC0
:1001B00000256C75256E0025686869256E003F3F37
:1001C0003F3F004552524F523D2564202825532978
:1001D0000A004E4F4E4500434853410043485342A6
:1001E00000534E4E530046555345004C4F434B0071
:1001F0004753504900545350490054534947004114
:100200004443560054484552004D4F544F00464118
:100210004E5300554C454400237477686F206F6639
:10022000667365743D256420646973743D25640AB2
:1002300000237477686F20736574206F666673653A
:1002400074423A2025640A00237477686F2073652E
:1002500074206F6666736574413A2025640A00490C
:100260000053005F006D007D009000A500BD00D927
:1002700000F8001C0143016E019C01CE010202370F
:10028000026C02A102D30202032D035303750391F2
:1002900003A903BD03CD03DA03E303EB03F103F585
:1002A00003F80323746970682073746570732025E4
:1002B000640A00256C640A0023494E54360A002360
:1002C0006F6C69636E745F74696C743D25686875E2
:1002D0000A00236F6C69636E745F746F7765723D9B
:1002E000256868750A00236472765F73746174759B
:1002F000735B25645D3D2530386C780A002373708C
:10030000695F7374617475735B25645D3D2530327C
:100310006868780A00000A0014F000F0001407BCB6
:100320000200000000B004DC05A000A00010074C93
:100330000400000000000F0014500050001006DC04
:10034000050000000064007800C800C8000B00DC55
:100350000500000000DC05DC05000000002C28344E
:10036000080000000090019001000000003E3F00E6
:100370000000000000D606D606000000002C28D0A1
:100380000700000000000F0014C800C8000F037E23
:100390000400000000C409983AFA009600160464AC
:1003A0000000000000C4094C1DFA0096001001F482
:1003B0000100000000800C983AFA00FA000A039845
:1003C000080000000064009600320032000F00DCDC
:1003D0000500000000800CC044FA00FA002206F478
:1003E0000100000000800CC044FA00FA001206F47C
:1003F000010000000040068025C800C8003F04F44A
:100400000100000000C4094C1D5E015E010C027871
:10041000050000000019001D00220028002E0036F3
:100420000040004B00580069007C009200AD00CCF9
:1004300000F1001A014A017E01B701F40133027193
:1004400002AF02E8021C034A0372039303AD03C325
:1004500003D303E003E903F0036B696C6C65640A82
:10046000004D435553523D3078253032780A0073A1
:10047000746172740A006265657081626F6F74B531
:10048000636C6564856565636C9F65657278A0655E
:10049000657778A16563686FAA66616E65B366610A
:1004A0006E738A6670776DB26672706D9D6D6F74D3
:1004B000728D706C65648270707374BF7070776DCC
:1004C000B170737064B97273656EAD72736D65AF40
:1004D00072737374AE73676263BA73676264BB737B
:1004E00068646E8374656D709E74696366A77469D1
:1004F0006373A9746963759674696863C174696884
:100500006F9874696D61A374697068BD7469706F68
:10051000A5746973679A74697374C374726177B6EA
:1005200074776366A674776373A87477637595743C
:1005300077646E8F74776863C07477686F97747729
:100540006D61A274777068BC7477706FA4747773F0
:10055000679974777374C2747775708E756C6564FF
:10056000847570776DB8766F6C74B076726177B79A
:100570007764656CBE7769646CB4666D736BC467D1
:100580006F7365C574777466C874697466C9746975
:100590007363C775737461CA5F706F72E15F64647F
:1005A00072E25F70696EE36469720F656E610C657B
:1005B0006E6411657272416C65640D6C6F67426D9B
:1005C0006F7410727374017365720374737443767D
:1005D0006572027265761370756E12017406435768
:1005E0001A836D068D63069758069843069F9A0FE7
:1005F000B44518B53106BB2D06C01C06C10806C59A
:10060000240E00E01B015F1D02311B03181512822E
:100610000C13640C0C5F1D0D5F1D0F5F1D105F1D23
:10062000115F1D415F1D425F1D825F1D843B1D8563
:100630005F1D8A5F1D955F1D965F1D97681B9868FB
:100640001BC7311D995F1D9A5F1D9D5C1C9E991BE8
:10065000B0991BB6931CB7931CB15F1DB95F1DB851
:100660005F1DB35F1DA4191BA5911BA6491EA749B9
:100670001EA8681BA9681BAA681BAD5F1DAE5F1D85
:10068000BA5F1DBBEC1ABCAC1CBDAC1CBFCF1BC001
:10069000B21BC1B21BC4681BC85F1DC95F1DCA5015
:1006A0001B0C99180D99180F991810991811991871
:1006B000419918429918839918819B12829918843C
:1006C000B6148599188EBD198FBD198A99189599F8
:1006D0001896991899DA109ADA109F9A0FA250106A
:1006E000A3CB11A45010A5CB11A6F013A7F013A80B
:1006F000DA10A9DA10AA9918B19918B99918B89905
:10070000189D3C12AD9918AF5010BEBD19BCBD1953
:10071000BDBD19C2DA10C3DA10C09411C15D11C495
:100720009918BFCC13C79913E13113E33113E231A8
:1007300013CAFE12A60B1EA70B1EE1E11CE3E11C6F
:10074000E2E11C6525640A006F6B0A004552524FB6
:10075000523A20636F6D6D616E64206F76657266CC
:100760006C6F770A0045464765666700202B2D2E83
:100770003031323334353637383968006364696E66
:100780006F7073757858000011241FBECFEFDAE048
:10079000DEBFCDBF12E0A0E0B1E0ECEFF1E602C0B9
:1007A00005900D92A839B107D9F725E0A8E9B2E084
:1007B00001C01D92A63BB207E1F70E946C1E0C948B
:1007C000FC300C940000CF92DF92EF92FF921F93C7
:1007D000CF93DF93FB01EE5BFF4F2591349182179E
:1007E00093070CF056C0FB01259134912817390767
:1007F0000CF052C013E2C1E2D0E0B0E0A0E021E191
:10080000115019F490E080E03CC030E0A901440FA1
:10081000551FFB01E40FF51FE590F490FA013296A5
:10082000E60FF71FC590D490A901C816D9063CF46D
:100830009E01240F351F35952795DA01E1CF8E15DE
:100840009F0544F49D01240F351F35952795EA0136
:10085000AD01F3CFBC016E197F094EEC4603C00118
:10086000479F900D1124B6016E197F090E94532DE8
:100870004203C001439F900D11248E519B4F860F60
:10088000971FDF91CF911F91FF90EF90DF90CF9056
:10089000089580E79EEFF5CF82EE94E0F2CFF894D2
:1008A0002091260430912704282B392B30932704DC
:1008B000209326047894209126043091270428233D
:1008C0003923232BC1F70895F89420912604309101
:1008D0002704282B392B309327042093260478945F
:1008E000089580FD2D9A81FD2E9A2D982E980895B9
:1008F000813011F0599A08955C9A0895813011F071
:10090000599808955C980895E5E1F1E090819A7F07
:10091000282F2170922B880F8470982B908382E06F
:1009200090E00C944F0490911501892F8695827068
:100930009170892B089593E0892790E0E5E1F1E03B
:100940009C01220F331F2270880F991F880F991F57
:100950008870822B2081257F822B808382E090E02B
:100960000C944F042091150130E021FB882780F979
:1009700035952795359527952270282B83E082277A
:10098000089565E174E096958795969587950C9402
:10099000E3032091C20421FF29C09C0136952795CD
:1009A00036952795AAEBB3E10E94892D9B01AC01F6
:1009B0009AE056954795379527959A95D1F744270C
:1009C0005527A2EBB9E00E94982DAB01BC012AE0AB
:1009D00076956795579547952A95D1F780910B01A4
:1009E00090910C01841B950B97FF02C090E080E072
:1009F0000895CF93DF93F89492E09093220490911E
:100A0000C604692F682770E0C091C304D091C40464
:100A1000E8ECF4E0AAE0B4E030E020E0AB01022E24
:100A200002C0559547950A94E2F740FF0AC0D38368
:100A3000C283468150E013965C934E931297518384
:100A400040832F5F3F4F379618962330310531F79B
:100A5000109223049870982B9093C6047894DF9199
:100A6000CF9108958093C204282F30E084FF13C0F3
:100A700028988091C20485FF10C05D98809116016E
:100A80008C7F359527952370822B8093160188E003
:100A900090E00C946404289AECCF5D9AEFCF3F9AD3
:100AA000882311F0479A089547980895E3ECF4E0FD
:100AB0008381886083830895CF93DF93EB01009750
:100AC00049F410929000D0930204C0930104DF9186
:100AD000CF910895BC0190E080E00E946E309B01B0
:100AE000AC0160E074E284E799E40E94CD2F20E03D
:100AF00030E040E05FE30E94602F0E943F30683C9E
:100B0000710510F468EC70E07093990060939800A0
:100B100080E480939000D7CF80917D05803B09F4DD
:100B20004DC048F5873909F44CC090F4813409F47C
:100B30004BC030F48D3009F44AC090E080E0089555
:100B4000823409F447C08238C1F78AE695E00895F7
:100B5000883A09F442C040F4883909F441C08E391A
:100B600061F780EC92E00895893AE9F18A3A29F731
:100B700081E895E00895883BC9F178F4833BC9F199
:100B800028F4813BD1F682E091E00895863BA1F103
:100B9000873B99F688EE93E00895803C81F138F424
:100BA000893B81F18A3B49F68CEC92E00895813CC7
:100BB00061F1843C11F684E294E0089585E091E0CF
:100BC000089581E091E0089588EB92E0089582EC29
:100BD00094E0089587EB92E0089584E091E0089511
:100BE00080E091E0089583E091E008958DE695E03E
:100BF000089583E294E0089580EF93E0089583E1FF
:100C000091E0089587E191E0089581E191E00895F0
:100C10008091FE0381FD0EC081E0809300018FEF83
:100C20009FEF90930E0180930D0180E18093BE02AF
:100C300080E008958EEF08958091FE0380FD0BC043
:100C400081E0809301018FEF9FEF909310018093DB
:100C50000F0180E008958EEF08951092CC0280E09D
:100C6000089587E797E7909301088093000888E14B
:100C700098E00FB6F894A895809360000FBE90930B
:100C80006000F894FFCF9091FE03892F827091FD50
:100C90000DC091E09093000120911101309112015B
:100CA00037FD80E18093BE0280E008958EEF0895C5
:100CB0008091FE0380FD05C081E08093010180E00A
:100CC00008958EEF089580E00E949B048FEF80933B
:100CD00001018093000180E0089580E00E944F05AB
:100CE0001092070480E0089588E198E00FB6F89428
:100CF000A895809360000FBE90936000F894FFCF9A
:100D0000FB0190E02491281307C0319685919491BE
:100D1000009741F0FC0109949F5F33964913F2CF8D
:100D200089EF08958AEF08951F93CF93DF93C42F1F
:100D3000D0E02196215078F0DC01FB0130E01D91DC
:100D4000549115130DC03F5F31964313F8CFFB014B
:100D5000E40FF11D2491822FDF91CF911F9108950F
:100D60006C0F7D1FE7CFE82FF0E0E953FF4FE491D0
:100D70002E2F30E0322F2227853088F02064F8941F
:100D8000E093AC022093AD021092B0021092B30235
:100D90001092B10288E08093B4027894089520689C
:100DA000EECF8EBD0DB407FEFDCF8EB50895CF9367
:100DB000C82F80E58CBD1DBC2C9881E40E94D10613
:100DC0008C2F0E94D1068FEF0E94D1062C9ACF91D2
:100DD0000895CF93DF93D82FC62F80E58CBD1DBC1F
:100DE0002C9880E40E94D1068D2F0E94D1068C2F72
:100DF0000E94D1062C9ADF91CF9108958F929F92F5
:100E0000AF92BF92FF920F931F93CF93DF93562F12
:100E1000A091A602B091A702C82FD0E095E2899FC9
:100E2000F0011124EA50FB4F628D738D6A0F7B1F16
:100E3000738F628F808D918D2189328928173907B0
:100E400008F425C10091AA021091AB02800F911FF6
:100E5000821B930B918F808F4789F090FE03052FA3
:100E600010E0980184E0220F331F8A95E1F78F2D5F
:100E700090E08223932383889488A588B688892B61
:100E800009F452C081E0881A9108A108B108838A48
:100E9000948AA58AB68A41FF50C085E28C9FF001F2
:100EA0008D9FF00D1124EA50FB4F278130856F3F55
:100EB000710511F008F03EC0A29FB001A39F700D14
:100EC000B29F700D112490E080E033E0660F771F31
:100ED000881F991F3A95D1F725E22C9FF0012D9F8D
:100EE000F00D1124EA50FB4F87849088A188B288C6
:100EF000860E971EA81EB91E8786908AA18AB28A7E
:100F0000848D958D0197958F848F892B09F084C0EE
:100F1000842F8D7F42FF06C025813681328B218B45
:100F2000108A1786482F78C09FEF891A990AA90A54
:100F3000B90AADCF0E94892DC8CF42FF27C085E2F4
:100F40008C9FF0018D9FF00D1124EA50FB4F868D90
:100F5000978DA0A1B1A10197A109B109868F978FA3
:100F6000A0A3B1A3892B8A2B8B2B09F055C0942FFA
:100F70009B7F43FD09C0852F8095F822F092FE03E8
:100F80001786108A118A128A492F46C043FF44C02F
:100F900085E28C9FF0018D9FF00D1124EA50FB4FEC
:100FA000218532856F3F710511F008F058C0A29F6E
:100FB000B001A39F700DB29F700D112490E080E0EE
:100FC00023E0660F771F881F991F2A95D1F725E226
:100FD0002C9FF0012D9FF00D1124EA50FB4F8784C8
:100FE0009088A188B288861A970AA80AB90A8786C3
:100FF000908AA18AB28A82A193A1019793A382A326
:10100000892B51F4477F852F8095F822F092FE03BB
:101010001786108A118A128A85E28C9FF0018D9FB3
:10102000F00D1124EA50FB4F84A18823D9F08150A0
:1010300084A385E28C9FF0018D9FF00D1124EA506E
:10104000FB4F478B138E128E852FDF91CF911F910F
:101050000F91FF90BF90AF909F908F9008950E9446
:10106000892DAECF8091A8029091A902082319235F
:10107000012BF9F28091FE03952F9095892380939F
:10108000FE038091BF02852B8093BF02D2CF821BCB
:10109000930B918F808F50E0D7CF8F929F92AF921A
:1010A000BF92CF92DF92EF92FF920F931F93CF9355
:1010B000DF936A017B01082F10E095E2899FE00130
:1010C0001124CA50DB4FAB85BC852D853E854D0173
:1010D000820E931EB12CA12CC814D904EA04FB047F
:1010E00048F1BD8FAC8FC818D908EA08FB08CE8E2E
:1010F000DF8EE8A2F9A23BA32AA386E0AB2B09F47A
:1011000084E0232B09F0886095E2909FF001919F85
:10111000F00D1124EA50FB4F878BDF91CF911F9187
:101120000F91FF90EF90DF90CF90BF90AF909F9086
:101130008F900895AB0196010E94982DA50194010E
:101140000E94672D3D8F2C8F1E8E1F8E18A219A214
:10115000C21AD30ADBA2CAA28AE0D6CF9F92AF926C
:10116000BF92CF92DF92EF92FF920F931F93CF9394
:10117000DF93982E6A017B01082F10E0C1E0D0E0D8
:1011800002C0CC0FDD1F8A95E2F7B090FE038C2FD2
:101190008B2109F04DC0C114D104E104F10491F197
:1011A000AC2EA0940E9493041C141D041E041F0462
:1011B0005CF58A210E9484048C2F8295807F809523
:1011C000B822B092FE03B701A601892D0E944D08F6
:1011D00085E2809FF001819FF00D1124EA50FB4FC2
:1011E000108A178683819481928B818B80E484A3FB
:1011F0008091BF02A822A092BF028091FE03C82B5B
:10120000C093FE0380E015C08C2B0E948404CE01A5
:1012100024E0880F991F2A95E1F7B82AB092FE03BF
:1012200044275527BA014C195D096E097F09CDCFB6
:101230008FEFDF91CF911F910F91FF90EF90DF9093
:10124000CF90BF90AF909F900895CF92DF92EF9292
:10125000FF920F931F93CF93DF93C82ED12C95E26B
:10126000899FE0011124CA50DB4F0D811E818B81C3
:101270009C817801E81AF90A080F191F2F81388517
:101280002115310509F45EC0B70190E080E0ECE083
:10129000660F771F881F991FEA95D1F750E040E04D
:1012A0000E94672DF4E05695479537952795FA9556
:1012B000D1F7D8010E94982D6C5D7B408F4F9F4FD6
:1012C00028E438EE41E050E00E94672D3C872B87F0
:1012D00085E28C9DE0018D9DD00D1124CA50DB4F1D
:1012E00029853A852115310581F1B70190E080E02B
:1012F0004CE0660F771F881F991F4A95D1F750E081
:1013000040E00E94672D64E05695479537952795F4
:101310006A95D1F7D8010E94982D6C5D7B408F4F64
:101320009F4F28E438EE41E050E00E94672D3E8751
:101330002D87DF91CF911F910F91FF90EF90DF905C
:10134000CF9008951C861B86C3CF1E861D86F1CFC5
:10135000FF920F931F93CF93DF93F82EEB01F110C1
:1013600049C080E890E00E944F048091D70390919B
:10137000D803A091D903B091DA03B7FFF2CF0F2DB4
:1013800010E085E2F89EF0011124EA50FB4F8881BD
:101390009981948383838A819B81968385838C81C1
:1013A0009D81908787838E819F81928781878F2DF2
:1013B0000E942509F801EB51FC4F88858083F801D4
:1013C000ED51FC4F89858083000F111FF801E15218
:1013D000FC4F8A859B859183808380E097E0F110A4
:1013E00002C080E790E0DF91CF911F910F91FF90B5
:1013F0000C944F0480E098E00E944F048091DB033E
:101400009091DC03A091DD03B091DE03B7FFA7CF7D
:10141000B6CFCF92DF92EF92FF920F931F93CF93AD
:10142000DF93182FF62EEA010CE50CBD1DBC0E94BF
:101430007E048F2D0E94D10680E00E94D10680E0BC
:101440000E94D10680E00E94D10680E00E94D10671
:10145000812F0E9478040CBD1DBC812F0E947E0448
:1014600080E00E94D106082FE12FF0E0E753FD4F06
:10147000808380E00E94D10690E0B0E0A0E0CC2420
:10148000D82EE92EFA2E80E00E94D106C82AFE2C22
:10149000ED2CDC2CCC2480E00E94D106C82AFE2C46
:1014A000ED2CDC2CCC2480E00E94D106C82A812FB0
:1014B0000E947804C882D982EA82FB82802FDF9161
:1014C000CF911F910F91FF90EF90DF90CF900895F3
:1014D000EF92FF920F931F93CF93DF93C82FE62EC7
:1014E000D22F132F042FF52E8CE58CBD1DBC8C2F15
:1014F0000E947E048E2D0E94D1068F2D0E94D1065F
:10150000802F0E94D106812F0E94D1068D2F0E942C
:10151000D1068C2F0E94780480E0DF91CF911F913B
:101520000F91FF90EF900895CF93DF9300D000D0FC
:10153000CDB7DEB719821A821B821C82AE014F5FC3
:101540005F4F61E00E94090A89810F900F900F9010
:101550000F90DF91CF91089599E0899FF0011124B8
:10156000EC51FB4F6683262F660F330B440B550B54
:10157000A901332722276DEE0C94680ACF93DF93DD
:10158000C82FD62F81E0603210F0D69580E099E028
:10159000C99FF0011124EC51FB4F20813181428120
:1015A00053814D7F90E0B0E0A0E061E1880F991F8A
:1015B000AA1FBB1F6A95D1F7282B392B4A2B5B2B0F
:1015C0002083318342835383D483D5836CEE8C2F65
:1015D0000E94680A2D2F30E0322F222722273F71E8
:1015E000032E000C440B550BDF712D2B4F6060E96F
:1015F0008C2FDF91CF910C94680A99E0899FF001BC
:101600001124EC51FB4F85814081518162817381AE
:1016100061FB442740F9411101C0880F08950F93E1
:101620001F93CF93DF93EB01082F10E095E2899F82
:10163000F0011124EA50FB4F238134813983288340
:10164000258136813B832A83278130853D832C8306
:10165000218532853F832E830E94FD0A888789E099
:10166000809FF001819FF00D1124EC51FB4F86818A
:101670008987878190859B878A87DF91CF911F918A
:101680000F9108951F93CF93DF9300D000D0CDB773
:10169000DEB7182F83ED90E0A3E0B4E189839A834D
:1016A000AB83BC8329E0129FF0011124EC51FB4F66
:1016B00080839183A283B38380E18483858383E0E5
:1016C00086838CED95E09087878323ED30E043E0BF
:1016D00054E16CEE812F0E94680AAE014F5F5F4FAC
:1016E0006CE6812F0E94090A89819A81AB81BC81B5
:1016F000833D9105A340B44159F520E030E0A901B4
:1017000061E9812F0E94680A20E030E043E051E067
:101710006DEE812F0E94680A2CED35E040E050E02C
:1017200064E9812F0E94680A20E831E340E050E03C
:1017300060E8812F0E94680A812F0E94940A80E04D
:101740000F900F900F900F90DF91CF911F91089500
:101750008FEFF6CF1092FD031092F8038091C00432
:1017600080FD04C01092FA031092F90381FD04C0B9
:101770001092FC031092FB030895F89488E198E01E
:101780000FB6F894A895809360000FBE9093600008
:1017900085EA9AE59093010980930009FFCF909123
:1017A0002A04809129042FEF3FEF891771F0E92F68
:1017B000F0E0E45DFB4F208130E09F5F80912804E2
:1017C000981708F090E090932A04C9010895809337
:1017D000CE008091C80086FFFCCF8091C800806455
:1017E0008093C80090E080E00895EF92FF920F93FD
:1017F0001F93CF93DF93D82F082F10E0C801875392
:101800009D4F7C01FC0180811F928F931F92DF937B
:101810008DEF92E09F938F930E94212EF70180819C
:101820001F928F931F92DF9386EE92E09F938F9388
:101830000E94212EF701C081C3708DB79EB70C9610
:101840000FB6F8949EBF0FBE8DBFC111C0E8000F48
:10185000111F000F111FF801E952FC4F8081918187
:10186000A281B381B2FDC062B1FDC064DD2389F005
:101870008091CE031F928F938FEB92E09F938F9373
:101880000E94212E0F900F900F900F908091CE0309
:1018900010C08091CF031F928F9382ED92E09F93AF
:1018A0008F930E94212E0F900F900F900F90809198
:1018B000CF03843108F0C0618C2FDF91CF911F914D
:1018C0000F91FF90EF900895EEEAF4E0808120E11F
:1018D000829FC0011124992721812F70822B9F9311
:1018E0008F931F9286E08F9382E891E09F938F936E
:1018F0000E94212E0F900F900F900F900F900F903D
:1019000080E00895CF92DF92EF92FF920F931F93A2
:10191000CF93DF93CDB7DEB760970FB6F894DEBFF5
:101920000FBECDBF8DE691E08E010F5F1F4F7E0190
:1019300021E1E20EF11CD80121E2FC013491E32FF8
:10194000F0E020935700E491ED930196AE15BF05AA
:10195000A1F78DE7C82E81E0D82EF80181918F0183
:10196000282F082E000C330B3F938F93DF92CF92DA
:101970000E94212E0F900F900F900F900E151F05B3
:1019800061F780E060960FB6F894DEBF0FBECDBF62
:10199000DF91CF911F910F91FF90EF90DF90CF904B
:1019A0000895BF92CF92DF92EF92FF920F931F9311
:1019B000CF93DF9300D000D0CDB7DEB7B82E11E0C3
:1019C00001C0110F8A95EAF7F89400E1C12CD12CDF
:1019D0007601812F0E9471048BE99FE00197F1F756
:1019E00000C00000812F0E94710419821A821B829C
:1019F0001C82AE014F5F5F4F62E18B2D0E94090A8E
:101A000089819A81AB81BC81AF70BB27C80ED91E7A
:101A1000EA1EFB1E8BE99FE00197F1F700C0000072
:101A20000150B9F67894C60124E0969587952A95D9
:101A3000E1F70F900F900F900F90DF91CF911F91D2
:101A40000F91FF90EF90DF90CF90BF9008951F937C
:101A5000CF93DF9300D000D0CDB7DEB7162FEFECD9
:101A6000F7E03197F1F700C00000F89419821A826C
:101A70001B821C82AE014F5F5F4F64E00E94090A27
:101A800089817894812783710F900F900F900F9028
:101A9000DF91CF911F910895EF92FF920F931F93C3
:101AA000CF93DF93D82F01E010E001C0000F8A959B
:101AB000EAF70E94B204F82E0E949304E82EC02F89
:101AC000C0958F2D8C230E949B048E2D8C230E9409
:101AD000840460E18D2F0E94270DC82FD13061F161
:101AE0002D9A61E18D2F0E94270DC82BD13031F145
:101AF0002D988E2D802B0E94840462E18D2F0E94F0
:101B0000270DC82B802F0E9471048F2D802B0E94DF
:101B10009B0462E08D2F0E94270DC82B8E2D0E9402
:101B200084048F2D0E949B048C2FDF91CF911F91F5
:101B30000F91FF90EF9008952E9AD3CF2E98D9CF82
:101B4000CF93DF93EC018091FE0381FD39C080913A
:101B50002E0590912F05A0913005B0913105AE0171
:101B60000D2E000C660B770B840F951FA61FB71F59
:101B700080932E0590932F05A0933005B0933105E7
:101B8000D7FF0EC0D195C195D1090E949304826000
:101B90000E948404219740F480E0DF91CF91089562
:101BA0000E9493048D7FF4CFF89482E00E94710428
:101BB00078948FE99FE00197F1F700C00000EACF29
:101BC0008EEFEBCFCF93DF93EC018091FE0380FD8E
:101BD00039C08091090590910A05A0910B05B0913B
:101BE0000C05AE010D2E000C660B770B840F951FB4
:101BF000A61FB71F8093090590930A05A0930B05B4
:101C0000B0930C05D7FF0EC0D195C195D1090E94A4
:101C1000930481600E948404219740F480E0DF9166
:101C2000CF9108950E9493048E7FF4CFF89481E0C1
:101C30000E94710478948FE99FE00197F1F700C04A
:101C40000000EACF8EEFEBCF83E080936A050E941D
:101C5000560580E48093170184E080937E0580E040
:101C600008958091B402882309F463C08091B3027F
:101C70009091B2028823C1F081508093B3029111F8
:101C800058C08FE694E0909399008093980080E488
:101C9000809390002F9A8091C20481608093C20447
:101CA00081E08093B2020895992351F01092900040
:101CB0002F988091C2048E7F8093C2041092B2024A
:101CC0008091B102882321F081508093B102089560
:101CD0004091B002E42FE695E695F0E0E455FD4F23
:101CE000808190E0437023E030E0241B3109220F13
:101CF000331F02C0959587952A95E2F7837082304D
:101D0000C9F08330D9F0813021F01092B30280E322
:101D100003C080E38093B3028093B1028091B0024C
:101D20008F5F8093B0029091B402891710F01092E7
:101D3000B002089580E98093B302E9CF1092B00217
:101D4000EDCFEF92FF921F93CF93DF937C01CB01F6
:101D5000142F160F181306C0DF91CF911F91FF901B
:101D6000EF900895EC01C7010E941C2F89938FEF1B
:101D7000E81AF80ACE01EECFCF93DF93CDB7DEB7E6
:101D800060970FB6F894DEBF0FBECDBF8F3F61F4F2
:101D90008093040180E060960FB6F894DEBF0FBE1A
:101DA000CDBFDF91CF9108958830A0F480930401D6
:101DB00020E18202C001112440E1BE016F5F7F4F2C
:101DC00093950E94A10EBE016F5F7F4F80E00E943D
:101DD000A809E0CF8CEFDFCFCF93DF93CDB7DEB78D
:101DE00060970FB6F894DEBF0FBECDBF8F3F61F492
:101DF0008093030180E060960FB6F894DEBF0FBEBB
:101E0000CDBFDF91CF9108958830A0F48093030176
:101E100020E18202C001112440E1BE016F5F7F4FCB
:101E20009E5F0E94A10EBE016F5F7F4F81E00E9406
:101E3000A809E0CF8CEFDFCFEF92FF921F93CF93F3
:101E4000DF937C01142F115030F4DF91CF911F915B
:101E5000FF90EF900895EB016991C7010E942A2F2E
:101E60008FEFE81AF80ABE01EECFBF92CF92DF9251
:101E7000EF92FF920F931F93CF93DF93CDB7DEB70F
:101E800060970FB6F894DEBF0FBECDBFB82E162FE9
:101E9000BE016F5F7F4F0E940F0BE12C92E0F92E85
:101EA000B11003C0E12CFF24F39417FD1CC020E106
:101EB0001202C001112440E1BE016F5F7F4F8E0D01
:101EC0009F1D0E941C0F60960FB6F894DEBF0FBED8
:101ED000CDBFDF91CF911F910F91FF90EF90DF90D9
:101EE000CF90BF90089510E000E06E0181E1C80E30
:101EF000D11CF801B1101BC0EB56FC4FCE0101966E
:101F00002491DC012D93CD013196AC15BD05C1F7AF
:101F100040E1BE016F5F7F4FC8018E0D9F1D0E9483
:101F20001C0F005F1F4F0038110519F7CCCFEB5E77
:101F3000FC4FE4CFCF93DF93C0E0D1E06FEFCE0151
:101F40000E942A2F2196C63183E0D807B9F780E096
:101F5000DF91CF9108958091A8049091A904A09158
:101F6000AA04B091AB0485FF07C06091040167FD2E
:101F700003C080E00E94350F8091A8049091A904CD
:101F8000A091AA04B091AB0486FF07C06091030141
:101F900067FD03C081E00E94350F8091A8049091F5
:101FA000A904A091AA04B091AB0487FF04C06FEF0D
:101FB00080E00E94350F8091A8049091A904A0911F
:101FC000AA04B091AB0490FF04C06FEF81E00E94BF
:101FD000350F8091A8049091A904A091AA04B09112
:101FE000AB0491FF08C0609113017091140180E06F
:101FF00093E00E943C2F8091A8049091A904A091A5
:10200000AA04B091AB0492FF08C0609111017091D5
:10201000120180E193E00E943C2F8091A8049091EE
:10202000A904A091AA04B091AB0493FF08C06091E9
:102030000F017091100182E093E00E943C2F80918B
:10204000A8049091A904A091AA04B091AB0494FFB4
:1020500008C060910D0170910E0182E193E00E9431
:102060003C2F8091A8049091A904A091AA04B0915A
:10207000AB0495FF0CC06091AD0484E193E00E9435
:102080002A2F6091AC0485E193E00E942A2F1092E0
:10209000A8041092A9041092AA041092AB04089507
:1020A000CF92DF92EF92FF92CF93DF9300D000D0D8
:1020B00000D0CDB7DEB7CE0105969F938F930497DE
:1020C0009F938F938BEA91E09F938F9380917C05F0
:1020D0008F9380917B058F930E94462E0FB6F894C4
:1020E000DEBF0FBECDBF019771F08DEF26960FB604
:1020F000F894DEBF0FBECDBFDF91CF91FF90EF9080
:10210000DF90CF9008958D8187FDF0CF80917D0580
:10211000843A19F18F3A79F1823A09F049C0C980BD
:10212000DA80EB80FC800E94B20481600E949B04F4
:102130008091090590910A05A0910B05B0910C05BD
:10214000B701A601481B590B6A0B7B0B80E00E946C
:10215000AE0887FF0EC08EEFC9CF89819A81AB810F
:10216000BC818093090590930A05A0930B05B09359
:102170000C0580E0BBCF49815A816B817C818CEF5B
:10218000413C34ED530731E0630771050CF0AECFED
:102190008091FF0382608093FF0370956095509556
:1021A00041955F4F6F4F7F4F80E00E94AE08E1CFB7
:1021B0008AEF9CCFCF93DF9300D00F92CDB7DEB7DD
:1021C000CE0101969F938F9302969F938F9387EBF7
:1021D00091E09F938F9380917C058F9380917B05F5
:1021E0008F930E94462E0FB6F894DEBF0FBECDBF70
:1021F000019739F08DEF0F900F900F90DF91CF91F5
:102200000895898187FDF7CF80917D05883A01F196
:1022100030F4893971F08A39A9F08AEFECCF823C29
:10222000D9F0833C01F1893AC1F78B810E94EC0E11
:10223000E2CF8B818093E30380E290E00E944F0421
:1022400080E0D9CF8B818093E40380E092E0F6CFE9
:102250008B810E94BC0ECFCF8B81082E000C990B76
:102260000E94E20DC8CF8B81082E000C990B0E94B2
:10227000A00DC1CFCF93DF9300D0CDB7DEB79E01C5
:102280002F5F3F4F3F932F937F936F9329EE30E063
:102290003F932F939F938F930E94462E0FB6F894EF
:1022A000DEBF0FBECDBF019731F489810F900F9033
:1022B000DF91CF9108958DEFF9CFCF93DF9300D0C9
:1022C000CDB7DEB7BE016F5F7F4F80917B059091E8
:1022D0007C050E943A1187FD20C089819A819C016A
:1022E0002F5F3F4F21303140E8F4909312018093EB
:1022F00011018091A8049091A904A091AA04B09121
:10230000AB0494608093A8049093A904A093AA04BA
:10231000B093AB040E94AB0F80E00F900F90DF9161
:10232000CF9108958CEFF9CFCF93DF9300D0CDB745
:10233000DEB7BE016F5F7F4F80917B0590917C057A
:102340000E943A1187FD20C089819A819C012F5FEC
:102350003F4F21343105E8F4909314018093130129
:102360008091A8049091A904A091AA04B091AB0413
:1023700092608093A8049093A904A093AA04B093B8
:10238000AB040E94AB0F80E00F900F90DF91CF91D4
:1023900008958CEFF9CF0F931F93CF93DF9300D065
:1023A000CDB7DEB7BE016F5F7F4F80917B05909107
:1023B0007C050E943A1187FD07C080917D05833A14
:1023C00051F0853A31F18AEF0F900F90DF91CF9164
:1023D0001F910F91089509811A810E94B2048260B1
:1023E0000E949B04A801110F660B770B80912E05AC
:1023F00090912F05A0913005B0913105481B590BE4
:102400006A0B7B0B81E00E94AE0887FF10C08EEF45
:10241000DBCF89819A81092E000CAA0BBB0B80931C
:102420002E0590932F05A0933005B093310580E0E1
:10243000CBCFCF93DF9300D0CDB7DEB79E012F5F18
:102440003F4F3F932F937F936F9324EE30E03F9362
:102450002F939F938F930E94462E0FB6F894DEBF62
:102460000FBECDBF019731F489810F900F90DF919E
:10247000CF9108958DEFF9CFCF92DF92EF92FF9237
:102480001F93CF93DF9300D0CDB7DEB71A821982A6
:1024900088ECE82E84E0F82E10E090E3C92E95E752
:1024A000D92EBE016F5F7F4F80917B0590917C0597
:1024B0000E94191287FD30C069817A81113041F084
:1024C0001230A1F1693B9BE0790730F08CEF24C01A
:1024D0006936E0E17E07D0F7643F91E07907B0F319
:1024E00020917B0530917C05280F311D87FD3A95A1
:1024F00030937C0520937B05C6010E943F2DF70198
:1025000066838091C6040E94F9041F5FF7E0EF0E16
:10251000F11C133031F680E00F900F90DF91CF91D6
:102520001F91FF90EF90DF90CF9008956938F3E10D
:102530007F0790F2CBCFCF93DF9300D000D0CDB701
:10254000DEB7BE016F5F7F4F80917B0590917C0568
:102550000E94191287FD26C020917B0530917C05D1
:10256000A901480F511D87FD5A95CA0150937C055A
:1025700040937B05BE016D5F7F4F0E94191287FD5E
:1025800011C089819A819C01205131092937334139
:1025900080F46B817C81613127E2720750F40E94E4
:1025A0005C0580E00F900F900F900F90DF91CF911E
:1025B00008958CEFF7CFCF93DF9300D0CDB7DEB780
:1025C0009E012F5F3F4F3F932F937F936F932DED8E
:1025D00030E03F932F939F938F930E94462E0FB628
:1025E000F894DEBF0FBECDBF019731F489810F9003
:1025F0000F90DF91CF9108958DEFF9CFCF93DF93B7
:102600000F92CDB7DEB7BE016F5F7F4F80917B0524
:1026100090917C050E94DB1287FD1FC020917B05F5
:1026200030917C05280F311D87FD3A9530937C054C
:1026300020937B058981813041F4109272051092BC
:102640007305109274051092750544E062E775E019
:1026500086E190E00E941C0F80E00F90DF91CF9107
:1026600008951F93CF93DF930F92CDB7DEB780917C
:102670007B0590917C05FC0110812EEB210F25300C
:1026800008F051C0019690937C0580937B05BE01B4
:102690006F5F7F4F0E94DB1287FD46C080917D05F2
:1026A000823E69F1833EB9F0813E39F48981143468
:1026B00071F02CF4133449F085B980E035C015343D
:1026C00041F01634C9F781BBF8CF88B9F6CF8BB982
:1026D000F4CF8EB9F2CF8981143469F024F4133425
:1026E00041F083B9EACF153441F01634D1F78FB9F0
:1026F000E4CF86B9E2CF89B9E0CF8CB9DECF89814A
:10270000143469F024F4133441F084B9D6CF15346D
:1027100041F01634D1F780BBD0CF87B9CECF8AB97C
:10272000CCCF8DB9CACF8CEF0F90DF91CF911F9195
:1027300008956DEA74E080917B0590917C050E947C
:10274000DB1287FD28C020917B0530917C05A90113
:10275000480F511D87FD5A95CA0150937C0540933F
:102760007B056CEA74E00E94DB1287FD14C0809147
:10277000A8049091A904A091AA04B091AB0490621E
:102780008093A8049093A904A093AA04B093AB04E7
:102790000E94AB0F80E00895CF93DF930F92CDB7E7
:1027A000DEB7BE016F5F7F4F80917B0590917C0506
:1027B0000E94DB1287FD0AC08981823078F4882369
:1027C00049F0EE9A81E08093C80280E00F90DF919B
:1027D000CF910895EE981092C802F7CF8CEFF6CF04
:1027E000DF92EF92FF920F931F93CF93DF93CDB7BA
:1027F000DEB762970FB6F894DEBF0FBECDBFD090A4
:102800007D05E0907B05F0907C05BE016F5F7F4FFA
:10281000C7010E94191287FD60C08701080F111DB2
:1028200087FD1A95F8019081992341F0BE016D5FF3
:102830007F4FC8010E94191287FD4FC0080F111D5C
:1028400087FD1A95F8019081992341F0BE016B5FD5
:102850007F4FC8010E94191287FD3FC0080F111D4C
:1028600087FD1A95F8019081992341F0BE01695FB7
:102870007F4FC8010E94191287FD2FC0080F111D3C
:1028800087FD1A95F8019081992341F0BE01675F99
:102890007F4FC8010E94DB1287FD1FC0080F111D6A
:1028A00087FD1A95F8019081992341F1CE01419657
:1028B0009F938F9307979F938F9387EB91E09F93BD
:1028C0008F931F930F930E94462E0FB6F894DEBF8E
:1028D0000FBECDBF019779F08DEF62960FB6F894D9
:1028E000DEBF0FBECDBFDF91CF911F910F91FF9043
:1028F000EF90DF900895898987FDEFCF080F111DB4
:1029000087FD1A95F8018081811125C0802F8E19CD
:1029100087FDE3CF81E0F7EADF1280E0BE016F5F61
:102920007F4F0E94A80927EA8091A8049091A904EA
:10293000A091AA04B091AB04D216B1F0806280934A
:10294000A8049093A904A093AA04B093AB040E9496
:10295000AB0F80E0C2CFBE01655F7F4FC8010E9410
:10296000191287FFD3CFB9CF8064E9CFCF93DF931C
:1029700000D000D000D00F92CDB7DEB7BE01695FA6
:102980007F4F80917B0590917C050E94DB1287FD33
:102990003DC0E0917B05F0917C05E80FF11D87FDBE
:1029A000FA95F0937C05E0937B0519821A821B82CD
:1029B0001C828081811113C089819A81AB81BC8185
:1029C00080936E0590936F05A0937005B093710589
:1029D0008091C2049F81911126C08D7F25C0CE01B8
:1029E00005969F938F9304979F938F9381EB91E02C
:1029F0009F938F93FF93EF930E94462E0FB6F89408
:102A0000DEBF0FBECDBF019751F08DEF27960FB6F9
:102A1000F894DEBF0FBECDBFDF91CF9108958D81B9
:102A200087FFCACFF3CF82600E94320580E0EECFED
:102A3000AF92BF92DF92EF92FF920F931F93CF93CB
:102A4000DF93CDB7DEB760970FB6F894DEBF0FBE49
:102A5000CDBF8091AE048F3FC9F489E691E09F938A
:102A60008F930E94212E0F900F9080E060960FB6FA
:102A7000F894DEBF0FBECDBFDF91CF911F910F91B4
:102A8000FF90EF90DF90BF90AF9008958E010F5FA1
:102A90001F4F80E1F80111928A95E9F744E050E078
:102AA00061EB74E0C8010E94E72E7E01F6E0EF0EB4
:102AB000F11C43E050E065EB74E0C7010E94E72E93
:102AC000D090B804DA865E018BE0A80EB11C45E018
:102AD00050E069EB74E0C5010E94E72EBF92AF920F
:102AE0008D2D0D2C000C990B9F93DF92FF92EF928E
:102AF0001F930F9386E591E09F938F930E94212E61
:102B00000FB6F894DEBF0FBECDBFAFCFCF93DF932C
:102B1000CDB7DEB7AE014B5F5F4FFA0161917191A6
:102B2000AF0180917705909178050E945F2EDF912B
:102B3000CF910895CF93DF93EC0180E090E20E9463
:102B40004F04CE0196958795969587952091D5034C
:102B50003091D6033695279536952795821B930B92
:102B600081389105D4F020E031E0A901481B590BD0
:102B7000CA01C82F880FDD0BDF93CF9383EA92E061
:102B80009F938F930E9486150F900F900F900F9038
:102B9000CE01DF91CF910C94A00D80385FEF9507A7
:102BA00044F79395E6CFCF92DF92EF92FF92809118
:102BB0006B058823E9F08630B9F048F4833071F072
:102BC000843081F0FF90EF90DF90CF9008958730B0
:102BD00069F08830B9F710926B05F4CF84E08093E8
:102BE0006B05F0CF85E0FBCF87E0F9CF88E0F7CF2A
:102BF0008091010118165CF4833009F40AC10CF0CD
:102C0000A1C0813009F4AFC0823009F4D4C08091F2
:102C1000000118165CF4843009F418C20CF0DFC10E
:102C2000813009F4F1C1833009F404C2F894F090C2
:102C3000E7031092E7037894FF2009F4C3CFF0FE76
:102C400010C08091F0039091F1036FE572E09695CA
:102C50008795969587950E94E3039093C102809390
:102C6000C002F1FE0AC08091F2039091F3030E942A
:102C7000C1049093C3028093C202F2FE0AC0809105
:102C8000F4039091F5030E94C1049093C5028093D0
:102C9000C402F3FE0AC08091F6039091F7030E94EC
:102CA000C1049093C7028093C602F4FE0AC08091CB
:102CB000E8039091E9030E94C90490930601809370
:102CC0000501F5FE0AC08091EA039091EB030E9492
:102CD000C9049093080180930701F6FE0AC0809111
:102CE000EC039091ED030E94C90490930A01809334
:102CF0000901F7FE67CF2091EE033091EF0336957F
:102D0000279536952795AAEBB3E10E94892D9B0163
:102D1000AC019AE056954795379527959A95D1F746
:102D200044275527A8E3BAE10E94982D2AE09695FA
:102D30008795779567952A95D1F770930C016093E5
:102D40000B0140CF843009F498C0853009F05FCF83
:102D50008091FE0380FD5BCF8091BF0280FD3DC16D
:102D60001092010154CF1092BD02809109059091FB
:102D70000A05A0910B05B0910C058093B9029093C0
:102D8000BA02A093BB02B093BC0280E00E94BC0ECA
:102D90000E94B20481600E949B0480916C05816056
:102DA00080936C0540E859EA63E070E080E00E949F
:102DB000AE0882E029C08091FE0380FD28CF80917B
:102DC000BF0280FF24C02FEF31EE84E0215030405D
:102DD0008040E1F700C000008091090590910A054C
:102DE000A0910B05B0910C058093B9029093BA02A3
:102DF000A093BB02B093BC0240E058EF6FEF7FEFAF
:102E000080E00E94AE0883E08093010100CF8EEF46
:102E1000FBCF8091FE0380FDFACE8091BF0280FD42
:102E2000DCC08091090590910A05A0910B05B09135
:102E30000C058093B9029093BA02A093BB02B093A1
:102E4000BC0281E00E94BC0E8091090590910A05A8
:102E5000A0910B05B0910C058093B9029093BA0232
:102E6000A093BB02B093BC0240E058E160E070E088
:102E700080E00E94AE0884E0C7CF8091FE0380FD11
:102E8000C6CE8091BF0280FFC2CFC0900905D0900E
:102E90000A05E0900B05F0900C058091B902909125
:102EA000BA02A091BB02B091BC02C81AD90AEA0AC0
:102EB000FB0A8091BD02813001F18230C1F18111A4
:102EC000A6CEFF92EF92DF92CF9288E492E09F939A
:102ED0008F930E94212E0F900F900F900F900F90C4
:102EE0000F9080910F019091100197FD04C082E036
:102EF0008093BD025ECF81E0FBCFFF92EF92DF9225
:102F0000CF9281E392E09F938F930E94212ED092E3
:102F10001001C0920F0182E08093BD0280930101F5
:102F20000F900F900F900F900F900F9070CEFF9218
:102F3000EF92DF92CF92809110018F9380910F01D9
:102F40008F9388E192E09F938F930E94212E80912E
:102F50000F0190911001AC0140585109052E000C51
:102F6000660B770B2DB73EB7285F3F4F0FB6F8942F
:102F70003EBF0FBE2DBFC416D506E606F70638F1D4
:102F800080589F4F092E000CAA0BBB0B8C159D057A
:102F9000AE05BF05E0F080E00E94BC0E80910905FF
:102FA00090910A05A0910B05B0910C058093B90290
:102FB0009093BA02A093BB02B093BC0240E05CEFD6
:102FC0006FEF7FEF80E00E94AE0885E01DCF8FEFAE
:102FD0009FEF9093100180930F018DEF15CF8530F7
:102FE00009F441C0863009F021CE8091FE0381FDB5
:102FF0001DCE81E090E00E944F048091BE0487FDC9
:1030000042C01092000112CE0E94B20482600E945F
:103010009B0480E00E94EC0E81E090E00E944F044F
:103020008091BE0487FD02C084E001C083E08093EC
:103030000001FCCD8091FE0381FDF8CD40E05EEC07
:103040006FEF7FEF81E00E94AE08EECF8091FE032C
:1030500081FDECCD40E052E060E070E081E00E9454
:10306000AE0885E0E4CF8091FE0381FDDFCD81E0F5
:103070000E94EC0E40E05CEF6FEF7FEF81E00E947A
:10308000AE0886E0D4CF8EEFD2CF8091FE0383705E
:1030900051F480910101181634F080910001181646
:1030A00014F080E008950E94D315EFCFCF93C82F7E
:1030B0008EEB91E0CE3030F425E0C29FC0011124A8
:1030C0008E529E4F9F938F931F92CF9383EC91E0EC
:1030D0009F938F930E948615C093B8020F900F9014
:1030E0000F900F900F900F90C130C1F40FB6F8946D
:1030F000A8958091600088618093600010926000C4
:103100000FBEF89481E00E94B3060E94310E8FE05A
:103110009EE00197F1F700C00000F7CFC93038F406
:103120008FEF80937E058C2FCF910C94B306CF91B7
:1031300008951F93CF93DF930F92CDB7DEB7BE01F3
:103140006F5F7F4F80917B0590917C050E94DB1221
:1031500087FD19C080917D05853809F4CEC0D0F572
:10316000803109F488C0A0F48D3009F46FC08F302D
:1031700009F470C08C3099F48981843008F0FBC068
:103180000E949B0480E00F90DF91CF911F910895E2
:10319000813409F486C080F4813109F477C0813B21
:1031A00009F4E1C0893B09F4E3C0E7EBF2E08234C3
:1031B00009F4DBC08AEFE7CF823809F48DC0833889
:1031C00071F71981111103C080E00E944F0510931F
:1031D0000704D8CF8A3A09F49BC078F4853909F4FA
:1031E00067C0863909F46FC08A38C9F68981803191
:1031F00008F0C1C00E94F904C5CF813B09F48EC01C
:10320000C0F48D3A61F69981923008F0B4C0809193
:103210001601992309F49DC084608093160188E00B
:1032200090E00E944F048091FF0381608093FF0330
:10323000A9CF883B09F478C0843C09F0B0CF8981DC
:10324000803108F098C0809324049CCF89810E942B
:10325000320598CF8981843008F08DC09091FE03AB
:103260009F7040E1849F90011124922B9093FE0364
:103270000E94840487CF9981943008F07CC08091AB
:10328000FE03807F892B8093FE037CCF998194304D
:1032900008F071C080916C05807F892B80936C054C
:1032A00071CF8981893008F066C00E9456186ACFB4
:1032B0008981803408F05FC08093E50380E190E06D
:1032C0000E944F045FCF8981803408F054C08093FE
:1032D000E60380E091E0F4CF8981843008F04BC0B0
:1032E00080936A05882319F00E9456054BCF809180
:1032F000C604877F8093C60445CF99819230D8F564
:103300008091C204992311F08460A1CF8B7F9FCF5D
:103310008981823080F58093810534CF8981853120
:1033200050F5809302012ECF89818B3F20F5809349
:103330006D05882321F08A3F39F4589A01C05898C6
:1033400084B58F7C84BD1ECF8A5F88BD84B58062C2
:10335000F9CF8B7F8093160188E090E00E944F04A4
:103360001092FF030FCFE2E0F1E0898180830ACF62
:10337000E7E1F1E0FACF8CEF06CF0F931F93CF93E5
:10338000DF9300D0CDB7DEB7BE016F5F7F4F809176
:103390007B0590917C050E94191287FD0AC08091DF
:1033A0007D058C3BD1F160F48E38F1F08F3849F116
:1033B0008AEF0F900F90DF91CF911F910F91089599
:1033C0008D3B09F469C08E3B99F789819A8190936E
:1033D0000404809303048091030490910404892BD6
:1033E00061F00E94D315F7CF49815A8170E060E007
:1033F00080E00E94AE0887FD02C080E0DACF8EEF49
:10340000D8CF49815A8170E060E070956095509501
:1034100041955F4F6F4F7F4FEBCF09811A810115A7
:1034200024E0120708F041C080E090E10E944F04C0
:10343000C80124E0969587952A95E1F72091D3035A
:103440003091D40344E0369527954A95E1F7821BE5
:10345000930B81329105CCF020E430E0A901481BA8
:10346000590BCA01082F880F110B1F930F938BE97B
:1034700091E09F938F930E948615C8010E94E20DF0
:103480000F900F900F900F9094CF803E5FEF9507B5
:103490004CF7805C9F4FE6CF89819A81811524E0AB
:1034A000920718F40E949A1584CF8CEF82CFAF92C6
:1034B000BF92CF92DF92EF92FF920F931F93CF9321
:1034C000DF9300D000D0CDB7DEB7F89419821A820E
:1034D0001B821C82AE014F5F5F4F60E080E00E9464
:1034E000090A19810A81FB80EC8080E00E94940A1D
:1034F000EF92FF920F931F931F928F9307ED13E0AC
:10350000F80183818F9382818F9381818F93808152
:103510008F9389ECE82E82E0F82EF70180811F92CC
:103520008F9382E191E09F938F930E948615198279
:103530001A821B821C82AE014F5F5F4F60E081E008
:103540000E94090AD980CA80BB80AC8081E00E94B9
:10355000940AAF92BF92CF92DF921F928F93F8019D
:1035600087818F9386818F9385818F9384818F93B9
:10357000F70181811F928F938EEE90E09F938F933E
:103580000E94861578940FB6F894DEBF0FBECDBFAB
:1035900080E00F900F900F900F90DF91CF911F91CF
:1035A0000F91FF90EF90DF90CF90BF90AF90089574
:1035B000CF93DF93CDB7DEB7AE014B5F5F4FFA011C
:1035C00061917191AF0180917F05909180050E947A
:1035D0005F2EDF91CF9108950F931F93CF93DF93C9
:1035E0008091CC02E091CD03E81BC82F8A3008F00F
:1035F000CAE08C1B8093CC02CE0F03E911E0EC13E0
:1036000006C080E0DF91CF911F910F910895D1E026
:10361000DE0FF0E0E353FD4F80811F928F931F93E5
:103620000F930E94D81A0F900F900F900F90ED2FCC
:10363000E6CFE6EFF4E086898F9385898F938489BE
:103640008F9383898F938EE891E09F938F930E944D
:10365000D81A0F900F900F900F900F900F9080E05E
:1036600008958AE391E09F938F9381E08F939AEB83
:103670009F931F928F931F928AE08F931F921F92A6
:103680008BE391E09F938F930E94D81A8DB79EB7DA
:103690000C960FB6F8949EBF0FBE8DBF80E00895C4
:1036A000EDE6F5E080858F9387818F9386818F93F8
:1036B00085818F9389E891E09F938F930E94D81A18
:1036C0000F900F900F900F900F900F9080E0089543
:1036D0000E948C050097A1F0FC018081282F082E04
:1036E000000C330B3F938F9386E391E09F938F936E
:1036F0000E94D81A0F900F900F900F9080E00895BD
:1037000080E0ECCF9F938F9389ED90E09F938F9310
:103710000E94D81A0F900F900F900F9097FD80E0A5
:10372000089580912E0590912F050E94821B80E0C4
:1037300008950F931F93CF93DF930E948C050097FA
:1037400059F0EC018C01085F1F4F899199910E94FB
:10375000821BC017D107C9F780E0DF91CF911F917D
:103760000F9108950E948C05009739F0FC0180812B
:1037700091810E94821B80E0089590E080E0F9CF63
:103780009F938F9385ED90E09F938F930E94D81A1B
:103790000F900F900F900F9097FD80E008958FEF9E
:1037A00093E00E941C2F8150990B2AE0AC01249FCA
:1037B000C001259F900D11240E94C01B80E0089538
:1037C0001092B6021092B5028091B5029091B602A5
:1037D0002091FE032370822B9093B6028093B50252
:1037E00080917E058F3F21F085E090E00E944F049C
:1037F0002091BF0427FD09C08091B5029091B602C7
:1038000080649093B6028093B50225FD09C0809133
:10381000B5029091B60280689093B6028093B5028B
:103820008091BE0487FD09C08091B5029091B602D7
:1038300091609093B6028093B502809176058823BB
:1038400049F08091B5029091B60290629093B602D1
:103850008093B50280917E05823001F581E08093EE
:103860006A050E94560583E080937E0585E080937B
:10387000060480912304882349F08091B502909139
:10388000B60290649093B6028093B5028091B5021F
:103890009091B6020E94C01B80E0089580917E0541
:1038A0008F3F21F78091B5029091B6029068909376
:1038B000B6028093B502DACFEF92FF920F931F9377
:1038C000CF93DF938AE0E82E84E0F82ED0E0C0E0CA
:1038D00000E315E7F701628173816115710571F0ED
:1038E0008091C60490E00C2E02C0959587950A94AD
:1038F000E2F780FF15C0C8010E943F2DCB010E9456
:10390000C01B219628E0E20EF11CC330D10511F74F
:1039100080E0DF91CF911F910F91FF90EF9008957C
:1039200070E060E0EBCF0F931F93CF93DF930E9483
:103930008C05009759F0EC018C01085F1F4F8991AD
:1039400099910E94C01BC017D107C9F780E0DF9191
:10395000CF911F910F9108950E948C05009739F027
:10396000FC01808191810E94C01B80E008958091BC
:103970007D058C3B29F08D3B61F090E080E0F3CF3A
:1039800080E090E10E944F048091D3039091D40392
:10399000EACF80E090E20E944F048091D50390919D
:1039A000D603E1CF1F928F9381ED90E09F938F9389
:1039B0000E94D81A0F900F900F900F9097FD80E003
:1039C0000895E0917B05F0917C0590812EEB290F05
:1039D000253008F044C020917D05223E69F1233E48
:1039E000C1F0213E31F4943481F03CF4933459F029
:1039F00085B10E94D21C80E00895953441F0963440
:103A0000B9F781B3F6CF88B1F4CF8BB1F2CF8EB1D5
:103A1000F0CF943469F024F4933441F083B1E9CFCA
:103A2000953441F09634D1F78FB1E3CF86B1E1CF31
:103A300089B1DFCF8CB1DDCF943469F024F49334B5
:103A400041F084B1D6CF953441F09634D1F780B3AC
:103A5000D0CF87B1CECF8AB1CCCF8DB1CACF8CEFCA
:103A600008958091AD040E94D21C8091AC040E9404
:103A7000D21C80E008958091C204869581700E94D6
:103A8000D21C80916E0590916F05A0917005B09148
:103A900071050097A105B10581F0BF93AF939F9386
:103AA0008F9389E891E09F938F930E94D81A0F908B
:103AB0000F900F900F900F900F9080E008950E944C
:103AC0008C05009731F0FC0180810E94D21C80E0BF
:103AD000089580917D058539F1F1A8F4803189F14F
:103AE00040F48C3041F18F3049F18130F9F080E0C1
:103AF000ECCF853851F18A3809F441C08131B9F7EA
:103B000080916C0520C08D3A81F140F4893939F1FA
:103B10008A3941F1863959F781E01EC0883C49F164
:103B2000893C59F18E3A19F78CB111C08091760514
:103B300010927605CACF0E94B204C7CF0E949304A8
:103B4000C4CF8091FE038F70C0CF8091C20482FBEE
:103B5000882780F9BACF80E00E94FD0AB6CF809115
:103B6000EA04B3CF8091F304B0CF8091FF0381705A
:103B7000ACCF80E00E94F50BA8CF81E0FBCF809115
:103B8000C6048770A2CFFF920F931F93CF93DF934A
:103B90008C01FC01808191810E94C01BC82FF8011B
:103BA000828193810E94C01BC80FF8018481958196
:103BB0000E94C01BC80FF801868197810E94C01B1C
:103BC000C80FF80180850E94D21CC80FF8018185BA
:103BD000282F082E000C330B3F938F9386E391E040
:103BE0009F938F930E94D81AF82ED92FF8018285BF
:103BF00093850E94C01B2F2D3D2F0F900F900F908B
:103C00000F9037FD20E08C0F820FDF91CF911F9135
:103C10000F91FF9008951F93CF93DF93CDB7DEB739
:103C200061970FB6F894DEBF0FBECDBF10917D0532
:103C3000BE016F5E7F4F80917B0590917C050E9455
:103C4000DB1287FD1AC08989883008F520E032E050
:103C5000173A11F020E031E040E1849FC0011124C7
:103C600040E1BE016F5F7F4F820F931F0E94A10E44
:103C7000CE0101960E94C31D80E061960FB6F894B4
:103C8000DEBF0FBECDBFDF91CF911F9108958CEFA6
:103C9000F4CFCF93DF93CDB7DEB760970FB6F8942C
:103CA000DEBF0FBECDBF81E090917D05973A09F050
:103CB00080E0BE016F5F7F4F0E940F0BCE01019627
:103CC0000E94C31D80E060960FB6F894DEBF0FBE61
:103CD000CDBFDF91CF910895CDB7DEB760970FB616
:103CE000F894DEBF0FBECDBF84B78093760514BEB7
:103CF0008091760583FF11C08091000990910109A0
:103D0000853A9A4551F480917605877F80937605B0
:103D1000809176058068809376058AE595EA909390
:103D20000109809300099FB7F894A89584B7877F0D
:103D300084BF18E110936000109260009FBF8FE075
:103D40000FB6F894A895109360000FBE80936000A2
:103D50001092D7001092D80095E19093C5008093FF
:103D6000C60080E88093610010926100789481E041
:103D70000E944F058091C80082608093C80080E156
:103D80008093CC001093C9008091C9008068809313
:103D9000C9008CE7809328041092290410922A0409
:103DA00088E992E027EE3BE03093A1022093A00245
:103DB0002FEC3BE03093A3022093A20223E0209358
:103DC0009B021092A5021092A4025A9A9093B105F8
:103DD0008093B0059093B3058093B20590938305CB
:103DE000809382059093800580937F05909378055A
:103DF000809377058FE694E09F938F930E94212E06
:103E0000809176051F928F9381E694E09F938F9324
:103E10000E94861580917100817F809371001092BD
:103E200090008AE08093910010929900109298007F
:103E300010929B0010929A0010929D0010929C008C
:103E400010929500109294003E9A46980F900F9011
:103E50000F900F900F900F908091AE048F3FC1F4A0
:103E60008FEF9FEF909314018093130190931201B1
:103E7000809311018FEF9FEFDC018093A804909352
:103E8000A904A093AA04B093AB040E94AB0F82C014
:103E900044E062E775E086E190E00E94A10E809127
:103EA000720590917305A0917405B09175058F3FCF
:103EB0009F4FAF4FBF4F79F4109272051092730568
:103EC000109274051092750544E062E775E086E192
:103ED00090E00E941C0F00E011E040E1BE016F5F26
:103EE0007F4FC8010E94A10E89819A8181329E4430
:103EF00008F0B6CF8B819C8181329E4408F0B0CF10
:103F00008D819E810C978D34924008F0A9CF8F81CE
:103F100098850C978D34924008F0A2CF8985803423
:103F200008F09ECF8B859C858938934108F098CF07
:103F3000005F1F4F003821E0120779F680E093E020
:103F40000E94242F909314018093130180E193E049
:103F50000E94242F909312018093110182E093E03C
:103F60000E94242F9093100180930F0182E193E02F
:103F70000E94242F90930E0180930D0184E193E021
:103F80000E941C2F8093AD0485E193E00E941C2FBA
:103F90008093AC0424E933E6F9014591559165918C
:103FA000749180E090E0DC01F0E0E0E02E173F0744
:103FB00009F09DC0481759076A077B0709F0A6C09A
:103FC00040E050E0BA01E0E0F0E7CF010196E49173
:103FD0004E0F511D611D711DFC01803FAFE79A0717
:103FE000A1F746365D496740710509F091C0AEEA18
:103FF000B4E09D01FC014491F90141939F010196B8
:104000008115F0E89F07B1F72EEB34E08D918F3FDB
:1040100009F077C08093AE0489E0F0E0E0E080939F
:104020005700E491EE3509F075C0E3E0F0E08093CD
:104030005700E491E83D09F06DC0E2E0F0E08093C4
:104040005700E491E83C09F065C0E1E0F0E08093BE
:10405000570084918F738F3219F085E00E945618B3
:1040600084B1817F84B984B1876084B985B1817F4F
:1040700085B9289A80E58CBD1DBC8AB182618AB958
:104080008BB182618BB98FE39CE90197F1F700C096
:104090000000249A2C9A2C982C9A60E880E00E94C8
:1040A000E90660EE81E00E94E9066AEC82E10E9486
:1040B000E90660EE83E10E94E90680E00E94D706EF
:1040C000803851F19FEF809176058E7FB1F5809118
:1040D000BF0487FF32C089E594E09F938F930E94CD
:1040E000861580E00E944F050F900F90FFCF8F0143
:1040F0000F5F1F4FE4918E0F911DA11DB11DF8019F
:1041000055CF2A173B0709F081CF86CF81E0A6CF94
:1041100082E0A4CF84E0A2CF81E00E94D706803E57
:1041200089F682E10E94D7068093BE0483E10E9453
:10413000D7068093BF0490E0C6CF9F3F19F486E076
:104140000E9456181092C1041092C00480917A0007
:10415000876080937A0080917C00806480937C00EB
:1041600080917A00806880937A0013E010937E003B
:104170000E94AA0B279A209A559A509A2F9A289A09
:104180005D9A589A81E08093C20480936A058AEF11
:1041900080936D0584E190E09093DE048093DD04CC
:1041A00088E08093C60424E12093CE048CE390E061
:1041B0009093C9048093C8042093D5049093D004AD
:1041C0008093CF042093DC049093D7048093D6048B
:1041D000259A269A2D982E9856985798519A549A1F
:1041E000599A5C9A80E00E94420B082F81E00E945D
:1041F000420B87FD02C007FF8EC087E00E94561861
:1042000080B38F7880BB81B3806781BB879A8091B0
:104210001601877E8093160188E090E00E94640476
:104220001092650562E370E088EB91E00E945C0506
:104230001092660510926705109268051092690544
:1042400083E084BD85BD9DE797BD96E096BD8093D4
:104250006E0080916A008F7C80936A0080916A0072
:10426000806280936A0080917E05811108C00E945F
:104270004C0D882309F41CC188E00E9456188091D7
:104280007E05811105C00E94D10C81E00E94D10CF5
:1042900080917E0581110CC012E010936A050E9486
:1042A000560588E08093170110937E0510926B05E8
:1042B0008CE4E82E87E0F82EA895809179059091FE
:1042C0007A05892B09F0FAC08DB79EB790937A05CD
:1042D000809379058091AE059091AF058A970CF493
:1042E00013C18FEF2091AE053091AF052A32310511
:1042F0000CF413C13F932F93FF92EF920E94D81AB0
:104300001092AF051092AE050F900F900F900F9086
:104310000E94D315D1CF2091E4043091E50440915F
:10432000E6045091E704507F54602093E4043093F6
:10433000E5044093E6045093E7046CEE80E00E94AD
:10434000680A2091ED043091EE044091EF04509101
:10435000F004507F52602093ED043093EE044093BC
:10436000EF045093F0046CEE81E00E94680A68E16B
:1043700080E00E94BE0A66E080E00E94AC0A68E12C
:1043800081E00E94BE0A68E081E00E94AC0A9FEFD3
:10439000A0E7B2E09150A040B040E1F700C00000BB
:1043A0000BE1E0E0F5E0DF01202F1D922A95E9F70F
:1043B00088E58093F60480E293E09093F80480937C
:1043C000F70490E8E92E9CE0F92EF092FA04E092CE
:1043D000F90480EC94E49093FC048093FB048AEF4E
:1043E00090E09093FE048093FD04909300058093E9
:1043F000FF0480E00E942509E5E2F5E0DF011D925F
:104400000A95E9F789E580931B05F0921D05E09276
:104410001C0580EC93E090931F0580931E0580E0BF
:1044200095E090932105809320058CE090E0909397
:10443000230580932205909325058093240581E030
:104440000E942509809181008F7E80938100809158
:104450008100886080938100809180008D7F8093AF
:104460008000809180008E7F80938000809180000A
:104470008F7380938000809180008F7C8093800078
:1044800080918100887F82608093810080E092E04B
:104490009093890080938800109285001092840088
:1044A00080916F00826080936F0010936C05A8CE9E
:1044B00081E00E944C0D8111DFCEE1CE2DB73EB7D9
:1044C0008091790590917A052817390709F402CF70
:1044D0000E94BD0B8D3011F08A3009F480E02091EC
:1044E000AE053091AF05F901EC57FA4F8083882370
:1044F00009F4F8CE2F5F3F4F3093AF052093AE0500
:104500002A3231050CF0EECE809182059091830520
:104510000E94B72D87FFDECFE5CE121613060CF0F2
:10452000F7CE8111F5CE80918105882381F06091CD
:104530007F057091800584E895E00E94F62E6091D9
:104540007F05709180058AE090E00E94F12D109126
:104550008405113211F01F33A1F4E0918505EE239B
:1045600009F44FC0809188058F7D71F42DE043E000
:1045700067EA75E085E895E00E949406E3E08F3FE6
:1045800091F423E030E036C0809189058F7DC9F732
:104590002DE344E066E774E085E895E00E94940628
:1045A000E4E08F3F71F30E2E000CFF0BEB57FA4F38
:1045B0009081911128C090917E059F3F29F482300F
:1045C00018F0813409F03FC080937D054DE06BED1C
:1045D00075E0113229F045E362E076E01F3389F699
:1045E0000E948006E82FFF27E1950CF4F0959F01CB
:1045F000882361F183E497E03F932F939F938F93F8
:104600007DCE80E0D0CF903209F0BBCF90917E0577
:104610009F3FC9F0803E20F090917E05943099F440
:1046200080937D053196F0937C05E0937B0541E313
:1046300061EA76E01132A1F21F3309F0A2CF45E022
:1046400064E377E0CDCF25E030E0D4CF88E497E095
:10465000D3CF1F920F920FB60F9211246F927F92B9
:104660008F929F92AF92BF92CF92DF92EF92FF9282
:104670000F931F932F933F934F935F936F937F936A
:104680008F939F93AF93BF93EF93FF93CF93DF935A
:1046900000D000D0CDB7DEB7809108049091090416
:1046A0009C012F5F3F4F3093090420930804883EFC
:1046B000934008F401C11092090410920804789400
:1046C00080910704882339F0815080930704811179
:1046D00002C00E944F0580917E058330A9F480912D
:1046E0000604882389F08091060481508093060493
:1046F00081110AC012E010936A050E94560588E0F5
:104700008093170110937E058091BF0487FDBCC084
:10471000809105048F5F80930504863048F064E63D
:1047200070E08CED90E00E945C0580E00E944F05F7
:1047300084E090E00E9464048091C20481FF13C071
:104740008091720590917305A0917405B0917505E3
:104750000196A11DB11D8093720590937305A093DE
:104760007405B0937505809122048111A1C0C09099
:10477000C604D12C409123042AE034E0E8ECF4E0B4
:10478000F12CE12CAA24A394B12C9E2CC6010E2C52
:1047900002C0959587950A94E2F780FF5FC0D90122
:1047A0006D917C9111970081118186806115710551
:1047B00009F476C0842F90E0809590950E2C02C06D
:1047C000959587950A94E2F780FF6AC014968D91BB
:1047D0009C91880F991F0E943F2DD90112968D91AF
:1047E0009C911397680F791F7695679513967C9324
:1047F0006E931297882D90E06817790708F047C0EC
:10480000861B970B880F991F800F911F91838083C0
:10481000D90111961C921E9215961C921E92149705
:10482000882D90E0608171816817790748F4918341
:104830008083C501092C01C0880F0A94EAF7482B30
:10484000842F90E002C0959587959A94E2F780FFB7
:1048500005C0D90113961C921E921297BFEFEB1A56
:10486000FB0A285F3F4F379663E0E616F10409F034
:104870008CCF4093230480910009909101098A35DF
:10488000954AE1F00E94BD0B1092050451CF8617A6
:10489000970708F0BDCF800F911F861B970BB6CFEF
:1048A000C80196958795081B190B11830083B8CF13
:1048B000815080932204DFCF7894DDCF80917E05F4
:1048C0008F3F29F50E94310E0F900F900F900F909F
:1048D000DF91CF91FF91EF91BF91AF919F918F9118
:1048E0007F916F915F914F913F912F911F910F9108
:1048F000FF90EF90DF90CF90BF90AF909F908F9000
:104900007F906F900F900FBE0F901F901895809121
:104910006E0590916F05A0917005B091710500979B
:10492000A105B105E9F00197A109B10980936E05D0
:1049300090936F05A0937005B0937105892B8A2B16
:104940008B2B71F48091C2048D7F8093C20480917F
:1049500016018E7F8093160188E090E00E94640427
:104960008091030490910404892B49F08091030401
:104970009091040401979093040480930304809120
:10498000010490910204009749F00197909302046A
:1049900080930104892B11F4109290008091D00330
:1049A00081110DC080912604909127048168986040
:1049B00090932704809326048BE08093D003F0909B
:1049C000FE03E090D0038F2D837009F404C1B2E0A0
:1049D000EB1290C00E94B20480FF19C09091CF03E7
:1049E0004091D7035091D8036091D9037091DA03B5
:1049F000442755276627707E41155105610570468D
:104A000009F06EC0943118F49F5F9093CF0381FF3B
:104A100019C08091CE034091DB035091DC0360917B
:104A2000DD037091DE03442755276627707E41150C
:104A300051056105704609F058C0843118F48F5F44
:104A40008093CE03EA94E092D0039FB192959F7039
:104A50008091C5044091250449274823909325045B
:104A60009091C7042091C3043091C404EAE0F4E0BB
:104A7000B0E0A0E050E001E010E0692F70E00A2E05
:104A800002C0759567950A94E2F760FFA7C0B80168
:104A90000A2E01C0660F0A94EAF7609596231782E2
:104AA000168211963896A330B10539F74091DF048C
:104AB0005091E0044217530709F0CCC040916A05B9
:104AC0006091D1037091D203423009F4A6C0433003
:104AD00009F469C1413009F0AFC040910201AAC098
:104AE000992309F494CF915090CF882309F4AACF49
:104AF0008150A6CF21E0E212A5CF8091D7039091FB
:104B0000D8039C0133703A8329830091DB03109111
:104B1000DC03980133703C832B83F1FA662460F840
:104B2000712C660C771CFE01E60DF71D2181328188
:104B30003695279536952795E091CD0331E03E0FC8
:104B40003093CD03F0E0E353FD4F20832091CC025E
:104B50002F3F19F02F5F2093CC022F2D2171213090
:104B6000B1F430910401311112C0807E93704091F4
:104B7000120550911305842B952B892B41F420931A
:104B8000CB0264EF71E088EE93E00E945C058F2D0C
:104B90008272823209F056CF80910301811113C0D5
:104BA000007E13708091370590913805082B192BE2
:104BB000012B49F482E08093CB0264EF71E088EE30
:104BC00093E00E945C058091BE0487FD3BCF82E0AC
:104BD0008093CB0237CF1092CB0234CFBA010A2E8A
:104BE00002C0759567950A94E2F760FF5ACFE68098
:104BF000F780E114F10471F064817581620F731F15
:104C00006E197F0975836483608171816F5F7F4F47
:104C1000718360833783268344CFFB01A4E0F6953C
:104C2000E795AA95E1F7613441E0740708F4B8C04C
:104C300048E24E1B4093E30440911701460F572F63
:104C4000511D4138B2E05B0708F0B5C05093D20364
:104C50004093D1036091C60470E0E8ECF4E050E0CA
:104C600040E0A1E0B0E0F42E8B01042E02C01595C7
:104C700007950A94E2F700FFA3C00281138102178F
:104C80001307A1F48D01042E01C0000F0A94EAF766
:104C9000802B902B00811181020F131F138302833D
:104CA0000681020F132F111D1583048304811581C2
:104CB0000217130739F48D0101C0000FFA94EAF7C7
:104CC000009580234F5F5F4F37964430510559F66A
:104CD0008093C5049093C70482FF79C08F98809118
:104CE000C50483FF76C02F9A109115011F78E0E16B
:104CF0008E9FC0011124182B1093150182E090E0C3
:104D00000E9464048091C3049091C404019690931E
:104D1000C4048093C3048091260490912704892BB6
:104D200039F1809126049091270481FF0DC0612FF5
:104D300082E10E94E90680912604909127048D7FEC
:104D40009093270480932604809126049091270451
:104D500083FF41C06091160183E10E94E9068091C2
:104D6000260490912704877F90932704809326043C
:104D700080910004882309F44AC181508093000483
:104D80008091FF03833009F09FCD629B9DCD81E030
:104D90008093FF038091FE038E7F8093FE0394CD6A
:104DA000E093E30449CF6134A1E07A0708F095CE9F
:104DB0001092E30441CF1092D2031092D1034ACF54
:104DC0008D01042E01C0000F0A94EAF779CF8F9A63
:104DD00086CF2F9889CF809126049091270480FF59
:104DE0000BC082E10E94D7068093BE048091260406
:104DF000909127048E7FB8CF80912604909127044C
:104E000082FF0BC083E10E94D7068093BF0480918C
:104E10002604909127048B7FA7CF80912604909140
:104E2000270484FF0BC06091E50380E00E94BE0A66
:104E300080912604909127048F7E96CF809126043E
:104E40009091270485FF0BC06091E30380E00E94EE
:104E5000AC0A80912604909127048F7D85CF8091A4
:104E600026049091270486FF14C02091DF0330911F
:104E7000E0033093EC042093EB0450E040E064E95D
:104E800080E00E94680A80912604909127048F7B1D
:104E90006BCF809126049091270487FF1DC0198253
:104EA0001A821B821C82AE014F5F5F4F6FE680E06B
:104EB0000E94090A89819A81AB81BC818093D703C2
:104EC0009093D803A093D903B093DA03809126047A
:104ED000909127048F7748CF8091260490912704E2
:104EE00090FF0BC06091E60381E00E94BE0A8091B2
:104EF0002604909127049E7F37CF809126049091BD
:104F0000270491FF0BC06091E40381E00E94AC0A8A
:104F100080912604909127049D7F26CF80912604BE
:104F20009091270492FF14C02091E1033091E20395
:104F30003093F5042093F40450E040E064E981E00C
:104F40000E94680A80912604909127049B7F0CCFD1
:104F5000809126049091270493FF1DC019821A8224
:104F60001B821C82AE014F5F5F4F6FE681E00E94A3
:104F7000090A89819A81AB81BC818093DB0390937C
:104F8000DC03A093DD03B093DE03809126049091AF
:104F90002704977FE9CE809126049091270494FFFF
:104FA00018C019821A821B821C82AE014F5F5F4FAC
:104FB0006AE680E00E94090A89819A819370909341
:104FC000D4038093D30380912604909127049F7E7D
:104FD000CBCE809126049091270495FFC9CE1982EB
:104FE0001A821B821C82AE014F5F5F4F6AE681E02E
:104FF0000E94090A89819A8193709093D6038093C5
:10500000D50380912604909127049F7DADCE84E145
:10501000809300048091FD0387FF81C08F70E82F8B
:10502000F0E021E030E0082E02C0220F331F0A9486
:10503000E2F74091C0045091C10424233523232B6F
:1050400071F44091780050917900EE0FFF1FE75006
:10505000FC4F20813181240F351F3183208391E063
:10506000882309F441C08091F8038F5F8093F8038F
:105070008430C8F180916505282F30E0220F331F5E
:10508000F901E051FC4F4091F9035091FA0351832B
:10509000408328513C4F4091FB035091FC03D901C0
:1050A0004D935C9321E130E0082E01C0220F0A9459
:1050B000EAF79091E703922B9093E7038F5F182F05
:1050C000137080911601877EB8E01B9F9001112418
:1050D000822B8093160188E090E00E946404109374
:1050E00065050E94AA0B90E080E0492F21E030E0A6
:1050F000B90163707727672B19F0442331F040E042
:10510000220F331F8F5F803199F720917C008770C9
:10511000287F822B80937C009093FD0331CE809179
:105120007A00806480937A008091FD038068809388
:10513000FD0326CE1F920F920FB60F9211241092EC
:105140006605109267051092680510926905EE9841
:10515000789480E00E949B0480E00E94F90480E043
:105160000E94320583EF91E090939900809398001C
:1051700080E48093900080ED97E090930204809308
:10518000010488EB92E09F938F930E9486150F9005
:105190000F90C12CD12C7601C3EBD2E0FF92EF929D
:1051A000DF92CF92DF93CF930E9486156091C80261
:1051B0008FEF860F0F900F900F900F900F900F9022
:1051C0008E3F48F48FEF93E00E94422F8091C802F7
:1051D0008F5F8093C8028AE0C80ED11CE11CF11CCD
:1051E0008091660590916705A0916805B091690569
:1051F0008C159D05AE05BF0598F3D0CF1F920F9279
:105200000FB60F9211242F933F934F935F936F9399
:105210007F938F939F93AF93BF93CF93EF93FF931E
:10522000109285001092840081E090E04091070583
:105230005091080520912C0530912D0542175307F8
:1052400010F090E080E025E2289FF001299FF00D0A
:105250001124EA50FB4F218932893093AB0220930D
:10526000AA0280918400909185002115310509F4EE
:1052700093C089B182958695869583709091CB0273
:10528000892B90916C05892390E09093A9028093DB
:10529000A802203A86E3380708F44FC056E0369556
:1052A00027955A95E1F7F901E85EFE4F26A130E017
:1052B0003093A7022093A6028091840090918500EC
:1052C0008091FE03C82FC17080FF05C061E080E0BF
:1052D0000E94FE06C82F8091FE0381FF05C062E098
:1052E00081E00E94FE06C82B8C2F0E9471048091E1
:1052F000A6029091A7029093890080938800209144
:105300008400309185002817390728F00A97909378
:10531000850080938400FF91EF91CF91BF91AF9171
:105320009F918F917F916F915F914F913F912F91BD
:105330000F900FBE0F901F901895203A86E2380705
:1053400050F045E0369527954A95E1F7F901EC597B
:10535000FF4F2081ACCF203A8EE1380748F094E02F
:10536000369527959A95E1F7F901E05DF040F1CF88
:105370002032310570F0B9017695679590E080E0B4
:1053800060587B47814E9F4F50E040E00E94672D60
:105390008FCF30E020E08CCF80ED97E09093A70294
:1053A0008093A602A4CF1F921FB61F9211242F93A1
:1053B0008F939F93EF93FF932091CE0080912904C8
:1053C00090912A04E82FF0E0E45DFB4F20838F5F8B
:1053D00020912804821708F080E0981319C0F894EF
:1053E000ECEAF0E08091C80085FFFCCF84918093C7
:1053F000CE008091C80086FFFCCF319680E0E73C6C
:10540000F80781F778941092290410922A0402C0B8
:1054100080932904FF91EF919F918F912F911F907D
:105420001FBE1F9018951F921FB61F9211248F93B5
:105430009F93AF93BF9386B58A5F86BD7894809122
:10544000660590916705A0916805B0916905019680
:10545000A11DB11D8093660590936705A093680513
:10546000B0936905BF91AF919F918F911F901FBE1F
:105470001F901895ABE0B0E0E0E4FAE20C940C2D3C
:105480005C016B013A01FC0117821682838181FF66
:10549000F5C0CE0101964C01F501F380F601F3FC55
:1054A0001591F3FE11916F01112309F437C01532E4
:1054B00039F4F3FC1591F3FE11916F011532B9F532
:1054C000B501812F90E00E94F12DE6CF112331F13B
:1054D000612F70E08CE697E00E94AC2D892BA1F43F
:1054E000133219F11C3679F0612F70E085E697E0F0
:1054F0000E94AC2D892BE9F0F4E06F0E711CB50110
:105500008FE390E0E0CF0068F601F3FC1591F3FE25
:1055100011916F0107FFDACF1111E6CFF5018681F6
:1055200097812B96EEE00C94282D00E1EDCF00E062
:10553000F1CF133609F455C0133709F459C01335A8
:1055400009F455C0143619F0193609F06BC0F3018F
:1055500007FF60C061917191819191913F010F7E30
:1055600097FF08C090958095709561957F4F8F4FFC
:105570009F4F00642AE030E0A4010E94862EE82EAE
:10558000E81806FF05C0B5018DE290E00E94F12DFC
:1055900004FF15C0FE01EE0DF11D8081803379F00E
:1055A000B50180E390E00E94F12D02FF08C0802F3A
:1055B000807290E0B501885A9F4F0E94F12DEA94C5
:1055C000F12CFFEFEF1AFF0AE80CF91CF7018291AA
:1055D0007F01B50190E00E94F12DE814F904B1F7C4
:1055E0005BCFB501F301819191913F016CCF0160D7
:1055F000F301E190F1903F01F70100FD859100FF7B
:1056000081917F01882309F447CFB50190E00E9482
:10561000F12DF2CF619171913F01072E000C880BA3
:10562000990B9DCF1037F1F040F41835E9F01F3693
:1056300009F074CF28E030E00CC0153739F0183786
:1056400009F06CCF046220E130E003C00F7E2AE055
:1056500030E0F30107FF0CC061917191819191914C
:105660003F018ACF0061EECF046020E132E0F1CF4C
:10567000619171913F0190E080E07ECF8FEF9FEFCD
:1056800050CF20FD09C0FC0123FD05C022FF02C050
:105690007383628351834083089533E044FD10C0D7
:1056A00034E046FD0DC0DB01FC01AA0FBB1FEE1F5D
:1056B000FF1F1094D1F76A0F7B1F8E1F9F1F31E0D1
:1056C000660F771F881F991F3150D1F7620F711D28
:1056D000811D911D08950F931F93CF93DF938C012C
:1056E000C8010E94B72DEC0197FD08C00E94A32DB0
:1056F000892BB1F7B801CE010E946E2ECE01DF9149
:10570000CF911F910F9108958F929F92AF92BF9268
:10571000EF92FF920F931F93CF93DF938C01D62FBD
:105720007A01B22E0E94B72D9C0133272B3231050E
:1057300029F02D323105A9F46894B7F8D15061F4FD
:1057400080E0DF91CF911F910F91FF90EF90BF907C
:10575000AF909F908F900895C8010E94B72D97FD3C
:10576000EFCFCB2DCD7F2B2D2073F9F48033E9F4CF
:10577000AA24AA94AD0E89F0C8010E94B72D97FD06
:105780000CC0282F2F7D283561F4C264D25029F037
:10579000C8010E94B72D97FF08C0812C912C54019D
:1057A0001BC0B6FE2BC0C260DA2D812C912C540197
:1057B00020ED280F283028F1C4FD09C02A3008F157
:1057C000C6FF05C02F7D3FEE320F3630C8F0B8015E
:1057D0000E946E2EC1FFB4CFC7FF08C0B094A09442
:1057E00090948094811C911CA11CB11C2C2FB5019C
:1057F000A401C7010E94412B81E0A3CFC261D4CF95
:1058000027504C2FC501B4010E944D2B4B015C0168
:10581000C260D15009F3C8010E94B72D97FFC8CFCD
:10582000DBCFB0E0A0E0E7E1FCE20C940C2D5C01E2
:10583000EB01742E652EFC0117821682C12CF50136
:10584000F380FE01F3FC8591F3FE8191182FEF01A7
:105850008823E9F090E00E94A32D892B21F0C50157
:105860000E946B2BECCF153241F4FE01F3FC159135
:10587000F3FE1191EF01153269F4C5010E94B72DB5
:1058800097FD9DC01817D9F2B5010E946E2E8C2D80
:1058900090E099C000E01A3231F4F3FC1591F3FE68
:1058A0001191EF0101E0D12C20ED210F2A3048F1B8
:1058B00001FF37C0DD2059F31836B1F11C3609F469
:1058C0003DC0112321F3612F70E08CE797E00E9427
:1058D000AC2D892BE1F2F12CE12C00FD06C0E72D67
:1058E000F62DE190F1907E2E6F2E1E3679F5F501A2
:1058F0004681578170E060E0202FC7010E94412B54
:105900009ECF02606D2D70E090E080E040E20E944A
:105910004D2BD62EFE01F3FC1591F3FE1191EF01F4
:10592000C3CFDD24DA94C8CFFE01F3FC1591F3FE5A
:105930001191EF01183609F0C4CF08600460FE0130
:10594000F3FC1591F3FE1191EF01BBCF1336B1F4C7
:1059500001FD02C0DD24D394C5010E94B72D97FD3F
:105960002EC0E114F10419F0F70181937F01DA945C
:10597000D110F2CF00FD63CFC39461CFC5010E9467
:105980006B2B97FD1CC01F3609F440C030F4143651
:1059900041F0193639F0006405C0133711F115379D
:1059A000D1F70062202FA7016D2DC5010E94842B25
:1059B0008111E0CFF5018381807309F468CF8FEF07
:1059C0009FEFC11064CFCDB7DEB7EEE00C94282D69
:1059D000E114F10419F0F70181927F01DA94DD20DE
:1059E00071F0C5010E94B72D4C0197FD08C00E94BF
:1059F000A32D892B69F3B501C4010E946E2EE11419
:105A0000F10409F4B7CFF7011082B4CF0061CACF17
:105A10002F923F924F925F926F927F928F929F92BE
:105A2000AF92BF92CF92DF92EF92FF920F931F93AC
:105A3000CF93DF93CDB7DEB7CA1BDB0B0FB6F8945D
:105A4000DEBF0FBECDBF09942A88398848885F849D
:105A50006E847D848C849B84AA84B984C884DF800E
:105A6000EE80FD800C811B81AA81B981CE0FD11DF2
:105A70000FB6F894DEBF0FBECDBFED010895AA1B8F
:105A8000BB1B51E107C0AA1FBB1FA617B70710F029
:105A9000A61BB70B881F991F5A95A9F7809590955B
:105AA000BC01CD01089597FB072E16F4009407D092
:105AB00077FD09D00E943F2D07FC05D03EF490955C
:105AC00081959F4F0895709561957F4F0895A1E24C
:105AD0001A2EAA1BBB1BFD010DC0AA1FBB1FEE1F68
