:100000000C94BB030C94D8030C94D8030C94D80321
:100010000C94D8030C94D8030C94D8030C94EB28BC
:100020000C94D8030C94D8030C94D8030C94D803E4
:100030000C94D8030C94D8030C94D8030C94D803D4
:100040000C94D8030C944F290C94D8030C94D80327
:100050000C94D8030C946F230C94D8030C94642A4A
:100060000C94D8030C94242A0C94D8030C94D80331
:100070000C94D8030C94D8030C94D8030C94D80394
:100080000C94D8030C94D8030C94D8030C94D80384
:100090000C94D8030C94D8030C94D8030C94D80374
:1000A0000C94D8030C94D8030C94D8034552524FA7
:1000B000523A20727820627566666572206F7665A6
:1000C00072666C6F770A00AA6A5A56555595A5A9AB
:1000D000AA2575200025752000256C75200025694E
:1000E000200025686875256E002575256E00256938
:1000F000256E0023737069313D2578206472763156
:100100003D256C7820677374313D257820676366E0
:10011000313D256C780A0023737069303D257820C5
:10012000647276303D256C7820677374303D257895
:1001300020676366303D256C780A00256920000041
:1001400025642E25642E256425532000435A5058DB
:100150002534735825337358256325357320004E95
:100160004120000103050E0F111213151617383A1E
:100170000002042530327800256420256420002503
:100180006C6920002530326868782000256C69256C
:100190006E00256C75256E0025686869256E003F28
:1001A0003F3F3F004552524F523D25642028255382
:1001B000290A004E4F4E45004348534100434853DF
:1001C0004200534E4E530046555345004C4F434B4F
:1001D0000047535049005453504900545349470075
:1001E000414443560054484552004D4F544F004639
:1001F000414E5300554C454400237477686F206F7F
:1002000066667365743D256420646973743D256476
:100210000A00237477686F20736574206F666673B5
:100220006574423A2025640A00237477686F20734E
:100230006574206F6666736574413A2025640A0010
:10024000490053005F006D007D009000A500BD00D7
:10025000D900F8001C0143016E019C01CE0102028D
:1002600037026C02A102D30202032D03530375036C
:100270009103A903BD03CD03DA03E303EB03F10309
:10028000F503F8032325642025752025750A00252C
:100290006C640A0023494E54360A00236F6C69636C
:1002A0006E745F74696C743D256868750A00236F0D
:1002B0006C69636E745F746F7765723D25686875ED
:1002C0000A00236472765F7374617475735B2564CE
:1002D0005D3D2530386C780A00237370695F737454
:1002E000617475735B25645D3D2530326868780AFA
:1002F00000000A0014F000F0001407BC0200000027
:1003000000B004DC05A000A00010074C04000000B1
:1003100000000A0014F000F0001A09BC02000000FE
:100320000064002C01500050001400DC05000000A7
:1003300000DC05DC05000000002C2834080000006B
:100340000090019001000000002C3F000000000020
:1003500000D606D606000000002C28D007000000BA
:1003600000000F0014C800C8000F037E0400000046
:1003700000C409983AFA00960016046400000000D0
:1003800000C4094C1DFA0096001001F401000000A1
:1003900000800C983AFA00FA000A0398080000005E
:1003A0000064009600320032000F00DC05000000FF
:1003B00000800CC044FA00FA002206F4010000009C
:1003C00000800CC044FA00FA001206F4010000009C
:1003D0000040068025C800C8003F04F4010000006A
:1003E00000C4094C1D5E015E010C0278050000008E
:1003F0000019001D00220028002E00360040004B8E
:1004000000580069007C009200AD00CC00F1001A99
:10041000014A017E01B701F40133027102AF02E823
:10042000021C034A0372039303AD03C303D303E027
:1004300003E903F0036B696C6C65640A004D435576
:1004400053523D3078253032780A00726561647904
:100450000A006265657081626F6F74B5636C656474
:10046000856565636C9F65657278A065657778A121
:100470006563686FAA66616E65B366616E738A664E
:1004800070776DB26672706D9D6D6F74728D706CE9
:1004900065648270707374BF7070776DB1707370C3
:1004A00064B97273656EAD72736D65AF7273737498
:1004B000AE73676263BA73676264BB7368646E83AA
:1004C00074656D709E74696366A774696373A974BB
:1004D0006963759674696863C17469686F987469B3
:1004E0006D61A374697068BD7469706FA574697378
:1004F000679A74697374C374726177B6747763664C
:10050000A674776373A874776375957477646E8F38
:1005100074776863C07477686F9774776D61A2743D
:10052000777068BC7477706FA47477736799747709
:100530007374C2747775708E756C6564847570772A
:100540006DB8766F6C74B076726177B77764656CEE
:10055000BE7769646CB4666D736BC4676F7365C591
:1005600074777466C874697466C974697363C7758F
:10057000737461CA74776766CB74696766CC5F70A1
:100580006F72E15F646472E25F70696EE3746D6361
:1005900063CD6469720F656E610C656E641165727E
:1005A00072416C65640D6C6F67426D6F741072738D
:1005B00074017365720374737443766572027265B5
:1005C000761370756E1201550643A01A834E068D80
:1005D0004406973906982E069FD20FB40713B51C10
:1005E00006BB1806C00706C1F605C55C0E00341C24
:1005F00001A61D027A1B03B718128E0C13700C0C87
:10060000A61D0DA61D0FA61D10A61D11A61D41A6F7
:100610001D42A61D82A61D848F1D85A61D8AA61DAE
:1006200095A61D96A61D97951B98951BC7851D9988
:10063000A61D9AA61D9DB01C9EC61BB0C61BB6E784
:100640001CB7E71CB1A61DB9A61DB8A61DB3A61DF3
:10065000A4621BA5BE1BA6901EA7901EA8951BA951
:10066000951BAA951BADA61DAEA61DBAA61DBB3532
:100670001BBC001DBD001DBF231CC0DF1BC1DF1B39
:10068000C4951BC8A61DC9A61DCA001C0C7C190D4B
:100690007C190F7C19107C19117C19417C19427C42
:1006A00019837C19816315827C19845518857C19FE
:1006B0008EA3158FA3158A7C19957C19967C1999A0
:1006C000A2139AA213A21813A39314A41813A59308
:1006D00014A68F17A78F17A8A213A9A213AA7C1973
:1006E000B17C19B97C19B87C199D0415AD7C19AF82
:1006F0001813BEA315BCA315BDA315C2A213C3A294
:1007000013C05C14C12514C47C19BF6B17C73817FC
:10071000E1D016E3D016E2D016CA8B16CB5816CC11
:100720002516A6521EA7521EE1351DE3351DE235E2
:100730001D6525640A006F6B0A004552524F523AFC
:1007400020636F6D6D616E64206F766572666C6F8D
:10075000770A0045464765666700202B2D2E30310D
:10076000323334353637383968006364696E6F70F8
:1007700073757858000011241FBECFEFDAE0DEBF9A
:10078000CDBF12E0A0E0B1E0EEE9F2E602C00590D4
:100790000D92AA39B107D9F725E0AAE9B2E001C064
:1007A0001D92AC3BB207E1F70E94B31E0C944D3191
:1007B0000C940000CF92DF92EF92FF921F93CF93A1
:1007C000DF93FB01EE5BFF4F259134918217930776
:1007D0000CF056C0FB0125913491281739070CF015
:1007E00052C013E2C1E2D0E0B0E0A0E021E111503C
:1007F00019F490E080E03CC030E0A901440F551F9F
:10080000FB01E40FF51FE590F490FA013296E60F34
:10081000F71FC590D490A901C816D9063CF49E01D3
:10082000240F351F35952795DA01E1CF8E159F05E9
:1008300044F49D01240F351F35952795EA01AD013C
:10084000F3CFBC016E197F094EEC4603C001479FF0
:10085000900D1124B6016E197F090E94A42D420348
:10086000C001439F900D11248E519B4F860F971FFF
:10087000DF91CF911F91FF90EF90DF90CF9008957F
:1008800080E79EEFF5CF82EE94E0F2CFF8942091CE
:100890003A0430913B04282B392B30933B042093AE
:1008A0003A04789420913A0430913B042823392368
:1008B000232BC1F70895F89420913A0430913B041A
:1008C000282B392B30933B0420933A0478940895D5
:1008D00080FD2D9A81FD2E9A2D982E9808958130B5
:1008E00011F0599A08955C9A0895813011F0599841
:1008F00008955C980895E5E1F1E090819A7F282FB2
:100900002170922B880F8470982B908382E090E066
:100910000C94460490911501892F869582709170F0
:10092000892B089593E0892790E0E5E1F1E09C01AF
:10093000220F331F2270880F991F880F991F88700C
:10094000822B2081257F822B808382E090E00C9493
:1009500046042091150130E021FB882780F9359568
:100960002795359527952270282B83E082270895B7
:1009700061EF73E096958795969587950C94DA03C9
:100980002091D60421FF1DC09C01369527953695F0
:100990002795AAEBB3E10E94DA2DAB01BC0199E0E7
:1009A00076956795579547959A95D1F74E7F6170E3
:1009B000772780910B0190910C01841B950B97FF79
:1009C00002C090E080E00895CF93DF93F89492E026
:1009D000909335049091DA04692F682770E0C091F4
:1009E000D704D091D804ECEDF4E0ADE1B4E030E010
:1009F00020E0AB01022E02C0559547950A94E2F71C
:100A000040FF0AC0D383C283468150E013965C93B3
:100A10004E931297518340832F5F3F4F379618961E
:100A20002330310531F71092360424E02093370447
:100A30009870982B9093DA047894DF91CF91089571
:100A40008093D604282F30E084FF13C0289880912B
:100A5000D60485FF10C05D98809116018C7F359576
:100A600027952370822B8093160188E090E00C94E8
:100A70005B04289AECCF5D9AEFCF3F9A882311F060
:100A8000479A089547980895E7EDF4E083818860D8
:100A900083830895CF93DF93EB01009749F410927D
:100AA0009000D0931504C0931404DF91CF91089562
:100AB000BC0190E080E00E94BF309B01AC0160E08F
:100AC00074E284E799E40E941E3020E030E040E0C8
:100AD0005FE30E94B12F0E949030683C710510F4D2
:100AE00068EC70E0709399006093980080E48093C4
:100AF0009000D7CF80918305803B09F44DC048F525
:100B0000873909F44CC090F4813409F44BC030F4B7
:100B10008D3009F44AC090E080E00895823409F4F1
:100B200047C08238C1F78CE695E00895883A09F409
:100B300042C040F4883909F441C08E3961F781EC34
:100B400092E00895893AE9F18A3A29F787E895E031
:100B50000895883BC9F178F4833BC9F128F4813BBF
:100B6000D1F682E091E00895863BA1F1873B99F6AA
:100B70008BEF93E00895803C81F138F4893B81F15B
:100B80008A3B49F68DEC92E00895813C61F1843C0A
:100B900011F688E394E0089585E091E0089581E0FE
:100BA00091E008958AEB92E0089586ED94E008952F
:100BB00089EB92E0089584E091E0089580E091E06F
:100BC000089583E091E008958FE695E0089586E327
:100BD00094E0089583E094E0089583E191E008951E
:100BE00087E191E0089581E191E0089580911104F9
:100BF00081FD0BC081E0809300018FEF9FEF909308
:100C000012018093110180E008958EEF0895809184
:100C1000110480FD0BC081E0809301018FEF9FEFF5
:100C20009093100180930F0180E008958EEF089556
:100C30001092CD0280E0089587E797E7909301082E
:100C40008093000888E198E00FB6F894A895809307
:100C500060000FBE90936000F894FFCF8091110464
:100C600081FD05C081E08093000180E008958EEF52
:100C700008958091110480FD05C081E080930101F9
:100C800080E008958EEF089580E00E9492048FEF37
:100C9000809301018093000180E0089580E00E942C
:100CA0003D0510921A0480E0089588E198E00FB69F
:100CB000F894A895809360000FBE90936000F8941C
:100CC000FFCFFB0190E02491281307C03196859156
:100CD0009491009741F0FC0109949F5F339649136A
:100CE000F2CF89EF08958AEF08951F93CF93DF9392
:100CF000C42FD0E02196215078F0DC01FB0130E0D8
:100D00001D91549115130DC03F5F31964313F8CFD9
:100D1000FB01E40FF11D2491822FDF91CF911F91F0
:100D200008956C0F7D1FE7CFE82FF0E0E953FF4FE8
:100D3000E4912E2F30E0322F2227853088F0206476
:100D4000F894E093AE022093AF021092B202109298
:100D5000B5021092B30288E08093B60278940895A9
:100D60002068EECF8EBD0DB407FEFDCF8EB5089581
:100D7000CF93C82F80E58CBD1DBC2C9881E40E94C8
:100D8000B2068C2F0E94B2068FEF0E94B2062C9AF8
:100D9000CF910895CF93DF93D82FC62F80E58CBDD8
:100DA0001DBC2C9880E40E94B2068D2F0E94B206D2
:100DB0008C2F0E94B2062C9ADF91CF9108958F92CA
:100DC0009F92AF92BF92FF920F931F93CF93DF93A7
:100DD000562FA091A802B091A902C82FD0E095E2A9
:100DE000899FF0011124E850FB4F628D738D6A0FCB
:100DF0007B1F738F628F808D918D21893289281797
:100E0000390708F425C10091AC021091AD02800FA2
:100E1000911F821B930B918F808F4789F090110453
:100E2000052F10E0980184E0220F331F8A95E1F727
:100E30008F2D90E08223932383889488A588B68899
:100E4000892B09F452C081E0881A9108A108B108E1
:100E5000838A948AA58AB68A41FF50C085E28C9F16
:100E6000F0018D9FF00D1124E850FB4F2781308554
:100E70006F3F710511F008F03EC0A29FB001A39F23
:100E8000700DB29F700D112490E080E033E0660F8A
:100E9000771F881F991F3A95D1F725E22C9FF00103
:100EA0002D9FF00D1124E850FB4F87849088A18876
:100EB000B288860E971EA81EB91E8786908AA18AC0
:100EC000B28A848D958D0197958F848F892B09F037
:100ED00084C0842F8D7F42FF06C025813681328BEE
:100EE000218B108A1786482F78C09FEF891A990A9C
:100EF000A90AB90AADCF0E94DA2DC8CF42FF27C098
:100F000085E28C9FF0018D9FF00D1124E850FB4F7E
:100F1000868D978DA0A1B1A10197A109B109868FF6
:100F2000978FA0A3B1A3892B8A2B8B2B09F055C0D7
:100F3000942F9B7F43FD09C0852F8095F822F09266
:100F400011041786108A118A128A492F46C043FF5E
:100F500044C085E28C9FF0018D9FF00D1124E85074
:100F6000FB4F218532856F3F710511F008F058C0A5
:100F7000A29FB001A39F700DB29F700D112490E04D
:100F800080E023E0660F771F881F991F2A95D1F70D
:100F900025E22C9FF0012D9FF00D1124E850FB4F0E
:100FA00087849088A188B288861A970AA80AB90A05
:100FB0008786908AA18AB28A82A193A1019793A37E
:100FC00082A3892B51F4477F852F8095F822F092D8
:100FD00011041786108A118A128A85E28C9FF0010B
:100FE0008D9FF00D1124E850FB4F84A18823D9F088
:100FF000815084A385E28C9FF0018D9FF00D112418
:10100000E850FB4F478B138E128E852FDF91CF91C7
:101010001F910F91FF90BF90AF909F908F90089578
:101020000E94DA2DAECF8091AA029091AB020823E4
:101030001923012BF9F280911104952F90958923A2
:10104000809311048091C002852B8093C002D2CF7F
:10105000821B930B918F808F50E0D7CF8F929F92FE
:10106000AF92BF92CF92DF92EF92FF920F931F93B6
:10107000CF93DF936A017B01082F10E095E2899FEF
:10108000E0011124C850DB4FAB85BC852D853E8522
:101090004D01820E931EB12CA12CC814D904EA0470
:1010A000FB0448F1BD8FAC8FC818D908EA08FB08CB
:1010B000CE8EDF8EE8A2F9A23BA32AA386E0AB2B5B
:1010C00009F484E0232B09F0886095E2909FF001F9
:1010D000919FF00D1124E850FB4F878BDF91CF914A
:1010E0001F910F91FF90EF90DF90CF90BF90AF9046
:1010F0009F908F900895AB0196010E94E92DA50164
:1011000094010E94B82D3D8F2C8F1E8E1F8E18A229
:1011100019A2C21AD30ADBA2CAA28AE0D6CF9F9232
:10112000AF92BF92CF92DF92EF92FF920F931F93F5
:10113000CF93DF93982E6A017B01082F10E0C1E066
:10114000D0E002C0CC0FDD1F8A95E2F7B090110409
:101150008C2F8B2109F04DC0C114D104E104F1049E
:1011600091F1AC2EA0940E948A041C141D041E044C
:101170001F045CF58A210E947B048C2F8295807F5E
:101180008095B822B0921104B701A601892D0E9462
:101190002E0885E2809FF001819FF00D1124E85018
:1011A000FB4F108A178683819481928B818B80E418
:1011B00084A38091C002A822A092C0028091110451
:1011C000C82BC093110480E015C08C2B0E947B04B7
:1011D000CE0124E0880F991F2A95E1F7B82AB09232
:1011E000110444275527BA014C195D096E097F097E
:1011F000CDCF8FEFDF91CF911F910F91FF90EF90A7
:10120000DF90CF90BF90AF909F900895CF92DF92E4
:10121000EF92FF920F931F93CF93DF93C82ED12CA1
:1012200095E2899FE0011124C850DB4F0D811E819A
:101230008B819C817801E81AF90A080F191F2F8108
:1012400038852115310509F45EC0B70190E080E0D2
:10125000ECE0660F771F881F991FEA95D1F750E0E1
:1012600040E00E94B82DF4E05695479537952795B4
:10127000FA95D1F7D8010E94E92D6C5D7B408F4F24
:101280009F4F28E438EE41E050E00E94B82D3C87A3
:101290002B8785E28C9DE0018D9DD00D1124C850D7
:1012A000DB4F29853A852115310581F1B70190E0A1
:1012B00080E04CE0660F771F881F991F4A95D1F791
:1012C00050E040E00E94B82D64E056954795379570
:1012D00027956A95D1F7D8010E94E92D6C5D7B4076
:1012E0008F4F9F4F28E438EE41E050E00E94B82D28
:1012F0003E872D87DF91CF911F910F91FF90EF9047
:10130000DF90CF9008951C861B86C3CF1E861D8656
:10131000F1CFFF920F931F93CF93DF93F82EEB0142
:10132000F11049C080E890E00E9446048091EA03F1
:101330009091EB03A091EC03B091ED03B7FFF2CFD6
:101340000F2D10E085E2F89EF0011124E850FB4FCC
:1013500088819981948383838A819B819683858305
:101360008C819D81908787838E819F8192878187E1
:101370008F2D0E940609F801E850FC4F8885808374
:10138000F801EA50FC4F89858083000F111FF80196
:10139000EE50FC4F8A859B859183808380E097E0A7
:1013A000F11002C080E790E0DF91CF911F910F9183
:1013B000FF900C94460480E098E00E9446048091DF
:1013C000EE039091EF03A091F003B091F103B7FF0A
:1013D000A7CFB6CFCF92DF92EF92FF920F931F93DA
:1013E000CF93DF93182FF62EEA010CE50CBD1DBC40
:1013F0000E9475048F2D0E94B20680E00E94B20602
:1014000080E00E94B20680E00E94B20680E00E9466
:10141000B206812F0E946F040CBD1DBC812F0E945B
:10142000750480E00E94B206082FE12FF0E0E65339
:10143000FD4F808380E00E94B20690E0B0E0A0E023
:10144000CC24D82EE92EFA2E80E00E94B206C82ABB
:10145000FE2CED2CDC2CCC2480E00E94B206C82AA5
:10146000FE2CED2CDC2CCC2480E00E94B206C82A95
:10147000812F0E946F04C882D982EA82FB82802F6A
:10148000DF91CF911F910F91FF90EF90DF90CF9060
:101490000895EF92FF920F931F93CF93DF93C82F7E
:1014A000E62ED22F132F042FF52E8CE58CBD1DBCFC
:1014B0008C2F0E9475048E2D0E94B2068F2D0E94E3
:1014C000B206802F0E94B206812F0E94B2068D2F95
:1014D0000E94B2068C2F0E946F0480E0DF91CF91B2
:1014E0001F910F91FF90EF900895CF93DF9300D05D
:1014F00000D0CDB7DEB719821A821B821C82AE01E2
:101500004F5F5F4F61E00E94EA0989810F900F9061
:101510000F900F90DF91CF910895CF92DF92EF92CD
:10152000FF9299E0899FF0011124EC52FC4FC0809A
:10153000D180E280F38090EFF922262F30E050E056
:1015400040E0522F442733272227222733274427DE
:101550005F702C293D294E295F29208331834283E6
:1015600053836CEEFF90EF90DF90CF900C94490A7C
:1015700099E0899FF0011124EC52FC4F6683262FDD
:10158000660F330B440B550BA901332722276DEE51
:101590000C94490ACF93DF93C82FD62F81E0603295
:1015A00010F0D69580E099E0C99FF0011124EC522B
:1015B000FC4F20813181428153814D7F90E0B0E02A
:1015C000A0E061E1880F991FAA1FBB1F6A95D1F7A0
:1015D000282B392B4A2B5B2B208331834283538367
:1015E000D483D5836CEE8C2F0E94490A2D2F30E0D6
:1015F000322F222722273F71032E000C440B550B5C
:10160000DF712D2B4F6060E98C2FDF91CF910C940F
:10161000490A99E0899FF0011124EC52FC4F858121
:10162000408151816281738161FB442740F94111FE
:1016300001C0880F08950F931F93CF93DF93EB01A1
:10164000082F10E095E2899FF0011124E850FB4F2C
:101650002381348139832883258136813B832A8302
:10166000278130853D832C83218532853F832E83DE
:101670000E94090B888789E0809FF001819FF00D0F
:101680001124EC52FC4F86818987878190859B8746
:101690008A87DF91CF911F910F9108951F93CF9368
:1016A000DF9300D000D0CDB7DEB7182F83ED90E0E8
:1016B000A3E0B4E189839A83AB83BC8329E0129FC2
:1016C000F0011124EC52FC4F80839183A283B383F9
:1016D00080E18483858383E086838CED95E0908729
:1016E000878323ED30E043E054E16CEE812F0E94CC
:1016F000490AAE014F5F5F4F6CE6812F0E94EA09F5
:1017000089819A81AB81BC81833D9105A340B4411D
:1017100059F520E030E0A90161E9812F0E94490AD2
:1017200020E030E043E051E06DEE812F0E94490A55
:101730002CED35E040E050E064E9812F0E94490A39
:1017400020E831E340E050E060E8812F0E94490A40
:10175000812F0E94750A80E00F900F900F900F90DC
:10176000DF91CF911F9108958FEFF6CF1092100463
:1017700010920B048091D40480FD04C010920D04DB
:1017800010920C0481FD04C010920F0410920E04FC
:101790000895F89488E198E00FB6F894A89580939E
:1017A00060000FBE9093600085EA9AE5909301096E
:1017B00080930009FFCF90913E0480913D042FEF6C
:1017C0003FEF891771F0E92FF0E0E05CFB4F2081DB
:1017D00030E09F5F80913C04981708F090E0909370
:1017E0003E04C90108958093CE008091C80086FF11
:1017F000FCCF8091C80080648093C80090E080E0B6
:101800000895EF92FF920F931F93CF93DF93D82FFA
:10181000082F10E0C80186539D4F7C01FC01808198
:101820001F928F931F92DF9389ED92E09F938F9386
:101830000E94722EF70180811F928F931F92DF9377
:1018400082EC92E09F938F930E94722EF701C081E9
:10185000C3708DB79EB70C960FB6F8949EBF0FBE9F
:101860008DBFC111C0E8000F111F000F111FF8013B
:10187000E651FC4F80819181A281B381B2FDC062AB
:10188000B1FDC064DD2389F08091CF031F928F9357
:101890008BE992E09F938F930E94722E0F900F908E
:1018A0000F900F908091CF0310C08091D0031F92B2
:1018B0008F938EEA92E09F938F930E94722E0F90E7
:1018C0000F900F900F908091D003843108F0C06189
:1018D0008C2FDF91CF911F910F91FF90EF90089582
:1018E000E2ECF4E0808120E1829FC001112499277D
:1018F00021812F70822B9F938F931F9285E08F936E
:1019000088E791E09F938F930E94722E0F900F9023
:101910000F900F900F900F9080E00895CF92DF927C
:10192000EF92FF920F931F93CF93DF93CDB7DEB764
:1019300060970FB6F894DEBF0FBECDBF83E691E08F
:101940008E010F5F1F4F7E0121E1E20EF11CD801D5
:1019500021E2FC013491E32FF0E020935700E49161
:10196000ED930196AE15BF05A1F783E7C82E81E080
:10197000D82EF80181918F01282F082E000C330BEF
:101980003F938F93DF92CF920E94722E0F900F9011
:101990000F900F900E151F0561F780E060960FB64F
:1019A000F894DEBF0FBECDBFDF91CF911F910F9195
:1019B000FF90EF90DF90CF900895BF92CF92DF928B
:1019C000EF92FF920F931F93CF93DF9300D000D03D
:1019D000CDB7DEB7B82E11E001C0110F8A95EAF736
:1019E000F89400E1C12CD12C7601812F0E9468046B
:1019F0008BE99FE00197F1F700C00000812F0E9462
:101A0000680419821A821B821C82AE014F5F5F4FED
:101A100062E18B2D0E94EA0989819A81AB81BC81A8
:101A2000AF70BB27C80ED91EEA1EFB1E8BE99FE0D4
:101A30000197F1F700C000000150B9F67894C60193
:101A400024E0969587952A95E1F70F900F900F90D7
:101A50000F90DF91CF911F910F91FF90EF90DF904A
:101A6000CF90BF9008951F93CF93DF9300D000D005
:101A7000CDB7DEB7162FEFECF7E03197F1F700C0E6
:101A80000000F89419821A821B821C82AE014F5FFB
:101A90005F4F64E00E94EA0989817894812783710D
:101AA0000F900F900F900F90DF91CF911F9108959D
:101AB000EF92FF920F931F93CF93DF93D82F01E004
:101AC00010E001C0000F8A95EAF70E94A904F82EE1
:101AD0000E948A04E82EC02FC0958F2D8C230E946F
:101AE00092048E2D8C230E947B0460E18D2F0E9436
:101AF000330DC82FD13061F12D9A61E18D2F0E94F5
:101B0000330DC82BD13031F12D988E2D802B0E94B2
:101B10007B0462E18D2F0E94330DC82B802F0E9421
:101B200068048F2D802B0E94920462E08D2F0E940A
:101B3000330DC82B8E2D0E947B048F2D0E949204A2
:101B40008C2FDF91CF911F910F91FF90EF9008950F
:101B50002E9AD3CF2E98D9CF0F931F93CF93DF9385
:101B6000EB01482F50E02091110430E0082E02C014
:101B7000359527950A94E2F720FD43C095E2949F9E
:101B8000F001959FF00D1124E850FB4F43895489D3
:101B9000658976898E010D2E000C220B330B400FC8
:101BA000511F621F731F438B548B658B768B01E033
:101BB00010E001C0000F8A95EAF7D7FF10C0D19559
:101BC000C195D1090E948A04802B0E947B04219731
:101BD00060F480E0DF91CF911F910F9108950E94F2
:101BE0008A04902F90958923F0CFF894802F0E943B
:101BF000680478948FE99FE00197F1F700C0000036
:101C0000E6CF8EEFE7CFFF920F931F93CF93DF9333
:101C1000F82E8B01C82FD0E09E012F5F3F4F80E050
:101C2000922F9295907F0E944604FE01EE0FFF1FB7
:101C3000EA51FC4F20813181C801821B930BC856A9
:101C4000DD4F688170E0660F771F0E94A42DD62FAC
:101C5000C72F1F930F933F932F937F936F9384E826
:101C600092E09F938F930E94722E8DB79EB7089635
:101C70000FB6F8949EBF0FBE8DBF6D2F7C2F8F2D9A
:101C8000DF91CF911F910F91FF900C94AC0D262FF7
:101C900050E0542F442780589F4F480F591F60E051
:101CA000752F822F90E0880F991F681B790B605861
:101CB0007109822F0C94030E83E080936C050E94BF
:101CC000440580E48093170184E08093840580E0DC
:101CD00008958091B602882309F463C08091B5020B
:101CE0009091B4028823C1F081508093B502911184
:101CF00058C08FE694E0909399008093980080E418
:101D0000809390002F9A8091D60481608093D604AE
:101D100081E08093B4020895992351F010929000CD
:101D20002F988091D6048E7F8093D6041092B402AF
:101D30008091B302882321F081508093B3020895EB
:101D40004091B202E42FE695E695F0E0E255FD4FB2
:101D5000808190E0437023E030E0241B3109220FA2
:101D6000331F02C0959587952A95E2F783708230DC
:101D7000C9F08330D9F0813021F01092B50280E3B0
:101D800003C080E38093B5028093B3028091B202D6
:101D90008F5F8093B2029091B602891710F0109273
:101DA000B202089580E98093B502E9CF1092B202A1
:101DB000EDCFEF92FF921F93CF93DF937C01CB0186
:101DC000142F160F181306C0DF91CF911F91FF90AB
:101DD000EF900895EC01C7010E946D2F89938FEF5A
:101DE000E81AF80ACE01EECFCF93DF93CDB7DEB776
:101DF00060970FB6F894DEBF0FBECDBF8F3F61F482
:101E00008093040180E060960FB6F894DEBF0FBEA9
:101E1000CDBFDF91CF9108958830A0F48093040165
:101E200020E18202C001112440E1BE016F5F7F4FBB
:101E300093950E94D90EBE016F5F7F4F80E00E9494
:101E40008909E0CF8CEFDFCFCF93DF93CDB7DEB73B
:101E500060970FB6F894DEBF0FBECDBF8F3F61F421
:101E60008093030180E060960FB6F894DEBF0FBE4A
:101E7000CDBFDF91CF9108958830A0F48093030106
:101E800020E18202C001112440E1BE016F5F7F4F5B
:101E90009E5F0E94D90EBE016F5F7F4F81E00E945E
:101EA0008909E0CF8CEFDFCFEF92FF921F93CF93A2
:101EB000DF937C01142F115030F4DF91CF911F91EB
:101EC000FF90EF900895EB016991C7010E947B2F6D
:101ED0008FEFE81AF80ABE01EECFBF92CF92DF92E1
:101EE000EF92FF920F931F93CF93DF93CDB7DEB79F
:101EF00060970FB6F894DEBF0FBECDBFB82E162F79
:101F0000BE016F5F7F4F0E941B0BE12C92E0F92E08
:101F1000B11003C0E12CFF24F39417FD1CC020E195
:101F20001202C001112440E1BE016F5F7F4F8E0D90
:101F30009F1D0E94540F60960FB6F894DEBF0FBE2F
:101F4000CDBFDF91CF911F910F91FF90EF90DF9068
:101F5000CF90BF90089510E000E06E0181E1C80EBF
:101F6000D11CF801B1101BC0EF58FC4FCE010196F7
:101F70002491DC012D93CD013196AC15BD05C1F73F
:101F800040E1BE016F5F7F4FC8018E0D9F1D0E9413
:101F9000540F005F1F4F0038110519F7CCCFEF50D9
:101FA000FD4FE4CFCF93DF93C0E0D1E06FEFCE01E0
:101FB0000E947B2F2196C63183E0D807B9F780E0D5
:101FC000DF91CF9108958091BC049091BD04A091C0
:101FD000BE04B091BF0485FF07C06091040167FD96
:101FE00003C080E00E946D0F8091BC049091BD04FD
:101FF000A091BE04B091BF0486FF07C060910301A9
:1020000067FD03C081E00E946D0F8091BC04909138
:10201000BD04A091BE04B091BF0487FF04C06FEF60
:1020200080E00E946D0F8091BC049091BD04A0914E
:10203000BE04B091BF0490FF04C06FEF81E00E9426
:102040006D0F8091BC049091BD04A091BE04B0912D
:10205000BF0491FF08C0609113017091140180E0EA
:1020600093E00E948D2F8091BC049091BD04A091BB
:10207000BE04B091BF0492FF08C06091110170913D
:10208000120180E193E00E948D2F8091BC04909119
:10209000BD04A091BE04B091BF0493FF08C060913D
:1020A0000F017091100182E093E00E948D2F8091CA
:1020B000BC049091BD04A091BE04B091BF0494FFF4
:1020C00008C060910D0170910E0182E193E00E94C1
:1020D0008D2F8091BC049091BD04A091BE04B0915D
:1020E000BF0495FF0CC06091C10484E193E00E949D
:1020F0007B2F6091C00485E193E00E947B2F1092BA
:10210000BC041092BD041092BE041092BF04089546
:10211000CF92DF92EF92FF9280916D058823E9F0D4
:102120008630B9F048F4833071F0843081F0FF904C
:10213000EF90DF90CF900895873069F08830B9F73D
:1021400010926D05F4CF84E080936D05F0CF85E0AB
:10215000FBCF87E0F9CF88E0F7CF80910101181617
:102160005CF4833009F4EAC00CF081C0813009F4DA
:102170008FC0823009F4B4C08091000118165CF45D
:10218000843009F425C20CF0BFC1813009F4FEC1CE
:10219000833009F411C2F894F090FA031092FA0314
:1021A0007894FF2009F4C3CFF0FE10C0809103049F
:1021B0009091040460E472E09695879596958795D2
:1021C0000E94DA039093C2028093C102F1FE0AC01A
:1021D00080910504909106040E94B8049093C40273
:1021E0008093C302F2FE0AC0809107049091080414
:1021F0000E94B8049093C6028093C502F3FE0AC001
:102200008091090490910A040E94B8049093C80236
:102210008093C702F4FE0AC08091FB039091FC03F7
:102220000E94C0049093060180930501F5FE0AC048
:102230008091FD039091FE030E94C00490930801D9
:1022400080930701F6FE0AC08091FF03909100047D
:102250000E94C00490930A0180930901F7FE67CFA2
:1022600080EC9DE590930C0180930B0160CF84304E
:1022700009F498C0853009F07FCF8091110480FD6A
:102280007BCF8091C00280FD3DC11092010174CFCF
:102290001092BF0280910B0590910C05A0910D0545
:1022A000B0910E058093BB029093BC02A093BD0237
:1022B000B093BE0280E00E94F40E0E94A9048160E7
:1022C0000E94920480916E05816080936E0540EEBD
:1022D00053E964E070E080E00E948F0882E029C04A
:1022E0008091110480FD48CF8091C00280FF24C0FE
:1022F0002FEF31EE84E0215030408040E1F700C004
:10230000000080910B0590910C05A0910D05B091F6
:102310000E058093BB029093BC02A093BD02B093C4
:10232000BE0240E058EF6FEF7FEF80E00E948F0821
:1023300083E08093010120CF8EEFFBCF80911104C9
:1023400080FD1ACF8091C00280FDDCC080910B051A
:1023500090910C05A0910D05B0910E058093BB02E4
:102360009093BC02A093BD02B093BE0281E00E9494
:10237000F40E80910B0590910C05A0910D05B09184
:102380000E058093BB029093BC02A093BD02B09354
:10239000BE0240E058E160E070E080E00E948F08FB
:1023A00084E0C7CF8091110480FDE6CE8091C00209
:1023B00080FFC2CFC0900B05D0900C05E0900D05BA
:1023C000F0900E058091BB029091BC02A091BD02DD
:1023D000B091BE02C81AD90AEA0AFB0A8091BF026C
:1023E000813001F18230C1F18111C6CEFF92EF92AE
:1023F000DF92CF9289E292E09F938F930E94722E98
:102400000F900F900F900F900F900F9080910F01F1
:102410009091100197FD04C082E08093BF025ECFCF
:1024200081E0FBCFFF92EF92DF92CF9282E192E0C8
:102430009F938F930E94722ED0921001C0920F0131
:1024400082E08093BF02809301010F900F900F9064
:102450000F900F900F9090CEFF92EF92DF92CF925D
:10246000809110018F9380910F018F9389EF91E0FC
:102470009F938F930E94722E80910F019091100173
:10248000AC0140585109052E000C660B770B2DB797
:102490003EB7285F3F4F0FB6F8943EBF0FBE2DBF2B
:1024A000C416D506E606F70638F180589F4F092E68
:1024B000000CAA0BBB0B8C159D05AE05BF05E0F00B
:1024C00080E00E94F40E80910B0590910C05A09184
:1024D0000D05B0910E058093BB029093BC02A093B2
:1024E000BD02B093BE0240E05CEF6FEF7FEF80E093
:1024F0000E948F0885E01DCF8FEF9FEF9093100112
:1025000080930F018DEF15CF853009F46EC08630B2
:1025100009F041CE8091110481FD3DCE81E090E033
:102520000E9446048091D20487FD6FC08091110102
:102530009091120197FF1FC080E090E20E94460434
:102540008091E8039091E903909312018093110127
:102550008091BC049091BD04A091BE04B091BF04D1
:1025600094608093BC049093BD04A093BE04B09388
:10257000BF040E94E30F40E061E08091110190915F
:1025800012010E94470E1092000105CE0E94A9047C
:1025900082600E94920480E00E94240F81E090E01B
:1025A0000E9446048091D20487FD02C084E001C0ED
:1025B00083E080930001EFCD8091110481FDEBCD8C
:1025C00040E05EEC6FEF7FEF81E00E948F08EECF7E
:1025D0008091110481FDDFCD40E052E060E070E0C9
:1025E00081E00E948F0885E0E4CF8091110481FD95
:1025F000D2CD81E00E94240F40E05CEF6FEF7FEFCF
:1026000081E00E948F0886E0D4CF8EEFD2CF8091F8
:102610001104837051F480910101181634F08091F7
:102620000001181614F080E008950E948810EFCF82
:10263000CF92DF92EF92FF92CF93DF9300D000D042
:1026400000D0CDB7DEB7CE0105969F938F93049748
:102650009F938F938CE891E09F938F938091820555
:102660008F93809181058F930E94972E0FB6F894D7
:10267000DEBF0FBECDBF019771F08DEF26960FB66E
:10268000F894DEBF0FBECDBFDF91CF91FF90EF90EA
:10269000DF90CF9008958D8187FDF0CF80918305E5
:1026A000843A19F18F3A79F1823A09F049C0C98028
:1026B000DA80EB80FC800E94A90481600E94920471
:1026C00080910B0590910C05A0910D05B0910E0520
:1026D000B701A601481B590B6A0B7B0B80E00E94D7
:1026E0008F0887FF0EC08EEFC9CF89819A81AB8199
:1026F000BC8180930B0590930C05A0930D05B093BE
:102700000E0580E0BBCF49815A816B817C818CEFC3
:10271000413C34ED530731E0630771050CF0AECF57
:102720008091120482608093120470956095509598
:1027300041955F4F6F4F7F4F80E00E948F08E1CF40
:102740008AEF9CCFCF93DF9300D00F92CDB7DEB747
:10275000CE0101969F938F9302969F938F9388E962
:1027600091E09F938F93809182058F938091810553
:102770008F930E94972E0FB6F894DEBF0FBECDBF89
:10278000019739F08DEF0F900F900F90DF91CF915F
:102790000895898187FDF7CF80918305883A01F1FB
:1027A00030F4893971F08A39A9F08AEFECCF823C94
:1027B000D9F0833C09F1893AC1F78B810E94240F3B
:1027C000E2CF8B818093F60380E290E00E94460482
:1027D00080E0D9CF8B818093F70380E092E0F6CF41
:1027E0008B810E94F40ECFCF6B81062E000C770BED
:1027F00080E00E94AC0DC7CF6B81062E000C770BDA
:1028000081E0F7CFCF93DF9300D0CDB7DEB79E0145
:102810002F5F3F4F3F932F937F936F932EEE30E0C8
:102820003F932F939F938F930E94972E0FB6F89408
:10283000DEBF0FBECDBF019731F489810F900F909D
:10284000DF91CF9108958DEFF9CFCF93DF9300D033
:10285000CDB7DEB7BE016F5F7F4F8091810590914C
:1028600082050E94021487FD20C089819A819C0103
:102870002F5F3F4F21303140E8F490931201809355
:1028800011018091BC049091BD04A091BE04B0914F
:10289000BF0494608093BC049093BD04A093BE04D5
:1028A000B093BF040E94E30F80E00F900F90DF9180
:1028B000CF9108958CEFF9CFCF93DF9300D0CDB7B0
:1028C000DEB7BE016F5F7F4F8091810590918205D9
:1028D0000E94021487FD20C089819A819C012F5F8C
:1028E0003F4F21343105E8F4909314018093130194
:1028F0008091BC049091BD04A091BE04B091BF042E
:1029000092608093BC049093BD04A093BE04B093E6
:10291000BF040E94E30F80E00F900F90DF91CF91F2
:1029200008958CEFF9CF0F931F93CF93DF9300D0CF
:10293000CDB7DEB7BE016F5F7F4F8091810590916B
:1029400082050E94021487FD07C080918305833AA7
:1029500051F0853A31F18AEF0F900F90DF91CF91CE
:102960001F910F91089509811A810E94A904826024
:102970000E949204A801110F660B770B809130051D
:1029800090913105A0913205B0913305481B590B48
:102990006A0B7B0B81E00E948F0887FF10C08EEFCF
:1029A000DBCF89819A81092E000CAA0BBB0B809387
:1029B000300590933105A0933205B093330580E044
:1029C000CBCFCF93DF9300D0CDB7DEB79E012F5F83
:1029D0003F4F3F932F937F936F9329EE30E03F93C8
:1029E0002F939F938F930E94972E0FB6F894DEBF7C
:1029F0000FBECDBF019731F489810F900F90DF9109
:102A0000CF9108958DEFF9CFCF92DF92EF92FF92A1
:102A10001F93CF93DF9300D0CDB7DEB71A82198210
:102A20008CEDE82E84E0F82E10E090E3C92E95E7B7
:102A3000D92EBE016F5F7F4F8091810590918205F5
:102A40000E94E11487FD30C069817A81113041F024
:102A50001230A1F1613F9AE0790730F08CEF24C089
:102A6000653EECE07E07D0F7643F91E07907B0F374
:102A70002091810530918205280F311D87FD3A95FF
:102A80003093820520938105C6010E94902DF701A5
:102A900066838091DA040E94E4041F5FF7E0EF0E82
:102AA000F11C133031F680E00F900F90DF91CF9141
:102AB0001F91FF90EF90DF90CF9008956938F3E178
:102AC0007F0790F2CBCFCF93DF9300D000D0CDB76C
:102AD000DEB7BE016F5F7F4F8091810590918205C7
:102AE0000E94E11487FD26C0209181053091820566
:102AF000A901480F511D87FD5A95CA0150938205BF
:102B000040938105BE016D5F7F4F0E94E11487FDF8
:102B100011C089819A819C012051310929373341A3
:102B200080F46B817C81613127E2720750F40E944E
:102B30004A0580E00F900F900F900F90DF91CF919A
:102B400008958CEFF7CFCF93DF9300D0CDB7DEB7EA
:102B5000BE016F5F7F4F80918105909182050E9439
:102B6000E11487FD0AC0809183058C3BB9F150F4D4
:102B70008E38D9F08F3831F18AEF0F900F90DF91B6
:102B8000CF9108958D3BA1F18E3BB1F789819A8158
:102B90009093170480931604809116049091170463
:102BA000892B61F00E948810F7CF49815A8170E02B
:102BB00060E080E00E948F0887FD02C080E0DDCFEA
:102BC0008EEFDBCF49815A8170E060E070956095AF
:102BD000509541955F4F6F4F7F4FEBCF69817A8161
:102BE000611584E0780760F480E00E94030EC5CF91
:102BF00069817A81611584E0780710F481E0F5CF6E
:102C00008CEFBBCFCF93DF9300D0CDB7DEB79E0163
:102C10002F5F3F4F3F932F937F936F9322EE30E0D0
:102C20003F932F939F938F930E94972E0FB6F89404
:102C3000DEBF0FBECDBF019731F489810F900F9099
:102C4000DF91CF9108958DEFF9CF1F93CF93DF934D
:102C50000F92CDB7DEB7BE016F5F7F4F80918105C8
:102C6000909182050E94021687FD1DC0209181056A
:102C700030918205280F311D87FD3A9530938205EA
:102C80002093810519818CEF123068F480E090E286
:102C90000E944604412F61E08091E8039091E9038E
:102CA0000E94470E80E00F90DF91CF911F91089511
:102CB0001F93CF93DF930F92CDB7DEB7BE016F5F47
:102CC0007F4F80918105909182050E94021687FDB9
:102CD0001DC02091810530918205280F311D87FD8F
:102CE0003A95309382052093810519818CEF12303B
:102CF00068F480E090E10E944604412F60E08091FA
:102D0000E6039091E7030E94470E80E00F90DF9169
:102D1000CF911F910895CF93DF930F92CDB7DEB778
:102D2000BE016F5F7F4F80918105909182050E9467
:102D3000021687FD26C02091810530918205280F5B
:102D4000311D87FD3A953093820520938105898155
:102D50008130D9F4109274051092750510927605A1
:102D60001092770544E064E775E086E190E00E9408
:102D7000540F44E068E775E080E290E00E94540F51
:102D800080E00F90DF91CF910895823059F7109233
:102D900078051092790510927A0510927B05E2CFA2
:102DA0001F93CF93DF930F92CDB7DEB7809181054C
:102DB00090918205FC0110812EEB210F253008F047
:102DC00051C001969093820580938105BE016F5F8B
:102DD0007F4F0E94021687FD46C080918305823E88
:102DE00069F1833EB9F0813E39F48981143471F080
:102DF0002CF4133449F085B980E035C0153441F026
:102E00001634C9F781BBF8CF88B9F6CF8BB9F4CFA8
:102E10008EB9F2CF8981143469F024F4133441F06F
:102E200083B9EACF153441F01634D1F78FB9E4CF26
:102E300086B9E2CF89B9E0CF8CB9DECF898114346D
:102E400069F024F4133441F084B9D6CF153441F03D
:102E50001634D1F780BBD0CF87B9CECF8AB9CCCFCB
:102E60008DB9CACF8CEF0F90DF91CF911F9108954C
:102E700061EC74E080918105909182050E940216B8
:102E800087FD28C02091810530918205A901480F56
:102E9000511D87FD5A95CA015093820540938105C3
:102EA00060EC74E00E94021687FD14C08091BC049F
:102EB0009091BD04A091BE04B091BF049062809334
:102EC000BC049093BD04A093BE04B093BF040E94C1
:102ED000E30F80E00895CF93DF930F92CDB7DEB775
:102EE000BE016F5F7F4F80918105909182050E94A6
:102EF000021687FD0AC08981823078F4882349F060
:102F0000EE9A81E08093C90280E00F90DF91CF912B
:102F10000895EE981092C902F7CF8CEFF6CFDF92AA
:102F2000EF92FF920F931F93CF93DF93CDB7DEB74E
:102F300062970FB6F894DEBF0FBECDBFD090830569
:102F4000E0908105F0908205BE016F5F7F4FC70161
:102F50000E94E11487FD60C08701080F111D87FDE5
:102F60001A95F8019081992341F0BE016D5F7F4F62
:102F7000C8010E94E11487FD4FC0080F111D87FD95
:102F80001A95F8019081992341F0BE016B5F7F4F44
:102F9000C8010E94E11487FD3FC0080F111D87FD85
:102FA0001A95F8019081992341F0BE01695F7F4F26
:102FB000C8010E94E11487FD2FC0080F111D87FD75
:102FC0001A95F8019081992341F0BE01675F7F4F08
:102FD000C8010E94021687FD1FC0080F111D87FD42
:102FE0001A95F8019081992341F1CE0141969F9362
:102FF0008F9307979F938F9388E991E09F938F9387
:103000001F930F930E94972E0FB6F894DEBF0FBE4A
:10301000CDBF019779F08DEF62960FB6F894DEBFC1
:103020000FBECDBFDF91CF911F910F91FF90EF9019
:10303000DF900895898987FDEFCF080F111D87FD67
:103040001A95F8018081811125C0802F8E1987FD86
:10305000E3CF81E0F7EADF1280E0BE016F5F7F4FD0
:103060000E94890927EA8091BC049091BD04A09137
:10307000BE04B091BF04D216B1F080628093BC044C
:103080009093BD04A093BE04B093BF040E94E30FCD
:1030900080E0C2CFBE01655F7F4FC8010E94E1148E
:1030A00087FFD3CFB9CF8064E9CFCF93DF9300D030
:1030B00000D000D00F92CDB7DEB7BE01695F7F4F61
:1030C00080918105909182050E94021687FD3DC086
:1030D000E0918105F0918205E80FF11D87FDFA95D9
:1030E000F0938205E093810519821A821B821C826B
:1030F0008081811113C089819A81AB81BC818093C9
:10310000700590937105A0937205B093730580913B
:10311000D6049F81911126C08D7F25C0CE010596D2
:103120009F938F9304979F938F9382E991E09F934E
:103130008F93FF93EF930E94972E0FB6F894DEBF04
:103140000FBECDBF019751F08DEF27960FB6F894C3
:10315000DEBF0FBECDBFDF91CF9108958D8187FF78
:10316000CACFF3CF82600E94200580E0EECFAF92FD
:10317000BF92DF92EF92FF920F931F93CF93DF9353
:10318000CDB7DEB760970FB6F894DEBF0FBECDBFE8
:103190008091C2048F3FC9F48FE591E09F938F9394
:1031A0000E94722E0F900F9080E060960FB6F894F8
:1031B000DEBF0FBECDBFDF91CF911F910F91FF906A
:1031C000EF90DF90BF90AF9008958E010F5F1F4F7B
:1031D00080E1F80111928A95E9F744E050E065EC4E
:1031E00074E0C8010E94382F7E01F6E0EF0EF11C5A
:1031F00043E050E069EC74E0C7010E94382FD090A2
:10320000CC04DA865E018BE0A80EB11C45E050E0EC
:103210006DEC74E0C5010E94382FBF92AF928D2DE6
:103220000D2C000C990B9F93DF92FF92EF921F934E
:103230000F938CE491E09F938F930E94722E0FB6B0
:10324000F894DEBF0FBECDBFAFCFCF93DF93CDB726
:10325000DEB7AE014B5F5F4FFA0161917191AF0133
:1032600080917D0590917E050E94B02EDF91CF91D7
:103270000895CF93C82F8FE991E0CE3030F425E048
:10328000C29FC00111248D549E4F9F938F931F9214
:10329000CF9384EA91E09F938F930E942519C09366
:1032A000BA020F900F900F900F900F900F90C130B7
:1032B000C1F40FB6F894A89580916000886180935E
:1032C0006000109260000FBEF89481E00E949406A6
:1032D0000E94690E8FE09EE00197F1F700C00000A8
:1032E000F7CFC93038F48FEF809384058C2FCF91BE
:1032F0000C949406CF9108951F93CF93DF930F9270
:10330000CDB7DEB7BE016F5F7F4F80918105909191
:1033100082050E94021687FD19C0809183058538B9
:1033200009F4CEC0D0F5803109F488C0A0F48D3006
:1033300009F46FC08F3009F470C08C3099F4898122
:10334000843008F0FBC00E94920480E00F90DF916F
:10335000CF911F910895813409F486C080F48131A2
:1033600009F477C0813B09F4E1C0893B09F4E3C06B
:10337000E9EBF2E0823409F4DBC08AEFE7CF823870
:1033800009F48DC0833871F71981111103C080E0F1
:103390000E943D0510931A04D8CF8A3A09F49BC0C5
:1033A00078F4853909F467C0863909F46FC08A3822
:1033B000C9F68981803108F0C1C00E94E404C5CFFC
:1033C000813B09F48EC0C0F48D3A61F69981923048
:1033D00008F0B4C080911601992309F49DC084605F
:1033E0008093160188E090E00E94460480911204C8
:1033F000816080931204A9CF883B09F478C0843C93
:1034000009F0B0CF8981803108F098C080933804EA
:103410009CCF89810E94200598CF8981843008F053
:103420008DC0909111049F7040E1849F9001112400
:10343000922B909311040E947B0487CF9981943042
:1034400008F07CC080911104807F892B8093110447
:103450007CCF9981943008F071C080916E05807F97
:10346000892B80936E0571CF8981893008F066C001
:103470000E9439196ACF8981803408F05FC0809337
:10348000F80380E190E00E9446045FCF8981803498
:1034900008F054C08093F90380E091E0F4CF898173
:1034A000843008F04BC080936C05882319F00E948B
:1034B00044054BCF8091DA04877F8093DA0445CFAF
:1034C00099819230D8F58091D604992311F08460C7
:1034D000A1CF8B7F9FCF8981823080F58093870534
:1034E00034CF8981853150F5809302012ECF8981B7
:1034F0008B3F20F580936F05882321F08A3F39F4B4
:10350000589A01C0589884B58F7C84BD1ECF8A5FBD
:1035100088BD84B58062F9CF8B7F8093160188E0E7
:1035200090E00E944604109212040FCFE2E0F1E016
:10353000898180830ACFE7E1F1E0FACF8CEF06CFF3
:10354000AF92BF92CF92DF92EF92FF920F931F93B1
:10355000CF93DF9300D000D0CDB7DEB7F8941982B7
:103560001A821B821C82AE014F5F5F4F60E080E0D9
:103570000E94EA0919810A81FB80EC8080E00E94A8
:10358000750AEF92FF920F931F931F928F930AEE8B
:1035900013E0F80183818F9382818F9381818F93D0
:1035A00080818F938AECE82E82E0F82EF7018081EB
:1035B0001F928F9387E191E09F938F930E9425192B
:1035C00019821A821B821C82AE014F5F5F4F60E03E
:1035D00081E00E94EA09D980CA80BB80AC8081E08A
:1035E0000E94750AAF92BF92CF92DF921F928F9383
:1035F000F80187818F9386818F9385818F93848152
:103600008F93F70181811F928F9383EF90E09F93B7
:103610008F930E94251978940FB6F894DEBF0FBEE1
:10362000CDBF80E00F900F900F900F90DF91CF9162
:103630001F910F91FF90EF90DF90CF90BF90AF90D0
:103640000895CF93DF93CDB7DEB7AE014B5F5F4FE9
:10365000FA0161917191AF01809185059091860584
:103660000E94B02EDF91CF9108950F931F93CF93B7
:10367000DF938091CD02E091CE03E81BC82F8A3002
:1036800008F0CAE08C1B8093CD02CE0F04E811E055
:10369000EC1306C080E0DF91CF911F910F91089548
:1036A000D1E0DE0FF0E0E253FD4F80811F928F9357
:1036B0001F930F930E94211B0F900F900F900F905C
:1036C000ED2FE6CFE8EFF4E086898F9385898F931D
:1036D00084898F9383898F938FE791E09F938F9352
:1036E0000E94211B0F900F900F900F900F900F9042
:1036F00080E008958FE391E09F938F931F921F9234
:103700001F928CE08F931F921F9280E491E09F9311
:103710008F930E94211B8DB79EB70A960FB6F8941F
:103720009EBF0FBE8DBF80E008950E947A0500976E
:10373000A1F0FC018081282F082E000C330B3F9351
:103740008F938BE391E09F938F930E94211B0F90A7
:103750000F900F900F9080E0089580E0ECCF9F9342
:103760008F938EED90E09F938F930E94211B0F907B
:103770000F900F900F9097FD80E008958091300595
:10378000909131050E94AF1B80E008950F931F9325
:10379000CF93DF930E947A05009759F0EC018C01DA
:1037A000085F1F4F899199910E94AF1BC017D107E5
:1037B000C9F780E0DF91CF911F910F9108950E948A
:1037C0007A05009739F0FC01808191810E94AF1B3E
:1037D00080E0089590E080E0F9CF9F938F937F93EE
:1037E0006F9389ED90E09F938F930E94211B0F9020
:1037F0000F900F900F900F900F9097FD80E008951D
:10380000CF93DF93CFE6D5E06D817E818F81988560
:103810000E94ED1B69857A858B859C850E94ED1B36
:1038200080E0DF91CF9108959F938F9385ED90E095
:103830009F938F930E94211B0F900F900F900F90DA
:1038400097FD80E008958FEF93E00E946D2F8150E7
:10385000990B2AE0AC01249FC001259F900D1124F3
:103860000E94141C80E008951092B8021092B702D2
:103870008091B7029091B802209111042370822B9D
:103880009093B8028093B702809184058F3F21F016
:1038900085E090E00E9446042091D30427FD09C0F2
:1038A0008091B7029091B80280649093B80280939F
:1038B000B70225FD09C08091B7029091B8028068D7
:1038C0009093B8028093B7028091D20487FD09C01B
:1038D0008091B7029091B80291609093B802809362
:1038E000B70280917C05882349F08091B7029091BE
:1038F000B80290629093B8028093B70280918405D9
:10390000823001F581E080936C050E94440583E0DC
:103910008093840585E08093190480913604882380
:1039200049F08091B7029091B80290649093B802E8
:103930008093B7028091B7029091B8020E94141C44
:1039400080E00895809184058F3F21F78091B70230
:103950009091B80290689093B8028093B702DACF42
:10396000EF92FF920F931F93CF93DF938DE1E82E99
:1039700084E0F82ED0E0C0E000E315E7F7016281B3
:1039800073816115710571F08091DA0490E00C2E5D
:1039900002C0959587950A94E2F780FF15C0C8018B
:1039A0000E94902DCB010E94141C219628E0E20E6B
:1039B000F11CC330D10511F780E0DF91CF911F9149
:1039C0000F91FF90EF90089570E060E0EBCF0F93C0
:1039D0001F93CF93DF930E947A05009759F0EC0173
:1039E0008C01085F1F4F899199910E94141CC01788
:1039F000D107C9F780E0DF91CF911F910F91089512
:103A00000E947A05009739F0FC01808191810E9423
:103A1000141C80E00895809183058C3B29F08D3B38
:103A200061F090E080E0F3CF80E090E10E944604F6
:103A30008091E6039091E703EACF80E090E20E9454
:103A400046048091E8039091E903E1CF1F928F93A0
:103A500081ED90E09F938F930E94211B0F900F9018
:103A60000F900F9097FD80E00895E0918105F0910F
:103A7000820590812EEB290F253008F044C020915B
:103A80008305223E69F1233EC1F0213E31F4943496
:103A900081F03CF4933459F085B10E94261D80E0FA
:103AA0000895953441F09634B9F781B3F6CF88B1D3
:103AB000F4CF8BB1F2CF8EB1F0CF943469F024F40F
:103AC000933441F083B1E9CF953441F09634D1F786
:103AD0008FB1E3CF86B1E1CF89B1DFCF8CB1DDCF3C
:103AE000943469F024F4933441F084B1D6CF953402
:103AF00041F09634D1F780B3D0CF87B1CECF8AB121
:103B0000CCCF8DB1CACF8CEF08958091C1040E94B3
:103B1000261D8091C0040E94261D80E0089580919A
:103B2000D604869581700E94261D60917005709163
:103B3000710580917205909173056115710581057C
:103B4000910511F00E94ED1B80E008950E947A0516
:103B5000009731F0FC0180810E94261D80E00895CD
:103B6000809183058539F1F1A8F4803189F140F421
:103B70008C3041F18F3049F18130F9F080E0ECCFA9
:103B8000853851F18A3809F441C08131B9F7809103
:103B90006E0520C08D3A81F140F4893939F18A39B6
:103BA00041F1863959F781E01EC0883C49F1893CD2
:103BB00059F18E3A19F78CB111C080917C051092A1
:103BC0007C05CACF0E94A904C7CF0E948A04C4CF33
:103BD000809111048F70C0CF8091D60482FB88271A
:103BE00080F9BACF80E00E94090BB6CF8091DA034A
:103BF000B3CF8091E303B0CF809112048170ACCF3A
:103C000080E00E94010CA8CF81E0FBCF8091DA0414
:103C10008770A2CFFF920F931F93CF93DF938C01F6
:103C2000FC01808191810E94141CC82FF8018281BF
:103C300093810E94141CC80FF801848195810E9411
:103C4000141CC80FF801868197810E94141CC80FAC
:103C5000F80180850E94261DC80FF8018185282F54
:103C6000082E000C330B3F938F938BE391E09F93CF
:103C70008F930E94211BF82ED92FF80182859385FE
:103C80000E94141C2F2D3D2F0F900F900F900F901E
:103C900037FD20E08C0F820FDF91CF911F910F91A4
:103CA000FF9008951F93CF93DF93CDB7DEB7619751
:103CB0000FB6F894DEBF0FBECDBF10918305BE01D5
:103CC0006F5E7F4F80918105909182050E94021660
:103CD00087FD1AC08989883008F520E032E0173A5C
:103CE00011F020E031E040E1849FC001112440E167
:103CF000BE016F5F7F4F820F931F0E94D90ECE01CE
:103D000001960E940A1E80E061960FB6F894DEBF0D
:103D10000FBECDBFDF91CF911F9108958CEFF4CFEF
:103D2000CF93DF93CDB7DEB760970FB6F894DEBFC1
:103D30000FBECDBF81E090918305973A09F080E0F6
:103D4000BE016F5F7F4F0E941B0BCE0101960E9448
:103D50000A1E80E060960FB6F894DEBF0FBECDBF9E
:103D6000DF91CF910895CDB7DEB760970FB6F89485
:103D7000DEBF0FBECDBF84B780937C0514BE80919B
:103D80007C0583FF11C08091000990910109853A5B
:103D90009A4551F480917C05877F80937C058091C2
:103DA0007C05806880937C058AE595EA90930109FB
:103DB000809300099FB7F894A89584B7877F84BF44
:103DC00018E110936000109260009FBF8FE00FB663
:103DD000F894A895109360000FBE80936000109235
:103DE000D7001092D80095E19093C5008093C6004B
:103DF00080E88093610010926100789481E00E94D5
:103E00003D058091C80082608093C80080E1809366
:103E1000CC001093C9008091C90080688093C900CC
:103E20008CE780933C0410923D0410923E048AE992
:103E300092E023EF3BE03093A3022093A2022BED0C
:103E40003BE03093A5022093A40223E020939D023F
:103E50001092A7021092A6025A9A9093B7058093E7
:103E6000B6059093B9058093B80590938905809322
:103E70008805909386058093850590937E058093B1
:103E80007D0580917C051F928F938DE394E09F9335
:103E90008F930E94251980917100817F809371001A
:103EA000109290008AE080939100109299001092F5
:103EB000980010929B0010929A0010929D00109210
:103EC0009C0010929500109294003E9A46980F9094
:103ED0000F900F900F908091C2048F3FC1F48FEF2D
:103EE0009FEF90931401809313019093120180939C
:103EF00011018FEF9FEFDC018093BC049093BD0410
:103F0000A093BE04B093BF040E94E30FA5C044E099
:103F100064E775E086E190E00E94D90E8091740517
:103F200090917505A0917605B09177058F3F9F4FD1
:103F3000AF4FBF4F79F4109274051092750510922F
:103F400076051092770544E064E775E086E190E03D
:103F50000E94540F44E068E775E080E290E00E9420
:103F6000D90E8091780590917905A0917A05B0914C
:103F70007B058F3F9F4FAF4FBF4F79F4109278056D
:103F80001092790510927A0510927B0544E068E75B
:103F900075E080E290E00E94540F00E011E040E103
:103FA000BE016F5F7F4FC8010E94D90E89819A813F
:103FB00081329E4408F093CF8B819C8181329E4454
:103FC00008F08DCF8D819E810C978D34924008F042
:103FD00086CF8F8198850C978D34924008F07FCFE3
:103FE0008985803408F07BCF8B859C858938934107
:103FF00008F075CF005F1F4F003841E0140779F6D5
:1040000080E093E00E94752F909314018093130138
:1040100080E193E00E94752F90931201809311012B
:1040200082E093E00E94752F9093100180930F011E
:1040300082E193E00E94752F90930E0180930D0111
:1040400084E193E00E946D2F8093C10485E193E0A9
:104050000E946D2F8093C00428E334E6F901459156
:1040600055916591749180E090E0DC01F0E0E0E032
:104070002E173F0709F09DC0481759076A077B07AD
:1040800009F0A6C040E050E0BA01E0E0F0E7CF015F
:104090000196E4914E0F511D611D711DFC01803F81
:1040A000AFE79A07A1F746365D496740710509F009
:1040B00091C0A2ECB4E09D01FC014491F90141934F
:1040C0009F0101968115F0E89F07B1F722ED34E0DA
:1040D0008D918F3F09F077C08093C20489E0F0E0B2
:1040E000E0E080935700E491EE3509F075C0E3E01D
:1040F000F0E080935700E491E83D09F06DC0E2E004
:10410000F0E080935700E491E83C09F065C0E1E0FD
:10411000F0E08093570084918F738F3219F085E01F
:104120000E94391984B1817F84B984B1876084B9D0
:1041300085B1817F85B9289A80E58CBD1DBC8AB187
:1041400082618AB98BB182618BB98FE39CE9019757
:10415000F1F700C00000249A2C9A2C982C9A60E861
:1041600080E00E94CA0660EE81E00E94CA066AEC06
:1041700082E10E94CA0660EE83E10E94CA0680E0E6
:104180000E94B806803851F19FEF80917C058E7FA8
:10419000B1F58091D30487FF32C085E394E09F930B
:1041A0008F930E94251980E00E943D050F900F908B
:1041B000FFCF8F010F5F1F4FE4918E0F911DA11D47
:1041C000B11DF80155CF2A173B0709F081CF86CFE3
:1041D00081E0A6CF82E0A4CF84E0A2CF81E00E945C
:1041E000B806803E89F682E10E94B8068093D20428
:1041F00083E10E94B8068093D30490E0C6CF9F3F2E
:1042000019F486E00E9439191092D5041092D40452
:1042100080917A00876080937A0080917C0080642E
:1042200080937C0080917A00806880937A0013E00C
:1042300010937E000E94B60B279A209A559A509AA6
:104240002F9A289A5D9A589A81E08093D604809399
:104250006C058AEF80936F0584E190E09093F204FF
:104260008093F10488E08093DA0424E12093E2044F
:104270008CE390E09093DD048093DC042093E904C8
:104280009093E4048093E3042093F0049093EB0470
:104290008093EA04259A269A2D982E985698579836
:1042A000519A549A599A5C9A80E00E944E0B082FBA
:1042B00081E00E944E0B87FD02C007FF96C087E099
:1042C0000E94391980B38F7880BB81B3806781BB2E
:1042D000879A80911601877E8093160188E090E08E
:1042E0000E945B041092670562E370E088EB91E046
:1042F0000E944A05109268051092690510926A059D
:1043000010926B0583E084BD85BD9DE797BD96E067
:1043100096BD80936E0080916A008F7C80936A00C6
:1043200080916A00806280936A0080918405811187
:1043300008C00E94580D882309F400C188E00E943B
:10434000391980918405811105C00E94DD0C81E03E
:104350000E94DD0C8091840581110CC012E0109345
:104360006C050E94440588E0809317011093840532
:1043700010926D058BE494E09F938F930E94722EB0
:104380000F900F908AE3E82E87E0F82EA895809191
:104390007F0590918005892B09F0D6C08DB79EB717
:1043A0009093800580937F058091B4059091B50529
:1043B0008A970CF4EFC08FEF2091B4053091B505CA
:1043C0002A3231050CF4EFC03F932F93FF92EF9206
:1043D0000E94211B1092B5051092B4050F900F900A
:1043E0000F900F900E948810D1CF64E080E00E946F
:1043F0008D0A62E081E00E948D0A68E180E00E94FF
:10440000CA0A66E080E00E94B80A68E181E00E9482
:10441000CA0A68E081E00E94B80A9FEFA0E7B2E014
:104420009150A040B040E1F700C000000BE1E2E095
:10443000F5E0DF01202F1D922A95E9F788E58093AA
:10444000F80480E293E09093FA048093F90490E8F2
:10445000E92E9CE0F92EF092FC04E092FB0480EC43
:1044600094E49093FE048093FD048AEF90E090938F
:1044700000058093FF04909302058093010580E07E
:104480000E940609E7E2F5E0DF011D920A95E9F7CF
:1044900089E580931D05F0921F05E0921E0580ECD2
:1044A00093E0909321058093200580E095E0909320
:1044B0002305809322058CE090E09093250580935E
:1044C0002405909327058093260581E00E94060924
:1044D000809181008F7E809381008091810088602F
:1044E00080938100809180008D7F809380008091F7
:1044F00080008E7F80938000809180008F738093F6
:104500008000809180008F7C80938000809181006A
:10451000887F82608093810080E092E090938900A0
:1045200080938800109285001092840080916F0023
:10453000826080936F0010936E05C4CE81E00E946C
:10454000580D8111FBCEFDCE2DB73EB780917F0572
:10455000909180052817390709F426CF0E94C90BCE
:104560008D3011F08A3009F480E02091B40530914B
:10457000B505F901E657FA4F8083882309F41CCF6B
:104580002F5F3F4F3093B5052093B4052A32310594
:104590000CF012CF80918805909189050E94082E19
:1045A00087FFDECF09CF121613060CF01BCF811147
:1045B00019CF80918705882381F0609185057091DE
:1045C00086058AE895E00E94472F609185057091E5
:1045D00086058AE090E00E94422E10918A051132F1
:1045E00011F01F33A1F4E0918B05EE2309F44FC0C5
:1045F00080918E058F7D71F42DE043E062E975E0D6
:104600008BE895E00E947506E3E08F3F91F423E08C
:1046100030E036C080918F058F7DC9F720E444E0FB
:1046200062E574E08BE895E00E947506E4E08F3F58
:1046300071F30E2E000CFF0BE557FA4F908191118C
:1046400028C0909184059F3F29F4823018F081346E
:1046500009F03FC0809383054DE066EC75E01132B0
:1046600029F045E36DEE75E01F3389F60E9461067F
:10467000E82FFF27E1950CF4F0959F01882361F165
:1046800081E397E03F932F939F938F93A1CE80E098
:10469000D0CF903209F0BBCF909184059F3FC9F0F5
:1046A000803E20F090918405943099F480938305A6
:1046B0003196F0938205E093810542E36CE876E061
:1046C0001132A1F21F3309F0A2CF45E062E277E098
:1046D000CDCF25E030E0D4CF86E397E0D3CF1F9253
:1046E0000F920FB60F9211245F926F927F928F926A
:1046F0009F92AF92BF92CF92DF92EF92FF920F9371
:104700001F932F933F934F935F936F937F938F9359
:104710009F93AF93BF93EF93FF93CF93DF9300D01B
:1047200000D0CDB7DEB780911B0490911C049C0192
:104730002F5F3F4F30931C0420931B04883E93400F
:1047400008F40AC110921C0410921B047894809102
:104750001A04882339F0815080931A04811102C011
:104760000E943D05809184058330A9F4809119044D
:10477000882389F080911904815080931904811154
:104780000AC012E010936C050E94440588E08093F3
:104790001701109384058091D30487FDC6C08091D2
:1047A00018048F5F80931804863048F064E670E048
:1047B0008CED90E00E944A0580E00E943D0584E077
:1047C00090E00E945B048091D60481FF26C0809116
:1047D000740590917505A0917605B09177050196C5
:1047E000A11DB11D8093740590937505A093760566
:1047F000B09377058091780590917905A0917A051D
:10480000B0917B050196A11DB11D80937805909311
:104810007905A0937A05B0937B05809135048111C9
:1048200097C0C090DA04D12C9090360440913704A0
:10483000ECEDF4E02DE134E0F12CE12CAA24A3947A
:10484000B12C5E2CC6010E2C02C0959587950A945A
:10485000E2F780FF52C0D9016D917C9111970081E0
:10486000118186806115710509F46AC0892D90E077
:10487000809590950E2C02C0959587950A94E2F745
:1048800080FF5EC014968D919C91880F991F0E94A5
:10489000902DD90112968D919C911397680F791FD5
:1048A0007695679513967C936E931297882D90E07A
:1048B00068177907E8F5861B970B880F991F800FFB
:1048C000911F91838083D90111961C921E92159697
:1048D0001C921E921497882D90E060817181681758
:1048E000790758F4411106C0B50101C0660F5A940A
:1048F000EAF7962A918380834150BFEFEB1AFB0AB7
:104900003796285F3F4F63E0E616F10409F099CF30
:1049100090923604409337048091000990910109E8
:104920008A35954AD9F00E94C90B1092180447CFD6
:104930008617970740F6800F911F861B970BC1CFF4
:10494000C80196958795081B190B11830083C3CF67
:10495000815080933504E0CF7894DECF8091840538
:104960008F3F31F50E94690E0F900F900F900F90BE
:10497000DF91CF91FF91EF91BF91AF919F918F9177
:104980007F916F915F914F913F912F911F910F9167
:10499000FF90EF90DF90CF90BF90AF909F908F905F
:1049A0007F906F905F900F900FBE0F901F901895A3
:1049B0008091700590917105A0917205B091730579
:1049C0000097A105B105E9F00197A109B10980930C
:1049D000700590937105A0937205B0937305892BB0
:1049E0008A2B8B2B71F48091D6048D7F8093D60413
:1049F000809116018E7F8093160188E090E00E94DE
:104A00005B048091160490911704892B49F08091E2
:104A1000160490911704019790931704809316043D
:104A20008091140490911504009749F00197909398
:104A3000150480931404892B11F410929000809136
:104A4000D10381110DC080913A0490913B0481689B
:104A5000986090933B0480933A048BE08093D10359
:104A6000F0901104E090D1038F2D837009F404C1FC
:104A7000B2E0EB1290C00E94A90480FF19C090918F
:104A8000D0034091EA035091EB036091EC037091E5
:104A9000ED03442755276627707E411551056105B2
:104AA000704609F06EC0943118F49F5F9093D00364
:104AB00081FF19C08091CF034091EE035091EF0325
:104AC0006091F0037091F103442755276627707EAB
:104AD000411551056105704609F058C0843118F43C
:104AE0008F5F8093CF03EA94E092D1039FB19295B8
:104AF0009F708091D90440913904492748239093AD
:104B000039049091DB042091D7043091D804EDE171
:104B1000F4E0B0E0A0E050E001E010E0692F70E0C8
:104B20000A2E02C0759567950A94E2F760FFA7C048
:104B3000B8010A2E01C0660F0A94EAF76095962321
:104B40001782168211963896A330B10539F7409135
:104B5000F3045091F4044217530709F0CCC040917C
:104B60006C056091D2037091D303423009F4A6C062
:104B7000433009F469C1413009F0AFC040910201EE
:104B8000AAC0992309F494CF915090CF882309F4B7
:104B9000AACF8150A6CF21E0E212A5CF8091EA03EF
:104BA0009091EB039C0133703A8329830091EE03CB
:104BB0001091EF03980133703C832B83F1FA662444
:104BC00060F8712C660C771CFE01E60DF71D218143
:104BD00032813695279536952795E091CE0331E0C1
:104BE0003E0F3093CE03F0E0E253FD4F208320913F
:104BF000CD022F3F19F02F5F2093CD022F2D217171
:104C00002130B1F430910401311112C0807E9370D3
:104C10004091140550911505842B952B892B41F457
:104C20002093CC0264EF71E088EE93E00E944A0585
:104C30008F2D8272823209F056CF8091030181114B
:104C400013C0007E13708091390590913A05082BAE
:104C5000192B012B49F482E08093CC0264EF71E0C0
:104C600088EE93E00E944A058091D20487FD3BCFF5
:104C700082E08093CC0237CF1092CC0234CFBA01BD
:104C80000A2E02C0759567950A94E2F760FF5ACF25
:104C9000E680F780E114F10471F064817581620FA0
:104CA000731F6E197F0975836483608171816F5FE3
:104CB0007F4F718360833783268344CFFB01A4E059
:104CC000F695E795AA95E1F7613441E0740708F499
:104CD000B8C048E24E1B4093F70440911701460FBD
:104CE000572F511D4138B2E05B0708F0B5C0509313
:104CF000D3034093D2036091DA0470E0ECEDF4E06A
:104D000050E040E0A1E0B0E0F42E8B01042E02C0A0
:104D1000159507950A94E2F700FFA3C0028113815D
:104D200002171307A1F48D01042E01C0000F0A948D
:104D3000EAF7802B902B00811181020F131F138340
:104D400002830681020F132F111D15830483048132
:104D500015810217130739F48D0101C0000FFA9471
:104D6000EAF7009580234F5F5F4F37964430510537
:104D700059F68093D9049093DB0482FF79C08F9811
:104D80008091D90483FF76C02F9A109115011F7866
:104D9000E0E18E9FC0011124182B1093150182E0D1
:104DA00090E00E945B048091D7049091D804019612
:104DB0009093D8048093D70480913A0490913B0457
:104DC000892B39F180913A0490913B0481FF0DC009
:104DD000612F82E10E94CA0680913A0490913B04BF
:104DE0008D7F90933B0480933A0480913A04909194
:104DF0003B0483FF41C06091160183E10E94CA0613
:104E000080913A0490913B04877F90933B04809378
:104E10003A0480911304882309F44AC18150809395
:104E2000130480911204833009F09ECD629B9CCDC7
:104E300081E080931204809111048E7F809311048D
:104E400093CDE093F70449CF6134A1E07A0708F0ED
:104E500095CE1092F70441CF1092D3031092D20353
:104E60004ACF8D01042E01C0000F0A94EAF779CFD2
:104E70008F9A86CF2F9889CF80913A0490913B04E6
:104E800080FF0BC082E10E94B8068093D20480911B
:104E90003A0490913B048E7FB8CF80913A04909170
:104EA0003B0482FF0BC083E10E94B8068093D304C9
:104EB00080913A0490913B048B7FA7CF80913A0474
:104EC00090913B0484FF0BC06091F80380E00E9446
:104ED000CA0A80913A0490913B048F7E96CF8091CC
:104EE0003A0490913B0485FF0BC06091F60380E08B
:104EF0000E94B80A80913A0490913B048F7D85CF3F
:104F000080913A0490913B0486FF14C02091F203F3
:104F10003091F3033093DC032093DB0350E040E057
:104F200064E980E00E94490A80913A0490913B0430
:104F30008F7B6BCF80913A0490913B0487FF1DC01B
:104F400019821A821B821C82AE014F5F5F4F6FE68F
:104F500080E00E94EA0989819A81AB81BC818093BB
:104F6000EA039093EB03A093EC03B093ED038091DD
:104F70003A0490913B048F7748CF80913A04909106
:104F80003B0490FF0BC06091F90381E00E94CA0AC4
:104F900080913A0490913B049E7F37CF80913A04F0
:104FA00090913B0491FF0BC06091F70381E00E9458
:104FB000B80A80913A0490913B049D7F26CF80915E
:104FC0003A0490913B0492FF14C02091F403309175
:104FD000F5033093E5032093E40350E040E064E9F7
:104FE00081E00E94490A80913A0490913B049B7FA2
:104FF0000CCF80913A0490913B0493FF1DC019821D
:105000001A821B821C82AE014F5F5F4F6FE681E008
:105010000E94EA0989819A81AB81BC818093EE0369
:105020009093EF03A093F003B093F10380913A04BF
:1050300090913B04977FE9CE80913A0490913B0494
:1050400094FF18C019821A821B821C82AE014F5F26
:105050005F4F6AE680E00E94EA0989819A81937035
:105060009093E7038093E60380913A0490913B0488
:105070009F7ECBCE80913A0490913B0495FFC9CEA0
:1050800019821A821B821C82AE014F5F5F4F6AE653
:1050900081E00E94EA0989819A8193709093E903E3
:1050A0008093E80380913A0490913B049F7DADCEBC
:1050B00082E3809313048091100487FF81C08F7076
:1050C000E82FF0E021E030E0082E02C0220F331F6D
:1050D0000A94E2F74091D4045091D5042423352357
:1050E000232B71F44091780050917900EE0FFF1F4F
:1050F000E45FFB4F20813181240F351F31832083F2
:1051000091E0882309F441C080910B048F5F809364
:105110000B048430C8F180916705282F30E0220FFE
:10512000331FF901ED5FFB4F40910C0450910D04CA
:105130005183408325503C4F40910E0450910F0401
:10514000D9014D935C9321E130E0082E01C0220F7C
:105150000A94EAF79091FA03922B9093FA038F5FE7
:10516000182F137080911601877EB8E01B9F900165
:105170001124822B8093160188E090E00E945B044A
:10518000109367050E94B60B90E080E0492F21E064
:1051900030E0B90163707727672B19F0442331F0B1
:1051A00040E0220F331F8F5F803199F720917C0000
:1051B0008770287F822B80937C009093100431CEDF
:1051C00080917A00806480937A00809110048068D6
:1051D0008093100426CE1F920F920FB60F921124C7
:1051E000109268051092690510926A0510926B057D
:1051F000EE98789480E00E94920480E00E94E4049B
:1052000080E00E94200583EF91E0909399008093C5
:10521000980080E48093900080ED97E090931504CF
:105220008093140484E992E09F938F930E94251940
:105230000F900F90C12CD12C7601CFE8D2E0FF92D5
:10524000EF92DF92CF92DF93CF930E942519609166
:10525000C9028FEF860F0F900F900F900F900F9055
:105260000F908E3F48F48FEF93E00E94932F809130
:10527000C9028F5F8093C9028AE0C80ED11CE11C6D
:10528000F11C8091680590916905A0916A05B09123
:105290006B058C159D05AE05BF0598F3D0CF1F9209
:1052A0000F920FB60F9211242F933F934F935F935A
:1052B0006F937F938F939F93AF93BF93CF93EF930E
:1052C000FF93109285001092840081E090E040915D
:1052D000090550910A0520912E0530912F0542179E
:1052E000530710F090E080E025E2289FF001299F0D
:1052F000F00D1124E850FB4F218932893093AD0223
:105300002093AC0280918400909185002115310595
:1053100009F493C089B182958695869583709091A2
:10532000CC02892B90916E05892390E09093AB027B
:105330008093AA02203A86E3380708F44FC056E06B
:10534000369527955A95E1F7F901E85EFE4F26A1BB
:1053500030E03093A9022093A802809184009091BC
:10536000850080911104C82FC17080FF05C061E0E5
:1053700080E00E94DF06C82F8091110481FF05C0E4
:1053800062E081E00E94DF06C82B8C2F0E94680437
:105390008091A8029091A90290938900809388003F
:1053A00020918400309185002817390728F00A974A
:1053B0009093850080938400FF91EF91CF91BF91EE
:1053C000AF919F918F917F916F915F914F913F919D
:1053D0002F910F900FBE0F901F901895203A86E2E4
:1053E000380750F045E0369527954A95E1F7F901E1
:1053F000EC59FF4F2081ACCF203A8EE1380748F0BE
:1054000094E0369527959A95E1F7F901E05DF04033
:10541000F1CF2032310570F0B9017695679590E0B3
:1054200080E060587B47814E9F4F50E040E00E94F3
:10543000B82D8FCF30E020E08CCF80ED97E09093B7
:10544000A9028093A802A4CF1F921FB61F92112415
:105450002F938F939F93EF93FF932091CE00809192
:105460003D0490913E04E82FF0E0E05CFB4F208388
:105470008F5F20913C04821708F080E0981319C0D8
:10548000F894ECEAF0E08091C80085FFFCCF8491AD
:105490008093CE008091C80086FFFCCF319680E0DB
:1054A000E73CF80781F7789410923D0410923E048F
:1054B00002C080933D04FF91EF919F918F912F91B6
:1054C0001F901FBE1F9018951F921FB61F92112488
:1054D0008F939F93AF93BF9386B58A5F86BD789471
:1054E0008091680590916905A0916A05B0916B055E
:1054F0000196A11DB11D8093680590936905A09345
:105500006A05B0936B05BF91AF919F918F911F90EA
:105510001FBE1F901895ABE0B0E0E1E9FAE20C94F1
:105520005D2D5C016B013A01FC01178216828381BB
:1055300081FFF5C0CE0101964C01F501F380F60123
:10554000F3FC1591F3FE11916F01112309F437C09B
:10555000153239F4F3FC1591F3FE11916F011532F8
:10556000B9F5B501812F90E00E94422EE6CF1123BC
:1055700031F1612F70E08AE597E00E94FD2D892BC3
:10558000A1F4133219F11C3679F0612F70E083E534
:1055900097E00E94FD2D892BE9F0F4E06F0E711C5D
:1055A000B5018FE390E0E0CF0068F601F3FC1591C0
:1055B000F3FE11916F0107FFDACF1111E6CFF5016C
:1055C000868197812B96EEE00C94792D00E1EDCF4A
:1055D00000E0F1CF133609F455C0133709F459C070
:1055E000133509F455C0143619F0193609F06BC09B
:1055F000F30107FF60C061917191819191913F0129
:105600000F7E97FF08C090958095709561957F4FAC
:105610008F4F9F4F00642AE030E0A4010E94D72EF4
:10562000E82EE81806FF05C0B5018DE290E00E9463
:10563000422E04FF15C0FE01EE0DF11D8081803366
:1056400079F0B50180E390E00E94422E02FF08C08D
:10565000802F807290E0B501885A9F4F0E94422EA1
:10566000EA94F12CFFEFEF1AFF0AE80CF91CF7019E
:1056700082917F01B50190E00E94422EE814F90466
:10568000B1F75BCFB501F301819191913F016CCFEF
:105690000160F301E190F1903F01F70100FD859178
:1056A00000FF81917F01882309F447CFB50190E085
:1056B0000E94422EF2CF619171913F01072E000CA2
:1056C000880B990B9DCF1037F1F040F41835E9F0B5
:1056D0001F3609F074CF28E030E00CC0153739F0E0
:1056E000183709F06CCF046220E130E003C00F7E70
:1056F0002AE030E0F30107FF0CC0619171918191C4
:1057000091913F018ACF0061EECF046020E132E049
:10571000F1CF619171913F0190E080E07ECF8FEFFA
:105720009FEF50CF20FD09C0FC0123FD05C022FFE3
:1057300002C07383628351834083089533E044FD44
:1057400010C034E046FD0DC0DB01FC01AA0FBB1FF9
:10575000EE1FFF1F1094D1F76A0F7B1F8E1F9F1F34
:1057600031E0660F771F881F991F3150D1F7620F04
:10577000711D811D911D08950F931F93CF93DF938A
:105780008C01C8010E94082EEC0197FD08C00E9400
:10579000F42D892BB1F7B801CE010E94BF2ECE01A6
:1057A000DF91CF911F910F9108958F929F92AF92A9
:1057B000BF92EF92FF920F931F93CF93DF938C01D1
:1057C000D62F7A01B22E0E94082E9C0133272B324D
:1057D000310529F02D323105A9F46894B7F8D1507C
:1057E00061F480E0DF91CF911F910F91FF90EF90D6
:1057F000BF90AF909F908F900895C8010E94082E8F
:1058000097FDEFCFCB2DCD7F2B2D2073F9F4803377
:10581000E9F4AA24AA94AD0E89F0C8010E94082ECA
:1058200097FD0CC0282F2F7D283561F4C264D2501B
:1058300029F0C8010E94082E97FF08C0812C912CE6
:1058400054011BC0B6FE2BC0C260DA2D812C912CF6
:10585000540120ED280F283028F1C4FD09C02A305A
:1058600008F1C6FF05C02F7D3FEE320F3630C8F07D
:10587000B8010E94BF2EC1FFB4CFC7FF08C0B094CB
:10588000A09490948094811C911CA11CB11C2C2F7D
:10589000B501A401C7010E94922B81E0A3CFC26190
:1058A000D4CF27504C2FC501B4010E949E2B4B0131
:1058B0005C01C260D15009F3C8010E94082E97FF15
:1058C000C8CFDBCFB0E0A0E0E8E6FCE20C945D2DB1
:1058D0005C01EB01742E652EFC0117821682C12C2F
:1058E000F501F380FE01F3FC8591F3FE8191182F01
:1058F000EF018823E9F090E00E94F42D892B21F03C
:10590000C5010E94BC2BECCF153241F4FE01F3FC23
:105910001591F3FE1191EF01153269F4C5010E9452
:10592000082E97FD9DC01817D9F2B5010E94BF2E11
:105930008C2D90E099C000E01A3231F4F3FC1591FF
:10594000F3FE1191EF0101E0D12C20ED210F2A305F
:1059500048F101FF37C0DD2059F31836B1F11C368C
:1059600009F43DC0112321F3612F70E08AE697E02E
:105970000E94FD2D892BE1F2F12CE12C00FD06C0E7
:10598000E72DF62DE190F1907E2E6F2E1E3679F5E3
:10599000F5014681578170E060E0202FC7010E9429
:1059A000922B9ECF02606D2D70E090E080E040E28F
:1059B0000E949E2BD62EFE01F3FC1591F3FE119151
:1059C000EF01C3CFDD24DA94C8CFFE01F3FC1591BB
:1059D000F3FE1191EF01183609F0C4CF086004609E
:1059E000FE01F3FC1591F3FE1191EF01BBCF1336CD
:1059F000B1F401FD02C0DD24D394C5010E94082E3C
:105A000097FD2EC0E114F10419F0F70181937F0195
:105A1000DA94D110F2CF00FD63CFC39461CFC501FA
:105A20000E94BC2B97FD1CC01F3609F440C030F407
:105A3000143641F0193639F0006405C0133711F1FE
:105A40001537D1F70062202FA7016D2DC5010E94E7
:105A5000D52B8111E0CFF5018381807309F468CFE4
:105A60008FEF9FEFC11064CFCDB7DEB7EEE00C949F
:105A7000792DE114F10419F0F70181927F01DA9494
:105A8000DD2071F0C5010E94082E4C0197FD08C071
:105A90000E94F42D892B69F3B501C4010E94BF2E29
:105AA000E114F10409F4B7CFF7011082B4CF00611B
:105AB000CACF2F923F924F925F926F927F928F92B6
:105AC0009F92AF92BF92CF92DF92EF92FF920F938D
:105AD0001F93CF93DF93CDB7DEB7CA1BDB0B0FB697
