:100000000C94C5030C94E2030C94E2030C94E203F9
:100010000C94E2030C94E2030C94E2030C9479191F
:100020000C94E2030C94E2030C94E2030C94E203BC
:100030000C94E2030C94E2030C94E2030C94E203AC
:100040000C94E2030C9497090C94E2030C94E203E1
:100050000C94E2030C946D130C94E2030C94CF10F7
:100060000C94E2030C948D100C94E2030C94E203C4
:100070000C94E2030C94E2030C94E2030C94E2036C
:100080000C94E2030C94E2030C94E2030C94E2035C
:100090000C94E2030C94E2030C94E2030C94E2034C
:1000A0000C94E2030C94E2030C94E2038F1CC51C35
:1000B000DC1CF01C591D4F1DEA1E4552524F523A8E
:1000C00020727820627566666572206F766572664A
:1000D0006C6F770A00AA6A5A56555595A5A9AA25A4
:1000E0007520002575200025692000256868752584
:1000F0006E002575256E002569256E0023737069D5
:10010000313D257820647276313D256C7820677307
:1001100074313D257820676366313D256C780A008F
:1001200023737069303D257820647276303D256CEC
:100130007820677374303D257820676366303D25ED
:100140006C780A00256920006900534C412D636FCB
:100150006E74726F6C2025642E25642E25642D2507
:100160006425532000435A5058253473582533735F
:1001700058256325357320000103050E0F11121356
:10018000151617383A0002042530327800256C69BC
:1001900020002530326868782000000A0014F00042
:1001A000F0001407BC0200000000000A800CA00050
:1001B000A00010054C0400000000000F00145000C7
:1001C00050001006DC050000000064007800C80044
:1001D000C8000B00DC0500000000D606D6060000B3
:1001E00000002C283408000000009001900100005D
:1001F00000003E3F000000000000D007D0070000D4
:1002000000002C28D00700000000000F0014C800D8
:10021000C8000F037E0400000000C409983AFA00E9
:1002200096001604640000000000C4094C1DFA008A
:1002300096001001F40100000000800C983AFA00CA
:10024000FA000A03980800000000640096003200DB
:1002500032000F00DC0500000000800CC044FA00F2
:10026000FA002206F40100000000800CC044FA00ED
:10027000FA001206F4010000000040068025C800C4
:10028000C8003F04F40100000000C4094C1D5E01D9
:100290005E010C0278050000000039015B017F015E
:1002A000A601CF01FA01250252027E02A902D20262
:1002B000FA021F0341035F037A039203A603B70305
:1002C000C603D203DC03E403EA03EF03F403F703FA
:1002D000F903FB03FC03FD03FE03FF03FF033F3FA2
:1002E0003F3F004552524F523D2564202825532957
:1002F0000A004E4F4E450043485341004348534285
:1003000000534E4E530046555345004C4F434B004F
:1003100047535049005453504900545349470041F2
:100320004443560054484552004D4F544F004641F7
:100330004E5300554C4544002373673D256868754E
:100340002C20636E743D256868750A002373675F0F
:100350006176673D256868752C20636F6D703D255B
:100360006868640A0066018801AC01D301FA0123C0
:10037000024C0275029D02C502EA020E032F034DD4
:1003800003690381039603A903B903C703D203DBFF
:1003900003E303EA03EF03F303F603F803FA03FCB2
:1003A00003FD03FE03FE03FF03237469686F206FE0
:1003B00066667365743D256420646973743D2564C5
:1003C0000A00237469686F20736574206F66667312
:1003D0006574423A2025640A00237469686F2073AB
:1003E0006574206F6666736574413A2025640A005F
:1003F000237477686F206F66667365743D2564208B
:10040000646973743D25640A00237477686F2073F0
:100410006574206F6666736574423A2025640A002D
:10042000237477686F20736574206F6666736574D4
:10043000413A2025640A002374697068207374654A
:1004400070732025640A00256C640A0023494E5409
:10045000360A006B696C6C65640A004D4355535253
:100460003D3078253032780A0073746172740A0066
:100470006265657081626F6F74B5636C6564856574
:1004800065636C9F65657278A065657778A1656323
:10049000686FAA66616E65B366616E738A6670770F
:1004A0006DB26672706D9D6D6F74728D706C6564E7
:1004B0008270707374BF7070776DB170737064B94F
:1004C0007273656EAD72736D65AF72737374AE7374
:1004D000676263BA73676264BB7368646E837465D2
:1004E0006D709E74696366A774696373A9746963A8
:1004F000759674696863C17469686F9874696D6191
:10050000A374697068BD7469706FA5746973679A24
:1005100074697374C374726177B674776366A67412
:10052000776373A874776375957477646E8F747747
:100530006863C07477686F9774776D61A274777021
:1005400068BC7477706FA4747773679974777374E9
:10055000C2747775708E756C6564847570776DB8CC
:10056000766F6C74B076726177B77764656CBE77BE
:1005700069646CB4666D736BC4676F7365C57469C9
:100580007365C674697363C75F706F72E15F64649B
:1005900072E25F70696EE36469720F656E610C658B
:1005A0006E6411657272416C65640D6C6F67426DAB
:1005B0006F7410727374017365720374737443768D
:1005C00065720270756E12016704437E0E83D80552
:1005D0008DCE05975204983D049FBD05B4AC05B57A
:1005E0002B04BB2704C01304C1FF03C5F403007C24
:1005F0000701AB0F028C06034D051202050CAB0F71
:100600000DAB0F0FAB0F10AB0F11AB0F41AB0F4288
:10061000AB0F82AB0F84440885AB0F8AAB0F95AB51
:100620000F96AB0F97AC0698AC06C6AC06C7212C4C
:1006300099AB0F9AAB0F9D54089EDD06B0DD06B650
:10064000F607B7F607B1AB0FB9AB0FB8AB0FB254A3
:1006500008B3AB0FA47406A5D506A6AF08A7AF08CC
:10066000A8AC06A9AC06AAAC06ADAB0FAEAB0FBAF0
:10067000AB0FBB4506BC0F08BD0F08BF2B2CC0F647
:1006800006C1F606C4AC060CFC2A0DFC2A0FFC2A97
:1006900010FC2A11FC2A41FC2A42FC2A83FC2A81F4
:1006A000E52882FC2A849D2885FC2A8EFB298FFB65
:1006B000298AFC2A95FC2A96FC2A999A2A9A9A2A2F
:1006C0009FBD05A23429A3B629A43429A5B629A61D
:1006D000D527A7D527A89A2AA99A2AAAFC2AB1FC25
:1006E0002AB9FC2AB8FC2AB22B26ADFC2AAF342941
:1006F000BEFB29BCFB29BDFB29C29A2AC39A2AC08A
:100700009C27C16327C4FC2ABF0526C6A526C72C83
:1007100027E19625E39625E29625A69918A799182C
:10072000E14618E34618E246186525640A006F6B37
:100730000A004552524F523A20636F6D6D616E64EC
:10074000206F766572666C6F770A00237477706825
:100750002073746570732025640A00256C69256E0A
:100760000025686869256E00454647656667002074
:100770002B2D2E303132333435363738396800631B
:1007800064696E6F70737578580011241FBECFEFC7
:10079000DAE0DEBFCDBF27E0A6E3B4E001C01D92E2
:1007A000A935B207E1F714E0A0E0B1E0EAE9F8E624
:1007B00002C005900D92A633B107D9F70E94E2203E
:1007C0000C944B340C940000E0911F07ED50EA3B71
:1007D00040F4F0E0EE0FFF1FEC56FD4F8081918159
:1007E000089580E090E0089583E080930C0780E412
:1007F0008093120184E08093200780E00895809127
:10080000890581FD0EC081E0809306018FEF9FEF87
:10081000909309018093080180E18093C90580E0ED
:1008200008958EEF08958091890580FD0EC081E0C6
:10083000809307018FEF9FEF90930B0180930A0144
:100840008AE08093460480E008958EEF0895109228
:100850007D0480E0089587E797E7909301088093EF
:10086000000898E088E10FB6F894A895809360009E
:100870000FBE90936000F894FFCF90918905892F67
:10088000827091FD0DC091E09093060120910C01C2
:1008900030910D0137FD80E18093C90580E0089516
:1008A0008EEF089590918905892F817090FD0DC07C
:1008B00091E09093070120910E0130910F0137FDD7
:1008C00080E18093460480E008958EEF089598E0DB
:1008D00088E10FB6F894A895809360000FBE9093BE
:1008E0006000F894FFCF8F929F92AF92BF92CF9209
:1008F000DF92EF92FF920F931F93CF93DF936A01E2
:100900007B01082F10E095E2899FE0011124CA566F
:10091000D94FAB85BC852D853E8549018A0E9B1E2E
:10092000A12CB12C481559056A057B05A8F0BD8F8F
:10093000AC8FC818D908EA08FB08CE8EDF8EE8A273
:10094000F9A23BA32AA3AB2B11F086E001C084E0FF
:10095000232BA9F0886013C09A01AB010E943532A5
:10096000A50194010E94FE313D8F2C8F1E8E1F8E9B
:1009700018A219A2C21AD30ADBA2CAA28AE095E27F
:10098000909FF001919FF00D1124EA56F94F878B4B
:10099000DF91CF911F910F91FF90EF90DF90CF905B
:1009A000BF90AF909F908F9008958EBD0DB407FEBD
:1009B000FDCF8EB508958091EB059091EA059817CB
:1009C00081F0E82FF0E0E351FA4F208130E08F5FB3
:1009D0009091E905891708F080E08093EB05C90143
:1009E00008958FEF9FEF08958093CE008091C80007
:1009F00086FFFCCF8091C80080648093C80080E0AF
:100A000090E00895CF92DF92FF920F931F93CF93C0
:100A1000DF93CDB7DEB760970FB6F894DEBF0FBE99
:100A2000CDBF28E731E08E010F5F1F4FD80141E2B3
:100A300090E1F92EF00EF9018491E82FF0E0409357
:100A4000570084918D932F5F3F4FFA12F4CF88E8BF
:100A5000C82E81E0D82EF80181918F01282F082E11
:100A6000000C330B3F938F93DF92CF920E94CA30DA
:100A70000F900F900F900F90F012EDCF80E06096E6
:100A80000FB6F894DEBF0FBECDBFDF91CF911F919F
:100A90000F91FF90DF90CF900895BF92CF92DF9299
:100AA000EF92FF920F931F93CF93DF93CDB7DEB7F3
:100AB00063970FB6F894DEBF0FBECDBFFE0131962F
:100AC00083E1DF011D928A95E9F78E010C5F1F4FCC
:100AD00044E050E062E776E0C8010E9412347E01F3
:100AE000B9E0EB0EF11C43E050E066E776E0C701A9
:100AF0000E94123483E4B82EBD866E018EE0C80ECB
:100B0000D11C45E050E06AE776E0C6010E9412344D
:100B1000DF92CF921F92BF92FF92EF921F930F939B
:100B200085E691E09F938F930E94CA300FB6F894A8
:100B3000DEBF0FBECDBF80E063960FB6F894DEBF78
:100B40000FBECDBFDF91CF911F910F91FF90EF901E
:100B5000DF90CF90BF90089580918905837019F040
:100B60000E94F51AF9CF809107011816CCF38091F5
:100B700006011816ACF380E00895CF93DF93C0E030
:100B8000D0E06FEFCE010E94A0312196C11584E024
:100B9000D807B9F780E0DF91CF91089580E00E94F7
:100BA000C9118FEF809307018093060180E00895BB
:100BB00080E00E9466131092910580E00895FB0189
:100BC00090E0941781F02491BF016D5F7F4F28134F
:100BD00007C0319685919491009739F0FC010994F2
:100BE0009F5FFB01EECF89EF08958AEF08950F9381
:100BF0001F93CF93DF93582FC42FD0E02196222349
:100C0000B1F0FB01DC013A2F351B341728F40D91AC
:100C1000149131960117B9F32150341305C0FB012B
:100C2000E30FF11D849104C06C0F7D1FE8CF8FEF9F
:100C3000DF91CF911F910F910895CF93DF93CDB79F
:100C4000DEB7AE014B5F5F4FFA0161917191AF0169
:100C50008091190790911A070E940931DF91CF9175
:100C60000895CF93DF93CDB7DEB7AE014B5F5F4FF3
:100C7000FA0161917191AF01809121079091220752
:100C80000E940931DF91CF9108950F931F93CF9365
:100C9000DF9380917D04E0918605E81B8A3010F493
:100CA000982F01C09AE0891B80937D04C92FCE0F35
:100CB00002E911E0EC1791F0D1E0DE0FF0E0E2582C
:100CC000FB4F80811F928F931F930F930E943106D9
:100CD0000F900F900F900F90ED2FECCF80E0DF91F1
:100CE000CF911F910F910895E6E9F6E086898F93E1
:100CF00085898F9384898F9383898F938DE891E081
:100D00009F938F930E9431060F900F900F900F903A
:100D10000F900F9080E0089588E491E09F938F9367
:100D200081E08F9385E78F931F9288E08F931F92C6
:100D300089E08F931F921F928AE491E09F938F9393
:100D40000E9431068DB79EB70C960FB6F8949EBFE1
:100D50000FBE8DBF80E008950E94E403009719F054
:100D6000FC01808101C080E0282F082E000C330B8D
:100D70003F938F9384E491E09F938F930E94310679
:100D80000F900F900F900F9080E008959F938F9396
:100D900087EE90E09F938F930E9431060F900F9003
:100DA0000F900F9097FD80E008958091CE0690916E
:100DB000CF060E94C60680E008950F931F93CF933D
:100DC000DF930E94E403009759F0EC018C01085F67
:100DD0001F4F899199910E94C606C017D107C9F784
:100DE00080E0DF91CF911F910F9108950E94E4035D
:100DF000009721F0FC018081918102C080E090E0A9
:100E00000E94C60680E00895CF93DF9300D0CDB74F
:100E1000DEB79E012F5F3F4F3F932F937F936F93DA
:100E200027EF30E03F932F939F938F930E94F030F2
:100E30000FB6F894DEBF0FBECDBF019711F48981C4
:100E400001C08DEF0F900F90DF91CF910895CF9358
:100E5000DF9300D0CDB7DEB79E012F5F3F4F3F93AA
:100E60002F937F936F9322EF30E03F932F939F93C5
:100E70008F930E94F0300FB6F894DEBF0FBECDBF47
:100E8000019711F4898101C08DEF0F900F90DF91D0
:100E9000CF910895CF93DF9300D0CDB7DEB79E01F9
:100EA0002F5F3F4F3F932F937F936F932BEE30E055
:100EB0003F932F939F938F930E94F0300FB6F89437
:100EC000DEBF0FBECDBF019711F4898101C08DEF48
:100ED0000F900F90DF91CF9108959F938F9383EEA2
:100EE00090E09F938F930E9431060F900F900F9088
:100EF0000F9097FD80E008951092480410924704E7
:100F00008091470490914804209189052370822B99
:100F10009093480480934704809120078F3F21F0ED
:100F200084E090E00E94C0202091800627FD09C047
:100F30008091470490914804806490934804809382
:100F4000470425FD09C080914704909148048068BA
:100F5000909348048093470480917F0687FD09C0E1
:100F60008091470490914804916090934804809345
:100F7000470480911807882349F080914704909195
:100F8000480490629093480480934704809120071E
:100F9000823039F481E080930C0783E0809320074E
:100FA0000DC0809120078F3F49F4809147049091B4
:100FB00048049068909348048093470485E08093A8
:100FC000900580916D04882349F0809147049091A9
:100FD00048049064909348048093470480914704A8
:100FE000909148040E946D0780E008950F931F932D
:100FF000CF93DF930E94E403009759F0EC018C013A
:10100000085F1F4F899199910E946D07C017D10702
:10101000C9F780E0DF91CF911F910F9108950E9451
:10102000E403009721F0FC01808191811AC0809136
:101030001F078C3B59F08D3B91F480E090E20E94B9
:10104000C02080914B0490914C040BC080E090E153
:101050000E94C0208091490490914A0402C080E01F
:1010600090E00E946D0780E008951F928F938FEDAE
:1010700090E09F938F930E9431060F900F900F90F6
:101080000F9097FD80E0089580918306869581708A
:101090000E94350880918E0590918F05009711F080
:1010A0000E946D0780E008950F931F93CF93DF9305
:1010B0000E94E403009751F0EC018C010C5F1F4F7C
:1010C00089910E943508C017D107D1F780E0DF91E0
:1010D000CF911F910F9108950F931F93CF938C0180
:1010E000FC01808191810E946D07C82FF8018281E7
:1010F00093810E946D07C80FF801848195810E9439
:101100006D07C80FF801868197810E946D07C80F8F
:10111000F80180850E943508C80FF8018185282FC5
:10112000082E000C330B3F938F9384E491E09F9340
:101130008F930E9431060F900F900F900F9097FDA4
:1011400002C0982F01C090E0C90FF80182859385F5
:101150000E946D078C0FCF911F910F910895CF932F
:10116000DF93CDB7DEB760970FB6F894DEBF0FBE42
:10117000CDBF81E090911F07973A09F080E0BE0152
:101180006F5F7F4F0E944619CE0101960E946C0846
:1011900080E060960FB6F894DEBF0FBECDBFDF9142
:1011A000CF91089580914504882309F46BC0809104
:1011B0004404909143048823C1F0815080934404F7
:1011C000911160C08FE694E090939900809398000D
:1011D00080E4809390002F9A8091830681608093B1
:1011E000830681E0809343040895992351F010927F
:1011F00090002F98809183068E7F809383061092B3
:10120000430480914204882321F08150809342045A
:10121000089520914104E22FE695E695F0E0E35C25
:10122000FB4F808190E0422F437023E030E0241B8D
:101230003109220F331F02C0959587952A95E2F751
:101240008370823059F0833081F0813019F0109230
:10125000440407C080E38093440404C080E9809381
:10126000440480E38093420402C0109241048091C0
:1012700041048F5F8093410490914504891710F0D9
:10128000109241040895CF92DF92EF92FF926B018A
:101290007C0120E030E0A9010E94AD32811103C041
:1012A000109290001CC0A701960160E074E284E7F0
:1012B00099E40E94B23220E030E040E05FE30E9417
:1012C00040320E942433683C710510F468EC70E0F1
:1012D000709399006093980080E480939000FF9051
:1012E000EF90DF90CF900895E82FF0E0EB52FF4FA2
:1012F000E491F0E0FE2FEE27853010F0E06401C0AD
:10130000E068F894F0933D04E0933E0410924104A9
:10131000109244041092420488E08093450478942B
:1013200008958EBD0DB407FEFDCF8EB508951F92B2
:101330000F920FB60F9211244F925F926F927F928D
:101340008F929F92AF92BF92CF92DF92FF920F93B4
:101350001F932F933F934F935F936F937F938F933D
:101360009F93AF93BF93CF93DF93EF93FF9310922D
:10137000850010928400C090A706D090A806009126
:10138000CC061091CD06E1E0C016D10608F0E0E0F1
:10139000E0933C0445E2E49FF0011124EA56F94F42
:1013A000C189D289D0933B04C0933A0480918400D0
:1013B00090918500209709F4B7C2F9B0F294F694A1
:1013C000F69493E0F92280918705F82A809112071C
:1013D000F8228F2D90E09093390480933804C03A1E
:1013E00056E3D50750F0FE0186E0F695E7958A951D
:1013F000E1F7EC5EFE4F46A11AC0C03A66E2D6079E
:1014000048F0FE01B5E0F695E795BA95E1F7E05AA8
:10141000FF4F0CC0C03A7EE1D70758F0FE01A4E0B0
:10142000F695E795AA95E1F7E45DF040408150E03C
:101430001AC0C032D105A8F0BE0176956795CB01E0
:10144000A0E0B0E0BC01CD0160587B47814E9F4FCA
:101450004E01A12CB12CA50194010E94FE31A901DD
:1014600002C040E050E0509337044093360480912E
:10147000840090918500F0918905F0FF24C12091AE
:10148000B0063091B106240F351F3093B10620937A
:10149000B0068091AE069091AF06C816D90608F442
:1014A0000CC18C0F9D1F8C199D099093AF068093E2
:1014B000AE06E091AD068091A9069091AA06A09192
:1014C000AB06B091AC06F4FF04C00197A109B109C5
:1014D00003C00196A11DB11D8093A9069093AA0691
:1014E000A093AB06B093AC06E1FF50C0A0919D065F
:1014F000B0919E062F3F310509F058F44A9FB00184
:101500004B9F700D5A9F700D1124CB01A0E0B0E0ED
:1015100005C09A010E942632DC01CB0173E0880FDE
:10152000991FAA1FBB1F7A95D1F78090A5069090AE
:10153000A606A090A706B090A806880D991DAA1D22
:10154000BB1D8093A5069093A606A093A706B09313
:10155000A8068091B2069091B30601979093B306C6
:101560008093B206892B09F08BC08E2F8D7FE2FF0E
:1015700086C020919B0630919C063093A80620934C
:10158000A7061092A6061092A50679C0E2FF28C011
:101590008091B4069091B506A091B606B091B706B9
:1015A0000197A109B1098093B4069093B506A09361
:1015B000B606B093B706892B8A2B8B2B09F060C037
:1015C0008E2F8B7FE3FD5BC0FE7FF0938905109229
:1015D000A5061092A6061092A7061092A8064FC064
:1015E000E3FF4EC0A0919F06B091A0062F3F3105AA
:1015F00009F058F44A9FB0014B9F700D5A9F700D2F
:101600001124CB01A0E0B0E005C09A010E9426326F
:10161000DC01CB0163E0880F991FAA1FBB1F6A95ED
:10162000D1F78090A5069090A606A090A706B0904E
:10163000A80624013501481A590A6A0A7B0A409211
:10164000A5065092A6066092A7067092A806809101
:10165000B8069091B90601979093B9068093B806A1
:10166000892B71F4E77FFE7FF09389051092A50620
:101670001092A6061092A7061092A80601C0E82FA5
:101680008091BA06882321F081508093BA060CC05D
:10169000F0FE0AC0809189058E7F80938905809134
:1016A000D20581608093D205E093AD061092B10619
:1016B0001092B006DD24D39407C08C199D09909335
:1016C000AF068093AE06D12CF0918905F1FF28C1B9
:1016D0008091D5069091D606840F951F9093D606DB
:1016E0008093D5062091D3063091D40602171307B4
:1016F00008F40DC1C20FD31FC01BD10BD093D40669
:10170000C093D306E091D2060091CE061091CF0689
:101710002091D0063091D106F5FF05C00150110986
:101720002109310904C00F5F1F4F2F4F3F4F009316
:10173000CE061093CF062093D0063093D106E1FF5A
:1017400050C0A091C206B091C3068F3F910509F029
:1017500058F44A9FB0014B9F700D5A9F700D112491
:10176000CB01A0E0B0E005C09A010E942632DC0166
:10177000CB0133E0880F991FAA1FBB1F3A95D1F701
:101780000091CA061091CB062091CC063091CD066F
:10179000800F911FA21FB31F8093CA069093CB06A0
:1017A000A093CC06B093CD068091D7069091D80631
:1017B00001979093D8068093D706892B09F08BC0A8
:1017C0008E2F8D7FE2FF86C02091C0063091C1062A
:1017D0003093CD062093CC061092CB061092CA0609
:1017E00079C0E2FF28C08091D9069091DA06A091D5
:1017F000DB06B091DC060197A109B1098093D906F7
:101800009093DA06A093DB06B093DC06892B8A2B33
:101810008B2B09F060C08E2F8B7FE3FD5BC0FD7FBB
:10182000F09389051092CA061092CB061092CC064E
:101830001092CD064FC0E3FF4EC0A091C406B091F8
:10184000C5068F3F910509F058F44A9FB0014B9FA0
:10185000700D5A9F700D1124CB01A0E0B0E005C0BF
:101860009A010E942632DC01CB0123E0880F991FE8
:10187000AA1FBB1F2A95D1F70091CA061091CB066B
:101880002091CC063091CD06B901A801481B590B17
:101890006A0B7B0B4093CA065093CB066093CC0631
:1018A0007093CD068091DD069091DE0601979093AE
:1018B000DE068093DD06892B71F4E77FFD7FF093D0
:1018C00089051092CA061092CB061092CC0610928F
:1018D000CD0601C0E82F8091DF06882321F08150DA
:1018E0008093DF060CC0F1FE0AC0809189058D7FD0
:1018F000809389058091D20582608093D205E09320
:10190000D2061092D6061092D50682E008C0E901F0
:10191000C01BD10BD093D406C093D30680E0D82A45
:101920008D2D0E94971106C080ED97E090933704AB
:101930008093360480913604909137049093890007
:101940008093880020918400309185008091360436
:10195000909137042817390728F00A97909385004B
:1019600080938400FF91EF91DF91CF91BF91AF9170
:101970009F918F917F916F915F914F913F912F91A7
:101980001F910F91FF90DF90CF90BF90AF909F90ED
:101990008F907F906F905F904F900F900FBE0F9041
:1019A0001F901895CF92DF92EF92FF920F931F93A3
:1019B000CF93DF9300D000D0CDB7DEB7082F10E073
:1019C00021E030E06901082E01C0CC0C0A94EAF74E
:1019D000909189059C2109F05BC041155105610575
:1019E000710509F457C0F82EEC2CE09449835A8312
:1019F0006B837C8314161506160617069CF40E944A
:101A0000BF118E210E94B0118C2D8295807F809510
:101A10009091890589238093890549815A816B8139
:101A20007C8118C00E94BF118C290E94B011809146
:101A300089059C2D9295907F892B809389054981FA
:101A40005A816B817C8170956095509541955F4F6F
:101A50006F4F7F4F8F2D0E94730485E2809FF001AE
:101A6000819FF00D1124EA56F94F108A1786838161
:101A70009481928B818B80E284A38091D205E822AD
:101A8000E092D205809189058C298093890502C056
:101A90008FEF01C080E00F900F900F900F90DF91BB
:101AA000CF911F910F91FF90EF90DF90CF9008950D
:101AB0000F931F9395E2899FF0011124EA56F94F85
:101AC0000389148925893689401B510B620B730BDE
:101AD0001F910F910C94D20CCF92DF92EF92FF9254
:101AE0000F931F93CF93DF93C82ED12C95E2899F3C
:101AF000E0011124CA56D94F8D819E810B811C8132
:101B00007C01E01AF10A080F191F2F813885211571
:101B1000310539F1C701A0E0B0E0BC01CD01ECE036
:101B2000660F771F881F991FEA95D1F740E050E0B4
:101B30000E94FE31F4E05695479537952795FA9522
:101B4000D1F7D8010E9435326C5D7B408F4F9F4F9B
:101B500028E438EE41E050E00E94FE313C872B87BC
:101B600002C01C861B8685E28C9DE0018D9DD00DF8
:101B70001124CA56D94F29853A852115310539F1E5
:101B8000C701A0E0B0E0BC01CD014CE0660F771FBB
:101B9000881F991F4A95D1F740E050E00E94FE311E
:101BA00064E056954795379527956A95D1F7D80102
:101BB0000E9435326C5D7B408F4F9F4F28E438EE9A
:101BC00041E050E00E94FE313E872D8702C01E8614
:101BD0001D86DF91CF911F910F91FF90EF90DF90C5
:101BE000CF9008958F929F92BF92CF92DF92EF9203
:101BF000FF920F931F93CF93DF931F92CDB7DEB762
:101C0000B82E8A018CE5F82EFCBC1DBC8B2D698397
:101C10000E94A7116981862F0E94D50480E00E944E
:101C2000D50480E00E94D50480E00E94D50480E0C5
:101C30000E94D5048B2D0E949E11FCBC1DBC8B2DD7
:101C40000E94A711EB2CF12C80E00E94D504970193
:101C500025553A4F4901F901808380E00E94D5045F
:101C6000C82ED12CE12CF12CFE2CED2CDC2CCC241C
:101C700080E00E94D504C82AFE2CED2CDC2CCC245C
:101C800080E00E94D504C82AFE2CED2CDC2CCC244C
:101C900080E00E94D504C82A8B2D0E949E11011558
:101CA000110529F0F801C082D182E282F382F401A9
:101CB00080810F90DF91CF911F910F91FF90EF9056
:101CC000DF90CF90BF909F908F900895CF93DF9338
:101CD00000D000D0CDB7DEB719821A821B821C82D9
:101CE000AE014F5F5F4F61E00E94F20D89810F905E
:101CF0000F900F900F90DF91CF910895AF92BF9208
:101D0000CF92DF92EF92FF920F931F93CF93DF93C7
:101D100000D000D0CDB7DEB7F89419821A821B82AA
:101D20001C82AE014F5F5F4F60E080E00E94F20DC9
:101D300019810A81FB80EC8080E00E94660EEF92A0
:101D4000FF920F931F931F928F930EE715E0F801F8
:101D500083818F9382818F9381818F9380818F93F1
:101D60008BEAE82E85E0F82EF70180811F928F9391
:101D700080E291E09F938F930E941D0619821A8240
:101D80001B821C82AE014F5F5F4F60E081E00E94CA
:101D9000F20DD980CA80BB80AC8081E00E94660EC3
:101DA000AF92BF92CF92DF921F928F93F8018781FB
:101DB0008F9386818F9385818F9384818F93F70191
:101DC00081811F928F938CEF90E09F938F930E945D
:101DD0001D0678940FB6F894DEBF0FBECDBF80E02D
:101DE0000F900F900F900F90DF91CF911F910F9157
:101DF000FF90EF90DF90CF90BF90AF9008951F932A
:101E0000CF93DF9300D000D01F92CDB7DEB7182F4D
:101E10008CE58CBD1DBC812F2D833C834B835A8365
:101E200069830E94A7116981862F0E94D5045A8177
:101E3000852F0E94D5044B81842F0E94D5043C81BC
:101E4000832F0E94D5042D81822F0E94D504812FDB
:101E50000E949E1180E00F900F900F900F900F90B6
:101E6000DF91CF911F91089599E0899FF00111248E
:101E7000EC57F94F6683462F660F550B660B770BB1
:101E8000332722276DEE0C94FF0ECF92DF92EF9254
:101E9000FF921F93CF93DF93182F603218F066954F
:101EA00020E001C021E0822F90E0A0E0B0E06C01D2
:101EB0007D0181E1CC0CDD1CEE1CFF1C8A95D1F765
:101EC00089E0189FE0011124CC57D94F888199816E
:101ED000AA81BB81AD7FA7019601282B392B4A2B04
:101EE0005B2B288339834A835B836C836D836CEE21
:101EF000812F0E94FF0E2C812F71822F90E0A0E095
:101F0000B0E0AF604D814F7150E0542F4427052E53
:101F1000000C660B770B9A01AB01282B392B4A2B4F
:101F20005B2B60E9812FDF91CF911F91FF90EF90A4
:101F3000DF90CF900C94FF0E29E0829FC001112406
:101F4000FC01EC57F94F4081518162817381858199
:101F500061FF880F08950E94E403009719F0FC01C7
:101F6000808148C080911F07853881F188F48F30C7
:101F700031F138F48130F1F08C30D9F50E94DE1166
:101F800039C08031F9F08131A1F5809112071CC070
:101F9000893919F130F48539E1F0863951F581E05C
:101FA00019C08D3AE9F08E3AF9F08A3911F580912D
:101FB000930620C080911807109218071BC00E943A
:101FC000BF1118C0809189058F7014C0809183065D
:101FD0000CC080E00E949C0F0DC080918A060AC050
:101FE00080916C04817006C08CB182FB882780F9D7
:101FF00001C080E00E94350880E00895FF920F93B1
:102000001F93CF93DF9300D000D0CDB7DEB7F82E6B
:1020100083ED90E0A3E0B4E189839A83AB83BC8332
:1020200029E0F29E800111240C57194FF80180839A
:102030009183A283B38380E18483858383E0868355
:102040008CED95E09087878323ED30E043E054E109
:102050006CEE8F2D0E94FF0EAE014F5F5F4F6CE65E
:102060008F2D0E94F20DF8014081518162817381B0
:1020700089819A81AB81BC81481759076A077B0720
:1020800071F520E030E0A90161E98F2D0E94FF0E7B
:10209000F8012681822F220F990BAA0BBB0BDC01C2
:1020A000992788279C01AD0151606DEE8F2D0E940C
:1020B000FF0EF8012781308540E050E064E98F2D64
:1020C0000E94FF0E20E831E340E050E060E88F2DF1
:1020D0000E94FF0E8F2D0E94660E80E001C08FEFE0
:1020E0000F900F900F900F90DF91CF911F910F9154
:1020F000FF90089510926B041092660480918106FF
:1021000080FD04C0109268041092670481FD04C031
:1021100010926A041092690408951F920F920FB6EC
:102120000F9211242F938F939F93EF93FF932091FE
:10213000CE008091EA059091EB05E82FF0E0E351A5
:10214000FA4F20838F5F2091E905821708F080E025
:10215000891719F08093EA0518C0F894EAEBF0E0CB
:102160008BE18E0F9091C80095FFFCCF94919093D6
:10217000CE009091C80096FFFCCF31968E13F2CF1F
:1021800078941092EA051092EB05FF91EF919F91E0
:102190008F912F910F900FBE0F901F9018951F9247
:1021A0000F920FB60F9211248F939F93AF93BF930B
:1021B00086B58A5F86BD789480910807909109075B
:1021C000A0910A07B0910B070196A11DB11D809344
:1021D000080790930907A0930A07B0930B07BF91D4
:1021E000AF919F918F910F900FBE0F901F901895F8
:1021F0001F93CF93DF9300D000D0CDB7DEB7162F5B
:10220000EFECF7E03197F1F700C00000F894198285
:102210001A821B821C82AE014F5F5F4F64E00E94F6
:10222000F20D89817894812783710F900F900F9020
:102230000F90DF91CF911F9108958F929F92AF924F
:10224000BF92CF92DF92EF92FF920F931F93CF93A3
:10225000DF93CDB7DEB760970FB6F894DEBF0FBE41
:10226000CDBFD82EB62E9E012F5F3F4F7901B90109
:102270000E944619D11006C0B7FC02C0E5E00AC0B2
:10228000E7E008C031E0D3120CC0B7FC02C0E6E0C2
:1022900001C0E8E0F0E0EE0FFF1FE85FFB4F808039
:1022A0009180B7FC0BC0B701C4012B2D30E1230294
:1022B000800D911D11240E94E82C26C0A12CB12C68
:1022C00080E1C82ECE0CD11004C08501065E1D4FE2
:1022D00006C081E0D81203C0850106561E4FD70103
:1022E000F801CA1621F084918D933196FACFB70187
:1022F000C501880D991D0E94E82C90E1A90EB11C22
:1023000020E8A216B104F9F660960FB6F894DEBF85
:102310000FBECDBFDF91CF911F910F91FF90EF9036
:10232000DF90CF90BF90AF909F908F90089580FDE9
:102330002D9A81FD2E9A2D982E980895882319F0B4
:10234000813019F00895599A08955C9A0895882368
:1023500019F0813019F00895599808955C980895FE
:10236000E0E1F1E0282F217090819A7F922B82701A
:10237000880F892B808382E090E00C94C0208091AC
:102380001001282F247030E0359527958170822B1D
:10239000089593E08927E0E1F1E0282F217030E0F3
:1023A000220F331F8270880F880F282B8081857F32
:1023B000282B208382E090E00C94C02090911001A3
:1023C000292F287030E035952795359527959695D6
:1023D0009170922B83E089270895EF92FF920F93DB
:1023E0001F93CF93DF93C82F01E010E001C0000FCF
:1023F0008A95EAF70E94DE11F82E0E94BF11E82E9E
:10240000D02FD0958F2D8D230E94C9118E2D8D2315
:102410000E94B01160E18C2F0E94F810D82FCC23BD
:1024200021F0C13019F42E9A01C02D9A61E18C2F50
:102430000E94F810D82BCC2321F0C13019F42E982B
:1024400001C02D988E2D802B0E94B01162E18C2F3F
:102450000E94F810D82B802F0E9497118F2D802B6F
:102460000E94C91162E08C2F0E94F810D82B8E2D8B
:102470000E94B0118F2D0E94C9118D2FDF91CF9135
:102480001F910F91FF90EF9008956AE972E0969581
:102490008795969587950C946A2C9C01369527957F
:1024A00036952795A2E9B3E10E942632AB01BC0123
:1024B00099E076956795579547959A95D1F74E7F10
:1024C0006170772789E79DE5841B950B97FF02C014
:1024D00080E090E008958091690690916A06A0914D
:1024E0006B06B0916C0680FF06C06FE676E080E078
:1024F00090E00E94E82C8091690690916A06A09174
:102500006B06B0916C0685FF07C06091040167FD02
:1025100003C080E00E941D118091690690916A06B7
:10252000A0916B06B0916C0686FF07C06091030115
:1025300067FD03C081E00E941D11809169069091A2
:102540006A06A0916B06B0916C0687FF04C06FEF1E
:1025500080E00E941D118091690690916A06A09109
:102560006B06B0916C0690FF04C06FEF81E00E9493
:102570001D118091690690916A06A0916B06B09139
:102580006C0691FF08C060910E0170910F0180E010
:1025900093E00E94B2318091690690916A06A09101
:1025A0006B06B0916C0692FF08C060910C017091AF
:1025B0000D0180E193E00E94B23180916906909113
:1025C0006A06A0916B06B0916C0693FF08C06091FB
:1025D0000A0170910B0182E093E00E94B231809178
:1025E000690690916A06A0916B06B0916C0694FF03
:1025F00008C0609108017091090182E193E00E9496
:10260000B2318091690690916A06A0916B06B091F3
:102610006C0695FF0CC060916E0684E193E00E9409
:10262000A03160916D0686E193E00E94A031109286
:10263000690610926A0610926B0610926C06089555
:1026400020E030E0F901E051F048E491DC01ED9345
:10265000CD012F5F3F4F20313105A1F708959091B3
:10266000980590959823F89490FF03C022E020935A
:10267000940591FF03C022E02093950592FF03C0CB
:1026800022E02093960593FF03C092E09093970574
:1026900080939805789408958093830684FF02C000
:1026A000289801C0289A9091830695FF02C05D98F2
:1026B00001C05D9A86708695909111019C7F892B4F
:1026C0008093110188E090E00C94D5203F9A8823F4
:1026D00011F0479A0895479808951F920F920FB6E8
:1026E0000F9211241F932F933F934F935F936F93F8
:1026F0007F938F939F93AF93BF93EF93FF93CF936A
:10270000DF9300D000D0CDB7DEB7809192059091D5
:1027100093059C012F5F3F4F3093930520939205C3
:10272000883E934040F11092930510929205789460
:1027300080919105882339F0815080939105811112
:1027400002C00E946613809120078330A9F4809113
:102750009005882389F080919005815080939005A1
:1027600081110AC082E080930C0798E090931201D7
:102770008093200701C0789480910009909101090D
:102780008A35954A91F0F89498E088E10FB6F8946C
:10279000A895809360000FBE9093600085EA9AE54B
:1027A0009093010980930009FFCF809120078F3F0C
:1027B00019F40E94D208DFC380918E0590918F0595
:1027C0000097A9F0019790938F0580938E05892B30
:1027D00071F4809183068D7F80938306809111012F
:1027E0008E7F8093110188E090E00E94D520809137
:1027F0008C0590918D05892B49F080918C059091E5
:102800008D05019790938D0580938C0580918A05A5
:1028100090918B05009729F0019790938B058093F9
:102820008A058091060790910707009749F0019764
:102830009093070780930607892B11F4109290005C
:10284000E09189058E2F837009F45CC0E1FB1127AC
:1028500010F98091880581111CC090917F0697FD29
:1028600003C00E94BF118270809387058091E705A5
:102870009091E805112319F020E038E002C020E82B
:1028800030E0822B932B9093E8058093E7058AE054
:102890000CC0823069F48091E7059091E805816071
:1028A0009093E8058093E70581E0809388052CC02C
:1028B0008A3031F5A091860581E08A0F80938605E4
:1028C000B0E0A258BB4FE12FF0E0EE0FFF1FEE0F7C
:1028D000FF1FE258FA4F408151816281738182E08B
:1028E00076956795579547958A95D1F74C93809142
:1028F0007D048F3F19F08F5F80937D0489E0D5CFF1
:102900008150D3CF1092870580917C0490917B04F5
:10291000811162C04091980591110AC0209114075D
:10292000209376042091750440FB20F920937504D0
:10293000209115072093770420911607209378049F
:10294000209117072093790450910C07209173046C
:10295000309174045130D1F0F0F0523019F053300E
:1029600089F01BC0B901B4E076956795BA95E1F797
:10297000213451E0350718F058E2561B09C0609326
:102980007A040BC0213451E0350728F05091130729
:1029900050937A0402C010927A0450911201250FCC
:1029A000311D30937404209373042138324020F099
:1029B000109274041092730430917504317F242FA7
:1029C0002E704091830640FD02C040E001C040E10E
:1029D000232B242B2093750420917604291305C002
:1029E000209175042E7F209375042091770428137D
:1029F00005C0209175042D7F2093750420917804E3
:102A0000281305C0209175042B7F20937504209115
:102A10007904281305C020917504277F209375043D
:102A200020917A04281305C0209175042F7E2093ED
:102A300075048F5F80937C04843110F010927C04C5
:102A40009F5F90937B04983210F010927B048091EA
:102A5000750484FF02C02F9A01C02F9880917504DD
:102A600020E1829FC0011124909110019F70892B59
:102A70008093100182E090E00E94D5208091E705CC
:102A80009091E805892B09F444C18091E705909164
:102A9000E80581FF0EC06091100182E10E944E2C7A
:102AA0008091E7059091E8058D7F9093E8058093EC
:102AB000E7058091E7059091E80583FF0BC06091E1
:102AC000110183E10E944E2C8091E7059091E80569
:102AD000877F1BC18091E7059091E80580FF0BC0BF
:102AE00082E10E943C2C80937F068091E7059091C3
:102AF000E8058E7F0AC18091E7059091E80582FF85
:102B00000BC083E10E943C2C809380068091E705F6
:102B10009091E8058B7FF9C08091E7059091E805D9
:102B200084FF0BC06091530480E00E94450F8091A8
:102B3000E7059091E8058F7EE8C08091E7059091C8
:102B4000E80585FF0BC06091510480E00E94340FBE
:102B50008091E7059091E8058F7DD7C08091E705CA
:102B60009091E80586FF14C020914D0430914E04E9
:102B700030938C0620938B0640E050E064E980E0BF
:102B80000E94FF0E8091E7059091E8058F7BBDC004
:102B90008091E7059091E80587FF1DC019821A8290
:102BA0001B821C82AE014F5F5F4F6FE680E00E9488
:102BB000F20D89819A81AB81BC8180937E059093CF
:102BC0007F05A0938005B09381058091E7059091E2
:102BD000E8058F779AC08091E7059091E80590FF0E
:102BE0000BC06091540481E00E94450F8091E7057D
:102BF0009091E8059E7F89C08091E7059091E80556
:102C000091FF0BC06091520481E00E94340F8091CB
:102C1000E7059091E8059D7F78C08091E705909148
:102C2000E80592FF14C020914F0430915004309376
:102C300095062093940640E050E064E981E00E940C
:102C4000FF0E8091E7059091E8059B7F5EC0809123
:102C5000E7059091E80593FF1DC019821A821B8237
:102C60001C82AE014F5F5F4F6FE681E00E94F20D64
:102C700089819A81AB81BC81809382059093830581
:102C8000A0938405B09385058091E7059091E805B0
:102C9000977F3BC08091E7059091E80594FF18C0AD
:102CA00019821A821B821C82AE014F5F5F4F6AE657
:102CB00080E00E94F20D89819A81937090934A047A
:102CC000809349048091E7059091E8059F7E1DC09F
:102CD0008091E7059091E80595FF1BC019821A8243
:102CE0001B821C82AE014F5F5F4F6AE681E00E944B
:102CF000F20D89819A81937090934C0480934B04D8
:102D00008091E7059091E8059F7D9093E805809379
:102D1000E70580916B0487FF83C08F70E82FF0E098
:102D200021E030E0082E02C0220F331F0A94E2F7A0
:102D3000409181065091820624233523232B71F480
:102D40002091780030917900EE0FFF1FE959FB4F79
:102D500040815181240F351F31832083882309F45A
:102D600041C0809166048F5F809366048430E0F1F7
:102D700080910507282F30E0220F331FF901E25A16
:102D8000FB4F409167045091680451834083F901DF
:102D9000EA5AFB4F4091690450916A045183408381
:102DA00021E130E0082E01C0220F0A94EAF7909149
:102DB0005504292B209355048F5F182F137058E06A
:102DC000159FC001112490911101977E892B80934A
:102DD000110188E090E00E94D520109305070E9421
:102DE0007A1002C021E001C020E0922F80E041E093
:102DF00050E0BA0163707727672B19F0992331F0FF
:102E000090E0440F551F8F5F803199F790917C00BF
:102E10008770987F892B80937C0020936B040AC075
:102E200080917A00806480937A0080916B0480683E
:102E300080936B042FB122952F70809172048227AA
:102E40009091750489232093720490917C049330AF
:102E5000E0F080FF05C090916E049F5F90936E0438
:102E600081FF05C090916F049F5F90936F0482FF74
:102E700005C0909170049F5F9093700483FF05C01C
:102E8000809171048F5F8093710480910101909112
:102E9000020101979093020180930101892BD1F5E2
:102EA00020916E048091940590E0820F911D95957C
:102EB00087958093940520916F048091950590E00B
:102EC000820F911D959587958093950520917004AB
:102ED0008091960590E0820F911D9595879580933E
:102EE0009605209171048091970590E0820F911DC5
:102EF000959587958093970510926E0410926F04B4
:102F0000109270041092710488E592E0909302018F
:102F1000809301019091980590FF04C081E0209179
:102F20009405211180E091FF05C0209195052111A4
:102F300001C0826092FF05C020919605211101C059
:102F4000846093FF05C090919705911101C088603E
:102F500090910001892380936D0480916C048330EB
:102F600051F4629B08C081E080936C0480918905D4
:102F70008E7F809389050F900F900F900F90DF91B7
:102F8000CF91FF91EF91BF91AF919F918F917F91E1
:102F90006F915F914F913F912F911F910F900FBEB5
:102FA0000F901F901895CF92DF92EF92FF920F93A0
:102FB0001F93CF93DF93EC018A0170E06150710998
:102FC00050E090E0292F30E0261737070CF57E01FE
:102FD000E20EF31EF7018081D90111966E01CA0E2F
:102FE000DB1EF6014081481788F4F7014083F601A3
:102FF00080830115110549F0F801E20FF31F80816C
:10300000A00FB11F2C9120838C9351E09F5FDACFEA
:103010005111D6CFDF91CF911F910F91FF90EF907B
:10302000DF90CF900895CF93DF9380918605209114
:103030007D04982F921B40E050E0981749F0E92F4B
:10304000F0E0E258FB4F3081430F511D9F5FF5CFF9
:10305000622F70E0CA010E94D631EB011F922F93BC
:10306000CB0199279F938F9388E393E09F938F934E
:103070000E94CA3010927D040F900F900F900F9015
:103080000F900F908C2FDF91CF910895E0911D0745
:10309000F0911E0790812EEB290F253008F047C0D4
:1030A00020911F07223E61F1233EB1F0213ED9F568
:1030B000943461F018F4933439F004C0953441F03D
:1030C000963441F085B12FC088B12DC08BB12BC093
:1030D0008EB129C081B327C0943461F018F49334C1
:1030E00039F004C0953441F0963441F083B11BC0EF
:1030F00086B119C089B117C08CB115C08FB113C08A
:10310000943461F018F4933439F004C0953441F0EC
:10311000963441F084B107C087B105C08AB103C0BD
:103120008DB101C080B30E94350880E008958CEF16
:1031300008951F93CF93DF93CDB7DEB761970FB696
:10314000F894DEBF0FBECDBF10911F07BE016F5EAA
:103150007F4F80911D0790911E070E944A07809320
:10316000990587FD1BC029892830B8F4173A19F44E
:1031700080E092E002C080E091E0BE016F5F7F4F8F
:1031800030E1239F800D911D11240E94CF2CCE0190
:1031900001960E946C0880E001C08CEF61960FB62A
:1031A000F894DEBF0FBECDBFDF91CF911F91089580
:1031B000EF92FF921F93CF93DF93182FEB01111122
:1031C00042C080E890E00E94C02080917E059091EE
:1031D0007F05A0918005B0918105B7FFF2CFE12E68
:1031E000F12C85E2189FF0011124EA56F94F8881ED
:1031F0009981948383838A819B81968385838C8143
:103200009D81908787838E819F8192878187812F7F
:103210000E946C0D9701F901ED5AFB4F8885808360
:10322000F901EF5AFB4F89858083220F331FF90183
:10323000E35BFB4F8A859B8591838083111115C0C9
:1032400080E790E016C0113009F0B9CF80E098E037
:103250000E94C0208091820590918305A0918405F1
:10326000B0918505B7FFF2CFBACF113049F480E0B5
:1032700097E0DF91CF911F91FF90EF900C94C020C9
:10328000DF91CF911F91FF90EF9008950F931F93BF
:10329000CF93DF93EB01082F10E095E2899FF001B7
:1032A0001124EA56F94F23813481398328832581FB
:1032B00036813B832A83278130853D832C8321857A
:1032C00032853F832E830E949C0F888789E0809FF0
:1032D000F001819FF00D1124EC57F94F8681898709
:1032E000878190859B878A87DF91CF911F910F916E
:1032F00008951F920F920FB60F9211241092080793
:103300001092090710920A0710920B07EE98789412
:1033100080E00E94C91180E00E942F1380E00E948B
:103320004C1360E070E08AEF94E40E94430980ED62
:1033300097E090930707809306078CE494E09F93AF
:103340008F930E941D060F900F90C12CD12C7601F7
:10335000C7E4D4E0FF92EF92DF92CF92DF93CF9356
:103360000E941D066091D8058FEF860F0F900F9079
:103370000F900F900F900F908E3F48F48FEF93E0D7
:103380000E94B8318091D8058F5F8093D8058AE07C
:10339000C80ED11CE11CF11C80910807909109070F
:1033A000A0910A07B0910B078C159D05AE05BF05CE
:1033B00098F3D0CFCF93DF93EC018091890581FD05
:1033C00037C04091CE065091CF066091D0067091E3
:1033D000D106CE010D2E000CAA0BBB0B840F951F3E
:1033E000A61FB71F8093CE069093CF06A093D0065A
:1033F000B093D106D7FF07C0D195C195D1090E94DE
:10340000BF11826003C00E94BF118D7F0E94B01166
:10341000219760F0F89482E00E94971178948FE9E8
:103420009FE00197F1F700C00000F2CF80E001C0FB
:103430008EEFDF91CF910895CF93DF93EC018091D0
:10344000890580FD37C04091A9065091AA06609178
:10345000AB067091AC06CE010D2E000CAA0BBB0B77
:10346000840F951FA61FB71F8093A9069093AA06E5
:10347000A093AB06B093AC06D7FF07C0D195C1951A
:10348000D1090E94BF11816003C00E94BF118E7FCD
:103490000E94B011219760F0F89481E00E9497118A
:1034A00078948FE99FE00197F1F700C00000F2CF18
:1034B00080E001C08EEFDF91CF910895CF93DF932D
:1034C000EC0180E090E20E94C020CE0196958795A5
:1034D0009695879520914B0430914C04369527950D
:1034E00036952795821B930B813891053CF020E09F
:1034F00031E0A901481B590BCA0105C080385FEFB4
:1035000095070CF49395C82F880FDD0BDF93CF93AD
:1035100087E394E09F938F930E941D060F900F9076
:103520000F900F90CE01DF91CF910C94DA19CF93C9
:10353000DF93CDB7DEB760970FB6F894DEBF0FBE4E
:10354000CDBF8F3F19F48093030114C08830A0F4DD
:103550008093030120E18202C0011124BE016F5F4C
:103560007F4F9E5F0E94CF2CBE016F5F7F4F81E037
:103570000E94D81880E001C08CEF60960FB6F894D6
:10358000DEBF0FBECDBFDF91CF910895CF93DF9304
:10359000CDB7DEB760970FB6F894DEBF0FBECDBFD4
:1035A0008F3F19F48093040114C08830A0F48093F5
:1035B000040120E18202C0011124BE016F5F7F4F30
:1035C00093950E94CF2CBE016F5F7F4F80E00E94D9
:1035D000D81880E001C08CEF60960FB6F894DEBF7B
:1035E0000FBECDBFDF91CF910895CF92DF92EF92C2
:1035F000FF920F931F93CF93DF93CDB7DEB7A097C2
:103600000FB6F894DEBF0FBECDBF80910D078823A3
:10361000D9F08530A1F038F4833071F0843009F0AE
:1036200006C585E00CC0873069F040F0883009F0AD
:10363000FEC410920D07FBC484E001C087E08093B4
:103640000D07F5C488E0FBCF8091070118160CF038
:1036500052C1833009F46AC02CF4813051F08230B9
:1036600079F149C1843009F457C0853009F439C172
:1036700042C11092D7058091A9069091AA06A09107
:10368000AB06B091AC068093D3059093D405A0937C
:10369000D505B093D60580E00E94C61A0E94DE11BF
:1036A00081600E94C9118091120781608093120786
:1036B00040E859EA63E070E080E00E94D20CA1C0CB
:1036C0008091890580FD17C18091D20580FF2CC0B3
:1036D0002FEF31EE84E0215030408040E1F700C010
:1036E00000008091A9069091AA06A091AB06B09126
:1036F000AC068093D3059093D405A093D505B093E1
:10370000D60540E058EF6FEF7FEF80E00E94D20CCB
:1037100083E080930701EFC08091890580FDEBC0B5
:103720008091D20580FD36C08EEFF3CF8091890560
:1037300080FDE1C08091D20580FDD1C08091A906B5
:103740009091AA06A091AB06B091AC068093D305E8
:103750009093D405A093D505B093D60581E00E943F
:10376000C61A8091A9069091AA06A091AB06B091C5
:10377000AC068093D3059093D405A093D505B09360
:10378000D60540E058E160E070E080E00E94D20C95
:1037900084E0BFCFC090A906D090AA06E090AB0607
:1037A000F090AC068091D3059091D405A091D505F9
:1037B000B091D605C81AD90AEA0AFB0A8091D70542
:1037C000813009F18230C9F1811195C0FF92EF92E9
:1037D000DF92CF9280E294E09F938F930E94CA3051
:1037E0000F900F900F900F900F900F9080910A0103
:1037F00090910B0197FD02C082E001C081E08093AF
:10380000D70582E086CFFF92EF92DF92CF9289E0D8
:1038100094E09F938F930E94CA30D0920B01C09284
:103820000A0182E08093D705809307010F900F90E3
:103830000F900F900F900F905EC0FF92EF92DF926B
:10384000CF9280910B018F9380910A018F9380EF2B
:1038500093E09F938F930E94CA3080910A019091C8
:103860000B01AC0140585109052E000C660B770B7B
:103870000FB6F894DEBF0FBECDBFC416D506E60660
:10388000F70638F180589F4F092E000CAA0BBB0B8E
:103890008C159D05AE05BF05E0F080E00E94C61ABC
:1038A0008091A9069091AA06A091AB06B091AC06B2
:1038B0008093D3059093D405A093D505B093D605F6
:1038C00040E05CEF6FEF7FEF80E00E94D20C85E07C
:1038D00020CF8FEF9FEF90930B0180930A018DEF24
:1038E00018CF8091890580FD06C08091D20580FDAA
:1038F000F6CF10920701E09106011E160CF074C27B
:103900008E2FEE0F990BAA0BBB0BFC013197E73002
:10391000F10508F069C2EA5AFF4F0C942032109268
:10392000D1058091CE069091CF06A091D006B0919E
:10393000D1068093CD059093CE05A093CF05B0938B
:10394000D00581E00E94971A81E00E949C0F9BEABB
:10395000899F812D112486958093540480E091E005
:103960000E94C0200E94DE1182600E94C9118091D5
:1039700012078D7F8093120740E058EF6FEF7FEFC3
:1039800081E00E94D20C82E01AC28091890581FDFB
:103990002BC280E00E94971A809112078260809368
:1039A000120710927D0440E058E060E070E081E092
:1039B0000E94D20C83E003C28091890581FD14C26C
:1039C0008091D20581FD04C20E9413188093CC051A
:1039D00040E05EEC6FEF7FEF81E00E94D20CD0C040
:1039E0008091890581FD00C28091D20581FF5FC071
:1039F0008091D10581113AC00E941318282F80931D
:103A0000CB059091CC05892F90E0820F911D969562
:103A100087951092CA0520916E062F3F89F030914C
:103A20006D06222369F04FEF430F4E3F48F4821793
:103A300010F42FEF03C0381718F421E02093CA05C3
:103A40002091CA05422F022E000C550B5F932F9335
:103A50009F938F938CE493E09F938F930E94CA303F
:103A60000F900F900F900F900F900F908091CE06B7
:103A70009091CF06A091D006B091D1068093CD054C
:103A80009093CE05A093CF05B093D00540E058E0C9
:103A900060E070E081E00E94D20C85E090C18091EE
:103AA000890581FDA1C18091D20581FD32C08EEFD3
:103AB00086C18091890581FD97C18091D20581FDE4
:103AC00087C18091CE069091CF06A091D006B0918B
:103AD000D1068093CD059093CE05A093CF05B093EA
:103AE000D00581E00E94971A81E00E949C0F90917E
:103AF000CA05890F8093540480E091E00E94C020A1
:103B000040E058EE6FEF7FEF81E00E94D20C86E03C
:103B100056C1C090CD05D090CE05E090CF05F09075
:103B2000D0058091CE069091CF06A091D006B0919D
:103B3000D106C81AD90AEA0AFB0A8091D105813058
:103B400009F18230D1F181114FC1FF92EF92DF92E2
:103B5000CF9289ED93E09F938F930E94CA300F908C
:103B60000F900F900F900F900F90809108019091FF
:103B7000090197FD02C082E001C081E08093D10578
:103B800084E01DC1FF92EF92DF92CF9282EC93E02E
:103B90009F938F930E94CA30D0920901C09208016E
:103BA00082E08093D10584E0809306010F900F900E
:103BB0000F900F900F900F9017C1FF92EF92DF922E
:103BC000CF92809109018F93809108018F9389EAA8
:103BD00093E09F938F930E94CA3080910801909147
:103BE0000901AC0140545109052E000C660B770BFE
:103BF0000FB6F894DEBF0FBECDBFC416D506E606DD
:103C0000F70608F4DFC0805C9F4F092E000CAA0B5A
:103C1000BB0B8C159D05AE05BF0508F4D3C0F09015
:103C2000C905FF2009F495C084E080930601FA9449
:103C3000F092C90580E090E20E94C020EF2DF0E0F4
:103C4000E754FA4F80914B0490914C0496958795D8
:103C5000969587958083F110C7C040E050E060E101
:103C600089EB95E00E94D317E091B905F0E00AEBEB
:103C700015E030E021E05FE0F52EF00ED8014D9127
:103C80008D01622F70E0CF010E94D631461718F4E3
:103C9000562F541B02C0542F561B842F90E05230D5
:103CA00020F42F5FE80FF91F13C0432F50E0E1E12C
:103CB000F0E0EC0FFD1FE40FF51F2083E1E0F0E0E2
:103CC000EC0FFD1FE40FF51F6083FC013F5F21E057
:103CD000F012D4CF832F90E0A1E1B0E0AC0FBD1F74
:103CE000A80FB91F2C93EE24E394F12CEC0EFD1ECB
:103CF000E80EF91E622F70E0CF010E94D631F70165
:103D00006083FF24F394F30EAE014F5F5F4F6F2D7E
:103D1000CE0141960E94D317FE01EF0DF11D808167
:103D200090E090930D0180930C0180916906909131
:103D30006A06A0916B06B0916C0694608093690648
:103D400090936A06A0936B06B0936C060E946B1268
:103D50004BC080910C0190910D011816190634F496
:103D6000880F991F880F991F0E945E1A81E00E9498
:103D70009C0F86958093540480E091E00E94C020BF
:103D800080E49FEF0E94DA1980E00E94971A8091E8
:103D9000CE069091CF06A091D006B091D106809327
:103DA000CD059093CE05A093CF05B093D00540E00C
:103DB00051E060E070E081E00E94D20C87E08093E7
:103DC000060112C08FEF9FEF9093090180930801C5
:103DD0008DEFF5CF8091890581FD06C08091D205D8
:103DE00081FDF6CF109206018091050118160CF0A6
:103DF00091C08330F1F12CF4813051F0823069F1BF
:103E000089C0843009F452C0853009F47AC082C078
:103E10008091CE069091CF06A091D006B091D106A8
:103E20008093B5059093B605A093B705B093B805F8
:103E300085E00E94971A809112078D7F8093120768
:103E40004091B3055091B405052E000C660B770B1D
:103E500081E00E94580D82E05BC08091890581FD60
:103E600059C083E0809305018091B1059091B2051E
:103E700043C080918A0590918B05892B09F04AC037
:103E800084E0809305010E94971A80911207826056
:103E9000809312074091AF055091B005052E000C9C
:103EA000660B770B81E00E94580D34C08091890524
:103EB00081FD30C08091AF059091B005092E000CB6
:103EC000AA0BBB0B4091CE065091CF066091D00655
:103ED0007091D106481759076A077B0731F4109291
:103EE000050180E00E94971A15C085E080930501C6
:103EF0008091AD059091AE0590938B0580938A05D6
:103F000009C080918A0590918B05892B19F483E073
:103F100080930501F894F09055041092550478941C
:103F2000FF2009F462C0F0FE10C080915E04909101
:103F30005F0465E673E096958795969587950E9450
:103F40006A2C9093A4058093A305F1FE0AC080918A
:103F50006004909161040E9445129093A60580939D
:103F6000A505F2FE0AC080916204909163040E944C
:103F700045129093A8058093A705F3FE0AC080918F
:103F80006404909165040E9445129093AA05809361
:103F9000A905F4FE0AC080915604909157040E942E
:103FA0004D1290939C0580939B05F5FE0AC080916D
:103FB0005804909159040E944D1290939E0580934D
:103FC0009D05F6FE0AC080915A0490915B040E9400
:103FD0004D129093A00580939F05F7FE06C080ECDC
:103FE0009DE59093A2058093A1058091AB05982F44
:103FF000937061F01F928F9384E294E09F938F936C
:104000000E94CA300F900F900F900F908091AC05D6
:10401000982F937061F01F928F938DE294E09F939D
:104020008F930E94CA300F900F900F900F90A09620
:104030000FB6F894DEBF0FBECDBFDF91CF911F91B9
:104040000F91FF90EF90DF90CF900895CF93C82FFE
:104050008E3038F425E0829FC00111248E509D4F90
:1040600002C08EED92E09F938F931F92CF9383EEC9
:1040700092E09F938F930E941D06C0939A050F9024
:104080000F900F900F900F900F90C130C1F40FB6AA
:10409000F894A895809160008861809360001092E8
:1040A00060000FBEF89481E00E9474090E94D2085B
:1040B0008FE09EE00197F1F700C00000F7CFC93014
:1040C00038F48FEF809320078C2FCF910C947409D4
:1040D000CF910895BF92CF92DF92EF92FF920F930C
:1040E0001F93CF93DF9300D000D0CDB7DEB7B82EAB
:1040F00011E001C0110F8A95EAF7F89400E1C12C94
:10410000D12C7601812F0E9497118BE99FE00197B6
:10411000F1F700C00000812F0E94971119821A82C6
:104120001B821C82AE014F5F5F4F62E18B2D0E94AC
:10413000F20D49815A816B817C816F707727C40EA3
:10414000D51EE61EF71E8BE99FE00197F1F700C030
:1041500000000150B9F67894C60124E09695879541
:104160002A95E1F70F900F900F900F90DF91CF916C
:104170001F910F91FF90EF90DF90CF90BF90089527
:10418000F8942091E7053091E805282B392B3093DE
:10419000E8052093E70578942091E7053091E8053C
:1041A00028233923232BC1F70895F8942091E7059C
:1041B0003091E805822B932B9093E8058093E705D7
:1041C00078940895CF93DF93CDB7DEB7A1970FB65C
:1041D000F894DEBF0FBECDBF84B78093180714BE1E
:1041E0008091180783FF11C0809100099091010907
:1041F000853A9A4551F480911807877F8093180774
:10420000809118078068809318078AE595EA909353
:104210000109809300099FB7F894A89584B7877F18
:1042200084BF18E110936000109260009FBF8FE080
:104230000FB6F894A895109360000FBE80936000AD
:104240001092D7001092D80095E19093C50080930A
:10425000C60080E88093610010926100789481E04C
:104260000E9466138091C80082608093C80080E13C
:104270008093CC001093C9008091C900806880931E
:10428000C9008CE78093E9051092EA051092EB05CE
:1042900089ED95E024EF34E03093E2052093E105C9
:1042A0002BED34E03093E4052093E30523E02093E5
:1042B000DC051092E6051092E5055A9A9093540792
:1042C0008093530790935607809355079093250743
:1042D00080932407909322078093210790931A07D5
:1042E0008093190789E694E09F938F930E94CA30C8
:1042F000809118071F928F938BE594E09F938F9383
:104300000E941D0680917100817F80937100109240
:1043100090008AE08093910010929900109298008A
:1043200010929B0010929A0010929D0010929C0097
:1043300010929500109294003E9A46988FE696E06F
:104340000E942013BE016F5E7F4F80E090E00E94CC
:10435000CF2C40E150E06FE676E0CE0141960E941E
:1043600005340F900F900F900F900F900F90892BA6
:1043700039F500E011E0BE016F5F7F4FC8010E9478
:10438000CF2C89819A8181329E44D0F48B819C818B
:1043900081329E44A8F48D819E810C978D34924089
:1043A00078F48F8198850C978D34924048F48985F4
:1043B000803430F48B859C858938934108F48AC019
:1043C0008FEF9FEF90930F0180930E0190930D015B
:1043D00080930C018FEF9FEFDC018093690690932F
:1043E0006A06A0936B06B0936C060E946B12E0ED18
:1043F000FBE6459155916591749180E090E0DC0178
:10440000E0E0F0E02BE6E03DF20751F09F012F5F86
:104410003F4FE4918E0F911DA11DB11DF901F2CF07
:10442000481759076A077B07C9F480E090E0DC0170
:10443000E0E0F0E79F012F5F3F4FE4918E0F911D69
:10444000A11DB11DF901203F3F47A1F786369D49C7
:10445000A740B10509F472C082E001C081E00E946A
:10446000262084B1817F84B984B1876084B985B105
:10447000817F85B9289A80E58CBD1DBC8AB1826197
:104480008AB98BB182618BB98FE39CE90197F1F70F
:1044900000C00000249A2C9A2C982C9A60E080E0AE
:1044A0000E944E2C60EE81E00E944E2C6AE082E178
:1044B0000E944E2C60EE83E10E944E2C80E00E9410
:1044C0003C2C81116EC081E00E943C2C803E09F0A2
:1044D00068C0DCC2005F1F4F003851E0150709F0CB
:1044E0004ACF80E093E00E949A3190930F0180932D
:1044F0000E0180E193E00E949A3190930D01809328
:104500000C0182E093E00E949A3190930B0180931A
:104510000A0182E193E00E949A319093090180930D
:10452000080184E193E00E94923180936E0686E157
:1045300093E00E94923180936D0659CFCE0101968F
:104540000E942013FE01319680E18E0F91919F3FD2
:1045500021F48E13FBCF83E082CF89E0E0E0F0E02E
:1045600080935700E491EE3509F0DEC2E3E0F0E01D
:1045700080935700E491E83D09F0D6C2E2E0F0E014
:1045800080935700E491E83C09F0CEC2E1E0F0E00E
:104590008093570084918F738F3209F462CF85E046
:1045A0005ECF9FEF809118078E7F81F48091800607
:1045B00087FF0CC083E594E09F938F930E941D06B4
:1045C00080E00E9466130F900F90FFCF9F3F19F479
:1045D00086E00E9426201092820610928106809129
:1045E0007A00876080937A0080917C008064809359
:1045F0007C0080917A00806880937A0013E01093A9
:104600007E000E947A10279A209A559A509A2F9AE3
:10461000289A5D9A589A81E08093830680930C07CC
:1046200084E1809314078093150780931607809385
:10463000170780931307259A269A2D982E98569837
:104640005798519A549A599A5C9A80E00E94FE0FAA
:10465000082F001F0027001F81E00E94FE0F87FD2A
:1046600002C0002321F087E00E942620D0C0809164
:10467000840690918506A0918606B0918706B07F4A
:104680009C01AD01546020938406309385064093CD
:104690008606509387066CEE80E00E94FF0E8091A4
:1046A0008D0690918E06A0918F06B0919006B07FF6
:1046B0009C01AD01526020938D0630938E0640938D
:1046C0008F06509390066CEE81E00E94FF0E68E129
:1046D00080E00E94450F66E080E00E94340F68E1B0
:1046E00081E00E94450F68E081E00E94340F9FEF57
:1046F000A0E7B2E09150A040B040E1F700C0000058
:1047000005E2E6E9F6E0DF01202F1D922A95E9F7A0
:1047100088E58093960680E293E0909398068093D4
:10472000970680E8E82E8CE0F82EF0929A06E09248
:10473000990680EC94E490939C0680939B068AEF04
:1047400090E090939E0680939D069093A0068093A0
:104750009F0680E00E946C0DEBEBF6E0DF011D92FE
:104760000A95E9F789E58093BB06F092BD06E092D1
:10477000BC0680EC93E09093BF068093BE0680E079
:1047800095E09093C1068093C0068CE090E09093F2
:10479000C3068093C2069093C5068093C40681E049
:1047A0000E946C0D809181008F7E809381008091AA
:1047B0008100886080938100809180008D7F80934C
:1047C0008000809180008E7F8093800080918000A7
:1047D0008F7380938000809180008F7C8093800015
:1047E00080918100887F82608093810080E092E0E8
:1047F0009093890080938800109285001092840025
:1048000080916F00826080936F001093120780B3D5
:104810008F7080BB81B3806F81BB80911101877ED7
:104820008093110188E090E00E94D5201092050746
:1048300060E070E08CED93E40E94430982E390E035
:1048400090930707809306071092080710920907B4
:1048500010920A0710920B0714BC83E085BD86E016
:1048600086BD80916E00816080936E0084B5836008
:1048700084BD8DE787BD80916E00826080936E005D
:1048800080916A008F7C80936A0080916A008062C8
:1048900080936A008091200781110DC00E94ED1164
:1048A000882321F088E00E94262005C081E00E9434
:1048B000ED118111F7CF8091200781110DC00E9469
:1048C0006A2090930F0780930E0781E00E946A2070
:1048D00090931107809310078091200781110AC0DF
:1048E00082E080930C0798E0909312018093200758
:1048F00010920D0702E317E0A89580911B07909195
:104900001C07892B39F48DB79EB790931C078093B1
:104910001B071BC020911B0730911C078DB79EB74A
:104920002817390791F0F89498E088E10FB6F894C9
:10493000A895809360000FBE9093600085EA9AE589
:104940009093010980930009FFCF809150079091C7
:1049500051078A97CCF08FEF22C08D30F1F08A306A
:10496000E1F02091500730915107F901EA5DF84FCD
:1049700080838823A1F02F5F3F4F3093510720930E
:1049800050072A3231055CF4809124079091250765
:104990000E94543087FFE1CF02C080E0E2CF209137
:1049A0005007309151072A3231052CF03F932F9355
:1049B0001F930F935EC0121613060CF064C0811192
:1049C00062C080912307882381F060912107709154
:1049D000220786E297E00E942134609121077091BE
:1049E00022078AE090E00E9492303091260731320F
:1049F00019F03F3309F064C0E0912707EE2309F472
:104A000066C080912A078F7D09F047C02CE043E003
:104A100067E975E087E297E039A30E94F70539A1BD
:104A20008F3F09F44DC0E3E00E2E000CFF0BE95D53
:104A3000F84F9081911142C0909120079F3F09F457
:104A400048C080931F07313209F049C04DE067EC40
:104A500075E00E94DF05482F552741950CF45095CD
:104A60009A01882379F189E297E03F932F939F93EE
:104A70008F930E94310610925107109250070F90A9
:104A80000F900F900F900E94F51A36CF83E10E948D
:104A90003C2C8093800690E085CD80912B078F7D04
:104AA00079F42BE344E060E774E087E297E039A310
:104AB0000E94F70539A18F3F41F402C09032A9F05E
:104AC0008DEFC9CF8EE297E0D0CFE4E0ADCF80E0AC
:104AD000ABCF823008F4B5CF813421F5B2CF3F336C
:104AE00079F743E36EEE75E0B4CF319690912007ED
:104AF0009F3FC1F0803E20F090912007943091F4C8
:104B000080931F07F0931E07E0931D07313221F4B5
:104B100041E367E876E09DCF3F3391F645E06AE1F7
:104B200077E097CF8BEF97CF84E099CC1F93CF930B
:104B3000DF931F92CDB7DEB7E0911D07F0911E07FE
:104B400010812EEB210F253008F057C0CF010196C0
:104B500090931E0780931D07BE016F5F7F4F0E94D9
:104B60004A078093990587FD4BC080911F07823EBD
:104B700079F1833EC1F0813E09F041C0898114344E
:104B800061F018F4133439F004C0153441F01634D0
:104B900041F085B934C088B932C08BB930C08EB904
:104BA0002EC081BB2CC08981143461F018F41334F9
:104BB00039F004C0153441F0163441F083B91FC0F8
:104BC00086B91DC089B91BC08CB919C08FB917C06F
:104BD0008981143461F018F4133439F004C01534A9
:104BE00041F0163441F084B90AC087B908C08AB9C7
:104BF00006C08DB904C080BB02C08CEF01C080E04C
:104C00000F90DF91CF911F910895CF93DF931F9263
:104C1000CDB7DEB7BE016F5F7F4F80911D079091CA
:104C20001E070E944A078093990587FD10C089815D
:104C3000823060F4882329F0EE9A81E08093D805D1
:104C400003C0EE981092D80580E001C08CEF0F9061
:104C5000DF91CF910895CF93DF9300D000D0CDB7EF
:104C6000DEB7BE016C5F7F4F80911D0790911E07DC
:104C70000E944A078093990587FD60C09C81993204
:104C800010F08CEF5BC020911D0730911E07A90129
:104C9000480F511D87FD5A95CA0150931E07409336
:104CA0001D07BE016D5F7F4F0E944A0780939905E3
:104CB00087FD44C09B81953120F720911D073091DD
:104CC0001E07A901480F511D87FD5A95CA0150932F
:104CD0001E0740931D07BE016E5F7F4F0E944A076B
:104CE0008093990587FD2AC09A81953150F62091CD
:104CF0001D0730911E07A901480F511D87FD5A95C8
:104D0000CA0150931E0740931D07BE016F5F7F4F7E
:104D10000E944A078093990587FD10C089818531DB
:104D200008F0AFCF9C81909314079B819093150757
:104D30009A81909316078093170780E00F900F9049
:104D40000F900F90DF91CF910895CF93DF93CDB760
:104D5000DEB728970FB6F894DEBF0FBECDBFBE01F9
:104D6000695F7F4F80911D0790911E070E94040785
:104D70008093990587FD67C020911D0730911E071C
:104D8000A901480F511D87FD5A95CA0150931E076E
:104D900040931D07BE016B5F7F4F0E9427078093E2
:104DA000990587FD50C020911D0730911E07A9016C
:104DB000480F511D87FD5A95CA0150931E07409315
:104DC0001D07BE016D5F7F4F0E9404078093990508
:104DD00087FD39C020911D0730911E07A901480F9A
:104DE000511D87FD5A95CA0150931E0740931D0718
:104DF000BE016F5F7F4F0E9427078093990587FD53
:104E000022C08F8198859093B4058093B3058D81DE
:104E10009E819093B2058093B1058B819C81909384
:104E2000B0058093AF0589819A819093AE058093F8
:104E3000AD058091890580FD05C081E08093050165
:104E400080E001C08EEF28960FB6F894DEBF0FBE4B
:104E5000CDBFDF91CF9108956EE676E080911D077A
:104E600090911E070E944A078093990587FD2AC0EA
:104E700020911D0730911E07A901480F511D87FD84
:104E80005A95CA0150931E0740931D076DE676E0C0
:104E90000E944A078093990587FD14C08091690696
:104EA00090916A06A0916B06B0916C069062809317
:104EB000690690936A06A0936B06B0936C060E94F5
:104EC0006B1280E00895CF93DF9300D0CDB7DEB7AB
:104ED000BE016F5F7F4F80911D0790911E070E945A
:104EE00004078093990587FD22C089819A819C01DE
:104EF0002F5F3F4F21303140C8F490930D018093D4
:104F00000C018091690690916A06A0916B06B091A0
:104F10006C0694608093690690936A06A0936B0672
:104F2000B0936C060E946B1280E001C08CEF0F9072
:104F30000F90DF91CF910895CF93DF9300D0CDB73D
:104F4000DEB7BE016F5F7F4F80911D0790911E07F6
:104F50000E9404078093990587FD22C089819A8168
:104F60009C012F5F3F4F21343105C8F490930F010E
:104F700080930E018091690690916A06A0916B065C
:104F8000B0916C0692608093690690936A06A09334
:104F90006B06B0936C060E946B1280E001C08CEF30
:104FA0000F900F90DF91CF910895DF92EF92FF92D3
:104FB0000F931F93CF93DF93CDB7DEB762970FB6F2
:104FC000F894DEBF0FBECDBFD0901F07E0901D0745
:104FD000F0901E07BE016F5F7F4FC7010E94270739
:104FE00087FD9DC08701080F111D87FD1A95F801E7
:104FF0009081992341F0BE016D5F7F4FC8010E94EF
:10500000270787FD8CC0080F111D87FD1A95F80131
:105010009081992341F0BE016B5F7F4FC8010E94D0
:10502000270787FD7CC0080F111D87FD1A95F80121
:105030009081992341F0BE01695F7F4FC8010E94B2
:10504000270787FD6CC0080F111D87FD1A95F80111
:105050009081992341F0BE01675F7F4FC8010E9494
:105060004A0787FD5CC0080F111D87FD1A95F801DE
:1050700090819923E1F0CE0141969F938F930797FA
:105080009F938F9381E697E09F938F931F930F9346
:105090000E94F0300FB6F894DEBF0FBECDBF01976F
:1050A00021F4898987FF03C03AC08DEF38C0080F0B
:1050B000111D87FD1A95F8018081811105C0802F8F
:1050C0008E1987FF0AC02BC0BE01655F7F4FC801E4
:1050D0000E94270787FFF3CF22C011E0F7EADF1213
:1050E00010E0BE016F5F7F4F812F0E94D818809122
:1050F000690690916A06A0916B06B0916C06111139
:1051000002C0806201C080648093690690936A0641
:10511000A0936B06B0936C060E946B1280E06296BF
:105120000FB6F894DEBF0FBECDBFDF91CF911F91B8
:105130000F91FF90EF90DF900895CF93DF9300D011
:105140001F92CDB7DEB7BE016D5F7F4F80911D0707
:1051500090911E070E944A078093990587FD2FC0F2
:1051600020911D0730911E07A901480F511D87FD91
:105170005A95CA0150931E0740931D071A8219823F
:10518000FA01208121110DC089819A8190938F05A8
:1051900080938E059B8180918306992361F08260C4
:1051A0000BC0BE016F5F7F4F0E9427078093990558
:1051B00087FFEACF04C08D7F0E944C1380E00F90E0
:1051C0000F900F90DF91CF9108950F931F93CF937E
:1051D000DF9300D000D0CDB7DEB7BE016D5F7F4F4B
:1051E00080911D0790911E070E94270780939905C3
:1051F00087FD31C020911D0730911E07A901480F7E
:10520000511D87FD5A95CA0150931E0740931D07F3
:10521000BE016F5F7F4F0E9427078093990587FD2E
:105220001AC06B817C81CB0140978937934190F400
:1052300009811A81013187E2180760F480E090E06B
:105240000E9453330E9443091093070700930607F7
:1052500080E001C08CEF0F900F900F900F90DF91C6
:10526000CF911F910F910895CF93DF93CDB7DEB704
:105270002A970FB6F894DEBF0FBECDBFCE010596BC
:105280009F938F9304979F938F938BE597E09F93C2
:105290008F9380911E078F9380911D078F930E949B
:1052A000F0300FB6F894DEBF0FBECDBF019711F4FA
:1052B0008D8101C08DEF8093990587FD4EC080914F
:1052C0001F07843AE1F08F3A39F1823A09F040C081
:1052D00049815A816B817C814F83588769877A879E
:1052E0000E94DE1181600E94C9114F815885698535
:1052F0007A8580E00E94580D87FD2CC027C08981E7
:105300009A81AB81BC818093A9069093AA06A09351
:10531000AB06B093AC061AC049815A816B817C817F
:10532000413C34ED530731E063077105ACF48091E3
:105330006C04826080936C047095609550954195E3
:105340005F4F6F4F7F4F80E00E94D20C80E005C01E
:105350008AEF03C08EEF01C08CEF2A960FB6F89447
:10536000DEBF0FBECDBFDF91CF9108950F931F9386
:10537000CF93DF9300D0CDB7DEB7BE016F5F7F4F15
:1053800080911D0790911E070E9404078093990544
:1053900087FD2AC080911F07833A89F0853A09F575
:1053A00089819A81092E000CAA0BBB0B8093CE0633
:1053B0009093CF06A093D006B093D10610C0098178
:1053C0001A810E94DE1182600E94C911A801110F8A
:1053D000660B770B81E00E94580D87FD04C080E0CA
:1053E00003C08AEF01C08EEF0F900F90DF91CF9135
:1053F0001F910F9108950F931F93CF93DF9300D0C8
:10540000CDB7DEB7BE016F5F7F4F80911D079091D2
:105410001E070E9427078093990587FD84C080910D
:105420001F078C3BA9F188F48E38E1F08F3809F022
:1054300077C049815A8160E070E070956095509521
:1054400041955F4F6F4F7F4F11C08D3B09F45FC097
:105450008E3B09F065C089819A8190938D05809378
:105460008C050BC049815A8160E070E080E00E94A9
:10547000D20C87FF0BC08EEF56C080918C059091A7
:105480008D05892B19F00E94F51AF7CF80E04BC0EB
:1054900009811A81011524E0120708F043C080E059
:1054A00090E10E94C020C80124E0969587952A9536
:1054B000E1F72091490430914A0444E0369527955C
:1054C0004A95E1F7821B930B813291053CF020E471
:1054D00030E0A901481B590BCA0106C0803E5FEFAE
:1054E000950714F4805C9F4F082F880F110B1F93B2
:1054F0000F938BE497E09F938F930E941D06C80142
:105500000E941C1A0F900F900F900F900CC0898171
:105510009A81811524E0920728F40E945E1A03C044
:105520008AEF01C08CEF0F900F90DF91CF911F9108
:105530000F910895CF93DF9300D01F92CDB7DEB7C0
:10554000CE0101969F938F9302969F938F9381E64E
:1055500097E09F938F9380911E078F9380911D07F3
:105560008F930E94F0300FB6F894DEBF0FBECDBF10
:10557000019711F4898101C08DEF8093990587FD12
:1055800035C080911F07883AF1F050F4893991F0C5
:105590008A3959F58B818093520480E092E00FC0E4
:1055A000823CA9F0833CD1F0893AF9F48B810E94C6
:1055B000971A1CC08B818093510480E290E00E9476
:1055C000C02080E013C08B810E94C61A0FC08B815F
:1055D000082E000C990B0E941C1A08C08B81082E03
:1055E000000C990B0E94DA1901C08AEF0F900F90FE
:1055F0000F90DF91CF9108951F93CF93DF931F9268
:10560000CDB7DEB7BE016F5F7F4F80911D079091D0
:105610001E070E944A078093990587FD0DC180915E
:105620001F07853809F49BC0D8F4803109F44FC0B6
:1056300040F48D30C9F18F30C9F18C3009F0E5C0EC
:105640002CC0813409F459C020F4813109F44AC0D6
:10565000DCC0823809F47CC0833809F470C0D5C03E
:105660008A3A09F48AC050F4853909F454C086395D
:1056700009F45AC08A3809F0C8C046C0813B09F411
:1056800083C020F48D3A09F49CC0BFC0883B09F464
:1056900082C0843C09F4B3C0B8C08981843008F06A
:1056A000C8C00E94C911C3C0898162C08981843089
:1056B00008F0BFC090E1899F900111249091890565
:1056C0009F70292B209389050E94B011B0C0898159
:1056D000843008F0AEC090918905907F892B80932B
:1056E0008905A5C08981843008F0A3C09091120774
:1056F000907F892B809312079AC08981893008F0A6
:1057000098C00E94262093C08981803108F091C002
:105710000E942F138CC08981803408F08AC0809346
:10572000530480E190E008C08981803408F081C092
:105730008093540480E091E00E94C02078C01981D9
:10574000111103C080E00E946613109391056FC091
:105750008981843008F06DC080930C0768C09981FE
:10576000923008F066C080918306992321F084600E
:105770000E944C135CC08B7FFBCF8981823008F084
:1057800058C08093230753C08981853108F051C0E8
:10579000809313074CC089818B3F08F04AC08093E7
:1057A0001301882321F08A3F31F4589A01C0589898
:1057B00084B58F7C04C08A5F88BD84B5806284BD57
:1057C00036C099819230A8F580911101992369F032
:1057D00084608093110188E090E00E94C020809155
:1057E0006C04816080936C0422C08B7F80931101D4
:1057F00088E090E00E94C02010926C0418C089815B
:105800008031B8F48093000112C0813B51F0893B94
:1058100029F0823481F4E2E5F7E005C0E2E1F1E04D
:1058200002C0E3E1F7E0309731F08981808380E0C6
:1058300003C08CEF01C08AEF0F90DF91CF911F91D1
:10584000089580916E060E94350880916D060E9431
:10585000350880E008958FEF93E00E94923190E048
:1058600001972AE0AC01249FC001259F900D1124CF
:105870000E946D0780E00895CF93C82F80E58CBD0E
:105880001DBC2C9881E40E9491098C2F0E949109E3
:105890008FEF0E9491092C9ACF9108951F93CF9377
:1058A000DF931F92CDB7DEB7182F80E58CBD1DBCEE
:1058B0002C9880E469830E949109812F0E949109AC
:1058C0006981862F0E9491092C9A0F90DF91CF91C8
:1058D0001F910895EF92FF921F93CF93DF93FB01E7
:1058E000EE5BFF4F25913491821793070CF04CC06B
:1058F000FB0125913491281739070CF048C013E2B9
:10590000A1E2B0E040E050E021E1115009F439C0DB
:1059100030E0E901CC0FDD1FFB01EC0FFD1FE5902E
:10592000F490FE013296E60FF71FC591D491C81787
:10593000D90724F4A9012A0F3B1F06C08E159F0525
:1059400034F4D901240F351F35952795DECF4EEC61
:105950004203B001439F700D11249B012E513B4F18
:10596000BC016E197F094603C001479F900D1124A9
:10597000BE016E197F090E94EA31C901860F971F87
:1059800008C080E090E005C080E79EEF02C082EE94
:1059900094E0DF91CF911F91FF90EF900895EF92E7
:1059A000FF921F93CF93DF93EB0111E17C01E61A85
:1059B000F70A115039F0C7018C0F9D1F0E949231D8
:1059C0008993F7CFDF91CF911F91FF90EF900895CA
:1059D000EF92FF920F931F93CF93DF937C018B0184
:1059E000C0E0D0E0F80161918F01CE018E0D9F1DC6
:1059F0000E94A0312196C031D105A1F7DF91CF914E
:105A00001F910F91FF90EF900895ACE0B0E0EBE0B4
:105A1000FDE20C940D306C015B017A01FC011782F0
:105A20001682838181FF0EC1CE0101964C01F601E1
:105A30000381F50103FD159103FF11915F0111230E
:105A400009F4FCC0153249F403FD159103FF1191CF
:105A50005F01153211F020E01BC0B601812F90E0EC
:105A60000E94923037017301E2CF112309F4E6C09E
:105A7000612F70E08FE697E02C870E9449302C85DB
:105A8000892B49F0F50103FD159103FF11915F0189
:105A900027FFEBCF09C0133229F01C3609F0D5C01F
:105AA0002068F0CF20E1EECF022F112309F4C6C009
:105AB000612F70E088E697E02C870E9449302C85A2
:105AC000892B41F03701F4E06F0E711CB6018FE3B2
:105AD00090E011C0133639F0133781F0133519F502
