:100000000C94C1030C94DE030C94DE030C94DE0309
:100010000C94DE030C94DE030C94DE030C94D427C2
:100020000C94DE030C94DE030C94DE030C94DE03CC
:100030000C94DE030C94DE030C94DE030C94DE03BC
:100040000C94DE030C94A9070C94DE030C94DE03DD
:100050000C94DE030C9446210C94DE030C94F20EF7
:100060000C94DE030C94B00E0C94DE030C94DE03AF
:100070000C94DE030C94DE030C94DE030C94DE037C
:100080000C94DE030C94DE030C94DE030C94DE036C
:100090000C94DE030C94DE030C94DE030C94DE035C
:1000A0000C94DE030C94DE030C94DE034552524F95
:1000B000523A20727820627566666572206F7665A6
:1000C00072666C6F770A00AA6A5A56555595A5A9AB
:1000D000AA2575200025752000256920002568685F
:1000E00075256E002575256E002569256E00237324
:1000F0007069313D257820647276313D256C782019
:10010000677374313D257820676366313D256C78CF
:100110000A0023737069303D257820647276303D83
:10012000256C7820677374303D25782067636630CE
:100130003D256C780A003F3F3F3F004552524F52E9
:100140003D256420282553290A004E4F4E45004383
:10015000485341004348534200534E4E53004655C6
:100160005345004C4F434B004753504900545350A4
:1001700049005453494700414443560054484552AE
:10018000004D4F544F0046414E5300554C454400DE
:10019000237477686F206F66667365743D256420ED
:1001A000646973743D25640A00237477686F207353
:1001B0006574206F6666736574423A2025640A0090
:1001C000237477686F20736574206F666673657437
:1001D000413A2025640A00490053005F006D007D0C
:1001E000009000A500BD00D900F8001C0143016E7D
:1001F000019C01CE01020237026C02A102D302026D
:10020000032D03530375039103A903BD03CD03DA43
:1002100003E303EB03F103F503F803237469706848
:100220002073746570732025640A006B696C6C65BB
:10023000640A004D435553523D3078253032780AD8
:100240000073746172740A006265657081626F6F19
:1002500074B5636C6564856565636C9F656572786C
:10026000A065657778A16563686FAA66616E65B3FE
:1002700066616E738A6670776DB26672706D9D6D21
:100280006F74728D706C65648270707374BF7070FF
:10029000776DB170737064B97273656EAD72736DA2
:1002A00065AF72737374AE73676263BA73676264C7
:1002B000BB7368646E8374656D709E74696366A7B2
:1002C00074696373A9746963759674696863C174AA
:1002D00069686F9874696D61A374697068BD7469A9
:1002E000706FA5746973679A74697374C37472616B
:1002F00077B674776366A674776373A8747763754B
:10030000957477646E8F74776863C07477686F973D
:1003100074776D61A274777068BC7477706FA47421
:100320007773679974777374C2747775708E756C10
:100330006564847570776DB8766F6C74B076726131
:1003400077B77764656CBE7769646CB4666D736B00
:10035000C4676F7365C574777466C874697466C959
:1003600074697363C775737461CA5F706F72E15F9C
:10037000646472E25F70696EE36469720F656E6156
:100380000C656E6411657272416C65640D6C6F670B
:10039000426D6F74107273740173657203747374B9
:1003A00043766572027265761370756E12014804A9
:1003B000437C0C831C058D1205973304981E049F03
:1003C0000105B4F004B50C04BB0804C0F403C1E09B
:1003D00003C5E304004A2001A90D02101F03DC1F1E
:1003E00012911F13731F0CA90D0DA90D0FA90D104C
:1003F000A90D11A90D41A90D42A90D82A90D847263
:100400001E85A90D8AA90D95A90D96A90D972C21D8
:10041000982C21C7681E99A90D9AA90D9D821E9E30
:10042000DF20B0DF20B6C620B7C620B1A90DB9A91C
:100430000DB8A90DB3A90DA4F81EA56B1FA6481FE2
:10044000A7481FA82C21A92C21AA2C21ADA90DAEAB
:10045000A90DBAA90DBBC91EBCF820BDF820BFB8B4
:100460001EC01E21C11E21C42C21C8A90DC9A90D61
:10047000CA301F0C391D0D391D0F391D10391D11C2
:10048000391D41391D42391D83391D810B1B8239AC
:100490001D84C31A85391D8E381C8F381C8A391D5E
:1004A00095391D96391D99D71C9AD71C9F0105A215
:1004B0005A1BA3E71BA45A1BA5E71BA6FB19A7FB06
:1004C00019A8D71CA9D71CAA391DB1391DB9391DC6
:1004D000B8391D9D9819AD391DAF5A1BBE381CBCCB
:1004E000381CBD381CC2D71CC3D71CC0E910C1B012
:1004F00010C4391DBF5410C71D10E1AE0FE3AE0F7D
:10050000E2AE0FCA7A10A66E0FA76E0FE11B0FE3C3
:100510001B0FE21B0F6525640A006F6B0A00455232
:10052000524F523A20636F6D6D616E64206F766535
:1005300072666C6F770A0025692000256C752000B3
:100540006400534C412D636F6E74726F6C20256490
:100550002E25642E25642D256425532000435A50F2
:100560005825347358253373582563253573200077
:100570004E4120000103050E0F11121315161738F6
:100580003A000204253032780025642025642000DA
:10059000256C692000253032686878200023747744
:1005A00070682073746570732025640A00256C6977
:1005B000256E0025686869256E00256C640A002395
:1005C000494E54360A00236F6C69636E745F746918
:1005D0006C743D256868750A00236F6C69636E74DE
:1005E0005F746F7765723D256868750A00236472D1
:1005F000765F7374617475735B25645D3D25303877
:100600006C780A00237370695F7374617475735B2F
:1006100025645D3D2530326868780A00000A0014C0
:10062000F000F0001407BC0200000000B004DC057C
:10063000A000A00010074C0400000000000F0014F0
:10064000500050001006DC05000000006400780037
:10065000C800C8000B00DC0500000000DC05DC055C
:10066000000000002C2834080000000090019001D8
:10067000000000003E3F000000000000D606D60645
:10068000000000002C28D00700000000000F00141C
:10069000C800C8000F037E0400000000C409983A97
:1006A000FA0096001604640000000000C4094C1D06
:1006B000FA0096001001F40100000000800C983A46
:1006C000FA00FA000A03980800000000640096008F
:1006D000320032000F00DC0500000000800CC04436
:1006E000FA00FA002206F40100000000800CC04469
:1006F000FA00FA001206F40100000000400680250E
:10070000C800C8003F04F40100000000C4094C1DEB
:100710005E015E010C0278050000000019001D005A
:10072000220028002E00360040004B0058006900CF
:100730007C009200AD00CC00F1001A014A017E015C
:10074000B701F40133027102AF02E8021C034A034D
:1007500072039303AD03C303D303E003E903F00380
:1007600045464765666700202B2D2E3031323334E5
:10077000353637383968006364696E6F7073757821
:10078000580011241FBECFEFDAE0DEBFCDBF25E059
:10079000A2ECB2E001C01D92A53EB207E1F712E063
:1007A000A0E0B1E0EAE7F6E602C005900D92A23CB7
:1007B000B107D9F70E94C5140C943B330C94000088
:1007C0008091BA0581FD0EC081E0809300018FEF1A
:1007D0009FEF909303018093020180E18093E202F6
:1007E00080E008958EEF08958091BA0580FD0EC0D7
:1007F00081E0809301018FEF9FEF9093050180933B
:1008000004018AE08093D20280E008958EEF08957B
:100810001092AE0480E0089587E797E7909301086F
:100820008093000898E088E10FB6F894A89580932B
:1008300060000FBE90936000F894FFCF9091BA05CE
:10084000892F827091FD0DC091E09093000120915D
:1008500006013091070137FD80E18093E20280E0DC
:1008600008958EEF08959091BA05892F817090FDBB
:100870000DC091E090930101209108013091090190
:1008800037FD80E18093D20280E008958EEF0895D5
:1008900098E088E10FB6F894A895809360000FBEA9
:1008A00090936000F894FFCF8F929F92AF92BF9287
:1008B000CF92DF92EF92FF920F931F93CF93DF932C
:1008C0006A017B01082F10E095E2899FE001112465
:1008D000C354DC4FAB85BC852D853E8549018A0E0E
:1008E0009B1EA12CB12C481559056A057B05A8F063
:1008F000BD8FAC8FC818D908EA08FB08CE8EDF8EF2
:10090000E8A2F9A23BA32AA3AB2B11F086E001C019
:1009100084E0232BA9F0886013C09A01AB010E94E8
:100920003231A50194010E9401313D8F2C8F1E8E22
:100930001F8E18A219A2C21AD30ADBA2CAA28AE089
:1009400095E2909FF001919FF00D1124E354FC4F2C
:10095000878BDF91CF911F910F91FF90EF90DF90E8
:10096000CF90BF90AF909F908F9008958EBD0DB4A3
:1009700007FEFDCF8EB508958091F6029091F502A5
:10098000981781F0E82FF0E0E850FD4F208130E02B
:100990008F5F9091F402891708F080E08093F6024F
:1009A000C90108958FEF9FEF08958093CE00809145
:1009B000C80086FFFCCF8091C80080648093C80087
:1009C00080E090E0089583E0809338040E946F2BCC
:1009D00080E480930C0184E080934E0480E00895CD
:1009E0008091BA05837019F00E94BB11F9CF8091F4
:1009F00001011816CCF3809100011816ACF380E0C9
:100A00000895CF93DF93C0E0D1E06FEFCE010E9455
:100A1000A3302196C63183E0D807B9F780E0DF9193
:100A2000CF91089580E00E9410298FEF80930101FB
:100A30008093000180E0089580E00E94682B10926E
:100A4000C00580E0089580914D04803B09F474C096
:100A500058F5873909F45BC088F4813409F448C03B
:100A600020F48D3009F46EC06AC0823409F443C0AA
:100A7000823809F064C088E394E00895883A09F464
:100A80004CC048F4883909F445C08E3909F057C084
:100A90008AED92E00895893A09F442C08A3A09F051
:100AA0004EC081E594E00895883B59F180F4833B82
:100AB00059F130F4813B09F042C08DE091E0089596
:100AC000863BB9F1873BD9F583E994E00895803CF2
:100AD00051F138F4893B91F08A3B89F58EEA94E034
:100AE0000895813C19F1843C51F58DED95E0089510
:100AF00084ED92E0089582E894E008958CE091E01E
:100B000008958FE394E008958CED95E0089581E0D9
:100B100091E0089580E091E008958FE091E00895DC
:100B20008EE091E0089588E091E0089586E091E0FC
:100B300008958BE994E0089580E191E0089580E0C4
:100B400090E008958EE893E00895FB0190E09417FB
:100B500081F02491BF016D5F7F4F281307C031964C
:100B600085919491009739F0FC0109949F5FFB01F6
:100B7000EECF89EF08958AEF08950F931F93CF93D7
:100B8000DF93582FC42FD0E021962223B1F0FB0130
:100B9000DC013A2F351B341728F40D91149131964E
:100BA0000117B9F32150341305C0FB01E30FF11D08
:100BB000849104C06C0F7D1FE8CF8FEFDF91CF9140
:100BC0001F910F910895CF93DF93CDB7DEB7AE019C
:100BD0004B5F5F4FFA0161917191AF0180914704C2
:100BE000909148040E940C30DF91CF910895CF93EB
:100BF000DF93CDB7DEB7AE014B5F5F4FFA01619176
:100C00007191AF0180914F04909150040E940C307B
:100C1000DF91CF910895CF93DF9300D0CDB7DEB7AA
:100C20009E012F5F3F4F3F932F937F936F9329EE4A
:100C300030E03F932F939F938F930E94F32F0FB633
:100C4000F894DEBF0FBECDBF019711F4898101C0BA
:100C50008DEF0F900F90DF91CF910895CF93DF9399
:100C600000D0CDB7DEB79E012F5F3F4F3F932F934C
:100C70007F936F9324EE30E03F932F939F938F9356
:100C80000E94F32F0FB6F894DEBF0FBECDBF0197C1
:100C900011F4898101C08DEF0F900F90DF91CF91FA
:100CA0000895CF93DF9300D0CDB7DEB79E012F5FBD
:100CB0003F4F3F932F937F936F932DED30E03F9302
:100CC0002F939F938F930E94F32F0FB6F894DEBF5C
:100CD0000FBECDBF019711F4898101C08DEF0F9038
:100CE0000F90DF91CF9108959F938F9389ED90E0BE
:100CF0009F938F930E94F7050F900F900F900F9086
:100D000097FD80E008959F938F9385ED90E09F93EA
:100D10008F930E94F7050F900F900F900F9097FD03
:100D200080E008951F928F9381ED90E09F938F93C1
:100D30000E94F7050F900F900F900F9097FD80E0A5
:100D400008950F931F93CF938C01FC0180819181B3
:100D50000E948306C82FF801828193810E94830636
:100D6000C80FF801848195810E948306C80FF8019D
:100D7000868197810E948306C80FF80180850E94B2
:100D80009206C80FF8018185282F082E000C330B1E
:100D90003F938F9387E395E09F938F930E94F7058E
:100DA0000F900F900F900F9097FD02C0982F01C0E9
:100DB00090E0C90FF801828593850E9483068C0F0D
:100DC000CF911F910F9108958091D102882309F44A
:100DD0006BC08091D0029091CF028823C1F08150E6
:100DE0008093D002911160C08FE694E090939900B7
:100DF0008093980080E4809390002F9A80918E03D6
:100E0000816080938E0381E08093CF0208959923BF
:100E100051F0109290002F9880918E038E7F8093D6
:100E20008E031092CF028091CE02882321F0815050
:100E30008093CE0208952091CD02E22FE695E695AB
:100E4000F0E0E753FD4F808190E0422F437023E0B4
:100E500030E0241B3109220F331F02C0959587957E
:100E60002A95E2F78370823059F0833081F0813027
:100E700019F01092D00207C080E38093D00204C022
:100E800080E98093D00280E38093CE0202C010926A
:100E9000CD028091CD028F5F8093CD029091D102DF
:100EA000891710F01092CD020895CF92DF92EF9241
:100EB000FF926B017C0120E030E0A9010E94AA3181
:100EC000811103C0109290001CC0A701960160E040
:100ED00074E284E799E40E94AF3120E030E040E022
:100EE0005FE30E943D310E942132683C710510F49D
:100EF00068EC70E0709399006093980080E48093B0
:100F00009000FF90EF90DF90CF900895E82FF0E0F1
:100F1000E953FF4FE491F0E0FE2FEE27853010F00B
:100F2000E06401C0E068F894F093C902E093CA025B
:100F30001092CD021092D0021092CE0288E08093DF
:100F4000D102789408958EBD0DB407FEFDCF8EB505
:100F500008951F920F920FB60F9211244F925F9235
:100F60006F927F928F929F92AF92BF92CF92DF92B9
:100F7000FF920F931F932F933F934F935F936F9322
:100F80007F938F939F93AF93BF93CF93DF93EF9311
:100F9000FF931092850010928400C090CE03D090F1
:100FA000CF030091F3031091F403E1E0C016D106E2
:100FB00008F0E0E0E093C80245E2E49FF00111246C
:100FC000E354FC4FC189D289D093C702C093C602B3
:100FD0008091840090918500209709F4B7C2F9B000
:100FE000F294F694F69493E0F9228091AD04F82AF5
:100FF00080913E04F8228F2D90E09093C50280935B
:10100000C402C03A56E3D50750F0FE0186E0F695DB
:10101000E7958A95E1F7E85EFE4F46A11AC0C03A0F
:1010200066E2D60748F0FE01B5E0F695E795BA9579
:10103000E1F7EC59FF4F0CC0C03A7EE1D70758F0FA
:10104000FE01A4E0F695E795AA95E1F7E05DF04092
:10105000408150E01AC0C032D105A8F0BE0176959B
:101060006795CB01A0E0B0E0BC01CD0160587B47A3
:10107000814E9F4F4E01A12CB12CA50194010E94DD
:101080000131A90102C040E050E05093C3024093F7
:10109000C2028091840090918500F091BA05F0FF22
:1010A00024C12091D7033091D803240F351F3093EA
:1010B000D8032093D7038091D5039091D603C81607
:1010C000D90608F40CC18C0F9D1F8C199D099093B3
:1010D000D6038093D503E091D4038091D0039091FF
:1010E000D103A091D203B091D303F4FF04C00197C0
:1010F000A109B10903C00196A11DB11D8093D003C0
:101100009093D103A093D203B093D303E1FF50C0D7
:10111000A091C403B091C5032F3F310509F058F4E5
:101120004A9FB0014B9F700D5A9F700D1124CB0147
:10113000A0E0B0E005C09A010E942331DC01CB01A0
:1011400073E0880F991FAA1FBB1F7A95D1F7809073
:10115000CC039090CD03A090CE03B090CF03880D28
:10116000991DAA1DBB1D8093CC039093CD03A09322
:10117000CE03B093CF038091D9039091DA03019706
:101180009093DA038093D903892B09F08BC08E2FBB
:101190008D7FE2FF86C02091C2033091C30330935C
:1011A000CF032093CE031092CD031092CC0379C0CD
:1011B000E2FF28C08091DB039091DC03A091DD0366
:1011C000B091DE030197A109B1098093DB039093ED
:1011D000DC03A093DD03B093DE03892B8A2B8B2BDA
:1011E00009F060C08E2F8B7FE3FD5BC0FE7FF09324
:1011F000BA051092CC031092CD031092CE03109238
:10120000CF034FC0E3FF4EC0A091C603B091C70308
:101210002F3F310509F058F44A9FB0014B9F700DE4
:101220005A9F700D1124CB01A0E0B0E005C09A01D7
:101230000E942331DC01CB0163E0880F991FAA1FB4
:10124000BB1F6A95D1F78090CC039090CD03A090FE
:10125000CE03B090CF0324013501481A590A6A0A17
:101260007B0A4092CC035092CD036092CE037092E1
:10127000CF038091DF039091E00301979093E00307
:101280008093DF03892B71F4E77FFE7FF093BA052B
:101290001092CC031092CD031092CE031092CF0384
:1012A00001C0E82F8091E103882321F081508093D1
:1012B000E1030CC0F0FE0AC08091BA058E7F8093D6
:1012C000BA058091E30281608093E302E093D40346
:1012D0001092D8031092D703DD24D39407C08C1941
:1012E0009D099093D6038093D503D12CF091BA0534
:1012F000F1FF28C18091FC039091FD03840F951F9D
:101300009093FD038093FC032091FA033091FB033B
:101310000217130708F40DC1C20FD31FC01BD10B56
:10132000D093FB03C093FA03E091F9030091F50316
:101330001091F6032091F7033091F803F5FF05C0F3
:10134000015011092109310904C00F5F1F4F2F4FB0
:101350003F4F0093F5031093F6032093F703309368
:10136000F803E1FF50C0A091E903B091EA038F3F79
:10137000910509F058F44A9FB0014B9F700D5A9F98
:10138000700D1124CB01A0E0B0E005C09A010E94CD
:101390002331DC01CB0133E0880F991FAA1FBB1F4B
:1013A0003A95D1F70091F1031091F2032091F303E4
:1013B0003091F403800F911FA21FB31F8093F1039C
:1013C0009093F203A093F303B093F4038091FE0390
:1013D0009091FF0301979093FF038093FE03892B65
:1013E00009F08BC08E2F8D7FE2FF86C02091E7032E
:1013F0003091E8033093F4032093F3031092F20347
:101400001092F10379C0E2FF28C08091000490910E
:101410000104A0910204B09103040197A109B1094C
:101420008093000490930104A0930204B0930304FA
:10143000892B8A2B8B2B09F060C08E2F8B7FE3FDCD
:101440005BC0FD7FF093BA051092F1031092F20396
:101450001092F3031092F4034FC0E3FF4EC0A0912B
:10146000EB03B091EC038F3F910509F058F44A9FCC
:10147000B0014B9F700D5A9F700D1124CB01A0E05D
:10148000B0E005C09A010E942331DC01CB0123E0CA
:10149000880F991FAA1FBB1F2A95D1F70091F1034E
:1014A0001091F2032091F3033091F403B901A801E4
:1014B000481B590B6A0B7B0B4093F1035093F203CB
:1014C0006093F3037093F4038091040490910504F6
:1014D00001979093050480930404892B71F4E77FAE
:1014E000FD7FF093BA051092F1031092F20310926F
:1014F000F3031092F40301C0E82F809106048823BF
:1015000021F08150809306040CC0F1FE0AC0809146
:10151000BA058D7F8093BA058091E3028260809343
:10152000E302E093F9031092FD031092FC0382E0C2
:1015300008C0E901C01BD10BD093FB03C093FA0391
:1015400080E0D82A8D2D0E94DE2806C080ED97E02D
:101550009093C3028093C2028091C2029091C30211
:1015600090938900809388002091840030918500B9
:101570008091C2029091C3022817390728F00A9778
:101580009093850080938400FF91EF91DF91CF913C
:10159000BF91AF919F918F917F916F915F914F918B
:1015A0003F912F911F910F91FF90DF90CF90BF90AF
:1015B000AF909F908F907F906F905F904F900F9023
:1015C0000FBE0F901F901895CF92DF92EF92FF926F
:1015D0000F931F93CF93DF9300D000D0CDB7DEB72A
:1015E000082F10E021E030E06901082E01C0CC0C8A
:1015F0000A94EAF79091BA059C2109F05BC0411565
:1016000051056105710509F457C0F82EEC2CE094E2
:1016100049835A836B837C831416150616061706B6
:101620009CF40E9406298E210E94F7288C2D829519
:10163000807F80959091BA0589238093BA0549816E
:101640005A816B817C8118C00E9406298C290E94D6
:10165000F7288091BA059C2D9295907F892B8093D5
:10166000BA0549815A816B817C817095609550954E
:1016700041955F4F6F4F7F4F8F2D0E94540485E23D
:10168000809FF001819FF00D1124E354FC4F108ADC
:10169000178683819481928B818B80E484A38091CF
:1016A000E302E822E092E3028091BA058C2980935C
:1016B000BA0502C08FEF01C080E00F900F900F902D
:1016C0000F90DF91CF911F910F91FF90EF90DF90DE
:1016D000CF900895CF92DF92EF92FF920F931F93D6
:1016E000CF93DF93C82ED12C95E2899FE00111247E
:1016F000C354DC4F8D819E810B811C817C01E01ADB
:10170000F10A080F191F2F8138852115310539F18C
:10171000C701A0E0B0E0BC01CD01ECE0660F771F8F
:10172000881F991FEA95D1F740E050E00E940131EF
:10173000F4E05695479537952795FA95D1F7D80156
:101740000E9432316C5D7B408F4F9F4F28E438EE12
:1017500041E050E00E9401313C872B8702C01C868B
:101760001B8685E28C9DE0018D9DD00D1124C35414
:10177000DC4F29853A852115310539F1C701A0E0F3
:10178000B0E0BC01CD014CE0660F771F881F991FA8
:101790004A95D1F740E050E00E94013164E056954F
:1017A0004795379527956A95D1F7D8010E94323130
:1017B0006C5D7B408F4F9F4F28E438EE41E050E056
:1017C0000E9401313E872D8702C01E861D86DF9153
:1017D000CF911F910F91FF90EF90DF90CF900895E0
:1017E0008F929F92BF92CF92DF92EF92FF920F93D0
:1017F0001F93CF93DF931F92CDB7DEB7B82E8A0128
:101800008CE5F82EFCBC1DBC8B2D69830E94EE2854
:101810006981862F0E94B60480E00E94B60480E0B1
:101820000E94B60480E00E94B60480E00E94B604E4
:101830008B2D0E94E528FCBC1DBC8B2D0E94EE2840
:10184000EB2CF12C80E00E94B60497012C573B4F03
:101850004901F901808380E00E94B604C82ED12C92
:10186000E12CF12CFE2CED2CDC2CCC2480E00E9411
:10187000B604C82AFE2CED2CDC2CCC2480E00E947F
:10188000B604C82AFE2CED2CDC2CCC2480E00E946F
:10189000B604C82A8B2D0E94E5280115110529F0F0
:1018A000F801C082D182E282F382F40180810F903C
:1018B000DF91CF911F910F91FF90EF90DF90CF902C
:1018C000BF909F908F900895CF93DF9300D000D06A
:1018D000CDB7DEB719821A821B821C82AE014F5F20
:1018E0005F4F61E00E94F00B89810F900F900F9085
:1018F0000F90DF91CF910895AF92BF92CF92DF9278
:10190000EF92FF920F931F93CF93DF9300D000D0FD
:10191000CDB7DEB7F89419821A821B821C82AE0101
:101920004F5F5F4F60E080E00E94F00B19810A81F9
:10193000FB80EC8080E00E94640CEF92FF920F939A
:101940001F931F928F9302EB15E0F80183818F9311
:1019500082818F9381818F9380818F9384E8E82E99
:1019600084E0F82EF70180811F928F9382E191E04D
:101970009F938F930E94E30519821A821B821C8217
:10198000AE014F5F5F4F60E081E00E94F00BD980B5
:10199000CA80BB80AC8081E00E94640CAF92BF9291
:1019A000CF92DF921F928F93F80187818F93868168
:1019B0008F9385818F9384818F93F70181811F920B
:1019C0008F938EEE90E09F938F930E94E30578941F
:1019D0000FB6F894DEBF0FBECDBF80E00F900F9022
:1019E0000F900F90DF91CF911F910F91FF90EF908B
:1019F000DF90CF90BF90AF9008951F93CF93DF9368
:101A000000D000D01F92CDB7DEB7182F8CE58CBD6B
:101A10001DBC812F2D833C834B835A8369830E9495
:101A2000EE286981862F0E94B6045A81852F0E9474
:101A3000B6044B81842F0E94B6043C81832F0E9400
:101A4000B6042D81822F0E94B604812F0E94E528C2
:101A500080E00F900F900F900F900F90DF91CF913B
:101A60001F91089599E0899FF0011124E555FC4FDD
:101A70006683462F660F550B660B770B332722279D
:101A80006DEE0C94FD0CCF92DF92EF92FF921F93BC
:101A9000CF93DF93182F603218F0669520E001C0D5
:101AA00021E0822F90E0A0E0B0E06C017D0181E1B7
:101AB000CC0CDD1CEE1CFF1C8A95D1F789E0189F29
:101AC000E0011124C555DC4F88819981AA81BB8131
:101AD000AD7FA7019601282B392B4A2B5B2B28833E
:101AE00039834A835B836C836D836CEE812F0E9404
:101AF000FD0C2C812F71822F90E0A0E0B0E0AF6050
:101B00004D814F7150E0542F4427052E000C660B79
:101B1000770B9A01AB01282B392B4A2B5B2B60E901
:101B2000812FDF91CF911F91FF90EF90DF90CF90A9
:101B30000C94FD0C29E0829FC0011124FC01E555A5
:101B4000FC4F4081518162817381858161FF880FE3
:101B500008950E942305009719F0FC0180815BC065
:101B600080914D048539D1F1C8F4803181F160F460
:101B70008C3039F18F3041F1813009F04BC08091C8
:101B800046041092460447C0853829F18A38F1F19D
:101B9000813109F03FC080913E041BC08D3A41F174
:101BA00040F48939F9F08A3901F1863999F581E0F3
:101BB00016C0883C29F1893C29F18E3A59F58CB13F
:101BC0001BC00E94252927C00E94062924C080919D
:101BD000BA058F7020C080918E030EC080E00E94F5
:101BE0009A0D19C08091B10316C08091BA0313C039
:101BF0008091A90481700FC082FB882780F90BC0F7
:101C000080E001C081E00E94BE2605C080913604BC
:101C1000877001C080E00E94920680E00895FF92E4
:101C20000F931F93CF93DF9300D000D0CDB7DEB7D3
:101C3000F82E83ED90E0A3E0B4E189839A83AB832F
:101C4000BC8329E0F29E8001112405551C4FF80148
:101C500080839183A283B38380E18483858383E03F
:101C600086838CED95E09087878323ED30E043E019
:101C700054E16CEE8F2D0E94FD0CAE014F5F5F4F63
:101C80006CE68F2D0E94F00BF8014081518162813A
:101C9000738189819A81AB81BC81481759076A0792
:101CA0007B0771F520E030E0A90161E98F2D0E94EA
:101CB000FD0CF8012681822F220F990BAA0BBB0B7A
:101CC000DC01992788279C01AD0151606DEE8F2DB5
:101CD0000E94FD0CF8012781308540E050E064E966
:101CE0008F2D0E94FD0C20E831E340E050E060E8D9
:101CF0008F2D0E94FD0C8F2D0E94640C80E001C08E
:101D00008FEF0F900F900F900F90DF91CF911F9159
:101D10000F91FF9008951092A8041092A30480914F
:101D20008C0380FD04C01092A5041092A40481FDD0
:101D300004C01092A7041092A6040895F89498E0A5
:101D400088E10FB6F894A895809360000FBE909339
:101D5000600085EA9AE59093010980930009FFCF1E
:101D60001F920F920FB60F9211242F938F939F9370
:101D7000EF93FF932091CE008091F5029091F602AF
:101D8000E82FF0E0E850FD4F20838F5F2091F402B0
:101D9000821708F080E0891719F08093F50218C0C7
:101DA000F894ECEAF0E08BE18E0F9091C80095FF7B
:101DB000FCCF94919093CE009091C80096FFFCCFF9
:101DC00031968E13F2CF78941092F5021092F602AB
:101DD000FF91EF919F918F912F910F900FBE0F90D8
:101DE0001F9018951F920F920FB60F9211248F9388
:101DF0009F93AF93BF9386B58A5F86BD7894809199
:101E00002F0490913004A0913104B09132040196D6
:101E1000A11DB11D80932F0490933004A093310431
:101E2000B0933204BF91AF919F918F910F900FBEED
:101E30000F901F901895E0914B04F0914C04908105
:101E40002EEB290F253008F047C020914D04223E8B
:101E500061F1233EB1F0213ED9F5943461F018F4DC
:101E6000933439F004C0953441F0963441F085B193
:101E70002FC088B12DC08BB12BC08EB129C081B3CA
:101E800027C0943461F018F4933439F004C09534C9
:101E900041F0963441F083B11BC086B119C089B1BD
:101EA00017C08CB115C08FB113C0943461F018F411
:101EB000933439F004C0953441F0963441F084B144
:101EC00007C087B105C08AB103C08DB101C080B31E
:101ED0000E94920680E008958CEF08951F93CF939F
:101EE000DF93CDB7DEB761970FB6F894DEBF0FBEB4
:101EF000CDBF10914D04BE016F5E7F4F80914B04AA
:101F000090914C040E9451068093D30287FD1CC01F
:101F100029892830C0F4173A19F480E092E002C011
:101F200080E091E040E1BE016F5F7F4F30E1239F91
:101F3000800D911D11240E94F32ACE0101960E946A
:101F4000A10680E001C08CEF61960FB6F894DEBF69
:101F50000FBECDBFDF91CF911F9108951F93CF93F7
:101F6000DF931F92CDB7DEB7E0914B04F0914C04A4
:101F700010812EEB210F253008F057C0CF010196BC
:101F800090934C0480934B04BE016F5F7F4F0E947F
:101F900051068093D30287FD4BC080914D04823E51
:101FA00079F1833EC1F0813E09F041C0898114344A
:101FB00061F018F4133439F004C0153441F01634CC
:101FC00041F085B934C088B932C08BB930C08EB900
:101FD0002EC081BB2CC08981143461F018F41334F5
:101FE00039F004C0153441F0163441F083B91FC0F4
:101FF00086B91DC089B91BC08CB919C08FB917C06B
:102000008981143461F018F4133439F004C01534A4
:1020100041F0163441F084B90AC087B908C08AB9C2
:1020200006C08DB904C080BB02C08CEF01C080E047
:102030000F90DF91CF911F91089565E773E0809134
:102040004B0490914C040E9451068093D30287FD6B
:102050002AC020914B0430914C04A901480F511D16
:1020600087FD5A95CA0150934C0440934B0464E792
:1020700073E00E9451068093D30287FD14C08091C3
:10208000760390917703A0917803B09179039062E1
:102090008093760390937703A0937803B0937903AA
:1020A0000E944E2A80E00895CF93DF931F92CDB710
:1020B000DEB7BE016F5F7F4F80914B0490914C045F
:1020C0000E9451068093D30287FD10C0898182301F
:1020D00060F4882329F0EE9A81E08093830403C0A2
:1020E000EE981092830480E001C08CEF0F90DF9196
:1020F000CF910895CF93DF931F92CDB7DEB7BE0186
:102100006F5F7F4F80914B0490914C040E94510669
:102110008093D30287FD20C020914B0430914C0462
:10212000A901480F511D87FD5A9550934C044093C7
:102130004B048981813041F410924204109243048F
:10214000109244041092450444E062E474E086E195
:1021500090E00E94B82980E00F90DF91CF91089520
:10216000CF93DF9300D0CDB7DEB7BE016F5F7F4F57
:1021700080914B0490914C040E940B068093D302F3
:1021800087FD22C089819A819C012F5F3F4F2130BA
:102190003140C8F490930701809306018091760343
:1021A00090917703A0917803B09179039460809324
:1021B000760390937703A0937803B09379030E94FA
:1021C0004E2A80E001C08CEF0F900F90DF91CF91ED
:1021D0000895CF93DF9300D0CDB7DEB7BE016F5F18
:1021E0007F4F80914B0490914C040E940B0680938A
:1021F000D30287FD22C089819A819C012F5F3F4FC6
:1022000021343105C8F4909309018093080180912D
:10221000760390917703A0917803B091790392604F
:102220008093760390937703A0937803B093790318
:102230000E944E2A80E001C08CEF0F900F90DF913A
:10224000CF910895CF93DF93EC0180E090E20E945C
:10225000A314CE019695879596958795209188042D
:10226000309189043695279536952795821B930BD7
:10227000813891053CF020E031E0A901481B590B61
:10228000CA0105C080385FEF95070CF49395C82FFD
:10229000880FDD0BDF93CF938BE192E09F938F93B9
:1022A0000E94E3050F900F900F900F90CE01DF91E9
:1022B000CF910C943528CF93DF93CDB7DEB76097DD
:1022C0000FB6F894DEBF0FBECDBF8F3F19F48093D9
:1022D0000E0115C08830A8F480930E0120E182021F
:1022E000C001112440E1BE016F5F7F4F9E5F0E94DD
:1022F000F32ABE016F5F7F4F81E00E94332780E0A9
:1023000001C08CEF60960FB6F894DEBF0FBECDBF54
:10231000DF91CF910895CF93DF93CDB7DEB760976C
:102320000FB6F894DEBF0FBECDBF8F3F19F4809378
:102330000F0115C08830A8F480930F0120E18202BC
:10234000C001112440E1BE016F5F7F4F93950E9451
:10235000F32ABE016F5F7F4F80E00E94332780E049
:1023600001C08CEF60960FB6F894DEBF0FBECDBFF4
:10237000DF91CF910895CF92DF92EF92FF928091FB
:1023800039048823D9F08530A1F038F4833071F016
:10239000843009F039C285E00CC0873069F040F024
:1023A000883009F031C2109239042EC284E001C095
:1023B00087E08093390428C288E0FBCF8091010137
:1023C00018160CF056C1833009F468C02CF4813023
:1023D00051F0823079F14DC1843009F455C0853017
:1023E00009F43DC146C11092D9028091D003909169
:1023F000D103A091D203B091D3038093D5029093DF
:10240000D602A093D702B093D80280E00E948B112D
:102410000E94252981600E94102980913E048160DC
:1024200080933E0440E859EA63E070E080E00E9457
:10243000E40AA1C08091BA0580FD1BC18091E3022E
:1024400080FF2AC02FEF31EE84E0215030408040E1
:10245000E1F700C000008091D0039091D103A091DA
:10246000D203B091D3038093D5029093D602A09368
:10247000D702B093D80240E058EF6FEF7FEF80E0D3
:102480000E94E40A83E03DC08091BA0580FDF1C05E
:102490008091E30280FD38C08EEF33C08091BA0591
:1024A00080FDE7C08091E30280FDD7C08091D0031A
:1024B0009091D103A091D203B091D3038093D50220
:1024C0009093D602A093D702B093D80281E00E94E5
:1024D0008B118091D0039091D103A091D203B09140
:1024E000D3038093D5029093D602A093D702B093E2
:1024F000D80240E058E160E070E080E00E94E40A29
:1025000084E080930101B5C0C090D003D090D10386
:10251000E090D203F090D3038091D5029091D6023F
:10252000A091D702B091D802C81AD90AEA0AFB0AC8
:102530008091D902813009F18230C9F1811199C0AD
:10254000FF92EF92DF92CF9280EC91E09F938F9376
:102550000E94CD2F0F900F900F900F900F900F9023
:10256000809104019091050197FD02C082E001C0B5
:1025700081E08093D90282E0C4CFFF92EF92DF9294
:10258000CF9289EA91E09F938F930E94CD2FD092B2
:102590000501C092040182E08093D9028093010179
:1025A0000F900F900F900F900F900F9062C0FF92BE
:1025B000EF92DF92CF92809105018F938091040179
:1025C0008F9380E991E09F938F930E94CD2F80910C
:1025D000040190910501AC0140585109052E000CF1
:1025E000660B770B2DB73EB7285F3F4F0FB6F894B9
:1025F0003EBF0FBE2DBFC416D506E606F70638F15E
:1026000080589F4F092E000CAA0BBB0B8C159D0503
:10261000AE05BF05E0F080E00E948B118091D003F1
:102620009091D103A091D203B091D3038093D502AE
:102630009093D602A093D702B093D80240E05CEF0B
:102640006FEF7FEF80E00E94E40A85E05ACF8FEFC2
:102650009FEF90930501809304018DEF52CF8091FD
:10266000BA0580FD06C08091E30280FDF6CF10928E
:1026700001018091000118160CF05BC0843051F10B
:102680002CF4813041F08330C1F053C0853079F1B2
:102690008630E9F14EC00E94252982600E941029EF
:1026A00080E00E945B1181E090E00E94A314809181
:1026B0008A0387FF0DC083E03AC08091BA0581FD8F
:1026C00038C040E05EEC6FEF7FEF81E00E94E40AEB
:1026D00084E02DC08091BA0581FD2BC040E052E01E
:1026E00060E070E081E00E94E40A85E020C0809113
:1026F000BA0581FD1EC081E00E945B1140E05CEFE5
:102700006FEF7FEF81E00E94E40A86E010C08091C5
:10271000BA0581FD0EC081E090E00E94A314809173
:102720008A0387FD03C01092000103C08EEF8093DF
:102730000001F894F0909204109292047894FF2093
:1027400009F462C0F0FE10C080919B0490919C043B
:1027500067ED71E096958795969587950E94A32BD6
:102760009093DB028093DA02F1FE0AC080919D040F
:1027700090919E040E948C299093DD028093DC024C
:10278000F2FE0AC080919F049091A0040E948C29BF
:102790009093DF028093DE02F3FE0AC08091A104D1
:1027A0009091A2040E948C299093E1028093E00210
:1027B000F4FE0AC080919304909194040E9494299D
:1027C0009093110180931001F5FE0AC08091950449
:1027D000909196040E949429909313018093120182
:1027E000F6FE0AC080919704909198040E94942963
:1027F0009093150180931401F7FE06C080EC9DE5CF
:102800009093170180931601FF90EF90DF90CF9087
:102810000895CF93C82F8E3038F425E0829FC001F1
:102820001124865B9E4F02C086E391E09F938F93B5
:102830001F92CF938BE391E09F938F930E94E305C8
:10284000C093D4020F900F900F900F900F900F90A5
:10285000C130C1F40FB6F894A895809160008861EA
:1028600080936000109260000FBEF89481E00E9497
:1028700086070E94E4068FE09EE00197F1F700C012
:102880000000F7CFC93038F48FEF80934E048C2FBF
:10289000CF910C948607CF910895BF92CF92DF928B
:1028A000EF92FF920F931F93CF93DF9300D000D04E
:1028B000CDB7DEB7B82E11E001C0110F8A95EAF747
:1028C000F89400E1C12CD12C7601812F0E94DE28E2
:1028D0008BE99FE00197F1F700C00000812F0E9473
:1028E000DE2819821A821B821C82AE014F5F5F4F65
:1028F00062E18B2D0E94F00B49815A816B817C81B2
:102900006F707727C40ED51EE61EF71E8BE99FE079
:102910000197F1F700C000000150B9F67894C601A4
:1029200024E0969587952A95E1F70F900F900F90E8
:102930000F90DF91CF911F910F91FF90EF90DF905B
:10294000CF90BF900895F8942091F2023091F30255
:10295000282B392B3093F3022093F20278942091A4
:10296000F2023091F30228233923232BC1F7089573
:10297000F8942091F2023091F302822B932B9093E2
:10298000F3028093F20278940895CF93DF93CDB74A
:10299000DEB761970FB6F894DEBF0FBECDBF84B728
:1029A0008093460414BE8091460483FF11C0809139
:1029B000000990910109853A9A4551F480914604A5
:1029C000877F809346048091460480688093460404
:1029D0008AE595EA90930109809300099FB7F894DE
:1029E000A89584B7877F84BF18E110936000109288
:1029F00060009FBF8FE00FB6F894A8951093600019
:102A00000FBE809360001092D7001092D80095E11D
:102A10009093C5008093C60080E880936100109277
:102A20006100789481E00E94682B8091C8008260E8
:102A30008093C80080E18093CC001093C9008091FE
:102A4000C90080688093C9008CE78093F4021092DB
:102A5000F5021092F60284EE92E025ED34E0309318
:102A6000ED022093EC022CEB34E03093EF02209344
:102A7000EE0223E02093E7021092F1021092F0029E
:102A80005A9A9093E0058093DF059093E205809336
:102A9000E1059093530480935204909350048093E3
:102AA0004F04909348048093470481E492E09F93FD
:102AB0008F930E94CD2F809146041F928F9383E3C2
:102AC00092E09F938F930E94E30580917100817F34
:102AD00080937100109290008AE080939100109290
:102AE00099001092980010929B0010929A001092F8
:102AF0009D0010929C0010929500109294003E9AB6
:102B000046980F900F900F900F900F900F9080911C
:102B10007A038F3F09F44BC044E062E474E086E13D
:102B200090E00E94F32A8091420490914304A09186
:102B30004404B09145048F3F9F4FAF4FBF4F79F48E
:102B400010924204109243041092440410924504DF
:102B500044E062E474E086E190E00E94B82900E07D
:102B600011E040E1BE016F5F7F4FC8010E94F32A70
:102B700089819A8181329E44D0F48B819C818132FB
:102B80009E44A8F48D819E810C978D34924078F4F8
:102B90008F8198850C978D34924048F489858034D4
:102BA00030F48B859C858938934108F425C38FEFD9
:102BB0009FEF909309018093080190930701809300
:102BC00006018FEF9FEFDC018093760390937703EC
:102BD000A0937803B09379030E944E2AECE3F8E6C1
:102BE000459155916591749180E090E0DC01E0E0C1
:102BF000F0E028E6EC33F20751F09F012F5F3F4FE2
:102C0000E4918E0F911DA11DB11DF901F2CF48175E
:102C100059076A077B0709F048C080E090E0DC01B3
:102C2000E0E0F0E79F012F5F3F4FE4918E0F911D91
:102C3000A11DB11DF901203F3F47A1F786369D49EF
:102C4000A740B10509F070C3AAE7B3E0E0EFFFE7E2
:102C500084918D933196E11580E8F807C9F7EAE78A
:102C6000F3E0CF01805F91919F3F19F490937A0335
:102C700002C08E13F8CF89E0E0E0F0E080935700C7
:102C8000E491EE3509F052C3E3E0F0E080935700A1
:102C9000E491E83D09F04AC3E2E0F0E08093570098
:102CA000E491E83C09F042C3DBC281E00E940914D0
:102CB00084B1817F84B984B1876084B985B1817F13
:102CC00085B9289A80E58CBD1DBC8AB182618AB91C
:102CD0008BB182618BB9AFE3BCE91197F1F700C00A
:102CE0000000249A2C9A2C982C9A60E880E00E948C
:102CF000872B60EE81E00E94872B6AEC82E10E94C4
:102D0000872B60EE83E10E94872B80E00E94752B69
:102D1000803809F0B0C281E00E94752B803E09F036
:102D2000AAC282E10E94752B80938A0383E10E94EC
:102D3000752B80938B0390E0809146048E7F81F405
:102D400080918B0387FF0CC08BE292E09F938F935F
:102D50000E94E30580E00E94682B0F900F90FFCF48
:102D60009F3F19F486E00E94091410928D0310927F
:102D70008C0380917A00876080937A0080917C0038
:102D8000806480937C0080917A00806880937A00D0
:102D900013E010937E000E948B0E279A209A559A7A
:102DA000509A2F9A289A5D9A589A81E080938E03C0
:102DB000809338048AEF80933F0484E190E09093FD
:102DC000A5038093A40388E08093360424E1209334
:102DD00095038CE390E09093900380938F0320936E
:102DE0009C0390939703809396032093A30390935F
:102DF0009E0380939D03259A269A2D982E98569887
:102E00005798519A549A599A5C9A80E00E940F0EF2
:102E1000082F001F0027001F81E00E940F0E87FD72
:102E200002C0002321F087E00E940914D0C08091E5
:102E3000AB039091AC03A091AD03B091AE03B07F12
:102E40009C01AD0154602093AB033093AC034093DD
:102E5000AD035093AE036CEE80E00E94FD0C8091B8
:102E6000B4039091B503A091B603B091B703B07FBE
:102E70009C01AD0152602093B4033093B50340939D
:102E8000B6035093B7036CEE81E00E94FD0C68E13D
:102E900080E00E94430D66E080E00E94320D68E110
:102EA00081E00E94430D68E081E00E94320DBFEF97
:102EB00020E742E0B15020404040E1F700C0000070
:102EC00005E2EDEBF3E0DF01202F1D922A95E9F7F3
:102ED00088E58093BD0380E293E09093BF038093E5
:102EE000BE0380E8E82E8CE0F82EF092C103E09259
:102EF000C00380EC94E49093C3038093C2038AEFF1
:102F000090E09093C5038093C4039093C70380938C
:102F1000C60380E00E946A0BE2EEF3E0DF011D923F
:102F20000A95E9F789E58093E203F092E403E092E1
:102F3000E30380EC93E09093E6038093E50380E065
:102F400095E09093E8038093E7038CE090E0909302
:102F5000EA038093E9039093EC038093EB0381E011
:102F60000E946A0B809181008F7E80938100809106
:102F70008100886080938100809180008D7F8093A4
:102F80008000809180008E7F8093800080918000FF
:102F90008F7380938000809180008F7C809380006D
:102FA00080918100887F82608093810080E092E040
:102FB000909389008093880010928500109284007D
:102FC00080916F00826080936F0010933E0480B305
:102FD0008F7880BB81B3806781BB879A80910B011A
:102FE000877E80930B0188E090E00E94B8141092D5
:102FF0002C0460E070E08CED93E40E94550782E3BE
:1030000090E090932E0480932D0410922F04109240
:103010003004109231041092320483E084BD85BDE7
:103020009DE797BD96E096BD80936E0080916A0003
:103030008F7C80936A0080916A00806280936A002E
:1030400080914E0481110DC00E943429882321F003
:1030500088E00E94091405C081E00E943429811192
:10306000F7CF80914E0481110DC00E944D149093B2
:103070003B0480933A0481E00E944D1490933D04F8
:1030800080933C0480914E0481110CC012E0109397
:1030900038040E946F2B88E080930C0110934E043B
:1030A000109239040EE115E0A895809149049091A1
:1030B0004A04892B39F48DB79EB790934A048093C4
:1030C00049040BC02091490430914A048DB79EB742
:1030D0002817390711F00E949E0E80917E0490916E
:1030E0007F048A97CCF08FEF22C08D30F1F08A30C8
:1030F000E1F020917E0430917F04F901EC5AFB4FFE
:1031000080838823A1F02F5F3F4F30937F0420936B
:103110007E042A3231055CF480915204909153046C
:103120000E94572F87FFE1CF02C080E0E2CF2091BD
:103130007E0430917F042A3231052CF03F932F9387
:103140001F930F934CC0121613060CF052C081113E
:1031500050C080915104882381F060914F04709198
:10316000500484E594E00E94113360914F04709103
:1031700050048AE090E00E94952F3091540431323F
:1031800019F03F3309F0CEC0E0915504E11175C04C
:1031900080E00E2E000CFF0BEB5AFB4F908191113B
:1031A0009DC090914E049F3F09F48CC080934D04C4
:1031B000313209F08DC04DE06DEA73E00E94A50543
:1031C000482F552741950CF450959A01882309F40E
:1031D000A6C085E195E03F932F939F938F930E9424
:1031E000F70510927F0410927E040F900F900F90BD
:1031F0000F900E94BB1158CF005F1F4F003851E065
:10320000150709F0AECC80E093E00E949D309093CA
:1032100009018093080180E193E00E949D30909322
:1032200007018093060182E093E00E949D30909315
:1032300005018093040182E193E00E949D30909308
:1032400003018093020184E193E00E949530809312
:10325000750385E193E00E94953080937403BECCA2
:10326000E1E0F0E08093570084918F738F3209F48E
:103270001FCD85E01BCD9FEF5FCD809158048F7DE2
:1032800079F42DE043E069E773E085E594E0398B5C
:103290000E94BD0539898F3F09F444C0E3E079CF2E
:1032A000809159048F7DF1F52DE344E068E472E0EC
:1032B00085E594E0398B0E94BD0539898F3F91F1F6
:1032C000E4E067CF823008F471CF813431F56ECFFE
:1032D0003F3341F545E364ED73E070CF903211F573
:1032E00090914E049F3FC9F0803E20F090914E0493
:1032F000943099F480934D043196F0934C04E0930C
:103300004B04313221F441E363E774E057CF3F339C
:1033100049F445E066E075E051CF8BEF51CF8AE18B
:1033200095E059CF8DEF4CCF82E0C0CC84E0BECC8D
:10333000CF92DF92EF92FF921F93CF93DF9300D053
:10334000CDB7DEB71A82198285E9E82E83E0F82E20
:1033500010E090E3C92E95E7D92EBE016F5F7F4F35
:1033600080914B0490914C040E942E068093D302CE
:1033700087FD37C069817A81113039F0123051F000
:10338000693B9BE0790750F02BC06936E0E17E078E
:1033900028F026C06938F3E17F0710F5643F91E01B
:1033A0007907F0F020914B0430914C04280F311D27
:1033B00087FD3A9530934C0420934B04C6010E943C
:1033C000D930F7016083809136040E94152B1F5F6E
:1033D000F7E0EF0EF11C133009F0BFCF80E001C021
:1033E0008CEF0F900F90DF91CF911F91FF90EF9096
:1033F000DF90CF900895DF92EF92FF920F931F938B
:10340000CF93DF93CDB7DEB762970FB6F894DEBFE8
:103410000FBECDBFD0904D04E0904B04F0904C0413
:10342000BE016F5F7F4FC7010E942E0687FD9DC0C2
:103430008701080F111D87FD1A95F80190819923C6
:1034400041F0BE016D5F7F4FC8010E942E0687FDCF
:103450008CC0080F111D87FD1A95F80190819923E2
:1034600041F0BE016B5F7F4FC8010E942E0687FDB1
:103470007CC0080F111D87FD1A95F80190819923D2
:1034800041F0BE01695F7F4FC8010E942E0687FD93
:103490006CC0080F111D87FD1A95F80190819923C2
:1034A00041F0BE01675F7F4FC8010E94510687FD52
:1034B0005CC0080F111D87FD1A95F80190819923B2
:1034C000E1F0CE0141969F938F9307979F938F933F
:1034D00083EB95E09F938F931F930F930E94F32F9D
:1034E0000FB6F894DEBF0FBECDBF019721F48989D6
:1034F00087FF03C03AC08DEF38C0080F111D87FD4C
:103500001A95F8018081811105C0802F8E1987FFDF
:103510000AC02BC0BE01655F7F4FC8010E942E0606
:1035200087FFF3CF22C011E0F7EADF1210E0BE01FF
:103530006F5F7F4F812F0E94332780917603909198
:103540007703A0917803B0917903111102C08062D2
:1035500001C080648093760390937703A0937803EF
:10356000B09379030E944E2A80E062960FB6F894D9
:10357000DEBF0FBECDBFDF91CF911F910F91FF90A6
:10358000EF90DF900895CF93DF9300D01F92CDB7D7
:10359000DEB7BE016D5F7F4F80914B0490914C046C
:1035A0000E9451068093D30287FD2FC020914B04C7
:1035B00030914C04A901480F511D87FD5A95CA014D
:1035C00050934C0440934B041A821982FA012081D3
:1035D00021110DC089819A81909341048093400408
:1035E0009B8180918E03992361F082600BC0BE01A4
:1035F0006F5F7F4F0E942E068093D30287FFEACF32
:1036000004C08D7F0E944E2B80E00F900F900F9092
:10361000DF91CF9108950F931F93CF93DF9300D045
:1036200000D0CDB7DEB7BE016D5F7F4F80914B04F8
:1036300090914C040E942E068093D30287FD31C0E6
:1036400020914B0430914C04A901480F511D87FD76
:103650005A95CA0150934C0440934B04BE016F5FCE
:103660007F4F0E942E068093D30287FD1AC06B8184
:103670007C81CB0140978937934190F409811A816D
:10368000013187E2180760F480E090E00E94503238
:103690000E94550710932E0400932D0480E001C072
:1036A0008CEF0F900F900F900F90DF91CF911F91A3
:1036B0000F910895CF92DF92EF92FF92CF93DF9315
:1036C00000D000D000D0CDB7DEB7CE0105969F93D5
:1036D0008F9304979F938F938DEA95E09F938F9399
:1036E00080914C048F9380914B048F930E94F32F11
:1036F0000FB6F894DEBF0FBECDBF019711F48D81D8
:1037000001C08DEF8093D30287FD54C080914D049A
:10371000843A11F18F3A69F1823A09F046C0C980C2
:10372000DA80EB80FC800E94252981600E941029AC
:103730008091D0039091D103A091D203B091D30393
:10374000B701A601481B590B6A0B7B0B80E00E9456
:10375000E40A87FD2CC027C089819A81AB81BC8196
:103760008093D0039093D103A093D203B093D3035B
:103770001AC049815A816B817C81413C34ED5307E9
:1037800031E063077105ACF48091A90482608093F5
:10379000A90470956095509541955F4F6F4F7F4F8D
:1037A00080E00E94E40A80E005C08AEF03C08EEF4B
:1037B00001C08CEF26960FB6F894DEBF0FBECDBFCA
:1037C000DF91CF91FF90EF90DF90CF9008950F930E
:1037D0001F93CF93DF9300D0CDB7DEB7BE016F5FED
:1037E0007F4F80914B0490914C040E940B06809374
:1037F000D30287FD36C080914D04833A89F0853A23
:1038000069F589819A81092E000CAA0BBB0B809364
:10381000F5039093F603A093F703B093F8031CC04D
:1038200009811A810E94252982600E941029A8011D
:10383000110F660B770B8091F5039091F603A09121
:10384000F703B091F803481B590B6A0B7B0B81E01F
:103850000E94E40A87FD04C080E003C08AEF01C033
:103860008EEF0F900F90DF91CF911F910F910895E0
:103870000F931F93CF93DF9300D0CDB7DEB7BE0178
:103880006F5F7F4F80914B0490914C040E942E06F5
:103890008093D30287FD84C080914D048C3BA9F1B5
:1038A00088F48E38E1F08F3809F077C049815A8169
:1038B00060E070E070956095509541955F4F6F4F57
:1038C0007F4F11C08D3B09F45FC08E3B09F065C08E
:1038D00089819A819093BD058093BC050BC0498175
:1038E0005A8160E070E080E00E94E40A87FF0BC02C
:1038F0008EEF56C08091BC059091BD05892B19F0C3
:103900000E94BB11F7CF80E04BC009811A810115DD
:1039100024E0120708F043C080E090E10E94A31465
:10392000C80124E0969587952A95E1F720918604B1
:103930003091870444E0369527954A95E1F7821B3C
:10394000930B813291053CF020E430E0A901481B43
:10395000590BCA0106C0803E5FEF950714F4805CE6
:103960009F4F082F880F110B1F930F938DE995E040
:103970009F938F930E94E305C8010E9477280F90C0
:103980000F900F900F900CC089819A81811524E0CF
:10399000920728F40E94221103C08AEF01C08CEF25
:1039A0000F900F90DF91CF911F910F910895CF93BA
:1039B000DF9300D01F92CDB7DEB7CE0101969F9363
:1039C0008F9302969F938F9383EB95E09F938F93B2
:1039D00080914C048F9380914B048F930E94F32F1E
:1039E0000FB6F894DEBF0FBECDBF019711F48981E9
:1039F00001C08DEF8093D30287FD35C080914D04C7
:103A0000883AF1F050F4893991F08A3959F58B816F
:103A100080938F0480E092E00FC0823CA9F0833C49
:103A2000D1F0893AF9F48B810E945B111CC08B8123
:103A300080938E0480E290E00E94A31480E013C083
:103A40008B810E948B110FC08B81082E000C990B6B
:103A50000E94772808C08B81082E000C990B0E94C9
:103A6000352801C08AEF0F900F900F90DF91CF9112
:103A700008951F93CF93DF931F92CDB7DEB7BE019A
:103A80006F5F7F4F80914B0490914C040E945106D0
:103A90008093D30287FD17C180914D04853809F4C6
:103AA000A5C0D8F4803109F44FC040F48D30C9F17D
:103AB0008F30C9F18C3009F0EFC02CC0813409F48B
:103AC00059C020F4813109F44AC0E6C0823809F4B3
:103AD0007CC0833809F470C0DFC08A3A09F494C00E
:103AE00050F4853909F454C0863909F45AC08A382B
:103AF00009F0D2C046C0813B09F48DC020F48D3A54
:103B000009F4A6C0C9C0883B09F48CC0843C09F400
:103B1000BDC0C2C08981843008F0D2C00E94102983
:103B2000CDC089816EC08981843008F0C9C090E120
:103B3000899F900111249091BA059F70292B2093A1
:103B4000BA050E94F728BAC08981843008F0B8C04D
:103B50009091BA05907F892B8093BA05AFC0898177
:103B6000843008F0ADC090913E04907F892B809303
:103B70003E04A4C08981893008F0A2C00E940914C3
:103B80009DC08981803108F09BC00E94152B96C092
:103B90008981803408F094C08093900480E190E0A3
:103BA00008C08981803408F08BC08093910480E044
:103BB00091E00E94A31482C01981111103C080E01A
:103BC0000E94682B1093C00579C08981843008F069
:103BD00077C080933804882319F00E946F2B6EC041
:103BE00080913604877F8093360468C09981923033
:103BF00008F066C080918E03992311F0846001C0A3
:103C00008B7F0E944E2B5AC08981823008F058C0A9
:103C10008093510453C08981853108F051C080934D
:103C20000D014CC089818B3F08F04AC080933F044E
:103C3000882321F08A3F31F4589A01C0589884B5FE
:103C40008F7C04C08A5F88BD84B5806284BD36C025
:103C500099819230A8F580910B01992369F08460D5
:103C600080930B0188E090E00E94A3148091A90446
:103C700081608093A90422C08B7F80930B0188E030
:103C800090E00E94A3141092A90418C08981803189
:103C9000B8F48093DD0512C0813B51F0893B29F0D7
:103CA000823481F4E2E8F4E005C0ECE0F1E002C027
:103CB000EDE0F1E0309731F08981808380E003C04E
:103CC0008CEF01C08AEF0F90DF91CF911F91089583
:103CD000809175030E949206809174030E9492065F
:103CE00080E0089580918E03869581700E949206EF
:103CF0008091400490914104009711F00E94830646
:103D000080E00895EF92FF920F931F93CF93DF937C
:103D100003EC15E0C0E0D0E080E3E82E85E7F82E64
:103D2000F801628173816115710581F0209136047B
:103D300030E00C2E02C0359527950A94E2F720FF5B
:103D400005C0C7010E94D930CB0102C080E090E0DD
:103D50000E9483062196085F1F4FC330D10501F7EB
:103D600080E0DF91CF911F910F91FF90EF90089528
:103D70008FEF93E00E94953090E001972AE0AC012C
:103D8000249FC001259F900D11240E94830680E08E
:103D900008950F931F93CF93DF938091AE04E0912A
:103DA000AF05E81B8A3010F4982F01C09AE0891BF8
:103DB0008093AE04C92FCE0F05E915E0EC1791F002
:103DC000D1E0DE0FF0E0E155FB4F80811F928F9331
:103DD0001F930F930E94F7050F900F900F900F9075
:103DE000ED2FECCF80E0DF91CF911F910F910895DF
:103DF000EDEBF3E086898F9385898F9384898F9388
:103E000083898F9380E995E09F938F930E94F705B4
:103E10000F900F900F900F900F900F9080E00895EB
:103E200080E495E09F938F9381E08F938AEA8F934C
:103E30001F928BE08F931F9289E08F931F921F92A6
:103E400082E495E09F938F930E94F7058DB79EB70C
:103E50000C960FB6F8949EBF0FBE8DBF80E00895FC
:103E6000EFE3F4E086818F9385818F9384818F9334
:103E700083818F938BE395E09F938F930E94F70547
:103E80000F900F900F900F900F900F9080E008957B
:103E9000CF93DF93CDB7DEB760970FB6F894DEBF50
:103EA0000FBECDBF81E090914D04973A09F080E0BC
:103EB000BE016F5F7F4F0E94A127CE0101960E9435
:103EC000A10680E060960FB6F894DEBF0FBECDBFAE
:103ED000DF91CF9108958091F5039091F6030E94B0
:103EE000740680E00895EAE7F3E0808120E1829F94
:103EF000C0011124992721812F70822B9F938F93CA
:103F00001F9285E08F9389E895E09F938F930E949D
:103F1000CD2F0F900F900F900F900F900F9080E08B
:103F20000895CF92DF92FF920F931F93CF93DF9369
:103F3000CDB7DEB760970FB6F894DEBF0FBECDBF2A
:103F400024E735E08E010F5F1F4FD80141E290E179
:103F5000F92EF00EF9018491E82FF0E0409357001C
:103F600084918D932F5F3F4FFA12F4CF84E8C82ECF
:103F700085E0D82EF80181918F01282F082E000CA2
:103F8000330B3F938F93DF92CF920E94CD2F0F90F0
:103F90000F900F900F90F012EDCF80E060960FB66B
:103FA000F894DEBF0FBECDBFDF91CF911F910F916F
:103FB000FF90DF90CF900895AF92BF92DF92EF9283
:103FC000FF920F931F93CF93DF93CDB7DEB7609728
:103FD0000FB6F894DEBF0FBECDBF80917A038F3F3E
:103FE00049F480E795E09F938F930E94CD2F0F9027
:103FF0000F903FC08E010F5F1F4F80E1F8011192BB
:104000008A95E9F744E050E06DE773E0C8010E944B
:1040100002337E01F6E0EF0EF11C43E050E061E870
:1040200073E0C7010E940233D0908403DA865E01F8
:104030008BE0A80EB11C45E050E065E873E0C501D7
:104040000E940233BF92AF928D2D0D2C000C990B64
:104050009F93DF92FF92EF921F930F938DE595E070
:104060009F938F930E94CD2F0FB6F894DEBF0FBEA3
:10407000CDBF80E060960FB6F894DEBF0FBECDBF17
:10408000DF91CF911F910F91FF90EF90DF90BF9044
:10409000AF90089510928104109280048091800462
:1040A000909181042091BA052370822B9093810412
:1040B0008093800480914E048F3F21F085E090E052
:1040C0000E94A31420918B0327FD09C080918004D6
:1040D000909181048064909381048093800425FDF5
:1040E00009C080918004909181048068909381043C
:1040F0008093800480918A0387FD09C080918004A9
:1041000090918104916090938104809380048091C8
:104110004604882349F08091800490918104906244
:10412000909381048093800480914E04823049F4FE
:1041300081E0809338040E946F2B83E080934E04CB
:104140000DC080914E048F3F49F48091800490917E
:1041500081049068909381048093800485E080932B
:10416000BF058091DC05882349F0809180049091FF
:1041700081049064909381048093800480918004F2
:10418000909181040E94830680E008950F931F930D
:10419000CF93DF930E942305009759F0EC018C0127
:1041A000085F1F4F899199910E948306C017D1071C
:1041B000C9F780E0DF91CF911F910F9108950F9380
:1041C0001F93CF93DF930E942305009759F0EC01D2
:1041D0008C01085F1F4F899199910E947406C01746
:1041E000D107C9F780E0DF91CF911F910F9108951A
:1041F0000E942305009721F0FC01808191811AC063
:1042000080914D048C3B59F08D3B91F480E090E21D
:104210000E94A31480918804909189040BC080E0CF
:1042200090E10E94A314809186049091870402C0BB
:1042300080E090E00E94830680E008950E942305BC
:10424000009721F0FC018081918102C080E090E024
:104250000E94740680E008950E942305009719F0DB
:10426000FC01808101C080E0282F082E000C330B58
:104270003F938F9387E395E09F938F930E94F70579
:104280000F900F900F900F9080E008951F920F9263
:104290000FB60F9211246F927F929F92AF92BF92AE
:1042A000CF92DF92EF92FF920F931F932F933F9342
:1042B0004F935F936F937F938F939F93AF93BF932E
:1042C000EF93FF93CF93DF9300D000D0CDB7DEB74D
:1042D0008091C1059091C2059C012F5F3F4F3093A3
:1042E000C2052093C105883E934008F408C110928E
:1042F000C2051092C10578948091C005882339F0D9
:1043000081508093C005811102C00E94682B80916A
:104310004E048330A9F48091BF05882389F08091F1
:10432000BF0581508093BF0581110AC012E0109330
:1043300038040E946F2B88E080930C0110934E0488
:1043400080918B0387FD17C08091BE058F5F80939E
:10435000BE05863090F060E070E08CE593E40E944A
:10436000550784E690E090932E0480932D0480E01E
:104370000E94682B02C01092BE0584E090E00E946B
:10438000B81480918E0381FF13C0809142049091F4
:104390004304A0914404B09145040196A11DB11DB0
:1043A0008093420490934304A0934404B093450443
:1043B0008091DB0581119FC0C0903604D12C4091C3
:1043C000DC0523EC35E0EFE8F3E095E9E92E93E036
:1043D000F92E00E010E0AA24A394B12C902EC6017F
:1043E000002E02C0959587950A94E2F780FF74C06D
:1043F000D9016D917C9111976115710509F444C043
:10440000842F90E080959095002E02C09595879519
:104410000A94E2F780FF38C014968D919C9115970D
:10442000880F991F0E94D930D90112968D919C91C5
:104430001397680F791F7695679513967C936E9303
:104440001297D7018C9190E06817790748F4861B82
:10445000970B880F991F60817181860F971F09C084
:104460008617970740F4A081B1818A0F9B1F861B96
:10447000970B91838083D90111961C921E921596F9
:104480001C921E92149709C080819181BC0176957F
:104490006795861B970B91838083D7018C9190E061
:1044A000608171816817790748F491838083C50121
:1044B000092C01C0880F0A94EAF7482B842F90E05A
:1044C00002C0959587959A94E2F780FF05C0D901BF
:1044D00013961C921E9212970F5F1F4F285F3F4F3B
:1044E0003796B7E0EB0EF11C0330110509F076CFDB
:1044F0004093DC0505C081508093DB0501C07894B2
:1045000080910009909101098A35954A11F00E9425
:104510009E0E80914E048F3F19F40E94E4060CC455
:1045200080914004909141040097A9F001979093E5
:10453000410480934004892B71F480918E038D7F18
:1045400080938E0380910B018E7F80930B0188E016
:1045500090E00E94B8148091BC059091BD05892B14
:1045600049F08091BC059091BD0501979093BD05E0
:104570008093BC0580912D0490912E04009749F002
:10458000019790932E0480932D04892B11F410929F
:1045900090008091BB0581110DC08091F202909135
:1045A000F302816898609093F3028093F2028BE0AB
:1045B0008093BB051091BA05812F837009F4C0C0A8
:1045C0008091BB05823009F041C00E94252980FFFF
:1045D0001CC04091B2055091B3056091B405709133
:1045E000B505442755276627707E9091B105411582
:1045F00051056105704621F4943138F49F5F03C082
:10460000992319F091509093B10581FF9BC040917F
:10461000B6055091B7056091B8057091B90544276A
:1046200055276627707E8091B005411551056105BB
:10463000704629F4843108F085C08F5F04C0882358
:1046400009F480C081508093B0057CC0813009F0AE
:1046500079C08091B2059091B30593709A83898354
:10466000E090B605F090B70523E0F222FC82EB82E1
:10467000E091AF0521E02E0F2093AF05F0E0E1556A
:10468000FB4F11FB662460F8712C660C771CDE0171
:10469000A60DB71D11962D913C9112973695279531
:1046A0003695279520832091AE042F3F19F02F5F78
:1046B0002093AE04212F21712130D1F430910F01CC
:1046C000311116C08097A0F48091D9039091DA033C
:1046D000892B71F42093AD0460E070E08AE794E4E4
:1046E0000E94550784EF91E090932E0480932D044F
:1046F0001272123239F580910E01811119C080E2D7
:10470000E816F104A8F48091FE039091FF03892B31
:1047100079F482E08093AD0460E070E08AE794E48D
:104720000E94550784EF91E090932E0480932D040E
:1047300080918A0387FD06C082E08093AD0402C0A9
:104740001092AD048091BB0581508093BB059FB151
:1047500092959F704091DE0549278091350448234A
:104760009093DE0590913704209133043091340406
:10477000E3ECF5E0A0E0B0E050E001E010E0692FEC
:1047800070E00A2E02C0759567950A94E2F760FF03
:104790000BC0B8010A2E01C0660F0A94EAF76095B3
:1047A0009623178216821EC0BA010A2E02C0759582
:1047B00067950A94E2F760FF15C0E680F780E11480
:1047C000F10471F064817581620F731F6E197F09A6
:1047D00075836483608171816F5F7F4F71836083B4
:1047E0003783268311963896A330B10541F690930E
:1047F00037044091A6035091A70342175307C9F508
:10480000909138044091AB045091AC04923029F05F
:104810009330A9F09130E1F416C0BA01E4E0769546
:104820006795EA95E1F7413491E0590728F098E25D
:10483000961B9093AA030CC06093AA0309C041344D
:10484000A1E05A0718F090910D01F3CF1092AA033E
:1048500090910C01490F511D4138B2E05B0728F4DB
:104860005093AC044093AB0404C01092AC0410927B
:10487000AB046091360470E090913704EFE8F3E008
:1048800040E050E0A1E0B0E0F42E8B01042E02C025
:10489000159507950A94E2F700FF24C00281138161
:1048A00002171307A1F48D01042E01C0000F0A9412
:1048B000EAF7802B902B00811181020F131F1383C5
:1048C000028316816901C10ED11CD582C482048184
:1048D00015810217130771F48D0101C0000FFA94BE
:1048E000EAF706C08D01042E01C0000F0A94EAF712
:1048F000009580234F5F5F4F37964430510521F676
:10490000809335049093370482FF02C08F9801C0D2
:104910008F9A8091350483FF02C02F9A01C02F988F
:1049200020E1829FC001112490910A019F78892B78
:1049300080930A0182E090E00E94B81480913304D1
:1049400090913404019690933404809333048091C1
:10495000F2029091F302892B09F444C18091F20292
:104960009091F30281FF0EC060910A0182E10E94E2
:10497000872B8091F2029091F3028D7F9093F30246
:104980008093F2028091F2029091F30283FF0BC0B8
:1049900060910B0183E10E94872B8091F20290913C
:1049A000F302877F1BC18091F2029091F30280FF96
:1049B0000BC082E10E94752B80938A038091F202E2
:1049C0009091F3028E7F0AC18091F2029091F302DE
:1049D00082FF0BC083E10E94752B80938B03809133
:1049E000F2029091F3028B7FF9C08091F2029091D4
:1049F000F30284FF0BC06091900480E00E94430D9D
:104A00008091F2029091F3028F7EE8C08091F202D1
:104A10009091F30285FF0BC060918E0480E00E94AC
:104A2000320D8091F2029091F3028F7DD7C0809178
:104A3000F2029091F30286FF14C020918A04309113
:104A40008B043093B3032093B20340E050E064E959
:104A500080E00E94FD0C8091F2029091F3028F7B26
:104A6000BDC08091F2029091F30287FF1DC01982B0
:104A70001A821B821C82AE014F5F5F4F6FE680E09F
:104A80000E94F00B89819A81AB81BC818093B20531
:104A90009093B305A093B405B093B5058091F2024D
:104AA0009091F3028F779AC08091F2029091F30275
:104AB00090FF0BC06091910481E00E94430D8091B2
:104AC000F2029091F3029E7F89C08091F202909150
:104AD000F30291FF0BC060918F0481E00E94320DC0
:104AE0008091F2029091F3029D7F78C08091F20252
:104AF0009091F30292FF14C020918C0430918D04A8
:104B00003093BC032093BB0340E050E064E981E0B4
:104B10000E94FD0C8091F2029091F3029B7F5EC097
:104B20008091F2029091F30293FF1DC019821A82C4
:104B30001B821C82AE014F5F5F4F6FE681E00E94D7
:104B4000F00B89819A81AB81BC818093B6059093EB
:104B5000B705A093B805B093B9058091F202909182
:104B6000F302977F3BC08091F2029091F30294FF91
:104B700018C019821A821B821C82AE014F5F5F4FE0
:104B80006AE680E00E94F00B89819A81937090938D
:104B90008704809386048091F2029091F3029F7EB5
:104BA0001DC08091F2029091F30295FF1BC0198203
:104BB0001A821B821C82AE014F5F5F4F6AE681E062
:104BC0000E94F00B89819A8193709093890480935D
:104BD00088048091F2029091F3029F7D9093F302FA
:104BE0008093F2028091AA04882321F0815080935F
:104BF000AA0494C082E38093AA048091A80487FF4A
:104C000083C08F70E82FF0E021E030E0082E02C072
:104C1000220F331F0A94E2F740918C0350918D03C9
:104C200024233523232B71F42091780030917900CF
:104C3000EE0FFF1FEC55FB4F40815181240F351FB4
:104C400031832083882309F441C08091A3048F5FBE
:104C50008093A3048430E0F180912C04282F30E06D
:104C6000220F331FF901E556FB4F4091A4045091E8
:104C7000A50451834083F901ED56FB4F4091A604F2
:104C80005091A7045183408321E130E0082E01C0F8
:104C9000220F0A94EAF790919204292B2093920410
:104CA0008F5F182F1370A8E01A9FC00111249091F4
:104CB0000B01977E892B80930B0188E090E00E9486
:104CC000B81410932C040E948B0E02C021E001C086
:104CD00020E0922F80E041E050E0BA016370772736
:104CE000672B19F0992331F090E0440F551F8F5F27
:104CF000803199F790917C008770987F892B809301
:104D00007C002093A8040AC080917A00806480937C
:104D10007A008091A80480688093A8048091A904F7
:104D2000833051F4629B08C081E08093A904809194
:104D3000BA058E7F8093BA050F900F900F900F9059
:104D4000DF91CF91FF91EF91BF91AF919F918F91A3
:104D50007F916F915F914F913F912F911F910F9193
:104D6000FF90EF90DF90CF90BF90AF909F907F909B
:104D70006F900F900FBE0F901F901895EF92FF92BB
:104D80000F931F93CF93DF93D82F082F10E0980134
:104D90002C573B4F7901F90180811F928F931F920D
:104DA000DF9384E096E09F938F930E94CD2FF701CD
:104DB00080811F928F931F92DF938DEE95E09F93DA
:104DC0008F930E94CD2FF701808183702DB73EB75E
:104DD000245F3F4F0FB6F8943EBF0FBE2DBF882310
:104DE00011F0C0E801C0C0E0000F111F000F111F3B
:104DF000F801EE54FA4F80819181A281B381B2FD16
:104E0000C062B1FDC064D11111C08091B1051F9283
:104E10008F9389ED95E09F938F930E94CD2F0F90F4
:104E20000F900F900F908091B10512C0D13099F47E
:104E30008091B0051F928F9386EC95E09F938F939E
:104E40000E94CD2F0F900F900F900F908091B00582
:104E5000843108F0C0618C2FDF91CF911F910F91A9
:104E6000FF90EF900895EF92FF921F93CF93DF93FF
:104E7000182FEB01111142C080E890E00E94A314AA
:104E80008091B2059091B305A091B405B091B5059C
:104E9000B7FFF2CFE12EF12C85E2189FF00111242B
:104EA000E354FC4F88819981948383838A819B8119
:104EB000968385838C819D81908787838E819F8156
:104EC00092878187812F0E946A0B9701F901E05731
:104ED000FB4F88858083F901E257FB4F89858083EA
:104EE000220F331FF901E657FB4F8A859B8591837B
:104EF0008083111115C080E790E016C0113009F0D1
:104F0000B9CF80E098E00E94A3148091B6059091FB
:104F1000B705A091B805B091B905B7FFF2CFBACFE8
:104F2000113049F480E097E0DF91CF911F91FF901D
:104F3000EF900C94A314DF91CF911F91FF90EF900D
:104F400008950F931F93CF93DF93EB01082F10E089
:104F500095E2899FF0011124E354FC4F23813481B1
:104F600039832883258136813B832A8327813085B5
:104F70003D832C83218532853F832E830E949A0DA9
:104F8000888789E0809FF001819FF00D1124E5550D
:104F9000FC4F86818987878190859B878A87DF91EF
:104FA000CF911F910F9108951F920F920FB60F92FC
:104FB000112410922F041092300410923104109298
:104FC0003204EE98789480E00E94102980E00E94DC
:104FD000152B80E00E944E2B60E070E08AEF94E495
:104FE0000E94550780ED97E090932E0480932D0446
:104FF0008FEB95E09F938F930E94E3050F900F90A6
:10500000C12CD12C7601CAEBD5E0FF92EF92DF9252
:10501000CF92DF93CF930E94E305609183048FEFDB
:10502000860F0F900F900F900F900F900F908E3F64
:1050300048F48FEF93E00E94BB30809183048F5F30
:10504000809383048AE0C80ED11CE11CF11C80917E
:105050002F0490913004A0913104B09132048C154A
:105060009D05AE05BF0598F3D0CFCF93DF93EC013C
:105070008091BA0581FD37C04091F5035091F60348
:105080006091F7037091F803CE010D2E000CAA0B6E
:10509000BB0B840F951FA61FB71F8093F50390933A
:1050A000F603A093F703B093F803D7FF07C0D19599
:1050B000C195D1090E940629826003C00E94062979
:1050C0008D7F0E94F728219760F0F89482E00E947B
:1050D000DE2878948FE99FE00197F1F700C0000087
:1050E000F2CF80E001C08EEFDF91CF910895CF9392
:1050F000DF93EC018091BA0580FD37C04091D00369
:105100005091D1036091D2037091D303CE010D2E43
:10511000000CAA0BBB0B840F951FA61FB71F809313
:10512000D0039093D103A093D203B093D303D7FFBE
:1051300007C0D195C195D1090E940629816003C09D
:105140000E9406298E7F0E94F728219760F0F8942C
:1051500081E00E94DE2878948FE99FE00197F1F7C3
:1051600000C00000F2CF80E001C08EEFDF91CF9150
:1051700008951F93CF93DF9300D000D0CDB7DEB753
:10518000162FEFECF7E03197F1F700C00000F8942C
:1051900019821A821B821C82AE014F5F5F4F64E04E
:1051A0000E94F00B89817894812783710F900F9072
:1051B0000F900F90DF91CF911F91089580FD2D9A50
:1051C00081FD2E9A2D982E980895882319F081300C
:1051D00019F00895599A08955C9A0895882319F052
:1051E000813019F00895599808955C980895EAE07F
:1051F000F1E0282F217090819A7F922B8270880F86
:10520000892B808382E090E00C94A31480910A01A2
:10521000282F247030E0359527958170822B0895D2
:1052200093E08927EAE0F1E0282F217030E0220F97
:10523000331F8270880F880F282B8081857F282B51
:10524000208382E090E00C94A31490910A01292F0E
:10525000287030E03595279535952795969591706E
:10526000922B83E089270895EF92FF920F931F936B
:10527000CF93DF93C82F01E010E001C0000F8A95A3
:10528000EAF70E942529F82E0E940629E82ED02F41
:10529000D0958F2D8D230E9410298E2D8D230E9455
:1052A000F72860E18C2F0E94B928D82FCC2321F059
:1052B000C13019F42E9A01C02D9A61E18C2F0E9401
:1052C000B928D82BCC2321F0C13019F42E9801C075
:1052D0002D988E2D802B0E94F72862E18C2F0E9442
:1052E000B928D82B802F0E94DE288F2D802B0E947A
:1052F000102962E08C2F0E94B928D82B8E2D0E9495
:10530000F7288F2D0E9410298D2FDF91CF911F91AB
:105310000F91FF90EF9008956CE177E09695879557
:10532000969587950C94A32B20918E0321FF1DC089
:105330009C013695279536952795AAEBB3E10E94F7
:105340002331AB01BC0199E0769567955795479558
:105350009A95D1F74E7F61707727809116019091D1
:105360001701841B950B97FF02C080E090E0089521
:10537000EF92FF921F93CF93DF937B01C82FD92F1A
:10538000142F180F1C1741F0F70161917F01CE0116
:105390000E94A3302196F6CFDF91CF911F91FF900D
:1053A000EF9008958F929F92AF92BF92CF92DF922B
:1053B000EF92FF920F931F93CF93DF93CDB7DEB79A
:1053C00060970FB6F894DEBF0FBECDBFD82EB62EB5
:1053D0009E012F5F3F4F7901B9010E94A127D11093
:1053E00006C0B7FC02C0E5E00AC0E7E008C031E053
:1053F000D3120CC0B7FC02C0E6E001C0E8E0F0E068
:10540000EE0FFF1FE856FD4F80809180B7FC0CC067
:1054100040E1B701C4012B2D30E12302800D911D25
:1054200011240E94B82927C0A12CB12C80E1C82EDC
:10543000CE0CD11004C085010456194F06C081E07E
:10544000D81203C08501045E194FD701F801CA16AE
:1054500021F084918D933196FACF40E1B701C501D7
:10546000880D991D0E94B82990E1A90EB11C20E871
:10547000A216B104F1F660960FB6F894DEBF0FBE27
:10548000CDBFDF91CF911F910F91FF90EF90DF90F3
:10549000CF90BF90AF909F908F90089580917603AA
:1054A00090917703A0917803B091790385FF07C0AD
:1054B00060910F0167FD03C080E00E94D2298091B6
:1054C000760390917703A0917803B091790386FFDA
:1054D00007C060910E0167FD03C081E00E94D229E0
:1054E0008091760390917703A0917803B09179032E
:1054F00087FF04C06FEF80E00E94D229809176037D
:1055000090917703A0917803B091790390FF04C044
:105510006FEF81E00E94D22980917603909177030A
:10552000A0917803B091790391FF08C060910801C0
:105530007091090180E093E00E94B530809176037C
:1055400090917703A0917803B091790392FF08C0FE
:10555000609106017091070180E193E00E94B530EF
:105560008091760390917703A0917803B0917903AD
:1055700093FF08C0609104017091050182E093E0FF
:105580000E94B5308091760390917703A0917803C3
:10559000B091790394FF08C06091020170910301FA
:1055A00082E193E00E94B530809176039091770379
:1055B000A0917803B091790395FF0CC060917503B9
:1055C00084E193E00E94A3306091740385E193E04D
:1055D0000E94A33010927603109277031092780302
:1055E000109279030895EF92FF920F931F93CF9338
:1055F000DF931F92CDB7DEB77B018C01061B170B23
:10560000415058F0C8018E0D9F1D49830E9495306E
:10561000F70181937F014981F3CF0F90DF91CF9103
:105620001F910F91FF90EF900895CF93DF93F8941F
:1056300092E09093DB0590913604682F692770E023
:10564000C0913304D0913404EFE8F3E0A3ECB5E06B
:1056500020E030E0AB01022E02C0559547950A9438
:10566000E2F740FF0AC0D383C283468150E013961D
:105670005C934E931297518340832F5F3F4F379631
:1056800018962330310531F71092DC059870892B7C
:10569000809336047894DF91CF91089580938E03A0
:1056A00084FF02C0289801C0289A90918E0395FF2C
:1056B00002C05D9801C05D9A8670869590910B013D
:1056C0009C7F892B80930B0188E090E00C94B814A8
:1056D0003F9A882311F0479A089547980895E3E385
:1056E000F4E08381886083830895CF93C82F80E599
:1056F0008CBD1DBC2C9881E40E94A3078C2F0E94B6
:10570000A3078FEF0E94A3072C9ACF9108951F93B0
:10571000CF93DF931F92CDB7DEB7182F80E58CBDF6
:105720001DBC2C9880E469830E94A307812F0E94EE
:10573000A3076981862F0E94A3072C9A0F90DF91FF
:10574000CF911F910895EF92FF921F93CF93DF9314
:10575000FB01EE5BFF4F25913491821793070CF00C
:105760004CC0FB0125913491281739070CF048C033
:1057700013E2A1E2B0E040E050E021E1115009F471
:1057800039C030E0E901CC0FDD1FFB01EC0FFD1F3C
:10579000E590F490FE013296E60FF71FC591D49183
:1057A000C817D90724F4A9012A0F3B1F06C08E157C
:1057B0009F0534F4D901240F351F35952795DECF89
:1057C0004EEC4203B001439F700D11249B012E51FA
:1057D0003B4FBC016E197F094603C001479F900DE6
:1057E0001124BE016E197F090E94ED30C901860F98
:1057F000971F08C080E090E005C080E79EEF02C0E0
:1058000082EE94E0DF91CF911F91FF90EF90089589
:10581000ACE0B0E0EEE0FCE20C94102F6C015B0118
:105820007A01FC0117821682838181FF0EC1CE01AD
:1058300001964C01F6010381F50103FD159103FF6B
:1058400011915F01112309F4FCC0153249F403FDE5
:10585000159103FF11915F01153211F020E01BC07B
:10586000B601812F90E00E94952F37017301E2CF9E
:10587000112309F4E6C0612F70E087E697E02C87DA
:105880000E944C2F2C85892B49F0F50103FD1591C1
:1058900003FF11915F0127FFEBCF09C0133229F0FD
:1058A0001C3609F0D5C02068F0CF20E1EECF022FE2
:1058B000112309F4C6C0612F70E080E697E02C87C1
:1058C0000E944C2F2C85892B41F03701F4E06F0E9C
:1058D000711CB6018FE390E011C0133639F0133715
:1058E00081F0133519F5022F01600BC0370182E0FA
:1058F000680E711CB601F701808191810E94952F7D
:10590000B5CF3701F2E06F0E711CF701E080F18036
:10591000F70100FD859100FF81917F01882309F443
:10592000A5CFB60190E00E94952FF2CF143611F06A
:10593000193629F5370127FF09C0F4E06F0E711CF5
:10594000F70160817181828193810AC0F2E06F0E5C
:10595000711CF70160817181072E000C880B990B77
:10596000022F0F7E97FF08C09095809570956195E6
:105970007F4F8F4F9F4F00642AE030E033C01037D5
:1059800099F040F41835B1F01F3609F05AC028E0FC
:1059900030E014C0153719F0183741F052C0022F0B
:1059A0000F7E2AE030E00AC0022F0061046220E18D
:1059B00030E004C0022F046020E132E0370107FF2D
:1059C00009C0F4E06F0E711CF70160817181828162
:1059D000938108C0F2E06F0E711CF7016081718144
:1059E00080E090E0A4010E943430182F181906FFBF
:1059F00005C0B6018DE290E00E94952F04FF15C00E
:105A0000FE01E10FF11D8081803379F0B60180E362
:105A100090E00E94952F02FF08C00072802F90E056
:105A2000B601885A9F4F0E94952F1150F401E10F43
:105A3000F11D8081B60190E00E94952F1111F5CFE4
:105A400015CFF6018681978105C08FEF9FEF02C0C9
:105A5000022F31CF2C96EEE00C942C2F20FD09C0A4
:105A6000FC0123FD05C022FF02C0738362835183C2
:105A70004083089544FD10C046FD10C0DB01FC01C9
:105A8000AA0FBB1FEE1FFF1F1094D1F76A0F7B1FD9
:105A90008E1F9F1F31E003C033E001C034E0660F6A
:105AA000771F881F991F3150D1F7620F711D811D1B
:105AB000911D08950F931F93CF93DF938C01C8011D
:105AC0000E94572FEC0197FD08C00E94432F892B9D
:105AD000B1F7B801CE010E941B30CE01DF91CF910A
