:100000000C9495030C94B2030C94B2030C94B203B9
:100010000C94B2030C94B2030C94B2030C9400261B
:100020000C94B2030C94B2030C94B2030C94B2037C
:100030000C94B2030C94B2030C94B2030C94B2036C
:100040000C94B2030C9409070C94B2030C94B20301
:100050000C94B2030C94E71F0C94B2030C94DA0DC9
:100060000C94B2030C94980D0C94B2030C94B2034C
:100070000C94B2030C94B2030C94B2030C94B2032C
:100080000C94B2030C94B2030C94B2030C94B2031C
:100090000C94B2030C94B2030C94B2030C94B2030C
:1000A0000C94B2030C94B2030C94B2034552524F19
:1000B000523A20727820627566666572206F7665A6
:1000C00072666C6F770A00AA6A5A56555595A5A9AB
:1000D000AA2575200025752000256920002568685F
:1000E00075256E002575256E002569256E00237324
:1000F0007069313D257820647276313D256C782019
:10010000677374313D257820676366313D256C78CF
:100110000A0023737069303D257820647276303D83
:10012000256C7820677374303D25782067636630CE
:100130003D256C780A003F3F3F3F004552524F52E9
:100140003D256420282553290A004E4F4E45004383
:10015000485341004348534200534E4E53004655C6
:100160005345004C4F434B004753504900545350A4
:1001700049005453494700414443560054484552AE
:10018000004D4F544F0046414E5300554C454400DE
:10019000490053005F006D007D009000A500BD0088
:1001A000D900F8001C0143016E019C01CE0102023E
:1001B00037026C02A102D30202032D03530375031D
:1001C0009103A903BD03CD03DA03E303EB03F103BA
:1001D000F503F803237469706820737465707320E5
:1001E00025640A00256920006100534C412D636F8E
:1001F0006E74726F6C2025642E25642E25642D2567
:100200006425532000435A505825347358253373BE
:1002100058256325357320000103050E0F111213B5
:10022000151617383A00020425303278002564206C
:1002300025642000256C692000253032686878200C
:100240000023747770682073746570732025640AC6
:1002500000256C69256E0025686869256E006B694C
:100260006C6C65640A004D435553523D307825301F
:1002700032780A0073746172740A00626565708175
:10028000626F6F74B5636C6564856565636C9F654B
:10029000657278A065657778A16563686FAA666105
:1002A0006E65B366616E738A6670776DB2667270E2
:1002B0006D9D6D6F74728D706C65648270707374F7
:1002C000BF7070776DB170737064B97273656EAD25
:1002D00072736D65AF72737374AE73676263BA7372
:1002E000676264BB7368646E8374656D709E7469C5
:1002F0006366A774696373A97469637596746968A2
:1003000063C17469686F9874696D61A3746970687A
:10031000BD7469706FA5746973679A74697374C3E7
:1003200074726177B674776366A674776373A87422
:10033000776375957477646E8F74776863C074772C
:10034000686F9774776D61A274777068BC7477700A
:100350006FA4747773679974777374C274777570C8
:100360008E756C6564847570776DB8766F6C74B0DB
:1003700076726177B77764656CBE7769646CB466D2
:100380006D736BC4676F7365C574777466C8746981
:100390007466C974697363C75F706F72E15F646488
:1003A00072E25F70696EE36469720F656E610C657D
:1003B0006E6411657272416C65640D6C6F67426D9D
:1003C0006F7410727374017365720374737443767F
:1003D0006572027265761370756E1201270443DC34
:1003E0000B83EE048DE40497120498FD039FD3045D
:1003F000B4C204B5EB03BBE703C0D303C1BF03C55D
:10040000B40300E21701571A02B41803601912FE70
:10041000181349190C571A0D571A0F571A10571A53
:1004200011571A41571A42571A82571A84D2178500
:10043000571A8A571A95571A96571A973D1A983D80
:100440001AC7C81799571A9A571A9DF1199ED819A1
:10045000B0D819B6BF19B7BF19B1571AB9571AB8DA
:10046000571AB2F119B3571AA49C18A5F618A6D3B7
:1004700018A7D318A83D1AA93D1AAA3D1AAD571AB4
:10048000AE571ABA571ABB6D18BC091ABD091ABF64
:100490005C18C02F1AC12F1AC43D1AC8571AC95761
:1004A0001A0CA3160DA3160FA31610A31611A3164C
:1004B00041A31642A31683A31681751482A3168442
:1004C0002D1485A3168EA2158FA2158AA31695A3A7
:1004D0001696A3169941169A41169FD304A2C414E6
:1004E000A35115A4C414A55115A66513A76513A897
:1004F0004116A94116AAA316B1A316B9A316B8A30B
:1005000016B2610FADA316AFC414BEA215BCA215DE
:10051000BDA215C24116C34116C01410C1DB0FC4E1
:10052000A316BF3B0FC7040FE1950EE3950EE295AE
:100530000EA6560EA7560EE1030EE3030EE2030EBF
:100540006525640A006F6B0A004552524F523A20EB
:10055000636F6D6D616E64206F766572666C6F7728
:100560000A00256C640A0023494E54360A00236FA2
:100570006C69636E745F74696C743D256868750A94
:1005800000236F6C69636E745F746F7765723D25CD
:100590006868750A00236472765F7374617475739A
:1005A0005B25645D3D2530386C780A0023737069E3
:1005B0005F7374617475735B25645D3D25303268CB
:1005C00068780A00000A0014F000F0001407BC026A
:1005D00000000000000A800CA000A00010074C04DE
:1005E00000000000000F0014500050001006DC0551
:1005F0000000000064007800C800C8000B00DC05A3
:1006000000000000DC05DC05000000002C28340898
:100610000000000090019001000000003E3F00003B
:1006200000000000D606D606000000002C28D007E7
:1006300000000000000F0014C800C8000F037E0473
:1006400000000000C409983AFA00960016046400FD
:1006500000000000C4094C1DFA0096001001F401CE
:1006600000000000800C983AFA00FA000A0398088B
:100670000000000064009600320032000F00DC052C
:1006800000000000800CC044FA00FA002206F401C9
:1006900000000000800CC044FA00FA001206F401C9
:1006A0000000000040068025C800C8003F04F40197
:1006B00000000000C4094C1D5E015E010C027805BB
:1006C0000000000019001D00220028002E00360046
:1006D00040004B00580069007C009200AD00CC0047
:1006E000F1001A014A017E01B701F40133027102DF
:1006F000AF02E8021C034A0372039303AD03C30372
:10070000D303E003E903F00345464765666700202D
:100710002B2D2E303132333435363738396800637B
:1007200064696E6F70737578580011241FBECFEF27
:10073000DAE0DEBFCDBF27E0A8E2B4E001C01D9241
:10074000A132B207E1F714E0A0E0B1E0E6E3F3E69E
:1007500002C005900D92A832B107D9F70E942D1B57
:100760000C9499310C94000083E08093800580E420
:1007700080930D0184E08093940580E0089580913A
:100780000B0781FD0EC081E0809300018FEF9FEF8A
:10079000909304018093030180E18093430480E0FF
:1007A00008958EEF089580910B0780FD0EC081E0C3
:1007B000809301018FEF9FEF9093060180930501D5
:1007C0008AE08093380480E008958EEF08951092B7
:1007D000FF0580E0089587E797E7909301088093ED
:1007E000000898E088E10FB6F894A895809360001F
:1007F0000FBE90936000F894FFCF90910B07892F64
:10080000827091FD0DC091E090930001209107014D
:100810003091080137FD80E18093430480E0089522
:100820008EEF089590910B07892F817090FD0DC078
:1008300091E0909301012091090130910A0137FD67
:1008400080E18093380480E008958EEF089598E069
:1008500088E10FB6F894A895809360000FBE90933E
:100860006000F894FFCF8F929F92AF92BF92CF9289
:10087000DF92EF92FF920F931F93CF93DF936A0162
:100880007B01082F10E095E2899FE0011124C65FEB
:10089000DA4FAB85BC852D853E8549018A0E9B1EAE
:1008A000A12CB12C481559056A057B05A8F0BD8F10
:1008B000AC8FC818D908EA08FB08CE8EDF8EE8A2F4
:1008C000F9A23BA32AA3AB2B11F086E001C084E080
:1008D000232BA9F0886013C09A01AB010E94832FDB
:1008E000A50194010E94522F3D8F2C8F1E8E1F8ECA
:1008F00018A219A2C21AD30ADBA2CAA28AE095E200
:10090000909FF001919FF00D1124E65FFA4F878BC5
:10091000DF91CF911F910F91FF90EF90DF90CF90DB
:10092000BF90AF909F908F9008958EBD0DB407FE3D
:10093000FDCF8EB5089580915F0490915E04981765
:1009400081F0E82FF0E0EF59FB4F208130E08F5F1E
:1009500090915D04891708F080E080935F04C901DD
:1009600008958FEF9FEF08958093CE008091C80087
:1009700086FFFCCF8091C80080648093C80080E02F
:1009800090E0089580910B07837019F00E94E410A5
:10099000F9CF809101011816CCF38091000118164F
:1009A000ACF380E00895CF93DF93C0E0D0E06FEF29
:1009B000CE010E94F42E2196C11584E0D807B9F724
:1009C00080E0DF91CF91089580E00E94B6278FEFFD
:1009D000809301018093000180E0089580E00E94EF
:1009E00063291092130780E00895E0919305ED507C
:1009F000E83B40F4F0E0EE0FFF1FE556FD4F80812D
:100A00009181089580E090E00895FB0190E09417B3
:100A100081F02491BF016D5F7F4F281307C031968D
:100A200085919491009739F0FC0109949F5FFB0137
:100A3000EECF89EF08958AEF08950F931F93CF9318
:100A4000DF93582FC42FD0E021962223B1F0FB0171
:100A5000DC013A2F351B341728F40D91149131968F
:100A60000117B9F32150341305C0FB01E30FF11D49
:100A7000849104C06C0F7D1FE8CF8FEFDF91CF9181
:100A80001F910F910895CF93DF93CDB7DEB7AE01DD
:100A90004B5F5F4FFA0161917191AF0180918D05BC
:100AA00090918E050E945D2EDF91CF910895CF9396
:100AB000DF93CDB7DEB7AE014B5F5F4FFA016191B7
:100AC0007191AF0180919505909196050E945D2EE0
:100AD000DF91CF910895CF93DF9300D0CDB7DEB7EC
:100AE0009E012F5F3F4F3F932F937F936F9329EE8C
:100AF00030E03F932F939F938F930E94442E0FB625
:100B0000F894DEBF0FBECDBF019711F4898101C0FB
:100B10008DEF0F900F90DF91CF910895CF93DF93DA
:100B200000D0CDB7DEB79E012F5F3F4F3F932F938D
:100B30007F936F9324EE30E03F932F939F938F9397
:100B40000E94442E0FB6F894DEBF0FBECDBF0197B2
:100B500011F4898101C08DEF0F900F90DF91CF913B
:100B60000895CF93DF9300D0CDB7DEB79E012F5FFE
:100B70003F4F3F932F937F936F932DED30E03F9343
:100B80002F939F938F930E94442E0FB6F894DEBF4D
:100B90000FBECDBF019711F4898101C08DEF0F9079
:100BA0000F90DF91CF9108959F938F9389ED90E0FF
:100BB0009F938F930E9457050F900F900F900F9067
:100BC00097FD80E008959F938F9385ED90E09F932C
:100BD0008F930E9457050F900F900F900F9097FDE5
:100BE00080E008951F928F9381ED90E09F938F9303
:100BF0000E9457050F900F900F900F9097FD80E087
:100C000008950F931F93CF938C01FC0180819181F4
:100C10000E94E305C82FF801828193810E94E305B9
:100C2000C80FF801848195810E94E305C80FF8017F
:100C3000868197810E94E305C80FF80180850E9494
:100C4000F205C80FF8018185282F082E000C330B00
:100C50003F938F9384EE91E09F938F930E9457056B
:100C60000F900F900F900F9097FD02C0982F01C02A
:100C700090E0C90FF801828593850E94E3058C0FEF
:100C8000CF911F910F91089580913704882309F423
:100C90006BC080913604909135048823C1F0815057
:100CA00080933604911160C08FE694E09093990090
:100CB0008093980080E4809390002F9A8091F704AD
:100CC00081608093F70481E080933504089599232F
:100CD00051F0109290002F988091F7048E7F8093AE
:100CE000F7041092350480913404882321F0815058
:100CF00080933404089520913304E22FE695E6951D
:100D0000F0E0E15DFB4F808190E0422F437023E0F3
:100D100030E0241B3109220F331F02C095958795BF
:100D20002A95E2F78370823059F0833081F0813068
:100D300019F01092360407C080E38093360404C093
:100D400080E98093360480E38093340402C01092DB
:100D50003304809133048F5F809333049091370480
:100D6000891710F0109233040895CF92DF92EF921A
:100D7000FF926B017C0120E030E0A9010E94FB2F73
:100D8000811103C0109290001CC0A701960160E081
:100D900074E284E799E40E94003020E030E040E013
:100DA0005FE30E948E2F0E947230683C710510F440
:100DB00068EC70E0709399006093980080E48093F1
:100DC0009000FF90EF90DF90CF900895E82FF0E033
:100DD000E953FF4FE491F0E0FE2FEE27853010F04D
:100DE000E06401C0E068F894F0932F04E0933004CD
:100DF00010923304109236041092340488E08093E9
:100E00003704789408958EBD0DB407FEFDCF8EB5DE
:100E100008951F920F920FB60F9211244F925F9276
:100E20006F927F928F929F92AF92BF92CF92DF92FA
:100E3000FF920F931F932F933F934F935F936F9363
:100E40007F938F939F93AF93BF93CF93DF93EF9352
:100E5000FF931092850010928400C0901B05D090E3
:100E60001C050091400510914105E1E0C016D10636
:100E700008F0E0E0E0932E0445E2E49FF001112445
:100E8000E65FFA4FC189D289D0932D04C0932C0418
:100E90008091840090918500209709F4B7C2F9B041
:100EA000F294F694F69493E0F9228091FE05F82AE4
:100EB00080918605F8228F2D90E090932B048093EB
:100EC0002A04C03A56E3D50750F0FE0186E0F695B5
:100ED000E7958A95E1F7E55EFE4F46A11AC0C03A54
:100EE00066E2D60748F0FE01B5E0F695E795BA95BB
:100EF000E1F7E959FF4F0CC0C03A7EE1D70758F03F
:100F0000FE01A4E0F695E795AA95E1F7ED5CF040C7
:100F1000408150E01AC0C032D105A8F0BE017695DC
:100F20006795CB01A0E0B0E0BC01CD0160587B47E4
:100F3000814E9F4F4E01A12CB12CA50194010E941E
:100F4000522FA90102C040E050E050932904409381
:100F500028048091840090918500F0910B07F0FFA8
:100F600024C12091240530912505240F351F30938D
:100F70002505209324058091220590912305C8160C
:100F8000D90608F40CC18C0F9D1F8C199D099093F4
:100F9000230580932205E091210580911D05909104
:100FA0001E05A0911F05B0912005F4FF04C0019714
:100FB000A109B10903C00196A11DB11D80931D05B2
:100FC00090931E05A0931F05B0932005E1FF50C02C
:100FD000A0911105B09112052F3F310509F058F489
:100FE0004A9FB0014B9F700D5A9F700D1124CB0189
:100FF000A0E0B0E005C09A010E94742FDC01CB0193
:1010000073E0880F991FAA1FBB1F7A95D1F78090B4
:10101000190590901A05A0901B05B0901C05880D2D
:10102000991DAA1DBB1D8093190590931A05A093C5
:101030001B05B0931C05809126059091270501970B
:101040009093270580932605892B09F08BC08E2F5E
:101050008D7FE2FF86C020910F05309110053093FF
:101060001C0520931B0510921A051092190579C0D2
:10107000E2FF28C08091280590912905A0912A05BA
:10108000B0912B050197A109B10980932805909390
:101090002905A0932A05B0932B05892B8A2B8B2B2E
:1010A00009F060C08E2F8B7FE3FD5BC0FE7FF09365
:1010B0000B071092190510921A0510921B05109239
:1010C0001C054FC0E3FF4EC0A0911305B09114055D
:1010D0002F3F310509F058F44A9FB0014B9F700D26
:1010E0005A9F700D1124CB01A0E0B0E005C09A0119
:1010F0000E94742FDC01CB0163E0880F991FAA1FA7
:10110000BB1F6A95D1F78090190590901A05A090A1
:101110001B05B0901C0524013501481A590A6A0ABA
:101120007B0A4092190550921A0560921B05709235
:101130001C0580912C0590912D05019790932D050C
:1011400080932C05892B71F4E77FFE7FF0930B07CA
:101150001092190510921A0510921B0510921C0589
:1011600001C0E82F80912E05882321F081508093C3
:101170002E050CC0F0FE0AC080910B078E7F809375
:101180000B0780914404816080934404E09321051F
:101190001092250510922405DD24D39407C08C19E4
:1011A0009D099093230580932205D12CF0910B0784
:1011B000F1FF28C18091490590914A05840F951F40
:1011C00090934A0580934905209147053091480541
:1011D0000217130708F40DC1C20FD31FC01BD10B98
:1011E000D0934805C0934705E0914605009142051C
:1011F000109143052091440530914505F5FF05C048
:10120000015011092109310904C00F5F1F4F2F4FF1
:101210003F4F0093420510934305209344053093BC
:101220004505E1FF50C0A0913605B09137058F3FCD
:10123000910509F058F44A9FB0014B9F700D5A9FD9
:10124000700D1124CB01A0E0B0E005C09A010E940E
:10125000742FDC01CB0133E0880F991FAA1FBB1F3D
:101260003A95D1F700913E0510913F052091400538
:1012700030914105800F911FA21FB31F80933E053F
:1012800090933F05A0934005B093410580914B0595
:1012900090914C05019790934C0580934B05892BB9
:1012A00009F08BC08E2F8D7FE2FF86C02091340520
:1012B00030913505309341052093400510923F054C
:1012C00010923E0579C0E2FF28C080914D059091B3
:1012D0004E05A0914F05B09150050197A109B109A4
:1012E00080934D0590934E05A0934F05B093500504
:1012F000892B8A2B8B2B09F060C08E2F8B7FE3FD0F
:101300005BC0FD7FF0930B0710923E0510923F05E6
:1013100010924005109241054FC0E3FF4EC0A091CE
:101320003805B09139058F3F910509F058F44A9F6F
:10133000B0014B9F700D5A9F700D1124CB01A0E09E
:10134000B0E005C09A010E94742FDC01CB0123E0BC
:10135000880F991FAA1FBB1F2A95D1F700913E0540
:1013600010913F052091400530914105B901A80138
:10137000481B590B6A0B7B0B40933E0550933F056E
:1013800060934005709341058091510590915205FD
:1013900001979093520580935105892B71F4E77F53
:1013A000FD7FF0930B0710923E0510923F051092BF
:1013B00040051092410501C0E82F80915305882314
:1013C00021F08150809353050CC0F1FE0AC080913A
:1013D0000B078D7F80930B0780914404826080937C
:1013E0004404E093460510924A051092490582E0B4
:1013F00008C0E901C01BD10BD0934805C093470535
:1014000080E0D82A8D2D0E94842706C080ED97E0C9
:1014100090932904809328048091280490912904B2
:1014200090938900809388002091840030918500FA
:1014300080912804909129042817390728F00A97E9
:101440009093850080938400FF91EF91DF91CF917D
:10145000BF91AF919F918F917F916F915F914F91CC
:101460003F912F911F910F91FF90DF90CF90BF90F0
:10147000AF909F908F907F906F905F904F900F9064
:101480000FBE0F901F901895CF92DF92EF92FF92B0
:101490000F931F93CF93DF9300D000D0CDB7DEB76B
:1014A000082F10E021E030E06901082E01C0CC0CCB
:1014B0000A94EAF790910B079C2109F05BC0411553
:1014C00051056105710509F457C0F82EEC2CE09424
:1014D00049835A836B837C831416150616061706F8
:1014E0009CF40E94AC278E210E949D278C2D829512
:1014F000807F809590910B07892380930B0749810A
:101500005A816B817C8118C00E94AC278C290E9473
:101510009D2780910B079C2D9295907F892B80931E
:101520000B0749815A816B817C817095609550953C
:1015300041955F4F6F4F7F4F8F2D0E94330485E29F
:10154000809FF001819FF00D1124E65FFA4F108A11
:10155000178683819481928B818B80E484A3809110
:101560004404E822E092440480910B078C29809384
:101570000B0702C08FEF01C080E00F900F900F901B
:101580000F90DF91CF911F910F91FF90EF90DF901F
:10159000CF900895CF92DF92EF92FF920F931F9317
:1015A000CF93DF93C82ED12C95E2899FE0011124BF
:1015B000C65FDA4F8D819E810B811C817C01E01A10
:1015C000F10A080F191F2F8138852115310539F1CE
:1015D000C701A0E0B0E0BC01CD01ECE0660F771FD1
:1015E000881F991FEA95D1F740E050E00E94522FE2
:1015F000F4E05695479537952795FA95D1F7D80198
:101600000E94832F6C5D7B408F4F9F4F28E438EE04
:1016100041E050E00E94522F3C872B8702C01C867D
:101620001B8685E28C9DE0018D9DD00D1124C65F47
:10163000DA4F29853A852115310539F1C701A0E036
:10164000B0E0BC01CD014CE0660F771F881F991FE9
:101650004A95D1F740E050E00E94522F64E0569541
:101660004795379527956A95D1F7D8010E94832F22
:101670006C5D7B408F4F9F4F28E438EE41E050E097
:101680000E94522F3E872D8702C01E861D86DF9145
:10169000CF911F910F91FF90EF90DF90CF90089521
:1016A0008F929F92BF92CF92DF92EF92FF920F9311
:1016B0001F93CF93DF931F92CDB7DEB7B82E8A0169
:1016C0008CE5F82EFCBC1DBC8B2D69830E949427F1
:1016D0006981862F0E94950480E00E94950480E035
:1016E0000E94950480E00E94950480E00E94950489
:1016F0008B2D0E948B27FCBC1DBC8B2D0E94942738
:10170000EB2CF12C80E00E949504970129533A4F6D
:101710004901F901808380E00E949504C82ED12CF4
:10172000E12CF12CFE2CED2CDC2CCC2480E00E9452
:101730009504C82AFE2CED2CDC2CCC2480E00E94E1
:101740009504C82AFE2CED2CDC2CCC2480E00E94D1
:101750009504C82A8B2D0E948B270115110529F0AD
:10176000F801C082D182E282F382F40180810F907D
:10177000DF91CF911F910F91FF90EF90DF90CF906D
:10178000BF909F908F900895CF93DF9300D000D0AB
:10179000CDB7DEB719821A821B821C82AE014F5F61
:1017A0005F4F61E00E94500B89810F900F900F9066
:1017B0000F90DF91CF910895AF92BF92CF92DF92B9
:1017C000EF92FF920F931F93CF93DF9300D000D03F
:1017D000CDB7DEB7F89419821A821B821C82AE0143
:1017E0004F5F5F4F60E080E00E94500B19810A81DB
:1017F000FB80EC8080E00E94C40BEF92FF920F937D
:101800001F931F928F9303E017E0F80183818F935A
:1018100082818F9381818F9380818F9387ECE82ED3
:1018200085E0F82EF70180811F928F9382E191E08D
:101830009F938F930E94430519821A821B821C82F8
:10184000AE014F5F5F4F60E081E00E94500BD98096
:10185000CA80BB80AC8081E00E94C40BAF92BF9273
:10186000CF92DF921F928F93F80187818F938681A9
:101870008F9385818F9384818F93F70181811F924C
:101880008F938EEE90E09F938F930E944305789400
:101890000FB6F894DEBF0FBECDBF80E00F900F9063
:1018A0000F900F90DF91CF911F910F91FF90EF90CC
:1018B000DF90CF90BF90AF9008951F93CF93DF93A9
:1018C00000D000D01F92CDB7DEB7182F8CE58CBDAD
:1018D0001DBC812F2D833C834B835A8369830E94D7
:1018E00094276981862F0E9495045A81852F0E9432
:1018F00095044B81842F0E9495043C81832F0E9484
:1019000095042D81822F0E949504812F0E948B27A0
:1019100080E00F900F900F900F900F90DF91CF917C
:101920001F91089599E0899FF0011124E850FB4F21
:101930006683462F660F550B660B770B33272227DE
:101940006DEE0C945D0CCF92DF92EF92FF921F939D
:10195000CF93DF93182F603218F0669520E001C016
:1019600021E0822F90E0A0E0B0E06C017D0181E1F8
:10197000CC0CDD1CEE1CFF1C8A95D1F789E0189F6A
:10198000E0011124C850DB4F88819981AA81BB8175
:10199000AD7FA7019601282B392B4A2B5B2B28837F
:1019A00039834A835B836C836D836CEE812F0E9445
:1019B0005D0C2C812F71822F90E0A0E0B0E0AF6031
:1019C0004D814F7150E0542F4427052E000C660BBB
:1019D000770B9A01AB01282B392B4A2B5B2B60E943
:1019E000812FDF91CF911F91FF90EF90DF90CF90EB
:1019F0000C945D0C29E0829FC0011124FC01E85089
:101A0000FB4F4081518162817381858161FF880F25
:101A10000895FF920F931F93CF93DF9300D000D0D0
:101A2000CDB7DEB7F82E83ED90E0A3E0B4E1898373
:101A30009A83AB83BC8329E0F29E80011124085075
:101A40001B4FF80180839183A283B38380E1848359
:101A5000858383E086838CED95E09087878323EDF3
:101A600030E043E054E16CEE8F2D0E945D0CAE013E
:101A70004F5F5F4F6CE68F2D0E94500BF801408145
:101A800051816281738189819A81AB81BC814817C0
:101A900059076A077B0771F520E030E0A90161E989
:101AA0008F2D0E945D0CF8012681822F220F990B49
:101AB000AA0BBB0BDC01992788279C01AD01516063
:101AC0006DEE8F2D0E945D0CF8012781308540E07E
:101AD00050E064E98F2D0E945D0C20E831E340E086
:101AE00050E060E88F2D0E945D0C8F2D0E94C40B8A
:101AF00080E001C08FEF0F900F900F900F90DF915B
:101B0000CF911F910F91FF9008951092EB051092C5
:101B1000E6058091F50480FD04C01092E80510925E
:101B2000E70581FD04C01092EA051092E9050895C9
:101B30001F920F920FB60F9211242F938F939F93A2
:101B4000EF93FF932091CE0080915E0490915F040B
:101B5000E82FF0E0EF59FB4F20838F5F20915D0469
:101B6000821708F080E0891719F080935E0418C08E
:101B7000F894ECEAF0E08BE18E0F9091C80095FFAD
:101B8000FCCF94919093CE009091C80096FFFCCF2B
:101B900031968E13F2CF789410925E0410925F0407
:101BA000FF91EF919F918F912F910F900FBE0F900A
:101BB0001F9018951F920F920FB60F9211248F93BA
:101BC0009F93AF93BF9386B58A5F86BD78948091CB
:101BD0007C0590917D05A0917E05B0917F050196D1
:101BE000A11DB11D80937C0590937D05A0937E057A
:101BF000B0937F05BF91AF919F918F910F900FBED2
:101C00000F901F901895E0919105F09192059081A9
:101C10002EEB290F253008F047C020919305223E76
:101C200061F1233EB1F0213ED9F5943461F018F40E
:101C3000933439F004C0953441F0963441F085B1C5
:101C40002FC088B12DC08BB12BC08EB129C081B3FC
:101C500027C0943461F018F4933439F004C09534FB
:101C600041F0963441F083B11BC086B119C089B1EF
:101C700017C08CB115C08FB113C0943461F018F443
:101C8000933439F004C0953441F0963441F084B176
:101C900007C087B105C08AB103C08DB101C080B350
:101CA0000E94F20580E008958CEF08951F93CF9372
:101CB000DF93CDB7DEB761970FB6F894DEBF0FBEE6
:101CC000CDBF10919305BE016F5E7F4F809191054E
:101CD000909192050E94B1058093390487FD1BC045
:101CE00029892830B8F4173A19F480E092E002C04C
:101CF00080E091E0BE016F5F7F4F30E1239F800D58
:101D0000911D11240E94FD29CE0101960E94010619
:101D100080E001C08CEF61960FB6F894DEBF0FBE75
:101D2000CDBFDF91CF911F9108951F93CF93DF9384
:101D30001F92CDB7DEB7E0919105F0919205108129
:101D40002EEB210F253008F057C0CF01019690935C
:101D5000920580939105BE016F5F7F4F0E94B10590
:101D60008093390487FD4BC080919305823E79F1C1
:101D7000833EC1F0813E09F041C08981143461F095
:101D800018F4133439F004C0153441F0163441F01E
:101D900085B934C088B932C08BB930C08EB92EC075
:101DA00081BB2CC08981143461F018F4133439F0EC
:101DB00004C0153441F0163441F083B91FC086B910
:101DC0001DC089B91BC08CB919C08FB917C08981D2
:101DD000143461F018F4133439F004C0153441F0B0
:101DE000163441F084B90AC087B908C08AB906C060
:101DF0008DB904C080BB02C08CEF01C080E00F90A1
:101E0000DF91CF911F91089562EE74E0809191056A
:101E1000909192050E94B1058093390487FD2AC0F4
:101E20002091910530919205A901480F511D87FD20
:101E30005A95CA01509392054093910561EE74E062
:101E40000E94B1058093390487FD14C08091DD04A0
:101E50009091DE04A091DF04B091E0049062809341
:101E6000DD049093DE04A093DF04B093E0040E94AD
:101E7000682880E00895CF93DF931F92CDB7DEB737
:101E8000BE016F5F7F4F80919105909192050E94F6
:101E9000B1058093390487FD10C08981823060F4D8
:101EA000882329F0EE9A81E08093C60503C0EE985E
:101EB0001092C60580E001C08CEF0F90DF91CF91AA
:101EC0000895CF93DF9300D000D0CDB7DEB7BE0129
:101ED0006C5F7F4F80919105909192050E94B105B2
:101EE0008093390487FD60C09C81993210F08CEF9B
:101EF0005BC02091910530919205A901480F511DB9
:101F000087FD5A95CA015093920540939105BE01F1
:101F10006D5F7F4F0E94B1058093390487FD44C0F7
:101F20009B81953120F72091910530919205A9016F
:101F3000480F511D87FD5A95CA0150939205409351
:101F40009105BE016E5F7F4F0E94B10580933904F9
:101F500087FD2AC09A81953150F6209191053091E4
:101F60009205A901480F511D87FD5A95CA0150934A
:101F7000920540939105BE016F5F7F4F0E94B105AE
:101F80008093390487FD10C08981853108F0AFCF77
:101F90009C81909388059B81909389059A81909369
:101FA0008A0580938B0580E00F900F900F900F9023
:101FB000DF91CF910895CF93DF9300D0CDB7DEB7F7
:101FC000BE016F5F7F4F80919105909192050E94B5
:101FD0006B058093390487FD22C089819A819C0119
:101FE0002F5F3F4F21303140C8F490930801809318
:101FF00007018091DD049091DE04A091DF04B0918F
:10200000E00494608093DD049093DE04A093DF04E9
:10201000B093E0040E94682880E001C08CEF0F902C
:102020000F90DF91CF910895CF93DF9300D0CDB77C
:10203000DEB7BE016F5F7F4F809191059091920551
:102040000E946B058093390487FD22C089819A81A3
:102050009C012F5F3F4F21343105C8F490930A0152
:10206000809309018091DD049091DE04A091DF044A
:10207000B091E00492608093DD049093DE04A0931D
:10208000DF04B093E0040E94682880E001C08CEF78
:102090000F900F90DF91CF910895CF93DF93EC01D4
:1020A00080E090E20E940B1BCE0196958795969555
:1020B00087952091CB053091CC053695279536959F
:1020C0002795821B930B813891053CF020E031E08D
:1020D000A901481B590BCA0105C080385FEF95075D
:1020E0000CF49395C82F880FDD0BDF93CF9384ED0D
:1020F00091E09F938F930E9443050F900F900F9054
:102100000F90CE01DF91CF910C946126CF93DF9396
:10211000CDB7DEB760970FB6F894DEBF0FBECDBF68
:102120008F3F19F48093110114C08830A0F480937C
:10213000110120E18202C0011124BE016F5F7F4FB7
:102140009E5F0E94FD29BE016F5F7F4F81E00E946C
:102150005F2580E001C08CEF60960FB6F894DEBF7B
:102160000FBECDBFDF91CF910895CF93DF93CDB751
:10217000DEB760970FB6F894DEBF0FBECDBF8F3FBE
:1021800019F48093120114C08830A0F480931201D6
:1021900020E18202C0011124BE016F5F7F4F939541
:1021A0000E94FD29BE016F5F7F4F80E00E945F2586
:1021B00080E001C08CEF60960FB6F894DEBF0FBED2
:1021C000CDBFDF91CF9108950F931F93CF9380914F
:1021D00081058823D9F08530A1F038F4833071F07F
:1021E000843009F02AC285E00CC0873069F040F0E5
:1021F000883009F022C2109281051FC284E001C01C
:1022000087E08093810519C288E0FBCF80910101AE
:1022100018160CF01BC1833009F46AC02CF481300D
:1022200051F0823079F112C1843009F457C0853001
:1022300009F402C10BC11092490480911D059091CF
:102240001E05A0911F05B091200580934504909331
:102250004604A0934704B093480480E00E94B51060
:102260000E94CB2781600E94B627809186058160FD
:102270008093860540E859EA63E070E080E00E94C0
:10228000440A91C080910B0780FDE0C08091440416
:1022900080FF2CC02FEF81EE94E0215080409040D1
:1022A000E1F700C0000080911D0590911E05A091EE
:1022B0001F05B09120058093450490934604A09398
:1022C0004704B093480440E058EF6FEF7FEF80E0A1
:1022D0000E94440A83E080930101B8C080910B07FB
:1022E00080FDB4C08091440480FD36C08EEFF3CFF2
:1022F00080910B0780FDAAC08091440480FD9AC0A4
:1023000080911D0590911E05A0911F05B09120059B
:102310008093450490934604A0934704B0934804E7
:1023200081E00E94B51080911D0590911E05A0913D
:102330001F05B09120058093450490934604A09317
:102340004704B093480440E058E160E070E080E06A
:102350000E94440A84E0BFCF40911D0550911E05A4
:1023600060911F057091200580914504909146046D
:10237000A0914704B0914804481B590B6A0B7B0B92
:1023800080914904813089F08230B9F081115EC0BA
:10239000809105019091060197FD02C082E001C085
:1023A00081E08093490482E096CF509306014093E8
:1023B000050182E0809349048ECF809105019091C0
:1023C00006018C0100581109012E000C220B330B61
:1023D000401751076207730738F180589F4F092E45
:1023E000000CAA0BBB0B84179507A607B707E0F0F4
:1023F00080E00E94B51080911D0590911E05A0916E
:102400001F05B09120058093450490934604A09346
:102410004704B093480440E05CEF6FEF7FEF80E04B
:102420000E94440A85E057CF8FEF9FEF90930601FB
:10243000809305018DEF4FCF80910B0780FD06C083
:102440008091440480FDF6CF10920101809100013B
:1024500018160CF063C0843091F12CF4813049F0EF
:10246000833001F15BC08530B9F1863009F444C096
:1024700055C00E94CB2782600E94B62780E00E9450
:10248000861081E090E00E940B1B8091F30487FD91
:1024900007C040E058E060E070E081E00E94440A3C
:1024A00083E03AC080910B0781FD38C040E05EECCC
:1024B0006FEF7FEF81E00E94440A84E02DC080919D
:1024C0000B0781FD2BC040E058E060E070E081E048
:1024D0000E94440A85E020C080910B0781FD1EC048
:1024E00080E00E94861040E050EF6FEF7FEF81E0C8
:1024F0000E94440A86E010C080910B0781FD0EC047
:1025000081E090E00E940B1B8091F30487FD03C0E3
:102510001092000103C08EEF80930001F894C091E7
:10252000D5051092D5057894CC2309F486C0C0FF58
:1025300010C08091DE059091DF0560E971E096950D
:102540008795969587950E94982990933C0480934F
:102550003B04C1FF0AC08091E0059091E1050E9413
:10256000322890933E0480933D04C2FF0AC08091BC
:10257000E2059091E3050E943228909340048093F5
:102580003F04C3FF0AC08091E4059091E5050E94D5
:1025900032289093420480934104C4FF0AC0809182
:1025A000D6059091D7050E943A2890931401809304
:1025B0001301C5FF0AC08091D8059091D9050E94EA
:1025C0003A289093160180931501C6FF0AC08091A6
:1025D000DA059091DB050E943A28909318018093C8
:1025E0001701C7FF2AC02091DC053091DD05369523
:1025F000279536952795AAEBB3E10E94742FDC014D
:10260000CB012AE0B695A795979587952A95D1F79E
:102610009C01AD0144275527A8E3BAE10E94832F0E
:10262000DC01CB013AE0B695A795979587953A9549
:10263000D1F790931A0180931901CF911F910F91B7
:102640000895CF93C82F8E3038F425E0829FC001C3
:102650001124865B9E4F02C086E391E09F938F9387
:102660001F92CF938BE391E09F938F930E9443053A
:10267000C0933A040F900F900F900F900F900F900F
:10268000C130C1F40FB6F894A895809160008861BC
:1026900080936000109260000FBEF89481E00E9469
:1026A000E6060E9444068FE09EE00197F1F700C025
:1026B0000000F7CFC93038F48FEF809394058C2F4A
:1026C000CF910C94E606CF910895DF92EF92FF929E
:1026D0000F931F93CF93DF93CDB7DEB762970FB6FB
:1026E000F894DEBF0FBECDBFD0909305E09091056A
:1026F000F0909205BE016F5F7F4FC7010E948E056B
:1027000087FD9DC08701080F111D87FD1A95F801EF
:102710009081992341F0BE016D5F7F4FC8010E94F7
:102720008E0587FD8CC0080F111D87FD1A95F801D5
:102730009081992341F0BE016B5F7F4FC8010E94D9
:102740008E0587FD7CC0080F111D87FD1A95F801C5
:102750009081992341F0BE01695F7F4FC8010E94BB
:102760008E0587FD6CC0080F111D87FD1A95F801B5
:102770009081992341F0BE01675F7F4FC8010E949D
:10278000B10587FD5CC0080F111D87FD1A95F80182
:1027900090819923E1F0CE0141969F938F93079703
:1027A0009F938F9387E592E09F938F931F930F934F
:1027B0000E94442E0FB6F894DEBF0FBECDBF019726
:1027C00021F4898987FF03C03AC08DEF38C0080F14
:1027D000111D87FD1A95F8018081811105C0802F98
:1027E0008E1987FF0AC02BC0BE01655F7F4FC801ED
:1027F0000E948E0587FFF3CF22C011E0F7EADF12B7
:1028000010E0BE016F5F7F4F812F0E945F25809196
:10281000DD049091DE04A091DF04B091E004111179
:1028200002C0806201C080648093DD049093DE0466
:10283000A093DF04B093E0040E94682880E06296D1
:102840000FB6F894DEBF0FBECDBFDF91CF911F91C1
:102850000F91FF90EF90DF900895CF93DF9300D01A
:102860001F92CDB7DEB7BE016D5F7F4F809191059E
:10287000909192050E94B1058093390487FD2FC085
:102880002091910530919205A901480F511D87FDB6
:102890005A95CA0150939205409391051A82198264
:1028A000FA01208121110DC089819A81909310072E
:1028B00080930F079B818091F704992361F08260D8
:1028C0000BC0BE016F5F7F4F0E948E05809339045D
:1028D00087FFEACF04C08D7F0E94492980E00F90D6
:1028E0000F900F90DF91CF9108950F931F93CF9387
:1028F000DF9300D000D0CDB7DEB7BE016D5F7F4F54
:1029000080919105909192050E948E0580933904E3
:1029100087FD31C02091910530919205A901480FA2
:10292000511D87FD5A95CA01509392054093910518
:10293000BE016F5F7F4F0E948E058093390487FD33
:102940001AC06B817C81CB0140978937934190F409
:1029500009811A81013187E2180760F480E090E074
:102960000E94A1300E94B50610937B0500937A0562
:1029700080E001C08CEF0F900F900F900F90DF91CF
:10298000CF911F910F910895CF92DF92EF92FF9216
:10299000CF93DF9300D000D000D0CDB7DEB7CE010B
:1029A00005969F938F9304979F938F9381E592E071
:1029B0009F938F93809192058F93809191058F9330
:1029C0000E94442E0FB6F894DEBF0FBECDBF019714
:1029D00011F48D8101C08DEF8093390487FD54C0BF
:1029E00080919305843A11F18F3A69F1823A09F0A6
:1029F00046C0C980DA80EB80FC800E94CB278160D2
:102A00000E94B62780911D0590911E05A0911F057B
:102A1000B0912005B701A601481B590B6A0B7B0B2F
:102A200080E00E94440A87FD2CC027C089819A81DA
:102A3000AB81BC8180931D0590931E05A0931F055B
:102A4000B09320051AC049815A816B817C81413C39
:102A500034ED530731E063077105ACF48091EC0568
:102A600082608093EC0570956095509541955F4F1D
:102A70006F4F7F4F80E00E94440A80E005C08AEFDC
:102A800003C08EEF01C08CEF26960FB6F894DEBF20
:102A90000FBECDBFDF91CF91FF90EF90DF90CF9031
:102AA00008950F931F93CF93DF9300D0CDB7DEB778
:102AB000BE016F5F7F4F80919105909192050E94BA
:102AC0006B058093390487FD36C080919305833A66
:102AD00089F0853A69F589819A81092E000CAA0B43
:102AE000BB0B8093420590934305A0934405B0939C
:102AF00045051CC009811A810E94CB2782600E9473
:102B0000B627A801110F660B770B809142059091B3
:102B10004305A0914405B0914505481B590B6A0B2C
:102B20007B0B81E00E94440A87FD04C080E003C063
:102B30008AEF01C08EEF0F900F90DF91CF911F9120
:102B40000F9108950F931F93CF93DF9300D0CDB7CC
:102B5000DEB7BE016F5F7F4F809191059091920526
:102B60000E948E058093390487FD84C0809193056F
:102B70008C3BA9F188F48E38E1F08F3809F077C0EA
:102B800049815A8160E070E070956095509541955B
:102B90005F4F6F4F7F4F11C08D3B09F45FC08E3B7D
:102BA00009F065C089819A8190930E0780930D0783
:102BB0000BC049815A8160E070E080E00E94440AC5
:102BC00087FF0BC08EEF56C080910D0790910E07C6
:102BD000892B19F00E94E410F7CF80E04BC00981E7
:102BE0001A81011524E0120708F043C080E090E14B
:102BF0000E940B1BC80124E0969587952A95E1F762
:102C00002091C9053091CA0544E0369527954A952B
:102C1000E1F7821B930B813291053CF020E430E018
:102C2000A901481B590BCA0106C0803E5FEF9507FA
:102C300014F4805C9F4F082F880F110B1F930F9384
:102C400081E492E09F938F930E944305C8010E9404
:102C5000A3260F900F900F900F900CC089819A813E
:102C6000811524E0920728F40E944D1003C08AEFDA
:102C700001C08CEF0F900F90DF91CF911F910F91BA
:102C80000895CF93DF9300D01F92CDB7DEB7CE016A
:102C900001969F938F9302969F938F9387E592E07F
:102CA0009F938F93809192058F93809191058F933D
:102CB0000E94442E0FB6F894DEBF0FBECDBF019721
:102CC00011F4898101C08DEF8093390487FD35C0EF
:102CD00080919305883AF1F050F4893991F08A395E
:102CE00059F58B818093D20580E092E00FC0823C41
:102CF000A9F0833CD1F0893AF9F48B810E948610C7
:102D00001CC08B818093D10580E290E00E940B1B58
:102D100080E013C08B810E94B5100FC08B81082EFC
:102D2000000C990B0E94A32608C08B81082E000C72
:102D3000990B0E94612601C08AEF0F900F900F90AF
:102D4000DF91CF9108951F93CF93DF931F92CDB75B
:102D5000DEB7BE016F5F7F4F809191059091920524
:102D60000E94B1058093390487FD0DC180919305C0
:102D7000853809F49BC0D8F4803109F44FC040F481
:102D80008D30C9F18F30C9F18C3009F0E5C02CC00D
:102D9000813409F459C020F4813109F44AC0DCC0FF
:102DA000823809F47CC0833809F470C0D5C08A3AEF
:102DB00009F48AC050F4853909F454C0863909F4FD
:102DC0005AC08A3809F0C8C046C0813B09F483C0A4
:102DD00020F48D3A09F49CC0BFC0883B09F482C03E
:102DE000843C09F4B3C0B8C08981843008F0C8C0FD
:102DF0000E94B627C3C0898162C08981843008F0EF
:102E0000BFC090E1899F9001112490910B079F70A2
:102E1000292B20930B070E949D27B0C08981843005
:102E200008F0AEC090910B07907F892B80930B0721
:102E3000A5C08981843008F0A3C090918605907F59
:102E4000892B809386059AC08981893008F098C0C3
:102E50000E94211393C08981803108F091C00E94A3
:102E60002C298CC08981803408F08AC08093D305D6
:102E700080E190E008C08981803408F081C08093AF
:102E8000D40580E091E00E940B1B78C019811111DC
:102E900003C080E00E946329109313076FC08981EB
:102EA000843008F06DC08093800568C099819230AD
:102EB00008F066C08091F704992321F084600E9495
:102EC00049295CC08B7FFBCF8981823008F058C0D4
:102ED0008093970553C08981853108F051C0809354
:102EE00087054CC089818B3F08F04AC0809302015E
:102EF000882321F08A3F31F4589A01C0589884B54C
:102F00008F7C04C08A5F88BD84B5806284BD36C072
:102F100099819230A8F580910C01992369F0846021
:102F200080930C0188E090E00E940B1B8091EC05DF
:102F300081608093EC0522C08B7F80930C0188E038
:102F400090E00E940B1B1092EC0518C08981803123
:102F5000B8F480930E0112C0813B51F0893B29F0F7
:102F6000823481F4ECE4F4E005C0EDE0F1E002C06D
:102F7000E7E8F5E0309731F08981808380E003C095
:102F80008CEF01C08AEF0F90DF91CF911F910895D0
:102F90008091E2040E94F2058091E1040E94F20512
:102FA00080E008958091F704869581700E94F20573
:102FB00080910F0790911007009711F00E94E30590
:102FC00080E0089510924B0410924A0480914A04C4
:102FD00090914B0420910B072370822B90934B040C
:102FE00080934A04809194058F3F21F085E090E022
:102FF0000E940B1B2091F40427FD09C080914A0414
:1030000090914B04806490934B0480934A0425FD77
:1030100009C080914A0490914B04806890934B04BE
:1030200080934A048091F30487FD09C080914A048B
:1030300090914B04916090934B0480934A0480914B
:103040008C05882349F080914A0490914B0490624A
:1030500090934B0480934A0480919405823039F414
:1030600081E08093800583E0809394050DC080917A
:1030700094058F3F49F480914A0490914B049068E5
:1030800090934B0480934A0485E0809312078091CB
:10309000ED05882349F080914A0490914B04906497
:1030A00090934B0480934A0480914A0490914B047E
:1030B0000E94E30580E008958FEF93E00E94E62EE2
:1030C00090E001972AE0AC01249FC001259F900D5C
:1030D00011240E94E30580E008950F931F93CF937E
:1030E000DF938091FF05E0910007E81B8A3010F420
:1030F000982F01C09AE0891B8093FF05C92FCE0F3E
:1031000009E312E0EC1791F0D1E0DE0FF0E0E050BF
:10311000FA4F80811F928F931F930F930E94570540
:103120000F900F900F900F90ED2FECCF80E0DF917C
:10313000CF911F910F910895EAE0F5E086898F9372
:1031400085898F9384898F9383898F9384E392E019
:103150009F938F930E9457050F900F900F900F90A1
:103160000F900F9080E0089588EE91E09F938F93E9
:1031700081E08F9385E88F931F9289E08F931F9250
:103180008F931F921F928AEE91E09F938F930E94DC
:1031900057058DB79EB70C960FB6F8949EBF0FBE1D
:1031A0008DBF80E00895CF93DF93CDB7DEB76097F2
:1031B0000FB6F894DEBF0FBECDBF81E090919305AE
:1031C000973A09F080E0BE016F5F7F4F0E94CD25E6
:1031D000CE0101960E94010680E060960FB6F89439
:1031E000DEBF0FBECDBFDF91CF9108958091420524
:1031F000909143050E94D40580E00895CF92DF921C
:10320000FF920F931F93CF93DF93CDB7DEB76097F5
:103210000FB6F894DEBF0FBECDBF28E132E08E01BD
:103220000F5F1F4FD80141E290E1F92EF00EF90136
:103230008491E82FF0E04093570084918D932F5FA5
:103240003F4FFA12F4CF88E2C82E82E0D82EF80160
:1032500081918F01282F082E000C330B3F938F9301
:10326000DF92CF920E941E2E0F900F900F900F9022
:10327000F012EDCF80E060960FB6F894DEBF0FBE7F
:10328000CDBFDF91CF911F910F91FF90DF90CF9035
:10329000089583EE94E00E946E2D9F938F931F926A
:1032A00086E08F938DE292E09F938F930E941E2E73
:1032B0000F900F900F900F900F900F9080E0089557
:1032C000BF92CF92DF92EF92FF920F931F93CF9313
:1032D000DF93CDB7DEB763970FB6F894DEBF0FBEAE
:1032E000CDBFFE01319683E1DF011D928A95E9F79A
:1032F0008E010C5F1F4F44E050E066EE74E0C801A1
:103300000E9460317E01B9E0EB0EF11C43E050E019
:103310006AEE74E0C7010E94603183E4B82EBD8676
:103320006E018EE0C80ED11C45E050E06EEE74E0F8
:10333000C6010E946031DF92CF921F92BF92FF922E
:10334000EF921F930F9385E092E09F938F930E94DB
:103350001E2E0FB6F894DEBF0FBECDBF80E0639681
:103360000FB6F894DEBF0FBECDBFDF91CF911F9196
:103370000F91FF90EF90DF90CF90BF9008950F9343
:103380001F93CF93DF930E94F504009759F0EC014F
:103390008C01085F1F4F899199910E94E305C01726
:1033A000D107C9F780E0DF91CF911F910F91089568
:1033B0000F931F93CF93DF930E94F504009759F06A
:1033C000EC018C01085F1F4F899199910E94D405EF
:1033D000C017D107C9F780E0DF91CF911F910F91FE
:1033E00008950F931F93CF93DF930E94F5040097E6
:1033F00051F0EC018C010C5F1F4F89910E94F20586
:10340000C017D107D1F780E0DF91CF911F910F91C5
:1034100008950E94F504009721F0FC0180819181BC
:103420001AC0809193058C3B59F08D3B91F480E05C
:1034300090E20E940B1B8091CB059091CC050BC0B4
:1034400080E090E10E940B1B8091C9059091CA0514
:1034500002C080E090E00E94E30580E008950E94B1
:10346000F504009721F0FC018081918102C080E089
:1034700090E00E94D40580E008950E94F504009732
:1034800019F0FC01808101C080E0282F082E000C7B
:10349000330B3F938F9384EE91E09F938F930E9421
:1034A00057050F900F900F900F9080E008950E94A5
:1034B000F504009719F0FC01808153C080919305B9
:1034C0008539B1F198F48F3049F140F4813009F138
:1034D0008C3009F045C00E94CB2743C0813121F1D7
:1034E00000F18538E9F58091F70430C08D3A51F14B
:1034F00040F4893909F18A3911F1863989F581E079
:1035000018C0883C39F1893C39F18E3A49F58CB1C3
:103510001DC080918C0510928C0523C00E94AC27A1
:1035200020C080910B0702C0809186058F7019C062
:1035300080E00E94FA0C15C08091FE0412C08091B8
:1035400007050FC08091EC0581700BC082FB8827B6
:1035500080F907C080E001C081E00E94EA2401C038
:1035600080E00E94F20580E00895BF92CF92DF9242
:10357000EF92FF920F931F93CF93DF9300D000D071
:10358000CDB7DEB7B82E11E001C0110F8A95EAF76A
:10359000F89400E1C12CD12C7601812F0E94842760
:1035A0008BE99FE00197F1F700C00000812F0E9496
:1035B000842719821A821B821C82AE014F5F5F4FE3
:1035C00062E18B2D0E94500B49815A816B817C8175
:1035D0006F707727C40ED51EE61EF71E8BE99FE09D
:1035E0000197F1F700C000000150B9F67894C601C8
:1035F00024E0969587952A95E1F70F900F900F900C
:103600000F90DF91CF911F910F91FF90EF90DF907E
:10361000CF90BF900895F89420915B0430915C04A2
:10362000282B392B30935C0420935B0478942091F1
:103630005B0430915C0428233923232BC1F70895C0
:10364000F89420915B0430915C04822B932B90932F
:103650005C0480935B0478940895CF93DF93CDB797
:10366000DEB7A1970FB6F894DEBF0FBECDBF84B70B
:1036700080938C0514BE80918C0583FF11C08091CE
:10368000000990910109853A9A4551F480918C0581
:10369000877F80938C0580918C05806880938C0552
:1036A0008AE595EA90930109809300099FB7F89401
:1036B000A89584B7877F84BF18E1109360001092AB
:1036C00060009FBF8FE00FB6F894A895109360003C
:1036D0000FBE809360001092D7001092D80095E141
:1036E0009093C5008093C60080E88093610010929B
:1036F0006100789481E00E9463298091C800826013
:103700008093C80080E18093CC001093C900809121
:10371000C90080688093C9008CE780935D04109293
:103720005E0410925F048DE494E024EB34E0309367
:103730005604209355042BE934E030935804209329
:10374000570423E02093500410925A041092590415
:103750005A9A90931C0780931B0790931E0780939F
:103760001D079093990580939805909396058093F3
:10377000950590938E0580938D0584E792E09F9345
:103780008F930E941E2E80918C051F928F9386E648
:1037900092E09F938F930E94430580917100817FF7
:1037A00080937100109290008AE0809391001092B3
:1037B00099001092980010929B0010929A0010921B
:1037C0009D0010929C0010929500109294003E9AD9
:1037D000469883EE94E00E941D29BE016F5E7F4FE4
:1037E00080E090E00E94FD2940E150E063EE74E04B
:1037F000CE0141960E9453310F900F900F900F9081
:103800000F900F90892B39F500E011E0BE016F5F3A
:103810007F4FC8010E94FD2989819A8181329E448F
:10382000D0F48B819C8181329E44A8F48D819E814D
:103830000C978D34924078F48F8198850C978D3455
:10384000924048F48985803430F48B859C85893892
:10385000934108F48BC08FEF9FEF90930A01809300
:10386000090190930801809307018FEF9FEFDC011E
:103870008093DD049093DE04A093DF04B093E00412
:103880000E946828EEE5F6E64591559165917491A0
:1038900080E090E0DC01E0E0F0E026E6EE35F207C3
:1038A00051F09F012F5F3F4FE4918E0F911DA11D9D
:1038B000B11DF901F2CF481759076A077B07C9F410
:1038C00080E090E0DC01E0E0F0E79F012F5F3F4FF8
:1038D000E4918E0F911DA11DB11DF901203F3F47BD
:1038E000A1F786369D49A740B10509F473C082E06F
:1038F00001C081E00E94211384B1817F84B984B129
:10390000876084B985B1817F85B9289A80E58CBDAF
:103910001DBC8AB182618AB98BB182618BB98FE398
:103920009CE90197F1F700C00000249A2C9A2C988A
:103930002C9A60E880E00E947C2960EE81E00E9481
:103940007C296AE882E10E947C2960EE83E10E9482
:103950007C2980E00E946A29803809F06EC081E0ED
:103960000E946A29803E09F068C0DCC2005F1F4FD8
:10397000003851E0150709F049CF80E093E00E943C
:10398000EE2E90930A018093090180E193E00E945A
:10399000EE2E909308018093070182E093E00E944D
:1039A000EE2E909306018093050182E193E00E9440
:1039B000EE2E909304018093030184E193E00E9432
:1039C000E62E8093E20486E193E00E94E62E809347
:1039D000E10458CFCE0101960E941D29FE013196C7
:1039E00080E18E0F91919F3F21F48E13FBCF83E0F6
:1039F00081CF89E0E0E0F0E080935700E491EE357C
:103A000009F0E3C2E3E0F0E080935700E491E83D81
:103A100009F0DBC2E2E0F0E080935700E491E83C7B
:103A200009F0D3C2E1E0F0E08093570084918F73F6
:103A30008F3209F461CF85E05DCF9FEF80918C05D7
:103A40008E7F81F48091F40487FF0CC08EE592E0B4
:103A50009F938F930E94430580E00E9463290F90FB
:103A60000F90FFCF9F3F19F486E00E942113109220
:103A7000F6041092F50480917A00876080937A00B2
:103A800080917C00806480937C0080917A008068C3
:103A900080937A0013E010937E000E94850D279A90
:103AA000209A559A509A2F9A289A5D9A589A81E0AE
:103AB0008093F7048093800584E180938805809348
:103AC000890580938A0580938B0580938705259AC5
:103AD000269A2D982E9856985798519A549A599AF2
:103AE0005C9A80E00E94090D082F001F0027001F2C
:103AF00081E00E94090D87FD02C0002321F087E0CC
:103B00000E942113D0C08091F8049091F904A091F3
:103B1000FA04B091FB04B07F9C01AD015460209386
:103B2000F8043093F9044093FA045093FB046CEECC
:103B300080E00E945D0C8091010590910205A091AA
:103B40000305B0910405B07F9C01AD015260209344
:103B500001053093020540930305509304056CEE74
:103B600081E00E945D0C68E180E00E94A30C66E0A9
:103B700080E00E94920C68E181E00E94A30C68E062
:103B800081E00E94920C9FEFA0E7B2E09150A0402C
:103B9000B040E1F700C0000005E2EAE0F5E0DF0137
:103BA000202F1D922A95E9F788E580930A0580E287
:103BB00093E090930C0580930B0580E8E82E8CE051
:103BC000F82EF0920E05E0920D0580EC94E49093AF
:103BD000100580930F058AEF90E090931205809373
:103BE0001105909314058093130580E00E94CA0A82
:103BF000EFE2F5E0DF011D920A95E9F789E5809390
:103C00002F05F0923105E092300580EC93E090931F
:103C100033058093320580E095E0909335058093DD
:103C200034058CE090E090933705809336059093AF
:103C300039058093380581E00E94CA0A809181008D
:103C40008F7E8093810080918100886080938100C5
:103C5000809180008D7F80938000809180008E7F96
:103C600080938000809180008F738093800080918A
:103C700080008F7C8093800080918100887F8260AB
:103C80008093810080E092E0909389008093880087
:103C9000109285001092840080916F008260809362
:103CA0006F001093860580B38F7080BB81B3806FE7
:103CB00081BB80910C01877E80930C0188E090E0AD
:103CC0000E94201B1092790560E070E08CED93E477
:103CD0000E94B50682E390E090937B0580937A057D
:103CE00010927C0510927D0510927E0510927F0542
:103CF00014BC83E085BD86E086BD80916E00816046
:103D000080936E0084B5836084BD8DE787BD80910C
:103D10006E00826080936E0080916A008F7C809339
:103D20006A0080916A00806280936A0080919405A5
:103D300081110DC00E94DA27882321F088E00E94BB
:103D4000211305C081E00E94DA278111F7CF80910D
:103D5000940581110DC00E94B51A9093830580933C
:103D6000820581E00E94B51A9093850580938405B1
:103D70008091940581110AC082E08093800598E0CB
:103D800090930D01809394051092810509E415E04C
:103D9000A89580918F0590919005892B39F48DB766
:103DA0009EB79093900580938F051BC020918F053F
:103DB000309190058DB79EB72817390791F0F89488
:103DC00098E088E10FB6F894A895809360000FBE44
:103DD0009093600085EA9AE5909301098093000929
:103DE000FFCF8091C4059091C5058A97CCF08FEFE5
:103DF00022C08D30F1F08A30E1F02091C40530917D
:103E0000C505F901E656FA4F80838823A1F02F5F9C
:103E10003F4F3093C5052093C4052A3231055CF429
:103E200080919805909199050E94A82D87FFE1CF78
:103E300002C080E0E2CF2091C4053091C5052A324E
:103E400031052CF03F932F931F930F935EC01216F2
:103E500013060CF064C0811162C08091970588231D
:103E600081F060919505709196058AE995E00E9430
:103E70006F3160919505709196058AE090E00E94FF
:103E8000E62D30919A05313219F03F3309F069C0BF
:103E9000E0919B05EE2309F46BC080919E058F7D18
:103EA00009F04CC02DE043E067EA73E08BE995E050
:103EB00039A30E941D0539A18F3F09F452C0E3E0E8
:103EC0000E2E000CFF0BE556FA4F9081911147C062
:103ED000909194059F3F09F44DC080939305313232
:103EE00009F04EC04DE06BED73E00E940505482FD0
:103EF000552741950CF450959A018823A1F180E44F
:103F000095E03F932F939F938F930E9457051092B4
:103F1000C5051092C4050F900F900F900F900E944E
:103F2000E41036CF82E10E946A298093F30483E192
:103F30000E946A298093F40490E080CD80919F05CF
:103F40008F7D79F42CE344E06BE772E08BE995E038
:103F500039A30E941D0539A18F3F41F402C0903260
:103F6000A9F08DEFC4CF85E495E0CBCFE4E0A8CFF6
:103F700080E0A6CF823008F4B0CF813421F5ADCFF8
:103F80003F3379F745E362E074E0AFCF319690912B
:103F900094059F3FC1F0803E20F0909194059430AD
:103FA00091F480939305F0939205E093910531325B
:103FB00021F440E361EA74E098CF3F3391F645E0A5
:103FC00061E375E092CF8BEF92CF84E093CC1F92A8
:103FD0000F920FB60F921124EF92FF921F932F931F
:103FE0003F934F935F936F937F938F939F93AF9381
:103FF000BF93EF93FF93CF93DF9300D000D0CDB763
:10400000DEB780911407909115079C012F5F3F4FF9
:104010003093150720931407883E934008F449C055
:104020001092150710921407789480911307882333
:1040300039F0815080931307811102C00E946329D7
:1040400080919405833099F480911207882379F048
:1040500080911207815080931207811108C082E07D
:104060008093800598E090930D0180939405809152
:10407000F40487FD17C0809111078F5F80931107AB
:10408000863090F060E070E08CE593E40E94B50625
:1040900084E690E090937B0580937A0580E00E940F
:1040A000632902C01092110784E090E00E94201B57
:1040B00001C0789480910009909101098A35954A50
:1040C00091F0F89498E088E10FB6F894A895809361
:1040D00060000FBE9093600085EA9AE59093010915
:1040E00080930009FFCF809194058F3F19F40E94BF
:1040F000440656C480910F07909110070097A9F0CD
:1041000001979093100780930F07892B71F480918A
:10411000F7048D7F8093F70480910C018E7F80934C
:104120000C0188E090E00E94201B80910D07909187
:104130000E07892B49F080910D0790910E0701978A
:1041400090930E0780930D0780917A0590917B05DF
:10415000009749F0019790937B0580937A05892B0E
:1041600011F41092900080910C0781110DC0809184
:104170005B0490915C048168986090935C048093E8
:104180005B048BE080930C0710910B07812F8370E9
:1041900009F4BDC011FBEE27E0F980910C078230D5
:1041A00009F041C00E94CB2780FF1CC0409103074B
:1041B0005091040760910507709106074427552721
:1041C0006627707E90910207411551056105704682
:1041D00021F4943138F49F5F03C0992319F0915072
:1041E0009093020781FF95C04091070750910807FF
:1041F0006091090770910A07442755276627707E4A
:1042000080910107411551056105704629F48431FB
:1042100008F07FC08F5F04C0882309F47AC0815002
:104220008093010776C0813009F073C08091030745
:104230009091040793709A838983E0900707F09028
:10424000080723E0F222FC82EB82A091000721E024
:104250002A0F20930007B0E0A050BA4FF0E0EE0F15
:10426000FF1FEC0FFD1F2181328136952795369572
:1042700027952C932091FF052F3F19F02F5F209356
:10428000FF05212F21712130D1F43091120131111C
:1042900016C08097A0F48091260590912705892B60
:1042A00071F42093FE0560E070E08AE794E40E94D8
:1042B000B50684EF91E090937B0580937A051272A6
:1042C000123239F580911101811119C050E2E516C1
:1042D000F104A8F480914B0590914C05892B79F459
:1042E00082E08093FE0560E070E08AE794E40E943B
:1042F000B50684EF91E090937B0580937A058091D9
:10430000F30487FD06C082E08093FE0502C0109290
:10431000FE0580910C07815080930C078091FD056C
:104320009091FC05811162C040911A0791110AC059
:10433000209188052093F7052091F60540FB20F990
:104340002093F605209189052093F80520918A0590
:104350002093F90520918B052093FA055091800553
:104360002091F4053091F5055130D1F0F0F0523044
:1043700019F0533089F01BC0B901B4E07695679508
:10438000BA95E1F7213451E0350718F058E2561B91
:1043900009C06093FB050BC0213451E0350728F0BC
:1043A000509187055093FB0502C01092FB05509178
:1043B0000D01250F311D3093F5052093F4052138AB
:1043C000324020F01092F5051092F4053091F60578
:1043D000317F242F2E704091F70440FD02C040E051
:1043E00001C040E1232B242B2093F6052091F705F3
:1043F000291305C02091F6052E7F2093F605209104
:10440000F805281305C02091F6052D7F2093F605A9
:104410002091F905281305C02091F6052B7F2093E4
:10442000F6052091FA05281305C02091F605277F8F
:104430002093F6052091FB05281305C02091F60571
:104440002F7E2093F6058F5F8093FD05843110F059
:104450001092FD059F5F9093FC05983210F010922A
:10446000FC058091F60584FF02C02F9A01C02F98A9
:104470008091F60520E1829FC001112490910B01EB
:104480009F70892B80930B0182E090E00E94201B9B
:1044900080915B0490915C04892B09F444C1809164
:1044A0005B0490915C0481FF0EC060910B0182E17E
:1044B0000E947C2980915B0490915C048D7F909395
:1044C0005C0480935B0480915B0490915C0483FFA7
:1044D0000BC060910C0183E10E947C2980915B04F8
:1044E00090915C04877F1BC180915B0490915C0478
:1044F00080FF0BC082E10E946A298093F3048091BF
:104500005B0490915C048E7F0AC180915B04909162
:104510005C0482FF0BC083E10E946A298093F4044B
:1045200080915B0490915C048B7FF9C080915B0467
:1045300090915C0484FF0BC06091D30580E00E94E1
:10454000A30C80915B0490915C048F7EE8C0809105
:104550005B0490915C0485FF0BC06091D10580E005
:104560000E94920C80915B0490915C048F7DD7C077
:1045700080915B0490915C0486FF14C02091CD056E
:104580003091CE05309300052093FF0440E050E0C9
:1045900064E980E00E945D0C80915B0490915C0472
:1045A0008F7BBDC080915B0490915C0487FF1DC030
:1045B00019821A821B821C82AE014F5F5F4F6FE629
:1045C00080E00E94500B89819A81AB81BC818093ED
:1045D000030790930407A0930507B0930607809103
:1045E0005B0490915C048F779AC080915B049091FA
:1045F0005C0490FF0BC06091D40581E00E94A30C85
:1046000080915B0490915C049E7F89C080915B04E3
:1046100090915C0491FF0BC06091D20581E00E94F3
:10462000920C80915B0490915C049D7F78C0809196
:104630005B0490915C0492FF14C02091CF053091EF
:10464000D005309309052093080540E050E064E967
:1046500081E00E945D0C80915B0490915C049B7FE3
:104660005EC080915B0490915C0493FF1DC0198231
:104670001A821B821C82AE014F5F5F4F6FE681E0A2
:104680000E94500B89819A81AB81BC81809307077E
:1046900090930807A0930907B0930A0780915B04E1
:1046A00090915C04977F3BC080915B0490915C0487
:1046B00094FF18C019821A821B821C82AE014F5FC0
:1046C0005F4F6AE680E00E94500B89819A81937067
:1046D0009093CA058093C90580915B0490915C0416
:1046E0009F7E1DC080915B0490915C0495FF1BC070
:1046F00019821A821B821C82AE014F5F5F4F6AE6ED
:1047000081E00E94500B89819A8193709093CC052F
:104710008093CB0580915B0490915C049F7D909386
:104720005C0480935B048091F305882321F0815021
:104730008093F30594C084E18093F3058091EB05A9
:1047400087FF83C08F70E82FF0E021E030E0082E73
:1047500002C0220F331F0A94E2F74091F5045091F2
:10476000F60424233523232B71F420917800309113
:104770007900EE0FFF1FE951FA4F40815181240F5C
:10478000351F31832083882309F441C08091E605D9
:104790008F5F8093E6058430E0F180917905282FC2
:1047A00030E0220F331FF901E252FA4F4091E70542
:1047B0005091E80551834083F901EA52FA4F409144
:1047C000E9055091EA055183408321E130E0082E4C
:1047D00001C0220F0A94EAF79091D505292B209366
:1047E000D5058F5F182F137058E0159FC001112455
:1047F00090910C01977E892B80930C0188E090E0CA
:104800000E94201B109379050E94850D02C021E0B3
:1048100001C020E0922F80E041E050E0BA016370D7
:104820007727672B19F0992331F090E0440F551F3B
:104830008F5F803199F790917C008770987F892BEA
:1048400080937C002093EB050AC080917A008064FD
:1048500080937A008091EB0580688093EB052FB1FF
:1048600022952F708091F20582279091F605892379
:104870002093F2059091FD059330E0F080FF05C094
:104880009091EE059F5F9093EE0581FF05C090919A
:10489000EF059F5F9093EF0582FF05C09091F005B3
:1048A0009F5F9093F00583FF05C08091F1058F5FB6
:1048B0008093F10580910F019091100101979093E1
:1048C000100180930F01892BD1F52091EE05809185
:1048D000160790E0820F911D959587958093160796
:1048E0002091EF058091170790E0820F911D95951B
:1048F0008795809317072091F0058091180790E025
:10490000820F911D95958795809318072091F10549
:104910008091190790E0820F911D9595879580935E
:1049200019071092EE051092EF051092F005109203
:10493000F10588E592E09093100180930F0190912A
:104940001A0790FF04C081E020911607211180E032
:1049500091FF05C020911707211101C0826092FFCD
:1049600005C020911807211101C0846093FF05C084
:1049700090911907911101C0886090910E018923CF
:104980008093ED058091EC05833051F4629B08C063
:1049900081E08093EC0580910B078E7F80930B075D
:1049A0000F900F900F900F90DF91CF91FF91EF91AB
:1049B000BF91AF919F918F917F916F915F914F9137
:1049C0003F912F911F91FF90EF900F900FBE0F908E
:1049D0001F901895EF92FF920F931F93CF93DF9341
:1049E000D82F082F10E0980129533A4F7901F90187
:1049F00080811F928F931F92DF938CEA95E09F93A3
:104A00008F930E941E2EF70180811F928F931F9219
:104A1000DF9385E995E09F938F930E941E2EF70107
:104A2000808183702DB73EB7245F3F4F0FB6F89457
:104A30003EBF0FBE2DBF882311F0C0E801C0C0E00B
:104A4000000F111F000F111FF801ED5FF84F80815B
:104A50009181A281B381B2FDC062B1FDC064D11168
:104A600011C0809102071F928F9381E895E09F9378
:104A70008F930E941E2E0F900F900F900F90809199
:104A8000020712C0D13099F4809101071F928F93D1
:104A90008EE695E09F938F930E941E2E0F900F90AD
:104AA0000F900F9080910107843108F0C0618C2F26
:104AB000DF91CF911F910F91FF90EF900895EF92AA
:104AC000FF921F93CF93DF93182FEB01111142C078
:104AD00080E890E00E940B1B8091030790910407EF
:104AE000A0910507B0910607B7FFF2CFE12EF12C98
:104AF00085E2189FF0011124E65FFA4F88819981C1
:104B0000948383838A819B81968385838C819D8115
:104B1000908787838E819F8192878187812F0E94D2
:104B2000CA0A9701F901ED52FA4F88858083F9018D
:104B3000EF52FA4F89858083220F331FF901E35327
:104B4000FA4F8A859B8591838083111115C080E778
:104B500090E016C0113009F0B9CF80E098E00E94D3
:104B60000B1B8091070790910807A0910907B0914E
:104B70000A07B7FFF2CFBACF113049F480E097E0CF
:104B8000DF91CF911F91FF90EF900C940B1BDF9161
:104B9000CF911F91FF90EF9008950F931F93CF93A4
:104BA000DF93EB01082F10E095E2899FF0011124BB
:104BB000E65FFA4F2381348139832883258136814A
:104BC0003B832A83278130853D832C832185328551
:104BD0003F832E830E94FA0C888789E0809FF00132
:104BE000819FF00D1124E850FB4F868189878781D2
:104BF00090859B878A87DF91CF911F910F910895B0
:104C00001F920F920FB60F92112410927C051092F2
:104C10007D0510927E0510927F05EE98789480E0D5
:104C20000E94B62780E00E942C2980E00E9449293A
:104C300060E070E08AEF94E40E94B50680ED97E0B2
:104C400090937B0580937A0587E695E09F938F93F9
:104C50000E9443050F900F90C12CD12C7601C2E623
:104C6000D5E0FF92EF92DF92CF92DF93CF930E9435
:104C700043056091C6058FEF860F0F900F900F9040
:104C80000F900F900F908E3F48F48FEF93E00E94AB
:104C90000C2F8091C6058F5F8093C6058AE0C80EF1
:104CA000D11CE11CF11C80917C0590917D05A091A7
:104CB0007E05B0917F058C159D05AE05BF0598F367
:104CC000D0CFCF93DF93EC0180910B0781FD37C0EC
:104CD000409142055091430560914405709145050E
:104CE000CE010D2E000CAA0BBB0B840F951FA61F27
:104CF000B71F8093420590934305A0934405B0935A
:104D00004505D7FF07C0D195C195D1090E94AC27B1
:104D1000826003C00E94AC278D7F0E949D2721974F
:104D200060F0F89482E00E94842778948FE99FE0F5
:104D30000197F1F700C00000F2CF80E001C08EEFD4
:104D4000DF91CF910895CF93DF93EC0180910B0712
:104D500080FD37C040911D0550911E0560911F05D3
:104D600070912005CE010D2E000CAA0BBB0B840FF9
:104D7000951FA61FB71F80931D0590931E05A09336
:104D80001F05B0932005D7FF07C0D195C195D10964
:104D90000E94AC27816003C00E94AC278E7F0E94D6
:104DA0009D27219760F0F89481E00E9484277894F1
:104DB0008FE99FE00197F1F700C00000F2CF80E09B
:104DC00001C08EEFDF91CF9108951F93CF93DF93B2
:104DD00000D000D0CDB7DEB7162FEFECF7E031975B
:104DE000F1F700C00000F89419821A821B821C821D
:104DF000AE014F5F5F4F64E00E94500B8981789451
:104E0000812783710F900F900F900F90DF91CF91BA
:104E10001F9108958F929F92AF92BF92CF92DF928F
:104E2000EF92FF920F931F93CF93DF93CDB7DEB72F
:104E300060970FB6F894DEBF0FBECDBFD82EB62E4A
:104E40009E012F5F3F4F7901B9010E94CD25D110FE
:104E500006C0B7FC02C0E5E00AC0E7E008C031E0E8
:104E6000D3120CC0B7FC02C0E6E001C0E8E0F0E0FD
:104E7000EE0FFF1FE55FFB4F80809180B7FC0BC0FA
:104E8000B701C4012B2D30E12302800D911D1124A7
:104E90000E94162A26C0A12CB12C80E1C82ECE0C6F
:104EA000D11004C085010C5B194F06C081E0D812F7
:104EB00003C085010C531A4FD701F801CA1621F01F
:104EC00084918D933196FACFB701C501880D991D54
:104ED0000E94162A90E1A90EB11C20E8A216B10486
:104EE000F9F660960FB6F894DEBF0FBECDBFDF9126
:104EF000CF911F910F91FF90EF90DF90CF90BF90D7
:104F0000AF909F908F90089580FD2D9A81FD2E9AED
:104F10002D982E980895882319F0813019F008955E
:104F2000599A08955C9A0895882319F0813019F0F0
:104F30000895599808955C980895EBE0F1E0282FC2
:104F4000217090819A7F922B8270880F892B8083A9
:104F500082E090E00C940B1B80910B01282F2470B1
:104F600030E0359527958170822B089593E089274D
:104F7000EBE0F1E0282F217030E0220F331F827028
:104F8000880F880F282B8081857F282B208382E043
:104F900090E00C940B1B90910B01292F287030E0AE
:104FA000359527953595279596959170922B83E0A9
:104FB00089270895EF92FF920F931F93CF93DF936A
:104FC000C82F01E010E001C0000F8A95EAF70E94A7
:104FD000CB27F82E0E94AC27E82ED02FD0958F2D0E
:104FE0008D230E94B6278E2D8D230E949D2760E180
:104FF0008C2F0E94E526D82FCC2321F0C13019F444
:105000002E9A01C02D9A61E18C2F0E94E526D82BA3
:10501000CC2321F0C13019F42E9801C02D988E2D8B
:10502000802B0E949D2762E18C2F0E94E526D82BC1
:10503000802F0E9484278F2D802B0E94B62762E04C
:105040008C2F0E94E526D82B8E2D0E949D278F2D18
:105050000E94B6278D2FDF91CF911F910F91FF9066
:10506000EF90089564EC76E09695879596958795F0
:105070000C9498299C013695279536952795AAEB8F
:10508000B3E10E94742FDC01CB012AE0B695A7950D
:10509000979587952A95D1F79C01AD01442755270F
:1050A000A2EBB9E00E94832FAB01BC013AE07695F8
:1050B0006795579547953A95D1F780911901909149
:1050C0001A01841B950B97FF02C080E090E00895C1
:1050D0008091DD049091DE04A091DF04B091E004A2
:1050E00080FF06C063EE74E080E090E00E94162A24
:1050F0008091DD049091DE04A091DF04B091E00482
:1051000085FF07C06091120167FD03C080E00E9427
:105110000A278091DD049091DE04A091DF04B09114
:10512000E00486FF07C06091110167FD03C081E0C4
:105130000E940A278091DD049091DE04A091DF0493
:10514000B091E00487FF04C06FEF80E00E940A275F
:105150008091DD049091DE04A091DF04B091E00421
:1051600090FF04C06FEF81E00E940A278091DD0468
:105170009091DE04A091DF04B091E00491FF08C09B
:105180006091090170910A0180E093E00E94062F6E
:105190008091DD049091DE04A091DF04B091E004E1
:1051A00092FF08C0609107017091080180E193E0CF
:1051B0000E94062F8091DD049091DE04A091DF040F
:1051C000B091E00493FF08C0609105017091060161
:1051D00082E093E00E94062F8091DD049091DE042E
:1051E000A091DF04B091E00494FF08C06091030136
:1051F0007091040182E193E00E94062F8091DD040A
:105200009091DE04A091DF04B091E00495FF0CC002
:105210006091E20484E193E00E94F42E6091E10445
:1052200086E193E00E94F42E1092DD041092DE04D9
:105230001092DF041092E004089520E030E0F901BC
:10524000E051F048E491DC01ED93CD012F5F3F4F39
:1052500020313105A1F7089590911A079095982370
:10526000F89490FF03C022E02093160791FF03C03B
:1052700022E02093170792FF03C022E02093180733
:1052800093FF03C092E09093190780931A077894D4
:1052900008958093F70484FF02C0289801C0289ADB
:1052A0009091F70495FF02C05D9801C05D9A8670E9
:1052B000869590910C019C7F892B80930C0188E04E
:1052C00090E00C94201B3F9A882311F0479A089590
:1052D00047980895CF93C82F80E58CBD1DBC2C98AE
:1052E00081E40E9403078C2F0E9403078FEF0E9426
:1052F00003072C9ACF9108951F93CF93DF931F92AA
:10530000CDB7DEB7182F80E58CBD1DBC2C9880E48E
:1053100069830E940307812F0E9403076981862FFA
:105320000E9403072C9A0F90DF91CF911F9108954F
:10533000EF92FF921F93CF93DF93FB01EE5BFF4F42
:1053400025913491821793070CF04CC0FB012591F5
:105350003491281739070CF048C013E2A1E2B0E0FD
:1053600040E050E021E1115009F439C030E0E9019A
:10537000CC0FDD1FFB01EC0FFD1FE590F490FE014B
:105380003296E60FF71FC591D491C817D90724F4B8
:10539000A9012A0F3B1F06C08E159F0534F4D901C1
:1053A000240F351F35952795DECF4EEC4203B00113
:1053B000439F700D11249B012E513B4FBC016E1970
:1053C0007F094603C001479F900D1124BE016E194D
:1053D0007F090E943E2FC901860F971F08C080E0F9
:1053E00090E005C080E79EEF02C082EE94E0DF917E
:1053F000CF911F91FF90EF900895EF92FF921F932E
:10540000CF93DF93EB0111E17C01E61AF70A11500B
:1054100039F0C7018C0F9D1F0E94E62E8993F7CFAC
:10542000DF91CF911F91FF90EF900895EF92FF923F
:105430000F931F93CF93DF937C018B01C0E0D0E0EB
:10544000F80161918F01CE018E0D9F1D0E94F42EF7
:105450002196C031D105A1F7DF91CF911F910F9116
:10546000FF90EF900895ACE0B0E0E9E3FAE20C942D
:105470003B2D6C015B017A01FC011782168283814E
:1054800081FF0EC1CE0101964C01F6010381F501A9
:1054900003FD159103FF11915F01112309F4FCC075
:1054A000153249F403FD159103FF11915F01153287
:1054B00011F020E01BC0B601812F90E00E94E62D84
:1054C00037017301E2CF112309F4E6C0612F70E0C8
:1054D0008FE097E02C870E94952D2C85892B49F031
:1054E000F50103FD159103FF11915F0127FFEBCF3C
:1054F00009C0133229F01C3609F0D5C02068F0CF5E
:1055000020E1EECF022F112309F4C6C0612F70E015
:1055100088E097E02C870E94952D2C85892B41F0FF
:105520003701F4E06F0E711CB6018FE390E011C0FB
:10553000133639F0133781F0133519F5022F016056
:105540000BC0370182E0680E711CB601F701808143
:1055500091810E94E62DB5CF3701F2E06F0E711CEC
:10556000F701E080F180F70100FD859100FF819156
:105570007F01882309F4A5CFB60190E00E94E62DB3
:10558000F2CF143611F0193629F5370127FF09C07B
:10559000F4E06F0E711CF70160817181828193814B
:1055A0000AC0F2E06F0E711CF70160817181072E55
:1055B000000C880B990B022F0F7E97FF08C0909567
:1055C0008095709561957F4F8F4F9F4F00642AE0C3
:1055D00030E033C0103799F040F41835B1F01F3681
:1055E00009F05AC028E030E014C0153719F0183718
:1055F00041F052C0022F0F7E2AE030E00AC0022F95
:105600000061046220E130E004C0022F046020E168
:1056100032E0370107FF09C0F4E06F0E711CF7019B
:10562000608171818281938108C0F2E06F0E711CEC
:10563000F7016081718180E090E0A4010E94852ED5
:10564000182F181906FF05C0B6018DE290E00E94E0
:10565000E62D04FF15C0FE01E10FF11D80818033AE
:1056600079F0B60180E390E00E94E62D02FF08C0C9
:105670000072802F90E0B601885A9F4F0E94E62D5D
:105680001150F401E10FF11D8081B60190E00E94FC
:10569000E62D1111F5CF15CFF6018681978105C052
:1056A0008FEF9FEF02C0022F31CF2C96EEE00C94CB
:1056B000572D20FD09C0FC0123FD05C022FF02C0BB
:1056C0007383628351834083089544FD10C046FD77
:1056D00010C0DB01FC01AA0FBB1FEE1FFF1F1094BF
:1056E000D1F76A0F7B1F8E1F9F1F31E003C033E08D
:1056F00001C034E0660F771F881F991F3150D1F722
:10570000620F711D811D911D08950F931F93CF93FB
:10571000DF938C01C8010E94A82DEC0197FD08C001
:105720000E948C2D892BB1F7B801CE010E946C2EFE
:10573000CE01DF91CF911F910F910895A1E0B0E0CC
:10574000E4EAFBE20C943D2D8C01C62E7A012983FC
:105750000E94A82DAC01552729814B32510521F01B
:105760004D32510569F42068CA94C11002C080E02E
:1057700076C0C80129830E94A82D298197FDF7CF03
:10578000322F3D7FD32E322F307349F5803339F5D8
:10579000BB24BA94BC0C09F44EC0C80129830E94F2
:1057A000A82D298197FD47C0382F3F7D383569F4F2
:1057B0008D2D8264D82ECA94CA94CC20E1F1C80100
:1057C0000E94A82D97FF0BC036C026FF04C02D2DC8
:1057D0002260D22E03C03D2D3261D32ECB2C812CE2
:1057E000912C540120ED280F283080F0D4FE04C005
:1057F000B8010E946C2E1CC02A3040F0D6FEF8CFB3
:105800002F7D3FEE320F363098F727504D2DC501D2
:10581000B4010E94652B4B015C018D2D8260D82E56
:10582000CA94CC2059F0C8010E94A82D97FFDACF66
:10583000D1FC04C09CCF812C912C5401D7FE08C010
:10584000B094A09490948094811C911CA11CB11CD4
:105850002D2DB501A401C7010E94592B81E021968D
:10586000ECE00C94592DA1E0B0E0E9E3FCE20C94EB
:10587000392D7C012B015A01FC0117821682812CE3
:10588000F7017380F20173FC859173FE8191382FCB
:105890002F01882309F4E2C090E039830E948C2D07
:1058A0003981892B21F0C7010E94852BE9CF353240
:1058B00041F4F20173FC359173FE31912F013532C1
:1058C00069F4C70139830E94A82D398197FDC4C0AE
:1058D0003817B1F2B7010E946C2EC0C03A3239F4C9
:1058E00073FC359173FE31912F0111E001C010E07E
:1058F000620160E020ED230F2A3070F4126070E046
:1059000080E090E040E20E94652BF60173FC359147
:1059100073FE31916F01EECF962E032F260111FFFA
:1059200003C0611103C09AC099249A94383619F0C3
:105930003C3651F010C0F60173FC059173FE0191E5
:105940002F01083641F418601460F20173FC0591D0
:1059500073FE01912F01002309F480C0602F70E0D5
:105960008FE197E00E94952D892B09F477C010FDF7
:1059700007C0F501C080D180C50102965C0102C05C
:10598000C12CD12C0E3651F4F7014681578160E0CD
:1059900070E0212FC6010E94592B72CF0336A9F463
:1059A00011FD02C099249394C7010E94A82D97FD70
:1059B00053C0C114D10429F0F6018083C6010196B9
:1059C0006C019A949110F0CF43C0C7010E94852BBF
:1059D00097FD42C00F3661F128F4043639F10936DB
:1059E00051F128C0033771F0053701F123C0C1140C
:1059F000D10429F0F6016082C60101966C019A94E7
:105A0000992071F0C7010E94A82D3C0197FD08C0A4
:105A10000E948C2D892B59F3B701C3010E946C2E73
:105A2000C114D104A9F0F601108212C0106203C0A3
:105A3000106101C01064212FA601692DC7010E94C9
:105A40009E2B811105C0F7018381807329F406C064
:105A500010FD16CF839414CF882019F0882D90E084
:105A600002C08FEF9FEF2196E0E10C94552D2F920D
:105A70003F924F925F926F927F928F929F92AF92DE
:105A8000BF92CF92DF92EF92FF920F931F93CF932B
:105A9000DF93CDB7DEB7CA1BDB0B0FB6F894DEBFC2
:105AA0000FBECDBF09942A88398848885F846E84E8
:105AB0007D848C849B84AA84B984C884DF80EE8032
:105AC000FD800C811B81AA81B981CE0FD11D0FB63B
:105AD000F894DEBF0FBECDBFED010895FC0188270D
