:100000000C9402030C941F030C941F030C941F0305
:100010000C941F030C941F030C941F030C941F03D8
:100020000C941F030C941F030C941F030C941F03C8
:100030000C941F030C941F030C941F030C941F03B8
:100040000C941F030C94BF120C941F030C941F03F9
:100050000C941F030C940D200C941F030C94FB1E96
:100060000C941F030C94B91E0C941F030C948A1E4D
:100070000C941F030C941F030C941F030C941F0378
:100080000C941F030C941F030C941F030C941F0368
:100090000C941F030C941F030C941F030C941F0358
:1000A0000C941F030C941F030C941F036E616E00CD
:1000B000696E660000407A10F35A00A0724E18096B
:1000C0000010A5D4E80000E87648170000E40B54BF
:1000D000020000CA9A3B000000E1F505000080968E
:1000E0009800000040420F000000A08601000000C0
:1000F000102700000000E80300000000640000007A
:1001000000000A00000000000100000000002C7642
:10011000D888DC674F0823DFC1DFAE59E1B1B7965D
:10012000E5E3E453C63AE651997696E8E6C28426BA
:10013000EB898C9B62ED407C6FFCEFBC9C9F40F296
:10014000BAA56FA5F490055A2AF75C936B6CF96712
:100150006DC11BFCE0E40D47FEF520E6B500D0EDD7
:10016000902E0300943577050080841E080000203F
:100170004E0A000000C80C333333330F986E1283DD
:100180001141EF8D2114893BE65516CFFEE6DB18B1
:10019000D1844B381BF77C1D901DA4BBE424203276
:1001A00084725E228100C9F124ECA1E53D276364DD
:1001B000696E6F70737578585B00736C615F63660E
:1001C000675F6C6F61640A00736C615F6366675F91
:1001D000696E69740A00746D63323133305F696E21
:1001E0006974282920253032780A0073746172748A
:1001F0000A0070737064007570776D0076726177B5
:10020000007472617700626F6F74007769646C00CC
:1002100066616E65006670776D007070776D007650
:100220006F6C740072736D65007273737400727317
:10023000656E006563686F0074696373007477634B
:100240007300746963660074776366007469706F25
:10025000007477706F0074696D610074776D610070
:10026000656577780065657278006565636C007414
:10027000656D70006672706D0074697367007477E5
:100280007367007469686F007477686F00746963DE
:10029000750074776375007477646E007477757099
:1002A000006D6F74720074656D750074656D730018
:1002B00066616E7300636F767300636C65640075CE
:1002C0006C6564007368646E00706C6564006265E0
:1002D0006570006C6F670065727200656E64006D1A
:1002E0006F7400646972006C656400656E61007310
:1002F0006572007665720072737400256C69200067
:10030000253032780000534C412D636F6E74726F4C
:100310006C2025642E25642E25642D25642553200C
:1003200000256C75256E002569256E00256C6925F4
:100330006E006525640A006F6B0A004552524F52E9
:100340003A20636F6D6D616E64206F766572666CC6
:100350006F770A004552524F523A207278206275E8
:1003600066666572206F766572666C6F770A002527
:1003700075200025752000256920002569200025AD
:10038000686875256E002575256E002568686925E5
:100390006E0066018801AC01D301FA0123024C0210
:1003A00075029D02C502EA020E032F034D03690385
:1003B00081039603A903B903C703D203DB03E30355
:1003C000EA03EF03F303F603F803FA03FC03FD0368
:1003D000FE03FE03FF03237469686F342D20256438
:1003E00020256C6420256C640A00237469686F33CF
:1003F0002D20256420256C6420256C640A0023745C
:1004000069686F322D20256420256C6420256C647A
:100410000A00237469686F312D20256420256C64DF
:1004200020256C640A00237469686F302D202564D0
:1004300020256C640A00237477686F342D202564AE
:1004400020256C6420256C640A00237477686F3360
:100450002D20256420256C6420256C640A002374FB
:1004600077686F322D20256420256C6420256C640C
:100470000A00237477686F312D20256420256C6471
:1004800020256C640A00237477686F302D20256462
:1004900020256C640A006572726F722025640A0060
:1004A000800200053C003C001206B0040000000081
:1004B0006801D002280028001005DC0500000000BB
:1004C000C0030005140014001808DC05000000003B
:1004D00064009600320032001400DC0500000000C9
:1004E000640020030C000C00200AD007000000006C
:1004F000640020030C000C001207D007000000006D
:10050000BC0220030C000C003F14D00700000000C8
:10051000C0031405320032000F037E040000000007
:100520009808983A960096001206580200000000BB
:10053000C4094C1D5E015E010C027805000000003C
:10054000800C983AFA00FA000A03980800000000AC
:1005500064009600320032000F00DC05000000004D
:10056000800CC044FA00FA002206F40100000000EA
:10057000800CC044FA00FA001206F40100000000EA
:1005800040068025C800C8003F04F40100000000B8
:1005900040068025C800C8000700DC0500000000F8
:1005A000736C615F6366675F736176650A00736C85
:1005B000615F6366675F64656661756C740A0039C4
:1005C000015B017F01A601CF01FA01250252027EE3
:1005D00002A902D202FA021F0341035F037A0392C7
:1005E00003A603B703C603D203DC03E403EA03EF65
:1005F00003F403F703F903FB03FC03FD03FE03FF0E
:1006000003FF030011241FBECFEFDAE0DEBFCDBF32
:1006100024E0A0EAB2E001C01D92A334B207E1F7E2
:1006200012E0A0E0B1E0EEE2F2E602C005900D9229
:10063000A03AB107D9F70E9421030C9415310C940C
:100640000000CF93DF93CDB7DEB7A9970FB6F8942C
:10065000DEBF0FBECDBFF894A89584B7877F84BF57
:1006600098E1909360001092600078941092D70007
:100670001092D80085E18093C5008FE08093C6007A
:1006800080E880936100109261003F9A479A8091C0
:10069000C80082608093C80080E18093CC00909372
:1006A000C9008091C90080688093C9008CE3809361
:1006B000BE021092BF021092C0028CE08093AE0284
:1006C0001092AF021092B00280EA92E026E231E18D
:1006D0003093A9022093A8022DE031E13093AB02C0
:1006E0002093AA0223E02093A3021092AD0210925D
:1006F000AC025A9A90933E0480933D049093400438
:1007000080933F049093D6038093D5039093D403B2
:100710008093D30390930503809304032BEE31E081
:100720003F932F939F938F930E94762A88EC91E0BA
:100730009F938F93809105038F93809104038F93F0
:100740000E94762A81E2E1E0F0E080935700E49194
:10075000E0933B03E3E0F0E080935700E491E09303
:100760003C03E5E0F0E080935700E491E0933D0323
:10077000EEE0F0E080935700E491E0933E03EFE079
:10078000F0E080935700E491E0933F03E1E1F0E073
:1007900080935700E491E0934003E2E1F0E080931E
:1007A0005700E491E0934103E3E1F0E080935700C8
:1007B000E491E0934203E5E1F0E080935700E49197
:1007C000E0934303E6E1F0E080935700E491E09387
:1007D0004403E7E1F0E080935700E491E0934503A0
:1007E000E8E3F0E080935700E491E0934603EAE306
:1007F000F0E080935700E491E0934703E0E0F0E0FD
:1008000080935700E491E0934803E2E0F0E08093A6
:100810005700E491E0934903E4E0F0E0809357004F
:10082000849180934A03BE016F5E7F4F80E090E029
:100830000E94EE2440E150E06BE373E0CE0141966C
:100840000E94DE300FB6F894DEBF0FBECDBF892BFD
:1008500019F00E941C243CC08AEB91E09F938F9377
:10086000809105038F93809104038F930E94762AD1
:100870000F900F900F900F9000E011E0BE016F5F9E
:100880007F4FC8010E94EE2489819A8181329E4463
:1008900000F78B819C8181329E44D8F68D819E81A8
:1008A0000C978D349240A8F68F8198850C978D34E3
:1008B000924078F68985803460F68B859C858938EE
:1008C000934138F6005F1F4F003851E01507B1F62D
:1008D00084B1817F84B984B1876084B985B1817F17
:1008E00085B9289A80E58CBD1DBC8AB182618AB920
:1008F0008BB182618BB9EFEFF0E722E0E150F0407D
:100900002040E1F700C00000249A2C9A2C982C9AE1
:1009100060E080E00E94B92460EE81E00E94B9248A
:100920006AE082E10E94B92460EE83E10E94B9246A
:1009300080E00E94A724811156C281E00E94A72472
:10094000803E09F050C21092FF021092FE02809188
:100950007A00876080937A0080917C008064809325
:100960007C0080917A00806880937A0083E0809395
:100970007E000E94651E279A209A559A509A2F9AB7
:10098000289A5D9A589A81E08093CE0384E18093FF
:1009900056038093570380935803809359038093A1
:1009A0005A03259A269A2D982E9856985798519A18
:1009B000549A599A5C9A80E00E94EF1D182F111FDB
:1009C0001127111F81E00E94EF1D87FF02C01260F6
:1009D00003C0112319F011E0106801C010E0812F4D
:1009E000012E000C990B9F931F9386ED91E09F932E
:1009F0008F93809105038F93809104038F930E94BE
:100A0000762A0F900F900F900F900F900F9017FF76
:100A100003C08EEF0E94741162E280E00E94501DBC
:100A200066E080E00E943F1D68E181E00E94501D69
:100A300068E081E00E943F1D3FEF40E752E0315007
:100A400040405040E1F700C0000082E48F9380EA0C
:100A50008F931F921F92A12CB12C30EAC32E32E447
:100A6000D32EE12CF12C00EB11E420E030E040E843
:100A700050E460E273E080E00E94F81B8FE38F9304
:100A800080E88F931F921F92A12CB12C50E8C52EA5
:100A90005FE3D52E1DECE12E1CECF12E0CEC1EE3D9
:100AA0002AE939E949E95EE360E87CE081E00E94F7
:100AB000F81B809181008F7E80938100809181005E
:100AC000886080938100809180008D7F809380007A
:100AD000809180008E7F80938000809180008F7352
:100AE00080938000809180008F7C80938000809133
:100AF0008100887F82608093810080E092E0909303
:100B00008900809388001092850010928400809163
:100B10006F00826080936F0013E01093D00380B366
:100B20008F7080BB81B3806F81BB80E090E00E94BA
:100B3000F71F80917100817F809371001092900067
:100B40008AE0809391001092990010929800109280
:100B50009B0010929A0010929D0010929C0010929F
:100B60009500109294003E9A469880EE98E09093FB
:100B700099008093980080E48093900082E390E055
:100B80009093540380935303109200031092010337
:100B9000109202031092030314BC15BD86E086BDBB
:100BA00080916E00816080936E0084B5836084BD07
:100BB0008DE787BD80916E00826080936E000FB6D6
:100BC000F894DEBF0FBECDBF7E0195E2E90EF11CA9
:100BD000DE0111966D0177E2A72E73E0B72EECE2ED
:100BE0008E2EE3E09E2EF0E02F2EF3E03F2E8BE3DF
:100BF00093E0B0E1B80FB9A780910104909102048D
:100C00008A97CCF08FEF22C08D30F1F08A30E1F07E
:100C10002091010430910204F901E952FC4F8083D4
:100C20008823A1F02F5F3F4F3093020420930104EB
:100C30002A3231055CF48091D5039091D6030E944D
:100C4000382A87FFE1CF02C080E0E2CF2091010483
:100C5000309102042A3231052CF03F932F938BE31D
:100C600093E0AAC0121613060CF0BAC08111B8C0E6
:100C70008091D203882381F06091D3037091D403D3
:100C800087ED93E00E94EB306091D3037091D40321
:100C90008AE090E00E94912A1091D703113221F04E
:100CA0001F3311F08DEF79C0E091D803EE2309F4E2
:100CB00006C38091DB038F7D09F099C043E050E0CB
:100CC00067EF72E088ED93E00E94142A892B09F403
:100CD00086C243E050E063EF72E088ED93E00E944B
:100CE000142A892B09F47DC243E050E06FEE72E0D4
:100CF00088ED93E00E94142A892B09F474C243E022
:100D000050E06BEE72E088ED93E00E94142A892B8C
:100D100009F46BC243E050E067EE72E088ED93E0C7
:100D20000E94142A892B09F462C243E050E063EE6A
:100D300072E088ED93E00E94142A892B09F459C2CD
:100D400043E050E06FED72E088ED93E00E94142ADA
:100D5000892B09F450C243E050E06BED72E088ED5E
:100D600093E00E94142A892B09F447C243E050E023
:100D700067ED72E088ED93E00E94142A892B09F454
:100D80003EC243E050E063ED72E088ED93E00E94E4
:100D9000142A892B09F435C28DEF482F5527419528
:100DA0000CF450959A01882319F082E393E002C075
:100DB00087E393E03F932F939F938F938091D40386
:100DC0008F938091D3038F930E94762A109202040E
:100DD000109201040F900F900F900F900F900F90B2
:100DE0000E94621609CF8FEF0E947411ACCD8091E2
:100DF000DC038F7D09F0F1C144E050E06EEC72E05D
:100E000088ED93E00E94142A892B09F4FDC144E087
:100E100050E069EC72E088ED93E00E94142A892B7F
:100E200009F4F4C144E050E064EC72E088ED93E032
:100E30000E94142A892B09F4EBC144E050E06FEBC7
:100E400072E088ED93E00E94142A892B09F4E2C134
:100E500044E050E06AEB72E088ED93E00E94142ACF
:100E6000892B09F4D9C144E050E065EB72E088EDCC
:100E700093E00E94142A892B09F4D0C144E050E089
:100E800060EB72E088ED93E00E94142A892B09F44C
:100E9000C7C144E050E06BEA72E088ED93E00E9445
:100EA000142A892B09F4BEC144E050E066EA72E0DE
:100EB00088ED93E00E94142A892B09F4B5C144E01F
:100EC00050E061EA72E088ED93E00E94142A892BD9
:100ED00009F4ACC144E050E06CE972E088ED93E0C5
:100EE0000E94142A892B09F4A3C144E050E067E969
:100EF00072E088ED93E00E94142A892B09F49AC1CC
:100F000044E050E062E972E088ED93E00E94142A28
:100F1000892B09F491C144E050E06DE872E088ED5E
:100F200093E00E94142A892B09F488C144E050E020
:100F300068E872E088ED93E00E94142A892B09F496
:100F40007FC144E050E063E872E088ED93E00E94E6
:100F5000142A892B09F476C144E050E06EE772E070
:100F600088ED93E00E94142A892B09F46DC144E0B6
:100F700050E069E772E088ED93E00E94142A892B23
:100F800009F464C144E050E064E772E088ED93E066
:100F90000E94142A892B09F45BC144E050E06FE6FB
:100FA00072E088ED93E00E94142A892B09F452C163
:100FB00044E050E06AE672E088ED93E00E94142A73
:100FC000892B09F449C144E050E065E672E088ED00
:100FD00093E00E94142A892B09F440C144E050E0B8
:100FE00060E672E088ED93E00E94142A892B09F4F0
:100FF00037C144E050E06BE572E088ED93E00E9479
:10100000142A892B09F42EC144E050E066E572E011
:1010100088ED93E00E94142A892B09F425C144E04D
:1010200050E061E572E088ED93E00E94142A892B7C
:1010300009F41CC144E050E06CE472E088ED93E0F8
:101040000E94142A892B09F413C144E050E067E49C
:1010500072E088ED93E00E94142A892B09F40AC1FA
:1010600044E050E062E472E088ED93E00E94142ACC
:10107000892B09F401C144E050E06DE372E088ED92
:1010800093E00E94142A892B09F4F8C044E050E050
:1010900068E372E088ED93E00E94142A892B09F43A
:1010A000EFC044E050E063E372E088ED93E00E941B
:1010B000142A892B09F4E6C044E050E06EE272E0A5
:1010C00088ED93E00E94142A892B09F4DDC044E0E6
:1010D00050E069E272E088ED93E00E94142A892BC7
:1010E00009F4D4C044E050E064E272E088ED93E09B
:1010F0000E94142A892B09F4CBC044E050E06FE130
:1011000072E088ED93E00E94142A892B09F4C2C092
:1011100044E050E06AE172E088ED93E00E94142A16
:10112000892B09F4B9C044E050E065E172E088ED34
:1011300093E00E94142A892B09F4B0C044E050E0E7
:1011400060E172E088ED93E00E94142A892B09F493
:10115000A7C044E050E06BE072E088ED93E00E94AD
:10116000142A892B09F49EC044E050E066E072E046
:1011700088ED93E00E94142A892B09F495C044E07D
:1011800050E061E072E088ED93E00E94142A892B20
:1011900009F48CC044E050E06CEF71E088ED93E01E
:1011A0000E94142A892B09F483C044E050E067EFC1
:1011B00071E088ED93E00E94142A892B09F47AC02B
:1011C00044E050E062EF71E088ED93E00E94142A61
:1011D000892B09F471C08DEFE0CD8DEFDECD91E06C
:1011E00011C092E00FC093E00DC09CE00BC09DE0E9
:1011F00009C09FE007C090E105C091E103C091E400
:1012000001C092E4E3E05CC091E857C092E855C0A9
:1012100093E853C094E851C095E84FC099E84DC099
:101220009AE84BC09BE849C09CE847C09DE845C090
:101230009EE843C09FE841C095E93FC096E93DC0A4
:1012400097E93BC098E939C099E937C09AE935C0B8
:101250009DE933C09EE931C09FE92FC090EA2DC0BF
:1012600091EA2BC092EA29C093EA27C094EA25C0EC
:1012700095EA23C096EA21C097EA1FC098EA1DC0EC
:1012800099EA1BC09AEA19C09DEA17C09EEA15C0E8
:101290009FEA13C090EB11C091EB0FC092EB0DC011
:1012A00093EB0BC094EB09C095EB07C096EB05C020
:1012B00097EB03C098EB01C099EBE4E001C090E02C
:1012C0000E2E000CFF0BE852FC4F80818111E3C20F
:1012D000113209F064C0973991F198F49338F9F01C
:1012E0009D3819F1913009F01BC798E088E10FB6DD
:1012F000F894A895809360000FBE90936000F894D6
:101300000DC09F3971F118F4983911F109C7943B58
:10131000E1F1953B09F004C70E94781EFFCF3F9A88
:1013200047981092550380E038CD80E00E949623C4
:101330008FEF809303018093020180E02ECD809196
:10134000D10380FDF0C681E08093030180E025CDCC
:101350008091D10381FDEAC681E08093020180E0A3
:101360001CCD00E010E06FEFC8010E94262E0F5F39
:101370001F4F0115E4E01E07B1F780E00ECD80910C
:10138000030118163CF40E9462168091D103837009
:10139000B1F3F9CF809102011816ACF3EECF1F33F1
:1013A00009F0C7C6993909F4D4C108F071C0923860
:1013B00009F488C188F59D3009F470C1A0F4923019
:1013C00009F426C120F4992309F4FCC0B5C6933072
:1013D00009F440C19C3009F0AFC60E9449230E9425
:1013E000A21280E0DACC903109F45EC148F49F305B
:1013F00009F0A2C60E943F230E94A21280E0CDCC39
:10140000913109F458C1923409F096C68091CF0306
:101410000E94A21280E0C1CC9B3809F47DC1D8F4AF
:10142000953809F462C158F4943809F085C6809162
:10143000CE03869581700E94A21280E0AECC9938CE
:1014400009F45CC19A3809F077C6809152030E9472
:10145000A21280E0A2CC963909F46EC168F49C38DF
:1014600009F462C1953909F067C680E00E94A71DA2
:101470000E94A21280E091CC973909F464C1983996
:1014800009F05AC6809102010E94701280E085CC5A
:101490009A3A09F4F2C108F047C0953A09F4D7C165
:1014A00090F59D3909F45BC148F49A3909F044C6B6
:1014B000809115030E94A21280E06FCC9E3909F43E
:1014C00060C1943A09F038C6809171038F9380917E
:1014D00070038F9380916F038F9380916E038F932E
:1014E0008BEF92E09F938F938091D4038F938091A1
:1014F000D3038F930E94762A0FB6F894DEBF0FBEF7
:10150000CDBF80E04ACC973A09F4ADC108F4A7C139
:10151000983A09F4ACC1993A09F00EC680910001DD
:101520000E94701280E039CC923B09F478C1D0F46B
:101530009E3A09F4A8C150F49D3A09F0FDC5809186
:101540004D0381700E94A21280E027CC903B09F4E9
:1015500032C1913B09F0F0C580915A030E94A2125A
:1015600080E01BCC973B09F43AC100F5933B09F4AA
:1015700068C1963B09F0E0C5809123039091240354
:101580000E94591280912503909126030E945912BE
:1015900080912703909128030E945912809129037A
:1015A00090912A030E94591280E0F7CB983B09F4EE
:1015B00030C1993B09F0C0C5809107010E94A21279
:1015C00080E0EBCB8091D1038370282F30E0309303
:1015D0004C0320934B032091190327FD06C0806420
:1015E00090E090934C0380934B0325FD09C08091BC
:1015F0004B0390914C03806890934C0380934B0372
:1016000080914B0390914C030E948B1280E0C5CBDC
:1016100085E093E09F938F931F9288EE8F931F92A4
:1016200084E08F931F9289E08F931F921F9286E030
:1016300093E09F938F938091D4038F938091D303F2
:101640008F930E94762A0FB6F894DEBF0FBECDBFEF
:1016500080E0A3CB7090D3036090D4030BE313E03E
:10166000D8018D918D011F928F933F922F926F928F
:101670007F920E94762A0F900F900F900F900F90FC
:101680000F90B9A5B013ECCF6091D3037091D40340
:1016900080E290E00E94912A80E07FCB8091CE038F
:1016A0000E94A21280E079CB8091D1038F700E94BA
:1016B000A21280E072CB8091D0038F700E94A212A0
:1016C00080E06BCB9091CE03892F817090FF09C091
:1016D00097FD04C096FD04C081E003C083E001C013
:1016E00082E00E94A21280E058CB8091CE0382FB60
:1016F000882780F90E94A21280E04FCB80914B0393
:1017000090914C03880F892F881F990B91958170B8
:101710000E94A21280E041CB809135039091360364
:101720000E94591280E039CB8091330390913403A9
:101730000E94591280E031CB81E00E94A71D0E94D7
:10174000A21280E02ACB809103010E94701280E0F7
:1017500024CB80910C030E94A21280E01ECB8091CA
:101760004E030E94A21280914F030E94A212809108
:1017700050030E94A212809151030E94A21280E0A5
:101780000CCB80913303909134030E9459128091C5
:101790003503909136030E9459128091370390913E
:1017A00038030E9459128091390390913A030E94A4
:1017B000591280E0F2CA80912B0390912C030E9471
:1017C000591280912D0390912E030E9459128091FD
:1017D0002F03909130030E94591280E0DECA80915D
:1017E0001B0390911C030E94591280911D0390913C
:1017F0001E030E94591280911F03909120030E94A2
:10180000591280912103909122030E94591280E085
:10181000C4CA809106010E94A21280E0BECA8091D3
:1018200056030E94A212809157030E94A212809137
:1018300058030E94A212809159030E94A21280E0D4
:10184000ACCA80911A030E94A21280E0A6CA8091BD
:101850009303909194030E94591280E09ECA80E005
:101860000E94B61D9ACA81E00E94B61D96CA809158
:1018700001010E94701280E090CA8091D2030E9400
:10188000701280E08ACA8CB182FB882780F90E949E
:10189000A21280E082CA803209F051C4113209F0EC
:1018A00039C48F010F5F1F4F993909F404C2E8F55D
:1018B000923809F445C1E8F4903109F4A5C050F418
:1018C0009D3009F47CC09F3009F488C09C3009F039
:1018D00024C469C0913409F4BBC020F4913109F4E7
:1018E000A5C01BC4923409F4C0C0913809F4D7C014
:1018F00014C49A3809F499C148F4943809F444C1DD
:1019000008F4BEC0953809F455C107C49F3809F4DE
:101910007AC120F49E3809F463C1FFC3953909F4F4
:10192000AAC1963909F4B7C1F8C3983A09F4DCC2E0
:10193000F0F4933A09F44AC250F49F3909F4D9C13A
:10194000923A09F40DC29A3909F0E7C3C3C1953A36
:1019500009F49AC208F470C2963A09F4BFC2973AE1
:1019600009F0DBC3B80181E00E94E61A16CA9F3A6B
:1019700009F498C348F49A3A09F4D9C208F4C5C2E4
:101980009D3A09F466C3C9C3923B09F41EC320F40F
:10199000913B09F4DBC2C1C3983B09F4F5C2993B02
:1019A00009F4E3C2BAC347E0B701C8010E94D524D5
:1019B00087FDF3C98DA10E94962380E0EEC92FEF29
:1019C00030E040E050E0B701C8010E94191287FDE5
:1019D000E4C98DA10E94582380E0DFC947E0B70128
:1019E000C8010E94D52487FDD8C98DA1F0E18F9F41
:1019F000900111249091D1039F70292B2093D10342
:101A00000E94872380E0C9C947E0B701C8010E944E
:101A1000D52487FDC2C98DA1982F9F708091D103D5
:101A2000807F892B8093D10380E0B7C947E0B7015D
:101A3000C8010E94D52487FDB0C98DA1982F9F7041
:101A40008091D003807F892B8093D00380E0A5C94B
:101A500048E0B701C8010E94D52487FD9EC98DA129
:101A600081950E94741180E098C9B701C8010E9455
:101A7000361287FD92C98DA18093CF0380E08DC976
:101A8000B701C8010E94361287FD87C98DA1811157
:101A900002C03F9A47988093550380E07EC928E8AA
:101AA00033E140E150E0B701C8010E94191287FDFF
:101AB00074C920E137E240E050E0BE016F5D7F4F26
:101AC000D801A80FB11D87FDBA95CD010E9419124A
:101AD00087FD63C909A11AA16DA17EA180E090E0F4
:101AE0000E944B2F2B013C0120E030E0A9010E9415
:101AF000A52E811103C0109290001CC0A301920179
:101B000060E074E284E799E40E94AA2E20E030E0CD
:101B100040E05FE30E94382E0E941C2F683C710554
:101B200010F468EC70E0709399006093980080E482
:101B300080939000109354030093530380E02DC9C9
:101B400043E0B701C8010E94D52487FD26C99DA1A5
:101B50008091CE038E73933029F4816C0E945823B8
:101B600080E01BC9923029F481640E94582380E0F0
:101B700014C9913029F481600E94582380E00DC976
:101B80000E94582380E009C941E0B701C8010E94C2
:101B9000D52487FD02C99DA18091CE03992329F008
:101BA00082600E94582380E0F8C88D7F0E945823ED
:101BB00080E0F3C841E0B701C8010E94D52487FD49
:101BC000ECC89DA18091CE03992329F084600E94E6
:101BD000582380E0E2C88B7F0E94582380E0DDC854
:101BE000B701C8010E94F61187FDD7C84DA15EA1BB
:101BF00060E070E080E00E94DC1587FF02C08EEF9D
:101C0000CCC880E0CAC8B701C8010E94F61187FDA0
:101C1000C4C84DA15EA160E070E0709560955095DC
:101C200041955F4F6F4F7F4FE5CF4FE0B701C80140
:101C30000E94D52487FDB1C89DA180915203809553
:101C40008923F89480FF03C022E020934E0381FF94
:101C500003C022E020934F0382FF03C022E02093C1
:101C6000500383FF03C082E080935103909352039B
:101C7000789480E092C84FE3B701C8010E94D52450
:101C800087FD8BC88DA18093CC0380E190E00E94FA
:101C9000722380E082C84FE3B701C8010E94D524B7
:101CA00087FD7BC88DA18093CD0380E091E00E94E9
:101CB000722380E072C8B701C8010E94D31187FD6A
:101CC0006CC88DA18093CA0380E290E00E947223C9
:101CD00080E063C8B701C8010E94D31187FD5DC8C9
:101CE0008DA18093CB0380E092E00E94722380E07C
:101CF00054C82FEF33E040E050E0B701C8010E9424
:101D0000191287FD4AC8F801E80FF11D87FDFA9501
:101D1000CF012081211107C06DA07EA009A11AA1C9
:101D2000060D171D10C04DA15EA120E034E0241B5C
:101D3000350B41E050E0BE016F5D7F4F0E941912EC
:101D400087FFEACF2AC86016710641F06FEFC30122
:101D50000E94262EFFEF6F1A7F0AF5CF80E01DC884
:101D6000DF92CF92FF92EF929F928F921F930F93E9
:101D70000E94C92A0FB6F894DEBF0FBECDBF0197EF
:101D800011F5898187FF02C00C94CD064DA05EA09D
:101D90006FA078A40E94492381600E9496238091BD
:101DA0006E0390916F03A0917003B0917103B30122
:101DB000A201481B590B6A0B7B0B80E00E94DC15CB
:101DC00080E00C94CD068DEF0C94CD06DF92CF927F
:101DD000FF92EF92BF92AF921F930F930E94C92A76
:101DE0000FB6F894DEBF0FBECDBF019711F5898104
:101DF00087FF02C00C94CD060DA11EA10E944923AD
:101E000082600E949623A801110F660B770B8091C8
:101E1000930390919403A0919503B0919603481B6E
:101E2000590B6A0B7B0B81E00E94DC1580E00C945F
:101E3000CD068DEF0C94CD06DF92CF92FF92EF92FC
:101E40009F928F921F930F930E94C92A0FB6F89406
:101E5000DEBF0FBECDBF0197A1F4898187FF02C00D
:101E60000C94CD068DA19EA1AFA1B8A580936E0361
:101E700090936F03A0937003B093710380E00C9470
:101E8000CD068DEF0C94CD06DF92CF92FF92EF92AC
:101E9000BF92AF921F930F930E94C92A0FB6F89476
:101EA000DEBF0FBECDBF0197B1F4898187FF02C0AD
:101EB0000C94CD068DA19EA1092E000CAA0BBB0B84
:101EC0008093930390939403A0939503B093960308
:101ED00080E00C94CD068DEF0C94CD06B80180E027
:101EE0000E94E61A0C94CD06B701C8010E94D311D6
:101EF00087FF02C00C94CD068DA191E0980F993018
:101F000008F420C18CEF0C94CD06B701C8010E94E3
:101F1000D31187FF02C00C94CD068DA191E0980FDC
:101F2000993008F013C10E9448110C94CD0641E08D
:101F3000B701C8010E94D52487FF02C00C94CD06CA
:101F40008DA18093D20380E00C94CD0644E1B701CB
:101F5000C8010E94D52487FF02C00C94CD068DA134
:101F600080935A0380E00C94CD0640E4B701C80189
:101F70000E94D52487FF02C00C94CD068DA18093CA
:101F8000070180E00C94CD064AEFB701C8010E941A
:101F9000D52487FF02C00C94CD068DA18093060145
:101FA000882321F08A3F49F4589A01C0589884B593
:101FB0008F7C84BD80E00C94CD068A5F88BD84B59B
:101FC000806284BD80E00C94CD0644E1B701C80175
:101FD0000E94D52487FF02C00C94CD06080F111D66
:101FE00087FD1A9544E1BE016F5D7F4FC8010E94D5
:101FF000D52487FF02C00C94CD06080F111D87FD64
:102000001A9544E1BE016F5E7F4FC8010E94D5243E
:1020100087FF02C00C94CD0644E1B6019801280F59
:10202000311D87FD3A95C9010E94D52487FF02C062
:102030000C94CD068DA18093560389A180935703FC
:1020400089898093580389818093590380E00C9497
:10205000CD0641E0B701C8010E94D52487FF02C028
:102060000C94CD069DA180910501992379F084609F
:102070008093050188E090E00E94722380914D03D7
:10208000816080934D0380E00C94CD068B7F80931C
:10209000050188E090E00E94722310924D0380E0D9
:1020A0000C94CD06DF92CF92FF92EF92A1E2B3E0C3
:1020B000BF93AF931F930F930E94C92A0FB6F89452
:1020C000DEBF0FBECDBF019729F4898187FF05C010
:1020D0000C94CD068DEF0C94CD064DA15EA16FA1A1
:1020E00078A5413C34ED530731E06307710588F56D
:1020F00080914D03826080934D037095609550955B
:1021000041955F4F6F4F7F4F80E00E94DC1580E06C
:102110000C94CD068DEF0C94CD068DEF0C94CD066E
:102120008DEF0C94CD068EEF0C94CD068EEF0C94B3
:10213000CD068DEF0C94CD068DEF0C94CD068DEF72
:102140000C94CD060E945E110C94CD068CEF0C947D
:10215000CD068CEF0C94CD068F929F92AF92BF92DA
:10216000CF92DF92EF92FF920F931F93CF93DF9363
:102170006A017B01082F10E095E2899FE00111249C
:10218000C55ADC4FAB85BC858D859E854C018A0E7A
:102190009B1EA12CB12C481559056A057B0570F0D2
:1021A000BD8FAC8FC818D908EA08FB08CE8EDF8E29
:1021B000E8A2F9A29BA38AA38EE013C09A01AB0107
:1021C0000E94BF30A50194010E948E303D8F2C8F5C
:1021D0001E8E1F8E18A219A2C21AD30ADBA2CAA28F
:1021E0008AE095E2909FF001919FF00D1124E55A4D
:1021F000FC4F878BDF91CF911F910F91FF90EF9054
:10220000DF90CF90BF90AF909F908F9008958EBD3C
:102210000DB407FEFDCF8EB508958091C002909158
:10222000BF02981781F0E82FF0E0EE53FD4F2081B8
:1022300030E08F5F9091BE02891708F080E08093B4
:10224000C002C90108958FEF9FEF08959091C900D2
:1022500096FF14C09091AF022091B002E92FF0E0F8
:10226000EE54FD4F80839F5F3091AE02931708F0CC
:1022700090E0921779F39093AF0207C09091C90054
:1022800090649093C9008093CE0080E090E0089520
:102290008F3F19F4809300010FC0883058F490915B
:1022A0000001981749F0682F8093000181E00E9497
:1022B000392402C08CEF089580E008958F3F19F40F
:1022C000809301010FC0883058F490910101981754
:1022D00049F0682F8093010180E00E94392402C0F8
:1022E0008CEF089580E008950F931F93CF9387FF9D
:1022F00056C0C82FC1950C2F0C2E000C110B1F932C
:10230000CF9386E994E09F938F93809105038F93F9
:10231000809104038F930E94762A2FEF30E782E0AA
:10232000215030408040E1F700C00000F8940F9049
:102330000F900F900F900F900F9080E0282F30E0BB
:102340002017310704F52F9A9091CE039160909356
:10235000CE039FEF20E732E0915020403040E1F77C
:1023600000C000002F989091CE039E7F9093CE03E3
:102370009FEF22E537E0915020403040E1F700C068
:1023800000008F5FDBCFC230C4F28FEF99E628E107
:10239000815090402040E1F700C00000CECFCF91A7
:1023A0001F910F910895CF93DF9300D0CDB7DEB783
:1023B0009E012F5F3F4F3F932F937F936F932BE8A7
:1023C00033E03F932F939F938F930E94C92A0FB6B8
:1023D000F894DEBF0FBECDBF019711F4898101C013
:1023E0008DEF0F900F90DF91CF910895CF93DF93F2
:1023F00000D0CDB7DEB79E012F5F3F4F3F932F93A5
:102400007F936F9326E833E03F932F939F938F93AF
:102410000E94C92A0FB6F894DEBF0FBECDBF019748
:1024200011F4898101C08DEF0F900F90DF91CF9152
:102430000895EF92FF920F931F93CF93DF93EB01D9
:102440007A0189010E94F61187FD09C068817981AE
:102450006E157F0518F00617170708F48CEFDF914B
:10246000CF911F910F91FF90EF900895CF93DF933D
:1024700000D0CDB7DEB79E012F5F3F4F3F932F9324
:102480007F936F932FE733E03F932F939F938F9327
:102490000E94C92A0FB6F894DEBF0FBECDBF0197C8
:1024A00011F4898101C08DEF0F900F90DF91CF91D2
:1024B00008959F938F938BE793E09F938F938091E1
:1024C000D4038F938091D3038F930E94762A0F9029
:1024D0000F900F900F900F900F9097FD80E0089550
:1024E000282F082E000C330B3F938F9387E793E040
:1024F0009F938F938091D4038F938091D3038F9375
:102500000E94762A0F900F900F900F900F900F90CF
:1025100097FD80E008959F938F9383E793E09F93C7
:102520008F938091D4038F938091D3038F930E94D4
:10253000762A0F900F900F900F900F900F9097FDAD
:1025400080E008951F928F938FE693E09F938F937F
:102550008091D4038F938091D3038F930E94762A26
:102560000F900F900F900F900F900F9097FD80E0BD
:1025700008958EBD0DB407FEFDCF8EB508951F9250
:102580000F920FB60F9211244F925F926F927F922B
:102590008F929F92AF92BF92CF92DF92FF920F9352
:1025A0001F932F933F934F935F936F937F938F93DB
:1025B0009F93AF93BF93CF93DF93EF93FF931092CB
:1025C000850010928400C0906C03D0906D03009140
:1025D000910310919203E1E0C016D10608F0E0E00B
:1025E000E093090465E2E69FF0011124E55AFC4FEF
:1025F000C189D289D0930804C093070480918400D4
:1026000090918500209709F499C2F9B0F294F6945C
:10261000F69493E0F9228091D003F8228F2D90E078
:102620009093060480930504C03A76E3D70750F0F0
:10263000FE0186E0F695E7958A95E1F7E25FFE4FA9
:1026400046A11AC0C03A86E2D80748F0FE01B5E0BC
:10265000F695E795BA95E1F7E65AFF4F0CC0C03AF8
:102660006EE1D60758F0FE01A4E0F695E795AA952D
:10267000E1F7EA5DF040408150E017C0C032D1057B
:10268000A0F0BE0176956795CB01A0E0B0E0BC015B
:10269000CD0160587B47814E9F4F4E01A12CB12C3C
:1026A000A50194010E948E30A90150930404409327
:1026B00003048091840090918500F091D103F0FF94
:1026C00015C12091750330917603240F351F309387
:1026D0007603209375038091730390917403C81659
:1026E000D90608F4FDC08C0F9D1F8C199D0990938D
:1026F000740380937303E091720380916E03909151
:102700006F03A0917003B0917103F4FF04C00197AF
:10271000A109B10903C00196A11DB11D80936E03EB
:1027200090936F03A0937003B0937103E1FF50C0C7
:10273000A0916203B09163032F3F310509F058F473
:102740004A9FB0014B9F700D5A9F700D1124CB0111
:10275000A0E0B0E005C09A010E94B030DC01CB01DE
:1027600073E0880F991FAA1FBB1F7A95D1F780903D
:102770006A0390906B03A0906C03B0906D03880D7A
:10278000991DAA1DBB1D80936A0390936B03A093B0
:102790006C03B0936D038091770390917803019758
:1027A0009093780380937703892B09F07DC08E2F57
:1027B0008D7FE2FF78C020916003309161033093F8
:1027C0006D0320936C0310926B0310926A036BC02D
:1027D000E2FF1AC08091790390917A03A0917B0364
:1027E000B0917C030197A109B1098093790390937B
:1027F0007A03A0937B03B0937C03892B8A2B8B2BCA
:1028000009F052C0EB7F50C0E3FF4EC0A0916403BB
:10281000B09165032F3F310509F058F44A9FB0018C
:102820004B9F700D5A9F700D1124CB01A0E0B0E0BA
:1028300005C09A010E94B030DC01CB0163E0880F33
:10284000991FAA1FBB1F6A95D1F780906A039090C9
:102850006B03A0906C03B0906D0324013501481AFE
:10286000590A6A0A7B0A40926A0350926B0360928B
:102870006C0370926D0380917D0390917E030197AC
:1028800090937E0380937D03892B71F4E77FFE7F15
:10289000F093D10310926A0310926B0310926C03B1
:1028A00010926D0301C0E82F80917F03882321F0EF
:1028B000815080937F030CC0F0FE0AC08091D10349
:1028C0008E7F8093D10380911204816080931204E3
:1028D000E09372031092760310927503F1E007C043
:1028E0008C199D099093740380937303F0E0D0904A
:1028F000D103D1FE1CC180919A0390919B03840F58
:10290000951F90939B0380939A0320919803309195
:1029100099030217130708F401C1C20FD31FC01B8C
:10292000D10BD0939903C0939803E0919703009142
:102930009303109194032091950330919603D5FE53
:1029400005C0015011092109310904C00F5F1F4F53
:102950002F4F3F4F009393031093940320939503BD
:1029600030939603E1FF50C0A0918703B091880394
:102970008F3F910509F058F44A9FB0014B9F700DAD
:102980005A9F700D1124CB01A0E0B0E005C09A0160
:102990000E94B030DC01CB0133E0880F991FAA1FE1
:1029A000BB1F3A95D1F700918F03109190032091AE
:1029B000910330919203800F911FA21FB31F809348
:1029C0008F0390939003A0939103B093920380910F
:1029D0009C0390919D03019790939D0380939C038A
:1029E000892B09F07EC08E2F8D7FE2FF79C0209168
:1029F00085033091860330939203209391031092C4
:102A0000900310928F036CC0E2FF1AC080919E0366
:102A100090919F03A091A003B091A1030197A109F8
:102A2000B10980939E0390939F03A093A003B0935A
:102A3000A103892B8A2B8B2B09F053C0EB7F51C04C
:102A4000E3FF4FC0A0918903B0918A038F3F9105A6
:102A500009F058F44A9FB0014B9F700D5A9F700DBA
:102A60001124CB01A0E0B0E005C09A010E94B03073
:102A7000DC01CB0123E0880F991FAA1FBB1F2A95F9
:102A8000D1F700918F031091900320919103309121
:102A90009203B901A801481B590B6A0B7B0B4093A9
:102AA0008F035093900360939103709392038091EE
:102AB000A2039091A30301979093A3038093A20391
:102AC000892B79F4E77F8D2D8D7F8093D103109230
:102AD0008F0310929003109291031092920301C001
:102AE000E82F8091A403882321F081508093A403D0
:102AF0000DC08F2D827051F08091D1038D7F809316
:102B0000D10380911204826080931204E0939703B2
:102B100010929B0310929A0382E008C0E901C01B47
:102B2000D10BD0939903C093980380E0F82BF0FD6C
:102B30002D9AF1FD2E9A2D982E9806C080ED97E0E3
:102B400090930404809303048091030490910404FF
:102B500090938900809388002091840030918500B3
:102B600080910304909104042817390728F00A97EC
:102B70009093850080938400FF91EF91DF91CF9136
:102B8000BF91AF919F918F917F916F915F914F9185
:102B90003F912F911F910F91FF90DF90CF90BF90A9
:102BA000AF909F908F907F906F905F904F900F901D
:102BB0000FBE0F901F901895CF92DF92EF92FF9269
:102BC0000F931F93CF93DF9300D000D0CDB7DEB724
:102BD000082F10E021E030E06901082E01C0CC0C84
:102BE0000A94EAF79091D1039C2109F05BC041154A
:102BF00051056105710509F457C0F82EEC2CE094DD
:102C000049835A836B837C831416150616061706B0
:102C10009CF40E943F238E210E9487238C2D829555
:102C2000807F80959091D10389238093D10349813E
:102C30005A816B817C8118C00E943F238C290E949D
:102C400087238091D1039C2D9295907F892B80932F
:102C5000D10349815A816B817C8170956095509533
:102C600041955F4F6F4F7F4F8F2D0E94AC1085E2D3
:102C7000809FF001819FF00D1124E55AFC4F108ACE
:102C8000178683819481928B818B80E284A38091CB
:102C90001204E822E09212048091D1038C298093DF
:102CA000D10302C08FEF01C080E00F900F900F9012
:102CB0000F90DF91CF911F910F91FF90EF90DF90D8
:102CC000CF900895CF938091030118160CF0CFC1D7
:102CD000833009F4F3C034F4813059F0823009F4C0
:102CE00056C0C5C1843009F4A9C0853009F47FC13C
:102CF000BEC1809171038F93809170038F938091F7
:102D00006F038F9380916E038F9380911204817073
:102D10001F928F9386E894E09F938F938091050391
:102D20008F93809104038F930E94762A80916E0383
:102D300090916F03A0917003B091710380930E0482
:102D400090930F04A0931004B093110480E00E94AC
:102D50005E110E94492381600E9496238091D003D6
:102D600081608093D00340E859EA63E070E080E03E
:102D70000E94DC1582E0809303012DB73EB7265FE9
:102D80003F4F0FB6F8943EBF0FBE2DBF70C180916C
:102D9000D10380FD6CC140916E0350916F0360912F
:102DA00070037091710380910E0490910F04A091B3
:102DB0001004B0911104841B950BA60BB70BBF93A5
:102DC000AF939F938F937F936F935F934F93809174
:102DD000120481701F928F9382E794E09F938F93E8
:102DE000809105038F93809104038F930E94762A2C
:102DF000809112042DB73EB7225F3F4F0FB6F89473
:102E00003EBF0FBE2DBF80FF57C080916E039091D3
:102E10006F03A0917003B091710380930E0490939F
:102E20000F04A0931004B093110440E05CEF6FEF27
:102E30007FEF80E00E94DC1583E0ABC08091D1037E
:102E400080FD15C140916E0350916F036091700336
:102E50007091710380910E0490910F04A091100461
:102E6000B0911104841B950BA60BB70BBF93AF93C6
:102E70009F938F937F936F935F934F9380911204EF
:102E800081701F928F938AE494E09F938F93809137
:102E900005038F93809104038F930E94762A80917B
:102EA00012042DB73EB7225F3F4F0FB6F8943EBFD6
:102EB0000FBE2DBF80FD70C08EEF6BC08091D1031F
:102EC00080FDD5C040916E0350916F0360917003F7
:102ED0007091710380910E0490910F04A0911004E1
:102EE000B0911104841B950BA60BB70BBF93AF9346
:102EF0009F938F937F936F935F934F93809112046F
:102F000081701F928F938EE594E09F938F938091B1
:102F100005038F93809104038F930E94762A8091FA
:102F200012042DB73EB7225F3F4F0FB6F8943EBF55
:102F30000FBE2DBF80FD2CC080916E0390916F035A
:102F4000A0917003B091710380930E0490930F04CD
:102F5000A0931004B093110481E00E945E1180914F
:102F60006E0390916F03A0917003B09171038093F1
:102F70000E0490930F04A0931004B093110440E04A
:102F80005CE060E070E080E00E94DC1584E001C05D
:102F90008DEF809303016BC080916E0390916F035E
:102FA000805C924020910E0430910F04821B930BA1
:102FB0008D3B954068F780E00E945E1180916E0322
:102FC00090916F03A0917003B091710380930E04F0
:102FD00090930F04A0931004B093110440E05CEFB1
:102FE0006FEF7FEF80E00E94DC1585E0D2CF80910B
:102FF000D10380FD3CC040916E0350916F036091FE
:1030000070037091710380910E0490910F04A09150
:103010001004B0911104841B950BA60BB70BBF9342
:10302000AF939F938F937F936F935F934F93809111
:10303000120481701F928F9386E394E09F938F9385
:10304000809105038F93809104038F930E94762AC9
:10305000809112042DB73EB7225F3F4F0FB6F89410
:103060003EBF0FBE2DBF80FD93CF10920301809114
:10307000020118160CF0BDC1833009F4F2C034F41B
:10308000813059F0823009F455C0B3C1843009F45D
:10309000A8C0853009F46DC1ACC1809196038F93AF
:1030A000809195038F93809194038F9380919303E4
:1030B0008F938091120482701F928F9386E294E026
:1030C0009F938F93809105038F93809104038F9337
:1030D0000E94762A8091930390919403A091950386
:1030E000B091960380930A0490930B04A0930C0470
:1030F000B0930D0480E00E9448110E944923826031
:103100000E9496238091D00382608093D00340E890
:1031100053EF6FEF7FEF81E00E94DC1582E0809338
:1031200002018DB79EB70A960FB6F8949EBF0FBEE8
:103130008DBF5FC18091D10381FD5BC1409193033D
:1031400050919403609195037091960380910A04C5
:1031500090910B04A0910C04B0910D04841B950B6D
:10316000A60BB70BBF93AF939F938F937F936F93F0
:103170005F934F938091120482701F928F9382E12C
:1031800094E09F938F93809105038F938091040324
:103190008F930E94762A809112042DB73EB7225F4A
:1031A0003F4F0FB6F8943EBF0FBE2DBF81FF57C0F3
:1031B0008091930390919403A0919503B09196030D
:1031C00080930A0490930B04A0930C04B0930D0415
:1031D00040E051E060E070E081E00E94DC1583E0B7
:1031E0009BC08091D10381FD04C140919303509114
:1031F0009403609195037091960380910A049091D5
:103200000B04A0910C04B0910D04841B950BA60B2C
:10321000B70BBF93AF939F938F937F936F935F93FE
:103220004F938091120482701F928F938AEE93E0E5
:103230009F938F93809105038F93809104038F93C5
:103240000E94762A809112042DB73EB7225F3F4F2D
:103250000FB6F8943EBF0FBE2DBF81FD60C08EEF4C
:103260005BC08091D10381FDC4C040919303509114
:103270009403609195037091960380910A04909154
:103280000B04A0910C04B0910D04841B950BA60BAC
:10329000B70BBF93AF939F938F937F936F935F937E
:1032A0004F938091120482701F928F938EEF93E060
:1032B0009F938F93809105038F93809104038F9345
:1032C0000E94762A809112042DB73EB7225F3F4FAD
:1032D0000FB6F8943EBF0FBE2DBF81FD1CC080917C
:1032E000930390919403A0919503B09196038093DA
:1032F0000A0490930B04A0930C04B0930D0481E096
:103300000E94481140E05DEF6FEF7FEF81E00E9487
:10331000DC1584E001C08DEF809302016AC08091CA
:103320000A0490910B049A95209193033091940391
:10333000821B930B8130914070F780E00E9448110E
:103340008091930390919403A0919503B09196037B
:1033500080930A0490930B04A0930C04B0930D0483
:1033600040E450E060E070E081E00E94DC1585E020
:10337000D3CF8091D10381FD3CC040919303509104
:103380009403609195037091960380910A04909143
:103390000B04A0910C04B0910D04841B950BA60B9B
:1033A000B70BBF93AF939F938F937F936F935F936D
:1033B0004F938091120482701F928F9386ED93E059
:1033C0009F938F93809105038F93809104038F9334
:1033D0000E94762A809112042DB73EB7225F3F4F9C
:1033E0000FB6F8943EBF0FBE2DBF81FD94CF109253
:1033F000020180911704882309F464C080FF10C083
:10340000809123039091240362E973E09695879558
:10341000969587950E9424259093340380933303D7
:103420008091170481FF0AC08091250390912603A3
:103430000E94D11F90933603809335038091170427
:1034400082FF0AC080912703909128030E94D11F18
:1034500090933803809337038091170483FF0AC049
:103460008091290390912A030E94D11F90933A03DF
:1034700080933903C0911704C4FF0AC080911B03D5
:1034800090911C030E94D91F90932C0380932B03CF
:10349000C5FF0AC080911D0390911E030E94D91F91
:1034A00090932E0380932D03C6FF0AC080911F03C3
:1034B000909120030E94D91F9093300380932F0393
:1034C00010921704CF9108954F925F926F927F925E
:1034D0008F929F92AF92BF92CF92DF92EF92FF9224
:1034E0000F931F93CF93DF9325E2829FC001112496
:1034F000EC01C55ADC4F0D811E81AB80BC80680198
:10350000CA18DB08E12CF12C8CE0CC0CDD1CEE1C85
:10351000FF1C8A95D1F729853A8540E050E0C70124
:10352000B6010E948E3029013A014501800E911E9C
:10353000A12CB12C2F81388540E050E0C701B601A5
:103540000E948E3094E056954795379527959A9529
:10355000D1F7C501B4010E946A306C5D7B408F4F8A
:103560009F4F28E4C22E28EED22EEE24E394F12CB5
:10357000A70196010E948E303C872B87A301920100
:1035800064E056954795379527956A95D1F7C5011B
:10359000B4010E946A306C5D7B408F4F9F4FA70142
:1035A00096010E948E303E872D87DF91CF911F912B
:1035B0000F91FF90EF90DF90CF90BF90AF909F90D2
:1035C0008F907F906F905F904F900895DF92EF9271
:1035D000FF920F931F93CF93DF93CDB7DEB7609722
:1035E0000FB6F894DEBF0FBECDBFE82EF12C2091B0
:1035F000D10330E0082E02C0359527950A94E2F7F2
:1036000020FDE5C08B01D82E20E23EE444E650E0E8
:10361000BE016F5F7F4FC8010E94191287FDDAC09B
:10362000080F111D87FD1A95F8019081992361F00B
:1036300020E23EE444E650E0BE016D5F7F4FC801EA
:103640000E94191287FDC6C049815A812B813C8195
:103650002417350708F4BDC0080F111D87FD1A9502
:10366000F8019081992361F028E532E041E050E0D3
:10367000BE016B5F7F4FC8010E94191287FDAAC06F
:10368000080F111D87FD1A95F8019081992361F0AB
:1036900028E532E041E050E0BE01695F7F4FC8019C
:1036A0000E94191287FD96C0080F111D87FD1A95FB
:1036B000F8019081992349F04FE3BE01675F7F4F86
:1036C000C8010E94D52487FD85C0080F111D87FD04
:1036D0001A95F8019081992341F0BE01665F7F4FF2
:1036E000C8010E94D31187FD75C0F801E80FF11DD4
:1036F00087FDFA958081811141C08D2D0E94AB23F9
:1037000085E28E9DF0018F9DF00D1124E55AFC4F4E
:1037100089819A81948383838B819C81968385831D
:103720008D819E81908787838F81988592878187FD
:103730008D2D0E94641AF701E453FC4F8985808324
:10374000F701E653FC4F8A858083F701EE0FFF1FD8
:10375000E45DFB4F8B859C8591838083D1101BC0DA
:1037600080E790E00E9472238091130490911404EA
:10377000A0911504B091160480621DC020EA3FE0BC
:1037800040E050E0BE01655F7F4FCF010E941912FB
:1037900087FFB3CF1FC0F1E0DF1215C080E097E0D4
:1037A0000E9472238091130490911404A091150437
:1037B000B091160480648093130490931404A09332
:1037C0001504B09316040E94CD2380E003C08EEF51
:1037D00001C08CEF60960FB6F894DEBF0FBECDBF70
:1037E000DF91CF911F910F91FF90EF90DF9008959F
:1037F0003F924F925F926F927F92AF92BF92CF9221
:10380000DF92EF92FF920F931F93CF93DF93CDB789
:10381000DEB72C970FB6F894DEBF0FBECDBF382EA3
:103820002D833E834F835887270138018E8D9F8DCE
:10383000A8A1B9A189879A87AB87BC87832D90E01F
:1038400025E2289FF001299FF00D1124E55AFC4F35
:10385000DF011D922A95E9F7B3E0B31528F0FC01CA
:10386000E65FFE4F208101C02FE335E2389F8001E3
:10387000399F100D1124055A1C4FF80120837283C3
:10388000618380E090E00E944B2F69837A838B8371
:103890009C839B01AC016D817E818F8198850E9404
:1038A000FD2F0E941C2FD80114967C936E931397C2
:1038B00029813A814B815C81C301B2010E94FD2FB5
:1038C0000E941C2FF8017683658329813A814B8100
:1038D0005C81C601B5010E94FD2F0E941C2FBB27F1
:1038E000A92F982F872FF8019087878329813A8104
:1038F0004B815C8169857A858B859C850E94FD2F33
:103900000E941C2FBB27A92F982F872FF801928781
:103910008187832D2C960FB6F894DEBF0FBECDBFE6
:10392000DF91CF911F910F91FF90EF90DF90CF909B
:10393000BF90AF907F906F905F904F903F900C94AE
:10394000641AAF92BF92CF92DF92EF92FF920F93E1
:103950001F93CF93DF931F92CDB7DEB7A82E8A01B6
:103960008CE5F82EFCBC1DBC8A2D69830E94362391
:103970006981862F0E94071180E00E94071180E074
:103980000E94071180E00E94071180E00E94071149
:103990008A2D0E942D23FCBC1DBC8A2D0E9436233B
:1039A00080E00E940711B82E80E00E940711C82E07
:1039B000D12CE12CF12CFE2CED2CDC2CCC2480E045
:1039C0000E940711C82AFE2CED2CDC2CCC2480E0B0
:1039D0000E940711C82AFE2CED2CDC2CCC2480E0A0
:1039E0000E940711C82A8A2D0E942D230115110556
:1039F00029F0F801C082D182E282F3828B2D0F90F0
:103A0000DF91CF911F910F91FF90EF90DF90CF90BA
:103A1000BF90AF9008951F93CF93DF9300D000D055
:103A20001F92CDB7DEB7182F8CE58CBD1DBC812F42
:103A30002D833C834B835A8369830E94362369819B
:103A4000862F0E9407115A81852F0E9407114B81F2
:103A5000842F0E9407113C81832F0E9407112D8122
:103A6000822F0E940711812F0E942D230F900F900B
:103A70000F900F900F90DF91CF911F91089599E0D3
:103A8000899FF0011124EA5FFC4F6683462F660F81
:103A9000550B660B770B332722276DEE0C940B1D0D
:103AA000CF92DF92EF92FF921F93CF93DF93182F65
:103AB000603218F0669520E001C021E0822F90E08E
:103AC000A0E0B0E06C017D0181E1CC0CDD1CEE1CBE
:103AD000FF1C8A95D1F789E0189FE0011124CA5F85
:103AE000DC4F88819981AA81BB81AD7FA7019601B6
:103AF000282B392B4A2B5B2B288339834A835B8302
:103B00006C836D836CEE812F0E940B1D2C812F71B5
:103B1000822F90E0A0E0B0E0AF604D814F7150E0A7
:103B2000542F4427052E000C660B770B9A01AB012E
:103B3000282B392B4A2B5B2B60E9812FDF91CF910A
:103B40001F91FF90EF90DF90CF900C940B1D29E018
:103B5000829FC0011124FC01EA5FFC4F408151812A
:103B600062817381858161FF880F0895EF92FF92D2
:103B70001F93CF93DF93182FE82EF12C85E2189F27
:103B8000E0011124C55ADC4F8B819C810E948B126D
:103B90008D819E810E948B128F8198850E948B124D
:103BA00089859A850E948B12812F0E94A71D0E94F1
:103BB000A21289E08E9DE0018F9DD00D1124CA5F75
:103BC000DC4F8E810E9470128F8198850E948B122B
:103BD00080E0DF91CF911F91FF90EF900895FF92C9
:103BE0000F931F93CF93DF9300D000D0CDB7DEB7F4
:103BF000F82E83ED90E0A3E0B4E189839A83AB8350
:103C0000BC8329E0F29E800111240A5F1C4FF80159
:103C100080839183A283B38380E18483858383E05F
:103C200086838CED95E09087878323ED30E043E039
:103C300054E16CEE8F2D0E940B1DAE014F5F5F4F64
:103C40006CE68F2D0E94A11CF80140815181628198
:103C5000738189819A81AB81BC81481759076A07B2
:103C60007B0741F520E030E0A90161E98F2D0E943A
:103C70000B1DF8012681822F220F990BAA0BBB0B7B
:103C8000AC01332722276DEE8F2D0E940B1DF8010A
:103C90002781308540E050E064E98F2D0E940B1DA4
:103CA00020E831E340E050E060E88F2D0E940B1DDA
:103CB00080E001C08FEF0F900F900F900F90DF9179
:103CC000CF911F910F91FF90089510921E041092B2
:103CD00019048091FE0280FD04C010921B04109212
:103CE0001A0481FD04C010921D0410921C04089552
:103CF00087E797E7909301088093000898E088E1B0
:103D00000FB6F894A895809360000FBE9093600062
:103D1000F894FFCF1F920F920FB60F9211242F939A
:103D20008F939F93EF93FF938091B0029091AF0296
:103D3000891781F0E82FF0E0EE54FD4F90818F5FFE
:103D40002091AE02821708F080E08093B002909339
:103D5000CE0005C08091C9008F7B8093C900FF9180
:103D6000EF919F918F912F910F900FBE0F901F9009
:103D700018951F920F920FB60F9211242F938F93C5
:103D80009F93EF93FF932091CE008091BF0290917B
:103D9000C002E82FF0E0EE53FD4F20838F5F2091AB
:103DA000BE02821708F080E0891719F08093BF02E5
:103DB00018C0F894E4E5F3E08BE18E0F9091C80011
:103DC00095FFFCCF94919093CE009091C80096FF00
:103DD000FCCF31968E13F2CF78941092BF021092DE
:103DE000C002FF91EF919F918F912F910F900FBE85
:103DF0000F901F9018951F920F920FB60F921124DB
:103E00008F939F93AF93BF9386B58A5F86BD789457
:103E10008091000390910103A0910203B0910303EC
:103E20000196A11DB11D8093000390930103A093FF
:103E30000203B0930303BF91AF919F918F910F90B5
:103E40000FBE0F901F901895F89420913004309178
:103E50003104822B932B9093310480933004789417
:103E600008958F929F92AF92BF92CF92DF92EF927E
:103E7000FF920F931F93CF93DF93CDB7DEB7609779
:103E80000FB6F894DEBF0FBECDBFF82ED62E882E0B
:103E9000912C25E2829FF0011124E55AFC4F838189
:103EA00094819A838983858196819C838B83878182
:103EB00090859E838D838185928598878F838F2DB2
:103EC0000E94A71D898789E0889DF001899DF00DDA
:103ED0001124EA5FFC4F86818A87878190859C87C1
:103EE0008B87F11006C0D7FC02C0E5E00AC0E7E00E
:103EF00008C031E0F3120CC0D7FC02C0E6E001C0FC
:103F0000E8E0F0E0EE0FFF1FE257FD4FA080B18028
:103F1000CE0101964C01D7FC0BC0BC01C5012D2D73
:103F200030E12302800D911D11240E94072526C037
:103F3000C12CD12C80E1E82EE80CF11004C08601E0
:103F4000005E1A4F06C081E0F81203C086010056D9
:103F50001B4FD401F801EA1621F084918D9331961C
:103F6000FACFB401C6018A0D9B1D0E94072590E17E
:103F7000C90ED11C20E8C216D104F9F660960FB61E
:103F8000F894DEBF0FBECDBFDF91CF911F910F918F
:103F9000FF90EF90DF90CF90BF90AF909F908F9069
:103FA00008956FEB75E096958795969587950C9497
:103FB00024259C013695279536952795A2E9B3E1EE
:103FC0000E94B030AB01BC0199E07695679557959A
:103FD00047959A95D1F74E7F6170772789E79DE5E0
:103FE000841B950B97FF02C080E090E00895CF936B
:103FF000C82FE4E0F1E0282F237088E0289F90018B
:1040000011249181977E292B218388E090E00E94E2
:10401000241FC0931804CF9108951F920F920FB6DA
:104020000F9211242F933F934F935F936F937F933E
:104030008F939F93AF93BF93EF93FF93CF93DF93B0
:1040400000D000D0CDB7DEB780913B0490913C0406
:104050009C012F5F3F4F30933C0420933B04883EEC
:10406000934088F010923C0410923B047894809125
:104070005503882349F0815080935503811104C072
:104080003F9A479801C078948091530390915403CC
:10409000009749F001979093540380935303892B21
:1040A00011F41092900080913A04811155C09091C2
:1040B0005603909335049091570390933604909152
:1040C000580390933704909159039093380440918A
:1040D000CE03942F907C91F12091330430913404DD
:1040E00047FF09C0213491E0390710F094E10FC077
:1040F0001092390411C0B901B4E076956795BA956C
:10410000E1F7213491E0390728F098E2961B90936B
:10411000390402C06093390490910701290F311DC1
:10412000213892E0390728F4309334042093330483
:1041300009C0109234041092330404C090915A03C1
:10414000909339049091520340FD02C020E001C0D9
:1041500020E1922B9093320490913504981305C07E
:10416000909132049E7F909332049091360498137C
:1041700005C0909132049D7F909332049091370452
:10418000981305C0909132049B7F909332049091D4
:104190003804981305C090913204977F90933204AD
:1041A00090913904981305C0909132049F7E9093AA
:1041B00032048F5F843118F480933A0402C0109265
:1041C0003A048091320484FF02C02F9A01C02F98D4
:1041D0008091320420E1829FC0011124909104015A
:1041E0009F70892B8093040182E090E00E94241F3D
:1041F0008091300490913104892B09F4F7C08091AB
:1042000030049091310481FF0EC06091040182E17D
:104210000E94B92480913004909131048D7F909355
:10422000310480933004809130049091310483FFF5
:104230000BC06091050183E10E94B9248091300494
:1042400090913104877FCEC08091300490913104E9
:1042500082FF0BC083E10E94A72480931903809101
:104260003004909131048B7FBDC0809130049091D7
:10427000310484FF0BC06091CC0380E00E94501D8C
:1042800080913004909131048F7EACC080913004D5
:104290009091310485FF0BC06091CA0380E00E94B9
:1042A0003F1D80913004909131048F7D9BC080919F
:1042B00030049091310486FF14C020912C04309179
:1042C0002D0430930E0320930D0340E050E064E989
:1042D00080E00E940B1D80913004909131048F7B0F
:1042E00081C0809130049091310487FF1DC01982F4
:1042F0001A821B821C82AE014F5F5F4F6FE680E027
:104300000E94A11C89819A81AB81BC818093240485
:1043100090932504A0932604B09327048091300441
:10432000909131048F775EC0809130049091310478
:1043300090FF0BC06091CD0381E00E94501D8091E1
:104340003004909131049E7F4DC080913004909153
:10435000310491FF0BC06091CB0381E00E943F1DAF
:1043600080913004909131049D7F3CC08091300455
:104370009091310492FF14C020912E0430912F04AB
:10438000309317032093160340E050E064E981E086
:104390000E940B1D80913004909131049B7F22C0BC
:1043A000809130049091310493FF20C019821A82C9
:1043B0001B821C82AE014F5F5F4F6FE681E00E945F
:1043C000A11C89819A81AB81BC8180932804909340
:1043D0002904A0932A04B0932B0480913004909177
:1043E0003104977F909331048093300480911E04B0
:1043F00087FF74C08F70E82FF0E021E030E0082ED6
:1044000002C0220F331F0A94E2F74091FE0250913E
:10441000FF0224233523232B71F42091780030915F
:104420007900EE0FFF1FE65EFB4F40815181240FA4
:10443000351F31832083882399F1809119048F5F80
:1044400080931904843070F140911804842F90E017
:104450009C01220F331FF901ED5DFC4F60911A049E
:1044600070911B0471836083F901E55EFC4F6091DC
:104470001C0470911D047183608321E130E001C050
:10448000220F4A95EAF730911704232B2093170443
:104490000196837099270E94F71F0E94651E02C033
:1044A00021E001C020E0922F80E041E050E0BA011D
:1044B00063707727672B19F0992331F090E0440F50
:1044C000551F8F5F803199F790917C008770987F9E
:1044D000892B80937C0020931E040AC080917A006F
:1044E000806480937A0080911E04806880931E040B
:1044F0008FB182958F702091230490913204809324
:10450000230430913A043330F0F08227892380FF6E
:1045100005C090911F049F5F90931F0481FF05C009
:10452000909120049F5F9093200482FF05C090919A
:1045300021049F5F9093210483FF05C08091220492
:104540008F5F809322048091080190910901019767
:104550009093090180930801892BD1F520911F04C4
:1045600080914E0390E0820F911D959587958093E1
:104570004E032091200480914F0390E0820F911D03
:104580009595879580934F03209121048091500346
:1045900090E0820F911D959587958093500320910F
:1045A00022048091510390E0820F911D959587958B
:1045B0008093510310921F04109220041092210442
:1045C0001092220488E592E09093090180930801FB
:1045D0009091520390FF04C081E020914E0321117D
:1045E00080E091FF05C020914F03211101C082603E
:1045F00092FF05C020915003211101C0846093FFF8
:1046000005C090915103911101C0886080931A03F5
:1046100080914D03833051F4629B08C081E0809308
:104620004D038091D1038E7F8093D1030F900F9023
:104630000F900F90DF91CF91FF91EF91BF91AF91CC
:104640009F918F917F916F915F914F913F912F91AA
:104650000F900FBE0F901F901895882319F081308E
:1046600019F00895599A08955C9A0895882319F0CD
:10467000813019F00895599808955C9808958091B3
:104680000401282F247030E0359527958170822B06
:10469000089590910401292F287030E035952795D1
:1046A0003595279596959170922B83E089270895EB
:1046B0008093CE0384FF02C0289801C0289A90916D
:1046C000CE0395FF02C05D9801C05D9A8670869505
:1046D000909105019C7F892B8093050188E090E0F3
:1046E0000C94241FF8942091300430913104282B2D
:1046F000392B309331042093300478942091300486
:104700003091310428233923232BC1F70895E4E0A5
:10471000F1E0282F217090819A7F922B8270880F70
:10472000892B808382E090E00C94722393E08927A8
:10473000E4E0F1E0282F217030E0220F331F827077
:10474000880F880F282B8081857F282B208382E08B
:1047500090E00C94722381110FC080E890E00E94D9
:1047600072238091240490912504A0912604B09195
:104770002704B7FFF2CF0895813069F780E098E011
:104780000E9472238091280490912904A0912A0408
:10479000B0912B04B7FFF2CF089580EA95E09F9384
:1047A0008F93809105038F93809104038F930E94D0
:1047B000762A809113040F900F900F900F9080FF36
:1047C00006C06BE373E080E090E00E9407258091D3
:1047D000130485FF07C06091010167FD03C080E0FD
:1047E0000E94311F8091130486FF07C06091000171
:1047F00067FD03C081E00E94311F8091130487FF91
:1048000004C06FEF80E00E94311F809113049091EB
:104810001404A0911504B091160490FF04C06FEF2A
:1048200081E00E94311F1092130410921404109220
:1048300015041092160408958EEA95E09F938F93C5
:10484000809105038F93809104038F930E94762AB1
:104850008FEF9FEFDC018093130490931404A093D7
:104860001504B09316040F900F900F900F900C94B6
:10487000CD23EF92FF921F93CF93DF93CDB7DEB797
:1048800060970FB6F894DEBF0FBECDBF67FD53C073
:10489000882329F0813029F420E032E002C020E0B2
:1048A00031E0962F182FBE016F5F7F4FA901E0E125
:1048B0009E02400D511D1124CA010E94EE24812F39
:1048C0000E94AB23E12EF12C45E2149FF00111244C
:1048D000E55AFC4F89819A81948383838B819C81E3
:1048E000968385838D819E81908787838F8198852C
:1048F00092878187812F0E94641AF701E453FC4F4D
:1049000089858083F701E653FC4F8A858083F70110
:10491000EE0FFF1FE45DFB4F8B859C8591838083A9
:10492000111103C080E790E004C0113021F480E051
:1049300097E00E94722360960FB6F894DEBF0FBE18
:10494000CDBFDF91CF911F91FF90EF900895CF934E
:10495000C82F80E58CBD1DBC2C9881E40E94B91243
:104960008C2F0E94B9128FEF0E94B9122C9ACF910E
:1049700008951F93CF93DF931F92CDB7DEB7182F03
:1049800080E58CBD1DBC2C9880E469830E94B9121F
:10499000812F0E94B9126981862F0E94B9122C9A28
:1049A0000F90DF91CF911F9108950F931F93CF9395
:1049B000DF931F92CDB7DEB78B0149830E94361279
:1049C000498187FD05C0F8019081491708F48CEFF3
:1049D0000F90DF91CF911F910F910895EF92FF9269
:1049E0001F93CF93DF93EB0111E17C01E61AF70AE5
:1049F000115039F0C7018C0F9D1F0E941E2E899304
:104A0000F7CFDF91CF911F91FF90EF900895EF9234
:104A1000FF920F931F93CF93DF937C018B01C0E034
:104A2000D0E0F80161918F01CE018E0D9F1D0E9493
:104A3000262E2196C031D105A1F7DF91CF911F918C
:104A40000F91FF90EF900895EF92FF921F93CF93F5
:104A5000DF93FB01EE5BFF4F2591349182179307A3
:104A60000CF04CC0FB0125913491281739070CF04C
:104A700048C013E2A1E2B0E040E050E021E1115073
:104A800009F439C030E0E901CC0FDD1FFB01EC0F68
:104A9000FD1FE590F490FE013296E60FF71FC591D9
:104AA000D491C817D90724F4A9012A0F3B1F06C0C7
:104AB0008E159F0534F4D901240F351F35952795A0
:104AC000DECF4EEC4203B001439F700D11249B01D9
:104AD0002E513B4FBC016E197F094603C001479F11
:104AE000900D1124BE016E197F090E947A30C90110
:104AF000860F971F08C080E090E005C080E79EEF1A
:104B000002C082EE94E0DF91CF911F91FF90EF9071
:104B10000895A3E1B0E0EFE8F5E20C9405296C01FB
:104B20004B012A01FC0117821682838181FF43C356
:104B3000AE014F5F5F4F3A01F6019381F40193FD9F
:104B4000859193FF81914F01882309F430C3853209
:104B500039F493FD859193FF81914F01853239F4AA
:104B6000B60190E00E94912A52012501E5CF10E0A4
:104B7000F12C20E02032A0F48B3269F030F4803246
:104B800059F0833269F420612CC08D3239F08033C2
:104B900039F4216026C02260246023C0286021C02F
:104BA00027FD27C030ED380F3A3078F426FF06C0D5
:104BB000FAE01F9F300D1124132F13C04AE0F49E1A
:104BC000300D1124F32E20620CC08E3221F426FD0C
:104BD000EEC2206406C08C3611F4206802C088360C
:104BE00041F4F40193FD859193FF81914F0181116F
:104BF000C1CF9BEB980F933018F42061805E06C004
:104C00009BE9980F933008F071C12F7E26FF16E0C4
:104C10002F73322E853619F42064322E08C0863662
:104C200021F4F22FF0683F2E02C01111115037FE0F
:104C300007C01C3350F4EE24E394E10E27E00BC0D0
:104C4000183038F027E017E005C027E04CE3E42EE9
:104C500002C0212FE12C520144E0A40EB11CF2014C
:104C600060817181828193810E2DA3010E943C2974
:104C70002C01098100FF02C003FF07C031FC08C0FE
:104C800032FE09C030E2232E07C02DE2222E04C0DE
:104C90009BE2292E01C0212C802F8C7019F021104D
:104CA00068C2A8C237FE0FC0E40C04FF04C08A81AA
:104CB000813309F4EA941E1474F5F8E0FE1578F5D2
:104CC00088E0E82E2CC036FC2AC0812F90E08415A5
:104CD00095059CF02CEF42162FEF520674F0432DF1
:104CE0004068342E0AC0E2E0F0E0EC0FFD1FE10F57
:104CF000F11D8081803319F411501111F4CF37FE6A
:104D00000EC0EE24E394E10E812F90E04816590680
:104D10002CF4141904C0EE24E39401C010E037FE13
:104D200006C01414150434F4C201019605C085E0D0
:104D300090E002C081E090E021100196112331F053
:104D4000212F30E02F5F3F4F820F931F2F2D30E038
:104D50008217930714F4F81A01C0F12C832D89707F
:104D600049F4FF2039F0B60180E290E00E94912AD8
:104D7000FA94F7CF222029F0B601822D90E00E940C
:104D8000912A33FC09C0FF2039F0B60180E390E09E
:104D90000E94912AFA94F7CF37FE5AC0942D852DA0
:104DA00057FE02C090E080E0292E382E20E030E04F
:104DB000A2014E1951095D874C87A201421953097E
:104DC0005F874E87612F70E044275527461B570B9E
:104DD000598B488B5FEF2516350649F4B6018EE2F4
:104DE00090E02A8B3B8B0E94912A3B892A894214AE
:104DF00053046CF04C855D854215530544F4EE85F3
:104E0000FF85E20FF31FE60DF71D818101C080E3EE
:104E100051E0251A31082F5F3F4F488959892416E0
:104E200035064CF0B60190E02A8B3B8B0E94912A0C
:104E30002A893B89CFCF2414350439F49A819633DB
:104E400018F4953311F404FF81E3B60190E04BC0F0
:104E50008A81813309F00F7EB60190E00E94912A89
:104E6000111105C034FC18C085E690E017C0B601EA
:104E70008EE290E00E94912A82E0EE24E394E80E14
:104E8000F301E80FF11D8081B60190E00E94912AA4
:104E900011508E2D91F7E6CF85E490E0B6010E9487
:104EA000912A57FC05C04114510439F404FF05C090
:104EB0005194419451088DE201C08BE2B60190E01B
:104EC0000E94912A80E39AE0491651042CF08F5FEA
:104ED0005AE0451A5108F7CFB60190E00E94912A96
:104EE000B601C201C0960E94912A57C1833631F0A3
:104EF000833779F0833509F058C021C05201E2E0D0
:104F0000AE0EB11CF2018081898301E010E0230123
:104F100014C05201F2E0AF0EB11CF201408051808A
:104F200026FF03C0612F70E002C06FEF7FEFC20168
:104F30002A8B0E942D2A8C012A892F7715C05201B5
:104F4000F2E0AF0EB11CF2014080518026FF03C099
:104F5000612F70E002C06FEF7FEFC2012A8B0E94C9
:104F6000222A8C012A892068322E23FD1AC08F2D17
:104F700090E008171907A8F4B60180E290E00E94BB
:104F8000912AFA94F4CFF20137FC859137FE819192
:104F90002F01B60190E00E94912AF110FA9401507D
:104FA00011090115110579F7F8C0843611F0893619
:104FB00059F5520127FF09C0F4E0AF0EB11CF20110
:104FC00060817181828193810AC0F2E0AF0EB11CD1
:104FD000F20160817181072E000C880B990B2F76EE
:104FE000322E97FF09C090958095709561957F4FFF
:104FF0008F4F9F4F2068322E2AE030E0A3010E949D
:10500000E22AE82EE6183FC0022F853721F40F7EF2
:105010002AE030E01DC0097F8F3691F018F4883502
:1050200059F0C5C0803719F0883711F0C0C0006151
:1050300004FF09C0046007C024FF08C0066006C062
:1050400028E030E005C020E130E002C020E132E09D
:10505000520107FF09C0F4E0AF0EB11CF2016081FC
:1050600071818281938108C0F2E0AF0EB11CF20120
:105070006081718180E090E0A3010E94E22AE82E25
:10508000E6180F77302E36FE0BC0332D3E7FE1162B
:1050900050F434FE0AC032FC08C0332D3E7E05C0F9
:1050A0000E2D332D03C00E2D01C0012F34FF0CC077
:1050B000FE01EE0DF11D8081803311F4397E08C0B0
:1050C00032FF05C00E5F04C0832F867809F00F5FA2
:1050D00033FD13C030FF06C01E2D0F1518F41F0D31
:1050E000101B0F2D0F1568F4B60180E290E03B8B8A
:1050F0000E94912A0F5F3B89F5CF0F1510F4F01A2B
:1051000001C0F12C34FF12C0B60180E390E03B8B6C
:105110000E94912A3B8932FF17C031FD03C088E706
:1051200090E002C088E590E0B6010CC0832F86783D
:1051300059F031FF02C08BE201C080E237FD8DE201
:10514000B60190E00E94912AE11638F4B60180E39E
:1051500090E00E94912A1150F7CFEA94F301EE0DEE
:10516000F11D8081B60190E00E94912AE110F5CFF7
:1051700014C0F4E0FF1558F584E0F81A33FE1EC0A1
:10518000211026C003FF2AC00CEA10E0F32DF071B5
:105190003F2EF8018491811124C0FF2009F4E5CC51
:1051A000B60180E290E00E94912AFA94F6CFF601CF
:1051B0008681978126C08FEF9FEF23C0B60180E2E2
:1051C00090E00E94912AFA94F110F8CFD9CFF12CF7
:1051D000B601822D90E00E94912AD4CF00EB10E01E
:1051E000D5CF31108052B60190E00E94912A0F5F16
:1051F0001F4FCFCF23E02F1510F483E0BECFF12C4B
:10520000C1CF6396E2E10C9421292F923F924F92F5
:105210005F926F927F928F929F92AF92BF92CF9246
:10522000DF92EF92FF920F931F93CF93DF93CDB74F
:10523000DEB7CA1BDB0B0FB6F894DEBF0FBECDBFC7
:1052400009942A88398848885F846E847D848C8498
:105250009B84AA84B984C884DF80EE80FD800C81A1
:105260001B81AA81B981CE0FD11D0FB6F894DEBF84
:105270000FBECDBFED010895283008F027E0332799
:10528000DA01990F311D87FD916000966105710566
:1052900039F432602E5F3D9330E32A95E1F70895AB
:1052A0009F3F30F080387105610509F03C5F3C5F3D
:1052B0003D93913008F08068911DDF93CF931F9349
:1052C0000F93FF92EF92192F987F9695E92F96955D
:1052D0009695E90FFF27E25FFE4F99273327EE24CB
:1052E000FF24A701E70105900894079428F4360FDE
:1052F000E71EF81E491F511D660F771F881F991F53
:105300000694A1F70590079428F4E70EF81E491FAC
:10531000561FC11D770F881F991F661F0694A1F79E
:105320000590079428F4F80E491F561FC71FD11D7A
:10533000880F991F661F771F0694A1F705900794A1
:1053400020F4490F561FC71FD81F990F661F771FDC
:10535000881F0694A9F784911095177041F0D6958F
:10536000C79557954795F794E7941A95C1F7E4EBDD
:10537000F0E068941590159135916591959105909F
:105380007FE27395E118F10A430B560BC90BD00964
:10539000C0F7E10CF11E431F561FC91FD01D7EF43C
:1053A000703311F48A95E6CFE894015030F0080F7D
:1053B0000AF40027021708F4202F2395022F7A33CE
:1053C00028F079E37D932A95E9F710C07D932A951B
:1053D00089F6069497956795379517951794E11870
:1053E000F10A430B560BC90BD00998F023957E9117
:1053F00073957A3308F070E37C932013B8F77E91AD
:1054000070617D9330F0839571E37D9370E32A950D
:10541000E1F71124EF90FF900F911F91CF91DF9151
:10542000992787FD90950895FB01DC01415050407C
:1054300030F08D910590801919F40020B9F7881B80
:10544000990B0895FC010590615070400110D8F748
:10545000809590958E0F9F1F0895FC0161507040BC
:1054600001900110D8F7809590958E0F9F1F089599
:10547000CF93DF93EC012B8120FF33C026FF0AC0BE
:105480002F7B2B838E819F8101969F838E838A81C0
:1054900090E029C022FF0FC0E881F9818081082EA9
:1054A000000C990B009719F420622B831AC03196D7
:1054B000F983E8830EC0EA85FB85099597FF09C04B
:1054C0002B81019611F080E201C080E1822B8B8359
:1054D00008C02E813F812F5F3F4F3F832E83992746
:1054E00002C08FEF9FEFDF91CF910895A0E0B0E071
:1054F000ECE7FAE20C9413290F811885F8018381F7
:1055000088608383AE01455F5F4F69857A85C801F6
:105510000E948925F8012381277F2383E4E00C94EE
:105520002F290F931F93CF93DF93FB01238121FD3D
:1055300003C08FEF9FEF28C022FF16C0468157811E
:10554000248135814217530744F4A081B1819D0124
:105550002F5F3F4F318320838C93268137812F5FCC
:105560003F4F3783268310C0EB01092F182F00848B
:10557000F185E02D0995892BE1F68E819F810196B9
:105580009F838E83812F902FDF91CF911F910F9159
:105590000895AEE0B0E0EFECFAE20C9415298DE04E
:1055A0008C838B899C899A838983AE01495E5F4F86
:1055B0006D897E89CE0101960E94C02C2E96E2E074
:1055C0000C943129FA01AA27283051F1203181F1B8
:1055D000E8946F936E7F6E5F7F4F8F4F9F4FAF4FFB
:1055E000B1E03ED0B4E03CD0670F781F891F9A1F0E
:1055F000A11D680F791F8A1F911DA11D6A0F711DC2
:10560000811D911DA11D20D009F468943F912AE0CD
:10561000269F11243019305D3193DEF6CF010895B5
:10562000462F4770405D4193B3E00FD0C9F7F6CFE6
:10563000462F4F70405D4A3318F0495D31FD4052AE
:10564000419302D0A9F7EACFB4E0A6959795879544
:1056500077956795BA95C9F7009761057105089523
:105660009B01AC010A2E06945795479537952795CF
:10567000BA95C9F7620F731F841F951FA01D089567
:1056800020FD09C0FC0123FD05C022FF02C0738379
:10569000628351834083089544FD10C046FD10C0CD
:1056A000DB01FC01AA0FBB1FEE1FFF1F1094D1F7F7
:1056B0006A0F7B1F8E1F9F1F31E003C033E001C0C4
:1056C00034E0660F771F881F991F3150D1F7620FA2
:1056D000711D811D911D08950F931F93CF93DF932B
:1056E0008C01C8010E94382AEC0197FD08C00E9475
:1056F000EE2D892BB1F7B801CE010E94022ECE010A
:10570000DF91CF911F910F910895A1E0B0E0EBE8F8
:10571000FBE20C940B298C01C62E7A0129830E948E
:10572000382AAC01552729814B32510521F04D32E1
:10573000510569F42068CA94C11002C080E076C0A7
:10574000C80129830E94382A298197FDF7CF322F7B
:105750003D7FD32E322F307349F5803339F5BB248A
:10576000BA94BC0C09F44EC0C80129830E94382A9F
:10577000298197FD47C0382F3F7D383569F48D2D3D
:105780008264D82ECA94CA94CC20E1F1C8010E9448
:10579000382A97FF0BC036C026FF04C02D2D22608B
:1057A000D22E03C03D2D3261D32ECB2C812C912CD7
:1057B000540120ED280F283080F0D4FE04C0B80139
:1057C0000E94022E1CC02A3040F0D6FEF8CF2F7D5A
:1057D0003FEE320F363098F727504D2DC501B401FA
:1057E0000E944C2B4B015C018D2D8260D82ECA94F7
:1057F000CC2059F0C8010E94382A97FFDACFD1FC9B
:1058000004C09CCF812C912C5401D7FE08C0B094C9
:10581000A09490948094811C911CA11CB11C2D2DEE
:10582000B501A401C7010E94402B81E02196ECE064
:105830000C942729A1E2B0E0E0E2FCE20C940929F3
:105840005C017A01CE0101966C0180E2F6011192B1
:105850008A95E9F7F501838040E050E0912C712CA6
:1058600070E0A1E0B0E0F90183FC859183FE8191B5
:105870008F01982F9F01811103C080E090E07CC0D0
:105880008E3519F44115510549F1E72FF0E0E41781
:10589000F5073CF48D3559F18D3219F4772001F17B
:1058A00003C0711001C0982E892F86958695869524
:1058B0008601080F111D892F87703D0101C0660CFC
:1058C0008A95EAF7F801808186298083991559F035
:1058D000991510F49F5FE8CF9150E6CF71E004C0B6
:1058E0007724739401C0712C4F5F5F4FBCCF77203A
:1058F00019F08E8180628E83711103C09924939474
:1059000016C0F6019E012F5D3F4F808180958193E7
:10591000E217F307D1F7F2CFE114F10429F0F70110
:105920008083C70101967C016150912CF9F0C5017B
:1059300069A30E94382A69A197FD16C0282F2695D1
:1059400026952695F601E20FF11D208130E0AC018D
:105950004770552702C0359527954A95E2F720FDF7
:10596000DBCFB5010E94022E911087CFE114F10424
:1059700011F0F7011082C801A196EEE00C942529E0
:105980004F925F927F928F929F92AF92BF92CF92EF
:10599000DF92EF92FF920F931F93CF93DF931F92AB
:1059A000CDB7DEB76C012B015A01FC0117821682BC
:1059B000712CF601F380F201F3FC8591F3FE8191E5
:1059C000382F2F01882309F4F3C090E039830E9417
:1059D000EE2D3981892B21F0C6010E946C2BE9CF75
:1059E000353241F4F201F3FC3591F3FE31912F0190
:1059F000353269F4C60139830E94382A398197FD0E
:105A0000D5C03817B1F2B6010E94022ED1C03A3289
:105A100039F4F3FC3591F3FE31912F0151E001C0CF
:105A200050E0420110E020ED230F2A3090F4526044
:105A3000612F70E080E090E040E259830E944C2B9F
:105A4000162FF401F3FC3591F3FE31914F0159818A
:105A5000EACF052F232F240151FF03C0111102C0EB
:105A6000A7C01FEF383619F03C3659F011C0F401C9
:105A7000F3FC2591F3FE21912F01283649F4052FDF
:105A800008600460F201F3FC2591F3FE21912F01DF
:105A9000222309F48DC0622F70E08EEA91E0298301
:105AA0000E94F72D2981892B09F482C000FD07C0CF
:105AB000F501E080F180C50102965C0102C0E12C95
:105AC000F12C2E3651F4F6014681578160E070E0EA
:105AD000202FC7010E94402B6CCF233691F401FF89
