:100000000C949D030C94BA030C94BA030C94BA0399
:100010000C94BA030C94BA030C94BA030C94FC121B
:100020000C94BA030C94BA030C94BA030C94BA035C
:100030000C94BA030C94BA030C94BA030C94BA034C
:100040000C94BA030C946B0A0C94BA030C94BA0384
:100050000C94BA030C941C1C0C94BA030C949A11C3
:100060000C94BA030C9458110C94BA030C94BA0370
:100070000C94BA030C94BA030C94BA030C94BA030C
:100080000C94BA030C94BA030C94BA030C94BA03FC
:100090000C94BA030C94BA030C94BA030C94BA03EC
:1000A0000C94BA030C94BA030C94BA034552524F01
:1000B000523A20727820627566666572206F7665A6
:1000C00072666C6F770A00AA6A5A56555595A5A9AB
:1000D000AA2575200025752000256920002568685F
:1000E00075256E002575256E002569256E00237324
:1000F0007069313D257820647276313D256C782019
:10010000677374313D257820676366313D256C78CF
:100110000A0023737069303D257820647276303D83
:10012000256C7820677374303D25782067636630CE
:100130003D256C780A0025692000256C752000009B
:10014000534C412D636F6E74726F6C2025642E25A5
:10015000642E25642D256425532000435A505825CC
:1001600034735825337358256325357320000103F4
:10017000050E0F111213151617383A000204253018
:1001800032780025642025642000256C6920003F1A
:100190003F3F3F004552524F523D25642028255392
:1001A000290A004E4F4E45004348534100434853EF
:1001B0004200534E4E530046555345004C4F434B5F
:1001C0000047535049005453504900545349470085
:1001D000414443560054484552004D4F544F004649
:1001E000414E5300554C454400490053005F006D9B
:1001F000007D009000A500BD00D900F8001C01435F
:10020000016E019C01CE01020237026C02A102D3F1
:100210000202032D03530375039103A903BD03CD0C
:1002200003DA03E303EB03F103F503F80323746933
:1002300070682073746570732025640A00256C64EF
:100240000A0023494E54360A006B696C6C65640AD7
:10025000004D435553523D3078253032780A0073B3
:10026000746172740A006265657081626F6F74B543
:10027000636C6564856565636C9F65657278A06570
:10028000657778A16563686FAA66616E65B366611C
:100290006E738A6670776DB26672706D9D6D6F74E5
:1002A000728D706C65648270707374BF7070776DDE
:1002B000B170737064B97273656EAD72736D65AF52
:1002C00072737374AE73676263BA73676264BB738D
:1002D00068646E8374656D709E74696366A77469E3
:1002E0006373A9746963759674696863C174696896
:1002F0006F9874696D61A374697068BD7469706F7B
:10030000A5746973679A74697374C374726177B6FC
:1003100074776366A674776373A87477637595744E
:1003200077646E8F74776863C07477686F9774773B
:100330006D61A274777068BC7477706FA474777302
:10034000679974777374C2747775708E756C656411
:10035000847570776DB8766F6C74B076726177B7AC
:100360007764656CBE7769646CB4666D736BC467E3
:100370006F7365C574777466C874697466C9746987
:100380007363C775737461CA5F706F72E15F646491
:1003900072E25F70696EE36469720F656E610C658D
:1003A0006E6411657272416C65640D6C6F67426DAD
:1003B0006F7410727374017365720374737443768F
:1003C0006572027265761370756E12013F04433ECA
:1003D0000F83B6068DAC06972A049815049F510624
:1003E000B44006B50304BBFF03C0EB03C1D703C58C
:1003F000CC03CA9B05007308016B10023B07033C4A
:100400000512DA041325050C6B100D6B100F6B1021
:10041000106B10116B10416B10426B10826B1084CB
:100420003B09856B108A6B10956B10966B1097AB20
:100430000798AB07C79727996B109A6B109D4B09CC
:100440009E3D08B03D08B6ED08B7ED08B16B10B998
:100450006B10B86B10B24B09B36B10A42307A50443
:1004600028A6E127A7E127A8AB07A9AB07AAAB07F6
:10047000AD6B10AE6B10BA6B10BBB227BC0609BDDA
:100480000609BFA127C05608C15608C4AB07C86BF0
:1004900010C96B10CA5A070C72260D72260F7226ED
:1004A00010722611722641722642722683722681AC
:1004B000442482722684FC238572268E71258F71D6
:1004C000258A72269572269672269910269A1026EB
:1004D0009F5106A29324A32025A49324A52025A6FA
:1004E0003423A73423A81026A91026AA7226B17295
:1004F00026B97226B87226B26722AD7226AF93244F
:10050000BE7125BC7125BD7125C21026C31026C041
:10051000FB22C1C222C47226BF4122C7C512E156C6
:1005200012E35612E25612A61612A71612E1C311D2
:10053000E3C311E2C3116525640A006F6B0A00452D
:1005400052524F523A20636F6D6D616E64206F7628
:100550006572666C6F770A00236F6C69636E745FF7
:1005600074696C743D256868750A00236F6C696353
:100570006E745F746F7765723D256868750A002335
:100580006472765F7374617475735B25645D3D2579
:1005900030386C780A00237370695F737461747506
:1005A000735B25645D3D2530326868780A0025302C
:1005B00032686878200023747770682073746570DF
:1005C000732025640A00256C69256E00256868691A
:1005D000256E00000A0014F000F0001407BC0200B1
:1005E000000000B004DC05A000A00010074C0400CF
:1005F000000000000F0014500050001006DC050041
:1006000000000064007800C800C8000B00DC050092
:10061000000000DC05DC05000000002C2834080088
:1006200000000090019001000000003E3F0000002B
:10063000000000D606D606000000002C28D00700D7
:10064000000000000F0014C800C8000F037E040063
:10065000000000C409983AFA0096001604640000ED
:10066000000000C4094C1DFA0096001001F40100BE
:10067000000000800C983AFA00FA000A039808007B
:1006800000000064009600320032000F00DC05001C
:10069000000000800CC044FA00FA002206F40100B9
:1006A000000000800CC044FA00FA001206F40100B9
:1006B00000000040068025C800C8003F04F4010087
:1006C000000000C4094C1D5E015E010C02780500AB
:1006D00000000019001D00220028002E00360040F6
:1006E000004B00580069007C009200AD00CC00F186
:1006F000001A014A017E01B701F40133027102AF11
:1007000002E8021C034A0372039303AD03C303D33D
:1007100003E003E903F00345464765666700202BC5
:100720002D2E303132333435363738396800636432
:10073000696E6F7073757858000011241FBECFEF7B
:10074000DAE0DEBFCDBF27E0A6E3B4E001C01D9232
:10075000A333B207E1F714E0A0E0B1E0E4EBF5E683
:1007600002C005900D92A633B107D9F70E946B170E
:100770000C94D8320C940000E091A105ED50E83BB8
:1007800040F4F0E0EE0FFF1FE556FD4F80819181B0
:10079000089580E090E0089583E080938E0580E4E2
:1007A00080930C0184E08093A20580E008958091FD
:1007B000180781FD0EC081E0809300018FEF9FEF4D
:1007C000909303018093020180E18093530480E0C1
:1007D00008958EEF08958091180780FD0EC081E086
:1007E000809301018FEF9FEF9093050180930401A7
:1007F0008AE08093460480E008958EEF0895109279
:100800000C0680E0089587E797E7909301088093AE
:10081000000898E088E10FB6F894A89580936000EE
:100820000FBE90936000F894FFCF90911807892F26
:10083000827091FD0DC091E090930001209106011E
:100840003091070137FD80E18093530480E00895E3
:100850008EEF089590911807892F817090FD0DC03B
:1008600091E090930101209108013091090137FD39
:1008700080E18093460480E008958EEF089598E02B
:1008800088E10FB6F894A895809360000FBE90930E
:100890006000F894FFCF8F929F92AF92BF92CF9259
:1008A000DF92EF92FF920F931F93CF93DF936A0132
:1008B0007B01082F10E095E2899FE0011124C85EBA
:1008C000DA4FAB85BC852D853E8549018A0E9B1E7E
:1008D000A12CB12C481559056A057B05A8F0BD8FE0
:1008E000AC8FC818D908EA08FB08CE8EDF8EE8A2C4
:1008F000F9A23BA32AA3AB2B11F086E001C084E050
:10090000232BA9F0886013C09A01AB010E94C2306A
:10091000A50194010E9491303D8F2C8F1E8E1F8E59
:1009200018A219A2C21AD30ADBA2CAA28AE095E2CF
:10093000909FF001919FF00D1124E85EFA4F878B94
:10094000DF91CF911F910F91FF90EF90DF90CF90AB
:10095000BF90AF909F908F9008958EBD0DB407FE0D
:10096000FDCF8EB5089580916D0490916C04981719
:1009700081F0E82FF0E0E159FB4F208130E08F5FFC
:1009800090916B04891708F080E080936D04C90191
:1009900008958FEF9FEF08958093CE008091C80057
:1009A00086FFFCCF8091C80080648093C80080E0FF
:1009B00090E00895CF92DF92FF920F931F93CF9311
:1009C000DF93CDB7DEB760970FB6F894DEBF0FBEEA
:1009D000CDBF2EE631E08E010F5F1F4FD80141E2FF
:1009E00090E1F92EF00EF9018491E82FF0E04093A8
:1009F000570084918D932F5F3F4FFA12F4CF8EE70B
:100A0000C82E81E0D82EF80181918F01282F082E61
:100A1000000C330B3F938F93DF92CF920E944D2FA8
:100A20000F900F900F900F90F012EDCF80E0609636
:100A30000FB6F894DEBF0FBECDBFDF91CF911F91EF
:100A40000F91FF90DF90CF90089581EF94E00E9486
:100A50009D2E9F938F931F9286E08F9383E891E062
:100A60009F938F930E944D2F0F900F900F900F9098
:100A70000F900F9080E00895BF92CF92DF92EF9297
:100A8000FF920F931F93CF93DF93CDB7DEB763979A
:100A90000FB6F894DEBF0FBECDBFFE01319683E1E5
:100AA000DF011D928A95E9F78E010C5F1F4F44E02C
:100AB00050E064EF74E0C8010E949F327E01B9E00B
:100AC000EB0EF11C43E050E068EF74E0C7010E94B8
:100AD0009F3283E4B82EBD866E018EE0C80ED11C15
:100AE00045E050E06CEF74E0C6010E949F32DF9257
:100AF000CF921F92BF92FF92EF921F930F938BE5BD
:100B000091E09F938F930E944D2F0FB6F894DEBF14
:100B10000FBECDBF80E063960FB6F894DEBF0FBE68
:100B2000CDBFDF91CF911F910F91FF90EF90DF909C
:100B3000CF90BF900895CF92DF92EF92FF92CF9324
:100B4000DF93CDB7DEB728970FB6F894DEBF0FBEA0
:100B5000CDBF8091050581FF85C01D821E821F8249
:100B6000188619821A821B821C8244E0BE016B5FC8
:100B70007F4F86E190E00E94652A44E0BE016F5FEE
:100B80007F4F8AE190E00E94652AC0901E07D090B6
:100B90001F07E0902007F09021078D819E81AF8193
:100BA000B8858C0D9D1DAE1DBF1D8D839E83AF83AB
:100BB000B88720911001822F90E0A0E0B0E09C0166
:100BC000AD0185E0220F331F441F551F8A95D1F7D1
:100BD000A0911301B091140180911501909116011B
:100BE000A80FB91F8091170190911801A80FB91F84
:100BF0000E94C23020E836E948E950E00E94913076
:100C0000C701B6010E94593020E13EE040E050E0CB
:100C10000E94913089819A81AB81BC81820F931FA0
:100C2000A41FB51F89839A83AB83BC8344E050E043
:100C3000BE016B5F7F4F86E190E00E94192944E07E
:100C400050E0BE016F5F7F4F8AE190E00E9419295A
:100C500010921E0710921F07109220071092210772
:100C600080E001C08BEF28960FB6F894DEBF0FBE70
:100C7000CDBFDF91CF91FF90EF90DF90CF9008959F
:100C800080911807837019F00E947A14F9CF80912F
:100C900001011816CCF3809100011816ACF380E026
:100CA0000895CF92DF92EF92FF920F931F93CF930D
:100CB000DF9300D000D0CDB7DEB700E011E06FEFDA
:100CC000C8010E9423300F5F1F4F063123E0120737
:100CD000B1F719821A821B821C8244E0BE016F5F49
:100CE0007F4F86E190E00E94652A89819A81AB81DD
:100CF000BC818F3F9F4FAF4FBF4F01F519821A82C2
:100D00001B821C82CE0101967C016C0106E110E081
:100D1000F60161916F01C8010E943B300F5F1F4FC8
:100D20000A311105A9F7F70161917F01C8010E94FD
:100D30003B300F5F1F4F0E311105A9F780E00F9078
:100D40000F900F900F90DF91CF911F910F91FF9017
:100D5000EF90DF90CF90089580E00E9463288FEF9E
:100D6000809301018093000180E0089580E00E945B
:100D7000C82A1092240780E00895FB0190E09417A0
:100D800081F02491BF016D5F7F4F281307C031961A
:100D900085919491009739F0FC0109949F5FFB01C4
:100DA000EECF89EF08958AEF08950F931F93CF93A5
:100DB000DF93582FC42FD0E021962223B1F0FB01FE
:100DC000DC013A2F351B341728F40D91149131961C
:100DD0000117B9F32150341305C0FB01E30FF11DD6
:100DE000849104C06C0F7D1FE8CF8FEFDF91CF910E
:100DF0001F910F910895CF93DF93CDB7DEB7AE016A
:100E00004B5F5F4FFA0161917191AF0180919B053A
:100E100090919C050E948C2FDF91CF910895CF93E4
:100E2000DF93CDB7DEB7AE014B5F5F4FFA01619143
:100E30007191AF018091A3059091A4050E948C2F20
:100E4000DF91CF910895E8E1F5E086898F93858958
:100E50008F9384898F9383898F938AE891E09F93FE
:100E60008F930E940F070F900F900F900F900F908D
:100E70000F9080E008958FE391E09F938F9381E03E
:100E80008F9389E98F931F9289E08F931F928F939D
:100E90001F921F9280E491E09F938F930E940F070F
:100EA0008DB79EB70C960FB6F8949EBF0FBE8DBF40
:100EB00080E008950F931F93CF93DF9300D000D06D
:100EC000CDB7DEB719821A821B821C8244E0BE01B4
:100ED0006F5F7F4F86E190E00E94652A40911E0778
:100EE00050911F07609120077091210789819A8195
:100EF000AB81BC81840F951FA61FB71FBF93AF9313
:100F00009F938F930AE311E01F930F930E940F07A3
:100F100044E0BE016F5F7F4F8AE190E00E94652A46
:100F20008C818F938B818F938A818F9389818F930B
:100F30001F930F930E940F070FB6F894DEBF0FBEEA
:100F4000CDBF80E00F900F900F900F90DF91CF9169
:100F50001F910F9108950E94BC03009719F0FC01A6
:100F6000808101C080E0282F082E000C330B3F93B6
:100F70008F9386E391E09F938F930E940F070F90CA
:100F80000F900F900F9080E00895CF93DF9300D0E3
:100F9000CDB7DEB79E012F5F3F4F3F932F937F93D7
:100FA0006F9329EE30E03F932F939F938F930E948E
:100FB000732F0FB6F894DEBF0FBECDBF019711F4AB
:100FC000898101C08DEF0F900F90DF91CF9108952F
:100FD000CF93DF9300D0CDB7DEB79E012F5F3F4F99
:100FE0003F932F937F936F9324EE30E03F932F93A3
:100FF0009F938F930E94732F0FB6F894DEBF0FBE9E
:10100000CDBF019711F4898101C08DEF0F900F9032
:10101000DF91CF910895CF93DF9300D0CDB7DEB7A6
:101020009E012F5F3F4F3F932F937F936F932DED43
:1010300030E03F932F939F938F930E94732F0FB6AF
:10104000F894DEBF0FBECDBF019711F4898101C0B6
:101050008DEF0F900F90DF91CF9108959F938F9315
:1010600089ED90E09F938F930E940F070F900F9050
:101070000F900F9097FD80E008950F931F93CF93EB
:10108000DF930E94BC03009759F0EC018C01085FCC
:101090001F4F899199910E942E08C017D107C9F757
:1010A00080E0DF91CF911F910F9108950E94BC03C2
:1010B000009721F0FC018081918102C080E090E0E6
:1010C0000E942E0880E008959F938F9385ED90E015
:1010D0009F938F930E940F070F900F900F900F9088
:1010E00097FD80E008951092480410924704809183
:1010F000470490914804209118072370822B909305
:101100004804809347048091A2058F3F21F085E039
:1011100090E00E9449172091020527FD09C08091A7
:101120004704909148048064909348048093470456
:1011300025FD09C0809147049091480480689093F0
:101140004804809347048091010587FD09C0809180
:101150004704909148049160909348048093470419
:1011600080919A05882349F0809147049091480422
:10117000906290934804809347048091A205823046
:1011800039F481E080938E0583E08093A2050DC041
:101190008091A2058F3F49F48091470490914804C3
:1011A0009068909348048093470485E080932307D8
:1011B0008091FA05882349F0809147049091480472
:1011C00090649093480480934704809147049091E1
:1011D00048040E94640880E008950F931F93CF9302
:1011E000DF930E94BC03009759F0EC018C01085F6B
:1011F0001F4F899199910E946408C017D107C9F7C0
:1012000080E0DF91CF911F910F9108950E94BC0360
:10121000009721F0FC01808191811AC08091A10585
:101220008C3B59F08D3B91F480E090E20E9449178D
:101230008091D8059091D9050BC080E090E10E9483
:1012400049178091D6059091D70502C080E090E0C3
:101250000E94640880E008951F928F9381ED90E0D2
:101260009F938F930E940F070F900F900F900F90F6
:1012700097FD80E0089580910505869581700E9414
:101280002C0980911C0790911D07009711F00E9476
:10129000640880E008950F931F93CF93DF930E941B
:1012A000BC03009751F0EC018C010C5F1F4F89913A
:1012B0000E942C09C017D107D1F780E0DF91CF91B0
:1012C0001F910F9108950F931F93CF938C01FC01F1
:1012D000808191810E946408C82FF80182819381E6
:1012E0000E946408C80FF801848195810E946408F7
:1012F000C80FF801868197810E946408C80FF80121
:1013000080850E942C09C80FF8018185282F082E9E
:10131000000C330B3F938F9386E391E09F938F9361
:101320000E940F070F900F900F900F9097FD02C033
:10133000982F01C090E0C90FF801828593850E9423
:1013400064088C0FCF911F910F91089580914504EF
:10135000882309F46BC0809144049091430488234E
:10136000C1F0815080934404911160C08FE694E0F5
:10137000909399008093980080E4809390002F9A36
:101380008091050581608093050581E08093430489
:101390000895992351F0109290002F98809105059F
:1013A0008E7F809305051092430480914204882328
:1013B00021F0815080934204089520914104E22F4E
:1013C000E695E695F0E0E35CFB4F808190E0422FEC
:1013D000437023E030E0241B3109220F331F02C089
:1013E000959587952A95E2F78370823059F083307E
:1013F00081F0813019F01092440407C080E380939B
:10140000440404C080E98093440480E38093420450
:1014100002C010924104809141048F5F8093410487
:1014200090914504891710F0109241040895CF92CD
:10143000DF92EF92FF926B017C0120E030E0A90186
:101440000E943A31811103C0109290001CC0A70184
:10145000960160E074E284E799E40E943F3120E065
:1014600030E040E05FE30E94CD300E94B131683C43
:10147000710510F468EC70E0709399006093980027
:1014800080E480939000FF90EF90DF90CF900895DC
:10149000E82FF0E0E953FF4FE491F0E0FE2FEE2754
:1014A000853010F0E06401C0E068F894F0933D04EA
:1014B000E0933E04109241041092440410924204BE
:1014C00088E080934504789408958EBD0DB407FE9E
:1014D000FDCF8EB508951F920F920FB60F92112473
:1014E0004F925F926F927F928F929F92AF92BF9234
:1014F000CF92DF92FF920F931F932F933F934F93BF
:101500005F936F937F938F939F93AF93BF93CF938B
:10151000DF93EF93FF931092850010928400C090A8
:101520002905D0902A0500914E0510914F05E1E064
:10153000C016D10608F0E0E0E0933C0445E2E49FE9
:10154000F0011124E85EFA4FC189D289D0933B049F
:10155000C0933A048091840090918500209709F40B
:10156000B7C2F9B0F294F694F69493E0F922809120
:101570000B06F82A80919405F8228F2D90E0909325
:10158000390480933804C03A56E3D50750F0FE0181
:1015900086E0F695E7958A95E1F7E55EFE4F46A170
:1015A0001AC0C03A66E2D60748F0FE01B5E0F695EB
:1015B000E795BA95E1F7E959FF4F0CC0C03A7EE1D3
:1015C000D70758F0FE01A4E0F695E795AA95E1F754
:1015D000ED5CF040408150E01AC0C032D105A8F067
:1015E000BE0176956795CB01A0E0B0E0BC01CD01CE
:1015F00060587B47814E9F4F4E01A12CB12CA50115
:1016000094010E949130A90102C040E050E0509343
:101610003704409336048091840090918500F091C6
:101620001807F0FF24C12091320530913305240FB3
:10163000351F30933305209332058091300590910A
:101640003105C816D90608F40CC18C0F9D1F8C19E2
:101650009D099093310580933005E0912F0580918D
:101660002B0590912C05A0912D05B0912E05F4FF2E
:1016700004C00197A109B10903C00196A11DB11DC4
:1016800080932B0590932C05A0932D05B0932E05E8
:10169000E1FF50C0A0911F05B09120052F3F3105FB
:1016A00009F058F44A9FB0014B9F700D5A9F700D7E
:1016B0001124CB01A0E0B0E005C09A010E94B33034
:1016C000DC01CB0173E0880F991FAA1FBB1F7A951D
:1016D000D1F78090270590902805A0902905B0901B
:1016E0002A05880D991DAA1DBB1D8093270590937F
:1016F0002805A0932905B0932A058091340590917F
:10170000350501979093350580933405892B09F0B1
:101710008BC08E2F8D7FE2FF86C020911D053091FA
:101720001E0530932A052093290510922805109252
:10173000270579C0E2FF28C08091360590913705D2
:10174000A0913805B09139050197A109B10980939D
:10175000360590933705A0933805B0933905892B4A
:101760008A2B8B2B09F060C08E2F8B7FE3FD5BC033
:10177000FE7FF0931807109227051092280510920B
:10178000290510922A054FC0E3FF4EC0A091210504
:10179000B09122052F3F310509F058F44A9FB0015E
:1017A0004B9F700D5A9F700D1124CB01A0E0B0E04B
:1017B00005C09A010E94B330DC01CB0163E0880FC1
:1017C000991FAA1FBB1F6A95D1F78090270590909B
:1017D0002805A0902905B0902A0524013501481A52
:1017E000590A6A0A7B0A409227055092280560929E
:1017F000290570922A0580913A0590913B05019741
:1018000090933B0580933A05892B71F4E77FFE7F27
:10181000F0931807109227051092280510922905B9
:1018200010922A0501C0E82F80913C05882321F001
:10183000815080933C050CC0F0FE0AC080911807CF
:101840008E7F8093180780915404816080935404A4
:10185000E0932F051092330510923205DD24D394C6
:1018600007C08C199D099093310580933005D12CC8
:10187000F0911807F1FF28C1809157059091580504
:10188000840F951F90935805809357052091550517
:10189000309156050217130708F40DC1C20FD31F6C
:1018A000C01BD10BD0935605C0935505E09154054C
:1018B000009150051091510520915205309153052A
:1018C000F5FF05C0015011092109310904C00F5F5E
:1018D0001F4F2F4F3F4F00935005109351052093FA
:1018E000520530935305E1FF50C0A0914405B091DB
:1018F00045058F3F910509F058F44A9FB0014B9F71
:10190000700D5A9F700D1124CB01A0E0B0E005C00E
:101910009A010E94B330DC01CB0133E0880F991F9C
:10192000AA1FBB1F3A95D1F700914C0510914D05A8
:1019300020914E0530914F05800F911FA21FB31FBC
:1019400080934C0590934D05A0934E05B0934F05A1
:101950008091590590915A05019790935A0580936B
:101960005905892B09F08BC08E2F8D7FE2FF86C031
:10197000209142053091430530934F0520934E0549
:1019800010924D0510924C0579C0E2FF28C080915D
:101990005B0590915C05A0915D05B0915E05019796
:1019A000A109B10980935B0590935C05A0935D0547
:1019B000B0935E05892B8A2B8B2B09F060C08E2F8C
:1019C0008B7FE3FD5BC0FD7FF093180710924C0501
:1019D00010924D0510924E0510924F054FC0E3FF37
:1019E0004EC0A0914605B09147058F3F910509F083
:1019F00058F44A9FB0014B9F700D5A9F700D1124EF
:101A0000CB01A0E0B0E005C09A010E94B330DC0138
:101A1000CB0123E0880F991FAA1FBB1F2A95D1F77E
:101A200000914C0510914D0520914E0530914F05C8
:101A3000B901A801481B590B6A0B7B0B40934C055D
:101A400050934D0560934E0570934F0580915F054F
:101A50009091600501979093600580935F05892BB5
:101A600071F4E77FFD7FF093180710924C051092F8
:101A70004D0510924E0510924F0501C0E82F809140
:101A80006105882321F08150809361050CC0F1FE2F
:101A90000AC0809118078D7F8093180780915404A5
:101AA000826080935404E09354051092580510927C
:101AB000570582E008C0E901C01BD10BD093560541
:101AC000C093550580E0D82A8D2D0E94312806C08C
:101AD00080ED97E09093370480933604809136042C
:101AE000909137049093890080938800209184001E
:101AF000309185008091360490913704281739077A
:101B000028F00A979093850080938400FF91EF91CD
:101B1000DF91CF91BF91AF919F918F917F916F9105
:101B20005F914F913F912F911F910F91FF90DF9007
:101B3000CF90BF90AF909F908F907F906F905F906D
:101B40004F900F900FBE0F901F901895CF92DF927D
:101B5000EF92FF920F931F93CF93DF9300D000D0AB
:101B6000CDB7DEB7082F10E021E030E06901082E84
:101B700001C0CC0C0A94EAF7909118079C2109F057
:101B80005BC0411551056105710509F457C0F82E78
:101B9000EC2CE09449835A836B837C8314161506DE
:101BA000160617069CF40E9459288E210E944A2886
:101BB0008C2D8295807F8095909118078923809342
:101BC000180749815A816B817C8118C00E9459286D
:101BD0008C290E944A28809118079C2D9295907F0D
:101BE000892B8093180749815A816B817C8170957C
:101BF0006095509541955F4F6F4F7F4F8F2D0E949D
:101C00004B0485E2809FF001819FF00D1124E85E76
:101C1000FA4F108A178683819481928B818B80E49E
:101C200084A380915404E822E09254048091180720
:101C30008C298093180702C08FEF01C080E00F90BD
:101C40000F900F900F90DF91CF911F910F91FF9008
:101C5000EF90DF90CF900895CF92DF92EF92FF92B6
:101C60000F931F93CF93DF93C82ED12C95E2899FBA
:101C7000E0011124C85EDA4F8D819E810B811C81A9
:101C80007C01E01AF10A080F191F2F8138852115F0
:101C9000310539F1C701A0E0B0E0BC01CD01ECE0B5
:101CA000660F771F881F991FEA95D1F740E050E033
:101CB0000E949130F4E05695479537952795FA950F
:101CC000D1F7D8010E94C2306C5D7B408F4F9F4F8F
:101CD00028E438EE41E050E00E9491303C872B87A9
:101CE00002C01C861B8685E28C9DE0018D9DD00D77
:101CF0001124C85EDA4F29853A852115310539F15D
:101D0000C701A0E0B0E0BC01CD014CE0660F771F39
:101D1000881F991F4A95D1F740E050E00E9491300A
:101D200064E056954795379527956A95D1F7D80180
:101D30000E94C2306C5D7B408F4F9F4F28E438EE8D
:101D400041E050E00E9491303E872D8702C01E8600
:101D50001D86DF91CF911F910F91FF90EF90DF9043
:101D6000CF9008958F929F92BF92CF92DF92EF9281
:101D7000FF920F931F93CF93DF931F92CDB7DEB7E0
:101D8000B82E8A018CE5F82EFCBC1DBC8B2D698316
:101D90000E9441286981862F0E94AD0480E00E9444
:101DA000AD0480E00E94AD0480E00E94AD0480E0BC
:101DB0000E94AD048B2D0E943828FCBC1DBC8B2DCD
:101DC0000E944128EB2CF12C80E00E94AD04970189
:101DD0002C523A4F4901F901808380E00E94AD0402
:101DE000C82ED12CE12CF12CFE2CED2CDC2CCC249B
:101DF00080E00E94AD04C82AFE2CED2CDC2CCC2403
:101E000080E00E94AD04C82AFE2CED2CDC2CCC24F2
:101E100080E00E94AD04C82A8B2D0E94382801154D
:101E2000110529F0F801C082D182E282F382F40127
:101E300080810F90DF91CF911F910F91FF90EF90D4
:101E4000DF90CF90BF909F908F900895CF93DF93B6
:101E500000D000D0CDB7DEB719821A821B821C8257
:101E6000AE014F5F5F4F61E00E94B20E89810F901B
:101E70000F900F900F90DF91CF910895AF92BF9286
:101E8000CF92DF92EF92FF920F931F93CF93DF9346
:101E900000D000D0CDB7DEB7F89419821A821B8229
:101EA0001C82AE014F5F5F4F60E080E00E94B20E87
:101EB00019810A81FB80EC8080E00E94260FEF925E
:101EC000FF920F931F931F928F9300E117E0F80189
:101ED00083818F9382818F9381818F9380818F9370
:101EE00084EDE82E85E0F82EF70180811F928F9314
:101EF00082E191E09F938F930E94FB0619821A82E0
:101F00001B821C82AE014F5F5F4F60E081E00E9448
:101F1000B20ED980CA80BB80AC8081E00E94260FBF
:101F2000AF92BF92CF92DF921F928F93F801878179
:101F30008F9386818F9385818F9384818F93F7010F
:101F400081811F928F938EEE90E09F938F930E94DA
:101F5000FB0678940FB6F894DEBF0FBECDBF80E0CD
:101F60000F900F900F900F90DF91CF911F910F91D5
:101F7000FF90EF90DF90CF90BF90AF9008951F93A8
:101F8000CF93DF9300D000D01F92CDB7DEB7182FCC
:101F90008CE58CBD1DBC812F2D833C834B835A83E4
:101FA00069830E9441286981862F0E94AD045A816D
:101FB000852F0E94AD044B81842F0E94AD043C818B
:101FC000832F0E94AD042D81822F0E94AD04812FAA
:101FD0000E94382880E00F900F900F900F900F9084
:101FE000DF91CF911F91089599E0899FF00111240D
:101FF000EA5FFA4F6683462F660F550B660B770B29
:10200000332722276DEE0C94BF0FCF92DF92EF9211
:10201000FF921F93CF93DF93182F603218F06695CD
:1020200020E001C021E0822F90E0A0E0B0E06C0150
:102030007D0181E1CC0CDD1CEE1CFF1C8A95D1F7E3
:1020400089E0189FE0011124CA5FDA4F88819981E5
:10205000AA81BB81AD7FA7019601282B392B4A2B82
:102060005B2B288339834A835B836C836D836CEE9F
:10207000812F0E94BF0F2C812F71822F90E0A0E052
:10208000B0E0AF604D814F7150E0542F4427052ED2
:10209000000C660B770B9A01AB01282B392B4A2BCE
:1020A0005B2B60E9812FDF91CF911F91FF90EF9023
:1020B000DF90CF900C94BF0F29E0829FC0011124C4
:1020C000FC01EA5FFA4F4081518162817381858111
:1020D00061FF880F08950E94BC03009719F0FC016E
:1020E000808153C08091A1058539B1F198F48F307A
:1020F00049F140F4813009F18C3009F045C00E946B
:10210000782843C0813121F100F18538E9F58091CB
:10211000050530C08D3A51F140F4893909F18A3909
:1021200011F1863989F581E018C0883C39F1893C84
:1021300039F18E3A49F58CB11DC080919A05109203
:102140009A0523C00E94592820C08091180702C018
:10215000809194058F7019C080E00E945C1015C0BA
:1021600080910C0512C0809115050FC08091F90572
:1021700081700BC082FB882780F907C080E001C016
:1021800081E00E942B2101C080E00E942C0980E0A8
:102190000895FF920F931F93CF93DF9300D000D049
:1021A000CDB7DEB7F82E83ED90E0A3E0B4E18983EC
:1021B0009A83AB83BC8329E0F29E800111240A5FDD
:1021C0001A4FF80180839183A283B38380E18483D3
:1021D000858383E086838CED95E09087878323ED6C
:1021E00030E043E054E16CEE8F2D0E94BF0FAE0152
:1021F0004F5F5F4F6CE68F2D0E94B20EF801408159
:1022000051816281738189819A81AB81BC81481738
:1022100059076A077B0771F520E030E0A90161E901
:102220008F2D0E94BF0FF8012681822F220F990B5C
:10223000AA0BBB0BDC01992788279C01AD015160DB
:102240006DEE8F2D0E94BF0FF8012781308540E091
:1022500050E064E98F2D0E94BF0F20E831E340E099
:1022600050E060E88F2D0E94BF0F8F2D0E94260F37
:1022700080E001C08FEF0F900F900F900F90DF91D3
:10228000CF911F910F91FF9008951092F805109231
:10229000F3058091030580FD04C01092F5051092AE
:1022A000F40581FD04C01092F7051092F60508951B
:1022B0001F920F920FB60F9211242F938F939F931B
:1022C000EF93FF932091CE0080916C0490916D0468
:1022D000E82FF0E0E159FB4F20838F5F20916B04E2
:1022E000821708F080E0891719F080936C0418C0F9
:1022F000F894ECEAF0E08BE18E0F9091C80095FF26
:10230000FCCF94919093CE009091C80096FFFCCFA3
:1023100031968E13F2CF789410926C0410926D0463
:10232000FF91EF919F918F912F910F900FBE0F9082
:102330001F9018951F920F920FB60F9211248F9332
:102340009F93AF93BF9386B58A5F86BD7894809143
:102350008A0590918B05A0918C05B0918D05019611
:10236000A11DB11D80938A0590938B05A0938C05C8
:10237000B0938D05BF91AF919F918F910F900FBE3C
:102380000F901F901895E0919F05F091A005908106
:102390002EEB290F253008F047C02091A105223EE1
:1023A00061F1233EB1F0213ED9F5943461F018F487
:1023B000933439F004C0953441F0963441F085B13E
:1023C0002FC088B12DC08BB12BC08EB129C081B375
:1023D00027C0943461F018F4933439F004C0953474
:1023E00041F0963441F083B11BC086B119C089B168
:1023F00017C08CB115C08FB113C0943461F018F4BC
:10240000933439F004C0953441F0963441F084B1EE
:1024100007C087B105C08AB103C08DB101C080B3C8
:102420000E942C0980E008958CEF08951F93CF93AC
:10243000DF93CDB7DEB761970FB6F894DEBF0FBE5E
:10244000CDBF1091A105BE016F5E7F4F80919F05AA
:102450009091A0050E940B088093490487FD1CC041
:1024600029892830C0F4173A19F480E092E002C0BC
:1024700080E091E040E1BE016F5F7F4F30E1239F3C
:10248000800D911D11240E94652ACE0101960E94A3
:10249000630980E001C08CEF61960FB6F894DEBF4F
:1024A0000FBECDBFDF91CF911F9108951F93CF93A2
:1024B000DF931F92CDB7DEB7E0919F05F091A005A5
:1024C00010812EEB210F253008F057C0CF01019667
:1024D0009093A00580939F05BE016F5F7F4F0E9480
:1024E0000B088093490487FD4BC08091A105823E73
:1024F00079F1833EC1F0813E09F041C089811434F5
:1025000061F018F4133439F004C0153441F0163476
:1025100041F085B934C088B932C08BB930C08EB9AA
:102520002EC081BB2CC08981143461F018F413349F
:1025300039F004C0153441F0163441F083B91FC09E
:1025400086B91DC089B91BC08CB919C08FB917C015
:102550008981143461F018F4133439F004C015344F
:1025600041F0163441F084B90AC087B908C08AB96D
:1025700006C08DB904C080BB02C08CEF01C080E0F2
:102580000F90DF91CF911F91089560EF74E08091DB
:102590009F059091A0050E940B088093490487FD38
:1025A0002AC020919F053091A005A901480F511D17
:1025B00087FD5A95CA015093A00540939F056FEE81
:1025C00074E00E940B088093490487FD14C0809139
:1025D000EB049091EC04A091ED04B091EE049062B4
:1025E0008093EB049093EC04A093ED04B093EE047D
:1025F0000E94AF2980E008951F920F920FB60F92AC
:10260000112410928A0510928B0510928C0510925D
:102610008D05EE98789480E00E94632880E00E9407
:10262000962A80E00E94AE2A60E070E08AEF94E48F
:102630000E94170A80ED97E09093890580938805A2
:1026400082E492E09F938F930E94FB060F900F907D
:10265000C12CD12C7601CDE3D2E0FF92EF92DF9234
:10266000CF92DF93CF930E94FB0660915A048FEFC5
:10267000860F0F900F900F900F900F900F908E3F3E
:1026800048F48FEF93E00E943B3080915A048F5FB3
:1026900080935A048AE0C80ED11CE11CF11C809181
:1026A0008A0590918B05A0918C05B0918D058C15B4
:1026B0009D05AE05BF0598F3D0CFCF93DF93EC0116
:1026C0008091180781FD37C0409150055091510508
:1026D0006091520570915305CE010D2E000CAA0B8E
:1026E000BB0B840F951FA61FB71F809350059093B7
:1026F0005105A0935205B0935305D7FF07C0D1955C
:10270000C195D1090E945928826003C00E945928AE
:102710008D7F0E944A28219760F0F89482E00E9401
:10272000312878948FE99FE00197F1F700C000000D
:10273000F2CF80E001C08EEFDF91CF910895CF936B
:10274000DF93EC018091180780FD37C040912B0585
:1027500050912C0560912D0570912E05CE010D2E06
:10276000000CAA0BBB0B840F951FA61FB71F8093ED
:102770002B0590932C05A0932D05B0932E05D7FF24
:1027800007C0D195C195D1090E945928816003C025
:102790000E9459288E7F0E944A28219760F0F89461
:1027A00081E00E94312878948FE99FE00197F1F74A
:1027B00000C00000F2CF80E001C08EEFDF91CF912A
:1027C0000895CF93DF93EC0180E090E20E944917D7
:1027D000CE0196958795969587952091D80530914D
:1027E000D9053695279536952795821B930B813809
:1027F00091053CF020E031E0A901481B590BCA01CA
:1028000005C080385FEF95070CF49395C82F880FAB
:10281000DD0BDF93CF938DE292E09F938F930E9425
:10282000FB060F900F900F900F90CE01DF91CF918C
:102830000C945D13CF93DF93CDB7DEB760970FB6DF
:10284000F894DEBF0FBECDBF8F3F19F48093110106
:1028500015C08830A8F48093110120E18202C001E4
:10286000112440E1BE016F5F7F4F9E5F0E94652A89
:10287000BE016F5F7F4F81E00E94A02180E001C018
:102880008CEF60960FB6F894DEBF0FBECDBFDF9120
:10289000CF910895CF93DF93CDB7DEB760970FB692
:1028A000F894DEBF0FBECDBF8F3F19F480931201A5
:1028B00015C08830A8F48093120120E18202C00183
:1028C000112440E1BE016F5F7F4F93950E94652AFE
:1028D000BE016F5F7F4F80E00E94A02180E001C0B9
:1028E0008CEF60960FB6F894DEBF0FBECDBFDF91C0
:1028F000CF9108950F931F93CF9380918F058823D5
:10290000D9F08530A1F038F4833071F0843009F0CB
:1029100022C285E00CC0873069F040F0883009F0B1
:102920001AC210928F0517C284E001C087E080931D
:102930008F0511C288E0FBCF8091010118160CF0C1
:102940001BC1833009F46AC02CF4813051F082300D
:1029500079F112C1843009F457C0853009F402C1FD
:102960000BC11092590480912B0590912C05A091D8
:102970002D05B0912E058093550490935604A09395
:102980005704B093580480E00E944A140E947828AB
:1029900081600E94632880919405816080939405F2
:1029A00040E859EA63E070E080E00E94A60D91C023
:1029B0008091180780FDE0C08091540480FF2CC0F6
:1029C0002FEF81EE94E0215080409040E1F700C06D
:1029D000000080912B0590912C05A0912D05B091C0
:1029E0002E058093550490935604A0935704B093FA
:1029F000580440E058EF6FEF7FEF80E00E94A60D93
:102A000083E080930101B8C08091180780FDB4C0B5
:102A10008091540480FD36C08EEFF3CF809118076B
:102A200080FDAAC08091540480FD9AC080912B053E
:102A300090912C05A0912D05B0912E058093550401
:102A400090935604A0935704B093580481E00E94D9
:102A50004A1480912B0590912C05A0912D05B091E1
:102A60002E058093550490935604A0935704B09379
:102A7000580440E058E160E070E080E00E94A60D5C
:102A800084E0BFCF40912B0550912C0560912D051E
:102A900070912E058091550490915604A091570491
:102AA000B0915804481B590B6A0B7B0B8091590459
:102AB000813089F08230B9F081115EC080910401CB
:102AC0009091050197FD02C082E001C081E08093F2
:102AD000590482E096CF509305014093040182E0AF
:102AE000809359048ECF80910401909105018C014F
:102AF00000581109012E000C220B330B401751070F
:102B00006207730738F180589F4F092E000CAA0BFB
:102B1000BB0B84179507A607B707E0F080E00E947B
:102B20004A1480912B0590912C05A0912D05B09110
:102B30002E058093550490935604A0935704B093A8
:102B4000580440E05CEF6FEF7FEF80E00E94A60D3D
:102B500085E057CF8FEF9FEF90930501809304019D
:102B60008DEF4FCF8091180780FD06C080915404EF
:102B700080FDF6CF109201018091000118160CF033
:102B80005BC0843051F12CF4813041F08330C1F0CE
:102B900053C0853079F18630E9F14EC00E94782823
:102BA00082600E94632880E00E941A1481E090E015
:102BB0000E9449178091010587FF0DC083E03AC04C
:102BC0008091180781FD38C040E05EEC6FEF7FEF29
:102BD00081E00E94A60D84E02DC08091180781FD40
:102BE0002BC040E052E060E070E081E00E94A60D62
:102BF00085E020C08091180781FD1EC081E00E9401
:102C00001A1440E05CEF6FEF7FEF81E00E94A60DA9
:102C100086E010C08091180781FD0EC081E090E031
:102C20000E9449178091010587FD03C010920001A1
:102C300003C08EEF80930001F894C091E2051092DA
:102C4000E2057894CC2309F486C0C0FF10C08091BF
:102C5000EB059091EC0569EE71E096958795969558
:102C600087950E94FD2A90934C0480934B04C1FFEA
:102C70000AC08091ED059091EE050E94DF289093A7
:102C80004E0480934D04C2FF0AC08091EF059091DD
:102C9000F0050E94DF289093500480934F04C3FFF7
:102CA0000AC08091F1059091F2050E94DF2890936F
:102CB000520480935104C4FF0AC08091E3059091AF
:102CC000E4050E94E7289093140180931301C5FF47
:102CD0000AC08091E5059091E6050E94E72890934F
:102CE000160180931501C6FF0AC08091E7059091F7
:102CF000E8050E94E7289093180180931701C7FF09
:102D00002AC02091E9053091EA0536952795369538
:102D10002795AAEBB3E10E94B330DC01CB012AE096
:102D2000B695A795979587952A95D1F79C01AD0102
:102D300044275527A8E3BAE10E94C230DC01CB0149
:102D40003AE0B695A795979587953A95D1F79093E0
:102D50001A0180931901CF911F910F910895CF937C
:102D6000C82F8E3038F425E0829FC00111248D5584
:102D70009E4F02C08FE891E09F938F931F92CF9355
:102D800084E991E09F938F930E94FB06C0934A04CD
:102D90000F900F900F900F900F900F90C130C1F4D3
:102DA0000FB6F894A89580916000886180936000C8
:102DB000109260000FBEF89481E00E94480A0E94C1
:102DC000A6098FE09EE00197F1F700C00000F7CF61
:102DD000C93038F48FEF8093A2058C2FCF910C94DB
:102DE000480ACF910895BF92CF92DF92EF92FF925F
:102DF0000F931F93CF93DF9300D000D0CDB7DEB7F2
:102E0000B82E11E001C0110F8A95EAF7F89400E19D
:102E1000C12CD12C7601812F0E9431288BE99FE0B3
:102E20000197F1F700C00000812F0E94312819821C
:102E30001A821B821C82AE014F5F5F4F62E18B2DB5
:102E40000E94B20E49815A816B817C816F70772715
:102E5000C40ED51EE61EF71E8BE99FE00197F1F721
:102E600000C000000150B9F67894C60124E09695A0
:102E700087952A95E1F70F900F900F900F90DF91B3
:102E8000CF911F910F91FF90EF90DF90CF90BF9067
:102E90000895F8942091690430916A04282B392B05
:102EA00030936A04209369047894209169043091E6
:102EB0006A0428233923232BC1F70895F89420911D
:102EC000690430916A04822B932B90936A04809357
:102ED000690478940895CF93DF93CDB7DEB7A197B7
:102EE0000FB6F894DEBF0FBECDBF84B780939A05AE
:102EF00014BE80919A0583FF11C0809100099091C2
:102F00000109853A9A4551F480919A05877F80930B
:102F10009A0580919A05806880939A058AE595EADA
:102F200090930109809300099FB7F894A89584B7FE
:102F3000877F84BF18E110936000109260009FBFEC
:102F40008FE00FB6F894A895109360000FBE8093A1
:102F500060001092D7001092D80095E19093C500C0
:102F60008093C60080E8809361001092610078949D
:102F700081E00E94C82A8091C80082608093C800C6
:102F800080E18093CC001093C9008091C9008068D3
:102F90008093C9008CE780936B0410926C041092AC
:102FA0006D048BE594E02CEC34E0309364042093C2
:102FB000630423EB34E0309366042093650423E03C
:102FC00020935E0410926804109267045A9A9093BA
:102FD0002E0780932D079093300780932F079093AF
:102FE000A7058093A6059093A4058093A3059093CD
:102FF0009C0580939B058FE592E09F938F930E94A1
:103000004D2F80919A051F928F9381E592E09F93B7
:103010008F930E94FB0680917100817F80937100E5
:10302000109290008AE08093910010929900109283
:10303000980010929B0010929A0010929D0010929E
:103040009C0010929500109294003E9A469881EF51
:1030500094E00E94872A40E1BE016F5E7F4F80E0CE
:1030600090E00E94652A40E150E061EF74E0CE01FB
:1030700041960E9492320F900F900F900F900F90F8
:103080000F90892B41F500E011E040E1BE016F5F38
:103090007F4FC8010E94652A89819A8181329E44AE
:1030A000D0F48B819C8181329E44A8F48D819E81D5
:1030B0000C978D34924078F48F8198850C978D34DD
:1030C000924048F48985803430F48B859C8589381A
:1030D000934108F48BC08FEF9FEF90930901809389
:1030E000080190930701809306018FEF9FEFDC01A9
:1030F0008093EB049093EC04A093ED04B093EE0462
:103100000E94AF29EAEEF8E64591559165917491D8
:1031100080E090E0DC01E0E0F0E028E6EA3EF20743
:1031200051F09F012F5F3F4FE4918E0F911DA11D24
:10313000B11DF901F2CF481759076A077B07C9F497
:1031400080E090E0DC01E0E0F0E79F012F5F3F4F7F
:10315000E4918E0F911DA11DB11DF901203F3F4744
:10316000A1F786369D49A740B10509F473C082E0F6
:1031700001C081E00E94AF1684B1817F84B984B11F
:10318000876084B985B1817F85B9289A80E58CBD37
:103190001DBC8AB182618AB98BB182618BB98FE320
:1031A0009CE90197F1F700C00000249A2C9A2C9812
:1031B0002C9A60E880E00E94E12A60EE81E00E94A3
:1031C000E12A6AE882E10E94E12A60EE83E10E943E
:1031D000E12A80E00E94CF2A803809F06EC081E0A9
:1031E0000E94CF2A803E09F068C0D1C2005F1F4F05
:1031F000003851E0150709F048CF80E093E00E94C5
:103200001D30909309018093080180E193E00E94B2
:103210001D30909307018093060182E093E00E94A5
:103220001D30909305018093040182E193E00E9498
:103230001D30909303018093020184E193E00E948A
:1032400015308093F00486E193E00E94153080935E
:10325000EF0458CFCE0101960E94872AFE013196D5
:1032600080E18E0F91919F3F21F48E13FBCF83E07D
:1032700081CF89E0E0E0F0E080935700E491EE3503
:1032800009F0D8C2E3E0F0E080935700E491E83D14
:1032900009F0D0C2E2E0F0E080935700E491E83C0E
:1032A00009F0C8C2E1E0F0E08093570084918F7389
:1032B0008F3209F461CF85E05DCF9FEF80919A0551
:1032C0008E7F81F48091020587FF0CC089E492E033
:1032D0009F938F930E94FB0680E00E94C82A0F9064
:1032E0000F90FFCF9F3F19F486E00E94AF16109217
:1032F00004051092030580917A00876080937A001C
:1033000080917C00806480937C0080917A0080684A
:1033100080937A0013E010937E000E944511279A53
:10332000209A559A509A2F9A289A5D9A589A81E035
:103330008093050580938E0584E1809396058093A4
:103340009705809398058093990580939505259A14
:10335000269A2D982E9856985798519A549A599A79
:103360005C9A80E00E94C910082F001F0027001FF0
:1033700081E00E94C91087FD02C0002321F087E090
:103380000E94AF16D0C08091060590910705A091CC
:103390000805B0910905B07F9C01AD0154602093F0
:1033A00006053093070540930805509309056CEE18
:1033B00080E00E94BF0F80910F0590911005A091B1
:1033C0001105B0911205B07F9C01AD0152602093B0
:1033D0000F053093100540931105509312056CEEC4
:1033E00081E00E94BF0F68E180E00E94051066E066
:1033F00080E00E94F40F68E181E00E94051068E01F
:1034000081E00E94F40F9FEFA0E7B2E09150A0404E
:10341000B040E1F700C0000005E2E8E1F5E0DF01BF
:10342000202F1D922A95E9F788E58093180580E200
:1034300093E090931A058093190580E8E82E8CE0BC
:10344000F82EF0921C05E0921B0580EC94E490931A
:103450001E0580931D058AEF90E0909320058093D0
:103460001F05909322058093210580E00E942C0E79
:10347000EDE3F5E0DF011D920A95E9F789E5809318
:103480003D05F0923F05E0923E0580EC93E090937D
:1034900041058093400580E095E09093430580933B
:1034A00042058CE090E0909345058093440590930D
:1034B00047058093460581E00E942C0E8091810093
:1034C0008F7E80938100809181008860809381004D
:1034D000809180008D7F80938000809180008E7F1E
:1034E00080938000809180008F7380938000809112
:1034F00080008F7C8093800080918100887F826033
:103500008093810080E092E090938900809388000E
:10351000109285001092840080916F0082608093E9
:103520006F001093940580B38F7080BB81B3806F60
:1035300081BB80910B01877E80930B0188E090E036
:103540000E945E171092870560E070E08CED93E4B6
:103550000E94170A82E390E0909389058093880582
:1035600010928A0510928B0510928C0510928D0591
:1035700083E084BD85BD9DE797BD96E096BD8093B1
:103580006E0080916A008F7C80936A0080916A004F
:10359000806280936A008091A20581110DC00E9413
:1035A0008728882321F088E00E94AF1605C081E0BB
:1035B0000E9487288111F7CF8091A20581110DC04B
:1035C0000E94F316909391058093900581E00E94EC
:1035D000F31690939305809392058091A205811133
:1035E0000AC082E080938E0598E090930C0180934E
:1035F000A20510928F050FE315E0A89580919D0517
:1036000090919E05892B39F48DB79EB790939E05B6
:1036100080939D051BC020919D0530919E058DB71F
:103620009EB72817390791F0F89498E088E10FB613
:10363000F894A895809360000FBE9093600085EA8F
:103640009AE59093010980930009FFCF8091D205FC
:103650009091D3058A97CCF08FEF22C08D30F1F096
:103660008A30E1F02091D2053091D305F901E85577
:10367000FA4F80838823A1F02F5F3F4F3093D3050B
:103680002093D2052A3231055CF48091A6059091F1
:10369000A7050E94D72E87FFE1CF02C080E0E2CFCE
:1036A0002091D2053091D3052A3231052CF03F9379
:1036B0002F931F930F935EC0121613060CF064C075
:1036C000811162C08091A505882381F06091A305D6
:1036D0007091A40588EA95E00E94AE326091A3053E
:1036E0007091A4058AE090E00E94152F3091A80502
:1036F000313219F03F3309F069C0E091A905EE239A
:1037000009F46BC08091AC058F7D09F04CC02DE0B1
:1037100043E067E973E089EA95E039A30E94D506A2
:1037200039A18F3F09F452C0E3E00E2E000CFF0BCD
:10373000E755FA4F9081911147C09091A2059F3FA4
:1037400009F44DC08093A105313209F04EC04EE01E
:103750006BEC73E00E94BD06482F552741950CF491
:1037600050959A018823A1F186E395E03F932F932A
:103770009F938F930E940F071092D3051092D2054A
:103780000F900F900F900F900E947A1436CF82E125
:103790000E94CF2A8093010583E10E94CF2A809363
:1037A000020590E08BCD8091AD058F7D79F42DE3FE
:1037B00044E066E672E089EA95E039A30E94D50606
:1037C00039A18F3F41F402C09032A9F08DEFC4CFF0
:1037D0008BE395E0CBCFE4E0A8CF80E0A6CF8230AA
:1037E00008F4B0CF813421F5ADCF3F3379F746E30C
:1037F00065EF73E0AFCF31969091A2059F3FC1F086
:10380000803E20F09091A205943091F48093A10520
:10381000F093A005E0939F05313221F440E367E97E
:1038200074E098CF3F3391F645E067E275E092CFC0
:103830008BEF92CF84E09ECC1F920F920FB60F9227
:1038400011240F931F932F933F934F935F936F9385
:103850007F938F939F93AF93BF93EF93FF93CF93F8
:10386000DF93CDB7DEB72597DEBFCDBF80912507AB
:10387000909126079C012F5F3F4F3093260720939E
:103880002507883E934008F460C0109226071092E6
:103890002507789480912407882339F081508093FC
:1038A0002407811102C00E94C82A8091A20583309A
:1038B00099F480912307882379F080912307815020
:1038C00080932307811108C082E080938E0598E0E1
:1038D00090930C018093A2058091020587FD17C08B
:1038E000809122078F5F80932207863090F060E0FE
:1038F00070E08CE593E40E94170A84E690E09093D0
:1039000089058093880580E00E94C82A02C0109231
:10391000220784E090E00E945E178091050581FFF8
:1039200015C080911E0790911F07A0912007B091AC
:1039300021070196A11DB11D80931E0790931F07BB
:10394000A0932007B093210701C0789480910009CB
:10395000909101098A35954A91F0F89498E088E1B0
:103960000FB6F894A895809360000FBE9093600006
:1039700085EA9AE59093010980930009FFCF809131
:10398000A2058F3F19F40E94A6094BC480911C0721
:1039900090911D070097A9F0019790931D078093C0
:1039A0001C07892B71F4809105058D7F8093050597
:1039B00080910B018E7F80930B0188E090E00E9444
:1039C0005E1780911A0790911B07892B49F080910F
:1039D0001A0790911B07019790931B0780931A0772
:1039E0008091880590918905009749F001979093FF
:1039F000890580938805892B11F41092900080919D
:103A0000190781110DC08091690490916A04816841
:103A1000986090936A04809369048BE080931907FF
:103A200020911807822F837009F4BEC021FBEE2776
:103A3000E0F980911907823009F041C00E9478288E
:103A400080FF1CC040911007509111076091120730
:103A500070911307442755276627707E90910F07B2
:103A6000411551056105704621F4943138F49F5F8A
:103A700003C0992319F0915090930F0781FF96C0CE
:103A80004091140750911507609116077091170720
:103A9000442755276627707E80910E0741155105F2
:103AA0006105704629F4843108F080C08F5F04C03E
:103AB000882309F47BC0815080930E0777C0813042
:103AC00009F074C0809110079091110793709A8348
:103AD0008983009114071091150713701C830B83C1
:103AE000A0910D0731E03A0F30930D07B0E0A35FCE
:103AF000B94FF0E0EE0FFF1FEC0FFD1F4181528127
:103B000056954795569547954C9330910C063F3FF7
:103B100019F03F5F30930C06322F31713130E1F4F0
:103B200040911201411118C08097B0F48091340582
:103B300090913505892B81F430930B0660E070E09D
:103B40008AE794E42D830E94170A84EF91E0909312
:103B50008905809388052D81822F8272823231F50A
:103B600080911101811118C000321105A8F48091D3
:103B7000590590915A05892B79F482E080930B06C0
:103B800060E070E08AE794E40E94170A84EF91E015
:103B900090938905809388058091010587FD06C073
:103BA00082E080930B0602C010920B0680911907E9
:103BB00081508093190780910A069091090681111E
:103BC00062C040912C0791110AC020919605209364
:103BD00004062091030640FB20F920930306209160
:103BE00097052093050620919805209306062091BD
:103BF00099052093070650918E052091010630917A
:103C000002065130D1F0F0F0523019F0533089F003
:103C10001BC0B90114E0769567951A95E1F7213438
:103C200051E0350718F058E2561B09C060930806AA
:103C30000BC0213451E0350728F050919505509381
:103C4000080602C01092080650910C01250F311D84
:103C500030930206209301062138324020F0109262
:103C600002061092010630910306317F242F2E7038
:103C70004091050540FD02C040E001C040E1232B1A
:103C8000242B2093030620910406291305C02091BC
:103C900003062E7F2093030620910506281305C0F6
:103CA000209103062D7F20930306209106062813FA
:103CB00005C0209103062B7F209303062091070661
:103CC000281305C020910306277F20930306209127
:103CD0000806281305C0209103062F7E20930306B3
:103CE0008F5F80930A06843110F010920A0681E0FB
:103CF000890F80930906883210F01092090680918E
:103D0000030684FF02C02F9A01C02F9880910306FA
:103D100020E1829FC001112490910A019F70892B9C
:103D200080930A0182E090E00E945E17809169040E
:103D300090916A04892B09F444C18091690490919F
:103D40006A0481FF0EC060910A0182E10E94E12AAB
:103D50008091690490916A048D7F90936A048093A6
:103D600069048091690490916A0483FF0BC060919B
:103D70000B0183E10E94E12A8091690490916A0419
:103D8000877F1BC18091690490916A0480FF0BC0FA
:103D900082E10E94CF2A809301058091690490916D
:103DA0006A048E7F0AC18091690490916A0482FF3F
:103DB0000BC083E10E94CF2A8093020580916904A1
:103DC00090916A048B7FF9C08091690490916A0494
:103DD00084FF0BC06091E00580E00E940510809197
:103DE000690490916A048F7EE8C080916904909183
:103DF0006A0485FF0BC06091DE0580E00E94F40F2D
:103E00008091690490916A048F7DD7C08091690484
:103E100090916A0486FF14C02091DA053091DB0589
:103E200030930E0520930D0540E050E064E980E0FA
:103E30000E94BF0F8091690490916A048F7BBDC07E
:103E40008091690490916A0487FF1DC019821A82CB
:103E50001B821C82AE014F5F5F4F6FE680E00E94C5
:103E6000B20E89819A81AB81BC81809310079093B7
:103E70001107A0931207B0931307809169049091E2
:103E80006A048F779AC08091690490916A0490FFC8
:103E90000BC06091E10581E00E94051080916904EA
:103EA00090916A049E7F89C08091690490916A0410
:103EB00091FF0BC06091DF0581E00E94F40F8091BB
:103EC000690490916A049D7F78C080916904909103
:103ED0006A0492FF14C02091DC053091DD05309317
:103EE00017052093160540E050E064E981E00E9448
:103EF000BF0F8091690490916A049B7F5EC080919E
:103F0000690490916A0493FF1DC019821A821B8272
:103F10001C82AE014F5F5F4F6FE681E00E94B20EE0
:103F200089819A81AB81BC81809314079093150796
:103F3000A0931607B09317078091690490916A04C3
:103F4000977F3BC08091690490916A0494FF18C0E8
:103F500019821A821B821C82AE014F5F5F4F6AE694
:103F600080E00E94B20E89819A8193709093D70568
:103F70008093D6058091690490916A049F7E1DC04C
:103F80008091690490916A0495FF1BC019821A827E
:103F90001B821C82AE014F5F5F4F6AE681E00E9488
:103FA000B20E89819A8193709093D9058093D80538
:103FB0008091690490916A049F7D90936A04809334
:103FC000690480910006882321F0815080930006C7
:103FD00094C084E1809300068091F80587FF83C038
:103FE0008F70E82FF0E021E030E0082E02C0220FB1
:103FF000331F0A94E2F740910305509104052423EE
:104000003523232B71F42091780030917900EE0F45
:10401000FF1FEC50FA4F40815181240F351F31832F
:104020002083882309F441C08091F3058F5F80933A
:10403000F3058430E0F180918705282F30E0220FCE
:10404000331FF901E551FA4F4091F4055091F50500
:1040500051834083F901ED51FA4F4091F60550919B
:10406000F7055183408321E130E0082E01C0220F83
:104070000A94EAF79091E205292B2093E2058F5FDD
:10408000182F137058E0159FC001112490910B0157
:10409000977E892B80930B0188E090E00E945E1749
:1040A000109387050E94451102C021E001C020E065
:1040B000922F80E041E050E0BA0163707727672BD0
:1040C00019F0992331F090E0440F551F8F5F803134
:1040D00099F790917C008770987F892B80937C0062
:1040E0002093F8050AC080917A00806480937A005A
:1040F0008091F80580688093F8052FB122952F7084
:104100008091FF0582279091030689232093FF0564
:1041100090910A069330D8F09091FB059F3F29F0CB
:1041200080FF03C09F5F9093FB059091FC059F3F2C
:1041300029F081FF03C09F5F9093FC059091FD05DE
:104140009F3F29F082FF03C09F5F9093FD05809100
:104150000E0190910F01019790930F0180930E0132
:10416000892B09F050C0809128076091FB0570E011
:10417000680F711D769567956093280780912907D0
:104180004091FC0550E0480F511D569547954093CE
:10419000290780912A072091FD0530E0280F311D65
:1041A0003695279520932A071092FB051092FC055F
:1041B0001092FD0588E592E090930F0180930E0127
:1041C00090912C0790FF07C0809196058A3018F0D7
:1041D00081E0672B09F080E091FF07C060919705AF
:1041E000653018F0452B09F4826092FF07C090916A
:1041F0009805953018F0232B09F4846090910D01F7
:1042000089238093FA058091F905833051F4629BEC
:1042100008C081E08093F905809118078E7F809314
:1042200018070F900F900F900F900F90DF91CF9184
:10423000FF91EF91BF91AF919F918F917F916F917E
:104240005F914F913F912F911F910F910F900FBE52
:104250000F901F901895EF92FF920F931F93CF939B
:10426000DF93D82F082F10E098012C523A4F790194
:10427000F90180811F928F931F92DF9386E995E069
:104280009F938F930E944D2FF70180811F928F93F0
:104290001F92DF938FE795E09F938F930E944D2F9E
:1042A000F701808183702DB73EB7245F3F4F0FB673
:1042B000F8943EBF0FBE2DBF882311F0C0E801C0A7
:1042C000C0E0000F111F000F111FF801E05FF84F51
:1042D00080819181A281B381B2FDC062B1FDC064D1
:1042E000D11111C080910F071F928F938BE695E03B
:1042F0009F938F930E944D2F0F900F900F900F90D0
:1043000080910F0712C0D13099F480910E071F924F
:104310008F9388E595E09F938F930E944D2F0F9088
:104320000F900F900F9080910E07843108F0C061BC
:104330008C2FDF91CF911F910F91FF90EF900895F7
:10434000EF92FF921F93CF93DF93182FEB01111180
:1043500042C080E890E00E94491780911007909138
:104360001107A0911207B0911307B7FFF2CFE12E0A
:10437000F12C85E2189FF0011124E85EFA4F888144
:104380009981948383838A819B81968385838C81A1
:104390009D81908787838E819F8192878187812FDE
:1043A0000E942C0E9701F901E052FA4F8885808314
:1043B000F901E252FA4F89858083220F331FF901F8
:1043C000E652FA4F8A859B8591838083111115C02F
:1043D00080E790E016C0113009F0B9CF80E098E096
:1043E0000E9449178091140790911507A091160714
:1043F000B0911707B7FFF2CFBACF113049F480E080
:1044000097E0DF91CF911F91FF90EF900C944917A7
:10441000DF91CF911F91FF90EF9008950F931F931D
:10442000CF93DF93EB01082F10E095E2899FF00115
:104430001124E85EFA4F2381348139832883258152
:1044400036813B832A83278130853D832C832185D8
:1044500032853F832E830E945C10888789E0809F8D
:10446000F001819FF00D1124EA5FFA4F8681898760
:10447000878190859B878A87DF91CF911F910F91CC
:104480000895CF93DF931F92CDB7DEB7BE016F5F64
:104490007F4F80919F059091A0050E940B0880930B
:1044A000490487FD10C08981823060F4882329F097
:1044B000EE9A81E080935A0403C0EE9810925A0459
:1044C00080E001C08CEF0F90DF91CF910895CF93E2
:1044D000DF9300D01F92CDB7DEB7BE016D5F7F4F77
:1044E00080919F059091A0050E940B08809349043C
:1044F00087FD42C09B81993210F08CEF3DC0209126
:104500009F053091A005A901480F511D87FD5A95BF
:10451000CA015093A00540939F05BE016E5F7F4F77
:104520000E940B088093490487FD26C09A8195312B
:1045300020F720919F053091A005A901480F511D3A
:1045400087FD5A95CA015093A00540939F05BE016F
:104550006F5F7F4F0E940B088093490487FD0CC05A
:104560008981853150F69B81909396059A8190932D
:1045700097058093980580E00F900F900F90DF9142
:10458000CF910895CF93DF9300D0CDB7DEB7BE01B2
:104590006F5F7F4F80919F059091A0050E94C50796
:1045A0008093490487FD22C089819A819C012F5FF5
:1045B0003F4F21303140C8F49093070180930601AA
:1045C0008091EB049091EC04A091ED04B091EE0485
:1045D00094608093EB049093EC04A093ED04B0936B
:1045E000EE040E94AF2980E001C08CEF0F900F9085
:1045F000DF91CF910895CF93DF9300D0CDB7DEB791
:10460000BE016F5F7F4F80919F059091A0050E9432
:10461000C5078093490487FD22C089819A819C0146
:104620002F5F3F4F21343105C8F4909309018093E7
:1046300008018091EB049091EC04A091ED04B091FD
:10464000EE0492608093EB049093EC04A093ED044D
:10465000B093EE040E94AF2980E001C08CEF0F9070
:104660000F90DF91CF910895DF92EF92FF920F9319
:104670001F93CF93DF93CDB7DEB762970FB6F89451
:10468000DEBF0FBECDBFD090A105E0909F05F0909A
:10469000A005BE016F5F7F4FC7010E94E80787FD3D
:1046A0009DC08701080F111D87FD1A95F8019081A3
:1046B000992341F0BE016D5F7F4FC8010E94E8075A
:1046C00087FD8CC0080F111D87FD1A95F801908198
:1046D000992341F0BE016B5F7F4FC8010E94E8073C
:1046E00087FD7CC0080F111D87FD1A95F801908188
:1046F000992341F0BE01695F7F4FC8010E94E8071E
:1047000087FD6CC0080F111D87FD1A95F801908177
:10471000992341F0BE01675F7F4FC8010E940B08DB
:1047200087FD5CC0080F111D87FD1A95F801908167
:104730009923E1F0CE0141969F938F9307979F9322
:104740008F938CEC95E09F938F931F930F930E9410
:10475000732F0FB6F894DEBF0FBECDBF019721F4C3
:10476000898987FF03C03AC08DEF38C0080F111D3B
:1047700087FD1A95F8018081811105C0802F8E195F
:1047800087FF0AC02BC0BE01655F7F4FC8010E9432
:10479000E80787FFF3CF22C011E0F7EADF1210E04D
:1047A000BE016F5F7F4F812F0E94A0218091EB049B
:1047B0009091EC04A091ED04B091EE04111102C0AF
:1047C000806201C080648093EB049093EC04A0931A
:1047D000ED04B093EE040E94AF2980E062960FB61C
:1047E000F894DEBF0FBECDBFDF91CF911F910F9127
:1047F000FF90EF90DF900895CF93DF9300D01F924A
:10480000CDB7DEB7BE016D5F7F4F80919F05909160
:10481000A0050E940B088093490487FD2FC02091BA
:104820009F053091A005A901480F511D87FD5A959C
:10483000CA015093A00540939F051A821982FA017C
:10484000208121110DC089819A8190931D07809349
:104850001C079B8180910505992361F082600BC044
:10486000BE016F5F7F4F0E94E8078093490487FF76
:10487000EACF04C08D7F0E94AE2A80E00F900F9097
:104880000F90DF91CF9108950F931F93CF93DF93F4
:1048900000D000D0CDB7DEB7BE016D5F7F4F8091F5
:1048A0009F059091A0050E94E8078093490487FD29
:1048B00031C020919F053091A005A901480F511DDD
:1048C00087FD5A95CA015093A00540939F05BE01EC
:1048D0006F5F7F4F0E94E8078093490487FD1AC0ED
:1048E0006B817C81CB0140978937934190F409819A
:1048F0001A81013187E2180760F480E090E00E949D
:10490000E0310E94170A109389050093880580E022
:1049100001C08CEF0F900F900F900F90DF91CF910F
:104920001F910F910895CF92DF92EF92FF92CF9354
:10493000DF9300D000D000D0CDB7DEB7CE01059612
:104940009F938F9304979F938F9386EC95E09F930B
:104950008F938091A0058F9380919F058F930E94E4
:10496000732F0FB6F894DEBF0FBECDBF019711F4C1
:104970008D8101C08DEF8093490487FD54C08091E3
:10498000A105843A11F18F3A69F1823A09F046C0E3
:10499000C980DA80EB80FC800E94782881600E94C8
:1049A000632880912B0590912C05A0912D05B09145
:1049B0002E05B701A601481B590B6A0B7B0B80E043
:1049C0000E94A60D87FD2CC027C089819A81AB81EA
:1049D000BC8180932B0590932C05A0932D05B0935B
:1049E0002E051AC049815A816B817C81413C34ED8E
:1049F000530731E063077105ACF48091F9058260DB
:104A00008093F90570956095509541955F4F6F4F74
:104A10007F4F80E00E94A60D80E005C08AEF03C0B2
:104A20008EEF01C08CEF26960FB6F894DEBF0FBE56
:104A3000CDBFDF91CF91FF90EF90DF90CF900895A1
:104A40000F931F93CF93DF9300D0CDB7DEB7BE0196
:104A50006F5F7F4F80919F059091A0050E94C507D1
:104A60008093490487FD36C08091A105833A89F07F
:104A7000853A69F589819A81092E000CAA0BBB0B36
:104A80008093500590935105A0935205B093530520
:104A90001CC009811A810E94782882600E946328C4
:104AA000A801110F660B770B80915005909151056D
:104AB000A0915205B0915305481B590B6A0B7B0B13
:104AC00081E00E94A60D87FD04C080E003C08AEF4C
:104AD00001C08EEF0F900F90DF91CF911F910F913A
:104AE00008950F931F93CF93DF9300D0CDB7DEB718
:104AF000BE016F5F7F4F80919F059091A0050E943E
:104B0000E8078093490487FD84C08091A1058C3B10
:104B1000A9F188F48E38E1F08F3809F077C0498127
:104B20005A8160E070E070956095509541955F4FB7
:104B30006F4F7F4F11C08D3B09F45FC08E3B09F072
:104B400065C089819A8190931B0780931A070BC0D7
:104B500049815A8160E070E080E00E94A60D87FFE5
:104B60000BC08EEF56C080911A0790911B07892BBE
:104B700019F00E947A14F7CF80E04BC009811A81A6
:104B8000011524E0120708F043C080E090E10E9484
:104B90004917C80124E0969587952A95E1F7209159
:104BA000D6053091D70544E0369527954A95E1F72B
:104BB000821B930B813291053CF020E430E0A90187
:104BC000481B590BCA0106C0803E5FEF950714F4DD
:104BD000805C9F4F082F880F110B1F930F9386EB5C
:104BE00095E09F938F930E94FB06C8010E949F133C
:104BF0000F900F900F900F900CC089819A818115B2
:104C000024E0920728F40E94E11303C08AEF01C058
:104C10008CEF0F900F90DF91CF911F910F9108951E
:104C2000CF93DF9300D01F92CDB7DEB7CE010196B0
:104C30009F938F9302969F938F938CEC95E09F9315
:104C40008F938091A0058F9380919F058F930E94F1
:104C5000732F0FB6F894DEBF0FBECDBF019711F4CE
:104C6000898101C08DEF8093490487FD35C0809113
:104C7000A105883AF1F050F4893991F08A3959F553
:104C80008B818093DF0580E092E00FC0823CA9F029
:104C9000833CD1F0893AF9F48B810E941A141CC02C
:104CA0008B818093DE0580E290E00E94491780E0CE
:104CB00013C08B810E944A140FC08B81082E000CF8
:104CC000990B0E949F1308C08B81082E000C990B32
:104CD0000E945D1301C08AEF0F900F900F90DF913B
:104CE000CF9108951F93CF93DF931F92CDB7DEB777
:104CF000BE016F5F7F4F80919F059091A0050E943C
:104D00000B088093490487FD0DC18091A10585386A
:104D100009F49BC0D8F4803109F44FC040F48D30C1
:104D2000C9F18F30C9F18C3009F0E5C02CC0813455
:104D300009F459C020F4813109F44AC0DCC082383A
:104D400009F47CC0833809F470C0D5C08A3A09F4EC
:104D50008AC050F4853909F454C0863909F45AC020
:104D60008A3809F0C8C046C0813B09F483C020F4EA
:104D70008D3A09F49CC0BFC0883B09F482C0843CD2
:104D800009F4B3C0B8C08981843008F0C8C00E945B
:104D90006328C3C0898162C08981843008F0BFC0A4
:104DA00090E1899F90011124909118079F70292B01
:104DB000209318070E944A28B0C08981843008F0E7
:104DC000AEC090911807907F892B80931807A5C0DB
:104DD0008981843008F0A3C090919405907F892B3D
:104DE000809394059AC08981893008F098C00E9408
:104DF000AF1693C08981803108F091C00E94962A35
:104E00008CC08981803408F08AC08093E00580E1FD
:104E100090E008C08981803408F081C08093E1056A
:104E200080E091E00E94491778C01981111103C0F8
:104E300080E00E94C82A109324076FC089818430C3
:104E400008F06DC080938E0568C09981923008F09B
:104E500066C080910505992321F084600E94AE2AE6
:104E60005CC08B7FFBCF8981823008F058C0809373
:104E7000A50553C08981853108F051C080939505FF
:104E80004CC089818B3F08F04AC080931001882371
:104E900021F08A3F31F4589A01C0589884B58F7C2C
:104EA00004C08A5F88BD84B5806284BD36C09981A4
:104EB0009230A8F580910B01992369F0846080936A
:104EC0000B0188E090E00E9449178091F90581600C
:104ED0008093F90522C08B7F80930B0188E090E0DE
:104EE0000E9449171092F90518C089818031B8F4E1
:104EF00080930D0112C0813B51F0893B29F082342F
:104F000081F4E7E2F7E005C0ECE0F1E002C0E5E99A
:104F1000F5E0309731F08981808380E003C08CEF29
:104F200001C08AEF0F90DF91CF911F91089580917A
:104F3000F0040E942C098091EF040E942C0980E06B
:104F400008958FEF93E00E94153090E001972AE0DA
:104F5000AC01249FC001259F900D11240E9464087C
:104F600080E008950F931F93CF93DF9380910C06F9
:104F7000E0910D07E81B8A3010F4982F01C09AE0E9
:104F8000891B80930C06C92FCE0F0EEA15E0EC1793
:104F900091F0D1E0DE0FF0E0E35FF94F80811F92E6
:104FA0008F931F930F930E940F070F900F900F90F6
:104FB0000F90ED2FECCF80E0DF91CF911F910F91FB
:104FC0000895CF93DF93CDB7DEB760970FB6F8940F
:104FD000DEBF0FBECDBF81E09091A105973A09F0E9
:104FE00080E0BE016F5F7F4F0E940E22CE010196CE
:104FF0000E94630980E060960FB6F894DEBF0FBE92
:10500000CDBFDF91CF9108958091500590915105CA
:105010000E942E0880E008951F93CF93DF9300D065
:1050200000D0CDB7DEB7162FEFECF7E03197F1F7F0
:1050300000C00000F89419821A821B821C82AE0103
:105040004F5F5F4F64E00E94B20E898178948127A0
:1050500083710F900F900F900F90DF91CF911F9160
:10506000089580FD2D9A81FD2E9A2D982E980895F1
:10507000882319F0813019F00895599A08955C9A9F
:105080000895882319F0813019F0089559980895EA
:105090005C980895EAE0F1E0282F217090819A7FD2
:1050A000922B8270880F892B808382E090E00C9491
:1050B000491780910A01282F247030E035952795F3
:1050C0008170822B089593E08927EAE0F1E0282F90
:1050D000217030E0220F331F8270880F880F282B39
:1050E0008081857F282B208382E090E00C944917F3
:1050F00090910A01292F287030E035952795359534
:10510000279596959170922B83E089270895EF92C9
:10511000FF920F931F93CF93DF93C82F01E010E00E
:1051200001C0000F8A95EAF70E947828F82E0E94A5
:105130005928E82ED02FD0958F2D8D230E946328DB
:105140008E2D8D230E944A2860E18C2F0E940C280E
:10515000D82FCC2321F0C13019F42E9A01C02D9AFA
:1051600061E18C2F0E940C28D82BCC2321F0C13078
:1051700019F42E9801C02D988E2D802B0E944A285C
:1051800062E18C2F0E940C28D82B802F0E9431289E
:105190008F2D802B0E94632862E08C2F0E940C28A8
:1051A000D82B8E2D0E944A288F2D0E9463288D2F88
:1051B000DF91CF911F910F91FF90EF90089563EDD4
:1051C00076E096958795969587950C94FD2A209183
:1051D000050521FF2BC09C0136952795369527950F
:1051E000AAEBB3E10E94B330DC01CB012AE0B69513
:1051F000A795979587952A95D1F79C01AD014427EE
:105200005527A2EBB9E00E94C230AB01BC013AE0E5
:1052100076956795579547953A95D1F780911901FD
:1052200090911A01841B950B97FF02C080E090E0DB
:105230000895EF92FF921F93CF93DF937B01C82FC6
:10524000D92F142F180F1C1741F0F70161917F011E
:10525000CE010E9423302196F6CFDF91CF911F918E
:10526000FF90EF9008958F929F92AF92BF92CF924E
:10527000DF92EF92FF920F931F93CF93DF93CDB7FF
:10528000DEB760970FB6F894DEBF0FBECDBFD82E45
:10529000B62E9E012F5F3F4F7901B9010E940E2269
:1052A000D11006C0B7FC02C0E5E00AC0E7E008C0C4
:1052B00031E0D3120CC0B7FC02C0E6E001C0E8E068
:1052C000F0E0EE0FFF1FE55FFB4F80809180B7FCA1
:1052D0000CC040E1B701C4012B2D30E12302800D49
:1052E000911D11240E94192927C0A12CB12C80E105
:1052F000C82ECE0CD11004C085010D5A194F06C01E
:1053000081E0D81203C085010D521A4FD701F80170
:10531000CA1621F084918D933196FACF40E1B701FE
:10532000C501880D991D0E94192990E1A90EB11C93
:1053300020E8A216B104F1F660960FB6F894DEBF2D
:105340000FBECDBFDF91CF911F910F91FF90EF90D6
:10535000DF90CF90BF90AF909F908F9008958091F5
:10536000EB049091EC04A091ED04B091EE0480FF69
:1053700007C040E161EF74E080E090E00E941929ED
:105380008091EB049091EC04A091ED04B091EE04B7
:1053900085FF07C06091120167FD03C080E00E9495
:1053A00033298091EB049091EC04A091ED04B0912D
:1053B000EE0486FF07C06091110167FD03C081E024
:1053C0000E9433298091EB049091EC04A091ED04AC
:1053D000B091EE0487FF04C06FEF80E00E94332994
:1053E0008091EB049091EC04A091ED04B091EE0457
:1053F00090FF04C06FEF81E00E9433298091EB049D
:105400009091EC04A091ED04B091EE0491FF08C0DE
:10541000609108017091090180E093E00E943530AD
:105420008091EB049091EC04A091ED04B091EE0416
:1054300092FF08C0609106017091070180E193E03E
:105440000E9435308091EB049091EC04A091ED0422
:10545000B091EE0493FF08C06091040170910501C2
:1054600082E093E00E9435308091EB049091EC044F
:10547000A091ED04B091EE0494FF08C06091020188
:105480007091030182E193E00E9435308091EB043A
:105490009091EC04A091ED04B091EE0495FF0CC046
:1054A0006091F00484E193E00E9423306091EF0466
:1054B00086E193E00E9423301092EB041092EC04FA
:1054C0001092ED041092EE040895EF92FF920F9364
:1054D0001F93CF93DF931F92CDB7DEB77B018C0173
:1054E000061B170B415058F0C8018E0D9F1D4983B4
:1054F0000E941530F70181937F014981F3CF0F900E
:10550000DF91CF911F910F91FF90EF90089520E0D0
:1055100030E0F901E051F048E491DC01ED93CD0178
:105520002F5F3F4F20313105A1F7089590912C074F
:1055300090959823F89490FF03C022E020932807C9
:1055400091FF03C022E02093290792FF03C092E05D
:1055500090932A0780932C077894089580930505EB
:1055600084FF02C0289801C0289A9091050595FFF4
:1055700002C05D9801C05D9A8670869590910B017E
:105580009C7F892B80930B0188E090E00C945E1740
:105590003F9A882311F0479A089547980895CF932A
:1055A000C82F80E58CBD1DBC2C9881E40E94650A43
:1055B0008C2F0E94650A8FEF0E94650A2C9ACF916A
:1055C00008951F93CF93DF931F92CDB7DEB7182FA7
:1055D00080E58CBD1DBC2C9880E469830E94650A1F
:1055E000812F0E94650A6981862F0E94650A2C9A84
:1055F0000F90DF91CF911F910895EF92FF921F932B
:10560000CF93DF93FB01EE5BFF4F2591349182171F
:1056100093070CF04CC0FB012591349128173907F2
:105620000CF048C013E2A1E2B0E040E050E021E11C
:10563000115009F439C030E0E901CC0FDD1FFB0146
:10564000EC0FFD1FE590F490FE013296E60FF71F78
:10565000C591D491C817D90724F4A9012A0F3B1F7B
:1056600006C08E159F0534F4D901240F351F3595DA
:105670002795DECF4EEC4203B001439F700D1124FD
:105680009B012E513B4FBC016E197F094603C0019F
:10569000479F900D1124BE016E197F090E947D3035
:1056A000C901860F971F08C080E090E005C080E721
:1056B0009EEF02C082EE94E0DF91CF911F91FF90A8
:1056C000EF900895ACE0B0E0E8E6FBE20C946A2EBF
:1056D0006C015B017A01FC0117821682838181FFD4
:1056E0000EC1CE0101964C01F6010381F50103FDC7
:1056F000159103FF11915F01112309F4FCC01532CC
:1057000049F403FD159103FF11915F01153211F06A
:1057100020E01BC0B601812F90E00E94152F3701B9
:105720007301E2CF112309F4E6C0612F70E08EE12E
:1057300097E02C870E94C42E2C85892B49F0F50117
:1057400003FD159103FF11915F0127FFEBCF09C006
:10575000133229F01C3609F0D5C02068F0CF20E1C3
:10576000EECF022F112309F4C6C0612F70E087E14C
:1057700097E02C870E94C42E2C85892B41F037019D
:10578000F4E06F0E711CB6018FE390E011C0133688
:1057900039F0133781F0133519F5022F01600BC072
:1057A000370182E0680E711CB601F701808191819A
:1057B0000E94152FB5CF3701F2E06F0E711CF70173
:1057C000E080F180F70100FD859100FF81917F016C
:1057D000882309F4A5CFB60190E00E94152FF2CFDF
:1057E000143611F0193629F5370127FF09C0F4E006
:1057F0006F0E711CF70160817181828193810AC0F3
:10580000F2E06F0E711CF70160817181072E000CB0
:10581000880B990B022F0F7E97FF08C090958095FB
:10582000709561957F4F8F4F9F4F00642AE030E065
:1058300033C0103799F040F41835B1F01F3609F035
:105840005AC028E030E014C0153719F0183741F07D
:1058500052C0022F0F7E2AE030E00AC0022F006102
:10586000046220E130E004C0022F046020E132E055
:10587000370107FF09C0F4E06F0E711CF70160816A
:1058800071818281938108C0F2E06F0E711CF70173
:105890006081718180E090E0A4010E94B42F182FF4
:1058A000181906FF05C0B6018DE290E00E94152F81
:1058B00004FF15C0FE01E10FF11D8081803379F0F6
:1058C000B60180E390E00E94152F02FF08C000722D
:1058D000802F90E0B601885A9F4F0E94152F1150DB
:1058E000F401E10FF11D8081B60190E00E94152FB7
:1058F0001111F5CF15CFF6018681978105C08FEF85
:105900009FEF02C0022F31CF2C96EEE00C94862E32
:1059100020FD09C0FC0123FD05C022FF02C07383E6
:10592000628351834083089544FD10C046FD10C03A
:10593000DB01FC01AA0FBB1FEE1FFF1F1094D1F764
:105940006A0F7B1F8E1F9F1F31E003C033E001C031
:1059500034E0660F771F881F991F3150D1F7620F0F
:10596000711D811D911D08950F931F93CF93DF9398
:105970008C01C8010E94D72EEC0197FD08C00E943F
:10598000BB2E892BB1F7B801CE010E949B2FCE010F
:10599000DF91CF911F910F910895A1E0B0E0E3ED69
:1059A000FCE20C946C2E8C01C62E7A0129830E9495
:1059B000D72EAC01552729814B32510521F04D32AC
:1059C000510569F42068CA94C11002C080E076C015
:1059D000C80129830E94D72E298197FDF7CF322F46
:1059E0003D7FD32E322F307349F5803339F5BB24F8
:1059F000BA94BC0C09F44EC0C80129830E94D72E6A
:105A0000298197FD47C0382F3F7D383569F48D2DAA
:105A10008264D82ECA94CA94CC20E1F1C8010E94B5
:105A2000D72E97FF0BC036C026FF04C02D2D226055
:105A3000D22E03C03D2D3261D32ECB2C812C912C44
:105A4000540120ED280F283080F0D4FE04C0B801A6
:105A50000E949B2F1CC02A3040F0D6FEF8CF2F7D2D
:105A60003FEE320F363098F727504D2DC501B40167
:105A70000E94942C4B015C018D2D8260D82ECA941B
:105A8000CC2059F0C8010E94D72E97FFDACFD1FC65
:105A900004C09CCF812C912C5401D7FE08C0B09437
:105AA000A09490948094811C911CA11CB11C2D2D5C
:105AB000B501A401C7010E94882C81E02196ECE089
:105AC0000C94882EA1E0B0E0E8E6FDE20C94682E8C
:105AD0007C012B015A01FC0117821682812CF701EF
