:100000000C94E4030C9401040C9401040C9401047A
:100010000C9401040C9401040C9401040C94EA184F
:100020000C9401040C9401040C9401040C9401043C
:100030000C9401040C9401040C9401040C9401042C
:100040000C9401040C94280A0C9401040C940104EF
:100050000C9401040C943D130C9401040C94B51001
:100060000C9401040C9473100C9401040C9401047E
:100070000C9401040C9401040C9401040C940104EC
:100080000C9401040C9401040C9401040C940104DC
:100090000C9401040C9401040C9401040C940104CC
:1000A0000C9401040C9401040C940104D31C1C1D39
:1000B000661DB21D4B1E061EFB1F4552524F523A83
:1000C00020727820627566666572206F766572664A
:1000D0006C6F770A00AA6A5A56555595A5A9AA25A4
:1000E0007520002575200025692000256868752584
:1000F0006E002575256E002569256E00626C6F63A4
:100100006B5B25645D3D307825303278202830786F
:1001100025303478290A0026626C6F636B3D307895
:10012000253034780A002569200000534C412D63A6
:100130006F6E74726F6C2025642E25642E25642DDD
:10014000256425532000435A5058253473582533CD
:100150007358256325357320000103050E0F111216
:1001600013151617383A0002042530327800256C32
:100170006920002530326868782000000A0014F0F9
:1001800000F0001405B00400000000A005400BA022
:1001900000A0001005DC0500000000000F00145056
:1001A0000050001808DC050000000090015802C84B
:1001B00000C8001400DC050000000090014006307B
:1001C0000030001F0CB80B0000000090012003302D
:1001D0000030003E22D00700000000D007800C3025
:1001E0000030001207D00700000000000F0014C804
:1001F00000C8000F037E04000000009808983A969B
:100200000096001608580200000000C4094C1D5E4C
:10021000015E010C01780500000000800C983AFA9C
:1002200000FA000A039808000000006400960032FB
:100230000032000F00DC0500000000800CC044FA12
:1002400000FA002206F40100000000800CC044FA0D
:1002500000FA001206F4010000000040068025C8E4
:1002600000C8003F04F40100000000C4094C1D5EFA
:10027000015E010C0278050000000039015B017F7E
:1002800001A601CF01FA01250252027E02A902D283
:1002900002FA021F0341035F037A039203A603B726
:1002A00003C603D203DC03E403EA03EF03F403F71A
:1002B00003F903FB03FC03FD03FE03FF03FF033FFE
:1002C0003F3F3F004552524F523D25642028255361
:1002D000290A004E4F4E45004348534100434853BE
:1002E0004200534E4E530046555345004C4F434B2E
:1002F0000047535049005453504900545349470054
:10030000414443560054484552004D4F544F004617
:10031000414E5300554C45440066018801AC01D361
:1003200001FA0123024C0275029D02C502EA020E87
:10033000032F034D03690381039603A903B903C780
:1003400003D203DB03E303EA03EF03F303F603F84B
:1003500003FA03FC03FD03FE03FE03FF032374699A
:10036000686F206F6B202D2049444C450A00237490
:1003700069686F2063616C69623A202532642025C8
:10038000640A00237469686F206F66667365743A47
:100390002025640A00237469686F20736574206FD8
:1003A00066667365743A2025640A00237469686F71
:1003B000206572726F7220454E4F454E440A0023ED
:1003C0007469686F206572726F722045424C4F43AA
:1003D0004B0A00237469686F25642D20256420254D
:1003E0006C6420256C640A00237477686F206F6B3F
:1003F000202D2049444C450A00237477686F206FF4
:1004000066667365743A2025640A00237477686F02
:1004100020736574206F66667365743A2025640ADC
:1004200000237477686F206572726F722045424CAA
:100430004F434B0A00237477686F206572726F72A6
:1004400020454E4F454E440A00237477686F25645B
:100450002D20256420256C6420256C640A002374FB
:100460006970682073746570732025640A00256CB8
:10047000640A0023494E54360A007473746570315F
:100480003D2564202825642063656E74290A007464
:1004900073746570303D2564202825642063656E83
:1004A00074290A004D435553523D30782530327837
:1004B0000A0073746172740A006265657081626F0C
:1004C0006F74B5636C6564856565636C9F65657203
:1004D00078A065657778A16563686FAA66616E65C7
:1004E000B366616E738A6670776DB26672706D9D69
:1004F0006D6F74728D706C65648270707374BF7090
:1005000070776DB170737064B97273656EAD72732C
:100510006D65AF72737374AE73676263BA7367624B
:1005200064BB7368646E8374656D709E7469636682
:10053000A774696373A9746963759674696863C104
:100540007469686F9874696D61A374697068BD742B
:1005500069706FA5746973679A74697374C37472F0
:100560006177B674776366A674776373A8747763EC
:1005700075957477646E8F74776863C07477686FED
:100580009774776D61A274777068BC7477706FA48C
:10059000747773679974777374C2747775708E7596
:1005A0006C6564847570776DB8766F6C74B07672B4
:1005B0006177B77764656CBE7769646CB4666D7398
:1005C0006BC4676F7365C574697365C65F706F725E
:1005D000E15F646472E25F70696EE36469720F6583
:1005E0006E610C656E6411657272416C65640D6CB0
:1005F0006F67426D6F741072737401736572037468
:100600007374437665720270756E12017A0443CB7F
:100610000683EB058DE1059765049850049FD0058E
:10062000B4BF05B53E04BB3A04C02C04C11E04C5CA
:100630001304001A0801970F022A07036005121518
:10064000050C970F0D970F0F970F10970F11970F1E
:1006500041970F42970F82970F84D50885970F8A8D
:10066000970F95970F96970F974A07984A07C64A8C
:100670000799970F9A970F9DE5089E7B07B07B0718
:10068000B68708B78708B1970FB9970FB8970FB219
:10069000E508B3970FA41207A57307A64009A74062
:1006A00009A84A07A94A07AA4A07AD970FAE970FAC
:1006B000BA970FBBE306BCA008BDA008BF7C2DC045
:1006C0009407C19407C44A070C572C0D572C0F5799
:1006D0002C10572C11572C41572C42572C83572C38
:1006E00081462A82572C84FE2985572C8E5C2B8FBD
:1006F0005C2B8A572C95572C96572C99FB2B9AFBE1
:100700002B9FD005A2952AA3172BA4952AA5172BBA
:10071000A63629A73629A8FB2BA9FB2BAA572CB153
:10072000572CB9572CB8572CB2C327AD572CAF95BF
:100730002ABE5C2BBC5C2BBD5C2BC2FB2BC3FB2BF2
:10074000C0FD28C1C428C4572CBF9D27C63D28E141
:100750002E27E32E27E22E27A67818A77818E12562
:1007600018E32518E225186525640A006F6B0A0056
:100770004552524F523A20636F6D6D616E64206F27
:10078000766572666C6F770A0023747770682073E1
:10079000746570732025640A00256C69256E002538
:1007A000686869256E0045464765666700202B2D01
:1007B0002E30313233343536373839680063646966
:1007C0006E6F70737578580011241FBECFEFDAE09A
:1007D000DEBFCDBF27E0AEE1B4E001C01D92AB3378
:1007E000B207E1F714E0A0E0B1E0E0E2FCE602C00D
:1007F00005900D92AE31B107D9F70E9463220C9497
:100800000E360C940000E0910107ED50EA3B40F4F5
:10081000F0E0EE0FFF1FE057FD4F808191810895BA
:1008200080E090E0089583E08093EE0680E480937A
:100830000E0184E08093020780E0089580917205A4
:1008400081FD08C081E08093060180E18093B005BE
:1008500080E008958EEF08958091720580FD08C0B4
:1008600081E0809307018AE080932E0480E0089560
:100870008EEF08951092670480E0089587E797E768
:10088000909301088093000898E088E10FB6F894EF
:10089000A895809360000FBE90936000F894FFCFFE
:1008A00090917205892F827091FD0DC091E0909317
:1008B0000601209108013091090137FD80E1809304
:1008C000B00580E008958EEF089590917205892F0C
:1008D000817090FD0DC091E09093070120910A0175
:1008E00030910B0137FD80E180932E0480E0089564
:1008F0008EEF089598E088E10FB6F894A89580935C
:1009000060000FBE90936000F894FFCF8F929F928B
:10091000AF92BF92CF92DF92EF92FF920F931F930D
:10092000CF93DF936A017B01082F10E095E2899F46
:10093000E0011124C858D94FAB85BC852D853E8573
:1009400049018A0E9B1EA12CB12C481559056A0538
:100950007B05A8F0BD8FAC8FC818D908EA08FB0842
:10096000CE8EDF8EE8A2F9A23BA32AA3AB2B11F017
:1009700086E001C084E0232BA9F0886013C09A01AF
:10098000AB010E948633A50194010E944F333D8F35
:100990002C8F1E8E1F8E18A219A2C21AD30ADBA298
:1009A000CAA28AE095E2909FF001919FF00D112478
:1009B000E858F94F878BDF91CF911F910F91FF90EE
:1009C000EF90DF90CF90BF90AF909F908F90089561
:1009D0008EBD0DB407FEFDCF8EB508958091CD0577
:1009E0009091CC05981781F0E82FF0E0E153FA4F91
:1009F000208130E08F5F9091CB05891708F080E06F
:100A00008093CD05C90108958FEF9FEF08958093DE
:100A1000CE008091C80086FFFCCF8091C800806422
:100A20008093C80080E090E00895CF92DF92FF921B
:100A30000F931F93CF93DF93CDB7DEB760970FB6B9
:100A4000F894DEBF0FBECDBF29E531E08E010F5F08
:100A50001F4FD80141E290E1F92EF00EF901849187
:100A6000E82FF0E04093570084918D932F5F3F4F24
:100A7000FA12F4CF89E6C82E81E0D82EF8018191D0
:100A80008F01282F082E000C330B3F938F93DF929A
:100A9000CF920E941B320F900F900F900F90F01288
:100AA000EDCF80E060960FB6F894DEBF0FBECDBFED
:100AB000DF91CF911F910F91FF90DF90CF9008951C
:100AC000BF92CF92DF92EF92FF920F931F93CF933B
:100AD000DF93CDB7DEB763970FB6F894DEBF0FBED6
:100AE000CDBFFE01319683E1DF011D928A95E9F7C2
:100AF0008E010C5F1F4F44E050E066E576E0C801D0
:100B00000E94D5357E01B9E0EB0EF11C43E050E0C8
:100B10006AE576E0C7010E94D53583E4B82EBD862C
:100B20006E018EE0C80ED11C45E050E06EE576E027
:100B3000C6010E94D535DF92CF921F92BF92FF92DD
:100B4000EF921F930F9386E491E09F938F930E94FF
:100B50001B320FB6F894DEBF0FBECDBF80E06396A8
:100B60000FB6F894DEBF0FBECDBFDF91CF911F91BE
:100B70000F91FF90EF90DF90CF90BF9008958091FC
:100B80007205837019F00E94621AF9CF80910701F3
:100B90001816CCF3809106011816ACF380E0089586
:100BA000CF93DF93C0E0D0E06FEFCE010E94F1322F
:100BB0002196C11584E0D807B9F780E0DF91CF9185
:100BC000089580E00E94AF118FEF8093070180931A
:100BD000060180E0089580E00E94361310927A05A5
:100BE00080E00895FB0190E0941781F02491BF010B
:100BF0006D5F7F4F281307C03196859194910097C0
:100C000039F0FC0109949F5FFB01EECF89EF089555
:100C10008AEF08950F931F93CF93DF93582FC42F1C
:100C2000D0E021962223B1F0FB01DC013A2F351BE5
:100C3000341728F40D91149131960117B9F321500E
:100C4000341305C0FB01E30FF11D849104C06C0F48
:100C50007D1FE8CF8FEFDF91CF911F910F91089506
:100C6000CF93DF93CDB7DEB7AE014B5F5F4FFA0195
:100C700061917191AF018091FB069091FC060E94F9
:100C80005A32DF91CF910895EF92FF920F931F9305
:100C9000CF93DF93CDB7DEB7C250D2400FB6F894F2
:100CA000DEBF0FBECDBF8E010F5F1F4F1F930F938F
:100CB00087E191E09F938F930E943006CF5FDD4FD5
:100CC00019821882C150D2400F900F900F900F9050
:100CD0008CEFE82E80E0F82ECF5FDD4F8881998180
:100CE000C150D240811592400CF047C0CF5FDD4F1C
:100CF000E881F981C150D240E00FF11F1082CF5F2F
:100D0000DD4F88819981C150D240CF5FDD4FE881AE
:100D1000F981C150D240E00FF11F4081CF5FDD4F1C
:100D200028813981C150D240800F911F9F938F93AA
:100D3000842F042E000C990B9F934F933F932F9376
:100D4000FF92EF920E9430068FE99FE00197F1F742
:100D500000C000000FB6F894DEBF0FBECDBFCF5F5E
:100D6000DD4F88819981C150D2400196CF5FDD4F20
:100D700099838883C150D240AFCFCE5FDD4F0FB68D
:100D8000F894DEBF0FBECDBFDF91CF911F910F91C1
:100D9000FF90EF9008950E94440680E00895CF935D
:100DA000DF93CDB7DEB7AE014B5F5F4FFA016191C4
:100DB0007191AF0180910307909104070E945A320C
:100DC000DF91CF9108950F931F93CF93DF9380917D
:100DD0006704E0917005E81B8A3010F4982F01C079
:100DE0009AE0891B80936704C92FCE0F03E711E0B7
:100DF000EC1791F0D1E0DE0FF0E0E859FB4F808175
:100E00001F928F931F930F930E94CF060F900F9006
:100E10000F900F90ED2FECCF80E0DF91CF911F91DD
:100E20000F910895E8E7F6E086898F9385898F937F
:100E300084898F9383898F938EE691E09F938F931C
:100E40000E94CF060F900F900F900F900F900F9071
:100E500080E008958AE291E09F938F9381E08F93E1
:100E600081E78F931F9288E08F931F9289E08F9381
:100E70001F921F928BE291E09F938F930E94CF0667
:100E80008DB79EB70C960FB6F8949EBF0FBE8DBF60
:100E900080E008950E940304009719F0FC0180810E
:100EA00001C080E0282F082E000C330B3F938F9356
:100EB00086E291E09F938F930E94CF060F900F9050
:100EC0000F900F9080E008959F938F9387EE90E0AE
:100ED0009F938F930E94CF060F900F900F900F90CB
:100EE00097FD80E008958091B0069091B1060E9430
:100EF000640780E008950F931F93CF93DF930E94C0
:100F00000304009759F0EC018C01085F1F4F899191
:100F100099910E946407C017D107C9F780E0DF915B
:100F2000CF911F910F9108950E940304009721F023
:100F3000FC018081918102C080E090E00E94640702
:100F400080E00895CF93DF9300D0CDB7DEB79E0148
:100F50002F5F3F4F3F932F937F936F9327EF30E0A7
:100F60003F932F939F938F930E9441320FB6F89433
:100F7000DEBF0FBECDBF019711F4898101C08DEF97
:100F80000F900F90DF91CF910895CF93DF9300D012
:100F9000CDB7DEB79E012F5F3F4F3F932F937F93D7
:100FA0006F9322EF30E03F932F939F938F930E9494
:100FB00041320FB6F894DEBF0FBECDBF019711F4DA
:100FC000898101C08DEF0F900F90DF91CF9108952F
:100FD000CF93DF9300D0CDB7DEB79E012F5F3F4F99
:100FE0003F932F937F936F932BEE30E03F932F939C
:100FF0009F938F930E9441320FB6F894DEBF0FBECD
:10100000CDBF019711F4898101C08DEF0F900F9032
:10101000DF91CF9108959F938F9383EE90E09F93FC
:101020008F930E94CF060F900F900F900F9097FD17
:1010300080E008951092300410922F0480912F04C4
:1010400090913004209172052370822B909330048C
:1010500080932F04809102078F3F21F084E090E07D
:101060000E94412220913E0427FD09C080912F0457
:101070009091300480649093300480932F0425FD78
:1010800009C080912F0490913004806890933004BF
:1010900080932F048091FA06882349F080912F04D1
:1010A0009091300490629093300480932F0480914B
:1010B0000207823039F481E08093EE0683E080936A
:1010C00002070DC0809102078F3F49F480912F04E1
:1010D0009091300490689093300480932F0485E0C1
:1010E0008093790580915704882349F080912F04DB
:1010F0009091300490649093300480932F048091F9
:101100002F04909130040E940B0880E008950F9303
:101110001F93CF93DF930E940304009759F0EC01D3
:101120008C01085F1F4F899199910E940B08C0178D
:10113000D107C9F780E0DF91CF911F910F910895FA
:101140000E940304009721F0FC01808191811AC064
:10115000809101078C3B59F08D3B91F480E090E247
:101160000E94412280913304909134040BC080E0AE
:1011700090E10E944122809131049091320402C09A
:1011800080E090E00E940B0880E008951F928F930A
:101190008FED90E09F938F930E94CF060F900F905A
:1011A0000F900F9097FD80E00895809165068695D9
:1011B00081700E94C608809177059091780500970C
:1011C00011F00E940B0880E008950F931F93CF93B6
:1011D000DF930E940304009751F0EC018C010C5F37
:1011E0001F4F89910E94C608C017D107D1F780E030
:1011F000DF91CF911F910F9108950F931F93CF937C
:101200008C01FC01808191810E940B08C82FF8019C
:10121000828193810E940B08C80FF8018481958117
:101220000E940B08C80FF801868197810E940B0865
:10123000C80FF80180850E94C608C80FF801818593
:10124000282F082E000C330B3F938F9386E291E0FA
:101250009F938F930E94CF060F900F900F900F9047
:1012600097FD02C0982F01C090E0C90FF801828558
:1012700093850E940B088C0FCF911F910F910895B9
:10128000CF93DF93CDB7DEB760970FB6F894DEBF8C
:101290000FBECDBF81E090910107973A09F080E041
:1012A000BE016F5F7F4F0E94B718CE0101960E946A
:1012B000FD0880E060960FB6F894DEBF0FBECDBF8C
:1012C000DF91CF91089580912D04882309F46BC09C
:1012D00080912C0490912B048823C1F0815080933D
:1012E0002C04911160C08FE694E090939900809354
:1012F000980080E4809390002F9A80916506816029
:101300008093650681E080932B040895992351F022
:10131000109290002F98809165068E7F80936506CD
:1013200010922B0480912A04882321F0815080930D
:101330002A04089520912904E22FE695E695F0E02D
:10134000EB5DFB4F808190E0422F437023E030E063
:10135000241B3109220F331F02C0959587952A95CA
:10136000E2F78370823059F0833081F0813019F0D8
:1013700010922C0407C080E380932C0404C080E901
:1013800080932C0480E380932A0402C010922904E5
:10139000809129048F5F8093290490912D048917EF
:1013A00010F0109229040895CF92DF92EF92FF92ED
:1013B0006B017C0120E030E0A9010E94FE33811125
:1013C00003C0109290001CC0A701960160E074E277
:1013D00084E799E40E94033420E030E040E05FE3DA
:1013E0000E9491330E947534683C710510F468ECDA
:1013F00070E0709399006093980080E4809390006F
:10140000FF90EF90DF90CF900895E82FF0E0EB523F
:10141000FF4FE491F0E0FE2FEE27853010F0E064FE
:1014200001C0E068F894F0932504E093260410923C
:10143000290410922C0410922A0488E080932D0431
:10144000789408958EBD0DB407FEFDCF8EB5089536
:101450001F920F920FB60F9211244F925F926F92CC
:101460007F928F929F92AF92BF92CF92DF92FF9224
:101470000F931F932F933F934F935F936F937F939C
:101480008F939F93AF93BF93CF93DF93EF93FF938C
:101490001092850010928400C0908906D0908A0630
:1014A0000091AE061091AF06E1E0C016D10608F03B
:1014B000E0E0E093240445E2E49FF0011124E858C1
:1014C000F94FC189D289D0932304C093220480911B
:1014D000840090918500209709F4B5C2F9B0F29488
:1014E000F694F69493E0F9228091F406F8228F2D79
:1014F00090E09093210480932004C03A56E3D507EE
:1015000050F0FE0186E0F695E7958A95E1F7E05FF9
:10151000FE4F46A11AC0C03A66E2D60748F0FE0167
:10152000B5E0F695E795BA95E1F7E45AFF4F0CC0A0
:10153000C03A7EE1D70758F0FE01A4E0F695E795A2
:10154000AA95E1F7E85DF040408150E01AC0C03252
:10155000D105A8F0BE0176956795CB01A0E0B0E07B
:10156000BC01CD0160587B47814E9F4F4E01A12C9D
:10157000B12CA50194010E944F33A90102C040E0A3
:1015800050E050931F0440931E048091840090917A
:101590008500F0917205F0FF24C1209192063091F0
:1015A0009306240F351F3093930620939206809163
:1015B000900690919106C816D90608F40CC18C0FBC
:1015C0009D1F8C199D099093910680939006E09140
:1015D0008F0680918B0690918C06A0918D06B0911C
:1015E0008E06F4FF04C00197A109B10903C001965A
:1015F000A11DB11D80938B0690938C06A0938D0640
:10160000B0938E06E1FF50C0A0917F06B091800696
:101610002F3F310509F058F44A9FB0014B9F700DE0
:101620005A9F700D1124CB01A0E0B0E005C09A01D3
:101630000E947733DC01CB0173E0880F991FAA1F4A
:10164000BB1F7A95D1F78090870690908806A0906E
:101650008906B0908A06880D991DAA1DBB1D80932E
:10166000870690938806A0938906B0938A06809196
:101670009406909195060197909395068093940611
:10168000892B09F08BC08E2F8D7FE2FF86C02091C1
:101690007D0630917E0630938A062093890610924B
:1016A00088061092870679C0E2FF28C080919606CE
:1016B00090919706A0919806B09199060197A1097B
:1016C000B1098093960690939706A0939806B093DD
:1016D0009906892B8A2B8B2B09F060C08E2F8B7F6C
:1016E000E3FD5BC0FE7FF0937205109287061092B7
:1016F00088061092890610928A064FC0E3FF4EC0FA
:10170000A0918106B09182062F3F310509F058F46F
:101710004A9FB0014B9F700D5A9F700D1124CB0151
:10172000A0E0B0E005C09A010E947733DC01CB0154
:1017300063E0880F991FAA1FBB1F6A95D1F780909D
:10174000870690908806A0908906B0908A062401AA
:101750003501481A590A6A0A7B0A40928706509254
:1017600088066092890670928A0680919A06909106
:101770009B06019790939B0680939A06892B71F4A0
:10178000E77FFE7FF093720510928706109288061D
:101790001092890610928A0601C0E82F80919C065B
:1017A000882321F0815080939C060CC0F0FE0AC073
:1017B000809172058E7F809372058091B50581605E
:1017C0008093B505E0938F061092930610929206CF
:1017D000DD24D39407C08C199D09909391068093C2
:1017E0009006D12CF0917205F1FF29C18091B706C6
:1017F0009091B806840F951F9093B8068093B70612
:101800002091B5063091B6060217130708F40EC1F1
:10181000C20FD31FC01BD10BD093B606C093B50621
:10182000E091B4060091B0061091B1062091B20685
:101830003091B306F5FF05C00150110921093109A6
:1018400004C00F5F1F4F2F4F3F4F0093B006109300
:10185000B1062093B2063093B306E1FF50C0A091C9
:10186000A406B091A5068F3F910509F058F44A9F50
:10187000B0014B9F700D5A9F700D1124CB01A0E059
:10188000B0E005C09A010E947733DC01CB0133E060
:10189000880F991FAA1FBB1F3A95D1F70091AC067C
:1018A0001091AD062091AE063091AF06800F911FCA
:1018B000A21FB31F8093AC069093AD06A093AE0613
:1018C000B093AF068091B9069091BA0601979093B4
:1018D000BA068093B906892B09F08BC08E2F8D7FB5
:1018E000E2FF86C02091A2063091A3063093AF0696
:1018F0002093AE061092AD061092AC0679C0E2FFBE
:1019000028C08091BB069091BC06A091BD06B09105
:10191000BE060197A109B1098093BB069093BC064E
:10192000A093BD06B093BE06892B8A2B8B2B09F0A2
:1019300060C08E2F8B7FE3FD5BC0FD7FF09372054F
:101940001092AC061092AD061092AE061092AF0641
:101950004FC0E3FF4EC0A091A606B091A7068F3FEF
:10196000910509F058F44A9FB0014B9F700D5A9FA2
:10197000700D1124CB01A0E0B0E005C09A010E94D7
:101980007733DC01CB0123E0880F991FAA1FBB1F0F
:101990002A95D1F70091AC061091AD062091AE06C4
:1019A0003091AF06B901A801481B590B6A0B7B0B9C
:1019B0004093AC065093AD066093AE067093AF06AD
:1019C0008091BF069091C00601979093C0068093C6
:1019D000BF06892B71F4E77FFD7FF09372051092AB
:1019E000AC061092AD061092AE061092AF0601C082
:1019F000E82F8091C106882321F081508093C10691
:101A00000DC08F2D827051F0809172058D7F809373
:101A100072058091B50582608093B505E093B406A8
:101A20001092B8061092B70682E008C0E901C01B08
:101A3000D10BD093B606C093B50680E0D82A8D2D81
:101A40000E947D1106C080ED97E090931F04809363
:101A50001E0480911E0490911F049093890080932E
:101A60008800209184003091850080911E0490911F
:101A70001F042817390728F00A9790938500809350
:101A80008400FF91EF91DF91CF91BF91AF919F9132
:101A90008F917F916F915F914F913F912F911F9106
:101AA0000F91FF90DF90CF90BF90AF909F908F905D
:101AB0007F906F905F904F900F900FBE0F901F9090
:101AC0001895CF92DF92EF92FF920F931F93CF93CF
:101AD000DF9300D000D0CDB7DEB7082F10E021E0B3
:101AE00030E06901082E01C0CC0C0A94EAF790910D
:101AF00072059C2109F05BC0411551056105710516
:101B000009F457C0F82EEC2CE09449835A836B8378
:101B10007C8314161506160617069CF40E94A51160
:101B20008E210E9496118C2D8295807F80959091B8
:101B3000720589238093720549815A816B817C816A
:101B400018C00E94A5118C290E94961180917205DF
:101B50009C2D9295907F892B8093720549815A81A3
:101B60006B817C8170956095509541955F4F6F4F6B
:101B70007F4F8F2D0E94860485E2809FF001819F18
:101B8000F00D1124E858F94F108A1786838194814B
:101B9000928B818B80E284A38091B505E822E0924C
:101BA000B505809172058C298093720502C08FEF74
:101BB00001C080E00F900F900F900F90DF91CF91B8
:101BC0001F910F91FF90EF90DF90CF9008950F93AA
:101BD0001F9395E2899FF0011124E858F94F03897A
:101BE000148925893689401B510B620B730B1F9199
:101BF0000F910C94610DCF92DF92EF92FF920F93B1
:101C00001F93CF93DF93C82ED12C95E2899FE001DB
:101C10001124C858D94F8D819E810B811C817C0174
:101C2000E01AF10A080F191F2F8138852115310597
:101C300039F1C701A0E0B0E0BC01CD01ECE0660FD6
:101C4000771F881F991FEA95D1F740E050E00E9466
:101C50004F33F4E05695479537952795FA95D1F788
:101C6000D8010E9486336C5D7B408F4F9F4F28E4E4
:101C700038EE41E050E00E944F333C872B8702C092
:101C80001C861B8685E28C9DE0018D9DD00D112464
:101C9000C858D94F29853A852115310539F1C70131
:101CA000A0E0B0E0BC01CD014CE0660F771F881FBB
:101CB000991F4A95D1F740E050E00E944F3364E00D
:101CC00056954795379527956A95D1F7D8010E9483
:101CD00086336C5D7B408F4F9F4F28E438EE41E0A8
:101CE00050E00E944F333E872D8702C01E861D861E
:101CF000DF91CF911F910F91FF90EF90DF90CF90E8
:101D00000895AF92BF92CF92DF92EF92FF920F931E
:101D10001F93CF93DF931F92CDB7DEB7A82E8A0112
:101D20008CE5F82EFCBC1DBC8A2D69830E948D11A8
:101D30006981862F0E94E80480E00E94E80480E028
:101D40000E94E80480E00E94E80480E00E94E80429
:101D50008A2D0E948411FCBC1DBC8A2D0E948D110D
:101D600080E00E94E804B82E80E00E94E804C82EBB
:101D7000D12CE12CF12CFE2CED2CDC2CCC2480E0A1
:101D80000E94E804C82AFE2CED2CDC2CCC2480E038
:101D90000E94E804C82AFE2CED2CDC2CCC2480E028
:101DA0000E94E804C82A8A2D0E9484110115110599
:101DB00029F0F801C082D182E282F3828B2D0F904C
:101DC000DF91CF911F910F91FF90EF90DF90CF9017
:101DD000BF90AF9008951F93CF93DF9300D000D0B2
:101DE0001F92CDB7DEB7182F8CE58CBD1DBC812F9F
:101DF0002D833C834B835A8369830E948D116981B3
:101E0000862F0E94E8045A81852F0E94E8044B81A6
:101E1000842F0E94E8043C81832F0E94E8042D81D6
:101E2000822F0E94E804812F0E94841180E00F908D
:101E30000F900F900F900F90DF91CF911F91089509
:101E400099E0899FF0011124EA59F94F6683462FE2
:101E5000660F550B660B770B332722276DEE0C941C
:101E6000EB0ECF92DF92EF92FF921F93CF93DF930F
:101E7000182F603218F0669520E001C021E0822F13
:101E800090E0A0E0B0E06C017D0181E1CC0CDD1CB4
:101E9000EE1CFF1C8A95D1F789E0189FE001112400
:101EA000CA59D94F88819981AA81BB81AD7FA70189
:101EB0009601282B392B4A2B5B2B288339834A83A5
:101EC0005B836C836D836CEE812F0E94EB0E2C8103
:101ED0002F71822F90E0A0E0B0E0AF604D814F7194
:101EE00050E0542F4427052E000C660B770B9A0107
:101EF000AB01282B392B4A2B5B2B60E9812FDF911B
:101F0000CF911F91FF90EF90DF90CF900C94EB0E4C
:101F100029E0829FC0011124FC01EA59F94F408158
:101F2000518162817381858161FF880F08950E94CC
:101F30000304009719F0FC01808148C080910107DB
:101F4000853881F188F48F3031F138F48130F1F047
:101F50008C30D9F50E94C41139C08031F9F081313B
:101F6000A1F58091F4061CC0893919F130F4853946
:101F7000E1F0863951F581E019C08D3AE9F08E3AE9
:101F8000F9F08A3911F58091750620C08091FA0622
:101F90001092FA061BC00E94A51118C0809172050C
:101FA0008F7014C0809165060CC080E00E94880F7D
:101FB0000DC080916C060AC080915604817006C0E5
:101FC0008CB182FB882780F901C080E00E94C6089E
:101FD00080E00895FF920F931F93CF93DF9300D07B
:101FE00000D0CDB7DEB7F82E83ED90E0A3E0B4E1EA
:101FF00089839A83AB83BC8329E0F29E80011124FC
:102000000A59194FF80180839183A283B38380E139
:102010008483858383E086838CED95E09087878336
:1020200023ED30E043E054E16CEE8F2D0E94EB0E87
:10203000AE014F5F5F4F6CE68F2D0E94810EF8015D
:10204000408151816281738189819A81AB81BC8198
:10205000481759076A077B0741F520E030E0A901DE
:1020600061E98F2D0E94EB0EF8012681822F220F4D
:10207000990BAA0BBB0BAC01332722276DEE8F2DDA
:102080000E94EB0EF8012781308540E050E064E9C2
:102090008F2D0E94EB0E20E831E340E050E060E835
:1020A0008F2D0E94EB0E80E001C08FEF0F900F90FC
:1020B0000F900F90DF91CF911F910F91FF90089596
:1020C00010925504109250048091630680FD04C064
:1020D000109252041092510481FD04C010925404D5
:1020E0001092530408951F920F920FB60F9211246D
:1020F0002F938F939F93EF93FF932091CE00809126
:10210000CC059091CD05E82FF0E0E153FA4F208304
:102110008F5F2091CB05821708F080E0891719F0B6
:102120008093CC0518C0F894EAEBF0E08BE18E0FB9
:102130009091C80095FFFCCF94919093CE00909120
:10214000C80096FFFCCF31968E13F2CF7894109290
:10215000CC051092CD05FF91EF919F918F912F911A
:102160000F900FBE0F901F9018951F920F920FB6F1
:102170000F9211248F939F93AF93BF9386B58A5F7D
:1021800086BD78948091EA069091EB06A091EC06CA
:10219000B091ED060196A11DB11D8093EA069093C2
:1021A000EB06A093EC06B093ED06BF91AF919F9123
:1021B0008F910F900FBE0F901F9018951F93CF9384
:1021C000DF9300D000D0CDB7DEB7162FEFECF7E0ED
:1021D0003197F1F700C00000F89419821A821B822F
:1021E0001C82AE014F5F5F4F64E00E94810E8981C7
:1021F0007894812783710F900F900F900F90DF914B
:10220000CF911F9108958F929F92AF92BF92CF92DC
:10221000DF92EF92FF920F931F93CF93DF93CDB78F
:10222000DEB760970FB6F894DEBF0FBECDBFD82ED5
:10223000B62E9E012F5F3F4F7901B9010E94B7185A
:10224000D11006C0B7FC02C0E5E00AC0E7E008C054
:1022500031E0D3120CC0B7FC02C0E6E001C0E8E0F8
:10226000F0E0EE0FFF1FEC5FFB4F80809180B7FC2A
:102270000BC0B701C4012B2D30E12302800D911D4D
:1022800011240E94392E26C0A12CB12C80E1C82E29
:10229000CE0CD11004C0850105501E4F06C081E050
:1022A000D81203C0850105581E4FD701F801CA1680
:1022B00021F084918D933196FACFB701C501880D35
:1022C000991D0E94392E90E1A90EB11C20E8A2169A
:1022D000B104F9F660960FB6F894DEBF0FBECDBF1D
:1022E000DF91CF911F910F91FF90EF90DF90CF90F2
:1022F000BF90AF909F908F90089580FD2D9A81FDA3
:102300002E9A2D982E980895882319F0813019F06F
:102310000895599A08955C9A0895882319F0813098
:1023200019F00895599808955C980895ECE0F1E04B
:10233000282F217090819A7F922B8270880F892B91
:10234000808382E090E00C94412280910C01282F40
:10235000247030E0359527958170822B089593E0A5
:102360008927ECE0F1E0282F217030E0220F331FA5
:102370008270880F880F282B8081857F282B2083EF
:1023800082E090E00C94412290910C01292F28705A
:1023900030E0359527953595279596959170922B38
:1023A00083E089270895EF92FF920F931F93CF93B5
:1023B000DF93C82F01E010E001C0000F8A95EAF713
:1023C0000E94C411F82E0E94A511E82ED02FD0959E
:1023D0008F2D8D230E94AF118E2D8D230E9496117B
:1023E00060E18C2F0E94DE10D82FCC2321F0C13069
:1023F00019F42E9A01C02D9A61E18C2F0E94DE10F3
:10240000D82BCC2321F0C13019F42E9801C02D987F
:102410008E2D802B0E94961162E18C2F0E94DE107F
:10242000D82B802F0E947D118F2D802B0E94AF1101
:1024300062E08C2F0E94DE10D82B8E2D0E94961108
:102440008F2D0E94AF118D2FDF91CF911F910F9192
:10245000FF90EF9008956BE772E0969587959695BB
:1024600087950C94BB2D9C0136952795369527951D
:10247000A2E9B3E10E947733AB01BC0199E0769504
:102480006795579547959A95D1F74E7F6170772755
:1024900089E79DE5841B950B97FF02C080E090E0E3
:1024A000089580914B0690914C06A0914D06B091F5
:1024B0004E0680FF06C063E576E080E090E00E9473
:1024C000392E80914B0690914C06A0914D06B0910B
:1024D0004E0685FF07C06091040167FD03C080E0E0
:1024E0000E94031180914B0690914C06A0914D06DD
:1024F000B0914E0686FF07C06091030167FD03C0DF
:1025000081E00E94031180914B0690914C06A091AE
:102510004D06B0914E0687FF04C06FEF80E00E9429
:10252000031180914B0690914C06A0914D06B091FD
:102530004E0690FF04C06FEF81E00E94031180916E
:102540004B0690914C06A0914D06B0914E0691FF1E
:1025500008C060910A0170910B0180E093E00E9435
:10256000033380914B0690914C06A0914D06B0919B
:102570004E0692FF08C0609108017091090180E148
:1025800093E00E94033380914B0690914C06A091FA
:102590004D06B0914E0693FF08C0609151067091B0
:1025A000520682E093E00E94033380914B069091A3
:1025B0004C06A0914D06B0914E0694FF08C0609164
:1025C0004F067091500682E193E00E94033310920F
:1025D0004B0610924C0610924D0610924E0608952E
:1025E00020E030E0F901E051F048E491DC01ED93A6
:1025F000CD012F5F3F4F20313105A1F70895909114
:10260000810590959823F89490FF03C022E02093D1
:102610007D0591FF03C022E020937E0592FF03C059
:1026200022E020937F0593FF03C092E09093800502
:1026300080938105789408958093650684FF02C095
:10264000289801C0289A9091650695FF02C05D9870
:1026500001C05D9A8670869590910D019C7F892BB3
:1026600080930D0188E090E00C9456223F9A8823D5
:1026700011F0479A0895479808951F920F920FB648
:102680000F9211241F932F933F934F935F936F9358
:102690007F938F939F93AF93BF93EF93FF93CF93CA
:1026A000DF9300D000D0CDB7DEB780917B0590914D
:1026B0007C059C012F5F3F4F30937C0520937B0569
:1026C000883E934040F110927C0510927B057894EF
:1026D00080917A05882339F0815080937A058111A1
:1026E00002C00E943613809102078330A9F48091C2
:1026F0007905882389F08091790581508093790547
:1027000081110AC082E08093EE0698E090930E015A
:102710008093020701C0789480910009909101098B
:102720008A35954A91F0F89498E088E10FB6F894CC
:10273000A895809360000FBE9093600085EA9AE5AB
:102740009093010980930009FFCF809102078F3F8A
:1027500019F40E946309B3C38091770590917805BD
:102760000097A9F001979093780580937705892BBE
:1027700071F4809165068D7F8093650680910D01CF
:102780008E7F80930D0188E090E00E945622809118
:10279000750590917605892B49F08091750590918A
:1027A0007605019790937605809375058091730562
:1027B00090917405009729F0019790937405809388
:1027C00073058091E8069091E906009749F001971A
:1027D0009093E9068093E806892B11F410929000FB
:1027E000E09172058E2F837009F443C0E695E17085
:1027F00080917105811113C08091C9059091CA051E
:10280000EE2319F020E038E002C020E830E0822B0F
:10281000932B9093CA058093C9058AE028C08A301B
:1028200029F5A091700581E08A0F80937005B0E0D2
:10283000A859BB4FF0E0EE0FFF1FEE0FFF1FE85946
:10284000FA4F408151816281738182E0769567956C
:10285000579547958A95D1F74C93809167048F3FA0
:1028600019F08F5F8093670489E001C081508093E5
:1028700071058091660490916504811162C0409158
:10288000810591110AC02091F606209360042091E1
:102890005F0440FB20F920935F042091F70620930A
:1028A00061042091F806209362042091F906209398
:1028B00063045091EE0620915D0430915E04513026
:1028C000D1F0F0F0523019F0533089F01BC0B9014B
:1028D000B4E076956795BA95E1F7213451E0350774
:1028E00018F058E2561B09C0609364040BC02134F1
:1028F00051E0350728F05091F5065093640402C06A
:102900001092640450910E01250F311D30935E0426
:1029100020935D042138324020F010925E04109222
:102920005D0430915F04317F242F2E704091650645
:1029300040FD02C040E001C040E1232B242B209346
:102940005F0420916004291305C020915F042E7F4D
:1029500020935F0420916104281305C020915F0437
:102960002D7F20935F0420916204281305C02091DD
:102970005F042B7F20935F0420916304281305C01C
:1029800020915F04277F20935F0420916404281323
:1029900005C020915F042F7E20935F048F5F80939A
:1029A0006604843110F0109266049F5F9093650472
:1029B000983210F01092650480915F0484FF02C089
:1029C0002F9A01C02F9880915F0420E1829FC0015F
:1029D000112490910C019F70892B80930C0182E04F
:1029E00090E00E9456228091C9059091CA05892BDA
:1029F00009F433C18091C9059091CA0581FF0EC0C9
:102A000060910C0182E10E949F2D8091C9059091F7
:102A1000CA058D7F9093CA058093C9058091C90529
:102A20009091CA0583FF0BC060910D0183E10E9464
:102A30009F2D8091C9059091CA05877F0AC1809119
:102A4000C9059091CA0582FF0BC083E10E948D2DBC
:102A500080933E048091C9059091CA058B7FF9C08F
:102A60008091C9059091CA0584FF0BC060913B0419
:102A700080E00E94310F8091C9059091CA058F7E38
:102A8000E8C08091C9059091CA0585FF0BC060918F
:102A9000390480E00E94200F8091C9059091CA05F9
:102AA0008F7DD7C08091C9059091CA0586FF14C05B
:102AB000209135043091360430936E0620936D06D4
:102AC00040E050E064E980E00E94EB0E8091C9058F
:102AD0009091CA058F7BBDC08091C9059091CA05B0
:102AE00087FF1DC019821A821B821C82AE014F5FB4
:102AF0005F4F6FE680E00E94810E89819A81AB81F1
:102B0000BC818093680590936905A0936A05B09392
:102B10006B058091C9059091CA058F779AC0809105
:102B2000C9059091CA0590FF0BC060913C0481E0FB
:102B30000E94310F8091C9059091CA059E7F89C07E
:102B40008091C9059091CA0591FF0BC060913A042C
:102B500081E00E94200F8091C9059091CA059D7F58
:102B600078C08091C9059091CA0592FF14C0209148
:102B7000370430913804309377062093760640E08E
:102B800050E064E981E00E94EB0E8091C9059091CC
:102B9000CA059B7F5EC08091C9059091CA0593FFCD
:102BA0001DC019821A821B821C82AE014F5F5F4FCB
:102BB0006FE681E00E94810E89819A81AB81BC81A0
:102BC00080936C0590936D05A0936E05B0936F058F
:102BD0008091C9059091CA05977F3BC08091C90536
:102BE0009091CA0594FF18C019821A821B821C8218
:102BF000AE014F5F5F4F6AE680E00E94810E8981DF
:102C00009A81937090933204809331048091C90526
:102C10009091CA059F7E1DC08091C9059091CA05FB
:102C200095FF1BC019821A821B821C82AE014F5F66
:102C30005F4F6AE681E00E94810E89819A819370DC
:102C400090933404809333048091C9059091CA0510
:102C50009F7D9093CA058093C9058091550487FF95
:102C600083C08F70E82FF0E021E030E0082E02C032
:102C7000220F331F0A94E2F74091630650916406D5
:102C800024233523232B71F420917800309179008F
:102C9000EE0FFF1FEF5AFB4F40815181240F351F6C
:102CA00031832083882309F441C0809150048F5FD1
:102CB000809350048430E0F18091E706282F30E0C3
:102CC000220F331FF901E85BFB4F409151045091F3
:102CD000520451834083F901E05CFB4F409153045F
:102CE000509154045183408321E130E0082E01C00B
:102CF000220F0A94EAF790913F04292B20933F0476
:102D00008F5F182F137058E0159FC0011124909108
:102D10000D01977E892B80930D0188E090E00E9441
:102D200056221093E7060E94601002C021E001C005
:102D300020E0922F80E041E050E0BA0163707727F5
:102D4000672B19F0992331F090E0440F551F8F5FE6
:102D5000803199F790917C008770987F892B8093C0
:102D60007C00209355040AC080917A00806480938F
:102D70007A00809155048068809355042FB1229584
:102D80002F7080915C04822790915F0489232093A7
:102D90005C04909166049330E0F080FF05C0909150
:102DA00058049F5F9093580481FF05C09091590487
:102DB0009F5F9093590482FF05C090915A049F5FD2
:102DC00090935A0483FF05C080915B048F5F8093CA
:102DD0005B0480910101909102010197909302019F
:102DE00080930101892BD1F52091580480917D05B4
:102DF00090E0820F911D9595879580937D05209198
:102E0000590480917E0590E0820F911D95958795DC
:102E100080937E0520915A0480917F0590E0820F77
:102E2000911D9595879580937F0520915B048091F6
:102E3000800590E0820F911D959587958093800580
:102E4000109258041092590410925A0410925B0484
:102E500088E592E0909302018093010190918105B1
:102E600090FF04C081E020917D05211180E091FF59
:102E700005C020917E05211101C0826092FF05C02E
:102E800020917F05211101C0846093FF05C09091BE
:102E90008005911101C08860909100018923809381
:102EA000570480915604833051F4629B08C081E03E
:102EB00080935604809172058E7F809372050F90E7
:102EC0000F900F900F90DF91CF91FF91EF91BF91F5
:102ED000AF919F918F917F916F915F914F913F91B2
:102EE0002F911F910F900FBE0F901F901895EF928A
:102EF000FF921F93CF93DF93182FEB01111142C064
:102F000080E890E00E9441228091680590916905D7
:102F1000A0916A05B0916B05B7FFF2CFE12EF12CBD
:102F200085E2189FF0011124E858F94F88819981B2
:102F3000948383838A819B81968385838C819D8101
:102F4000908787838E819F8192878187812F0E94BE
:102F5000FB0D9701F901E55CFB4F88858083F90142
:102F6000E75CFB4F89858083220F331FF901EB5CFF
:102F7000FB4F8A859B8591838083111115C080E763
:102F800090E016C0113009F0B9CF80E098E00E94BF
:102F9000412280916C0590916D05A0916E05B091D4
:102FA0006F05B7FFF2CFBACF113049F480E097E058
:102FB000DF91CF911F91FF90EF900C944122DF9110
:102FC000CF911F91FF90EF900895CF92DF92EF92F3
:102FD000FF920F931F93CF93DF93EC018A0170E070
:102FE0006150710950E090E0292F30E02617370733
:102FF0000CF57E01E20EF31EF7018081D9011196D6
:103000006E01CA0EDB1EF6014081481788F4F701F5
:103010004083F60180830115110549F0F801E20FA4
:10302000F31F8081A00FB11F2C9120838C9351E05E
:103030009F5FDACF5111D6CFDF91CF911F910F91C2
:10304000FF90EF90DF90CF900895E091FF06F09110
:10305000000790812EEB290F253008F047C0209102
:103060000107223E61F1233EB1F0213ED9F59434AF
:1030700061F018F4933439F004C0953441F096347B
:1030800041F085B12FC088B12DC08BB12BC08EB15E
:1030900029C081B327C0943461F018F4933439F017
:1030A00004C0953441F0963441F083B11BC086B121
:1030B00019C089B117C08CB115C08FB113C0943439
:1030C00061F018F4933439F004C0953441F096342B
:1030D00041F084B107C087B105C08AB103C08DB18A
:1030E00001C080B30E94C60880E008958CEF089567
:1030F0001F93CF93DF93CDB7DEB761970FB6F894E8
:10310000DEBF0FBECDBF10910107BE016F5E7F4FC6
:103110008091FF06909100070E94E8078093820546
:1031200087FD1BC029892830B8F4173A19F480E0CC
:1031300092E002C080E091E0BE016F5F7F4F30E11E
:10314000239F800D911D11240E94202ECE010196F7
:103150000E94FD0880E001C08CEF61960FB6F894E4
:10316000DEBF0FBECDBFDF91CF911F9108950F93AA
:103170001F93CF93DF93EB01082F10E095E2899F17
:10318000F0011124E858F94F2381348139832883D1
:10319000258136813B832A83278130853D832C839B
:1031A000218532853F832E830E94880F888789E09E
:1031B000809FF001819FF00D1124EA59F94F86811B
:1031C0008987878190859B878A87DF91CF911F911F
:1031D0000F9108951F920F920FB60F921124109223
:1031E000EA061092EB061092EC061092ED06EE98AD
:1031F000789480E00E94AF1180E00E94FF1280E08E
:103200000E941C1360E070E08AEF94E40E94D409ED
:1032100080ED97E09093E9068093E80683E794E0D9
:103220009F938F930E9430060F900F90C12CD12C4A
:103230007601CEE6D4E0FF92EF92DF92CF92DF9359
:10324000CF930E9430066091BA058FEF860F0F90E2
:103250000F900F900F900F900F908E3F48F48FEFCC
:1032600093E00E9409338091BA058F5F8093BA057D
:103270008AE0C80ED11CE11CF11C8091EA069091F5
:10328000EB06A091EC06B091ED068C159D05AE0500
:10329000BF0598F3D0CFCF93C82F8091720581FDE1
:1032A00037C04091B0065091B1066091B20670915E
:1032B000B3068C2F0C2E000C990BAA0BBB0B840FA2
:1032C000951FA61FB71F8093B0069093B106A093D9
:1032D000B206B093B306C7FF05C0C1950E94A51101
:1032E000826003C00E94A5118D7F0E949611CC239D
:1032F00069F0F89482E00E947D1178948FE99FE054
:103300000197F1F700C00000C150F1CF80E001C08B
:103310008EEFCF910895CF93C82F8091720580FDD5
:1033200037C040918B0650918C0660918D0670914C
:103330008E068C2F0C2E000C990BAA0BBB0B840F46
:10334000951FA61FB71F80938B0690938C06A093A2
:103350008D06B0938E06C7FF05C0C1950E94A511CA
:10336000816003C00E94A5118E7F0E949611CC231C
:1033700069F0F89481E00E947D1178948FE99FE0D4
:103380000197F1F700C00000C150F1CF80E001C00B
:103390008EEFCF910895CF93DF93EC0180E090E220
:1033A0000E944122D695C795D695C7958091330442
:1033B000909134049695879596958795C81BD90B5F
:1033C000C138D1053CF080E091E09C012C1B3D0B05
:1033D000E90105C0C0383FEFD3070CF4D3958C2F1B
:1033E0000C2E000C990B9F938F938EE594E09F9386
:1033F0008F930E9430060F900F900F900F908C2F9C
:10340000DF91CF910C944B19CF93DF93CDB7DEB7FB
:1034100060970FB6F894DEBF0FBECDBF8F3F19F493
:103420008093030114C08830A0F48093030120E14D
:103430008202C0011124BE016F5F7F4F9E5F0E9418
:10344000202EBE016F5F7F4F81E00E94771780E0E2
:1034500001C08CEF60960FB6F894DEBF0FBECDBFF3
:10346000DF91CF910895CF93DF93CDB7DEB760970B
:103470000FB6F894DEBF0FBECDBF8F3F19F4809317
:10348000040114C08830A0F48093040120E182027A
:10349000C0011124BE016F5F7F4F93950E94202EC3
:1034A000BE016F5F7F4F80E00E94771780E001C010
:1034B0008CEF60960FB6F894DEBF0FBECDBFDF91E4
:1034C000CF910895CF92DF92EF92FF920F931F93C7
:1034D000CF93DF93CDB7DEB7A0970FB6F894DEBFDA
:1034E0000FBECDBF8091EF068823D9F08530A1F0C3
:1034F00038F4833071F0843009F0C3C685E00CC025
:10350000873069F040F0883009F0BBC61092EF06B2
:10351000B8C684E001C087E08093EF06B2C688E0B9
:10352000FBCF8091070118160CF029C2833009F4F3
:10353000E7C034F4813059F0823009F44AC01FC228
:10354000843009F49AC0853009F4D4C118C280913E
:103550008B0690918C0620918D0630918E0680937B
:10356000B6059093B7052093B8053093B9051F921F
:103570001F921F921F923F932F939F938F9380913F
:10358000B50581701F928F931F921F9289E494E07A
:103590009F938F930E94300680E00E94331A0E940E
:1035A000C41181600E94AF118091F4068160809304
:1035B000F40640E859EA63E070E080E00E94610DA3
:1035C00082E0809307010FB6F894DEBF0FBECDBF37
:1035D000D6C18091720580FDD2C180918B069091F9
:1035E0008C06A0918D06B0918E064091B605509143
:1035F000B7056091B8057091B9058C019D01041B58
:10360000150B260B370BB901A8017F936F935F93BE
:103610000F93BF93AF939F938F938091B505817064
:103620001F928F931F9281E08F9389E494E09F9380
:103630008F930E9430068091B5050FB6F894DEBFD7
:103640000FBECDBF80FF54C080918B0690918C0639
:10365000A0918D06B0918E068093B6059093B70524
:10366000A093B805B093B90540E058EF6FEF7FEF36
:1036700080E00E94610D83E0A9C08091720580FD09
:103680007EC180918B0690918C06A0918D06B091A1
:103690008E064091B6055091B7056091B8057091BE
:1036A000B9058C019D01041B150B260B370BB901C5
:1036B000A8017F936F935F930F93BF93AF939F93F3
:1036C0008F938091B50581701F928F931F9283E035
:1036D0008F9389E494E09F938F930E9430068091AA
:1036E000B5050FB6F894DEBF0FBECDBF80FD96C006
:1036F00085E394E09F938F930E9430068EEF8BC0FA
:103700008091720580FD3BC180918B0690918C0663
:10371000A0918D06B0918E064091B6055091B705E7
:103720006091B8057091B9058C019D01041B150BC2
:10373000260B370BB901A8017F936F935F930F930B
:10374000BF93AF939F938F938091B50581701F9224
:103750008F931F9282E08F9389E494E09F938F93DD
:103760000E9430068091B5050FB6F894DEBF0FBEFB
:10377000CDBF80FD49C080918B0690918C06A091B1
:103780008D06B0918E068093B6059093B705A093F1
:10379000B805B093B90581E00E94331A80918B0679
:1037A00090918C06A0918D06B0918E068093B605FF
:1037B0009093B705A093B805B093B90540E058E1E0
:1037C00060E070E080E00E94610D84E0809307017A
:1037D000D6C09F938F9389EF93E09F938F930E941E
:1037E0001B328091510690915206AC015A95052EDC
:1037F000000C660B770B0F900F900F900F90C41674
:10380000D506E606F706F0F581E294E09F938F93E4
:103810000E9430068DEF80930701AFC0C0908B06E9
:10382000D0908C06E0908D06F0908E068091B605C3
:103830009091B705A091B805B091B905C81AD90AF9
:10384000EA0AFB0A80915106909152061816190651
:103850000CF4BFCFFF92EF92DF92CF928BE094E017
:103860009F938F930E941B32D0925206C0925106B2
:1038700082E0809307010F900F900F900F900F90B0
:103880000F907DC0AC015395052E000C660B770B95
:103890004C155D056E057F0508F4B6CF092E000CAA
:1038A000AA0BBB0BC80ED91EEA1EFB1EF694E794AA
:1038B000D794C794D0925206C092510680E00E94DD
:1038C000331A80918B0690918C06A0918D06B09151
:1038D0008E068093B6059093B705A093B805B09374
:1038E000B90540E05CEF6FEF7FEF80E00E94610D73
:1038F00085E06CCF8091720580FD41C080918B0680
:1039000090918C06A0918D06B0918E064091B605DF
:103910005091B7056091B8057091B9058C019D0172
:10392000041B150B260B370BB901A8017F936F936E
:103930005F930F93BF93AF939F938F938091B50540
:1039400081701F928F931F9284E08F9389E494E09B
:103950009F938F930E9430068091B5050FB6F8941F
:10396000DEBF0FBECDBF80FD4FCF88EE93E09F93AB
:103970008F930E943006109207010F900F90E091F4
:1039800006011E160CF07CC38E2FEE0F990BAA0BAE
:10399000BB0BFC013197E730F10508F071C3EA5A1F
:1039A000FF4F0C9471338091B0069091B106209135
:1039B000B2063091B3068093B1059093B20520937F
:1039C000B3053093B4051F921F921F921F923F932D
:1039D0002F939F938F938091B50582701F928F9341
:1039E0001F921F9283ED93E09F938F930E94300666
:1039F00081E00E94041A81E00E94880F9BEA899F5F
:103A0000812D1124869580933C0480E091E00E94F2
:103A100041220E94C41182600E94AF118091F4067D
:103A20008D7F8093F40640E058EF6FEF7FEF81E0E9
:103A30000E94610D82E042C08091720581FD20C329
:103A40008091B0069091B106A091B206B091B306F4
:103A50004091B1055091B2056091B3057091B405E4
:103A60008C019D01041B150B260B370BB901A80116
:103A70007F936F935F930F93BF93AF939F938F93B6
:103A80008091B50582701F928F931F9281E08F9372
:103A900083ED93E09F938F930E94300680E00E9415
:103AA000041A8091F40682608093F40640E058E0A6
:103AB00060E070E081E00E94610D83E08093060188
:103AC0000FB6F894DEBF0FBECDBFDAC2809172058B
:103AD00081FDD6C28091B0069091B106A091B20648
:103AE000B091B3064091B1055091B2056091B30514
:103AF0007091B4058C019D01041B150B260B370B2F
:103B0000B901A8017F936F935F930F93BF93AF9316
:103B10009F938F938091B50582701F928F931F9210
:103B200082E08F9383ED93E09F938F930E94300602
:103B30008091B5050FB6F894DEBF0FBECDBF81FFF3
:103B400008C08FEB93E09F938F930E9430068DEF18
:103B50009FC040E05EEC6FEF7FEF81E00E94610D5F
:103B600084E046C28091720581FD8AC28091B006D0
:103B70009091B106A091B206B091B3064091B10503
:103B80005091B2056091B3057091B4058C019D010F
:103B9000041B150B260B370BB901A8017F936F93FC
:103BA0005F930F93BF93AF939F938F938091B505CE
:103BB00082701F928F931F9283E08F9383ED93E027
:103BC0009F938F930E9430068091B5050FB6F894AD
:103BD000DEBF0FBECDBF81FF54C08091B006909173
:103BE000B106A091B206B091B3068093B10590934F
:103BF000B205A093B305B093B40540E058E060E08F
:103C000070E081E00E94610D85E0F2C18091720553
:103C100081FD36C28091B0069091B106A091B206A6
:103C2000B091B3064091B1055091B2056091B305D2
:103C30007091B4058C019D01041B150B260B370BED
:103C4000B901A8017F936F935F930F93BF93AF93D5
:103C50009F938F938091B50582701F928F931F92CF
:103C600085E08F9383ED93E09F938F930E943006BE
:103C70008091B5050FB6F894DEBF0FBECDBF81FDB4
:103C800061C08BEA93E09F938F930E9430068EEF82
:103C900080930601F3C18091720581FDF1C180918D
:103CA000B0069091B106A091B206B091B3064091D2
:103CB000B1055091B2056091B3057091B4058C01C6
:103CC0009D01041B150B260B370BB901A8017F932F
:103CD0006F935F930F93BF93AF939F938F93809155
:103CE000B50582701F928F931F9284E08F9383EDAE
:103CF00093E09F938F930E9430068091B5050FB695
:103D0000F894DEBF0FBECDBF81FD1BCF8091B00602
:103D10009091B106A091B206B091B3068093B1051F
:103D20009093B205A093B305B093B40581E00E94CF
:103D3000041A40E058EE6FEF7FEF81E00E94610DC2
:103D400086E056C1C090B105D090B205E090B305B1
:103D5000F090B4058091B0069091B106A091B206A2
:103D6000B091B306C81AD90AEA0AFB0A80914F0635
:103D70009091500618161906C4F0FF92EF92DF9248
:103D8000CF9285E993E09F938F930E941B32D0924C
:103D90005006C0924F0684E0809307010F900F9069
:103DA0000F900F900F900F900CC09F938F9383E80C
:103DB00093E09F938F930E941B320F900F900F9070
:103DC0000F9080914F0690915006AC01405A5109D6
:103DD000052E000C660B770BC416D506E606F70613
:103DE00008F4AFCEAC0140565F4F052E000C660BB9
:103DF000770B4C155D056E057F0508F4A2CE092EE4
:103E0000000CAA0BBB0BC80ED91EEA1EFB1EF694B3
:103E1000E794D794C794D0925006C0924F06F09082
:103E2000B005FF2009F4A9C084E080930601FA944C
:103E3000F092B0050F2D10E080E090E20E94412248
:103E40008091330490913404969587959695879543
:103E5000F801E056FA4F808399279F938F931F9222
:103E6000FF928EE693E09F938F930E9430060F900F
:103E70000F900F900F900F900F908091B0058111CF
:103E8000FFC040E050E060E180EA95E00E94E51765
:103E9000E091A005F0E001EA15E030E021E05FE00C
:103EA000F52EF00ED8014D918D01622F70E0CF01FB
:103EB0000E942733461718F4562F541B02C0542F64
:103EC000561B842F90E0523020F42F5FE80FF91F2B
:103ED00013C0432F50E0E1E1F0E0EC0FFD1FE40FD1
:103EE000F51F2083E1E0F0E0EC0FFD1FE40FF51F6C
:103EF0006083FC013F5F21E0F012D4CF832F90E07C
:103F0000A1E1B0E0AC0FBD1FA80FB91F2C93EE24A8
:103F1000E394F12CEC0EFD1EE80EF91E622F70E00A
:103F2000CF010E942733F7016083FF24F394F30E3F
:103F3000AE014F5F5F4F6F2DCE0141960E94E51796
:103F4000FE01EF0DF11D808190E0909309018093B7
:103F5000080180914B0690914C06A0914D06B091BE
:103F60004E06946080934B0690934C06A0934D06AA
:103F7000B0934E060E94511283C080910801909127
:103F800009011816190634F4880F991F880F991F14
:103F90000E94CB1981E00E94880F869580933C0493
:103FA00080E091E00E94412280EC0E944B1980EC5D
:103FB0000E944B1980EC0E944B1980E00E94041A69
:103FC0008091B0069091B106A091B206B091B3066F
:103FD0008093B1059093B205A093B305B093B40557
:103FE00040E051E060E070E081E00E94610D87E018
:103FF0008093060145C08091720581FD41C080918A
:10400000B0069091B106A091B206B091B30640916E
:10401000B1055091B2056091B3057091B4058C0162
:104020009D01041B150B260B370BB901A8017F93CB
:104030006F935F930F93BF93AF939F938F938091F1
:10404000B50582701F928F931F9286E08F9383ED48
:1040500093E09F938F930E9430068091B5050FB631
:10406000F894DEBF0FBECDBF81FD6BCD8DE593E033
:104070009F938F930E943006109206010F900F902D
:104080008091050118160CF091C08330F1F12CF4E9
:10409000813051F0823069F189C0843009F452C016
:1040A000853009F47AC082C08091B0069091B10643
:1040B000A091B206B091B30680939C0590939D05A4
:1040C000A0939E05B0939F0585E00E94041A8091FD
:1040D000F4068D7F8093F40640919A0550919B05DC
:1040E000052E000C660B770B81E00E94E70D82E045
:1040F0005BC08091720581FD59C083E0809305010A
:10410000809198059091990543C080917305909195
:104110007405892B09F04AC084E0809305010E9450
:10412000041A8091F40682608093F406409196050B
:1041300050919705052E000C660B770B81E00E94CD
:10414000E70D34C08091720581FD30C080919605E5
:1041500090919705092E000CAA0BBB0B4091B0065D
:104160005091B1066091B2067091B3064817590795
:104170006A077B0731F41092050180E00E94041A5F
:1041800015C085E080930501809194059091950577
:10419000909374058093730509C080917305909185
:1041A0007405892B19F483E080930501F894F0904D
:1041B0003F0410923F047894FF2009F462C0F0FE9F
:1041C00010C0809148049091490469E173E096958C
:1041D0008795969587950E94BB2D90938D0580932A
:1041E0008C05F1FE0AC080914A0490914B040E9414
:1041F0002B1290938F0580938E05F2FE0AC080915A
:104200004C0490914D040E942B1290939105809341
:104210009005F3FE0AC080914E0490914F040E94D5
:104220002B129093930580939205F4FE0AC080911F
:104230004004909141040E9433129093850580932D
:104240008405F5FE0AC080914204909143040E94C7
:1042500033129093870580938605F6FE0AC08091FD
:104260004404909145040E943312909389058093F1
:104270008805F7FE06C080EC9DE590938B05809342
:104280008A05A0960FB6F894DEBF0FBECDBFDF91B2
:10429000CF911F910F91FF90EF90DF90CF900895F5
:1042A000CF93C82F8E3038F425E0829FC0011124AF
:1042B0008D529D4F02C08FEB92E09F938F931F9280
:1042C000CF9384EC92E09F938F930E943006C0932B
:1042D00083050F900F900F900F900F900F90C130AB
:1042E000C1F40FB6F894A89580916000886180931E
:1042F0006000109260000FBEF89481E00E94050AF1
:104300000E9463098FE09EE00197F1F700C0000072
:10431000F7CFC93038F48FEF809302078C2FCF91FD
:104320000C94050ACF9108958F929F92AF92BF92FD
:10433000CF92DF92EF92FF92CF93DF934B015C011C
:1043400069017A019B01AC01C701B6010E94FE33ED
:104350008823A1F1A5019401C701B6010E94563539
:10436000C0E0D0E01816A4F4A7019601C501B4017D
:104370000E94FE3387FF20C02FEE32E140E85FE36A
:10438000C501B4010E945B354B015C012196ECCF65
:10439000A5019401C701B6010E94FE3387FF0CC03E
:1043A0002FEE32E140E85FE3C701B6010E945B35C2
:1043B0006B017C012197ECCFCE0102C080E090E040
:1043C000DF91CF91FF90EF90DF90CF90BF90AF90B3
:1043D0009F908F900895BF92CF92DF92EF92FF92BD
:1043E0000F931F93CF93DF9300D000D0CDB7DEB7EC
:1043F000B82E11E001C0110F8A95EAF7F89400E198
:10440000C12CD12C7601812F0E947D118BE99FE078
:104410000197F1F700C00000812F0E947D111982E1
:104420001A821B821C82AE014F5F5F4F62E18B2DAF
:104430000E94810E49815A816B817C816F70772740
:10444000C40ED51EE61EF71E8BE99FE00197F1F71B
:1044500000C000000150B9F67894C60124E096959A
:1044600087952A95E1F70F900F900F900F90DF91AD
:10447000CF911F910F91FF90EF90DF90CF90BF9061
:104480000895F8942091C9053091CA05282B392B3D
:104490003093CA052093C90578942091C9053091BD
:1044A000CA0528233923232BC1F70895F8942091B6
:1044B000C9053091CA05822B932B9093CA0580932E
:1044C000C90578940895CF93DF93CDB7DEB7A19750
:1044D0000FB6F894DEBF0FBECDBF84B78093FA0647
:1044E00014BE8091FA0683FF11C08091000990915B
:1044F0000109853A9A4551F48091FA06877F8093A5
:10450000FA068091FA0680688093FA068AE595EAB1
:1045100090930109809300099FB7F894A89584B7F8
:10452000877F84BF18E110936000109260009FBFE6
:104530008FE00FB6F894A895109360000FBE80939B
:1045400060001092D7001092D80095E19093C500BA
:104550008093C60080E88093610010926100789497
:1045600081E00E9436138091C80082608093C80069
:1045700080E18093CC001093C9008091C9008068CD
:104580008093C9008CE78093CB051092CC051092E4
:10459000CD058BEB95E027E035E03093C405209303
:1045A000C3052EEE34E03093C6052093C50523E005
:1045B0002093BE051092C8051092C7055A9A909391
:1045C0003607809335079093380780933707909389
:1045D000070780930607909304078093030790933F
:1045E000FC068093FB0682EB94E09F938F930E94DE
:1045F0001B328091FA061F928F9384EA94E09F9376
:104600008F930E94300680917100817F80937100AA
:10461000109290008AE0809391001092990010927D
:10462000980010929B0010929A0010929D00109298
:104630009C0010929500109294003E9A469883E553
:1046400096E00E94F012BE016F5E7F4F80E090E026
:104650000E94202E40E150E063E576E0CE014196D5
:104660000E94C8350F900F900F900F900F900F90F1
:10467000892B39F500E011E0BE016F5F7F4FC80163
:104680000E94202E89819A8181329E44D0F48B81B0
:104690009C8181329E44A8F48D819E810C978D343B
:1046A000924078F48F8198850C978D34924048F42D
:1046B0008985803430F48B859C858938934108F452
:1046C00015C38FEF9FEF90930B0180930A01909396
:1046D0000901809308018FEF9FEFDC0180934B0667
:1046E00090934C06A0934D06B0934E060E94511233
:1046F000EEE3FFE6459155916591749180E090E07D
:10470000DC01E0E0F0E02FE6EE33F20751F09F012C
:104710002F5F3F4FE4918E0F911DA11DB11DF90137
:10472000F2CF481759076A077B07D1F480E090E081
:10473000DC01E0E0F0E79F012F5F3F4FE4918E0F37
:10474000911DA11DB11DF901E03F3FE7F30799F766
:1047500086369D49A740B10509F4F0C282E001C048
:1047600081E00E94502184B1817F84B984B1876047
:1047700084B985B1817F85B9289A80E58CBD1DBC3F
:104780008AB182618AB98BB182618BB98FE39CE96E
:104790000197F1F700C00000249A2C9A2C982C9ACB
:1047A00060E080E00E949F2D60EE81E00E949F2DDE
:1047B0006AE082E10E949F2D60EE83E10E949F2DBE
:1047C00080E00E948D2D8111ECC281E00E948D2D30
:1047D000803E09F0E6C21092640610926306809152
:1047E0007A00876080937A0080917C008064809357
:1047F0007C0080917A00806880937A0013E01093A7
:104800007E000E946010279A209A559A509A2F9AFB
:10481000289A5D9A589A81E0809365068093EE0607
:1048200084E18093F6068093F7068093F8068093E0
:10483000F9068093F506259A269A2D982E98569873
:104840005798519A549A599A5C9A80E00E94EA0FBC
:10485000082F001F0027001F81E00E94EA0F87FD3C
:1048600002C0002321F087E00E945021D0C0809137
:10487000660690916706A0916806B0916906B07FC0
:104880009C01AD0154602093660630936706409307
:104890006806509369066CEE80E00E94EB0E8091F2
:1048A0006F0690917006A0917106B0917206B07F6C
:1048B0009C01AD01526020936F06309370064093C7
:1048C0007106509372066CEE81E00E94EB0E68E177
:1048D00080E00E94310F66E080E00E94200F68E1D6
:1048E00081E00E94310F68E081E00E94200F9FEF7D
:1048F000A0E7B2E09150A040B040E1F700C0000056
:1049000005E2E8E7F6E0DF01202F1D922A95E9F79E
:1049100088E58093780680E293E090937A0680930E
:10492000790680E8E82E8CE0F82EF0927C06E09282
:104930007B0680EC94E490937E0680937D068AEF5C
:1049400090E09093800680937F06909382068093F8
:10495000810680E00E94FB0DEDE9F6E0DF011D928B
:104960000A95E9F789E580939D06F0929F06E0920B
:104970009E0680EC93E09093A1068093A00680E0D1
:1049800095E09093A3068093A2068CE090E090932C
:10499000A5068093A4069093A7068093A60681E0BF
:1049A0000E94FB0D809181008F7E80938100809119
:1049B0008100886080938100809180008D7F80934A
:1049C0008000809180008E7F8093800080918000A5
:1049D0008F7380938000809180008F7C8093800013
:1049E00080918100887F82608093810080E092E0E6
:1049F0009093890080938800109285001092840023
:104A000080916F00826080936F001093F40680B3F2
:104A10008F7080BB81B3806F81BB80910D01877ED9
:104A200080930D0188E090E00E9456221092E706E4
:104A300060E070E08CED93E40E94D40982E390E0A2
:104A40009093E9068093E8061092EA061092EB062E
:104A50001092EC061092ED0614BC83E085BD86E052
:104A600086BD80916E00816080936E0084B5836006
:104A700084BD8DE787BD80916E00826080936E005B
:104A800080916A008F7C80936A0080916A008062C6
:104A900080936A008091020781110DC00E94D3119A
:104AA000882321F088E00E94502105C081E00E9407
:104AB000D3118111F7CF8091020781110DC00E949F
:104AC000EB219093F1068093F00681E00E94EB21A8
:104AD0009093F3068093F2060091F0061091F10690
:104AE000B801012E000C880B990B0E94A63420E01F
:104AF00030E84BE354E40E949421D82EC92E6091F3
:104B0000F2067091F306072E000C880B990B0E9499
:104B1000A63420E030E84BE355E40E949421F82EBF
:104B2000E92ECF92DF921F930F932FE834E03F934B
:104B30002F930E943006EF92FF928091F3068F939D
:104B40008091F2068F938AE794E09F938F930E945F
:104B50003006809102070FB6F894DEBF0FBECDBFBE
:104B600081110AC082E08093EE0698E090930E01D6
:104B7000809302071092EF0600E717E0A895809156
:104B8000FD069091FE06892B39F48DB79EB7909360
:104B9000FE068093FD061BC02091FD063091FE06A7
:104BA0008DB79EB72817390791F0F89498E088E1FF
:104BB0000FB6F894A895809360000FBE90936000A4
:104BC00085EA9AE59093010980930009FFCF8091CF
:104BD0003207909133078A97CCF08FEF22C08D3047
:104BE000F1F08A30E1F02091320730913307F9017A
:104BF000E85FF84F80838823A1F02F5F3F4F309309
:104C00003307209332072A3231055CF4809106077E
:104C1000909107070E94A53187FFE1CF02C080E095
:104C2000E2CF20913207309133072A3231052CF040
:104C30003F932F931F930F934CC0121613060CF043
:104C400052C0811150C080910507882381F0609186
:104C500003077091040788E097E00E94E4356091B3
:104C60000307709104078AE090E00E94E3313091DD
:104C70000807313219F03F3309F0ECC0E091090721
:104C8000E11193C080E00E2E000CFF0BE75FF84FA0
:104C900090819111BBC0909102079F3F09F4AAC077
:104CA00080930107313209F0ABC04DE06BE076E054
:104CB0000E94F205482F552741950CF450959A0112
:104CC000882309F4C4C087E697E03F932F939F930E
:104CD0008F930E94CF0610923307109232070F90E5
:104CE0000F900F900F900E94621A48CF005F1F4FE5
:104CF000003851E0150709F0BFCC80E093E00E9436
:104D0000EB3290930B0180930A0180E193E00E94C3
:104D1000EB32909309018093080182E093E00E94B6
:104D2000EB32909352068093510682E193E00E9409
:104D3000EB329093500680934F06DACCCE01019669
:104D40000E94F012FE01319680E18E0F91919F3FFB
:104D500021F48E13FBCF83E004CD89E0E0E0F0E0A6
:104D600080935700E491EE3509F076C0E3E0F0E07F
:104D700080935700E491E83D09F06EC0E2E0F0E076
:104D800080935700E491E83C09F066C0E1E0F0E070
:104D90008093570084918F738F3209F4E4CC85E0BF
:104DA000E0CC86E00E94502116CD80910C078F7DCB
:104DB00079F42CE043E06BED75E089E097E039A3EE
:104DC0000E940A0639A18F3F09F444C0E3E05BCF9B
:104DD00080910D078F7DF1F52AE344E069EB74E0E3
:104DE00089E097E039A30E940A0639A18F3F91F12B
:104DF000E4E049CF823008F453CF813431F550CF0D
:104E00003F3341F542E362E376E052CF903211F551
:104E10003196909102079F3FC1F0803E20F0909123
:104E20000207943091F480930107F0930007E09318
:104E3000FF06313221F440E368EC76E039CF3F33AE
:104E400049F445E068E577E033CF8BEF33CF8CE66C
:104E500097E03BCF8DEF2ECF84E083CC1F93CF9391
:104E6000DF931F92CDB7DEB7E091FF06F091000708
:104E700010812EEB210F253008F057C0CF0101968D
:104E8000909300078093FF06BE016F5F7F4F0E94E3
:104E9000E8078093820587FD4BC080910107823E21
:104EA00079F1833EC1F0813E09F041C0898114341B
:104EB00061F018F4133439F004C0153441F016349D
:104EC00041F085B934C088B932C08BB930C08EB9D1
:104ED0002EC081BB2CC08981143461F018F41334C6
:104EE00039F004C0153441F0163441F083B91FC0C5
:104EF00086B91DC089B91BC08CB919C08FB917C03C
:104F00008981143461F018F4133439F004C0153475
:104F100041F0163441F084B90AC087B908C08AB993
:104F200006C08DB904C080BB02C08CEF01C080E018
:104F30000F90DF91CF911F910895CF93DF931F9230
:104F4000CDB7DEB7BE016F5F7F4F8091FF069091B6
:104F500000070E94E8078093820587FD10C08981C1
:104F6000823060F4882329F0EE9A81E08093BA05BC
:104F700003C0EE981092BA0580E001C08CEF0F904C
:104F8000DF91CF910895CF93DF9300D000D0CDB7BC
:104F9000DEB7BE016C5F7F4F8091FF0690910007E6
:104FA0000E94E8078093820587FD60C09C8199324A
:104FB00010F08CEF5BC02091FF0630910007A90133
:104FC000480F511D87FD5A95CA0150930007409321
:104FD000FF06BE016D5F7F4F0E94E8078093820548
:104FE00087FD44C09B81953120F72091FF063091C9
:104FF0000007A901480F511D87FD5A95CA0150931A
:1050000000074093FF06BE016E5F7F4F0E94E807D6
:105010008093820587FD2AC09A81953150F62091B0
:10502000FF0630910007A901480F511D87FD5A95D1
:10503000CA01509300074093FF06BE016F5F7F4F88
:105040000E94E8078093820587FD10C08981853121
:1050500008F0AFCF9C819093F6069B819093F70662
:105060009A819093F8068093F90680E00F900F9054
:105070000F900F90DF91CF910895CF93DF93CDB72D
:10508000DEB728970FB6F894DEBF0FBECDBFBE01C6
:10509000695F7F4F8091FF06909100070E94A207F1
:1050A0008093820587FD67C02091FF06309100073D
:1050B000A901480F511D87FD5A95CA015093000759
:1050C0004093FF06BE016B5F7F4F0E94C507809330
:1050D000820587FD50C02091FF0630910007A9018D
:1050E000480F511D87FD5A95CA0150930007409300
:1050F000FF06BE016D5F7F4F0E94A207809382056D
:1051000087FD39C02091FF0630910007A901480FA3
:10511000511D87FD5A95CA01509300074093FF0621
:10512000BE016F5F7F4F0E94C5078093820587FD98
:1051300022C08F81988590939B0580939A058D81DD
:105140009E8190939905809398058B819C81909383
:1051500097058093960589819A8190939505809310
:1051600094058091720580FD05C081E08093050162
:1051700080E001C08EEF28960FB6F894DEBF0FBE18
:10518000CDBFDF91CF910895CF93DF9300D0CDB7FE
:10519000DEB7BE016F5F7F4F8091FF0690910007E1
:1051A0000E94A2078093820587FD22C089819A818F
:1051B0009C012F5F3F4F21303140C8F4909309018B
:1051C0008093080180914B0690914C06A0914D066A
:1051D000B0914E06946080934B0690934C06A0933A
:1051E0004D06B0934E060E94511280E001C08CEF34
:1051F0000F900F90DF91CF910895CF93DF9300D060
:10520000CDB7DEB7BE016F5F7F4F8091FF069091F3
:1052100000070E94A2078093820587FD22C0898132
:105220009A819C012F5F3F4F21343105C8F4909340
:105230000B0180930A0180914B0690914C06A0913E
:105240004D06B0914E06926080934B0690934C06AB
:10525000A0934D06B0934E060E94511280E001C00B
:105260008CEF0F900F90DF91CF910895DF92EF9226
:10527000FF920F931F93CF93DF93CDB7DEB7629763
:105280000FB6F894DEBF0FBECDBFD0900107E090FF
:10529000FF06F0900007BE016F5F7F4FC7010E94BD
:1052A000C50787FD9DC08701080F111D87FD1A9551
:1052B000F8019081992341F0BE016D5F7F4FC801D5
:1052C0000E94C50787FD8CC0080F111D87FD1A9528
:1052D000F8019081992341F0BE016B5F7F4FC801B7
:1052E0000E94C50787FD7CC0080F111D87FD1A9518
:1052F000F8019081992341F0BE01695F7F4FC80199
:105300000E94C50787FD6CC0080F111D87FD1A9507
:10531000F8019081992341F0BE01675F7F4FC8017A
:105320000E94E80787FD5CC0080F111D87FD1A95D4
:10533000F80190819923E1F0CE0141969F938F93DC
:1053400007979F938F938FE997E09F938F931F9376
:105350000F930E9441320FB6F894DEBF0FBECDBF4F
:10536000019721F4898987FF03C03AC08DEF38C0C7
:10537000080F111D87FD1A95F8018081811105C064
:10538000802F8E1987FF0AC02BC0BE01655F7F4F3B
:10539000C8010E94C50787FFF3CF22C011E0F7EADA
:1053A000DF1210E0BE016F5F7F4F812F0E947717E1
:1053B00080914B0690914C06A0914D06B0914E06FF
:1053C000111102C0806201C0806480934B069093EB
:1053D0004C06A0934D06B0934E060E94511280E0F9
:1053E00062960FB6F894DEBF0FBECDBFDF91CF91AE
:1053F0001F910F91FF90EF90DF900895CF93DF936F
:1054000000D01F92CDB7DEB7BE016D5F7F4F809198
:10541000FF06909100070E94E8078093820587FDB0
:105420002FC02091FF0630910007A901480F511DA0
:1054300087FD5A95CA01509300074093FF061A82D0
:105440001982FA01208121110DC089819A819093DE
:105450007805809377059B8180916506992361F09B
:1054600082600BC0BE016F5F7F4F0E94C5078093B3
:10547000820587FFEACF04C08D7F0E941C1380E065
:105480000F900F900F90DF91CF9108950F931F937E
:10549000CF93DF9300D000D0CDB7DEB7BE016D5FF4
:1054A0007F4F8091FF06909100070E94C50780936F
:1054B000820587FD31C02091FF0630910007A901C8
:1054C000480F511D87FD5A95CA015093000740931C
:1054D000FF06BE016F5F7F4F0E94C5078093820564
:1054E00087FD1AC06B817C81CB014097893793413E
:1054F00090F409811A81013187E2180760F480E095
:1055000090E00E94A4340E94D4091093E90600930D
:10551000E80680E001C08CEF0F900F900F900F9085
:10552000DF91CF911F910F910895CF93DF93CDB766
:10553000DEB72A970FB6F894DEBF0FBECDBFCE01FF
:1055400005969F938F9304979F938F9389E997E094
:105550009F938F93809100078F938091FF068F9385
:105560000E9441320FB6F894DEBF0FBECDBF019747
:1055700011F48D8101C08DEF8093820587FD4EC0AF
:1055800080910107843AE1F08F3A39F1823A09F0CB
:1055900040C049815A816B817C814F8358876987DC
:1055A0007A870E94C41181600E94AF114F81588593
:1055B00069857A8580E00E94E70D87FD2CC027C0B1
:1055C00089819A81AB81BC8180938B0690938C06F4
:1055D000A0938D06B0938E061AC049815A816B81C3
:1055E0007C81413C34ED530731E063077105ACF435
:1055F0008091560482608093560470956095509512
:1056000041955F4F6F4F7F4F80E00E94610D80E0BA
:1056100005C08AEF03C08EEF01C08CEF2A960FB64B
:10562000F894DEBF0FBECDBFDF91CF9108950F93E9
:105630001F93CF93DF9300D0CDB7DEB7BE016F5F6E
:105640007F4F8091FF06909100070E94A2078093F0
:10565000820587FD2AC080910107833A89F0853A47
:1056600009F589819A81092E000CAA0BBB0B809346
:10567000B0069093B106A093B206B093B30610C0E3
:1056800009811A810E94C41182600E94AF11A80191
:10569000110F660B770B81E00E94E70D87FD04C0B8
:1056A00080E003C08AEF01C08EEF0F900F90DF9172
:1056B000CF911F910F9108950F931F93CF93DF9375
:1056C00000D0CDB7DEB7BE016F5F7F4F8091FF0680
:1056D000909100070E94C5078093820587FD84C0D2
:1056E000809101078C3BA9F188F48E38E1F08F3866
:1056F00009F077C049815A8160E070E0709560954B
:10570000509541955F4F6F4F7F4F11C08D3B09F40E
:105710005FC08E3B09F065C089819A8190937605C0
:10572000809375050BC049815A8160E070E080E08C
:105730000E94610D87FF0BC08EEF56C080917505EA
:1057400090917605892B19F00E94621AF7CF80E0BC
:105750004BC009811A81011524E0120708F043C0EB
:1057600080E090E10E94412284E0169507958A9599
:10577000E1F7809131049091320424E09695879569
:105780002A95E1F7081B190B013211053CF080E462
:1057900090E09C01201B310B890106C0003E3FEFC9
:1057A000130714F4005C1F4F802F002E000C990B80
:1057B0009F938F9389E897E09F938F930E94300681
:1057C000802F0E948B190F900F900F900F900CC09C
:1057D00089819A81811524E0920728F40E94CB19CF
:1057E00003C08AEF01C08CEF0F900F90DF91CF9133
:1057F0001F910F910895CF93DF9300D01F92CDB7E3
:10580000DEB7CE0101969F938F9302969F938F935D
:105810008FE997E09F938F93809100078F938091FA
:10582000FF068F930E9441320FB6F894DEBF0FBE81
:10583000CDBF019711F4898101C08DEF809382055E
:1058400087FD2FC080910107883AF1F050F4893923
:1058500091F08A3929F58B8180933A0480E092E0B7
:105860000FC0823CA9F0833CB9F0893AC9F48B811E
:105870000E94041A16C08B818093390480E290E064
:105880000E94412280E00DC08B810E94331A09C022
:105890008B810E948B1905C08B810E944B1901C01E
:1058A0008AEF0F900F900F90DF91CF9108951F9383
:1058B000CF93DF931F92CDB7DEB7BE016F5F7F4FEF
:1058C0008091FF06909100070E94E807809382056F
:1058D00087FD0DC180910107853809F49BC0D8F47C
:1058E000803109F44FC040F48D30C9F18F30C9F1D7
:1058F0008C3009F0E5C02CC0813409F459C020F483
:10590000813109F44AC0DCC0823809F47CC0833894
:1059100009F470C0D5C08A3A09F48AC050F48539B8
:1059200009F454C0863909F45AC08A3809F0C8C04D
:1059300046C0813B09F483C020F48D3A09F49CC031
:10594000BFC0883B09F482C0843C09F4B3C0B8C02E
:105950008981843008F0C8C00E94AF11C3C089811A
:1059600062C08981843008F0BFC090E1899F9001B6
:105970001124909172059F70292B209372050E942B
:105980009611B0C08981843008F0AEC09091720544
:10599000907F892B80937205A5C08981843008F09F
:1059A000A3C09091F406907F892B8093F4069AC04F
:1059B0008981893008F098C00E94502193C0898164
:1059C000803108F091C00E94FF128CC08981803420
:1059D00008F08AC080933B0480E190E008C0898190
:1059E000803408F081C080933C0480E091E00E9404
:1059F000412278C01981111103C080E00E94361342
:105A000010937A056FC08981843008F06DC080934F
:105A1000EE0668C09981923008F066C080916506F4
:105A2000992321F084600E941C135CC08B7FFBCF04
:105A30008981823008F058C08093050753C089815E
:105A4000853108F051C08093F5064CC089818B3FA9
:105A500008F04AC080930F01882321F08A3F31F477
:105A6000589A01C0589884B58F7C04C08A5F88BD5D
:105A700084B5806284BD36C099819230A8F580914A
:105A80000D01992369F0846080930D0188E090E016
:105A90000E9441228091560481608093560422C066
:105AA0008B7F80930D0188E090E00E94412210924C
:105AB000560418C089818031B8F48093000112C067
:105AC000813B51F0893B29F0823481F4E4E3F7E033
:105AD00005C0EEE0F1E002C0E5EFF6E0309731F00E
