:100000000C94B7020C94D4020C94D4020C94D40235
:100010000C94D4020C94D4020C94D4020C94D40208
:100020000C94D4020C94D4020C94D4020C94D402F8
:100030000C94D4020C94D4020C94D4020C94D402E8
:100040000C94D4020C94B1110C94D4020C94D402EC
:100050000C94D4020C94D4020C94201C0C94591AC5
:100060000C94D4020C94171A0C94D4020C94E81932
:100070000C94D4020C94D4020C94D4020C94D402A8
:100080000C94D4020C94D4020C94D4020C94D40298
:100090000C94D4020C94D4020C94D4020C94D40288
:1000A0000C94D4020C94D4020C94D4026E616E00B1
:1000B000696E660000407A10F35A00A0724E18096B
:1000C0000010A5D4E80000E87648170000E40B54BF
:1000D000020000CA9A3B000000E1F505000080968E
:1000E0009800000040420F000000A08601000000C0
:1000F000102700000000E80300000000640000007A
:1001000000000A00000000000100000000002C7642
:10011000D888DC674F0823DFC1DFAE59E1B1B7965D
:10012000E5E3E453C63AE651997696E8E6C28426BA
:10013000EB898C9B62ED407C6FFCEFBC9C9F40F296
:10014000BAA56FA5F490055A2AF75C936B6CF96712
:100150006DC11BFCE0E40D47FEF520E6B500D0EDD7
:10016000902E0300943577050080841E080000203F
:100170004E0A000000C80C333333330F986E1283DD
:100180001141EF8D2114893BE65516CFFEE6DB18B1
:10019000D1844B381BF77C1D901DA4BBE424203276
:1001A00084725E228100C9F124ECA1E53D276364DD
:1001B000696E6F70737578585B00736C615F63660E
:1001C000675F6C6F61640A00736C615F6366675F91
:1001D000696E69740A00746D63323133305F696E21
:1001E0006974282920253032780A0073746172748A
:1001F0000A007769646C0066616E65006670776DF1
:10020000007070776D00766F6C740072736D6500AE
:1002100072737374007273656E0074696C7300742A
:10022000776C73006563686F00746963730074773B
:100230006373007469636600747763660074697041
:100240006F007477706F0074696D610074776D6111
:1002500000656577780065657278006565636C0098
:1002600074656D70006672706D00746973670074F8
:10027000777367007469686F007477686F007469DA
:1002800063750074776375007477646E00747775B6
:1002900070006D6F74720074656D750074656D73B8
:1002A0000066616E7300636F767300636C65640053
:1002B000756C6564007368646E00706C65640062E0
:1002C000656570006C6F670065727200656E640032
:1002D0006D6F7400646972006C656400656E610026
:1002E000736572007665720072737400256C692004
:1002F0000025303278006100534C412D636F6E74DD
:10030000726F6C2025642E25642E25642D256425AE
:10031000532000256C75256E002569256E00256C1F
:1003200069256E006525640A006F6B0A004552520C
:100330004F523A20636F6D6D616E64206F76657207
:10034000666C6F770A004552524F523A20727820FD
:10035000627566666572206F766572666C6F770A85
:1003600000257520002575200025692000256920BD
:100370000025686875256E002575256E002568685E
:1003800069256E00237469686F342D20256420254B
:100390006C6420256C640A00237469686F332D2017
:1003A000256420256C6420256C640A002374696828
:1003B0006F322D20256420256C6420256C640A0092
:1003C000237469686F312D20256420256C642025F5
:1003D0006C640A00237469686F302D202564202521
:1003E0006C640A00237477686F342D2025642025FF
:1003F0006C6420256C640A00237477686F332D20A9
:10040000256420256C6420256C640A0023747768B9
:100410006F322D20256420256C6420256C640A0031
:10042000237477686F312D20256420256C64202586
:100430006C640A00237477686F302D2025642025B2
:100440006C640A006572726F722025640A00C00332
:100450000005140014001707800C00000000E001E4
:10046000D002320032001406A00F00000000C003CA
:100470000005140014001808DC05000000006400EA
:100480009600320032001400DC0500000000640019
:1004900020030C000C00200AD007000000006400BC
:1004A00020030C000C001207D00700000000BC0263
:1004B00020030C000C003F14D00700000000C00314
:1004C0001405320032000F037E040000000098087B
:1004D000983A960096001206580200000000C409DF
:1004E0004C1D5E015E010C02780500000000800CCE
:1004F000983AFA00FA000A03980800000000640025
:100500009600320032000F00DC0500000000800C75
:10051000C044FA00FA002206F40100000000800C3A
:10052000C044FA00FA001206F40100000000400680
:100530008025C800C8003F04F40100000000400608
:100540008025C800C8000700DC0500000000736CAF
:10055000615F6366675F736176650A00736C615FF4
:100560006366675F64656661756C740A00001124D8
:100570001FBECFEFDAE0DEBFCDBF24E0AEE9B2E0D0
:1005800001C01D92AA33B207E1F712E0A0E0B1E08A
:10059000E4E2FEE502C005900D92AE39B107D9F74D
:1005A0000E94D6020C94102F0C940000CF93DF937E
:1005B000CDB7DEB7A9970FB6F894DEBF0FBECDBF9B
:1005C000F894A89584B7877F84BF98E190936000E2
:1005D0001092600078941092D7001092D80085E1B4
:1005E0008093C5008FE08093C60080E8809361000F
:1005F000109261003F9A479A8091C8008260809370
:10060000C80080E18093CC009093C9008091C9001C
:1006100080688093C9008CE38093BC021092BD0275
:100620001092BE028CE08093AC021092AD02109248
:10063000AE028EE992E02FE630E13093A7022093DC
:10064000A60226E530E13093A9022093A80223E018
:100650002093A1021092AB021092AA025A9A909390
:10066000B5038093B4039093B3038093B203909344
:100670000403809303032BEE31E03F932F939F936A
:100680008F930E94992888EC91E09F938F9380919B
:1006900004038F93809103038F930E94992881E232
:1006A000E1E0F0E080935700E491E0931A03E3E087
:1006B000F0E080935700E491E0931B03E5E0F0E065
:1006C00080935700E491E0931C03EEE0F0E0809308
:1006D0005700E491E0931D03EFE0F0E080935700B2
:1006E000E491E0931E03E1E1F0E080935700E49190
:1006F000E0931F03E2E1F0E080935700E491E09380
:100700002003E3E1F0E080935700E491E0932103BC
:10071000E5E1F0E080935700E491E0932203E6E105
:10072000F0E080935700E491E0932303E7E1F0E0E9
:1007300080935700E491E0932403E8E3F0E0809392
:100740005700E491E0932503EAE3F0E0809357003B
:10075000E491E0932603E0E0F0E080935700E49119
:10076000E0932703E2E0F0E080935700E491E09308
:100770002803E4E0F0E080935700E491E09329033C
:10078000BE016F5E7F4F80E090E00E94762340E1E3
:1007900050E06AE173E0CE0141960E94D92E0FB677
:1007A000F894DEBF0FBECDBF892B19F00E94F01E5A
:1007B0003CC08AEB91E09F938F93809104038F93C9
:1007C000809103038F930E9499280F900F900F90B0
:1007D0000F9000E011E0BE016F5F7F4FC8010E94E3
:1007E000762389819A8181329E4400F78B819C8196
:1007F00081329E44D8F68D819E810C978D34924033
:10080000A8F68F8198850C978D34924078F689856B
:10081000803460F68B859C858938934138F6005F7B
:100820001F4F003851E01507B1F684B1817F84B9BC
:1008300084B1876084B985B1817F85B9289A80E5C4
:100840008CBD1DBC8AB182618AB98BB182618BB9C2
:10085000EFEFF0E722E0E150F0402040E1F700C088
:100860000000249A2C9A2C982C9A60E080E00E9438
:10087000412360EE81E00E9441236AE082E10E9410
:10088000412360EE83E10E94412380E00E942F23F8
:100890008111A0C281E00E942F23803E09F09AC2FC
:1008A0001092FD021092FC0280917A008760809382
:1008B0007A0080917C00806480937C0080917A0033
:1008C000806880937A0083E080937E000E944A19BA
:1008D000279A209A559A2F9A289A5D9A81E08093B8
:1008E000AD0384E18093350380933603809337030F
:1008F0008093380380933903259A269A2D982E9851
:1009000056985798519A549A599A5C9A80E00E9446
:10091000D418182F111F1127111F81E00E94D4181D
:1009200087FF02C0126003C0112319F011E01068A4
:1009300001C010E0812F012E000C990B9F931F9393
:1009400086ED91E09F938F93809104038F93809124
:1009500003038F930E9499280F900F900F900F9090
:100960000F900F9017FF03C08EEF0E94391F62E2B5
:1009700080E00E94351866E080E00E94241868E15B
:1009800081E00E94351868E081E00E9424183FEF62
:1009900040E752E0315040405040E1F700C00000D5
:1009A00082E48F9380EA8F931F921F92A12CB12C27
:1009B00030EAC32E32E4D32EE12CF12C00EB11E40B
:1009C00020E030E040E850E460E273E080E00E9424
:1009D000E8168FE38F9380E88F931F921F92A12CCC
:1009E000B12C50E8C52E5FE3D52E1DECE12E1CEC9A
:1009F000F12E0CEC1EE32AE939E949E95EE360E8EF
:100A00007CE081E00E94E816809181008F7E8093D7
:100A100081008091810088608093810080918000B6
:100A20008D7F80938000809180008E7F80938000F6
:100A3000809180008F7380938000809180008F7CF4
:100A40008093800080918100887F82608093810004
:100A500080E092E090938900809388001092850056
:100A60001092840080916F00826080936F0083E019
:100A70008093AF0380917100817F80937100109209
:100A800090008AE080939100109299001092980053
:100A900010929B0010929A0010929D0010929C0060
:100AA00010929500109294003E9A469880EE98E03D
:100AB000909399008093980080E48093900082E363
:100AC00090E090933303809332031092FE021092D1
:100AD000FF02109200031092010314BC8BE085BD4D
:100AE00086E086BD80916E00816080936E008DE708
:100AF00088BD80916E00846080936E0080B38F709B
:100B000080BB81B3806F81BB80910501877E80931C
:100B1000050188E090E00E94131C109202030FB6BA
:100B2000F894DEBF0FBECDBF7E0195E2E90EF11C49
:100B3000DE0111966D017EE1A72E73E0B72EE9E18B
:100B40008E2EE3E09E2EF1EF2F2EF2E03F2E8AE173
:100B500093E0B0E1B80FB9A780910204882309F4AB
:100B600042C08091FA039091FB039093F30380932A
:100B7000F2038091FC039091FD039093F503809321
:100B8000F4038091FE039091FF039093F703809309
:100B9000F60380910004909101049093F9038093EF
:100BA000F8038091EA039091EB039093E303809321
:100BB000E2038091EC039091ED039093E503809321
:100BC000E4038091EE039091EF039093E703809309
:100BD000E6038091F0039091F1039093E9038093F1
:100BE000E803109202048091E0039091E1038A9758
:100BF000CCF08FEF22C08D30F1F08A30E1F02091FF
:100C0000E0033091E103F901EA54FC4F808388232B
:100C1000A1F02F5F3F4F3093E1032093E0032A328E
:100C200031055CF48091B4039091B5030E945B2878
:100C300087FFE1CF02C080E0E2CF2091E003309156
:100C4000E1032A3231052CF03F932F938DE293E09C
:100C5000AAC0121613060CF0BAC08111B8C0809158
:100C6000B103882381F06091B2037091B30386EBE6
:100C700093E00E94E62E6091B2037091B3038AE084
:100C800090E00E94B4281091B603113221F01F3376
:100C900011F08DEF79C0E091B703EE2309F4DFC2C4
:100CA0008091BA038F7D09F099C043E050E068EE6F
:100CB00072E087EB93E00E943728892B09F465C224
:100CC00043E050E064EE72E087EB93E00E94372847
:100CD000892B09F45CC243E050E060EE72E087EBE0
:100CE00093E00E943728892B09F453C243E050E077
:100CF0006CED72E087EB93E00E943728892B09F4B2
:100D00004AC243E050E068ED72E087EB93E00E9456
:100D10003728892B09F441C243E050E064ED72E0CA
:100D200087EB93E00E943728892B09F438C243E00F
:100D300050E060ED72E087EB93E00E943728892B4A
:100D400009F42FC243E050E06CEC72E087EB93E0D3
:100D50000E943728892B09F426C243E050E068EC52
:100D600072E087EB93E00E943728892B09F41DC2BB
:100D700043E050E064EC72E087EB93E00E94372898
:100D8000892B09F414C28DEF482F552741950CF497
:100D900050959A01882319F084E293E002C089E219
:100DA00093E03F932F939F938F938091B3038F93FF
:100DB0008091B2038F930E9499281092E1031092C0
:100DC000E0030F900F900F900F900F900F900E94E4
:100DD000981FC2CE8FEF0E94391F62CD8091BB0356
:100DE0008F7D09F0D0C144E050E06FEB72E087EBFB
:100DF00093E00E943728892B09F4DCC144E050E0DD
:100E00006AEB72E087EB93E00E943728892B09F4A4
:100E1000D3C144E050E065EB72E087EB93E00E94C1
:100E20003728892B09F4CAC144E050E060EB72E036
:100E300087EB93E00E943728892B09F4C1C144E075
:100E400050E06BEA72E087EB93E00E943728892B31
:100E500009F4B8C144E050E066EA72E087EB93E041
:100E60000E943728892B09F4AFC144E050E061EAC1
:100E700072E087EB93E00E943728892B09F4A6C122
:100E800044E050E06CE972E087EB93E00E94372881
:100E9000892B09F49DC144E050E067E972E087EBDB
:100EA00093E00E943728892B09F494C144E050E074
:100EB00062E972E087EB93E00E943728892B09F4FE
:100EC0008BC144E050E06DE872E087EB93E00E9454
:100ED0003728892B09F482C144E050E068E872E0C9
:100EE00087EB93E00E943728892B09F479C144E00D
:100EF00050E063E872E087EB93E00E943728892B8B
:100F000009F470C144E050E06EE772E087EB93E0D3
:100F10000E943728892B09F467C144E050E069E753
:100F200072E087EB93E00E943728892B09F45EC1B9
:100F300044E050E064E772E087EB93E00E943728DA
:100F4000892B09F455C144E050E06FE672E087EB6D
:100F500093E00E943728892B09F44CC144E050E00B
:100F60006AE672E087EB93E00E943728892B09F448
:100F700043C144E050E065E672E087EB93E00E94F5
:100F80003728892B09F43AC144E050E060E672E06A
:100F900087EB93E00E943728892B09F431C144E0A4
:100FA00050E06BE572E087EB93E00E943728892BD5
:100FB00009F428C144E050E066E572E087EB93E075
:100FC0000E943728892B09F41FC144E050E061E5F5
:100FD00072E087EB93E00E943728892B09F416C151
:100FE00044E050E06CE472E087EB93E00E94372825
:100FF000892B09F40DC144E050E067E472E087EB0F
:1010000093E00E943728892B09F404C144E050E0A2
:1010100062E472E087EB93E00E943728892B09F4A1
:10102000FBC044E050E06DE372E087EB93E00E9488
:101030003728892B09F4F2C044E050E068E372E0FD
:1010400087EB93E00E943728892B09F4E9C044E03C
:1010500050E063E372E087EB93E00E943728892B2E
:1010600009F4E0C044E050E06EE272E087EB93E008
:101070000E943728892B09F4D7C044E050E069E288
:1010800072E087EB93E00E943728892B09F4CEC0E9
:1010900044E050E064E272E087EB93E00E9437287E
:1010A000892B09F4C5C044E050E06FE172E087EBA2
:1010B00093E00E943728892B09F4BCC044E050E03B
:1010C0006AE172E087EB93E00E943728892B09F4EC
:1010D000B3C044E050E065E172E087EB93E00E942A
:1010E0003728892B09F4AAC044E050E060E172E09F
:1010F00087EB93E00E943728892B09F4A1C044E0D4
:1011000050E06BE072E087EB93E00E943728892B78
:1011100009F498C044E050E066E072E087EB93E0A9
:101120000E943728892B09F48FC044E050E061E029
:1011300072E087EB93E00E943728892B09F486C080
:1011400044E050E06CEF71E087EB93E00E943728B9
:10115000892B09F47DC044E050E067EF71E087EB34
:1011600093E00E943728892B09F474C044E050E0D2
:1011700062EF71E087EB93E00E943728892B09F436
:101180006BC08DEF01CE8DEFFFCD91E011C092E0ED
:101190000FC093E00DC09CE00BC09DE009C09FE034
:1011A00007C090E105C091E103C091E401C092E461
:1011B000E3E056C091E851C092E84FC093E84DC0BB
:1011C00094E84BC095E849C099E847C09AE845C003
:1011D0009BE843C09CE841C09DE83FC09EE83DC0FD
:1011E0009FE83BC095E939C096E937C097E935C01B
:1011F00098E933C099E931C09AE92FC09DE92DC023
:101200009EE92BC09FE929C090EA27C091EA25C03A
:1012100092EA23C093EA21C094EA1FC095EA1DC058
:1012200096EA1BC097EA19C098EA17C099EA15C058
:101230009AEA13C09BEA11C09CEA0FC09DEA0DC058
:101240009EEA0BC09FEA09C090EB07C091EB05C076
:1012500092EB03C093EB01C094EBE4E001C090E09B
:101260000E2E000CFF0BE954FC4F80818111ADC2A2
:10127000113209F05FC0973969F198F49338D1F0D1
:101280009D38F1F0913009F093C698E088E10FB6EF
:10129000F894A895809360000FBE90936000F89436
:1012A00008C09F3949F1943BD9F1983909F080C6BB
:1012B0001AC0FFCF3F9A47981092340380E064CD64
:1012C00080E00E946E1B8FEF8093030180930201E8
:1012D00080E05ACD8091B00380FD6DC681E080939F
:1012E000030180E051CD8091B00381FD67C681E0AC
:1012F0008093020180E048CD00E010E06FEFC8016C
:101300000E94492C0F5F1F4F0115E4E01E07B1F743
:1013100080E03ACD8091030118163CF40E94981F9A
:101320008091B0038370B1F3F9CF80910201181658
:10133000ACF3EECF1F3309F044C6983909F4A8C1C5
:1013400008F06FC0923809F467C188F59D3009F440
:101350004FC1A0F4923009F405C120F4992309F497
:10136000DBC032C6933009F41FC19C3009F02CC693
:101370000E943B1B0E94941180E006CD903109F43D
:101380003DC148F49F3009F01FC60E94311B0E94E6
:10139000941180E0F9CC913109F437C1923409F00D
:1013A00013C68091AE030E94941180E0EDCC9B386F
:1013B00009F458C1D8F4953809F43DC158F494386B
:1013C00009F002C68091AD03869581700E94941148
:1013D00080E0DACC993809F437C19A3809F0F4C5BD
:1013E000809131030E94941180E0CECC953909F4AC
:1013F00041C158F49C3809F0E7C58091F2039091FF
:10140000F3030E944B1180E0BFCC963909F439C137
:10141000973909F0D9C5809103010E94621180E0DB
:10142000B3CC993A09F49FC1D0F5943A09F46CC150
:1014300028F59A3909F438C108F430C19D3909F406
:1014400039C19E3909F0C0C58091F2039091F30330
:101450000E944B118091F4039091F5030E944B116F
:101460008091F6039091F7030E944B118091F8034D
:101470009091F9030E944B1180E086CC963A09F4D2
:101480006AC108F460C1973A09F469C1983A09F051
:101490009BC5809101010E94621180E075CC9E3A4B
:1014A00009F48BC190F49B3A09F469C108F461C155
:1014B0009C3A09F473C19D3A09F086C580912C03CA
:1014C00081700E94941180E05FCC913B09F404C1CB
:1014D000B8F4903B09F078C58091E2039091E30362
:1014E0000E944B118091E4039091E5030E944B11FF
:1014F0008091E6039091E7030E944B1180E044CC79
:10150000923B09F4EFC0933B09F05EC5809119034B
:101510000E94941180E038CC8091B0038370282F12
:1015200030E030932B0320932A032091180327FDEA
:1015300006C0806490E090932B0380932A0325FDDE
:1015400009C080912A0390912B03806890932B030C
:1015500080932A0380912A0390912B030E947D118E
:1015600080E012CC86EF92E09F938F931F9284EDE0
:101570008F931F9283E08F931F9289E08F931F9226
:101580001F9288EF92E09F938F938091B3038F9384
:101590008091B2038F930E9499280FB6F894DEBF12
:1015A0000FBECDBF80E0F0CB7090B2036090B3036C
:1015B0000AE113E0D8018D918D011F928F933F9224
:1015C0002F926F927F920E9499280F900F900F9008
:1015D0000F900F900F90B9A5B013ECCF6091B203AC
:1015E0007091B30380E290E00E94B42880E0CCCBFD
:1015F0008091AD030E94941180E0C6CB8091B0032E
:101600008F700E94941180E0BFCB8091AF038F70E8
:101610000E94941180E0B8CB9091AD03892F817026
:1016200090FF05C096FD02C081E001C082E00E94EB
:10163000941180E0A9CB8091AD0382FB882780F9CB
:101640000E94941180E0A0CB80912A0390912B03FB
:10165000880F892F881F990B919581700E94941192
:1016600080E092CB8091F4039091F5030E944B119E
:1016700080E08ACB80E00E948C180E94941180E068
:1016800083CB81E00E948C180E94941180E07CCB77
:10169000809102010E94621180E076CB80910B0361
:1016A0000E94941180E070CB809114030E949411E9
:1016B00080E06ACB80912D030E94941180912E03CB
:1016C0000E94941180912F030E9494118091300305
:1016D0000E94941180E058CB809139030E949411AC
:1016E00080E052CB809135030E94941180913603A3
:1016F0000E949411809137030E94941180913803C5
:101700000E94941180E040CB809150038F93809190
:101710004F038F9380914E038F9380914D038F934E
:101720008CEE92E09F938F938091B3038F9380917F
:10173000B2038F930E9499280FB6F894DEBF0FBEB4
:10174000CDBF80E021CB80917203909173030E9402
:101750004B1180E019CB80E00E949B1815CB81E0F3
:101760000E949B1811CB809100010E94621180E0C1
:101770000BCB8091B1030E94621180E005CB1982EE
:101780001A821B821C82A60163E780E00E949117E7
:1017900089819A810E947D1180E0F6CA19821A829D
:1017A0001B821C82A60163E781E00E949117898158
:1017B0009A810E947D1180E0E7CA8CB182FB882764
:1017C00080F90E94941180E0DFCA803209F0FFC3E3
:1017D000113209F0E7C38F010F5F1F4F963909F4EB
:1017E000DCC1A8F5913809F4E3C0C0F4903109F4E4
:1017F00094C050F49D3009F46BC09F3009F477C059
:101800009C3009F0D2C358C0913409F4AAC0923474
:1018100009F4B4C0913109F0C8C391C0953809F4F6
:101820004BC130F4933809F4B4C008F412C12EC18E
:101830009E3809F457C120F49A3809F478C1B5C329
:101840009F3809F462C1953909F497C1AEC3963A3D
:1018500009F4BDC2A0F4923A09F405C250F49A39D1
:1018600009F4BAC19F3909F4C6C1993909F09DC379
:10187000A4C1943A09F45BC208F427C27EC29A3A22
:1018800009F4CDC250F4983A09F4A7C208F0B6C2E0
:10189000B80181E00E94D61577CA9F3A09F44AC37D
:1018A00020F49D3A09F41DC380C3913B09F4C6C2DC
:1018B000923B09F4D2C279C347E0B701C8010E9444
:1018C0005D2387FD61CA8DA10E946E1B80E05CCA0A
:1018D0002FEF30E040E050E0B701C8010E940B114B
:1018E00087FD52CA8DA10E94871E80E04DCA47E045
:1018F000B701C8010E945D2387FD46CA8DA1F0E1B2
:101900008F9F900111249091B0039F70292B2093F9
:10191000B0030E945F1B80E037CA47E0B701C801EF
:101920000E945D2387FD30CA8DA1982F9F70809102
:10193000B003807F892B8093B00380E025CA47E005
:10194000B701C8010E945D2387FD1ECA8DA1982F93
:101950009F708091AF03807F892B8093AF0380E0DD
:1019600013CA48E0B701C8010E945D2387FD0CCA75
:101970008DA181950E94391F80E006CAB701C80178
:101980000E94281187FD00CA8DA18093AE0380E0DC
:10199000FBC9B701C8010E94281187FDF5C98DA1B7
:1019A000811102C03F9A47988093340380E0ECC9CC
:1019B00028E833E140E150E0B701C8010E940B1173
:1019C00087FDE2C920E137E240E050E0BE016F5DF3
:1019D0007F4FD801A80FB11D87FDBA95CD010E9498
:1019E0000B1187FDD1C909A11AA16DA17EA180E0CB
:1019F00090E00E946E2D2B013C0120E030E0A90117
:101A00000E94C82C811103C0109290001CC0A30139
:101A1000920160E074E284E799E40E94CD2C20E01A
:101A200030E040E05FE30E945B2C0E943F2D683C69
:101A3000710510F468EC70E0709399006093980061
:101A400080E480939000109333030093320380E08E
:101A50009BC942E0B701C8010E945D2387FD94C97C
:101A60009DA18091AD03923029F481640E94871E6C
:101A700080E08AC98E7B913029F481600E94871EA4
:101A800080E082C90E94871E80E07EC941E0B701E4
:101A9000C8010E945D2387FD77C99DA18091AD0398
:101AA000992329F082600E94871E80E06DC98D7F96
:101AB0000E94871E80E068C941E0B701C8010E940A
:101AC0005D2387FD61C99DA18091AD03992329F014
:101AD00084600E94871E80E057C98B7F0E94871E0A
:101AE00080E052C9B701C8010E94E81087FD4CC9C7
:101AF0004DA15EA160E070E080E00E94CE1487FFFF
:101B000002C08EEF41C980E03FC9B701C8010E9401
:101B1000E81087FD39C94DA15EA160E070E07095C5
:101B20006095509541955F4F6F4F7F4FE5CF4FE0E8
:101B3000B701C8010E945D2387FD26C99DA1809140
:101B4000310380958923F89480FF03C022E020931D
:101B50002D0381FF03C022E020932E0382FF03C0E8
:101B600022E020932F0383FF03C082E080933003A1
:101B700090933103789480E007C94FE3B701C8011F
:101B80000E945D2387FD00C98DA18093AB0380E196
:101B900090E00E944A1B80E0F7C84FE3B701C801FC
:101BA0000E945D2387FDF0C88DA18093AC0380E087
:101BB00091E00E944A1B80E0E7C8B701C8010E947B
:101BC000C51087FDE1C88DA18093A90380E290E054
:101BD0000E944A1B80E0D8C8B701C8010E94C51006
:101BE00087FDD2C88DA18093AA0380E092E00E9475
:101BF0004A1B80E0C9C82FEF33E040E050E0B70156
:101C0000C8010E940B1187FDBFC8F801E80FF11D44
:101C100087FDFA95CF012081211107C06DA07EA01C
:101C200009A11AA1060D171D11C02DA13EA140E06A
:101C300054E0421B530B9A0141E050E0BE016F5D3E
:101C40007F4F0E940B1187FFE9CF9EC86016710677
:101C500041F06FEFC3010E94492C5FEF651A750ACE
:101C6000F5CF80E091C8DF92CF92FF92EF92BF92C2
:101C7000AF921F930F930E94EC280FB6F894DEBF2B
:101C80000FBECDBF0197F9F4898187FD7DC84DA0B6
:101C90005EA06FA078A40E943B1B81600E946E1B17
:101CA00080914D0390914E03A0914F03B09150034A
:101CB000B301A201481B590B6A0B7B0B80E00E9409
:101CC000CE1480E061C88DEF5FC8DF92CF92FF92A3
:101CD000EF929F928F921F930F930E94EC280FB662
:101CE000F894DEBF0FBECDBF0197F9F4898187FD5F
:101CF0004BC80DA11EA10E943B1B82600E946E1B5F
:101D0000A801110F660B770B8091720390917303FA
:101D1000A0917403B0917503481B590B6A0B7B0BA0
:101D200081E00E94CE1480E02FC88DEF2DC8DF9295
:101D3000CF92FF92EF92BF92AF921F930F930E94A8
:101D4000EC280FB6F894DEBF0FBECDBF019791F41B
:101D5000898187FD19C88DA19EA1AFA1B8A58093E7
:101D60004D0390934E03A0934F03B093500380E034
:101D70000C94C4068DEF0C94C406DF92CF92FF92B0
:101D8000EF929F928F921F930F930E94EC280FB6B1
:101D9000F894DEBF0FBECDBF0197B1F4898187FFF4
:101DA00002C00C94C4068DA19EA1092E000CAA0BA2
:101DB000BB0B8093720390937303A0937403B0934F
:101DC000750380E00C94C4068DEF0C94C406B80132
:101DD00080E00E94D6150C94C406B701C8010E9489
:101DE000C51087FF02C00C94C4068DA191E0980F26
:101DF000993008F4EFC08CEF0C94C406B701C80109
:101E00000E94C51087FF02C00C94C4068DA191E00A
:101E1000980F993008F4E2C08CEF0C94C40641E0AE
:101E2000B701C8010E945D2387FF02C00C94C4065D
:101E30008DA18093B10380E00C94C40644E1B70106
:101E4000C8010E945D2387FF02C00C94C4068DA1C7
:101E50008093390380E00C94C40644E1B701C801C3
:101E60000E945D2387FF02C00C94C406080F111D59
:101E700087FD1A9544E1BE016F5D7F4FC8010E9446
:101E80005D2387FF02C00C94C406080F111D87FD57
:101E90001A9544E1BE016F5E7F4FC8010E945D2329
:101EA00087FF02C00C94C40644E1B601D801A80F14
:101EB000B11D87FDBA95CD010E945D2387FF02C049
:101EC0000C94C4068DA18093350389A180933603B9
:101ED00089898093370389818093380380E00C944B
:101EE000C40641E0B701C8010E945D2387FF02C01C
:101EF0000C94C4069DA180910501992379F084601A
:101F00008093050188E090E00E944A1B80912C0399
:101F1000816080932C0380E00C94C4068B7F8093B7
:101F2000050188E090E00E944A1B10922C0380E09B
:101F30000C94C406DF92CF92FF92EF92A3E1B3E03C
:101F4000BF93AF931F930F930E94EC280FB6F894A2
:101F5000DEBF0FBECDBF019729F4898187FF05C081
:101F60000C94C4068DEF0C94C4064DA15EA16FA124
:101F700078A5413C34ED530731E06307710590F5D6
:101F800080912C03826080932C037095609550950E
:101F900041955F4F6F4F7F4F80E00E94CE1480E0ED
:101FA0000C94C4068DEF0C94C4068DEF0C94C406FB
:101FB0008DEF0C94C4068EEF0C94C4068EEF0C9437
:101FC000C4068DEF0C94C4068DEF0C94C4068DEFFF
:101FD0000C94C4060E94231F0C94C4060E940D1F7B
:101FE0000C94C4068CEF0C94C4068F929F92AF920F
:101FF000BF92CF92DF92EF92FF920F931F93CF93F6
:10200000DF936A017B01082F10E095E2899FE001D0
:102010001124C65CDC4FAB85BC858D859E854C014B
:102020008A0E9B1EA12CB12C481559056A057B050B
:1020300070F0BD8FAC8FC818D908EA08FB08CE8EA7
:10204000DF8EE8A2F9A29BA38AA38EE013C09A01B7
:10205000AB010E94CE2EA50194010E949D2E3D8FC2
:102060002C8F1E8E1F8E18A219A2C21AD30ADBA2B1
:10207000CAA28AE095E2909FF001919FF00D112491
:10208000E65CFC4F878BDF91CF911F910F91FF9002
:10209000EF90DF90CF90BF90AF909F908F9008957A
:1020A0008EBD0DB407FEFDCF8EB508958091BE02A2
:1020B0009091BD02981781F0E82FF0E0E054FD4FB9
:1020C000208130E08F5F9091BC02891708F080E09A
:1020D0008093BE02C90108958FEF9FEF08959091FC
:1020E000C90096FF14C09091AD022091AE02E92F75
:1020F000F0E0E055FD4F80839F5F3091AC02931775
:1021000008F090E0921779F39093AD0207C0909198
:10211000C90090649093C9008093CE0080E090E065
:1021200008951F93CF93DF9300D000D01F92CDB7B7
:10213000DEB7182F8CE58CBD1DBC812F2D833C8311
:102140004B835A8369830E94281B6981862F0E94D2
:1021500050105A81852F0E9450104B81842F0E946D
:1021600050103C81832F0E9450102D81822F0E949D
:102170005010812F0E941F1B0F900F900F900F90F7
:102180000F90DF91CF911F910895CF93DF9300D0EF
:10219000CDB7DEB79E012F5F3F4F3F932F937F93C5
:1021A0006F932DE733E03F932F939F938F930E947C
:1021B000EC280FB6F894DEBF0FBECDBF019711F427
:1021C000898101C08DEF0F900F90DF91CF9108951D
:1021D000CF93DF9300D0CDB7DEB79E012F5F3F4F87
:1021E0003F932F937F936F9328E733E03F932F9391
:1021F0009F938F930E94EC280FB6F894DEBF0FBE1A
:10220000CDBF019711F4898101C08DEF0F900F9020
:10221000DF91CF910895EF92FF920F931F93CF9389
:10222000DF93EB017A0189010E94E81087FD09C064
:10223000688179816E157F0518F00617170708F475
:102240008CEFDF91CF911F910F91FF90EF90089548
:10225000CF93DF9300D0CDB7DEB79E012F5F3F4F06
:102260003F932F937F936F9321E733E03F932F9317
:102270009F938F930E94EC280FB6F894DEBF0FBE99
:10228000CDBF019711F4898101C08DEF0F900F90A0
:10229000DF91CF9108959F938F938DE693E09F9365
:1022A0008F938091B3038F938091B2038F930E9499
:1022B00099280F900F900F900F900F900F9097FD0F
:1022C00080E00895282F082E000C330B3F938F9346
:1022D00089E693E09F938F938091B3038F938091CE
:1022E000B2038F930E9499280F900F900F900F9038
:1022F0000F900F9097FD80E008959F938F9385E650
:1023000093E09F938F938091B3038F938091B20357
:102310008F930E9499280F900F900F900F900F901D
:102320000F9097FD80E008951F928F9381E693E0D0
:102330009F938F938091B3038F938091B2038F9378
:102340000E9499280F900F900F900F900F900F9070
:1023500097FD80E008958EBD0DB407FEFDCF8EB5CC
:1023600008951F920F920FB60F9211244F925F9211
:102370006F927F928F929F92AF92BF92CF92DF9295
:10238000FF920F931F932F933F934F935F936F93FE
:102390007F938F939F93AF93BF93CF93DF93EF93ED
:1023A000FF931092850010928400C0904B03D09050
:1023B0004C030091700310917103E1E0C016D10647
:1023C00008F0E0E0E0930F0465E2E69FF0011124DD
:1023D000E65CFC4FC189D289D0930E04C0930D04F2
:1023E0008091840090918500209709F499C2F9B0FA
:1023F000F294F694F69493E0F9228091AF03F822D8
:102400008F2D90E090930C0480930B04C03A76E3F8
:10241000D70750F0FE0186E0F695E7958A95E1F73B
:10242000E45FFE4F46A11AC0C03A86E2D80748F0E2
:10243000FE01B5E0F695E795BA95E1F7E85AFF4F4A
:102440000CC0C03A6EE1D60758F0FE01A4E0F69544
:10245000E795AA95E1F7EC5DF040408150E017C0A8
:10246000C032D105A0F0BE0176956795CB01A0E002
:10247000B0E0BC01CD0160587B47814E9F4F4E01BB
:10248000A12CB12CA50194010E949D2EA90150936D
:102490000A04409309048091840090918500F09192
:1024A000B003F0FF15C12091540330915503240F60
:1024B000351F30935503209354038091520390911C
:1024C0005303C816D90608F4FDC08C0F9D1F8C1944
:1024D0009D099093530380935203E091510380919F
:1024E0004D0390914E03A0914F03B0915003F4FF20
:1024F00004C00197A109B10903C00196A11DB11D36
:1025000080934D0390934E03A0934F03B0935003D9
:10251000E1FF50C0A0914103B09142032F3F31052C
:1025200009F058F44A9FB0014B9F700D5A9F700DEF
:102530001124CB01A0E0B0E005C09A010E94BF2E9B
:10254000DC01CB0173E0880F991FAA1FBB1F7A958E
:10255000D1F78090490390904A03A0904B03B0902C
:102560004C03880D991DAA1DBB1D809349039093B0
:102570004A03A0934B03B0934C0380915603909170
:10258000570301979093570380935603892B09F0C3
:102590007DC08E2F8D7FE2FF78C020913F03309168
:1025A000400330934C0320934B0310924A03109244
:1025B00049036BC0E2FF1AC0809158039091590300
:1025C000A0915A03B0915B030197A109B1098093CF
:1025D000580390935903A0935A03B0935B03892B3C
:1025E0008A2B8B2B09F052C0EB7F50C0E3FF4EC00B
:1025F000A0914303B09144032F3F310509F058F4F3
:102600004A9FB0014B9F700D5A9F700D1124CB0152
:10261000A0E0B0E005C09A010E94BF2EDC01CB0112
:1026200063E0880F991FAA1FBB1F6A95D1F780909E
:10263000490390904A03A0904B03B0904C032401AF
:102640003501481A590A6A0A7B0A40924903509296
:102650004A0360924B0370924C0380915C0390910B
:102660005D03019790935D0380935C03892B71F464
:10267000E77FFE7FF093B0031092490310924A0364
:1026800010924B0310924C0301C0E82F80915E031F
:10269000882321F0815080935E030CC0F0FE0AC0B5
:1026A0008091B0038E7F8093B00380911804816085
:1026B00080931804E0935103109255031092540331
:1026C000F1E007C08C199D09909353038093520346
:1026D000F0E0D090B003D1FE1CC1809179039091BD
:1026E0007A03840F951F90937A0380937903209146
:1026F0007703309178030217130708F401C1C20F62
:10270000D31FC01BD10BD0937803C0937703E09104
:10271000760300917203109173032091740330913A
:102720007503D5FE05C0015011092109310904C006
:102730000F5F1F4F2F4F3F4F009372031093730390
:102740002093740330937503E1FF50C0A09166039A
:10275000B09167038F3F910509F058F44A9FB0018B
:102760004B9F700D5A9F700D1124CB01A0E0B0E07B
:1027700005C09A010E94BF2EDC01CB0133E0880F17
:10278000991FAA1FBB1F3A95D1F700916E031091B4
:102790006F032091700330917103800F911FA21F6E
:1027A000B31F80936E0390936F03A0937003B09355
:1027B000710380917B0390917C03019790937C033C
:1027C00080937B03892B09F07EC08E2F8D7FE2FFE3
:1027D00079C0209164033091650330937103209395
:1027E000700310926F0310926E036CC0E2FF1AC068
:1027F00080917D0390917E03A0917F03B09180032F
:102800000197A109B10980937D0390937E03A09362
:102810007F03B0938003892B8A2B8B2B09F053C045
:10282000EB7F51C0E3FF4FC0A0916803B0916903F3
:102830008F3F910509F058F44A9FB0014B9F700DEE
:102840005A9F700D1124CB01A0E0B0E005C09A01A1
:102850000E94BF2EDC01CB0123E0880F991FAA1F25
:10286000BB1F2A95D1F700916E0310916F03209141
:10287000700330917103B901A801481B590B6A0B11
:102880007B0B40936E0350936F03609370037093C0
:102890007103809181039091820301979093820349
:1028A00080938103892B79F4E77F8D2D8D7F809331
:1028B000B00310926E0310926F0310927003109287
:1028C000710301C0E82F80918303882321F0815098
:1028D000809383030DC08F2D827051F08091B003DF
:1028E0008D7F8093B00380911804826080931804D8
:1028F000E093760310927A031092790382E008C085
:10290000E901C01BD10BD0937803C093770380E01B
:10291000F82BF0FD2D9AF1FD2E9A2D982E9806C0D9
:1029200080ED97E090930A04809309048091090454
:1029300090910A04909389008093880020918400EC
:10294000309185008091090490910A042817390775
:1029500028F00A979093850080938400FF91EF916F
:10296000DF91CF91BF91AF919F918F917F916F91A7
:102970005F914F913F912F911F910F91FF90DF90A9
:10298000CF90BF90AF909F908F907F906F905F900F
:102990004F900F900FBE0F901F901895CF92DF921F
:1029A000EF92FF920F931F93CF93DF9300D000D04D
:1029B000CDB7DEB7082F10E021E030E06901082E26
:1029C00001C0CC0C0A94EAF79091B0039C2109F065
:1029D0005BC0411551056105710509F457C0F82E1A
:1029E000EC2CE09449835A836B837C831416150680
:1029F000160617069CF40E94311B8E210E945F1B55
:102A00008C2D8295807F80959091B003892380934F
:102A1000B00349815A816B817C8118C00E94311BAF
:102A20008C290E945F1B8091B0039C2D9295907F12
:102A3000892B8093B00349815A816B817C81709589
:102A40006095509541955F4F6F4F7F4F8F2D0E943E
:102A5000F50F85E2809FF001819FF00D1124E65C67
:102A6000FC4F108A178683819481928B818B80E240
:102A700084A380911804E822E09218048091B003A6
:102A80008C298093B00302C08FEF01C080E00F90CB
:102A90000F900F900F90DF91CF911F910F91FF90AA
:102AA000EF90DF90CF9008954F925F926F927F9258
:102AB0008F929F92AF92BF92CF92DF92EF92FF924E
:102AC0000F931F93CF93DF9325E2829FC0011124C0
:102AD000EC01C65CDC4F0D811E81AB80BC806801BF
:102AE000CA18DB08E12CF12C8CE0CC0CDD1CEE1CB0
:102AF000FF1C8A95D1F729853A8540E050E0C7014F
:102B0000B6010E949D2E29013A014501800E911EB9
:102B1000A12CB12C2F81388540E050E0C701B601CF
:102B20000E949D2E94E056954795379527959A9546
:102B3000D1F7C501B4010E948D2E6C5D7B408F4F93
:102B40009F4F28E4C22E28EED22EEE24E394F12CDF
:102B5000A70196010E949D2E3C872B87A30192011D
:102B600064E056954795379527956A95D1F7C50145
:102B7000B4010E948D2E6C5D7B408F4F9F4FA7014B
:102B800096010E949D2E3E872D87DF91CF911F9148
:102B90000F91FF90EF90DF90CF90BF90AF909F90FC
:102BA0008F907F906F905F904F900895DF92EF929B
:102BB000FF920F931F93CF93DF93CDB7DEB760974C
:102BC0000FB6F894DEBF0FBECDBFE82EF12C2091DA
:102BD000B00330E0082E02C0359527950A94E2F73D
:102BE00020FDE5C08B01D82E20E23EE444E650E013
:102BF000BE016F5F7F4FC8010E940B1187FDDAC0D5
:102C0000080F111D87FD1A95F8019081992361F035
:102C100020E23EE444E650E0BE016D5F7F4FC80114
:102C20000E940B1187FDC6C049815A812B813C81CE
:102C30002417350708F4BDC0080F111D87FD1A952C
:102C4000F8019081992361F028E532E041E050E0FD
:102C5000BE016B5F7F4FC8010E940B1187FDAAC0A8
:102C6000080F111D87FD1A95F8019081992361F0D5
:102C700028E532E041E050E0BE01695F7F4FC801C6
:102C80000E940B1187FD96C0080F111D87FD1A9534
:102C9000F8019081992349F04FE3BE01675F7F4FB0
:102CA000C8010E945D2387FD85C0080F111D87FDA7
:102CB0001A95F8019081992341F0BE01665F7F4F1C
:102CC000C8010E94C51087FD75C0F801E80FF11D0D
:102CD00087FDFA958081811141C08D2D0E94831B53
:102CE00085E28E9DF0018F9DF00D1124E65CFC4F76
:102CF00089819A81948383838B819C819683858348
:102D00008D819E81908787838F8198859287818727
:102D10008D2D0E945415F701E555FC4F8985808360
:102D2000F701E755FC4F8A858083F701EE0FFF1FFF
:102D3000E65DFB4F8B859C8591838083D1101BC002
:102D400080E790E00E944A1B8091190490911A0438
:102D5000A0911B04B0911C0480621DC020EA3FE0DA
:102D600040E050E0BE01655F7F4FCF010E940B1134
:102D700087FFB3CF1FC0F1E0DF1215C080E097E0FE
:102D80000E944A1B8091190490911A04A0911B047F
:102D9000B0911C0480648093190490931A04A0934A
:102DA0001B04B0931C040E94A11E80E003C08EEFA0
:102DB00001C08CEF60960FB6F894DEBF0FBECDBF9A
:102DC000DF91CF911F910F91FF90EF90DF900895C9
:102DD0003F924F925F926F927F92AF92BF92CF924B
:102DE000DF92EF92FF920F931F93CF93DF93CDB7B4
:102DF000DEB72C970FB6F894DEBF0FBECDBF382ECE
:102E00002D833E834F835887270138018E8D9F8DF8
:102E1000A8A1B9A189879A87AB87BC87832D90E049
:102E200025E2289FF001299FF00D1124E65CFC4F5C
:102E3000DF011D922A95E9F7B3E0B31528F0FC01F4
:102E4000E85FFE4F208101C02FE335E2389F80010B
:102E5000399F100D1124065C1C4FF80120837283EA
:102E6000618380E090E00E946E2D69837A838B837A
:102E70009C839B01AC016D817E818F8198850E942E
:102E8000202E0E943F2DD80114967C936E931397A9
:102E900029813A814B815C81C301B2010E94202EBD
:102EA0000E943F2DF8017683658329813A814B8109
:102EB0005C81C601B5010E94202E0E943F2DBB27D8
:102EC000A92F982F872FF8019087878329813A812E
:102ED0004B815C8169857A858B859C850E94202E3B
:102EE0000E943F2DBB27A92F982F872FF80192878B
:102EF0008187832D2C960FB6F894DEBF0FBECDBF11
:102F0000DF91CF911F910F91FF90EF90DF90CF90C5
:102F1000BF90AF907F906F905F904F903F900C94D8
:102F20005415AF92BF92CF92DF92EF92FF920F9320
:102F30001F93CF93DF931F92CDB7DEB7A82E8A01E0
:102F40008CE5F82EFCBC1DBC8A2D69830E94281BD1
:102F50006981862F0E94501080E00E94501080E00E
:102F60000E94501080E00E94501080E00E9450109B
:102F70008A2D0E941F1BFCBC1DBC8A2D0E94281B91
:102F800080E00E945010B82E80E00E945010C82EA1
:102F9000D12CE12CF12CFE2CED2CDC2CCC2480E06F
:102FA0000E945010C82AFE2CED2CDC2CCC2480E092
:102FB0000E945010C82AFE2CED2CDC2CCC2480E082
:102FC0000E945010C82A8A2D0E941F1B011511054E
:102FD00029F0F801C082D182E282F3828B2D0F901A
:102FE000DF91CF911F910F91FF90EF90DF90CF90E5
:102FF000BF90AF900895CF93DF9300D000D0CDB7AE
:10300000DEB719821A821B821C82AE014F5F5F4FAE
:103010006FE60E94911769817A818B819C810F9064
:103020000F900F900F90DF91CF91089599E0899FB5
:10303000F0011124EB5FFC4F708767839B0140E038
:1030400050E064E90C94911099E0899FF0011124FB
:10305000EB5FFC4F6683462F660F550B660B770BB5
:10306000332722276DEE0C949110CF92DF92EF92CE
:10307000FF921F93CF93DF93182F603218F066955D
:1030800020E001C021E0822F90E0A0E0B0E06C01E0
:103090007D0181E1CC0CDD1CEE1CFF1C8A95D1F773
:1030A00089E0189FE0011124CB5FDC4F8881998172
:1030B000AA81BB81AD7FA7019601282B392B4A2B12
:1030C0005B2B288339834A835B836C836D836CEE2F
:1030D000812F0E9491102C812F71822F90E0A0E00F
:1030E000B0E0AF604D814F7150E0542F4427052E62
:1030F000000C660B770B9A01AB01282B392B4A2B5E
:103100005B2B60E9812FDF91CF911F91FF90EF90B2
:10311000DF90CF900C94911029E0829FC001112480
:10312000FC01EB5FFC4F408151816281738185819D
:1031300061FF880F0895EF92FF921F93CF93DF9363
:10314000182FE82EF12C85E2189FE0011124C65CAF
:10315000DC4F8B819C810E947D118D819E810E941C
:103160007D118F8198850E947D1189859A850E94A5
:103170007D11812F0E948C180E94941189E08E9DF0
:10318000E0018F9DD00D1124CB5FDC4F8E810E941A
:1031900062118F8198850E947D1180E0DF91CF912F
:1031A0001F91FF90EF900895FF920F931F93CF937D
:1031B000DF9300D000D0CDB7DEB7F82E83ED90E0DE
:1031C000A3E0B4E189839A83AB83BC8329E0F29EB8
:1031D000800111240B5F1C4FF80180839183A2832F
:1031E000B38380E18483858383E086838CED95E0DF
:1031F0009087878323ED30E043E054E16CEE8F2D20
:103200000E949110AE014F5F5F4F6CE68F2D0E94C0
:103210009117F801408151816281738189819A817E
:10322000AB81BC81481759076A077B0741F520E04D
:1032300030E0A90161E98F2D0E949110F8012681EB
:10324000822F220F990BAA0BBB0BAC01332722272D
:103250006DEE8F2D0E949110F8012781308540E09E
:1032600050E064E98F2D0E94911020E831E340E0A6
:1032700050E060E88F2D0E94911080E001C08FEF38
:103280000F900F900F900F90DF91CF911F910F91A2
:10329000FF90089510920804109203048091FC029C
:1032A00080FD04C0109205041092040481FD04C046
:1032B00010920704109206040895CF938091080499
:1032C00087FF7AC08F70E82FF0E021E030E0082E11
:1032D00002C0220F331F0A94E2F74091FC02509182
:1032E000FD0224233523232B71F4209178003091A3
:1032F0007900EE0FFF1FEC5FFB4F40815181240FDF
:10330000351F318320838823C9F1809103048F5FA7
:10331000809303048430A0F1C09102038C2F90E0CD
:10332000880F991FFC01E650FC4F20910404309156
:10333000050431832083FC01E651FC4F20910604F3
:103340003091070431832083CF5FC37028E0C29F90
:10335000C001112490910501977E892B809305016E
:1033600088E090E00E94131CC0930203C11103C0C7
:1033700081E0809302040E944A1902C021E001C04A
:1033800020E0922F80E041E050E0BA01637077279F
:10339000672B19F0992331F090E0440F551F8F5F90
:1033A000803199F790917C008770987F892B80936A
:1033B0007C00209308040AC080917A008064809386
:1033C0007A0080910804806880930804CF91089562
:1033D0001F920F920FB60F9211242F938F939F93EA
:1033E000EF93FF938091AE029091AD02891781F027
:1033F000E82FF0E0E055FD4F90818F5F2091AC0207
:10340000821708F080E08093AE029093CE0005C052
:103410008091C9008F7B8093C900FF91EF919F91AC
:103420008F912F910F900FBE0F901F9018951F92A4
:103430000F920FB60F9211242F938F939F93EF93B8
:10344000FF932091CE008091BD029091BE02E82FA3
:10345000F0E0E054FD4F20838F5F2091BC02821783
:1034600008F080E0891719F08093BD0218C0F89425
:10347000E6E4F3E08BE18E0F9091C80095FFFCCF5E
:1034800094919093CE009091C80096FFFCCF319616
:103490008E13F2CF78941092BD021092BE02FF916B
:1034A000EF919F918F912F910F900FBE0F901F90D2
:1034B00018951F920F920FB60F9211248F939F931E
:1034C000AF93BF9378948091FE029091FF02A091F8
:1034D0000003B09101030196A11DB11D8093FE026E
:1034E0009093FF02A0930003B0930103BF91AF91AB
:1034F0009F918F910F900FBE0F901F9018958F92F4
:103500009F92AF92BF92CF92DF92EF92FF920F9372
:103510001F93CF93DF93CDB7DEB760970FB6F894C4
:10352000DEBF0FBECDBFF82ED62E882E912C25E201
:10353000829FF0011124E65CFC4F838194819A8381
:103540008983858196819C838B83878190859E83E7
:103550008D838185928598878F838F2D0E948C180B
:10356000898789E0889DF001899DF00D1124EB5F2A
:10357000FC4F86818A87878190859C878B87F11095
:1035800006C0D7FC02C0E5E00AC0E7E008C031E0B1
:10359000F3120CC0D7FC02C0E6E001C0E8E0F0E0A6
:1035A000EE0FFF1FE457FD4FA080B180CE010196C2
:1035B0004C01D7FC0BC0BC01C5012D2D30E123020D
:1035C000800D911D11240E948F2326C0C12CD12C67
:1035D00080E1E82EE80CF11004C0860102531B4F75
:1035E00006C081E0F81203C08601025B1B4FD401C4
:1035F000F801EA1621F084918D933196FACFB40147
:10360000C6018A0D9B1D0E948F2390E1C90ED11C1B
:1036100020E8C216D104F9F660960FB6F894DEBF22
:103620000FBECDBFDF91CF911F910F91FF90EF9013
:10363000DF90CF90BF90AF909F908F900895882398
:1036400019F0813019F00895599A08955C9A0895F7
:10365000882319F0813019F00895599808955C98DD
:10366000089580910401282F247030E03595279526
:103670008170822B089590910401292F287030E0E9
:10368000359527953595279596959170922B83E0E2
:1036900089270895F89420912E0430912F04282B27
:1036A000392B30932F0420932E04789420912E04EC
:1036B00030912F0428233923232BC1F70895E4E008
:1036C000F1E0282F217090819A7F922B8270880FD1
:1036D000892B808382E090E00C944A1B93E0892739
:1036E000E4E0F1E0282F217030E0220F331F8270D8
:1036F000880F880F282B8081857F282B208382E0EC
:1037000090E00C944A1B81110FC080E890E00E9469
:103710004A1B8091220490912304A0912404B0912B
:103720002504B7FFF2CF0895813069F780E098E073
:103730000E944A1B8091260490912704A09128049E
:10374000B0912904B7FFF2CF0895EF92FF921F9333
:10375000CF93DF93CDB7DEB760970FB6F894DEBF97
:103760000FBECDBF67FD53C0882329F0813029F4F7
:1037700020E032E002C020E031E0962F182FBE0199
:103780006F5F7F4FA901E0E19E02400D511D1124A2
:10379000CA010E947623812F0E94831BE12EF12C07
:1037A00045E2149FF0011124E65CFC4F89819A8167
:1037B000948383838B819C81968385838D819E8175
:1037C000908787838F81988592878187812F0E9438
:1037D0005415F701E555FC4F89858083F701E755BE
:1037E000FC4F8A858083F701EE0FFF1FE65DFB4FDC
:1037F0008B859C8591838083111103C080E790E0C5
:1038000004C0113021F480E097E00E944A1B6096CA
:103810000FB6F894DEBF0FBECDBFDF91CF911F91E1
:10382000FF90EF900895F89420912E0430912F048A
:10383000822B932B90932F0480932E0478940895D9
:103840001F920F920FB60F9211242F933F934F9315
:103850005F936F937F938F939F93AF93BF93CF9318
:10386000EF93FF9380913804909139049C012F5F6E
:103870003F4F3093390420933804883E934088F0BA
:10388000109239041092380478948091340388237C
:1038900049F0815080933403811104C03F9A4798C6
:1038A00001C078948091320390913303009749F0DE
:1038B00001979093330380933203892B11F4109274
:1038C000900080913704811136C090913503909318
:1038D0003204909136039093330490913703909380
:1038E000340490913803909335043091AD0336FF42
:1038F00014C090913104953128F028E2291B2093BF
:10390000360402C0909336049F5F993218F4909366
:10391000310407C01092310404C090913903909390
:1039200036049091310330FD02C020E001C020E157
:10393000922B9093300490913204981305C090918B
:1039400030049E7F9093300490913304981305C007
:10395000909130049D7F909330049091340498139B
:1039600005C0909130049B7F909330049091350472
:10397000981305C090913004977F909330049091F4
:103980003604981305C0909130049F7E90933004C4
:103990008F5F843118F48093370402C0109237048B
:1039A0008091300484FF02C02F9A01C02F98C091EB
:1039B000300420E1C29FC0011124909104019F7046
:1039C000892B8093040182E090E00E94131C809177
:1039D0002E0490912F04892B09F4E9C080912E04C4
:1039E00090912F0481FF0EC06091040182E10E943A
:1039F000412380912E0490912F048D7F90932F046A
:103A000080932E0480912E0490912F0483FF0BC08D
:103A10006091050183E10E94412380912E049091E1
:103A20002F04877FC0C080912E0490912F0482FFC5
:103A30000BC083E10E942F238093180380912E04F2
:103A400090912F048B7FAFC080912E0490912F0412
:103A500084FF0DC06091AB0370E080E090E00E94B5
:103A6000351880912E0490912F048F7E9CC08091F8
:103A70002E0490912F0485FF0FC06091A903062E9C
:103A8000000C770B80E090E00E94241880912E04B7
:103A900090912F048F7D87C080912E0490912F04E8
:103AA00086FF0EC060912A0470912B0480E090E0A4
:103AB0000E94161880912E0490912F048F7B73C062
:103AC00080912E0490912F0487FF16C080E090E033
:103AD0000E94FB17092E000CAA0BBB0B809322043B
:103AE00090932304A0932404B093250480912E0482
:103AF00090912F048F7757C080912E0490912F04BE
:103B000090FF0DC06091AC0370E081E090E00E94F6
:103B1000351880912E0490912F049E7F44C080918F
:103B20002E0490912F0491FF0FC06091AA03062EDE
:103B3000000C770B81E090E00E94241880912E0405
:103B400090912F049D7F2FC080912E0490912F047F
:103B500092FF0EC060912C0470912D0481E090E0E2
:103B60000E94161880912E0490912F049B7F1BC0F9
:103B700080912E0490912F0493FF19C081E090E072
:103B80000E94FB17092E000CAA0BBB0B8093260486
:103B900090932704A0932804B093290480912E04C5
:103BA00090912F04977F90932F0480932E040E946E
:103BB0005D198FB182958F709091210480932104BB
:103BC000209137042330F0F089278C2380FF05C033
:103BD00090911D049F5F90931D0481FF05C09091FB
:103BE0001E049F5F90931E0482FF05C090911F04E6
:103BF0009F5F90931F0483FF05C0809120048F5F17
:103C00008093200480910601909107010197909381
:103C1000070180930601892BD1F520911D04809125
:103C20002D0390E0820F911D9595879580932D032C
:103C300020911E0480912E0390E0820F911D959596
:103C4000879580932E0320911F0480912F0390E08D
:103C5000820F911D9595879580932F0320912004C5
:103C60008091300390E0820F911D95958795809308
:103C7000300310921D0410921E0410921F04109223
:103C8000200488E592E090930701809306019091CB
:103C9000310390FF04C081E020912D03211180E0C9
:103CA00091FF05C020912E03211101C0826092FF77
:103CB00005C020912F03211101C0846093FF05C02E
:103CC00090913003911101C0886080931903809115
:103CD0002C03833051F4629B08C081E080932C0355
:103CE0008091B0038E7F8093B003FF91EF91CF91CD
:103CF000BF91AF919F918F917F916F915F914F9104
:103D00003F912F910F900FBE0F901F9018958093A9
:103D1000AD0384FF02C0289801C0289A9091AD039A
:103D200095FF02C05D9801C05D9A8670869590915E
:103D300005019C7F892B8093050188E090E00C941D
:103D4000131C8EE495E09F938F93809104038F93CF
:103D5000809103038F930E949928809119040F90FA
:103D60000F900F900F9080FF06C06AE173E080E033
:103D700090E00E948F238091190485FF07C0609115
:103D8000010167FD03C080E00E947F1A8091190441
:103D900086FF07C06091000167FD03C081E00E94BB
:103DA0007F1A8091190487FF04C06FEF80E00E94A2
:103DB0007F1A8091190490911A04A0911B04B0916C
:103DC0001C0490FF04C06FEF81E00E947F1A1092E4
:103DD000190410921A0410921B0410921C040895E6
:103DE0008CE595E09F938F93809104038F9380914E
:103DF00003038F930E9499288FEF9FEFDC0180933C
:103E0000190490931A04A0931B04B0931C040F9000
:103E10000F900F900F900C94A11E8F3F19F4809378
:103E200000010FC0883058F490910001981749F0B4
:103E3000682F8093000181E00E94A51B02C08CEFD7
:103E4000089580E008958F3F19F4809301010FC019
:103E5000883058F490910101981749F0682F8093A9
:103E6000010180E00E94A51B02C08CEF089580E054
:103E700008950F931F93CF9387FF56C0C82FC19506
:103E80000C2F0C2E000C110B1F93CF9384E494E0A5
:103E90009F938F93809104038F93809103038F935B
:103EA0000E9499282FEF30E782E021503040804077
:103EB000E1F700C00000F8940F900F900F900F9062
:103EC0000F900F9080E0282F30E02017310704F585
:103ED0002F9A9091AD0391609093AD039FEF20E7EF
:103EE00032E0915020403040E1F700C000002F98B0
:103EF0009091AD039E7F9093AD039FEF22E537E055
:103F0000915020403040E1F700C000008F5FDBCFD0
:103F1000C230C4F28FEF99E628E1815090402040F2
:103F2000E1F700C00000CECFCF911F910F9108950F
:103F30008091030118160CF0CFC1833009F4F3C04F
:103F400034F4813059F0823009F456C0C5C1843050
:103F500009F4A9C0853009F47FC1BEC18091500326
:103F60008F9380914F038F9380914E038F93809115
:103F70004D038F938091180481701F928F9384E377
:103F800094E09F938F93809104038F938091030318
:103F90008F930E94992880914D0390914E03A09198
:103FA0004F03B09150038093140490931504A09391
:103FB0001604B093170480E00E94231F0E943B1B4D
:103FC00081600E946E1B8091AF0381608093AF037C
:103FD00040E859EA63E070E080E00E94CE1482E09D
:103FE000809303012DB73EB7265F3F4F0FB6F8947D
:103FF0003EBF0FBE2DBF70C18091B00380FD6CC16C
:1040000040914D0350914E0360914F0370915003C6
:104010008091140490911504A0911604B091170496
:10402000841B950BA60BB70BBF93AF939F938F93F6
:104030007F936F935F934F938091180481701F92C9
:104040008F9380E294E09F938F93809104038F93EA
:10405000809103038F930E949928809118042DB7B3
:104060003EB7225F3F4F0FB6F8943EBF0FBE2DBF45
:1040700080FF57C080914D0390914E03A0914F0354
:10408000B09150038093140490931504A0931604E8
:10409000B093170440E05CEF6FEF7FEF80E00E9489
:1040A000CE1483E0ABC08091B00380FD15C1409178
:1040B0004D0350914E0360914F03709150038091D6
:1040C000140490911504A0911604B0911704841B58
:1040D000950BA60BB70BBF93AF939F938F937F93D3
:1040E0006F935F934F938091180481701F928F9309
:1040F00088EF93E09F938F93809104038F93809137
:1041000003038F930E949928809118042DB73EB71E
:10411000225F3F4F0FB6F8943EBF0FBE2DBF80FD0C
:1041200070C08EEF6BC08091B00380FDD5C0409110
:104130004D0350914E0360914F0370915003809155
:10414000140490911504A0911604B0911704841BD7
:10415000950BA60BB70BBF93AF939F938F937F9352
:104160006F935F934F938091180481701F928F9388
:104170008CE094E09F938F93809104038F938091C0
:1041800003038F930E949928809118042DB73EB79E
:10419000225F3F4F0FB6F8943EBF0FBE2DBF80FD8C
:1041A0002CC080914D0390914E03A0914F03B0918C
:1041B00050038093140490931504A0931604B093B5
:1041C000170481E00E94231F80914D0390914E03BC
:1041D000A0914F03B0915003809314049093150461
:1041E000A0931604B093170440E05CE060E070E038
:1041F00080E00E94CE1484E001C08DEF8093030123
:104200006BC080914D0390914E03805C9240209151
:10421000140430911504821B930B8D3B954068F775
:1042200080E00E94231F80914D0390914E03A09146
:104230004F03B09150038093140490931504A093FE
:104240001604B093170440E05CEF6FEF7FEF80E05F
:104250000E94CE1485E0D2CF8091B00380FD3CC097
:1042600040914D0350914E0360914F037091500364
:104270008091140490911504A0911604B091170434
:10428000841B950BA60BB70BBF93AF939F938F9394
:104290007F936F935F934F938091180481701F9267
:1042A0008F9384EE93E09F938F93809104038F9379
:1042B000809103038F930E949928809118042DB751
:1042C0003EB7225F3F4F0FB6F8943EBF0FBE2DBFE3
:1042D00080FD93CF109203018091020118160CF01B
:1042E000BDC1833009F4F4C034F4813059F0823018
:1042F00009F455C00895843009F4A8C0853009F444
:104300006DC10895809175038F93809174038F938D
:10431000809173038F93809172038F93809118041F
:1043200082701F928F9384ED93E09F938F9380917F
:1043300004038F93809103038F930E9499288091A7
:10434000720390917303A0917403B09175038093ED
:10435000100490931104A0931204B093130480E00E
:104360000E940D1F0E943B1B82600E946E1B809169
:10437000AF0382608093AF0340E853EF6FEF7FEFAE
:1043800081E00E94CE1482E0809302018DB79EB737
:104390000A960FB6F8949EBF0FBE8DBF0895809108
:1043A000B00381FD5BC14091720350917303609132
:1043B0007403709175038091100490911104A09181
:1043C0001204B0911304841B950BA60BB70BBF937B
:1043D000AF939F938F937F936F935F934F9380914E
:1043E000180482701F928F9380EC93E09F938F93B9
:1043F000809104038F93809103038F930E949928E7
:10440000809118042DB73EB7225F3F4F0FB6F89446
:104410003EBF0FBE2DBF81FF57C0809172039091A8
:104420007303A0917403B09175038093100490936B
:104430001104A0931204B093130440E051E060E033
:1044400070E081E00E94CE1483E03FC08091B00311
:1044500081FD04C140917203509173036091740314
:10446000709175038091100490911104A091120431
:10447000B0911304841B950BA60BB70BBF93AF939E
:104480009F938F937F936F935F934F9380911804C3
:1044900082701F928F9388E993E09F938F9380910E
:1044A00004038F93809103038F930E949928809136
:1044B00018042DB73EB7225F3F4F0FB6F8943EBFAA
:1044C0000FBE2DBF81FD60C08EEF80930201089565
:1044D0008091B00381FDC2C040917203509173037B
:1044E0006091740370917503809110049091110490
:1044F000A0911204B0911304841B950BA60BB70B6B
:10450000BF93AF939F938F937F936F935F934F93DB
:104510008091180482701F928F938CEA93E09F938E
:104520008F93809104038F93809103038F930E9454
:104530009928809118042DB73EB7225F3F4F0FB6E0
:10454000F8943EBF0FBE2DBF81FD1CC08091720349
:1045500090917303A0917403B0917503809310043C
:1045600090931104A0931204B093130481E00E946D
:104570000D1F40E05DEF6FEF7FEF81E00E94CE14F2
:1045800084E0A3CF8DEFA1CF80911004909111040E
:104590009A952091720330917303821B930B8130A3
:1045A000914080F780E00E940D1F809172039091EE
:1045B0007303A0917403B0917503809310049093DA
:1045C0001104A0931204B093130440E450E060E09F
:1045D00070E081E00E94CE1485E077CF8091B00337
:1045E00081FD3CC04091720350917303609174034C
:1045F000709175038091100490911104A0911204A0
:10460000B0911304841B950BA60BB70BBF93AF930C
:104610009F938F937F936F935F934F938091180431
:1046200082701F928F9384E893E09F938F93809181
:1046300004038F93809103038F930E9499288091A4
:1046400018042DB73EB7225F3F4F0FB6F8943EBF18
:104650000FBE2DBF81FD96CF109202010895CF931A
:10466000C82F80E58CBD1DBC2C9881E40E94AB1145
:104670008C2F0E94AB118FEF0E94AB112C9ACF911F
:1046800008951F93CF93DF931F92CDB7DEB7182FF6
:1046900080E58CBD1DBC2C9880E469830E94AB1121
:1046A000812F0E94AB116981862F0E94AB112C9A39
:1046B0000F90DF91CF911F9108950F931F93CF9388
:1046C000DF931F92CDB7DEB78B0149830E9428117B
:1046D000498187FD05C0F8019081491708F48CEFE6
:1046E0000F90DF91CF911F910F910895EF92FF925C
:1046F0001F93CF93DF93EB0111E17C01E61AF70AD8
:10470000115039F0C7018C0F9D1F0E94412C8993D5
:10471000F7CFDF91CF911F91FF90EF900895EF9227
:10472000FF920F931F93CF93DF937C018B01C0E027
:10473000D0E0F80161918F01CE018E0D9F1D0E9486
:10474000492C2196C031D105A1F7DF91CF911F915E
:104750000F91FF90EF900895A3E1B0E0E2EBF3E258
:104760000C9428276C014B012A01FC011782168248
:10477000838181FF43C3AE014F5F5F4F3A01F60172
:104780009381F40193FD859193FF81914F018823DB
:1047900009F430C3853239F493FD859193FF8191FB
:1047A0004F01853239F4B60190E00E94B4285201DD
:1047B0002501E5CF10E0F12C20E02032A0F48B326F
:1047C00069F030F4803259F0833269F420612CC0F2
:1047D0008D3239F0803339F4216026C022602460A4
:1047E00023C0286021C027FD27C030ED380F3A30A4
:1047F00078F426FF06C0FAE01F9F300D1124132F16
:1048000013C04AE0F49E300D1124F32E20620CC038
:104810008E3221F426FDEEC2206406C08C3611F4DF
:10482000206802C0883641F4F40193FD859193FF1E
:1048300081914F018111C1CF9BEB980F933018F4F8
:104840002061805E06C09BE9980F933008F071C12B
:104850002F7E26FF16E02F73322E853619F4206442
:10486000322E08C0863621F4F22FF0683F2E02C0A7
:104870001111115037FE07C01C3350F4EE24E3949D
:10488000E10E27E00BC0183038F027E017E005C034
:1048900027E04CE3E42E02C0212FE12C520144E03A
:1048A000A40EB11CF20160817181828193810E2D71
:1048B000A3010E945F272C01098100FF02C003FFB2
:1048C00007C031FC08C032FE09C030E2232E07C009
:1048D0002DE2222E04C09BE2292E01C0212C802F24
:1048E0008C7019F0211068C2A8C237FE0FC0E40C0A
:1048F00004FF04C08A81813309F4EA941E1474F51C
:10490000F8E0FE1578F588E0E82E2CC036FC2AC0C9
:10491000812F90E0841595059CF02CEF42162FEF27
:10492000520674F0432D4068342E0AC0E2E0F0E0F5
:10493000EC0FFD1FE10FF11D8081803319F4115040
:104940001111F4CF37FE0EC0EE24E394E10E812F57
:1049500090E0481659062CF4141904C0EE24E39490
:1049600001C010E037FE06C01414150434F4C2016F
:10497000019605C085E090E002C081E090E0211042
:104980000196112331F0212F30E02F5F3F4F820F2E
:10499000931F2F2D30E08217930714F4F81A01C0EB
:1049A000F12C832D897049F4FF2039F0B60180E2A3
:1049B00090E00E94B428FA94F7CF222029F0B601A3
:1049C000822D90E00E94B42833FC09C0FF2039F00A
:1049D000B60180E390E00E94B428FA94F7CF37FE46
:1049E0005AC0942D852D57FE02C090E080E0292EFC
:1049F000382E20E030E0A2014E1951095D874C8726
:104A0000A201421953095F874E87612F70E0442746
:104A10005527461B570B598B488B5FEF25163506DC
:104A200049F4B6018EE290E02A8B3B8B0E94B428B9
:104A30003B892A89421453046CF04C855D854215EC
:104A4000530544F4EE85FF85E20FF31FE60DF71DD5
:104A5000818101C080E351E0251A31082F5F3F4F6B
:104A600048895989241635064CF0B60190E02A8B06
:104A70003B8B0E94B4282A893B89CFCF241435046C
:104A800039F49A81963318F4953311F404FF81E3D5
:104A9000B60190E04BC08A81813309F00F7EB601E8
:104AA00090E00E94B428111105C034FC18C085E6BE
:104AB00090E017C0B6018EE290E00E94B42882E038
:104AC000EE24E394E80EF301E80FF11D8081B601B6
:104AD00090E00E94B42811508E2D91F7E6CF85E426
:104AE00090E0B6010E94B42857FC05C0411451045F
:104AF00039F404FF05C05194419451088DE201C07E
:104B00008BE2B60190E00E94B42880E39AE0491657
:104B100051042CF08F5F5AE0451A5108F7CFB601C7
:104B200090E00E94B428B601C201C0960E94B42849
:104B300057C1833631F0833779F0833509F058C097
:104B400021C05201E2E0AE0EB11CF20180818983E6
:104B500001E010E0230114C05201F2E0AF0EB11CDD
:104B6000F2014080518026FF03C0612F70E002C037
:104B70006FEF7FEFC2012A8B0E9450288C012A8997
:104B80002F7715C05201F2E0AF0EB11CF201408048
:104B9000518026FF03C0612F70E002C06FEF7FEFEE
:104BA000C2012A8B0E9445288C012A892068322E56
:104BB00023FD1AC08F2D90E008171907A8F4B6013D
:104BC00080E290E00E94B428FA94F4CFF20137FC1E
:104BD000859137FE81912F01B60190E00E94B428A3
:104BE000F110FA94015011090115110579F7F8C077
:104BF000843611F0893659F5520127FF09C0F4E0D7
:104C0000AF0EB11CF20160817181828193810AC073
:104C1000F2E0AF0EB11CF20160817181072E000C31
:104C2000880B990B2F76322E97FF09C090958095AF
:104C3000709561957F4F8F4F9F4F2068322E2AE0ED
:104C400030E0A3010E940529E82EE6183FC0022F9C
:104C5000853721F40F7E2AE030E01DC0097F8F36B2
:104C600091F018F4883559F0C5C0803719F08837AD
:104C700011F0C0C0006104FF09C0046007C024FF38
:104C800008C0066006C028E030E005C020E130E042
:104C900002C020E132E0520107FF09C0F4E0AF0E8C
:104CA000B11CF201608171818281938108C0F2E0C0
:104CB000AF0EB11CF2016081718180E090E0A30130
:104CC0000E940529E82EE6180F77302E36FE0BC01D
:104CD000332D3E7FE11650F434FE0AC032FC08C08A
:104CE000332D3E7E05C00E2D332D03C00E2D01C089
:104CF000012F34FF0CC0FE01EE0DF11D80818033C9
:104D000011F4397E08C032FF05C00E5F04C0832F46
:104D1000867809F00F5F33FD13C030FF06C01E2DEB
:104D20000F1518F41F0D101B0F2D0F1568F4B60189
:104D300080E290E03B8B0E94B4280F5F3B89F5CF67
:104D40000F1510F4F01A01C0F12C34FF12C0B60197
:104D500080E390E03B8B0E94B4283B8932FF17C070
:104D600031FD03C088E790E002C088E590E0B6011D
:104D70000CC0832F867859F031FF02C08BE201C04E
:104D800080E237FD8DE2B60190E00E94B428E11682
:104D900038F4B60180E390E00E94B4281150F7CFB8
:104DA000EA94F301EE0DF11D8081B60190E00E94BE
:104DB000B428E110F5CF14C0F4E0FF1558F584E0F5
:104DC000F81A33FE1EC0211026C003FF2AC00CEAC9
:104DD00010E0F32DF0713F2EF8018491811124C071
:104DE000FF2009F4E5CCB60180E290E00E94B428EF
:104DF000FA94F6CFF6018681978126C08FEF9FEF58
:104E000023C0B60180E290E00E94B428FA94F11029
:104E1000F8CFD9CFF12CB601822D90E00E94B428B2
:104E2000D4CF00EB10E0D5CF31108052B60190E026
:104E30000E94B4280F5F1F4FCFCF23E02F1510F42F
:104E400083E0BECFF12CC1CF6396E2E10C944427FE
:104E50002F923F924F925F926F927F928F929F928A
:104E6000AF92BF92CF92DF92EF92FF920F931F9378
:104E7000CF93DF93CDB7DEB7CA1BDB0B0FB6F89429
:104E8000DEBF0FBECDBF09942A88398848885F8469
:104E90006E847D848C849B84AA84B984C884DF80DA
:104EA000EE80FD800C811B81AA81B981CE0FD11DBE
:104EB0000FB6F894DEBF0FBECDBFED0108952830C8
:104EC00008F027E03327DA01990F311D87FD916043
:104ED00000966105710539F432602E5F3D9330E331
:104EE0002A95E1F708959F3F30F0803871056105FC
:104EF00009F03C5F3C5F3D93913008F08068911D64
:104F0000DF93CF931F930F93FF92EF92192F987F08
:104F10009695E92F96959695E90FFF27E25FFE4F4C
:104F200099273327EE24FF24A701E7010590089471
:104F3000079428F4360FE71EF81E491F511D660F0F
:104F4000771F881F991F0694A1F70590079428F4EE
:104F5000E70EF81E491F561FC11D770F881F991FA6
:104F6000661F0694A1F70590079428F4F80E491FD0
:104F7000561FC71FD11D880F991F661F771F0694E4
:104F8000A1F70590079420F4490F561FC71FD81F9B
:104F9000990F661F771F881F0694A9F784911095B3
:104FA000177041F0D695C79557954795F794E794B4
:104FB0001A95C1F7E4EBF0E06894159015913591DE
:104FC0006591959105907FE27395E118F10A430B85
:104FD000560BC90BD009C0F7E10CF11E431F561F39
:104FE000C91FD01D7EF4703311F48A95E6CFE89482
:104FF000015030F0080F0AF40027021708F4202FA0
:105000002395022F7A3328F079E37D932A95E9F7E7
:1050100010C07D932A9589F60694979567953795E4
:1050200017951794E118F10A430B560BC90BD009D9
:1050300098F023957E9173957A3308F070E37C9312
:105040002013B8F77E9170617D9330F0839571E302
:105050007D9370E32A95E1F71124EF90FF900F9173
:105060001F91CF91DF91992787FD90950895FB01BE
:10507000DC014150504030F08D910590801919F4B9
:105080000020B9F7881B990B0895FC010590615029
:1050900070400110D8F7809590958E0F9F1F08954E
:1050A000FC016150704001900110D8F780959095F7
:1050B0008E0F9F1F0895CF93DF93EC012B8120FF6C
:1050C00033C026FF0AC02F7B2B838E819F810196E0
:1050D0009F838E838A8190E029C022FF0FC0E881E0
:1050E000F9818081082E000C990B009719F4206239
:1050F0002B831AC03196F983E8830EC0EA85FB85BD
:10510000099597FF09C02B81019611F080E201C03B
:1051100080E1822B8B8308C02E813F812F5F3F4F20
:105120003F832E83992702C08FEF9FEFDF91CF91AE
:105130000895A0E0B0E0EFE9F8E20C9436270F8183
:105140001885F801838188608383AE01455F5F4FD6
:1051500069857A85C8010E94AC23F8012381277FE5
:105160002383E4E00C9452270F931F93CF93DF9394
:10517000FB01238121FD03C08FEF9FEF28C022FF99
:1051800016C046815781248135814217530744F464
:10519000A081B1819D012F5F3F4F318320838C938C
:1051A000268137812F5F3F4F3783268310C0EB0165
:1051B000092F182F0084F185E02D0995892BE1F640
:1051C0008E819F8101969F838E83812F902FDF9107
:1051D000CF911F910F910895AEE0B0E0E2EFF8E2B9
:1051E0000C9438278DE08C838B899C899A838983E2
:1051F000AE01495E5F4F6D897E89CE0101960E94A6
:10520000E32A2E96E2E00C945427FA01AA272830CC
:1052100051F1203181F1E8946F936E7F6E5F7F4F83
:105220008F4F9F4FAF4FB1E03ED0B4E03CD0670FFF
:10523000781F891F9A1FA11D680F791F8A1F911D52
:10524000A11D6A0F711D811D911DA11D20D009F4A2
:1052500068943F912AE0269F11243019305D3193E4
:10526000DEF6CF010895462F4770405D4193B3E0CD
:105270000FD0C9F7F6CF462F4F70405D4A3318F074
:10528000495D31FD4052419302D0A9F7EACFB4E025
:10529000A6959795879577956795BA95C9F70097DD
:1052A0006105710508959B01AC010A2E069457957E
:1052B000479537952795BA95C9F7620F731F841FD5
:1052C000951FA01D089520FD09C0FC0123FD05C008
:1052D00022FF02C07383628351834083089544FD9B
:1052E00010C046FD10C0DB01FC01AA0FBB1FEE1F62
:1052F000FF1F1094D1F76A0F7B1F8E1F9F1F31E095
:1053000003C033E001C034E0660F771F881F991F88
:105310003150D1F7620F711D811D911D08950F93BA
:105320001F93CF93DF938C01C8010E945B28EC018F
:1053300097FD08C00E94112C892BB1F7B801CE014E
:105340000E94252CCE01DF91CF911F910F910895DE
:10535000A1E0B0E0EEEAF9E20C942E278C01C62E13
:105360007A0129830E945B28AC01552729814B32A1
:10537000510521F04D32510569F42068CA94C110DD
:1053800002C080E076C0C80129830E945B28298181
:1053900097FDF7CF322F3D7FD32E322F307349F553
:1053A000803339F5BB24BA94BC0C09F44EC0C80153
:1053B00029830E945B28298197FD47C0382F3F7DB4
:1053C000383569F48D2D8264D82ECA94CA94CC20C5
:1053D000E1F1C8010E945B2897FF0BC036C026FF91
:1053E00004C02D2D2260D22E03C03D2D3261D32E5C
:1053F000CB2C812C912C540120ED280F283080F0EB
:10540000D4FE04C0B8010E94252C1CC02A3040F0F4
:10541000D6FEF8CF2F7D3FEE320F363098F727506B
:105420004D2DC501B4010E946F294B015C018D2DEA
:105430008260D82ECA94CC2059F0C8010E945B2803
:1054400097FFDACFD1FC04C09CCF812C912C540162
:10545000D7FE08C0B094A09490948094811C911CB5
:10546000A11CB11C2D2DB501A401C7010E94632907
:1054700081E02196ECE00C944A27A1E2B0E0E3E45D
:10548000FAE20C942C275C017A01CE0101966C01A2
:1054900080E2F60111928A95E9F7F501838040E0F8
:1054A00050E0912C712C70E0A1E0B0E0F90183FC98
:1054B000859183FE81918F01982F9F01811103C0F7
:1054C00080E090E07CC08E3519F44115510549F11A
:1054D000E72FF0E0E417F5073CF48D3559F18D32F4
:1054E00019F4772001F103C0711001C0982E892FA3
:1054F0008695869586958601080F111D892F8770E0
:105500003D0101C0660C8A95EAF7F8018081862981
:105510008083991559F0991510F49F5FE8CF915049
:10552000E6CF71E004C07724739401C0712C4F5F03
:105530005F4FBCCF772019F08E8180628E8371110E
:1055400003C09924939416C0F6019E012F5D3F4F2E
:10555000808180958193E217F307D1F7F2CFE114B0
:10556000F10429F0F7018083C70101967C016150A5
:10557000912CF9F0C50169A30E945B2869A197FDF0
:1055800016C0282F269526952695F601E20FF11DC7
:10559000208130E0AC014770552702C03595279532
:1055A0004A95E2F720FDDBCFB5010E94252C911032
:1055B00087CFE114F10411F0F7011082C801A19620
:1055C000EEE00C9448274F925F927F928F929F92C9
:1055D000AF92BF92CF92DF92EF92FF920F931F9301
:1055E000CF93DF931F92CDB7DEB76C012B015A0129
:1055F000FC0117821682712CF601F380F201F3FC94
:105600008591F3FE8191382F2F01882309F4F3C08F
:1056100090E039830E94112C3981892B21F0C60139
:105620000E948F29E9CF353241F4F201F3FC359124
:10563000F3FE31912F01353269F4C60139830E949E
:105640005B28398197FDD5C03817B1F2B6010E94A9
:10565000252CD1C03A3239F4F3FC3591F3FE319167
:105660002F0151E001C050E0420110E020ED230F76
:105670002A3090F45260612F70E080E090E040E2C8
:1056800059830E946F29162FF401F3FC3591F3FE24
:1056900031914F015981EACF052F232F240151FF6A
:1056A00003C0111102C0A7C01FEF383619F03C36F5
:1056B00059F011C0F401F3FC2591F3FE21912F0163
:1056C000283649F4052F08600460F201F3FC2591A7
:1056D000F3FE21912F01222309F48DC0622F70E087
:1056E0008EEA91E029830E941A2C2981892B09F4E2
:1056F00082C000FD07C0F501E080F180C50102967F
:105700005C0102C0E12CF12C2E3651F4F6014681E9
:10571000578160E070E0202FC7010E9463296CCFA1
:10572000233691F401FF11E0C6010E945B2897FD2A
:1057300060C0E114F10429F0F7018083C7010196EC
:105740007C01115089F751C02B3559F49201A70102
:10575000612FC6010E943D2A2C01892B09F045C00A
:105760003FC0C60129830E948F29298197FD41C02E
:105770002F3659F128F4243631F1293649F127C062
:10578000233769F02537F9F022C0E114F10429F03C
:10579000F7018082C70101967C01115071F0C601AA
:1057A0000E945B284C0197FD08C00E94112C892B98
:1057B00061F3B601C4010E94252CE114F104A9F0A3
:1057C000F701108212C0006203C0006101C00064D2
:1057D000202FA701612FC6010E94A829811105C0B1
:1057E000F6018381807329F406C000FD05CF739410
:1057F00003CF772019F0872D90E002C08FEF9FEF45
:105800000F90DF91CF911F910F91FF90EF90DF905C
:10581000CF90BF90AF909F908F907F905F904F9070
:10582000089591110C943E2C803219F089508550C6
:10583000C8F70895FC010590061621F00020D9F75D
:10584000C00108953197CF010895FB01238120FF06
:1058500012C026FD10C08F3F3FEF930761F0828397
:105860002F7D20642383268137812150310937839E
:105870002683992708958FEF9FEF0895992788270A
:105880000895F999FECF92BD81BDF89A992780B508
:105890000895262FF999FECF92BD81BDF89A019700
:1058A00000B4021639F01FBA20BD0FB6F894FA9A68
:1058B000F99A0FBE08955058BB27AA270E94732C4F
:1058C0000C94E62D0E94D82D38F00E94DF2D20F098
:1058D00039F49F3F19F426F40C94D52D0EF4E0957D
:1058E000E7FB0C94CF2DE92F0E94F72D58F3BA1740
:1058F000620773078407950720F079F4A6F50C94E6
:10590000192E0EF4E0950B2EBA2FA02D0B01B90124
:1059100090010C01CA01A0011124FF27591B99F025
:10592000593F50F4503E68F11A16F040A22F232F31
:10593000342F4427585FF3CF469537952795A79581
:10594000F0405395C9F77EF41F16BA0B620B730B28
:10595000840BBAF09150A1F0FF0FBB1F661F771F99
:10596000881FC2F70EC0BA0F621F731F841F48F44E
:10597000879577956795B795F7959E3F08F0B0CFD7
:105980009395880F08F09927EE0F979587950895BE
:105990000E94AB2D08F481E008950E94E12C0C9444
:1059A000E62D0E94DF2D58F00E94D82D40F029F4FA
:1059B0005F3F29F00C94CF2D51110C941A2E0C94AA
:1059C000D52D0E94F72D68F39923B1F3552391F358
:1059D000951B550BBB27AA2762177307840738F05E
:1059E0009F5F5F4F220F331F441FAA1FA9F335D0BB
:1059F0000E2E3AF0E0E832D091505040E695001C6F
:105A0000CAF72BD0FE2F29D0660F771F881FBB1F28
:105A1000261737074807AB07B0E809F0BB0B802D06
:105A2000BF01FF2793585F4F3AF09E3F510578F032
:105A30000C94CF2D0C941A2E5F3FE4F3983ED4F3D0
:105A4000869577956795B795F7959F5FC9F7880F06
:105A5000911D9695879597F90895E1E0660F771F58
:105A6000881FBB1F621773078407BA0720F0621BE9
:105A7000730B840BBA0BEE1F88F7E09508950E9414
:105A8000FF2D88F09F5798F0B92F9927B751B0F0A4
:105A9000E1F0660F771F881F991F1AF0BA95C9F7B2
:105AA00014C0B13091F00E94192EB1E008950C9409
:105AB000192E672F782F8827B85F39F0B93FCCF3BC
:105AC000869577956795B395D9F73EF4909580952F
:105AD000709561957F4F8F4F9F4F0895E89409C04F
