:100000000C9404030C9421030C9421030C942103FD
:100010000C9421030C9421030C9421030C942103D0
:100020000C9421030C9421030C9421030C942103C0
:100030000C9421030C9421030C9421030C942103B0
:100040000C9421030C94C8120C9421030C942103EA
:100050000C9421030C9416200C9421030C94041F7F
:100060000C9421030C94C21E0C9421030C94931E37
:100070000C9421030C9421030C9421030C94210370
:100080000C9421030C9421030C9421030C94210360
:100090000C9421030C9421030C9421030C94210350
:1000A0000C9421030C9421030C9421036E616E00C7
:1000B000696E660000407A10F35A00A0724E18096B
:1000C0000010A5D4E80000E87648170000E40B54BF
:1000D000020000CA9A3B000000E1F505000080968E
:1000E0009800000040420F000000A08601000000C0
:1000F000102700000000E80300000000640000007A
:1001000000000A00000000000100000000002C7642
:10011000D888DC674F0823DFC1DFAE59E1B1B7965D
:10012000E5E3E453C63AE651997696E8E6C28426BA
:10013000EB898C9B62ED407C6FFCEFBC9C9F40F296
:10014000BAA56FA5F490055A2AF75C936B6CF96712
:100150006DC11BFCE0E40D47FEF520E6B500D0EDD7
:10016000902E0300943577050080841E080000203F
:100170004E0A000000C80C333333330F986E1283DD
:100180001141EF8D2114893BE65516CFFEE6DB18B1
:10019000D1844B381BF77C1D901DA4BBE424203276
:1001A00084725E228100C9F124ECA1E53D276364DD
:1001B000696E6F70737578585B00736C615F63660E
:1001C000675F6C6F61640A00736C615F6366675F91
:1001D000696E69740A00746D63323133305F696E21
:1001E0006974282920253032780A0073746172748A
:1001F0000A007570776D00767261770074726177AE
:1002000000626F6F74007769646C0066616E6500F0
:100210006670776D007070776D00766F6C74007229
:10022000736D650072737374007273656E00746928
:100230006C730074776C73006563686F0074696336
:100240007300747763730074696366007477636620
:10025000007469706F007477706F0074696D61006D
:1002600074776D6100656577780065657278006503
:1002700065636C0074656D70006672706D00746902
:1002800073670074777367007469686F00747768C8
:100290006F00746963750074776375007477646EBA
:1002A0000074777570006D6F74720074656D750001
:1002B00074656D730066616E7300636F76730063BF
:1002C0006C656400756C6564007368646E00706CC6
:1002D00065640062656570006C6F6700657272002E
:1002E000656E64006D6F7400646972006C65640013
:1002F000656E6100736572007665720072737400DA
:10030000256C692000253032780000534C412D6364
:100310006F6E74726F6C2025642E25642E25642DFB
:10032000256425532000256C75256E002569256EF2
:1003300000256C69256E006525640A006F6B0A0054
:100340004552524F523A20636F6D6D616E64206F5B
:10035000766572666C6F770A004552524F523A20AA
:10036000727820627566666572206F766572666C5B
:100370006F770A002575200025752000256920006B
:100380002569200025686875256E002575256E0095
:1003900025686869256E0066018801AC01D301FA01
:1003A0000123024C0275029D02C502EA020E032FD0
:1003B000034D03690381039603A903B903C703D25D
:1003C00003DB03E303EA03EF03F303F603F803FAA3
:1003D00003FC03FD03FE03FE03FF03237469686F40
:1003E000342D20256420256C6420256C640A0023AC
:1003F0007469686F332D20256420256C6420256C7A
:10040000640A00237469686F322D20256420256CEE
:100410006420256C640A00237469686F312D2025DF
:100420006420256C6420256C640A00237469686F5D
:10043000302D20256420256C640A00237477686FB2
:10044000342D20256420256C6420256C640A00234B
:100450007477686F332D20256420256C6420256C0B
:10046000640A00237477686F322D20256420256C80
:100470006420256C640A00237477686F312D202571
:100480006420256C6420256C640A00237477686FEF
:10049000302D20256420256C640A006572726F720D
:1004A0002025640A00C0030005140014001707800B
:1004B0000C00000000E001D002320032001406A05F
:1004C0000F00000000C0030005140014001808DC31
:1004D000050000000064009600320032001400DCC9
:1004E0000500000000640020030C000C00200AD06E
:1004F0000700000000640020030C000C001207D06D
:100500000700000000BC0220030C000C003F14D0C8
:100510000700000000C0031405320032000F037E04
:1005200004000000009808983A96009600120658B9
:100530000200000000C4094C1D5E015E010C02783F
:100540000500000000800C983AFA00FA000A0398AF
:10055000080000000064009600320032000F00DC4A
:100560000500000000800CC044FA00FA002206F4E6
:100570000100000000800CC044FA00FA001206F4EA
:10058000010000000040068025C800C8003F04F4B8
:10059000010000000040068025C800C8000700DCFC
:1005A0000500000000736C615F6366675F736176CE
:1005B000650A00736C615F6366675F646566617599
:1005C0006C740A0039015B017F01A601CF01FA01B9
:1005D000250252027E02A902D202FA021F0341033F
:1005E0005F037A039203A603B703C603D203DC03B7
:1005F000E403EA03EF03F403F703F903FB03FC034B
:10060000FD03FE03FF03FF0311241FBECFEFDAE05B
:10061000DEBFCDBF24E0A0EAB2E001C01D92A2344B
:10062000B207E1F712E0A0E0B1E0E2E0F2E602C0DA
:1006300005900D92A03AB107D9F70E9423030C94BC
:10064000FF300C940000CF93DF93CDB7DEB7A997AE
:100650000FB6F894DEBF0FBECDBFF894A89584B74F
:10066000877F84BF98E19093600010926000789437
:100670001092D7001092D80085E18093C5008FE0DA
:100680008093C60080E880936100109261003F9AD9
:10069000479A8091C80082608093C80080E180936F
:1006A000CC009093C9008091C90080688093C900F4
:1006B0008CE38093BE021092BF021092C0028CE0C5
:1006C0008093AE021092AF021092B00280EA92E0E4
:1006D0002FE231E13093A9022093A80226E131E113
:1006E0003093AB022093AA0223E02093A30210923E
:1006F000AD021092AC025A9A90933D0480933C0450
:1007000090933F0480933E049093D6038093D50347
:100710009093D4038093D3039093050380930403B1
:100720002BEE31E03F932F939F938F930E94602A8B
:1007300088EC91E09F938F93809105038F93809134
:1007400004038F930E94602A81E2E1E0F0E080934D
:100750005700E491E0933B03E3E0F0E0809357001F
:10076000E491E0933C03E5E0F0E080935700E491EE
:10077000E0933D03EEE0F0E080935700E491E093D6
:100780003E03EFE0F0E080935700E491E0933F03F5
:10079000E1E1F0E080935700E491E0934003E2E16F
:1007A000F0E080935700E491E0934103E3E1F0E04F
:1007B00080935700E491E0934203E5E1F0E08093F9
:1007C0005700E491E0934303E6E1F0E080935700A3
:1007D000E491E0934403E7E1F0E080935700E49173
:1007E000E0934503E8E3F0E080935700E491E09361
:1007F0004603EAE3F0E080935700E491E093470377
:10080000E0E0F0E080935700E491E0934803E2E0F9
:10081000F0E080935700E491E0934903E4E0F0E0D6
:1008200080935700849180934A03BE016F5E7F4F8F
:1008300080E090E00E94D82440E150E06BE373E058
:10084000CE0141960E94C8300FB6F894DEBF0FBEAD
:10085000CDBF892B19F00E9406243CC08AEB91E0A1
:100860009F938F93809105038F93809104038F93BF
:100870000E94602A0F900F900F900F9000E011E0FF
:10088000BE016F5F7F4FC8010E94D82489819A8181
:1008900081329E4400F78B819C8181329E44D8F640
:1008A0008D819E810C978D349240A8F68F8198851A
:1008B0000C978D34924078F68985803460F68B856C
:1008C0009C858938934138F6005F1F4F003851E00E
:1008D0001507B1F684B1817F84B984B1876084B98A
:1008E00085B1817F85B9289A80E58CBD1DBC8AB110
:1008F00082618AB98BB182618BB9EFEFF0E722E0B8
:10090000E150F0402040E1F700C00000249A2C9A0A
:100910002C982C9A60E080E00E94A32460EE81E095
:100920000E94A3246AE082E10E94A32460EE83E196
:100930000E94A32480E00E949124811156C281E08C
:100940000E949124803E09F050C21092FF02109242
:10095000FE0280917A00876080937A0080917C000B
:10096000806480937C0080917A00806880937A0014
:1009700083E080937E000E946E1E279A209A559AEB
:10098000509A2F9A289A5D9A589A81E08093CE03C4
:1009900084E1809356038093570380935803809398
:1009A000590380935A03259A269A2D982E98569883
:1009B0005798519A549A599A5C9A80E00E94F81D6F
:1009C000182F111F1127111F81E00E94F81D87FFAA
:1009D00002C0126003C0112319F011E0106801C0B9
:1009E00010E0812F012E000C990B9F931F9386ED31
:1009F00091E09F938F93809105038F9380910403DF
:100A00008F930E94602A0F900F900F900F900F907D
:100A10000F9017FF03C08EEF0E947D1162E280E00D
:100A20000E94591D66E080E00E94481D68E181E057
:100A30000E94591D68E081E00E94481D3FEF40E799
:100A400052E0315040405040E1F700C0000082E4E5
:100A50008F9380EA8F931F921F92A12CB12C30EAC2
:100A6000C32E32E4D32EE12CF12C00EB11E420E074
:100A700030E040E850E460E273E080E00E94011C56
:100A80008FE38F9380E88F931F921F92A12CB12C3C
:100A900050E8C52E5FE3D52E1DECE12E1CECF12EA7
:100AA0000CEC1EE32AE939E949E95EE360E87CE001
:100AB00081E00E94011C809181008F7E80938100E3
:100AC00080918100886080938100809180008D7F7B
:100AD00080938000809180008E7F80938000809141
:100AE00080008F7380938000809180008F7C809342
:100AF000800080918100887F82608093810080E007
:100B000092E0909389008093880010928500109263
:100B1000840080916F00826080936F0013E01093D7
:100B2000D00380B38F7080BB81B3806F81BB80E0C6
:100B300090E00E94002080917100817F809371007D
:100B4000109290008AE08093910010929900109288
:100B5000980010929B0010929A0010929D001092A3
:100B60009C0010929500109294003E9A469880EE58
:100B700098E0909399008093980080E4809390008F
:100B800082E390E090935403809353031092000308
:100B900010920103109202031092030314BC15BDBE
:100BA00086E086BD80916E00816080936E0084B582
:100BB000836084BD8DE787BD80916E0082608093E5
:100BC0006E000FB6F894DEBF0FBECDBF7E0195E27A
:100BD000E90EF11CDE0111966D0171E3A72E73E0A1
:100BE000B72EECE28E2EE3E09E2EF5E02F2EF3E002
:100BF0003F2E8BE393E0B0E1B80FB9A780910104D9
:100C0000909102048A97CCF08FEF22C08D30F1F0E2
:100C10008A30E1F02091010430910204F901E95297
:100C2000FC4F80838823A1F02F5F3F4F3093020455
:100C3000209301042A3231055CF48091D503909110
:100C4000D6030E94222A87FFE1CF02C080E0E2CFD4
:100C500020910104309102042A3231052CF03F9397
:100C60002F9380E493E0AAC0121613060CF0BAC0CA
:100C70008111B8C08091D203882381F06091D303A1
:100C80007091D40387ED93E00E94D5306091D30337
:100C90007091D4038AE090E00E947B2A1091D703E0
:100CA000113221F01F3311F08DEF79C0E091D8039C
:100CB000EE2309F413C38091DB038F7D09F099C003
:100CC00043E050E06CEF72E088ED93E00E94FE2973
:100CD000892B09F491C243E050E068EF72E088ED9F
:100CE00093E00E94FE29892B09F488C243E050E07A
:100CF00064EF72E088ED93E00E94FE29892B09F4ED
:100D00007FC243E050E060EF72E088ED93E00E9424
:100D1000FE29892B09F476C243E050E06CEE72E0C4
:100D200088ED93E00E94FE29892B09F46DC243E00F
:100D300050E068EE72E088ED93E00E94FE29892B76
:100D400009F464C243E050E064EE72E088ED93E0A1
:100D50000E94FE29892B09F45BC243E050E060EE5B
:100D600072E088ED93E00E94FE29892B09F452C2BB
:100D700043E050E06CED72E088ED93E00E94FE29C4
:100D8000892B09F449C243E050E068ED72E088ED38
:100D900093E00E94FE29892B09F440C28DEF482F71
:100DA000552741950CF450959A01882319F087E353
:100DB00093E002C08CE393E03F932F939F938F9334
:100DC0008091D4038F938091D3038F930E94602AE4
:100DD00010920204109201040F900F900F900F9048
:100DE0000F900F900E946B1609CF8FEF0E947D111C
:100DF000ACCD8091DC038F7D09F0FCC144E050E074
:100E000063ED72E088ED93E00E94FE29892B09F4DE
:100E100008C244E050E06EEC72E088ED93E00E947E
:100E2000FE29892B09F4FFC144E050E069EC72E02F
:100E300088ED93E00E94FE29892B09F4F6C144E075
:100E400050E064EC72E088ED93E00E94FE29892B6B
:100E500009F4EDC144E050E06FEB72E088ED93E0FF
:100E60000E94FE29892B09F4E4C144E050E06AEBBA
:100E700072E088ED93E00E94FE29892B09F4DBC122
:100E800044E050E065EB72E088ED93E00E94FE29BB
:100E9000892B09F4D2C144E050E060EB72E088EDA8
:100EA00093E00E94FE29892B09F4C9C144E050E077
:100EB0006BEA72E088ED93E00E94FE29892B09F429
:100EC000C0C144E050E066EA72E088ED93E00E9421
:100ED000FE29892B09F4B7C144E050E061EA72E0D1
:100EE00088ED93E00E94FE29892B09F4AEC144E00D
:100EF00050E06CE972E088ED93E00E94FE29892BB6
:100F000009F4A5C144E050E067E972E088ED93E0A0
:100F10000E94FE29892B09F49CC144E050E062E95B
:100F200072E088ED93E00E94FE29892B09F493C1B9
:100F300044E050E06DE872E088ED93E00E94FE2905
:100F4000892B09F48AC144E050E068E872E088ED3A
:100F500093E00E94FE29892B09F481C144E050E00E
:100F600063E872E088ED93E00E94FE29892B09F482
:100F700078C144E050E06EE772E088ED93E00E94B3
:100F8000FE29892B09F46FC144E050E069E772E063
:100F900088ED93E00E94FE29892B09F466C144E0A4
:100FA00050E064E772E088ED93E00E94FE29892B0F
:100FB00009F45DC144E050E06FE672E088ED93E033
:100FC0000E94FE29892B09F454C144E050E06AE6EE
:100FD00072E088ED93E00E94FE29892B09F44BC151
:100FE00044E050E065E672E088ED93E00E94FE295F
:100FF000892B09F442C144E050E060E672E088EDDC
:1010000093E00E94FE29892B09F439C144E050E0A5
:101010006BE572E088ED93E00E94FE29892B09F4CC
:1010200030C144E050E066E572E088ED93E00E9454
:10103000FE29892B09F427C144E050E061E572E004
:1010400088ED93E00E94FE29892B09F41EC144E03B
:1010500050E06CE472E088ED93E00E94FE29892B59
:1010600009F415C144E050E067E472E088ED93E0D4
:101070000E94FE29892B09F40CC144E050E062E48F
:1010800072E088ED93E00E94FE29892B09F403C1E8
:1010900044E050E06DE372E088ED93E00E94FE29A9
:1010A000892B09F4FAC044E050E068E372E088ED6F
:1010B00093E00E94FE29892B09F4F1C044E050E03E
:1010C00063E372E088ED93E00E94FE29892B09F426
:1010D000E8C044E050E06EE272E088ED93E00E94E8
:1010E000FE29892B09F4DFC044E050E069E272E098
:1010F00088ED93E00E94FE29892B09F4D6C044E0D4
:1011000050E064E272E088ED93E00E94FE29892BB2
:1011100009F4CDC044E050E06FE172E088ED93E067
:101120000E94FE29892B09F4C4C044E050E06AE122
:1011300072E088ED93E00E94FE29892B09F4BBC080
:1011400044E050E065E172E088ED93E00E94FE2902
:10115000892B09F4B2C044E050E060E172E088ED10
:1011600093E00E94FE29892B09F4A9C044E050E0D5
:101170006BE072E088ED93E00E94FE29892B09F470
:10118000A0C044E050E066E072E088ED93E00E9489
:10119000FE29892B09F497C044E050E061E072E039
:1011A00088ED93E00E94FE29892B09F48EC044E06B
:1011B00050E06CEF71E088ED93E00E94FE29892BEE
:1011C00009F485C044E050E067EF71E088ED93E0FA
:1011D0000E94FE29892B09F47CC044E050E062EFB4
:1011E00071E088ED93E00E94FE29892B09F473C019
:1011F0008DEFD5CD8DEFD3CD91E011C092E00FC032
:1012000093E00DC09CE00BC09DE009C09FE007C0CB
:1012100090E105C091E103C091E401C092E4E3E0F4
:101220005EC091E859C092E857C093E855C094E871
:1012300053C095E851C099E84FC09AE84DC09BE86B
:101240004BC09CE849C09DE847C09EE845C09FE868
:1012500043C095E941C096E93FC097E93DC098E990
:101260003BC099E939C09AE937C09DE935C09EE98C
:1012700033C09FE931C090EA2FC091EA2DC092EAB5
:101280002BC093EA29C094EA27C095EA25C096EAC4
:1012900023C097EA21C098EA1FC099EA1DC09AEAC4
:1012A0001BC09BEA19C09CEA17C09DEA15C09EEAC4
:1012B00013C09FEA11C090EB0FC091EB0DC092EBF1
:1012C0000BC093EB09C094EB07C095EB05C096EB00
:1012D00003C097EB01C098EBE4E001C090E00E2E54
:1012E000000CFF0BE852FC4F80818111FAC21132D1
:1012F00009F064C0973991F198F49338F9F09D386A
:1013000019F1913009F006C798E088E10FB6F8941A
:10131000A895809360000FBE90936000F8940DC074
:101320009F3971F118F4983911F1F4C6943BE1F149
:10133000953B09F0EFC60E94811EFFCF3F9A479868
:101340001092550380E02BCD80E00E9480238FEF28
:10135000809303018093020180E021CD8091D1032D
:1013600080FDDBC681E08093030180E018CD809191
:10137000D10381FDD5C681E08093020180E00FCDCD
:1013800000E010E06FEFC8010E94102E0F5F1F4FAA
:101390000115E4E01E07B1F780E001CD8091030163
:1013A00018163CF40E946B168091D1038370B1F340
:1013B000F9CF809102011816ACF3EECF1F3309F07C
:1013C000B2C6993909F4CAC108F071C0923809F45B
:1013D00082C188F59D3009F46AC1A0F4923009F405
:1013E00020C120F4992309F4F6C0A0C6933009F473
:1013F0003AC19C3009F09AC60E9433230E94AB1276
:1014000080E0CDCC903109F458C148F49F3009F008
:101410008DC60E9429230E94AB1280E0C0CC91317E
:1014200009F452C1923409F081C68091CF030E9421
:10143000AB1280E0B4CC9B3809F473C1D8F4953872
:1014400009F458C158F4943809F070C68091CE035D
:10145000869581700E94AB1280E0A1CC993809F486
:1014600052C19A3809F062C6809152030E94AB12B1
:1014700080E095CC963909F464C168F49C3809F48D
:1014800058C1953909F052C680E00E94B01D0E94F3
:10149000AB1280E084CC973909F45AC1983909F02D
:1014A00045C6809102010E94791280E078CC9B3A77
:1014B00009F4EAC108F050C0953A09F4CDC190F59D
:1014C0009D3909F451C148F49A3909F02FC6809129
:1014D00015030E94AB1280E062CC9E3909F456C11C
:1014E000943A09F023C6809171038F938091700321
:1014F0008F9380916F038F9380916E038F9380E021
:1015000093E09F938F938091D4038F938091D30323
:101510008F930E94602A0FB6F894DEBF0FBECDBF36
:1015200080E03DCC983A09F4A3C150F4963A09F40E
:101530009BC1973A09F0FAC581E00E94BF1D2FCCEC
:10154000993A09F49BC19A3A09F0F0C58091D20307
:101550000E94791280E023CC913B09F465C1F8F434
:101560009D3A09F4AFC108F49EC19E3A09F4B1C195
:10157000903B09F0DBC580912B0390912C030E94D6
:10158000621280912D0390912E030E94621280912D
:101590002F03909130030E94621280E000CC963BB2
:1015A00009F40EC160F4923B09F444C1933B09F085
:1015B000BDC580911A030E94AB1280E0F0CB973B2F
:1015C00009F418C1983B09F0B1C5809106010E9449
:1015D000AB1280E0E4CB8091D1038370282F30E000
:1015E00030934C0320934B032091190327FD06C031
:1015F000806490E090934C0380934B0325FD09C0D9
:1016000080914B0390914C03806890934C0380939E
:101610004B0380914B0390914C030E94941280E005
:10162000BECB8AE093E09F938F931F9282EE8F93BD
:101630001F9284E08F931F9289E08F931F921F92D5
:101640008BE093E09F938F938091D4038F9380914D
:10165000D3038F930E94602A0FB6F894DEBF0FBEAB
:10166000CDBF80E09CCB7090D3036090D4030BE39C
:1016700013E0D8018D918D011F928F933F922F928D
:101680006F927F920E94602A0F900F900F900F90A0
:101690000F900F90B9A5B013ECCF6091D303709168
:1016A000D40380E290E00E947B2A80E078CB809196
:1016B000CE030E94AB1280E072CB8091D1038F7079
:1016C0000E94AB1280E06BCB8091D0038F700E94A0
:1016D000AB1280E064CB9091CE03892F817090FF94
:1016E00005C096FD02C081E001C082E00E94AB12FD
:1016F00080E055CB8091CE0382FB882780F90E9441
:10170000AB1280E04CCB80914B0390914C03880F3F
:10171000892F881F990B919581700E94AB1280E0F0
:101720003ECB80913503909136030E94621280E097
:1017300036CB80913303909134030E94621280E093
:101740002ECB81E00E94B01D0E94AB1280E027CB1F
:10175000809103010E94791280E021CB80910C03DB
:101760000E94AB1280E01BCB80914E030E94AB1213
:1017700080914F030E94AB12809150030E94AB12E4
:10178000809151030E94AB1280E009CB809133031A
:10179000909134030E946212809135039091360338
:1017A0000E94621280913703909138030E94621266
:1017B0008091390390913A030E94621280E0EFCA4F
:1017C00080912303909124030E946212809125034B
:1017D000909126030E946212809127039091280322
:1017E0000E9462128091290390912A030E94621242
:1017F00080E0D5CA80911B0390911C030E94621265
:1018000080911D0390911E030E94621280911F031C
:10181000909120030E9462128091210390912203F3
:101820000E94621280E0BBCA80915A030E94AB12F0
:1018300080E0B5CA809156030E94AB128091570395
:101840000E94AB12809158030E94AB128091590301
:101850000E94AB1280E0A3CA8091930390919403FD
:101860000E94621280E09BCA80E00E94BF1D97CA5E
:10187000809101010E94791280E091CA809100015B
:101880000E94791280E08BCA19821A821B821C8204
:10189000A60163E780E00E94AA1C89819A810E94C8
:1018A000941280E07CCA19821A821B821C82A601D3
:1018B00063E781E00E94AA1C89819A810E949412A8
:1018C00080E06DCA80914D0381700E94AB1280E070
:1018D00066CA8CB182FB882780F90E94AB1280E037
:1018E0005ECA803209F025C4113209F00DC48F019F
:1018F0000F5F1F4F963909F4E5C1A8F5913809F437
:10190000ECC0C0F4903109F49DC050F49D3009F44E
:1019100074C09F3009F480C09C3009F0F8C361C0E6
:10192000913409F4B3C0923409F4BDC0913109F087
:10193000EEC39AC0953809F454C130F4933809F4D1
:10194000BDC008F41BC137C19E3809F460C120F442
:101950009A3809F481C1DBC39F3809F46BC195390A
:1019600009F4A0C1D4C3973A09F4D0C2F0F4923A72
:1019700009F40EC250F49A3909F4C3C19F3909F42D
:10198000CFC1993909F0C3C3ADC1943A09F46CC20F
:1019900008F434C2953A09F48FC2963A09F0B7C3F5
:1019A000B80180E00E94EF1AFAC99D3A09F45AC3BF
:1019B00048F4993A09F4C1C208F4AEC29A3A09F45B
:1019C000CEC2A5C3913B09F4D9C220F49F3A09F4D1
:1019D00072C39DC3923B09F401C3983B09F4DDC275
:1019E00096C347E0B701C8010E94BF2487FDD7C94D
:1019F0008DA10E94802380E0D2C92FEF30E040E02B
:101A000050E0B701C8010E94221287FDC8C98DA10C
:101A10000E94422380E0C3C947E0B701C8010E9489
:101A2000BF2487FDBCC98DA1F0E18F9F90011124D7
:101A30009091D1039F70292B2093D1030E94712391
:101A400080E0ADC947E0B701C8010E94BF2487FD0F
:101A5000A6C98DA1982F9F708091D103807F892B7B
:101A60008093D10380E09BC947E0B701C8010E9481
:101A7000BF2487FD94C98DA1982F9F708091D003BA
:101A8000807F892B8093D00380E089C948E0B7012B
:101A9000C8010E94BF2487FD82C98DA181950E9443
:101AA0007D1180E07CC9B701C8010E943F1287FD0B
:101AB00076C98DA18093CF0380E071C9B701C801B9
:101AC0000E943F1287FD6BC98DA1811102C03F9A10
:101AD00047988093550380E062C928E833E140E1EC
:101AE00050E0B701C8010E94221287FD58C920E1C9
:101AF00037E240E050E0BE016F5D7F4FD801A80F94
:101B0000B11D87FDBA95CD010E94221287FD47C9FC
:101B100009A11AA16DA17EA180E090E00E94352F5D
:101B20002B013C0120E030E0A9010E948F2E8111A1
:101B300003C0109290001CC0A301920160E074E207
:101B400084E799E40E94942E20E030E040E05FE3D7
:101B50000E94222E0E94062F683C710510F468EC4A
:101B600070E0709399006093980080E480939000F7
:101B7000109354030093530380E011C942E0B7016E
:101B8000C8010E94BF2487FD0AC99DA18091CE0390
:101B9000923029F481640E94422380E000C98E7B48
:101BA000913029F481600E94422380E0F8C80E94AD
:101BB000422380E0F4C841E0B701C8010E94BF247D
:101BC00087FDEDC89DA18091CE03992329F0826005
:101BD0000E94422380E0E3C88D7F0E94422380E080
:101BE000DEC841E0B701C8010E94BF2487FDD7C805
:101BF0009DA18091CE03992329F084600E94422305
:101C000080E0CDC88B7F0E94422380E0C8C8B70126
:101C1000C8010E94FF1187FDC2C84DA15EA160E00E
:101C200070E080E00E94E51587FF02C08EEFB7C824
:101C300080E0B5C8B701C8010E94FF1187FDAFC899
:101C40004DA15EA160E070E0709560955095419562
:101C50005F4F6F4F7F4FE5CF4FE0B701C8010E9444
:101C6000BF2487FD9CC89DA1809152038095892344
:101C7000F89480FF03C022E020934E0381FF03C04D
:101C800022E020934F0382FF03C022E02093500301
:101C900083FF03C082E080935103909352037894B2
:101CA00080E07DC84FE3B701C8010E94BF2487FDD3
:101CB00076C88DA18093CC0380E190E00E945C23E4
:101CC00080E06DC84FE3B701C8010E94BF2487FDC3
:101CD00066C88DA18093CD0380E091E00E945C23D3
:101CE00080E05DC8B701C8010E94DC1187FD57C8BC
:101CF0008DA18093CA0380E290E00E945C2380E083
:101D00004EC8B701C8010E94DC1187FD48C88DA1EB
:101D10008093CB0380E092E00E945C2380E03FC888
:101D20002FEF33E040E050E0B701C8010E942212DB
:101D300087FD35C8F801E80FF11D87FDFA95CF0141
:101D40002081211107C06DA07EA009A11AA1060D56
:101D5000171D10C04DA15EA120E034E0241B350BFF
:101D600041E050E0BE016F5D7F4F0E94221287FF6D
:101D7000EACF15C86016710641F06FEFC3010E94EB
:101D8000102EFFEF6F1A7F0AF5CF80E00C94CF067C
:101D9000DF92CF92FF92EF92BF92AF921F930F9379
:101DA0000E94B32A0FB6F894DEBF0FBECDBF0197D5
:101DB00011F5898187FF02C00C94CF064DA05EA06B
:101DC0006FA078A40E94332381600E9480238091B9
:101DD0006E0390916F03A0917003B0917103B301F2
:101DE000A201481B590B6A0B7B0B80E00E94E51592
:101DF00080E00C94CF068DEF0C94CF06DF92CF924B
:101E0000FF92EF929F928F921F930F930E94B32A9B
:101E10000FB6F894DEBF0FBECDBF019711F58981D3
:101E200087FF02C00C94CF060DA11EA10E94332390
:101E300082600E948023A801110F660B770B8091AE
:101E4000930390919403A0919503B0919603481B3E
:101E5000590B6A0B7B0B81E00E94E51580E00C9426
:101E6000CF068DEF0C94CF06DF92CF92FF92EF92C8
:101E7000BF92AF921F930F930E94B32A0FB6F894AC
:101E8000DEBF0FBECDBF0197A1F4898187FF02C0DD
:101E90000C94CF068DA19EA1AFA1B8A580936E032F
:101EA00090936F03A0937003B093710380E00C9440
:101EB000CF068DEF0C94CF06DF92CF92FF92EF9278
:101EC0009F928F921F930F930E94B32A0FB6F8949C
:101ED000DEBF0FBECDBF0197B1F4898187FF02C07D
:101EE0000C94CF068DA19EA1092E000CAA0BBB0B52
:101EF0008093930390939403A0939503B0939603D8
:101F000080E00C94CF068DEF0C94CF06B80181E0F1
:101F10000E94EF1A0C94CF06B701C8010E94DC1191
:101F200087FF02C00C94CF068DA191E0980F9930E5
:101F300008F402C18CEF0C94CF06B701C8010E94CF
:101F4000DC1187FF02C00C94CF068DA191E0980FA1
:101F5000993008F0F5C00E9451110C94CF0641E071
:101F6000B701C8010E94BF2487FF02C00C94CF06AE
:101F70008DA18093D20380E00C94CF0644E1B70199
:101F8000C8010E94BF2487FF02C00C94CF068DA118
:101F900080935A0380E00C94CF064AEFB701C80142
:101FA0000E94BF2487FF02C00C94CF068DA18093AE
:101FB0000601882321F08A3F49F4589A01C05898B5
:101FC00084B58F7C84BD80E00C94CF068A5F88BD89
:101FD00084B5806284BD80E00C94CF0644E1B701F3
:101FE000C8010E94BF2487FF02C00C94CF06080FCF
:101FF000111D87FD1A9544E1BE016F5D7F4FC80139
:102000000E94BF2487FF02C00C94CF06080F111D49
:1020100087FD1A9544E1BE016F5E7F4FC8010E94A3
:10202000BF2487FF02C00C94CF0644E1B60198019B
:10203000280F311D87FD3A95C9010E94BF2487FFF3
:1020400002C00C94CF068DA18093560389A1809382
:10205000570389898093580389818093590380E0CD
:102060000C94CF0641E0B701C8010E94BF2487FF4E
:1020700002C00C94CF069DA180910501992379F0AF
:1020800084608093050188E090E00E945C23809149
:102090004D03816080934D0380E00C94CF068B7FCD
:1020A0008093050188E090E00E945C2310924D032C
:1020B00080E00C94CF06DF92CF92FF92EF92A6E2DF
:1020C000B3E0BF93AF931F930F930E94B32A0FB651
:1020D000F894DEBF0FBECDBF019729F4898187FF39
:1020E00005C00C94CF068DEF0C94CF064DA15EA1D8
:1020F0006FA178A5413C34ED530731E063077105CA
:1021000010F18CEF0C94CF068DEF0C94CF068DEF71
:102110000C94CF068DEF0C94CF068EEF0C94CF0667
:102120008EEF0C94CF068DEF0C94CF068DEF0C94B0
:10213000CF068DEF0C94CF060E9467110C94CF064A
:102140008CEF0C94CF0680914D03826080934D03F9
:1021500070956095509541955F4F6F4F7F4F80E030
:102160000E94E51580E00C94CF068F929F92AF926B
:10217000BF92CF92DF92EF92FF920F931F93CF9374
:10218000DF936A017B01082F10E095E2899FE0014F
:102190001124C55ADC4FAB85BC858D859E854C01CD
:1021A0008A0E9B1EA12CB12C481559056A057B058A
:1021B00070F0BD8FAC8FC818D908EA08FB08CE8E26
:1021C000DF8EE8A2F9A29BA38AA38EE013C09A0136
:1021D000AB010E94A930A50194010E9478303D8F87
:1021E0002C8F1E8E1F8E18A219A2C21AD30ADBA230
:1021F000CAA28AE095E2909FF001919FF00D112410
:10220000E55AFC4F878BDF91CF911F910F91FF9083
:10221000EF90DF90CF90BF90AF909F908F900895F8
:102220008EBD0DB407FEFDCF8EB508958091C0021E
:102230009091BF02981781F0E82FF0E0EE53FD4F28
:10224000208130E08F5F9091BE02891708F080E016
:102250008093C002C90108958FEF9FEF0895909178
:10226000C90096FF14C09091AF022091B002E92FEF
:10227000F0E0EE54FD4F80839F5F3091AE029317E4
:1022800008F090E0921779F39093AF0207C0909115
:10229000C90090649093C9008093CE0080E090E0E4
:1022A00008958F3F19F4809300010FC0883058F4CF
:1022B00090910001981749F0682F8093000181E008
:1022C0000E94232402C08CEF089580E008958F3F80
:1022D00019F4809301010FC0883058F490910101E6
:1022E000981749F0682F8093010180E00E94232411
:1022F00002C08CEF089580E008950F931F93CF9351
:1023000087FF56C0C82FC1950C2F0C2E000C110B47
:102310001F93CF938BE994E09F938F938091050354
:102320008F93809104038F930E94602A2FEF30E7F0
:1023300082E0215030408040E1F700C00000F89476
:102340000F900F900F900F900F900F9080E0282F1C
:1023500030E02017310704F52F9A9091CE03916059
:102360009093CE039FEF20E732E091502040304021
:10237000E1F700C000002F989091CE039E7F9093CC
:10238000CE039FEF22E537E0915020403040E1F747
:1023900000C000008F5FDBCFC230C4F28FEF99E640
:1023A00028E1815090402040E1F700C00000CECFEE
:1023B000CF911F910F910895CF93DF9300D0CDB7A8
:1023C000DEB79E012F5F3F4F3F932F937F936F9315
:1023D00020E933E03F932F939F938F930E94B32A7A
:1023E0000FB6F894DEBF0FBECDBF019711F48981FF
:1023F00001C08DEF0F900F90DF91CF910895CF9393
:10240000DF9300D0CDB7DEB79E012F5F3F4F3F93E4
:102410002F937F936F932BE833E03F932F939F93FA
:102420008F930E94B32A0FB6F894DEBF0FBECDBFC4
:10243000019711F4898101C08DEF0F900F90DF910A
:10244000CF910895EF92FF920F931F93CF93DF9355
:10245000EB017A0189010E94FF1187FD09C06881A3
:1024600079816E157F0518F00617170708F48CEFB1
:10247000DF91CF911F910F91FF90EF900895CF932F
:10248000DF9300D0CDB7DEB79E012F5F3F4F3F9364
:102490002F937F936F9324E833E03F932F939F9381
:1024A0008F930E94B32A0FB6F894DEBF0FBECDBF44
:1024B000019711F4898101C08DEF0F900F90DF918A
:1024C000CF9108959F938F9380E893E09F938F938C
:1024D0008091D4038F938091D3038F930E94602ABD
:1024E0000F900F900F900F900F900F9097FD80E03E
:1024F0000895282F082E000C330B3F938F938CE701
:1025000093E09F938F938091D4038F938091D30313
:102510008F930E94602A0F900F900F900F900F9052
:102520000F9097FD80E008959F938F9388E793E045
:102530009F938F938091D4038F938091D3038F9334
:102540000E94602A0F900F900F900F900F900F90A5
:1025500097FD80E008951F928F9384E793E09F9307
:102560008F938091D4038F938091D3038F930E9494
:10257000602A0F900F900F900F900F900F9097FD83
:1025800080E008958EBD0DB407FEFDCF8EB5089591
:102590001F920F920FB60F9211244F925F926F927B
:1025A0007F928F929F92AF92BF92CF92DF92FF92D3
:1025B0000F931F932F933F934F935F936F937F934B
:1025C0008F939F93AF93BF93CF93DF93EF93FF933B
:1025D0001092850010928400C0906C03D0906D031F
:1025E0000091910310919203E1E0C016D10608F02A
:1025F000E0E0E093090465E2E69FF0011124E55A6A
:10260000FC4FC189D289D0930804C09307048091FC
:10261000840090918500209709F499C2F9B0F29452
:10262000F694F69493E0F9228091D003F8228F2D4E
:1026300090E09093060480930504C03A76E3D707B0
:1026400050F0FE0186E0F695E7958A95E1F7E35FA5
:10265000FE4F46A11AC0C03A86E2D80748F0FE01F4
:10266000B5E0F695E795BA95E1F7E75AFF4F0CC04C
:10267000C03A6EE1D60758F0FE01A4E0F695E79562
:10268000AA95E1F7EB5DF040408150E017C0C03201
:10269000D105A0F0BE0176956795CB01A0E0B0E032
:1026A000BC01CD0160587B47814E9F4F4E01A12C4C
:1026B000B12CA50194010E947830A9015093040423
:1026C000409303048091840090918500F091D103A0
:1026D000F0FF15C12091750330917603240F351F4B
:1026E0003093760320937503809173039091740364
:1026F000C816D90608F4FDC08C0F9D1F8C199D09C2
:102700009093740380937303E091720380916E033E
:1027100090916F03A0917003B0917103F4FF04C016
:102720000197A109B10903C00196A11DB11D8093B4
:102730006E0390936F03A0937003B0937103E1FF56
:1027400050C0A0916203B09163032F3F310509F09F
:1027500058F44A9FB0014B9F700D5A9F700D112481
:10276000CB01A0E0B0E005C09A010E949A30DC01E4
:10277000CB0173E0880F991FAA1FBB1F7A95D1F771
:1027800080906A0390906B03A0906C03B0906D03EF
:10279000880D991DAA1DBB1D80936A0390936B033E
:1027A000A0936C03B0936D038091770390917803AD
:1027B00001979093780380937703892B09F07DC06C
:1027C0008E2F8D7FE2FF78C02091600330916103EE
:1027D00030936D0320936C0310926B0310926A0385
:1027E0006BC0E2FF1AC08091790390917A03A091A7
:1027F0007B03B0917C030197A109B1098093790310
:1028000090937A03A0937B03B0937C03892B8A2B4C
:102810008B2B09F052C0EB7F50C0E3FF4EC0A0915C
:102820006403B09165032F3F310509F058F44A9FC6
:10283000B0014B9F700D5A9F700D1124CB01A0E089
:10284000B0E005C09A010E949A30DC01CB0163E040
:10285000880F991FAA1FBB1F6A95D1F780906A0342
:1028600090906B03A0906C03B0906D032401350130
:10287000481A590A6A0A7B0A40926A0350926B030B
:1028800060926C0370926D0380917D0390917E0342
:10289000019790937E0380937D03892B71F4E77FEA
:1028A000FE7FF093D10310926A0310926B03109293
:1028B0006C0310926D0301C0E82F80917F03882381
:1028C00021F0815080937F030CC0F0FE0AC08091FC
:1028D000D1038E7F8093D103809112048160809315
:1028E0001204E09372031092760310927503F1E0E4
:1028F00007C08C199D099093740380937303F0E0D3
:10290000D090D103D1FE1CC180919A0390919B037A
:10291000840F951F90939B0380939A0320919803B3
:10292000309199030217130708F401C1C20FD31F96
:10293000C01BD10BD0939903C0939803E0919703E8
:102940000091930310919403209195033091960385
:10295000D5FE05C0015011092109310904C00F5FDE
:102960001F4F2F4F3F4F00939303109394032093D7
:10297000950330939603E1FF50C0A0918703B09177
:1029800088038F3F910509F058F44A9FB0014B9F8F
:10299000700D5A9F700D1124CB01A0E0B0E005C06E
:1029A0009A010E949A30DC01CB0133E0880F991F15
:1029B000AA1FBB1F3A95D1F700918F031091900386
:1029C0002091910330919203800F911FA21FB31F9A
:1029D00080938F0390939003A0939103B0939203FD
:1029E00080919C0390919D03019790939D03809308
:1029F0009C03892B09F07EC08E2F8D7FE2FF79C06A
:102A000020918503309186033093920320939103A4
:102A10001092900310928F036CC0E2FF1AC0809155
:102A20009E0390919F03A091A003B091A1030197F1
:102A3000A109B10980939E0390939F03A093A003E3
:102A4000B093A103892B8A2B8B2B09F053C0EB7F0A
:102A500051C0E3FF4FC0A0918903B0918A038F3F1B
:102A6000910509F058F44A9FB0014B9F700D5A9F91
:102A7000700D1124CB01A0E0B0E005C09A010E94C6
:102A80009A30DC01CB0123E0880F991FAA1FBB1FDE
:102A90002A95D1F700918F03109190032091910313
:102AA00030919203B901A801481B590B6A0B7B0BAB
:102AB00040938F035093900360939103709392031C
:102AC0008091A2039091A30301979093A303809315
:102AD000A203892B79F4E77F8D2D8D7F8093D1031D
:102AE00010928F0310929003109291031092920310
:102AF00001C0E82F8091A403882321F081508093A6
:102B0000A4030DC08F2D827051F08091D1038D7F71
:102B10008093D10380911204826080931204E09329
:102B2000970310929B0310929A0382E008C0E90178
:102B3000C01BD10BD0939903C093980380E0F82B6E
:102B4000F0FD2D9AF1FD2E9A2D982E9806C080ED5D
:102B500097E0909304048093030480910304909180
:102B60000404909389008093880020918400309120
:102B7000850080910304909104042817390728F0F8
:102B80000A979093850080938400FF91EF91DF91E5
:102B9000CF91BF91AF919F918F917F916F915F91F5
:102BA0004F913F912F911F910F91FF90DF90CF9008
:102BB000BF90AF909F908F907F906F905F904F905D
:102BC0000F900FBE0F901F901895CF92DF92EF924B
:102BD000FF920F931F93CF93DF9300D000D0CDB718
:102BE000DEB7082F10E021E030E06901082E01C0B7
:102BF000CC0C0A94EAF79091D1039C2109F05BC0B8
:102C0000411551056105710509F457C0F82EEC2CEA
:102C1000E09449835A836B837C8314161506160649
:102C200017069CF40E9429238E210E9471238C2D6B
:102C30008295807F80959091D10389238093D103E1
:102C400049815A816B817C8118C00E9429238C297B
:102C50000E9471238091D1039C2D9295907F892BA6
:102C60008093D10349815A816B817C8170956095F5
:102C7000509541955F4F6F4F7F4F8F2D0E94B5103C
:102C800085E2809FF001819FF00D1124E55AFC4FF1
:102C9000108A178683819481928B818B80E284A332
:102CA00080911204E822E09212048091D1038C29D1
:102CB0008093D10302C08FEF01C080E00F900F908E
:102CC0000F900F90DF91CF911F910F91FF90EF9098
:102CD000DF90CF900895CF938091030118160CF0E8
:102CE000CFC1833009F4F3C034F4813059F082301D
:102CF00009F456C0C5C1843009F4A9C0853009F46F
:102D00007FC1BEC1809171038F93809170038F93B7
:102D100080916F038F9380916E038F938091120443
:102D200081701F928F938BE894E09F938F93809193
:102D300005038F93809104038F930E94602A8091F2
:102D40006E0390916F03A0917003B0917103809313
:102D50000E0490930F04A0931004B093110480E02C
:102D60000E9467110E94332381600E94802380911A
:102D7000D00381608093D00340E859EA63E070E0BB
:102D800080E00E94E51582E0809303012DB73EB7F5
:102D9000265F3F4F0FB6F8943EBF0FBE2DBF70C1E8
:102DA0008091D10380FD6CC140916E0350916F03FF
:102DB000609170037091710380910E0490910F04E3
:102DC000A0911004B0911104841B950BA60BB70BB6
:102DD000BF93AF939F938F937F936F935F934F9323
:102DE0008091120481701F928F9387E794E09F93E4
:102DF0008F93809105038F93809104038F930E949A
:102E0000602A809112042DB73EB7225F3F4F0FB664
:102E1000F8943EBF0FBE2DBF80FF57C080916E0358
:102E200090916F03A0917003B091710380930E0491
:102E300090930F04A0931004B093110440E05CEF52
:102E40006FEF7FEF80E00E94E51583E0ABC08091DB
:102E5000D10380FD15C140916E0350916F036091C5
:102E600070037091710380910E0490910F04A091F2
:102E70001004B0911104841B950BA60BB70BBF93E4
:102E8000AF939F938F937F936F935F934F938091B3
:102E9000120481701F928F938FE494E09F938F931D
:102EA000809105038F93809104038F930E94602A81
:102EB000809112042DB73EB7225F3F4F0FB6F894B2
:102EC0003EBF0FBE2DBF80FD70C08EEF6BC08091E6
:102ED000D10380FDD5C040916E0350916F03609186
:102EE00070037091710380910E0490910F04A09172
:102EF0001004B0911104841B950BA60BB70BBF9364
:102F0000AF939F938F937F936F935F934F93809132
:102F1000120481701F928F9383E694E09F938F93A6
:102F2000809105038F93809104038F930E94602A00
:102F3000809112042DB73EB7225F3F4F0FB6F89431
:102F40003EBF0FBE2DBF80FD2CC080916E039091BF
:102F50006F03A0917003B091710380930E0490935E
:102F60000F04A0931004B093110481E00E94671134
:102F700080916E0390916F03A0917003B0917103E3
:102F800080930E0490930F04A0931004B093110447
:102F900040E05CE060E070E080E00E94E51584E0E5
:102FA00001C08DEF809303016BC080916E039091FF
:102FB0006F03805C924020910E0430910F04821BBD
:102FC000930B8D3B954068F780E00E9467118091DC
:102FD0006E0390916F03A0917003B0917103809381
:102FE0000E0490930F04A0931004B093110440E0DA
:102FF0005CEF6FEF7FEF80E00E94E51585E0D2CFB8
:103000008091D10380FD3CC040916E0350916F03CD
:10301000609170037091710380910E0490910F0480
:10302000A0911004B0911104841B950BA60BB70B53
:10303000BF93AF939F938F937F936F935F934F93C0
:103040008091120481701F928F938BE394E09F9381
:103050008F93809105038F93809104038F930E9437
:10306000602A809112042DB73EB7225F3F4F0FB602
:10307000F8943EBF0FBE2DBF80FD93CF1092030189
:103080008091020118160CF0BDC1833009F4F2C022
:1030900034F4813059F0823009F455C0B3C1843022
:1030A00009F4A8C0853009F46DC1ACC180919603C4
:1030B0008F93809195038F93809194038F93809148
:1030C00093038F938091120482701F928F938BE2EF
:1030D00094E09F938F93809105038F9380910403D5
:1030E0008F930E94602A8091930390919403A09102
:1030F0009503B091960380930A0490930B04A093D8
:103100000C04B0930D0480E00E9451110E943323FF
:1031100082600E9480238091D00382608093D003DC
:1031200040E853EF6FEF7FEF81E00E94E51582E00A
:10313000809302018DB79EB70A960FB6F8949EBF92
:103140000FBE8DBF5FC18091D10381FD5BC14091F6
:10315000930350919403609195037091960380912D
:103160000A0490910B04A0910C04B0910D04841BEF
:10317000950BA60BB70BBF93AF939F938F937F9342
:103180006F935F934F938091120482701F928F937D
:1031900087E194E09F938F93809105038F938091B3
:1031A00004038F930E94602A809112042DB73EB7CA
:1031B000225F3F4F0FB6F8943EBF0FBE2DBF81FF79
:1031C00057C08091930390919403A0919503B0917F
:1031D000960380930A0490930B04A0930C04B0937D
:1031E0000D0440E051E060E070E081E00E94E515F0
:1031F00083E09BC08091D10381FD04C14091930382
:1032000050919403609195037091960380910A0404
:1032100090910B04A0910C04B0910D04841B950BAC
:10322000A60BB70BBF93AF939F938F937F936F932F
:103230005F934F938091120482701F928F938FEE51
:1032400093E09F938F93809105038F938091040364
:103250008F930E94602A809112042DB73EB7225F9F
:103260003F4F0FB6F8943EBF0FBE2DBF81FD60C02B
:103270008EEF5BC08091D10381FDC4C04091930368
:1032800050919403609195037091960380910A0484
:1032900090910B04A0910C04B0910D04841B950B2C
:1032A000A60BB70BBF93AF939F938F937F936F93AF
:1032B0005F934F938091120482701F928F9383E0EB
:1032C00094E09F938F93809105038F9380910403E3
:1032D0008F930E94602A809112042DB73EB7225F1F
:1032E0003F4F0FB6F8943EBF0FBE2DBF81FD1CC0EF
:1032F0008091930390919403A0919503B0919603CC
:1033000080930A0490930B04A0930C04B0930D04D3
:1033100081E00E94511140E05DEF6FEF7FEF81E0AF
:103320000E94E51584E001C08DEF809302016AC020
:1033300080910A0490910B049A9520919303309107
:103340009403821B930B8130914070F780E00E94C0
:1033500051118091930390919403A0919503B091A2
:10336000960380930A0490930B04A0930C04B093EB
:103370000D0440E450E060E070E081E00E94E5155B
:1033800085E0D3CF8091D10381FD3CC04091930370
:1033900050919403609195037091960380910A0473
:1033A00090910B04A0910C04B0910D04841B950B1B
:1033B000A60BB70BBF93AF939F938F937F936F939E
:1033C0005F934F938091120482701F928F938BEDC5
:1033D00093E09F938F93809105038F9380910403D3
:1033E0008F930E94602A809112042DB73EB7225F0E
:1033F0003F4F0FB6F8943EBF0FBE2DBF81FD94CF57
:103400001092020180911704882309F464C080FFA0
:1034100010C0809123039091240367E973E096958F
:103420008795969587950E940E25909334038093F7
:1034300033038091170481FF0AC080912503909186
:1034400026030E94DA1F9093360380933503809100
:10345000170482FF0AC080912703909128030E94DD
:10346000DA1F90933803809337038091170483FF0A
:103470000AC08091290390912A030E94DA1F909339
:103480003A0380933903C0911704C4FF0AC08091A6
:103490001B0390911C030E94E21F90932C038093C6
:1034A0002B03C5FF0AC080911D0390911E030E944B
:1034B000E21F90932E0380932D03C6FF0AC08091D4
:1034C0001F03909120030E94E21F9093300380938A
:1034D0002F0310921704CF9108954F925F926F922D
:1034E0007F928F929F92AF92BF92CF92DF92EF9294
:1034F000FF920F931F93CF93DF9325E2829FC0012A
:103500001124EC01C55ADC4F0D811E81AB80BC80BB
:103510006801CA18DB08E12CF12C8CE0CC0CDD1C16
:10352000EE1CFF1C8A95D1F729853A8540E050E0D2
:10353000C701B6010E94783029013A014501800E89
:10354000911EA12CB12C2F81388540E050E0C7019D
:10355000B6010E94783094E05695479537952795A7
:103560009A95D1F7C501B4010E9454306C5D7B403F
:103570008F4F9F4F28E4C22E28EED22EEE24E394E4
:10358000F12CA70196010E9478303C872B87A3017C
:10359000920164E056954795379527956A95D1F73E
:1035A000C501B4010E9454306C5D7B408F4F9F4F2A
:1035B000A70196010E9478303E872D87DF91CF9139
:1035C0001F910F91FF90EF90DF90CF90BF90AF9041
:1035D0009F908F907F906F905F904F900895DF92B3
:1035E000EF92FF920F931F93CF93DF93CDB7DEB788
:1035F00060970FB6F894DEBF0FBECDBFE82EF12C5A
:103600002091D10330E0082E02C0359527950A9409
:10361000E2F720FDE5C08B01D82E20E23EE444E62F
:1036200050E0BE016F5F7F4FC8010E94221287FDEC
:10363000DAC0080F111D87FD1A95F80190819923B2
:1036400061F020E23EE444E650E0BE016D5F7F4F52
:10365000C8010E94221287FDC6C049815A812B8170
:103660003C812417350708F4BDC0080F111D87FDE4
:103670001A95F8019081992361F028E532E041E044
:1036800050E0BE016B5F7F4FC8010E94221287FD90
:10369000AAC0080F111D87FD1A95F8019081992382
:1036A00061F028E532E041E050E0BE01695F7F4F04
:1036B000C8010E94221287FD96C0080F111D87FDC8
:1036C0001A95F8019081992349F04FE3BE01675F95
:1036D0007F4FC8010E94BF2487FD85C0080F111DC0
:1036E00087FD1A95F8019081992341F0BE01665F2C
:1036F0007F4FC8010E94DC1187FD75C0F801E80FFB
:10370000F11D87FDFA958081811141C08D2D0E94A8
:10371000952385E28E9DF0018F9DF00D1124E55AD1
:10372000FC4F89819A81948383838B819C819683CA
:1037300085838D819E81908787838F8198859287ED
:1037400081878D2D0E946D1AF701E453FC4F898506
:103750008083F701E653FC4F8A858083F701EE0FE3
:10376000FF1FE45DFB4F8B859C8591838083D11087
:103770001BC080E790E00E945C238091130490912D
:103780001404A0911504B091160480621DC020EAB3
:103790003FE040E050E0BE01655F7F4FCF010E94F7
:1037A000221287FFB3CF1FC0F1E0DF1215C080E007
:1037B00097E00E945C238091130490911404A091DF
:1037C0001504B0911604806480931304909314043C
:1037D000A0931504B09316040E94B72380E003C0A1
:1037E0008EEF01C08CEF60960FB6F894DEBF0FBE6F
:1037F000CDBFDF91CF911F910F91FF90EF90DF90A0
:1038000008953F924F925F926F927F92AF92BF92D4
:10381000CF92DF92EF92FF920F931F93CF93DF939C
:10382000CDB7DEB72C970FB6F894DEBF0FBECDBF75
:10383000382E2D833E834F835887270138018E8D84
:103840009F8DA8A1B9A189879A87AB87BC87832D53
:1038500090E025E2289FF001299FF00D1124E55A00
:10386000FC4FDF011D922A95E9F7B3E0B31528F06C
:10387000FC01E75FFE4F208101C02FE335E2389F56
:103880008001399F100D1124055A1C4FF801208327
:103890007283618380E090E00E94352F69837A8390
:1038A0008B839C839B01AC016D817E818F81988588
:1038B0000E94E72F0E94062FD80114967C936E93E6
:1038C000139729813A814B815C81C301B2010E9427
:1038D000E72F0E94062FF8017683658329813A81BC
:1038E0004B815C81C601B5010E94E72F0E94062F23
:1038F000BB27A92F982F872FF801908787832981CD
:103900003A814B815C8169857A858B859C850E9493
:10391000E72F0E94062FBB27A92F982F872FF8018A
:1039200092878187832D2C960FB6F894DEBF0FBE49
:10393000CDBFDF91CF911F910F91FF90EF90DF905E
:10394000CF90BF90AF907F906F905F904F903F90DF
:103950000C946D1AAF92BF92CF92DF92EF92FF92CA
:103960000F931F93CF93DF931F92CDB7DEB7A82E8F
:103970008A018CE5F82EFCBC1DBC8A2D69830E944F
:1039800020236981862F0E94101180E00E9410116F
:1039900080E00E94101180E00E94101180E00E94DF
:1039A00010118A2D0E941723FCBC1DBC8A2D0E9479
:1039B000202380E00E941011B82E80E00E94101198
:1039C000C82ED12CE12CF12CFE2CED2CDC2CCC249F
:1039D00080E00E941011C82AFE2CED2CDC2CCC2497
:1039E00080E00E941011C82AFE2CED2CDC2CCC2487
:1039F00080E00E941011C82A8A2D0E941723011509
:103A0000110529F0F801C082D182E282F3828B2D68
:103A10000F90DF91CF911F910F91FF90EF90DF906A
:103A2000CF90BF90AF9008951F93CF93DF9300D0B6
:103A300000D01F92CDB7DEB7182F8CE58CBD1DBC12
:103A4000812F2D833C834B835A8369830E942023DB
:103A50006981862F0E9410115A81852F0E941011B2
:103A60004B81842F0E9410113C81832F0E941011E2
:103A70002D81822F0E941011812F0E9417230F90F9
:103A80000F900F900F900F90DF91CF911F9108959D
:103A900099E0899FF0011124EA5FFC4F6683462F6D
:103AA000660F550B660B770B332722276DEE0C94B0
:103AB000141DCF92DF92EF92FF921F93CF93DF936B
:103AC000182F603218F0669520E001C021E0822FA7
:103AD00090E0A0E0B0E06C017D0181E1CC0CDD1C48
:103AE000EE1CFF1C8A95D1F789E0189FE001112494
:103AF000CA5FDC4F88819981AA81BB81AD7FA70114
:103B00009601282B392B4A2B5B2B288339834A8338
:103B10005B836C836D836CEE812F0E94141D2C815E
:103B20002F71822F90E0A0E0B0E0AF604D814F7127
:103B300050E0542F4427052E000C660B770B9A019A
:103B4000AB01282B392B4A2B5B2B60E9812FDF91AE
:103B5000CF911F91FF90EF90DF90CF900C94141DA8
:103B600029E0829FC0011124FC01EA5FFC4F4081E3
:103B7000518162817381858161FF880F0895EF9281
:103B8000FF921F93CF93DF93182FE82EF12C85E23D
:103B9000189FE0011124C55ADC4F8B819C810E9443
:103BA00094128D819E810E9494128F8198850E942B
:103BB000941289859A850E949412812F0E94B01DCB
:103BC0000E94AB1289E08E9DE0018F9DD00D1124E3
:103BD000CA5FDC4F8E810E9479128F8198850E9486
:103BE000941280E0DF91CF911F91FF90EF900895A4
:103BF000FF920F931F93CF93DF9300D000D0CDB7E8
:103C0000DEB7F82E83ED90E0A3E0B4E189839A83D8
:103C1000AB83BC8329E0F29E800111240A5F1C4F14
:103C2000F80180839183A283B38380E184838583B9
:103C300083E086838CED95E09087878323ED30E0E9
:103C400043E054E16CEE8F2D0E94141DAE014F5FD6
:103C50005F4F6CE68F2D0E94AA1CF80140815181B4
:103C60006281738189819A81AB81BC814817590730
:103C70006A077B0741F520E030E0A90161E98F2D5B
:103C80000E94141DF8012681822F220F990BAA0B86
:103C9000BB0BAC01332722276DEE8F2D0E94141D24
:103CA000F8012781308540E050E064E98F2D0E94C3
:103CB000141D20E831E340E050E060E88F2D0E94C1
:103CC000141D80E001C08FEF0F900F900F900F90A8
:103CD000DF91CF911F910F91FF90089510921E04D4
:103CE000109219048091FE0280FD04C010921B0402
:103CF00010921A0481FD04C010921D0410921C043D
:103D0000089587E797E7909301088093000898E06B
:103D100088E10FB6F894A895809360000FBE909349
:103D20006000F894FFCF1F920F920FB60F921124EC
:103D30002F938F939F93EF93FF938091B002909175
:103D4000AF02891781F0E82FF0E0EE54FD4F90812B
:103D50008F5F2091AE02821708F080E08093B0025E
:103D60009093CE0005C08091C9008F7B8093C900DD
:103D7000FF91EF919F918F912F910F900FBE0F9018
:103D80001F9018951F920F920FB60F9211242F9328
:103D90008F939F93EF93FF932091CE008091BF026A
:103DA0009091C002E82FF0E0EE53FD4F20838F5F2B
:103DB0002091BE02821708F080E0891719F08093E5
:103DC000BF0218C0F894E9E5F3E08BE18E0F909103
:103DD000C80095FFFCCF94919093CE009091C800BD
:103DE00096FFFCCF31968E13F2CF78941092BF02DB
:103DF0001092C002FF91EF919F918F912F910F90A0
:103E00000FBE0F901F9018951F920F920FB60F9232
:103E100011248F939F93AF93BF9386B58A5F86BD1E
:103E200078948091000390910103A0910203B091D6
:103E300003030196A11DB11D80930003909301031C
:103E4000A0930203B0930303BF91AF919F918F9111
:103E50000F900FBE0F901F901895F894209130048A
:103E600030913104822B932B909331048093300452
:103E7000789408958F929F92AF92BF92CF92DF92E3
:103E8000EF92FF920F931F93CF93DF93CDB7DEB7DF
:103E900060970FB6F894DEBF0FBECDBFF82ED62EBA
:103EA000882E912C25E2829FF0011124E55AFC4FC7
:103EB000838194819A838983858196819C838B8376
:103EC000878190859E838D838185928598878F8356
:103ED0008F2D0E94B01D898789E0889DF001899D02
:103EE000F00D1124EA5FFC4F86818A8787819085D7
:103EF0009C878B87F11006C0D7FC02C0E5E00AC0A2
:103F0000E7E008C031E0F3120CC0D7FC02C0E6E0E5
:103F100001C0E8E0F0E0EE0FFF1FE357FD4FA08087
:103F2000B180CE0101964C01D7FC0BC0BC01C5018C
:103F30002D2D30E12302800D911D11240E94F124CA
:103F400026C0C12CD12C80E1E82EE80CF11004C071
:103F500086010B5D1A4F06C081E0F81203C086018E
:103F60000B551B4FD401F801EA1621F084918D9373
:103F70003196FACFB401C6018A0D9B1D0E94F1242F
:103F800090E1C90ED11C20E8C216D104F9F6609662
:103F90000FB6F894DEBF0FBECDBFDF91CF911F915A
:103FA0000F91FF90EF90DF90CF90BF90AF909F90D8
:103FB0008F90089564EC75E0969587959695879512
:103FC0000C940E259C013695279536952795A2E9E8
:103FD000B3E10E949A30AB01BC0199E076956795F8
:103FE000579547959A95D1F74E7F6170772789E766
:103FF0009DE5841B950B97FF02C080E090E008953B
:10400000CF93C82FE4E0F1E0282F237088E0289FA9
:10401000900111249181977E292B218388E090E0E3
:104020000E942D1FC0931804CF9108951F920F92E4
:104030000FB60F9211242F933F934F935F936F937B
:104040007F938F939F93AF93BF93EF93FF93CF9300
:10405000DF9300D000D0CDB7DEB780913A049091C5
:104060003B049C012F5F3F4F30933B0420933A0465
:10407000883E934088F010923B0410923A04789462
:1040800080915503882349F0815080935503811115
:1040900004C03F9A479801C078948091530390914F
:1040A0005403009749F0019790935403809353036E
:1040B000892B11F41092900080913904811136C03F
:1040C0009091560390933404909157039093350444
:1040D000909158039093360490915903909337042C
:1040E0003091CE0336FF14C090913304953128F0FF
:1040F00028E2291B2093380402C0909338049F5F64
:10410000993218F49093330407C01092330404C01A
:1041100090915A03909338049091520330FD02C05D
:1041200020E001C020E1922B90933204909134045E
:10413000981305C0909132049E7F90933204909121
:104140003504981305C0909132049D7F90933204FA
:1041500090913604981305C0909132049B7F909300
:10416000320490913704981305C090913204977FE0
:104170009093320490913804981305C090913204C2
:104180009F7E909332048F5F843118F480933904BA
:1041900002C0109239048091320484FF02C02F9A29
:1041A00001C02F988091320420E1829FC001112428
:1041B000909104019F70892B8093040182E090E02C
:1041C0000E942D1F8091300490913104892B09F4B5
:1041D000F7C0809130049091310481FF0EC060914E
:1041E000040182E10E94A324809130049091310463
:1041F0008D7F9093310480933004809130049091AE
:10420000310483FF0BC06091050183E10E94A32468
:104210008091300490913104877FCEC0809130042A
:104220009091310482FF0BC083E10E94912480931E
:10423000190380913004909131048B7FBDC080912F
:1042400030049091310484FF0BC06091CC0380E076
:104250000E94591D80913004909131048F7EACC032
:10426000809130049091310485FF0BC06091CA03A6
:1042700080E00E94481D80913004909131048F7D30
:104280009BC0809130049091310486FF14C020912E
:104290002C0430912D0430930E0320930D0340E045
:1042A00050E064E980E00E94141D809130049091F8
:1042B00031048F7B81C0809130049091310487FF5D
:1042C0001DC019821A821B821C82AE014F5F5F4F94
:1042D0006FE680E00E94AA1C89819A81AB81BC8133
:1042E0008093240490932504A0932604B09327047C
:1042F00080913004909131048F775EC080913004BA
:104300009091310490FF0BC06091CD0381E00E9439
:10431000591D80913004909131049E7F4DC0809151
:1043200030049091310491FF0BC06091CB0381E088
:104330000E94481D80913004909131049D7F3CC0C3
:10434000809130049091310492FF14C020912E048A
:1043500030912F04309317032093160340E050E070
:1043600064E981E00E94141D809130049091310431
:104370009B7F22C0809130049091310493FF20C034
:1043800019821A821B821C82AE014F5F5F4F6FE65B
:1043900081E00E94AA1C89819A81AB81BC818093B3
:1043A000280490932904A0932A04B0932B048091AD
:1043B000300490913104977F9093310480933004BE
:1043C00080911E0487FF74C08F70E82FF0E021E019
:1043D00030E0082E02C0220F331F0A94E2F740910A
:1043E000FE025091FF0224233523232B71F42091E8
:1043F000780030917900EE0FFF1FE65EFB4F4081A1
:104400005181240F351F31832083882399F18091B6
:1044100019048F5F80931904843070F1409118045F
:10442000842F90E09C01220F331FF901ED5DFC4FBA
:1044300060911A0470911B0471836083F901E55E39
:10444000FC4F60911C0470911D047183608321E115
:1044500030E001C0220F4A95EAF730911704232B70
:10446000209317040196837099270E9400200E94D0
:104470006E1E02C021E001C020E0922F80E041E0EA
:1044800050E0BA0163707727672B19F0992331F058
:1044900090E0440F551F8F5F803199F790917C0019
:1044A0008770987F892B80937C0020931E040AC01C
:1044B00080917A00806480937A0080911E048068E5
:1044C00080931E048FB182958F7020912304909168
:1044D000320480932304309139043330F0F0822782
:1044E000892380FF05C090911F049F5F90931F0454
:1044F00081FF05C0909120049F5F9093200482FF6C
:1045000005C0909121049F5F9093210483FF05C013
:10451000809122048F5F8093220480910701909103
:10452000080101979093080180930701892BD1F529
:1045300020911F0480914E0390E0820F911D95956C
:10454000879580934E032091200480914F0390E043
:10455000820F911D9595879580934F03209121049B
:104560008091500390E0820F911D959587958093DF
:104570005003209122048091510390E0820F911DFD
:10458000959587958093510310921F0410922004F3
:10459000109221041092220488E592E09093080181
:1045A000809307019091520390FF04C081E0209115
:1045B0004E03211180E091FF05C020914F0321118E
:1045C00001C0826092FF05C020915003211101C0FB
:1045D000846093FF05C090915103911101C08860E0
:1045E00080931A0380914D03833051F4629B08C07D
:1045F00081E080934D038091D1038E7F8093D1031E
:104600000F900F900F900F90DF91CF91FF91EF914E
:10461000BF91AF919F918F917F916F915F914F91DA
:104620003F912F910F900FBE0F901F9018958823E8
:1046300019F0813019F00895599A08955C9A0895F7
:10464000882319F0813019F00895599808955C98DD
:10465000089580910401282F247030E03595279526
:104660008170822B089590910401292F287030E0E9
:10467000359527953595279596959170922B83E0E2
:10468000892708958093CE0384FF02C0289801C033
:10469000289A9091CE0395FF02C05D9801C05D9A63
:1046A00086708695909105019C7F892B80930501EA
:1046B00088E090E00C942D1FF89420913004309104
:1046C0003104282B392B3093310420933004789413
:1046D000209130043091310428233923232BC1F752
:1046E0000895E4E0F1E0282F217090819A7F922BC9
:1046F0008270880F892B808382E090E00C945C2389
:1047000093E08927E4E0F1E0282F217030E0220FC8
:10471000331F8270880F880F282B8081857F282B7C
:10472000208382E090E00C945C2381110FC080E82C
:1047300090E00E945C238091240490912504A09134
:104740002604B0912704B7FFF2CF0895813069F7AE
:1047500080E098E00E945C238091280490912904D5
:10476000A0912A04B0912B04B7FFF2CF089585EAF7
:1047700095E09F938F93809105038F93809104031D
:104780008F930E94602A809113040F900F900F90D6
:104790000F9080FF06C06BE373E080E090E00E9422
:1047A000F1248091130485FF07C06091010167FD2A
:1047B00003C080E00E943A1F8091130486FF07C067
:1047C0006091000167FD03C081E00E943A1F809163
:1047D000130487FF04C06FEF80E00E943A1F8091AE
:1047E000130490911404A0911504B091160490FF45
:1047F00004C06FEF81E00E943A1F109213041092E0
:1048000014041092150410921604089583EB95E099
:104810009F938F93809105038F93809104038F93CF
:104820000E94602A8FEF9FEFDC0180931304909326
:104830001404A0931504B09316040F900F900F90DA
:104840000F900C94B723EF92FF921F93CF93DF93B7
:10485000CDB7DEB760970FB6F894DEBF0FBECDBF01
:1048600067FD53C0882329F0813029F420E032E02D
:1048700002C020E031E0962F182FBE016F5F7F4FFE
:10488000A901E0E19E02400D511D1124CA010E94C0
:10489000D824812F0E949523E12EF12C45E2149F0C
:1048A000F0011124E55AFC4F89819A819483838316
:1048B0008B819C81968385838D819E819087878360
:1048C0008F81988592878187812F0E946D1AF701C9
:1048D000E453FC4F89858083F701E653FC4F8A85BA
:1048E0008083F701EE0FFF1FE45DFB4F8B859C85F6
:1048F00091838083111103C080E790E004C01130E0
:1049000021F480E097E00E945C2360960FB6F89453
:10491000DEBF0FBECDBFDF91CF911F91FF90EF9013
:104920000895CF93C82F80E58CBD1DBC2C9881E4E1
:104930000E94C2128C2F0E94C2128FEF0E94C212DC
:104940002C9ACF9108951F93CF93DF931F92CDB7E9
:10495000DEB7182F80E58CBD1DBC2C9880E46983E0
:104960000E94C212812F0E94C2126981862F0E946A
:10497000C2122C9A0F90DF91CF911F9108950F933F
:104980001F93CF93DF931F92CDB7DEB78B0149837F
:104990000E943F12498187FD05C0F80190814917A7
:1049A00008F48CEF0F90DF91CF911F910F91089534
:1049B000EF92FF921F93CF93DF93EB0111E17C0104
:1049C000E61AF70A115039F0C7018C0F9D1F0E949B
:1049D000082E8993F7CFDF91CF911F91FF90EF9031
:1049E0000895EF92FF920F931F93CF93DF937C0173
:1049F0008B01C0E0D0E0F80161918F01CE018E0DF6
:104A00009F1D0E94102E2196C031D105A1F7DF9184
:104A1000CF911F910F91FF90EF900895EF92FF9229
:104A20001F93CF93DF93FB01EE5BFF4F25913491F2
:104A3000821793070CF04CC0FB0125913491281785
:104A400039070CF048C013E2A1E2B0E040E050E0CA
:104A500021E1115009F439C030E0E901CC0FDD1F2C
:104A6000FB01EC0FFD1FE590F490FE013296E60F7E
:104A7000F71FC591D491C817D90724F4A9012A0FAB
:104A80003B1F06C08E159F0534F4D901240F351F36
:104A900035952795DECF4EEC4203B001439F700D54
:104AA00011249B012E513B4FBC016E197F09460317
:104AB000C001479F900D1124BE016E197F090E940D
:104AC0006430C901860F971F08C080E090E005C0E0
:104AD00080E79EEF02C082EE94E0DF91CF911F91BC
:104AE000FF90EF900895A3E1B0E0E9E7F5E20C94C0
:104AF000EF286C014B012A01FC0117821682838189
:104B000081FF43C3AE014F5F5F4F3A01F6019381CE
:104B1000F40193FD859193FF81914F01882309F45E
:104B200030C3853239F493FD859193FF81914F0114
:104B3000853239F4B60190E00E947B2A52012501AA
:104B4000E5CF10E0F12C20E02032A0F48B3269F0A8
:104B500030F4803259F0833269F420612CC08D32F8
:104B600039F0803339F4216026C02260246023C0EC
:104B7000286021C027FD27C030ED380F3A3078F487
:104B800026FF06C0FAE01F9F300D1124132F13C01B
:104B90004AE0F49E300D1124F32E20620CC08E32B8
:104BA00021F426FDEEC2206406C08C3611F4206884
:104BB00002C0883641F4F40193FD859193FF819101
:104BC0004F018111C1CF9BEB980F933018F42061F6
:104BD000805E06C09BE9980F933008F071C12F7E6C
:104BE00026FF16E02F73322E853619F42064322EFC
:104BF00008C0863621F4F22FF0683F2E02C0111152
:104C0000115037FE07C01C3350F4EE24E394E10E3C
:104C100027E00BC0183038F027E017E005C027E088
:104C20004CE3E42E02C0212FE12C520144E0A40EFB
:104C3000B11CF20160817181828193810E2DA301EB
:104C40000E9426292C01098100FF02C003FF07C032
:104C500031FC08C032FE09C030E2232E07C02DE22D
:104C6000222E04C09BE2292E01C0212C802F8C70A3
:104C700019F0211068C2A8C237FE0FC0E40C04FF6F
:104C800004C08A81813309F4EA941E1474F5F8E0B3
:104C9000FE1578F588E0E82E2CC036FC2AC0812F5E
:104CA00090E0841595059CF02CEF42162FEF5206EC
:104CB00074F0432D4068342E0AC0E2E0F0E0EC0FBF
:104CC000FD1FE10FF11D8081803319F41150111186
:104CD000F4CF37FE0EC0EE24E394E10E812F90E076
:104CE000481659062CF4141904C0EE24E39401C0AC
:104CF00010E037FE06C01414150434F4C201019606
:104D000005C085E090E002C081E090E021100196AE
:104D1000112331F0212F30E02F5F3F4F820F931F7F
:104D20002F2D30E08217930714F4F81A01C0F12CEC
:104D3000832D897049F4FF2039F0B60180E290E0BC
:104D40000E947B2AFA94F7CF222029F0B601822D07
:104D500090E00E947B2A33FC09C0FF2039F0B601A5
:104D600080E390E00E947B2AFA94F7CF37FE5AC086
:104D7000942D852D57FE02C090E080E0292E382E1C
:104D800020E030E0A2014E1951095D874C87A20155
:104D9000421953095F874E87612F70E044275527DA
:104DA000461B570B598B488B5FEF2516350649F488
:104DB000B6018EE290E02A8B3B8B0E947B2A3B89D6
:104DC0002A89421453046CF04C855D8542155305C5
:104DD00044F4EE85FF85E20FF31FE60DF71D818198
:104DE00001C080E351E0251A31082F5F3F4F488909
:104DF0005989241635064CF0B60190E02A8B3B8B7E
:104E00000E947B2A2A893B89CFCF2414350439F4A8
:104E10009A81963318F4953311F404FF81E3B601B7
:104E200090E04BC08A81813309F00F7EB60190E09B
:104E30000E947B2A111105C034FC18C085E690E061
:104E400017C0B6018EE290E00E947B2A82E0EE2439
:104E5000E394E80EF301E80FF11D8081B60190E0C4
:104E60000E947B2A11508E2D91F7E6CF85E490E0C9
:104E7000B6010E947B2A57FC05C04114510439F445
:104E800004FF05C05194419451088DE201C08BE2AA
:104E9000B60190E00E947B2A80E39AE04916510413
:104EA0002CF08F5F5AE0451A5108F7CFB60190E019
:104EB0000E947B2AB601C201C0960E947B2A57C17C
:104EC000833631F0833779F0833509F058C021C03B
:104ED0005201E2E0AE0EB11CF2018081898301E053
:104EE00010E0230114C05201F2E0AF0EB11CF20138
:104EF0004080518026FF03C0612F70E002C06FEF39
:104F00007FEFC2012A8B0E94172A8C012A892F77F2
:104F100015C05201F2E0AF0EB11CF2014080518089
:104F200026FF03C0612F70E002C06FEF7FEFC20168
:104F30002A8B0E940C2A8C012A892068322E23FD9C
:104F40001AC08F2D90E008171907A8F4B60180E267
:104F500090E00E947B2AFA94F4CFF20137FC85910D
:104F600037FE81912F01B60190E00E947B2AF1105B
:104F7000FA94015011090115110579F7F8C084362A
:104F800011F0893659F5520127FF09C0F4E0AF0E40
:104F9000B11CF20160817181828193810AC0F2E0CB
:104FA000AF0EB11CF20160817181072E000C880BDD
:104FB000990B2F76322E97FF09C0909580957095AA
:104FC00061957F4F8F4F9F4F2068322E2AE030E04F
:104FD000A3010E94CC2AE82EE6183FC0022F853795
:104FE00021F40F7E2AE030E01DC0097F8F3691F05A
:104FF00018F4883559F0C5C0803719F0883711F09A
:10500000C0C0006104FF09C0046007C024FF08C0DD
:10501000066006C028E030E005C020E130E002C0B4
:1050200020E132E0520107FF09C0F4E0AF0EB11CED
:10503000F201608171818281938108C0F2E0AF0E3C
:10504000B11CF2016081718180E090E0A3010E94B7
:10505000CC2AE82EE6180F77302E36FE0BC0332D03
:105060003E7FE11650F434FE0AC032FC08C0332DF6
:105070003E7E05C00E2D332D03C00E2D01C0012F25
:1050800034FF0CC0FE01EE0DF11D8081803311F460
:10509000397E08C032FF05C00E5F04C0832F8678BA
:1050A00009F00F5F33FD13C030FF06C01E2D0F1532
:1050B00018F41F0D101B0F2D0F1568F4B60180E2B8
:1050C00090E03B8B0E947B2A0F5F3B89F5CF0F1549
:1050D00010F4F01A01C0F12C34FF12C0B60180E3C5
:1050E00090E03B8B0E947B2A3B8932FF17C031FD49
:1050F00003C088E790E002C088E590E0B6010CC0EC
:10510000832F867859F031FF02C08BE201C080E224
:1051100037FD8DE2B60190E00E947B2AE11638F45B
:10512000B60180E390E00E947B2A1150F7CFEA9409
:10513000F301EE0DF11D8081B60190E00E947B2A03
:10514000E110F5CF14C0F4E0FF1558F584E0F81A2B
:1051500033FE1EC0211026C003FF2AC00CEA10E057
:10516000F32DF0713F2EF8018491811124C0FF20AE
:1051700009F4E5CCB60180E290E00E947B2AFA9423
:10518000F6CFF6018681978126C08FEF9FEF23C06F
:10519000B60180E290E00E947B2AFA94F110F8CFE9
:1051A000D9CFF12CB601822D90E00E947B2AD4CF7A
:1051B00000EB10E0D5CF31108052B60190E00E9494
:1051C0007B2A0F5F1F4FCFCF23E02F1510F483E012
:1051D000BECFF12CC1CF6396E2E10C940B292F9244
:1051E0003F924F925F926F927F928F929F92AF9277
:1051F000BF92CF92DF92EF92FF920F931F93CF93C4
:10520000DF93CDB7DEB7CA1BDB0B0FB6F894DEBF5A
:105210000FBECDBF09942A88398848885F846E8480
:105220007D848C849B84AA84B984C884DF80EE80CA
:10523000FD800C811B81AA81B981CE0FD11D0FB6D3
:10524000F894DEBF0FBECDBFED010895283008F001
:1052500027E03327DA01990F311D87FD9160009611
:105260006105710539F432602E5F3D9330E32A9574
:10527000E1F708959F3F30F080387105610509F02E
:105280003C5F3C5F3D93913008F08068911DDF9357
:10529000CF931F930F93FF92EF92192F987F9695BC
:1052A000E92F96959695E90FFF27E25FFE4F992724
:1052B0003327EE24FF24A701E70105900894079403
:1052C00028F4360FE71EF81E491F511D660F771F81
:1052D000881F991F0694A1F70590079428F4E70EFC
:1052E000F81E491F561FC11D770F881F991F661F83
:1052F0000694A1F70590079428F4F80E491F561F4D
:10530000C71FD11D880F991F661F771F0694A1F72D
:105310000590079420F4490F561FC71FD81F990FF7
:10532000661F771F881F0694A9F784911095177040
:1053300041F0D695C79557954795F794E7941A95F8
:10534000C1F7E4EBF0E06894159015913591659103
:10535000959105907FE27395E118F10A430B560B86
:10536000C90BD009C0F7E10CF11E431F561FC91F1E
:10537000D01D7EF4703311F48A95E6CFE894015085
:1053800030F0080F0AF40027021708F4202F2395A5
:10539000022F7A3328F079E37D932A95E9F710C03C
:1053A0007D932A9589F60694979567953795179575
:1053B0001794E118F10A430B560BC90BD00998F06A
:1053C00023957E9173957A3308F070E37C932013D4
:1053D000B8F77E9170617D9330F0839571E37D9392
:1053E00070E32A95E1F71124EF90FF900F911F9140
:1053F000CF91DF91992787FD90950895FB01DC01FE
:105400004150504030F08D910590801919F40020E2
:10541000B9F7881B990B0895FC0105906150704005
:105420000110D8F7809590958E0F9F1F0895FC016D
:105430006150704001900110D8F7809590958E0FC3
:105440009F1F0895CF93DF93EC012B8120FF33C082
:1054500026FF0AC02F7B2B838E819F8101969F831D
:105460008E838A8190E029C022FF0FC0E881F981F4
:105470008081082E000C990B009719F420622B8371
:105480001AC03196F983E8830EC0EA85FB85099539
:1054900097FF09C02B81019611F080E201C080E1E5
:1054A000822B8B8308C02E813F812F5F3F4F3F832C
:1054B0002E83992702C08FEF9FEFDF91CF91089540
:1054C000A0E0B0E0E6E6FAE20C94FD280F81188532
:1054D000F801838188608383AE01455F5F4F6985F2
:1054E0007A85C8010E947325F8012381277F2383D1
:1054F000E4E00C9419290F931F93CF93DF93FB01E2
:10550000238121FD03C08FEF9FEF28C022FF16C02B
:1055100046815781248135814217530744F4A08185
:10552000B1819D012F5F3F4F318320838C93268172
:1055300037812F5F3F4F3783268310C0EB01092F40
:10554000182F0084F185E02D0995892BE1F68E81D5
:105550009F8101969F838E83812F902FDF91CF9122
:105560001F910F910895AEE0B0E0E9EBFAE20C94E0
:10557000FF288DE08C838B899C899A838983AE0177
:10558000495E5F4F6D897E89CE0101960E94AA2CEB
:105590002E96E2E00C941B29FA01AA27283051F13B
:1055A000203181F1E8946F936E7F6E5F7F4F8F4F54
:1055B0009F4FAF4FB1E03ED0B4E03CD0670F781FB3
:1055C000891F9A1FA11D680F791F8A1F911DA11D98
:1055D0006A0F711D811D911DA11D20D009F46894D1
:1055E0003F912AE0269F11243019305D3193DEF679
:1055F000CF010895462F4770405D4193B3E00FD02F
:10560000C9F7F6CF462F4F70405D4A3318F0495D19
:1056100031FD4052419302D0A9F7EACFB4E0A695FC
:105620009795879577956795BA95C9F7009761051E
:10563000710508959B01AC010A2E06945795479574
:1056400037952795BA95C9F7620F731F841F951F69
:10565000A01D089520FD09C0FC0123FD05C022FF07
:1056600002C07383628351834083089544FD10C058
:1056700046FD10C0DB01FC01AA0FBB1FEE1FFF1F80
:105680001094D1F76A0F7B1F8E1F9F1F31E003C05C
:1056900033E001C034E0660F771F881F991F315037
:1056A000D1F7620F711D811D911D08950F931F93F6
:1056B000CF93DF938C01C8010E94222AEC0197FD51
:1056C00008C00E94D82D892BB1F7B801CE010E94E5
:1056D000EC2DCE01DF91CF911F910F910895A1E0A4
:1056E000B0E0E5E7FBE20C94F5288C01C62E7A01C8
:1056F00029830E94222AAC01552729814B3251056A
:1057000021F04D32510569F42068CA94C11002C0DD
:1057100080E076C0C80129830E94222A298197FD52
:10572000F7CF322F3D7FD32E322F307349F58033A0
:1057300039F5BB24BA94BC0C09F44EC0C8012983C6
:105740000E94222A298197FD47C0382F3F7D383596
:1057500069F48D2D8264D82ECA94CA94CC20E1F1CC
:10576000C8010E94222A97FF0BC036C026FF04C042
:105770002D2D2260D22E03C03D2D3261D32ECB2C95
:10578000812C912C540120ED280F283080F0D4FE7C
:1057900004C0B8010E94EC2D1CC02A3040F0D6FE97
:1057A000F8CF2F7D3FEE320F363098F727504D2D32
:1057B000C501B4010E94362B4B015C018D2D826026
:1057C000D82ECA94CC2059F0C8010E94222A97FFF3
:1057D000DACFD1FC04C09CCF812C912C5401D7FE90
:1057E00008C0B094A09490948094811C911CA11C3A
:1057F000B11C2D2DB501A401C7010E942A2B81E007
:105800002196ECE00C941129A1E2B0E0EAE0FCE280
:105810000C94F3285C017A01CE0101966C0180E2C0
:10582000F60111928A95E9F7F501838040E050E096
:10583000912C712C70E0A1E0B0E0F90183FC85911E
:1058400083FE81918F01982F9F01811103C080E019
:1058500090E07CC08E3519F44115510549F1E72FD0
:10586000F0E0E417F5073CF48D3559F18D3219F469
:10587000772001F103C0711001C0982E892F869501
:10588000869586958601080F111D892F87703D0129
:1058900001C0660C8A95EAF7F80180818629808329
:1058A000991559F0991510F49F5FE8CF9150E6CF04
:1058B00071E004C07724739401C0712C4F5F5F4F77
:1058C000BCCF772019F08E8180628E83711103C066
:1058D0009924939416C0F6019E012F5D3F4F80815D
:1058E00080958193E217F307D1F7F2CFE114F10429
:1058F00029F0F7018083C70101967C016150912C4A
:10590000F9F0C50169A30E94222A69A197FD16C07A
:10591000282F269526952695F601E20FF11D208168
:1059200030E0AC014770552702C0359527954A9560
:10593000E2F720FDDBCFB5010E94EC2D911087CF5F
:10594000E114F10411F0F7011082C801A196EEE014
:105950000C940F294F925F927F928F929F92AF92F9
:10596000BF92CF92DF92EF92FF920F931F93CF934C
:10597000DF931F92CDB7DEB76C012B015A01FC01FA
:1059800017821682712CF601F380F201F3FC8591E7
:10599000F3FE8191382F2F01882309F4F3C090E0A2
:1059A00039830E94D82D3981892B21F0C6010E94AC
:1059B000562BE9CF353241F4F201F3FC3591F3FE79
:1059C00031912F01353269F4C60139830E94222AB0
:1059D000398197FDD5C03817B1F2B6010E94EC2D80
:1059E000D1C03A3239F4F3FC3591F3FE31912F01F5
:1059F00051E001C050E0420110E020ED230F2A30B9
:105A000090F45260612F70E080E090E040E25983B2
:105A10000E94362B162FF401F3FC3591F3FE3191E1
:105A20004F015981EACF052F232F240151FF03C0D5
:105A3000111102C0A7C01FEF383619F03C3659F0DB
:105A400011C0F401F3FC2591F3FE21912F012836BA
:105A500049F4052F08600460F201F3FC2591F3FE80
:105A600021912F01222309F48DC0622F70E08EEA6C
:105A700091E029830E94E12D2981892B09F482C0BC
:105A800000FD07C0F501E080F180C50102965C01D0
:105A900002C0E12CF12C2E3651F4F60146815781DB
:105AA00060E070E0202FC7010E942A2B6CCF2336C4
:105AB00091F401FF11E0C6010E94222A97FD60C007
:105AC000E114F10429F0F7018083C70101967C01FC
:105AD000115089F751C02B3559F49201A701612F5C
