:100000000C944D030C946A030C946A030C946A03D9
:100010000C946A030C946A030C946A030C945015B4
:100020000C946A030C946A030C946A030C946A039C
:100030000C946A030C946A030C946A030C946A038C
:100040000C946A030C9441070C946A030C946A03A1
:100050000C946A030C940D220C946A030C94670DA3
:100060000C946A030C94250D0C946A030C946A0397
:100070000C946A030C946A030C946A030C946A034C
:100080000C946A030C946A030C946A030C946A033C
:100090000C946A030C946A030C946A030C946A032C
:1000A0000C946A030C946A030C946A030B183F18AF
:1000B0005618691894188A189F194552524F523A87
:1000C00020727820627566666572206F766572664A
:1000D0006C6F770A00AA6A5A56555595A5A9AA25A4
:1000E0007520002575200025692000256868752584
:1000F0006E002575256E002569256E00626C6F63A4
:100100006B5B25645D3D307825303278202830786F
:1001100025303478290A0026626C6F636B3D307895
:10012000253034780A004D435553523D3078253000
:1001300032780A0073746172740A006265657081B6
:10014000626F6F74B5636C6564856565636C9F658C
:10015000657278A065657778A16563686FAA666146
:100160006E65B366616E738A6670776DB266727023
:100170006D9D6D6F74728D706C6564827070737438
:10018000BF7070776DB170737064B97273656EAD66
:1001900072736D65AF72737374AE73676263BA73B3
:1001A000676264BB7368646E8374656D709E746906
:1001B0006366A774696373A97469637596746968E3
:1001C00063C17469686F9874696D61A374697068BC
:1001D000BD7469706FA5746973679A74697374C329
:1001E00074726177B674776366A674776373A87464
:1001F000776375957477646E8F74776863C074776E
:10020000686F9774776D61A274777068BC7477704B
:100210006FA4747773679974777374C27477757009
:100220008E756C6564847570776DB8766F6C74B01C
:1002300076726177B77764656CBE7769646CB46613
:100240006D736BC4676F7365C574697365C65F70E2
:100250006F72E15F646472E25F70696EE364697299
:100260000F656E610C656E6411657272416C656438
:100270000D6C6F67426D6F741072737401736572E9
:1002800003747374437665720270756E1201D30342
:10029000438B05839A048D900497BE0398A9039F0E
:1002A0007F04B46E04B59703BB9303C08503C17785
:1002B00003C56C0300C11E01232102861F032C20ED
:1002C00012E11F0C23210D23210F232110232111C3
:1002D000232141232142232182232184D11F8523ED
:1002E000218A2321952321962321970921980921E9
:1002F0009923219A23219DBD209EA420B0A420B63D
:100300008B20B78B20B12321B92321B82321B2BD83
:1003100020B32321A46E1FA5C91FA6A61FA7A61F31
:10032000A80921A90921AA0921AD2321AE2321BAB7
:100330002321BB3F1FBCD520BDD520BF2E1FC0FB36
:1003400020C1FB20C409210C9C1D0D9C1D0F9C1D70
:10035000109C1D119C1D419C1D429C1D839C1D8158
:10036000741B829C1D842C1B859C1D8EA11C8FA13F
:100370001C8A9C1D959C1D969C1D99401D9A401D94
:100380009F7F04A2C31BA3501CA4C31BA5501CA683
:10039000641AA7641AA8401DA9401DAA9C1DB19CFF
:1003A0001DB99C1DB89C1DB26414AD9C1DAFC31B30
:1003B000BEA11CBCA11CBDA11CC2401DC3401DC0D0
:1003C0001715C1DE14C49C1DBF3E14C6E912E1041A
:1003D00014E3CA13E29013A65113A75113E12F138C
:1003E000E30D13E2EB126525640A006F6B0A00450A
:1003F00052524F523A20636F6D6D616E64206F767A
:100400006572666C6F770A003F3F3F3F004552526E
:100410004F523D256420282553290A004E4F4E4552
:100420000043485341004348534200534E4E53004B
:1004300046555345004C4F434B00475350490054D9
:1004400053504900545349470041444356005448CF
:100450004552004D4F544F0046414E5300554C45B8
:100460004400490053005F006D007D009000A5002E
:10047000BD00D900F8001C0143016E019C01CE01B2
:10048000020237026C02A102D30202032D035303BE
:1004900075039103A903BD03CD03DA03E303EB0363
:1004A000F103F503F80323746970682073746570B1
:1004B000732025640A00256C640A0023494E5436D3
:1004C0000A002569200000534C412D636F6E747241
:1004D0006F6C2025642E25642E25642D25642553FC
:1004E0002000435A505825347358253373582563D8
:1004F00025357320000103050E0F11121315161771
:10050000383A0002042530327800256C6920002535
:1005100030326868782000237477706820737465BF
:1005200070732025640A00256C69256E00256868B3
:1005300069256E00000A0014F000F0001405B004F4
:1005400000000000A005400BA000A0001005DC0585
:1005500000000000000F0014500050001808DC05D7
:100560000000000090015802C800C8001400DC051B
:100570000000000090014006300030001F0CB80B56
:100580000000000090012003300030003E22D00720
:1005900000000000D007800C300030001207D007A8
:1005A00000000000000F0014C800C8000F037E0404
:1005B000000000009808983A960096001608580225
:1005C00000000000C4094C1D5E015E010C017805AD
:1005D00000000000800C983AFA00FA000A0398081C
:1005E0000000000064009600320032000F00DC05BD
:1005F00000000000800CC044FA00FA002206F4015A
:1006000000000000800CC044FA00FA001206F40159
:100610000000000040068025C800C8003F04F40127
:1006200000000000C4094C1D5E015E010C0278054B
:100630000000000019001D00220028002E003600D6
:1006400040004B00580069007C009200AD00CC00D7
:10065000F1001A014A017E01B701F401330271026F
:10066000AF02E8021C034A0372039303AD03C30302
:10067000D303E003E903F0034546476566670020BE
:100680002B2D2E303132333435363738396800630C
:1006900064696E6F70737578580011241FBECFEFB8
:1006A000DAE0DEBFCDBF27E0A6E1B4E001C01D92D5
:1006B000AD31B207E1F714E0A0E0B1E0E6ECFFE510
:1006C00002C005900D92A631B107D9F70E943F0EE6
:1006D0000C94E12F0C94000083E08093540580E497
:1006E0008093060184E08093640580E00895809102
:1006F0000E0781FD08C081E08093070180E18093AF
:10070000B80580E008958EEF089580910E0780FD72
:1007100008C081E0809308018AE08093260480E08D
:1007200008958EEF08951092010680E0089587E7FE
:1007300097E7909301088093000898E088E10FB64E
:10074000F894A895809360000FBE90936000F89491
:10075000FFCF90910E07892F827091FD0DC091E01F
:1007600090930701209100013091010137FD80E154
:100770008093B80580E008958EEF089590910E075C
:10078000892F817090FD0DC091E090930801209118
:1007900002013091030137FD80E18093260480E05F
:1007A00008958EEF089598E088E10FB6F894A89523
:1007B000809360000FBE90936000F894FFCF8F92FB
:1007C0009F92AF92BF92CF92DF92EF92FF920F93E0
:1007D0001F93CF93DF936A017B01082F10E095E20E
:1007E000899FE0011124C252DB4FAB85BC852D856A
:1007F0003E8549018A0E9B1EA12CB12C4815590536
:100800006A057B05A8F0BD8FAC8FC818D908EA0827
:10081000FB08CE8EDF8EE8A2F9A23BA32AA3AB2B66
:1008200011F086E001C084E0232BA9F0886013C09A
:100830009A01AB010E94CB2DA50194010E94942D39
:100840003D8F2C8F1E8E1F8E18A219A2C21AD30A9A
:10085000DBA2CAA28AE095E2909FF001919FF00D81
:100860001124E252FB4F878BDF91CF911F910F91A3
:10087000FF90EF90DF90CF90BF90AF909F908F90C0
:1008800008958EBD0DB407FEFDCF8EB508958091FD
:10089000370490913604981781F0E82FF0E0E75C78
:1008A000FB4F208130E08F5F90913504891708F06D
:1008B00080E080933704C90108958FEF9FEF08957A
:1008C0008093CE008091C80086FFFCCF8091C80045
:1008D00080648093C80080E090E0089580910E07C6
:1008E000837019F00E94EA16F9CF8091080118165A
:1008F000CCF3809107011816ACF380E00895CF93F4
:10090000DF93C0E0D0E06FEFCE010E94362D21963C
:10091000C11584E0D807B9F780E0DF91CF91089541
:1009200080E00E9476218FEF809308018093070179
:1009300080E0089580E00E9406221092140780E073
:100940000895E0916305ED50E83B40F4F0E0EE0FD0
:10095000FF1FE157FD4F80819181089580E090E075
:100960000895FB0190E0941781F02491BF016D5F21
:100970007F4F281307C0319685919491009739F0E5
:10098000FC0109949F5FFB01EECF89EF08958AEF88
:1009900008950F931F93CF93DF93582FC42FD0E068
:1009A00021962223B1F0FB01DC013A2F351B3417CD
:1009B00028F40D91149131960117B9F32150341395
:1009C00005C0FB01E30FF11D849104C06C0F7D1F76
:1009D000E8CF8FEFDF91CF911F910F910895CF93C3
:1009E000DF93CDB7DEB7AE014B5F5F4FFA01619188
:1009F0007191AF0180915D0590915E050E949F2CE1
:100A0000DF91CF910895EF92FF920F931F93CF93B1
:100A1000DF93CDB7DEB7C250D1400FB6F894DEBF3A
:100A20000FBECDBF8E010F5F1F4F1F930F9387E146
:100A300091E09F938F930E94EF04CF5FDE4F198266
:100A40001882C150D1400F900F900F900F908CEFF3
:100A5000E82E80E0F82ECF5FDE4F88819981C1506B
:100A6000D1408F3F910511F00CF047C0CF5FDE4FB2
:100A7000E881F981C150D140E00FF11F1082CF5FB2
:100A8000DE4F88819981C150D140CF5FDE4FE88130
:100A9000F981C150D140E00FF11F4081CF5FDE4F9F
:100AA00028813981C150D140800F911F9F938F932E
:100AB000842F042E000C990B9F934F933F932F93F9
:100AC000FF92EF920E94EF048FE99FE00197F1F708
:100AD00000C000000FB6F894DEBF0FBECDBFCF5FE1
:100AE000DE4F88819981C150D1400196CF5FDE4FA2
:100AF00099838883C150D140AECFCE5FDE4F0FB611
:100B0000F894DEBF0FBECDBFDF91CF911F910F9143
:100B1000FF90EF9008950E94030580E00895CF9321
:100B2000DF93CDB7DEB7AE014B5F5F4FFA01619146
:100B30007191AF0180916505909166050E949F2C8F
:100B4000DF91CF910895CF93DF9300D0CDB7DEB77B
:100B50009E012F5F3F4F3F932F937F936F9327EF1C
:100B600030E03F932F939F938F930E94862C0FB674
:100B7000F894DEBF0FBECDBF019711F4898101C08B
:100B80008DEF0F900F90DF91CF910895CF93DF936A
:100B900000D0CDB7DEB79E012F5F3F4F3F932F931D
:100BA0007F936F9322EF30E03F932F939F938F9328
:100BB0000E94862C0FB6F894DEBF0FBECDBF019702
:100BC00011F4898101C08DEF0F900F90DF91CF91CB
:100BD0000895CF93DF9300D0CDB7DEB79E012F5F8E
:100BE0003F4F3F932F937F936F932BEE30E03F93D4
:100BF0002F939F938F930E94862C0FB6F894DEBF9D
:100C00000FBECDBF019711F4898101C08DEF0F9008
:100C10000F90DF91CF9108959F938F9387EE90E08F
:100C20009F938F930E948F050F900F900F900F90BE
:100C300097FD80E008959F938F9383EE90E09F93BC
:100C40008F930E948F050F900F900F900F9097FD3C
:100C500080E008951F928F938FED90E09F938F9384
:100C60000E948F050F900F900F900F9097FD80E0DE
:100C700008950F931F93CF938C01FC018081918184
:100C80000E941B06C82FF801828193810E941B06D7
:100C9000C80FF801848195810E941B06C80FF801D6
:100CA000868197810E941B06C80FF80180850E94EB
:100CB0002A06C80FF8018185282F082E000C330B57
:100CC0003F938F9382EC94E09F938F930E948F05C4
:100CD0000F900F900F900F9097FD02C0982F01C0BA
:100CE00090E0C90FF801828593850E941B068C0F46
:100CF000CF911F910F91089580912504882309F4C5
:100D00006BC080912404909123048823C1F081500A
:100D100080932404911160C08FE694E09093990031
:100D20008093980080E4809390002F9A8091CB0468
:100D300081608093CB0481E08093230408959923FC
:100D400051F0109290002F988091CB048E7F809369
:100D5000CB041092230480912204882321F0815037
:100D600080932204089520912104E22FE695E695D0
:100D7000F0E0E35EFB4F808190E0422F437023E080
:100D800030E0241B3109220F331F02C0959587954F
:100D90002A95E2F78370823059F0833081F08130F8
:100DA00019F01092240407C080E38093240404C047
:100DB00080E98093240480E38093220402C010928F
:100DC0002104809121048F5F809321049091250458
:100DD000891710F0109221040895CF92DF92EF92BC
:100DE000FF926B017C0120E030E0A9010E94432EBC
:100DF000811103C0109290001CC0A701960160E011
:100E000074E284E799E40E94482E20E030E040E05C
:100E10005FE30E94D62D0E94BA2E683C710510F443
:100E200068EC70E0709399006093980080E4809380
:100E30009000FF90EF90DF90CF900895E82FF0E0C2
:100E4000EB52FF4FE491F0E0FE2FEE27853010F0DB
:100E5000E06401C0E068F894F0931D04E0931E0480
:100E600010922104109224041092220488E08093AE
:100E70002504789408958EBD0DB407FEFDCF8EB580
:100E800008951F920F920FB60F9211244F925F9206
:100E90006F927F928F929F92AF92BF92CF92DF928A
:100EA000FF920F931F932F933F934F935F936F93F3
:100EB0007F938F939F93AF93BF93CF93DF93EF93E2
:100EC000FF931092850010928400C090EF04D090A0
:100ED000F0040091140510911505E1E0C016D1064B
:100EE00008F0E0E0E0931C0445E2E49FF0011124E7
:100EF000E252FB4FC189D289D0931B04C0931A04DC
:100F00008091840090918500209709F4B5C2F9B0D2
:100F1000F294F694F69493E0F92280915605F82223
:100F20008F2D90E09093190480931804C03A56E3F3
:100F3000D50750F0FE0186E0F695E7958A95E1F732
:100F4000E15FFE4F46A11AC0C03A66E2D60748F0FC
:100F5000FE01B5E0F695E795BA95E1F7E55AFF4F42
:100F60000CC0C03A7EE1D70758F0FE01A4E0F69528
:100F7000E795AA95E1F7E95DF040408150E01AC09D
:100F8000C032D105A8F0BE0176956795CB01A0E0EF
:100F9000B0E0BC01CD0160587B47814E9F4F4E01B0
:100FA000A12CB12CA50194010E94942DA90102C08D
:100FB00040E050E050931704409316048091840061
:100FC00090918500F0910E07F0FF24C12091F80464
:100FD0003091F904240F351F3093F9042093F8045D
:100FE0008091F6049091F704C816D90608F40CC154
:100FF0008C0F9D1F8C199D099093F7048093F60424
:10100000E091F5048091F1049091F204A091F30431
:10101000B091F404F4FF04C00197A109B10903C021
:101020000196A11DB11D8093F1049093F204A09349
:10103000F304B093F404E1FF50C0A091E504B09133
:10104000E6042F3F310509F058F44A9FB0014B9F49
:10105000700D5A9F700D1124CB01A0E0B0E005C0C7
:101060009A010E94BC2DDC01CB0173E0880F991F0F
:10107000AA1FBB1F7A95D1F78090ED049090EE04E3
:10108000A090EF04B090F004880D991DAA1DBB1D1F
:101090008093ED049093EE04A093EF04B093F004DA
:1010A0008091FA049091FB0401979093FB04809344
:1010B000FA04892B09F08BC08E2F8D7FE2FF86C04A
:1010C0002091E3043091E4043093F0042093EF0482
:1010D0001092EE041092ED0479C0E2FF28C08091D6
:1010E000FC049091FD04A091FE04B091FF040197CF
:1010F000A109B1098093FC049093FD04A093FE0420
:10110000B093FF04892B8A2B8B2B09F060C08E2FA4
:101110008B7FE3FD5BC0FE7FF0930E071092ED0422
:101120001092EE041092EF041092F0044FC0E3FF0F
:101130004EC0A091E704B091E8042F3F310509F0BB
:1011400058F44A9FB0014B9F700D5A9F700D1124A7
:10115000CB01A0E0B0E005C09A010E94BC2DDC01EB
:10116000CB0163E0880F991FAA1FBB1F6A95D1F7B7
:101170008090ED049090EE04A090EF04B090F00405
:1011800024013501481A590A6A0A7B0A4092ED0483
:101190005092EE046092EF047092F004809100058A
:1011A0009091010501979093010580930005892B8B
:1011B00071F4E77FFE7FF0930E071092ED0410921A
:1011C000EE041092EF041092F00401C0E82F809119
:1011D0000205882321F08150809302050CC0F0FEA7
:1011E0000AC080910E078E7F80930E078091BD0507
:1011F00081608093BD05E093F5041092F90410928C
:10120000F804DD24D39407C08C199D099093F7044A
:101210008093F604D12CF0910E07F1FF29C1809143
:101220001D0590911E05840F951F90931E058093B8
:101230001D0520911B0530911C050217130708F4AA
:101240000EC1C20FD31FC01BD10BD0931C05C0937E
:101250001B05E0911A0500911605109117052091C4
:10126000180530911905F5FF05C001501109210934
:10127000310904C00F5F1F4F2F4F3F4F00931605DA
:10128000109317052093180530931905E1FF50C0FE
:10129000A0910A05B0910B058F3F910509F058F414
:1012A0004A9FB0014B9F700D5A9F700D1124CB01C6
:1012B000A0E0B0E005C09A010E94BC2DDC01CB018A
:1012C00033E0880F991FAA1FBB1F3A95D1F70091F1
:1012D0001205109113052091140530911505800F0A
:1012E000911FA21FB31F8093120590931305A09323
:1012F0001405B093150580911F0590912005019765
:101300009093200580931F05892B09F08BC08E2FA9
:101310008D7FE2FF86C0209108053091090530934A
:10132000150520931405109213051092120579C02B
:10133000E2FF28C08091210590912205A09123050C
:10134000B09124050197A109B109809321059093DB
:101350002205A0932305B0932405892B8A2B8B2B80
:1013600009F060C08E2F8B7FE3FD5BC0FD7FF093A3
:101370000E07109212051092130510921405109288
:1013800015054FC0E3FF4EC0A0910C05B0910D05AF
:101390008F3F910509F058F44A9FB0014B9F700DA3
:1013A0005A9F700D1124CB01A0E0B0E005C09A0156
:1013B0000E94BC2DDC01CB0123E0880F991FAA1FDE
:1013C000BB1F2A95D1F700911205109113052091AA
:1013D000140530911505B901A801481B590B6A0B7A
:1013E0007B0B409312055093130560931405709383
:1013F0001505809125059091260501979093260566
:1014000080932505892B71F4E77FFD7FF0930E070C
:1014100010921205109213051092140510921505E2
:1014200001C0E82F80912705882321F08150809307
:1014300027050DC08F2D827051F080910E078D7F92
:1014400080930E078091BD0582608093BD05E09377
:101450001A0510921E0510921D0582E008C0E901D0
:10146000C01BD10BD0931C05C0931B0580E0D82A6C
:101470008D2D0E94B50D06C080ED97E09093170466
:10148000809316048091160490911704909389001C
:10149000809388002091840030918500809116040B
:1014A000909117042817390728F00A979093850020
:1014B00080938400FF91EF91DF91CF91BF91AF9125
:1014C0009F918F917F916F915F914F913F912F915C
:1014D0001F910F91FF90DF90CF90BF90AF909F90A2
:1014E0008F907F906F905F904F900F900FBE0F90F6
:1014F0001F901895CF92DF92EF92FF920F931F9358
:10150000CF93DF9300D000D0CDB7DEB7082F10E027
:1015100021E030E06901082E01C0CC0C0A94EAF702
:1015200090910E079C2109F05BC0411551056105A2
:10153000710509F457C0F82EEC2CE09449835A83C6
:101540006B837C8314161506160617069CF40E94FE
:10155000DD0D8E210E94CE0D8C2D8295807F809591
:1015600090910E07892380930E0749815A816B81E0
:101570007C8118C00E94DD0D8C290E94CE0D8091C7
:101580000E079C2D9295907F892B80930E074981A1
:101590005A816B817C8170956095509541955F4F24
:1015A0006F4F7F4F8F2D0E94DF0385E2809FF001F8
:1015B000819FF00D1124E252FB4F108A1786838120
:1015C0009481928B818B80E284A38091BD05E82277
:1015D000E092BD0580910E078C2980930E0702C012
:1015E0008FEF01C080E00F900F900F900F90DF9170
:1015F000CF911F910F91FF90EF90DF90CF900895C2
:10160000CF92DF92EF92FF920F931F93CF93DF93CE
:10161000C82ED12C95E2899FE0011124C252DB4FE4
:101620008D819E810B811C817C01E01AF10A080FDB
:10163000191F2F8138852115310539F1C701A0E027
:10164000B0E0BC01CD01ECE0660F771F881F991F49
:10165000EA95D1F740E050E00E94942DF4E05695D1
:10166000479537952795FA95D1F7D8010E94CB2D4C
:101670006C5D7B408F4F9F4F28E438EE41E050E097
:101680000E94942D3C872B8702C01C861B8685E216
:101690008C9DE0018D9DD00D1124C252DB4F298518
:1016A0003A852115310539F1C701A0E0B0E0BC0150
:1016B000CD014CE0660F771F881F991F4A95D1F71F
:1016C00040E050E00E94942D64E056954795379590
:1016D00027956A95D1F7D8010E94CB2D6C5D7B4090
:1016E0008F4F9F4F28E438EE41E050E00E94942D48
:1016F0003E872D8702C01E861D86DF91CF911F91E8
:101700000F91FF90EF90DF90CF900895AF92BF922E
:10171000CF92DF92EF92FF920F931F93CF93DF93BD
:101720001F92CDB7DEB7A82E8A018CE5F82EFCBC3F
:101730001DBC8A2D69830E94C50D6981862F0E9478
:10174000410480E00E94410480E00E94410480E066
:101750000E94410480E00E9441048A2D0E94BC0D39
:10176000FCBC1DBC8A2D0E94C50D80E00E94410476
:10177000B82E80E00E944104C82ED12CE12CF12C1F
:10178000FE2CED2CDC2CCC2480E00E944104C82AE5
:10179000FE2CED2CDC2CCC2480E00E944104C82AD5
:1017A000FE2CED2CDC2CCC2480E00E944104C82AC5
:1017B0008A2D0E94BC0D0115110529F0F801C08287
:1017C000D182E282F3828B2D0F90DF91CF911F9116
:1017D0000F91FF90EF90DF90CF90BF90AF90089562
:1017E0001F93CF93DF9300D000D01F92CDB7DEB709
:1017F000182F8CE58CBD1DBC812F2D833C834B8322
:101800005A8369830E94C50D6981862F0E94410415
:101810005A81852F0E9441044B81842F0E944104EC
:101820003C81832F0E9441042D81822F0E9441041C
:10183000812F0E94BC0D80E00F900F900F900F90B1
:101840000F90DF91CF911F91089599E0899FF0014A
:101850001124E453FB4F6683462F660F550B660B2E
:10186000770B332722276DEE0C94F00BCF92DF928B
:10187000EF92FF921F93CF93DF93182F603218F0EF
:10188000669520E001C021E0822F90E0A0E0B0E06A
:101890006C017D0181E1CC0CDD1CEE1CFF1C8A95E6
:1018A000D1F789E0189FE0011124C453DB4F8881F0
:1018B0009981AA81BB81AD7FA7019601282B392B85
:1018C0004A2B5B2B288339834A835B836C836D832C
:1018D0006CEE812F0E94F00B2C812F71822F90E0F3
:1018E000A0E0B0E0AF604D814F7150E0542F44272D
:1018F000052E000C660B770B9A01AB01282B392BB8
:101900004A2B5B2B60E9812FDF91CF911F91FF90D4
:10191000EF90DF90CF900C94F00B29E0829FC001F4
:101920001124FC01E453FB4F40815181628173819A
:10193000858161FF880F0895FF920F931F93CF93C6
:10194000DF9300D000D0CDB7DEB7F82E83ED90E066
:10195000A3E0B4E189839A83AB83BC8329E0F29E40
:101960008001112404531B4FF80180839183A283CB
:10197000B38380E18483858383E086838CED95E067
:101980009087878323ED30E043E054E16CEE8F2DA8
:101990000E94F00BAE014F5F5F4F6CE68F2D0E94EF
:1019A000860BF801408151816281738189819A811E
:1019B000AB81BC81481759076A077B0741F520E0D6
:1019C00030E0A90161E98F2D0E94F00BF80126811A
:1019D000822F220F990BAA0BBB0BAC0133272227B6
:1019E0006DEE8F2D0E94F00BF8012781308540E0CD
:1019F00050E064E98F2D0E94F00B20E831E340E0D5
:101A000050E060E88F2D0E94F00B80E001C08FEF66
:101A10000F900F900F900F90DF91CF911F910F912A
:101A2000FF9008951092DC051092D7058091C904AB
:101A300080FD04C01092D9051092D80581FD04C024
:101A40001092DB051092DA0508951F920F920FB6DF
:101A50000F9211242F938F939F93EF93FF932091D5
:101A6000CE008091360490913704E82FF0E0E75CD7
:101A7000FB4F20838F5F20913504821708F080E0B0
:101A8000891719F08093360418C0F894EAEBF0E057
:101A90008BE18E0F9091C80095FFFCCF94919093AD
:101AA000CE009091C80096FFFCCF31968E13F2CFF6
:101AB00078941092360410923704FF91EF919F9121
:101AC0008F912F910F900FBE0F901F9018951F921E
:101AD0000F920FB60F9211248F939F93AF93BF93E2
:101AE00086B58A5F86BD78948091500590915105A6
:101AF000A0915205B09153050196A11DB11D80938F
:101B0000500590935105A0935205B0935305BF9192
:101B1000AF919F918F910F900FBE0F901F901895CE
:101B20001F93CF93DF9300D000D0CDB7DEB7162F31
:101B3000EFECF7E03197F1F700C00000F89419825C
:101B40001A821B821C82AE014F5F5F4F64E00E94CD
:101B5000860B89817894812783710F900F900F9065
:101B60000F90DF91CF911F91089580FD2D9A81FDF7
:101B70002E9A2D982E980895882319F0813019F007
:101B80000895599A08955C9A0895882319F0813030
:101B900019F00895599808955C980895E4E0F1E0EB
:101BA000282F217090819A7F922B8270880F892B29
:101BB000808382E090E00C94311680910401282FFC
:101BC000247030E0359527958170822B0895EF922F
:101BD000FF920F931F93CF93DF93C82F01E010E084
:101BE00001C0000F8A95EAF70E948B21F82E0E940F
:101BF000DD0DE82ED02FD0958F2D8D230E947621DC
:101C00008E2D8D230E94CE0D60E18C2F0E94900DB1
:101C1000D82FCC2321F0C13019F42E9A01C02D9A6F
:101C200061E18C2F0E94900DD82BCC2321F0C13084
:101C300019F42E9801C02D988E2D802B0E94CE0D68
:101C400062E18C2F0E94900DD82B802F0E94B50D41
:101C50008F2D802B0E94762162E08C2F0E94900DA8
:101C6000D82B8E2D0E94CE0D8F2D0E9476218D2F88
:101C7000DF91CF911F910F91FF90EF900895CF9337
:101C8000DF93CDB7DEB7A1970FB6F894DEBF0FBED6
:101C9000CDBF84B780935C0514BE80915C0583FF43
:101CA00011C08091000990910109853A9A4551F43B
:101CB00080915C05877F80935C0580915C058068DE
:101CC00080935C058AE595EA909301098093000969
:101CD0009FB7F894A89584B7877F84BF18E11093C5
:101CE0006000109260009FBF8FE00FB6F894A89537
:101CF000109360000FBE809360001092D700109286
:101D0000D80095E19093C5008093C60080E8809349
:101D1000610010926100789481E00E940622809117
:101D2000C80082608093C80080E18093CC0010934B
:101D3000C9008091C90080688093C9008CE78093B6
:101D40003504109236041092370487E294E020E6BE
:101D500034E03093300420932F0427E434E03093B0
:101D600032042093310423E020932A041092340497
:101D7000109233045A9A9093180780931707909300
:101D80001A078093190790936905809368059093CB
:101D900066058093650590935E0580935D0584E3F9
:101DA00091E09F938F930E94602C80915C051F921D
:101DB0008F9386E291E09F938F930E94EF0480912E
:101DC0007100817F80937100109290008AE080936F
:101DD0009100109299001092980010929B0010921E
:101DE0009A0010929D0010929C0010929500109203
:101DF00094003E9A469889EB94E00E94C021BE016F
:101E00006F5E7F4F80E090E00E94652840E150E0E7
:101E100069EB74E0CE0141960E949B2F0F900F90CA
:101E20000F900F900F900F90892B39F500E011E083
:101E3000BE016F5F7F4FC8010E94652889819A812A
:101E400081329E44D0F48B819C8181329E44A8F4DF
:101E50008D819E810C978D34924078F48F81988586
:101E60000C978D34924048F48985803430F48B850A
:101E70009C858938934108F4D4C28FEF9FEF9093EB
:101E800003018093020190930101809300018FEF81
:101E90009FEFDC018093B5049093B604A093B70440
:101EA000B093B8040E945727ECEDF2E645915591A6
:101EB0006591749180E090E0DC01E0E0F0E022E6E2
:101EC000EC3DF20751F09F012F5F3F4FE4918E0FE1
:101ED000911DA11DB11DF901F2CF481759076A07DD
:101EE0007B07C9F480E090E0DC01E0E0F0E79F01CF
:101EF0002F5F3F4FE4918E0F911DA11DB11DF90180
:101F0000203F3F47A1F786369D49A740B10509F418
:101F1000A0C282E001C081E00E94201A84B1817FCA
:101F200084B984B1876084B985B1817F85B9289AE5
:101F300080E58CBD1DBC8AB182618AB98BB182619A
:101F40008BB98FE39CE90197F1F700C00000249A58
:101F50002C9A2C982C9A60E080E00E94E42760EE96
:101F600081E00E94E4276AE082E10E94E42760EEBB
:101F700083E10E94E42780E00E94D22781119CC265
:101F800081E00E94D227803E09F096C21092CA04D6
:101F90001092C90480917A00876080937A008091C2
:101FA0007C00806480937C0080917A0080688093BC
:101FB0007A0013E010937E000E94120D279A209A57
:101FC000559A509A2F9A289A5D9A589A81E0809350
:101FD000CB048093540584E1809358058093590580
:101FE00080935A0580935B0580935705259A269A1E
:101FF0002D982E9856985798519A549A599A5C9AB7
:1020000080E00E949C0C082F001F0027001F81E029
:102010000E949C0C87FD02C0002321F087E00E94F3
:10202000201AD0C08091CC049091CD04A091CE0410
:10203000B091CF04B07F9C01AD0154602093CC04DB
:102040003093CD044093CE045093CF046CEE80E0E7
:102050000E94F00B8091D5049091D604A091D704F2
:10206000B091D804B07F9C01AD0152602093D5049B
:102070003093D6044093D7045093D8046CEE81E09B
:102080000E94F00B68E180E00E94360C66E080E080
:102090000E94250C68E181E00E94360C68E081E036
:1020A0000E94250C9FEFA0E7B2E09150A040B04005
:1020B000E1F700C0000005E2EEEDF4E0DF01202FC3
:1020C0001D922A95E9F788E58093DE0480E293E08B
:1020D0009093E0048093DF0480E8E82E8CE0F82EF3
:1020E000F092E204E092E10480EC94E49093E40442
:1020F0008093E3048AEF90E09093E6048093E504F4
:102100009093E8048093E70480E00E94000BE3E0F2
:10211000F5E0DF011D920A95E9F789E58093030553
:10212000F0920505E092040580EC93E0909307059A
:102130008093060580E095E090930905809308055B
:102140008CE090E090930B0580930A0590930D0529
:1021500080930C0581E00E94000B809181008F7EAE
:1021600080938100809181008860809381008091BC
:1021700080008D7F80938000809180008E7F80938F
:102180008000809180008F73809380008091800018
:102190008F7C8093800080918100887F8260809313
:1021A000810080E092E090938900809388001092F3
:1021B00085001092840080916F00826080936F0090
:1021C0001093560580B38F7080BB81B3806F81BB45
:1021D00080910501877E8093050188E090E00E9450
:1021E0007F1610924D0560E070E08CED93E40E9444
:1021F000ED0682E390E090934F0580934E05109298
:10220000500510925105109252051092530514BCBE
:1022100083E085BD86E086BD80916E0081608093FD
:102220006E0084B5836084BD8DE787BD80916E00AC
:10223000826080936E0080916A008F7C80936A0038
:1022400080916A00806280936A00809164058111A8
:102250000DC00E94E70D882321F088E00E94201A1B
:1022600005C081E00E94E70D8111F7CF80916405E0
:1022700081110AC082E08093540598E09093060192
:1022800080936405109255050FEE13E0A895809198
:102290005F0590916005892B39F48DB79EB79093B7
:1022A000600580935F051BC020915F05309160053C
:1022B0008DB79EB72817390791F0F89498E088E118
:1022C0000FB6F894A895809360000FBE90936000BD
:1022D00085EA9AE59093010980930009FFCF8091E8
:1022E0009405909195058A97CCF08FEF22C08D30A0
:1022F000F1F08A30E1F02091940530919505F901D3
:10230000E659FA4F80838823A1F02F5F3F4F309327
:102310009505209394052A3231055CF48091680577
:10232000909169050E94EA2B87FFE1CF02C080E00F
:10233000E2CF20919405309195052A3231052CF099
:102340003F932F931F930F935FC0121613060CF049
:1023500065C0811163C080916705882381F0609119
:102360006505709166058AE695E00E94B72F609139
:102370006505709166058AE090E00E94282C3091F6
:102380006A05313219F03F3309F0ADC0E0916B05B9
:10239000EE2309F4AFC080916E058F7D09F090C0E7
:1023A0002CE043E06DE572E08BE695E039A30E94F6
:1023B000C90439A18F3F09F496C0E3E00E2E000C4A
:1023C000FF0BE559FA4F908191118BC090916405F4
:1023D0009F3F09F491C080936305313209F092C0A8
:1023E0004DE06DE872E00E94B104482F55274195F9
:1023F0000CF450959A01882309F477C086EE93E097
:102400003F932F939F938F930E948F051092950572
:10241000109294050F900F900F900F900E94EA1663
:1024200035CF005F1F4F003851E0150709F000CD90
:1024300080E093E00E94302D90930301809302018D
:1024400080E193E00E94302D909301018093000180
:102450002BCDCE0101960E94C021FE01319680E174
:102460008E0F91919F3F21F48E13FBCF83E054CDCB
:1024700089E0E0E0F0E080935700E491EE3509F068
:1024800066C0E3E0F0E080935700E491E83D09F096
:102490005EC0E2E0F0E080935700E491E83C09F090
:1024A00056C0E1E0F0E08093570084918F738F3243
:1024B00009F434CD85E030CD86E00E94201A66CD47
:1024C00080916F058F7D79F42AE344E06BE371E03E
:1024D0008BE695E039A30E94C90439A18F3F41F4EE
:1024E00002C09032A9F08DEF80CF8BEE93E088CFC1
:1024F000E4E064CF80E062CF823008F46CCF8134B6
:1025000021F569CF3F3379F741E364EB72E06BCF9C
:102510003196909164059F3FC1F0803E20F09091EC
:102520006405943091F480936305F0936205E09321
:102530006105313221F440E367E473E054CF3F3367
:1025400091F645E067ED73E04ECF8BEF4ECF84E020
:10255000E3CCCF92DF92EF92FF920F931F93CF9332
:10256000DF93EC018A0170E06150710950E090E066
:10257000292F30E0261737070CF57E01E20EF31EF7
:10258000F7018081D90111966E01CA0EDB1EF6019A
:102590004081481788F4F7014083F60180830115D4
:1025A000110549F0F801E20FF31F8081A00FB11F60
:1025B0002C9120838C9351E09F5FDACF5111D6CFBD
:1025C000DF91CF911F910F91FF90EF90DF90CF900F
:1025D000089580E00895E0916105F09162058081A1
:1025E0009EEB980F9530B8F4843461F018F483347E
:1025F00039F004C0853441F0863441F084B107C01D
:1026000087B105C08AB103C08DB101C080B30E94FB
:102610002A0680E008958CEF0895E0916105F0911D
:10262000620580819EEB980F9530B8F4843461F098
:1026300018F4833439F004C0853441F0863441F015
:1026400083B107C086B105C089B103C08CB101C098
:102650008FB10E942A0680E008958CEF0895E091E2
:102660006105F091620580819EEB980F9530B8F47A
:10267000843461F018F4833439F004C0853441F0B7
:10268000863441F085B107C088B105C08BB103C065
:102690008EB101C081B30E942A0680E008958CEFBC
:1026A00008951F93CF93DF93CDB7DEB761970FB631
:1026B000F894DEBF0FBECDBF10916305BE016F5E03
:1026C0007F4F80916105909162050E94E90580939A
:1026D000960587FD1BC029892830B8F4173A19F4EC
:1026E00080E092E002C080E091E0BE016F5F7F4F2A
:1026F00030E1239F800D911D11240E946528CE0199
:1027000001960E94390680E001C08CEF61960FB6F9
:10271000F894DEBF0FBECDBFDF91CF911F9108951A
:102720001F93CF93DF931F92CDB7DEB7E091610582
:10273000F091620510812EEB210F253028F5CF0195
:1027400001969093620580936105BE016F5F7F4F94
:102750000E94E9058093960587FD17C0898114348E
:1027600061F018F4133439F004C0153441F0163414
:1027700049F084B905C087B903C08AB901C08DB9D1
:1027800080E003C080BBFCCF8CEF0F90DF91CF9136
:102790001F9108951F93CF93DF931F92CDB7DEB79C
:1027A000E0916105F091620510812EEB210F25303B
:1027B00028F5CF0101969093620580936105BE01D3
:1027C0006F5F7F4F0E94E9058093960587FD17C0D4
:1027D0008981143461F018F4133439F004C01534CD
:1027E00041F0163449F083B905C086B903C089B9F0
:1027F00001C08CB980E003C08FB9FCCF8CEF0F9083
:10280000DF91CF911F9108951F93CF93DF931F9274
:10281000CDB7DEB7E0916105F091620510812EEB36
:10282000210F253028F5CF01019690936205809302
:102830006105BE016F5F7F4F0E94E9058093960599
:1028400087FD17C08981143461F018F4133439F00E
:1028500004C0153441F0163449F085B905C088B973
:1028600003C08BB901C08EB980E003C081BBFCCF2F
:102870008CEF0F90DF91CF911F910895CF93DF934D
:102880001F92CDB7DEB7BE016F5F7F4F80916105AC
:10289000909162050E94E9058093960587FD10C01E
:1028A0008981823060F4882329F0EE9A81E0809358
:1028B000C20503C0EE981092C20580E001C08CEF03
:1028C0000F90DF91CF910895CF93DF9300D000D088
:1028D000CDB7DEB7BE016C5F7F4F809161059091EF
:1028E00062050E94E9058093960587FD60C09C8182
:1028F000993210F08CEF5BC0209161053091620538
:10290000A901480F511D87FD5A95CA0150936205D0
:1029100040936105BE016D5F7F4F0E94E905809382
:10292000960587FD44C09B81953120F72091610574
:1029300030916205A901480F511D87FD5A95CA01C2
:102940005093620540936105BE016E5F7F4F0E9408
:10295000E9058093960587FD2AC09A81953150F646
:102960002091610530916205A901480F511D87FD35
:102970005A95CA015093620540936105BE016F5F8D
:102980007F4F0E94E9058093960587FD10C08981DD
:10299000853108F0AFCF9C81909358059B8190932F
:1029A00059059A8190935A0580935B0580E00F90BA
:1029B0000F900F900F90DF91CF910895CF93DF93F9
:1029C00000D0CDB7DEB7BE016F5F7F4F809161054C
:1029D000909162050E94A3058093960587FD22C011
:1029E00089819A819C012F5F3F4F21303140C8F48B
:1029F00090930101809300018091B5049091B604F9
:102A0000A091B704B091B80494608093B5049093FA
:102A1000B604A093B704B093B8040E94572780E08F
:102A200001C08CEF0F900F90DF91CF910895CF935D
:102A3000DF9300D0CDB7DEB7BE016F5F7F4F8091CF
:102A40006105909162050E94A3058093960587FD1C
:102A500022C089819A819C012F5F3F4F213431052B
:102A6000C8F490930301809302018091B504909182
:102A7000B604A091B704B091B80492608093B504F5
:102A80009093B604A093B704B093B8040E9457275C
:102A900080E001C08CEF0F900F90DF91CF910895EF
:102AA0001F920F920FB60F921124109250051092A0
:102AB00051051092520510925305EE98789480E0DB
:102AC0000E94762180E00E94CF2180E00E94EC21CC
:102AD00060E070E08AEF94E40E94ED0680ED97E0FC
:102AE00090934F0580934E058BEB94E09F938F93CB
:102AF0000E94EF040F900F90C12CD12C7601C6EBF1
:102B0000D4E0FF92EF92DF92CF92DF93CF930E94B7
:102B1000EF046091C2058FEF860F0F900F900F901A
:102B20000F900F900F908E3F48F48FEF93E00E942C
:102B30004E2D8091C2058F5F8093C2058AE0C80E3A
:102B4000D11CE11CF11C8091500590915105A09180
:102B50005205B09153058C159D05AE05BF0598F340
:102B6000D0CFCF93C82F80910E0781FD37C0409101
:102B700016055091170560911805709119058C2F55
:102B80000C2E000C990BAA0BBB0B840F951FA61FD4
:102B9000B71F8093160590931705A0931805B0935F
:102BA0001905C7FF05C0C1950E94DD0D826003C0F5
:102BB0000E94DD0D8D7F0E94CE0DCC2369F0F8942C
:102BC00082E00E94B50D78948FE99FE00197F1F7BC
:102BD00000C00000C150F1CF80E001C08EEFCF9166
:102BE0000895CF93C82F80910E0780FD37C0409184
:102BF000F1045091F2046091F3047091F4048C2F6D
:102C00000C2E000C990BAA0BBB0B840F951FA61F53
:102C1000B71F8093F1049093F204A093F304B09350
:102C2000F404C7FF05C0C1950E94DD0D816003C09B
:102C30000E94DD0D8E7F0E94CE0DCC2369F0F894AA
:102C400081E00E94B50D78948FE99FE00197F1F73C
:102C500000C00000C150F1CF80E001C08EEFCF91E5
:102C60000895F89420910B0730910C07282B392BED
:102C700030930C0720930B07789420910B07309129
:102C80000C0728233923232BC1F70895CF93DF9313
:102C9000EC0180E090E20E943116D695C795D6955A
:102CA000C7958091EA059091EB0596958795969545
:102CB0008795C81BD90BC138D1053CF080E091E065
:102CC0009C012C1B3D0BE90105C0C0383FEFD30729
:102CD0000CF4D3958C2F0C2E000C990B9F938F9393
:102CE00086EA94E09F938F930E94EF040F900F90D9
:102CF0000F900F908C2FDF91CF910C94B115F89419
:102D000020910B0730910C07822B932B90930C078B
:102D100080930B0778940895CF93DF93CDB7DEB7F8
:102D200060970FB6F894DEBF0FBECDBF8F3F19F48A
:102D300080930D0114C08830A0F480930D0120E130
:102D40008202C0011124BE016F5F7F4F9E5F0E940F
:102D50006528BE016F5F7F4F81E00E943C2680E0C6
:102D600001C08CEF60960FB6F894DEBF0FBECDBFEA
:102D7000DF91CF910895CF93DF93CDB7DEB7609702
:102D80000FB6F894DEBF0FBECDBF8F3F19F480930E
:102D90000E0114C08830A0F480930E0120E182025D
:102DA000C0011124BE016F5F7F4F93950E9465287B
:102DB000BE016F5F7F4F80E00E943C2680E001C033
:102DC0008CEF60960FB6F894DEBF0FBECDBFDF91DB
:102DD000CF910895FF920F931F93CF93DF93CDB7B9
:102DE000DEB7A0970FB6F894DEBF0FBECDBF8091BF
:102DF00055058823D9F08530A1F038F4833071F07F
:102E0000843009F011C385E00CC0873069F040F0D0
:102E1000883009F009C31092550506C384E001C04B
:102E200087E08093550500C388E0FBCF80910801BF
:102E300018160CF0DCC0833009F460C02CF481302B
:102E400051F0823071F1D3C0843009F44DC0853027
:102E500009F4C3C0CCC08091F1049091F204A09118
:102E6000F304B091F4048093BE059093BF05A09342
:102E7000C005B093C10580E00E94BB160E948B2163
:102E800081600E947621809156058160809356056D
:102E900040E859EA63E070E080E00E947A0A82E04C
:102EA00020C080910E0780FDA2C08091BD0580FFEB
:102EB00023C08091F1049091F204A091F304B091A9
:102EC000F4048093BE059093BF05A093C005B09312
:102ED000C10540E05CEF6FEF7FEF80E00E947A0A6F
:102EE00083E08093080183C080910E0780FD7FC03E
:102EF0008091BD0580FD38C08EEFF3CF80910E0725
:102F000080FD75C08091BD0580FD2CC08091F104CD
:102F10009091F204A091F304B091F4048093BE0563
:102F20009093BF05A093C005B093C10581E00E94B6
:102F3000BB168091F1049091F204A091F304B0913A
:102F4000F4048093BE059093BF05A093C005B09391
:102F5000C10540E05CE060E070E080E00E947A0A39
:102F600084E0BFCF8DEFBDCF8091F1049091F2044A
:102F7000A091F304B091F4044091BE055091BF05B7
:102F80006091C0057091C105841B950BA60BB70B12
:102F9000805C9340A109B10981349640A105B10537
:102FA00008F780E00E94BB168091F1049091F20432
:102FB000A091F304B091F4048093BE059093BF05F3
:102FC000A093C005B093C10540E05CEF6FEF7FEFC9
:102FD00080E00E947A0A85E084CF80910E0780FD10
:102FE00006C08091BD0580FDBDCF10920801E09123
:102FF00007011E160CF0ADC18E2FEE0F990BAA0B18
:10300000BB0BFC013197E730F10508F0A2C1EA5A89
:10301000FF4F0C94B62D8091160590911705A09145
:103020001805B09119058093B9059093BA05A0933E
:10303000BB05B093BC0581E00E948C1681E00E9424
:103040008D0C9BEA899F812D112486958093F30531
:1030500080E091E00E9431160E948B2182600E94E4
:103060007621809156058D7F8093560540E05CEF78
:103070006FEF7FEF81E00E947A0A82E014C08091B6
:103080000E0781FD66C180E00E948C168091560576
:1030900082608093560540E054E060E070E081E09B
:1030A0000E947A0A83E08093070153C180910E0742
:1030B00081FD4FC18091BD0581FF02C08DEFF3CF2F
:1030C00040E05EEC6FEF7FEF81E00E947A0A84E0DF
:1030D000EACF80910E0781FD3CC18091BD0581FF43
:1030E00021C08091160590911705A0911805B09107
:1030F00019058093B9059093BA05A093BB05B093C9
:10310000BC0540E054E060E070E081E00E947A0A93
:1031100085E0C9CF80910E0781FD1BC18091BD055F
:1031200081FD26C08EEFBFCF80910E0781FD11C1BA
:103130008091BD0581FDC2CF809116059091170544
:10314000A0911805B09119058093B9059093BA051F
:10315000A093BB05B093BC0581E00E948C1640E0B3
:1031600054EF6FEF7FEF81E00E947A0A86E09BCFF9
:103170008091B9059091BA05A091BB05B091BC05AD
:103180009350A109B109409116055091170560911E
:10319000180570911905841B950BA60BB70B813090
:1031A0009940A105B10508F089CF1091B805112308
:1031B00009F493C084E08093070111501093B8057F
:1031C00080E090E20E943116E12FF0E0E855FA4FDE
:1031D0008091EA059091EB05969587959695879550
:1031E00080831111B6C040E050E060E188EA95E0CC
:1031F0000E94A912E091A805F0E009EA15E030E08C
:1032000021E04FE0F42EF00ED8014D918D01622F98
:1032100070E0CF010E946C2D461718F4562F541BF6
:1032200002C0542F561B842F90E0523020F42F5FA1
:10323000E80FF91F13C0432F50E0E1E1F0E0EC0F7D
:10324000FD1FE40FF51F2083E1E0F0E0EC0FFD1F10
:10325000E40FF51F6083FC013F5F21E0F012D4CF43
:10326000832F90E0A1E1B0E0AC0FBD1FA80FB91F04
:103270002C9301E010E00C0F1D1F080F191F622F87
:1032800070E0CF010E946C2DF801608311E0130FF4
:10329000AE014F5F5F4F612FCE0141960E94A91290
:1032A000FE01E10FF11D808190E090930101809378
:1032B00000018091B5049091B604A091B704B0913B
:1032C000B80494608093B5049093B604A093B704B7
:1032D000B093B8040E9457273CC0809100019091A0
:1032E00001011816190634F4880F991F880F991FC9
:1032F0000E94461680EC0E94B11580EC0E94B11528
:1033000080EC0E94B11580E00E948C168091160519
:1033100090911705A0911805B09119058093B905F2
:103320009093BA05A093BB05B093BC0540E051E073
:1033300060E070E081E00E947A0A87E0B4CE80917C
:103340000E0781FD06C08091BD0581FDB7CE1092AC
:103350000701F8941091C6051092C60578941123C0
:1033600009F462C010FF10C08091CF059091D00584
:1033700062E674E096958795969587950E94002859
:103380009093A1058093A00511FF0AC08091D105FB
:103390009091D2050E949A219093A3058093A20553
:1033A00012FF0AC08091D3059091D4050E949A2102
:1033B0009093A5058093A40513FF0AC08091D505BD
:1033C0009091D6050E949A219093A7058093A60517
:1033D00014FF0AC08091C7059091C8050E94A221E0
:1033E000909399058093980515FF0AC08091C905AF
:1033F0009091CA050E94A22190939B0580939A0503
:1034000016FF0AC08091CB059091CC050E94A221A5
:1034100090939D0580939C0517FF06C080EC9DE569
:1034200090939F0580939E05A0960FB6F894DEBFFB
:103430000FBECDBFDF91CF911F910F91FF900895E7
:10344000CF93C82F8E3038F425E0829FC00111241D
:10345000845E9B4F02C088E094E09F938F931F92FD
:10346000CF938DE094E09F938F930E94EF04C093DD
:1034700097050F900F900F900F900F900F90C13005
:10348000C1F40FB6F894A89580916000886180938C
:103490006000109260000FBEF89481E00E941E0749
:1034A0000E947C068FE09EE00197F1F700C00000CB
:1034B000F7CFC93038F48FEF809364058C2FCF910C
:1034C0000C941E07CF910895DF92EF92FF920F9315
:1034D0001F93CF93DF93CDB7DEB762970FB6F89403
:1034E000DEBF0FBECDBFD0906305E0906105F090C8
:1034F0006205BE016F5F7F4FC7010E94C60587FD51
:103500009DC08701080F111D87FD1A95F801908154
:10351000992341F0BE016D5F7F4FC8010E94C6052F
:1035200087FD8CC0080F111D87FD1A95F801908149
:10353000992341F0BE016B5F7F4FC8010E94C60511
:1035400087FD7CC0080F111D87FD1A95F801908139
:10355000992341F0BE01695F7F4FC8010E94C605F3
:1035600087FD6CC0080F111D87FD1A95F801908129
:10357000992341F0BE01675F7F4FC8010E94E905B2
:1035800087FD5CC0080F111D87FD1A95F801908119
:103590009923E1F0CE0141969F938F9307979F93D4
:1035A0008F938DE295E09F938F931F930F930E94CB
:1035B000862C0FB6F894DEBF0FBECDBF019721F465
:1035C000898987FF03C03AC08DEF38C0080F111DED
:1035D00087FD1A95F8018081811105C0802F8E1911
:1035E00087FF0AC02BC0BE01655F7F4FC8010E94E4
:1035F000C60587FFF3CF22C011E0F7EADF1210E023
:10360000BE016F5F7F4F812F0E943C268091B504E1
:103610009091B604A091B704B091B804111102C002
:10362000806201C080648093B5049093B604A09337
:10363000B704B093B8040E94572780E062960FB693
:10364000F894DEBF0FBECDBFDF91CF911F910F91D8
:10365000FF90EF90DF900895CF93DF9300D01F92FB
:10366000CDB7DEB7BE016D5F7F4F80916105909150
:1036700062050E94E9058093960587FD2FC0209181
:10368000610530916205A901480F511D87FD5A95CA
:10369000CA0150936205409361051A821982FA01AA
:1036A000208121110DC089819A8190931207809306
:1036B00011079B818091CB04992361F082600BC03C
:1036C000BE016F5F7F4F0E94C6058093960587FFFE
:1036D000EACF04C08D7F0E94EC2180E00F900F9014
:1036E0000F90DF91CF9108950F931F93CF93DF93A6
:1036F00000D000D0CDB7DEB7BE016D5F7F4F8091A7
:103700006105909162050E94C6058093960587FD2C
:1037100031C02091610530916205A901480F511D0A
:1037200087FD5A95CA015093620540936105BE0119
:103730006F5F7F4F0E94C6058093960587FD1AC074
:103740006B817C81CB0140978937934190F409814B
:103750001A81013187E2180760F480E090E00E944E
:10376000E92E0E94ED0610934F0500934E0580E070
:1037700001C08CEF0F900F900F900F90DF91CF91C1
:103780001F910F910895CF92DF92EF92FF92CF9306
:10379000DF9300D000D000D0CDB7DEB7CE010596C4
:1037A0009F938F9304979F938F9387E295E09F93C6
:1037B0008F93809162058F93809161058F930E9412
:1037C000862C0FB6F894DEBF0FBECDBF019711F463
:1037D0008D8101C08DEF8093960587FD54C0809147
:1037E0006305843A11F18F3A69F1823A09F046C0D3
:1037F000C980DA80EB80FC800E948B2181600E946E
:1038000076218091F1049091F204A091F304B0919B
:10381000F404B701A601481B590B6A0B7B0B80E02F
:103820000E947A0A87FD2CC027C089819A81AB81CA
:10383000BC818093F1049093F204A093F304B093BD
:10384000F4041AC049815A816B817C81413C34ED7A
:10385000530731E063077105ACF48091DD058260A8
:103860008093DD0570956095509541955F4F6F4F42
:103870007F4F80E00E947A0A80E005C08AEF03C093
:103880008EEF01C08CEF26960FB6F894DEBF0FBE08
:10389000CDBFDF91CF91FF90EF90DF90CF90089553
:1038A0000F931F93CF93DF9300D0CDB7DEB7BE0148
:1038B0006F5F7F4F80916105909162050E94A30523
:1038C0008093960587FD36C080916305833A89F021
:1038D000853A69F589819A81092E000CAA0BBB0BE8
:1038E0008093160590931705A0931805B0931905BA
:1038F0001CC009811A810E948B2182600E9476215E
:10390000A801110F660B770B809116059091170592
:10391000A0911805B0911905481B590B6A0B7B0B38
:1039200081E00E947A0A87FD04C080E003C08AEF2C
:1039300001C08EEF0F900F90DF91CF911F910F91EB
:1039400008950F931F93CF93DF9300D0CDB7DEB7C9
:10395000BE016F5F7F4F80916105909162050E946B
:10396000C6058093960587FD84C0809163058C3BD6
:10397000A9F188F48E38E1F08F3809F077C04981D9
:103980005A8160E070E070956095509541955F4F69
:103990006F4F7F4F11C08D3B09F45FC08E3B09F024
:1039A00065C089819A819093100780930F070BC09F
:1039B00049815A8160E070E080E00E947A0A87FFC6
:1039C0000BC08EEF56C080910F0790911007892B86
:1039D00019F00E94EA16F7CF80E04BC009811A81E6
:1039E000011524E0120708F043C080E090E10E9436
:1039F000311684E0169507958A95E1F78091E805E0
:103A00009091E90524E0969587952A95E1F7081BA2
:103A1000190B013211053CF080E490E09C01201B61
:103A2000310B890106C0003E3FEF130714F4005C20
:103A30001F4F802F002E000C990B9F938F9387E1CF
:103A400095E09F938F930E94EF04802F0E94F115C1
:103A50000F900F900F900F900CC089819A81811563
:103A600024E0920728F40E94461603C08AEF01C0A2
:103A70008CEF0F900F90DF91CF911F910F910895D0
:103A8000CF93DF9300D01F92CDB7DEB7CE01019662
:103A90009F938F9302969F938F938DE295E09F93D0
:103AA0008F93809162058F93809161058F930E941F
:103AB000862C0FB6F894DEBF0FBECDBF019711F470
:103AC000898101C08DEF8093960587FD2FC080917D
:103AD0006305883AF1F050F4893991F08A3929F573
:103AE0008B818093F10580E092E00FC0823CA9F0C9
:103AF000833CB9F0893AC9F48B810E948C1616C0B8
:103B00008B818093F00580E290E00E94311680E086
:103B10000DC08B810E94BB1609C08B810E94F115DC
:103B200005C08B810E94B11501C08AEF0F900F90E4
:103B30000F90DF91CF9108951F93CF93DF931F9242
:103B4000CDB7DEB7BE016F5F7F4F80916105909169
:103B500062050E94E9058093960587FD0DC180915D
:103B60006305853809F49BC0D8F4803109F44FC04F
:103B700040F48D30C9F18F30C9F18C3009F0E5C0C7
:103B80002CC0813409F459C020F4813109F44AC0B1
:103B9000DCC0823809F47CC0833809F470C0D5C019
:103BA0008A3A09F48AC050F4853909F454C0863938
:103BB00009F45AC08A3809F0C8C046C0813B09F4EC
:103BC00083C020F48D3A09F49CC0BFC0883B09F43F
:103BD00082C0843C09F4B3C0B8C08981843008F045
:103BE000C8C00E947621C3C0898162C089818430A7
:103BF00008F0BFC090E1899F9001112490910E07B9
:103C00009F70292B20930E070E94CE0DB0C0898192
:103C1000843008F0AEC090910E07907F892B80937E
:103C20000E07A5C08981843008F0A3C09091560585
:103C3000907F892B809356059AC08981893008F03E
:103C400098C00E94201A93C08981803108F091C0E9
:103C50000E94CF218CC08981803408F08AC0809373
:103C6000F20580E190E008C08981803408F081C0CD
:103C70008093F30580E091E00E94311678C01981AD
:103C8000111103C080E00E940622109314076FC038
:103C90008981843008F06DC08093540568C0998193
:103CA000923008F066C08091CB04992321F08460A3
:103CB0000E94EC215CC08B7FFBCF8981823008F0B1
:103CC00058C08093670553C08981853108F051C081
:103CD000809357054CC089818B3F08F04AC0809380
:103CE0000901882321F08A3F31F4589A01C058987D
:103CF00084B58F7C04C08A5F88BD84B5806284BD32
:103D000036C099819230A8F580910501992369F018
:103D100084608093050188E090E00E9431168091D4
:103D2000DD0581608093DD0522C08B7F80930501D6
:103D300088E090E00E9431161092DD0518C089815C
:103D40008031B8F480930A0112C0813B51F0893B65
:103D500029F0823481F4E5ECF5E005C0E6E0F1E01D
:103D600002C0E7E5F5E0309731F08981808380E09B
:103D700003C08CEF01C08AEF0F90DF91CF911F91AC
:103D800008951092C4051092C3058091C3059091C7
:103D9000C40520910E072370822B9093C405809355
:103DA000C305809164058F3F21F084E090E00E947C
:103DB00031162091F50527FD09C08091C30590912A
:103DC000C40580649093C4058093C30525FD09C094
:103DD0008091C3059091C40580689093C405809339
:103DE000C30580915C05882349F08091C3059091BB
:103DF000C40590629093C4058093C30580916405C7
:103E0000823039F481E08093540583E08093640527
:103E10000DC0809164058F3F49F48091C305909156
:103E2000C40590689093C4058093C30585E0809392
:103E300013078091DE05882349F08091C305909196
:103E4000C40590649093C4058093C3058091C30515
:103E50009091C4050E941B0680E008958FEF93E0C7
:103E60000E94282D90E001972AE0AC01249FC00118
:103E7000259F900D11240E941B0680E008950F934A
:103E80001F93CF93DF9380910106E0910A07E81B0F
:103E90008A3010F4982F01C09AE0891B80930106A4
:103EA000C92FCE0F0FE015E0EC1791F0D1E0DE0F37
:103EB000F0E0EE5FF94F80811F928F931F930F9375
:103EC0000E948F050F900F900F900F90ED2FECCF69
:103ED00080E0DF91CF911F910F910895EEEDF4E016
:103EE00086898F9385898F9384898F9383898F9314
:103EF0008AE095E09F938F930E948F050F900F901B
:103F00000F900F900F900F9080E0089586EC94E052
:103F10009F938F9381E08F9387E68F931F9288E022
:103F20008F931F9289E08F931F921F9287EC94E0EA
:103F30009F938F930E948F058DB79EB70C960FB6F7
:103F4000F8949EBF0FBE8DBF80E00895CF93DF939E
:103F5000CDB7DEB760970FB6F894DEBF0FBECDBF0A
:103F600081E090916305973A09F080E0BE016F5FB0
:103F70007F4F0E94AA26CE0101960E94390680E05A
:103F800060960FB6F894DEBF0FBECDBFDF91CF9124
:103F9000089580911605909117050E940C0680E007
:103FA00008958091CB04869581700E942A068091A5
:103FB000110790911207009711F00E941B0680E0F4
:103FC0000895CF92DF92FF920F931F93CF93DF93C9
:103FD000CDB7DEB760970FB6F894DEBF0FBECDBF8A
:103FE00025EF34E08E010F5F1F4FD80141E290E1D1
:103FF000F92EF00EF9018491E82FF0E0409357007C
:1040000084918D932F5F3F4FFA12F4CF85E0C82E35
:1040100085E0D82EF80181918F01282F082E000C01
:10402000330B3F938F93DF92CF920E94602C0F90BF
:104030000F900F900F90F012EDCF80E060960FB6CA
:10404000F894DEBF0FBECDBFDF91CF911F910F91CE
:10405000FF90DF90CF900895BF92CF92DF92EF92C2
:10406000FF920F931F93CF93DF93CDB7DEB7639784
:104070000FB6F894DEBF0FBECDBFFE01319683E1CF
:10408000DF011D928A95E9F78E010C5F1F4F44E016
:1040900050E06CEB74E0C8010E94A82F7E01B9E0EB
:1040A000EB0EF11C43E050E060EC74E0C7010E94AD
:1040B000A82F83E4B82EBD866E018EE0C80ED11CF9
:1040C00045E050E064EC74E0C6010E94A82FDF9246
:1040D000CF921F92BF92FF92EF921F930F9382EEA7
:1040E00094E09F938F930E94602C0FB6F894DEBFEC
:1040F0000FBECDBF80E063960FB6F894DEBF0FBE53
:10410000CDBFDF91CF911F910F91FF90EF90DF9086
:10411000CF90BF9008950F931F93CF93DF930E948A
:10412000A104009759F0EC018C01085F1F4F8991A1
:1041300099910E941B06C017D107C9F780E0DF9153
:10414000CF911F910F9108950F931F93CF93DF93FA
:104150000E94A104009759F0EC018C01085F1F4FE9
:10416000899199910E940C06C017D107C9F780E088
:10417000DF91CF911F910F9108950F931F93CF93CC
:10418000DF930E94A104009751F0EC018C010C5FB9
:104190001F4F89910E942A06C017D107D1F780E0EE
:1041A000DF91CF911F910F9108950E94A104009774
:1041B00021F0FC01808191811AC0809163058C3BC4
:1041C00059F08D3B91F480E090E20E94311680918D
:1041D000EA059091EB050BC080E090E10E9431165A
:1041E0008091E8059091E90502C080E090E00E948E
:1041F0001B0680E008950E94A104009721F0FC01B5
:104200008081918102C080E090E00E940C0680E0F5
:1042100008950E94A104009719F0FC01808101C05B
:1042200080E0282F082E000C330B3F938F9382ECF5
:1042300094E09F938F930E948F050F900F900F90A3
:104240000F9080E008950E94A104009719F0FC01EE
:10425000808148C080916305853881F188F48F3072
:1042600031F138F48130F1F08C30D9F50E948B2196
:1042700039C08031F9F08131A1F5809156051CC01B
:10428000893919F130F48539E1F0863951F581E049
:1042900019C08D3AE9F08E3AF9F08A3911F580911A
:1042A000DB0420C080915C0510925C051BC00E945D
:1042B000DD0D18C080910E078F7014C08091CB0463
:1042C0000CC080E00E948D0C0DC08091D2040AC009
:1042D0008091DD05817006C08CB182FB882780F952
:1042E00001C080E00E942A0680E0089593E08927BB
:1042F000E4E0F1E0282F217030E0220F331F8270BC
:10430000880F880F282B8081857F282B208382E0CF
:1043100090E00C94311690910401292F287030E020
:10432000359527953595279596959170922B83E035
:104330008927089564E376E0969587959695879505
:104340000C9400289C013695279536952795A2E96F
:10435000B3E10E94BC2DAB01BC0199E07695679555
:10436000579547959A95D1F74E7F6170772789E7E2
:104370009DE5841B950B97FF02C080E090E00895B7
:1043800020E030E0F901E051F048E491DC01ED93E8
:10439000CD012F5F3F4F20313105A1F70895909156
:1043A000F80590959823F89490FF03C022E020939D
:1043B000DF0591FF03C022E02093E00592FF03C0D8
:1043C00022E02093E10593FF03C092E09093E20581
:1043D0008093F805789408958093CB0484FF02C0FD
:1043E000289801C0289A9091CB0495FF02C05D984F
:1043F00001C05D9A86708695909105019C7F892BFE
:104400008093050188E090E00C947F163F9A882302
:1044100011F0479A0895479808951F920F920FB68A
:104420000F9211241F932F933F934F935F936F939A
:104430007F938F939F93AF93BF93EF93FF93CF930C
:10444000DF9300D000D0CDB7DEB7809115079091F3
:1044500016079C012F5F3F4F3093160720931507D7
:10446000883E934040F110921607109215077894F9
:1044700080911407882339F08150809314078111AB
:1044800002C00E940622809164058330A9F48091C5
:104490001307882389F080911307815080931307B5
:1044A00081110AC082E08093540598E09093060140
:1044B0008093640501C0789480910009909101096E
:1044C0008A35954A91F0F89498E088E10FB6F8940F
:1044D000A895809360000FBE9093600085EA9AE5EE
:1044E0009093010980930009FFCF809164058F3F6D
:1044F00019F40E947C06A8C38091110790911207BD
:104500000097A9F001979093120780931107892BC8
:1045100071F48091CB048D7F8093CB048091050151
:104520008E7F8093050188E090E00E947F16809145
:104530000F0790911007892B49F080910F079091F8
:10454000100701979093100780930F0780914E05F5
:1045500090914F05009749F0019790934F058093F4
:104560004E05892B11F410929000E0910E078E2FCA
:10457000837009F443C0E695E17080910D078111C5
:1045800013C080910B0790910C07EE2319F020E0E7
:1045900038E002C020E830E0822B932B90930C0788
:1045A00080930B078AE028C08A3029F5A0910A077A
:1045B00081E08A0F80930A07B0E0AE5FB94FF0E068
:1045C000EE0FFF1FEE0FFF1FEE5FF84F408151818E
:1045D0006281738182E076956795579547958A95B4
:1045E000D1F74C93809101068F3F19F08F5F809334
:1045F000010689E001C0815080930D07809100067B
:104600009091FF05811162C04091F80591110AC097
:10461000209158052093FA052091F90540FB20F9D7
:104620002093F905209159052093FB0520915A0507
:104630002093FC0520915B052093FD0550915405C6
:104640002091F6053091F7055130D1F0F0F052305D
:1046500019F0533089F01BC0B901B4E07695679525
:10466000BA95E1F7213451E0350718F058E2561BAE
:1046700009C06093FE050BC0213451E0350728F0D6
:10468000509157055093FE0502C01092FE055091BF
:104690000601250F311D3093F7052093F6052138CB
:1046A000324020F01092F7051092F6053091F9058E
:1046B000317F242F2E704091CB0440FD02C040E09A
:1046C00001C040E1232B242B2093F9052091FA050A
:1046D000291305C02091F9052E7F2093F90520911B
:1046E000FB05281305C02091F9052D7F2093F905BE
:1046F0002091FC05281305C02091F9052B7F2093FC
:10470000F9052091FD05281305C02091F905277FA3
:104710002093F9052091FE05281305C02091F90585
:104720002F7E2093F9058F5F80930006843110F06F
:10473000109200069F5F9093FF05983210F0109240
:10474000FF058091F90584FF02C02F9A01C02F98C0
:104750008091F90520E1829FC0011124909104010C
:104760009F70892B8093040182E090E00E947F1665
:1047700080910B0790910C07892B09F433C180912C
:104780000B0790910C0781FF0EC06091040182E13C
:104790000E94E42780910B0790910C078D7F9093E6
:1047A0000C0780930B0780910B0790910C0783FFF8
:1047B0000BC06091050183E10E94E42780910B0703
:1047C00090910C07877F0AC180910B0790910C078D
:1047D00082FF0BC083E10E94D2278093F505809170
:1047E0000B0790910C078B7FF9C080910B0790917C
:1047F0000C0784FF0BC06091F20580E00E94360C2C
:1048000080910B0790910C078F7EE8C080910B0779
:1048100090910C0785FF0BC06091F00580E00E942D
:10482000250C80910B0790910C078F7DD7C080914C
:104830000B0790910C0786FF14C02091EC05309176
:10484000ED053093D4042093D30440E050E064E9B4
:1048500080E00E94F00B80910B0790910C078F7BFA
:10486000BDC080910B0790910C0787FF1DC0198276
:104870001A821B821C82AE014F5F5F4F6FE680E0A1
:104880000E94860B89819A81AB81BC81809302074B
:1048900090930307A0930407B093050780910B073B
:1048A00090910C078F779AC080910B0790910C071D
:1048B00090FF0BC06091F30581E00E94360C80915F
:1048C0000B0790910C079E7F89C080910B079091F8
:1048D0000C0791FF0BC06091F10581E00E94250C4F
:1048E00080910B0790910C079D7F78C080910B07FA
:1048F00090910C0792FF14C02091EE053091EF05C6
:104900003093DD042093DC0440E050E064E981E072
:104910000E94F00B80910B0790910C079B7F5EC06B
:1049200080910B0790910C0793FF1DC019821A828A
:104930001B821C82AE014F5F5F4F6FE681E00E94D9
:10494000860B89819A81AB81BC8180930607909305
:104950000707A0930807B093090780910B07909170
:104960000C07977F3BC080910B0790910C0794FF39
:1049700018C019821A821B821C82AE014F5F5F4FE2
:104980006AE680E00E94860B89819A8193709093F9
:10499000E9058093E80580910B0790910C079F7EB5
:1049A0001DC080910B0790910C0795FF1BC01982C9
:1049B0001A821B821C82AE014F5F5F4F6AE681E064
:1049C0000E94860B89819A8193709093EB05809366
:1049D000EA0580910B0790910C079F7D90930C073F
:1049E00080930B078091DC0587FF83C08F70E82FD1
:1049F000F0E021E030E0082E02C0220F331F0A94BD
:104A0000E2F74091C9045091CA0424233523232B93
:104A100071F42091780030917900EE0FFF1FE85279
:104A2000FA4F40815181240F351F31832083882321
:104A300009F441C08091D7058F5F8093D7058430FA
:104A4000E0F180914D05282F30E0220F331FF9014E
:104A5000E153FA4F4091D8055091D90551834083D5
:104A6000F901E953FA4F4091DA055091DB05518382
:104A7000408321E130E0082E01C0220F0A94EAF7BA
:104A80009091C605292B2093C6058F5F182F1370B0
:104A900058E0159FC001112490910501977E892B44
:104AA0008093050188E090E00E947F1610934D05E9
:104AB0000E94120D02C021E001C020E0922F80E090
:104AC00041E050E0BA0163707727672B19F0992312
:104AD00031F090E0440F551F8F5F803199F790912E
:104AE0007C008770987F892B80937C002093DC0565
:104AF0000AC080917A00806480937A008091DC05FE
:104B000080688093DC052FB122952F708091E70596
:104B100082279091F90589232093E705909100065B
:104B20009330E0F080FF05C09091E3059F5F909384
:104B3000E30581FF05C09091E4059F5F9093E40534
:104B400082FF05C09091E5059F5F9093E50583FF87
:104B500005C08091E6058F5F8093E60580910B018B
:104B600090910C01019790930C0180930B01892B7C
:104B7000D1F52091E3058091DF0590E0820F911D32
:104B8000959587958093DF052091E4058091E00558
:104B900090E0820F911D959587958093E005209177
:104BA000E5058091E10590E0820F911D959587952F
:104BB0008093E1052091E6058091E20590E0820F67
:104BC000911D959587958093E2051092E3051092CB
:104BD000E4051092E5051092E60588E592E09093D1
:104BE0000C0180930B019091F80590FF04C081E0C7
:104BF0002091DF05211180E091FF05C02091E005A3
:104C0000211101C0826092FF05C02091E1052111B0
:104C100001C0846093FF05C09091E205911101C02D
:104C2000886090910A0189238093DE058091DD05DB
:104C3000833051F4629B08C081E08093DD05809150
:104C40000E078E7F80930E070F900F900F900F909E
:104C5000DF91CF91FF91EF91BF91AF919F918F9194
:104C60007F916F915F914F913F912F911F910F9085
:104C70000FBE0F901F901895EF92FF921F93CF9346
:104C8000DF93182FEB01111142C080E890E00E94E1
:104C900031168091020790910307A0910407B0910B
:104CA0000507B7FFF2CFE12EF12C85E2189FF00146
:104CB0001124E252FB4F88819981948383838A81F6
:104CC0009B81968385838C819D81908787838E814C
:104CD0009F8192878187812F0E94000B9701F901A4
:104CE000EE50FA4F88858083F901E051FA4F8985AB
:104CF0008083220F331FF901E451FA4F8A859B8587
:104D000091838083111115C080E790E016C01130A7
:104D100009F0B9CF80E098E00E9431168091060733
:104D200090910707A0910807B0910907B7FFF2CF4C
:104D3000BACF113049F480E097E0DF91CF911F9115
:104D4000FF90EF900C943116DF91CF911F91FF905F
:104D5000EF9008950F931F93CF93DF93EB01082FEC
:104D600010E095E2899FF0011124E252FB4F23816C
:104D7000348139832883258136813B832A832781A7
:104D800030853D832C83218532853F832E830E948D
:104D90008D0C888789E0809FF001819FF00D1124A0
:104DA000E453FB4F86818987878190859B878A871B
:104DB000DF91CF911F910F9108958F929F92AF92A3
:104DC000BF92CF92DF92EF92FF920F931F93CF93F8
:104DD000DF93CDB7DEB760970FB6F894DEBF0FBE96
:104DE000CDBFD82EB62E9E012F5F3F4F7901B9015E
:104DF0000E94AA26D11006C0B7FC02C0E5E00AC096
:104E0000E7E008C031E0D3120CC0B7FC02C0E6E016
:104E100001C0E8E0F0E0EE0FFF1FE150FC4F8080A2
:104E20009180B7FC0BC0B701C4012B2D30E12302E8
:104E3000800D911D11240E947E2826C0A12CB12C2A
:104E400080E1C82ECE0CD11004C085010C541A4F3D
:104E500006C081E0D81203C085010C5C1A4FD7014F
:104E6000F801CA1621F084918D933196FACFB701DB
:104E7000C501880D991D0E947E2890E1A90EB11CE4
:104E800020E8A216B104F9F660960FB6F894DEBFDA
:104E90000FBECDBFDF91CF911F910F91FF90EF908B
:104EA000DF90CF90BF90AF909F908F9008958091AA
:104EB000B5049091B604A091B704B091B80480FFF6
:104EC00006C069EB74E080E090E00E947E2880914B
:104ED000B5049091B604A091B704B091B80485FFD1
:104EE00007C060910E0167FD03C080E00E94DD26CF
:104EF0008091B5049091B604A091B704B091B80424
:104F000086FF07C060910D0167FD03C081E00E942C
:104F1000DD268091B5049091B604A091B704B091BC
:104F2000B80487FF04C06FEF80E00E94DD26809107
:104F3000B5049091B604A091B704B091B80490FF65
:104F400004C06FEF81E00E94DD268091B50490914E
:104F5000B604A091B704B091B80491FF08C0609165
:104F600002017091030180E093E00E94482D80913E
:104F7000B5049091B604A091B704B091B80492FF23
:104F800008C0609100017091010180E193E00E94EE
:104F9000482D1092B5041092B6041092B7041092E6
:104FA000B8040895CF93C82F80E58CBD1DBC2C9804
:104FB00081E40E943B078C2F0E943B078FEF0E94E9
:104FC0003B072C9ACF9108951F93CF93DF931F92A5
:104FD000CDB7DEB7182F80E58CBD1DBC2C9880E4C2
:104FE00069830E943B07812F0E943B076981862FBE
:104FF0000E943B072C9A0F90DF91CF911F9108954B
:10500000EF92FF921F93CF93DF93FB01EE5BFF4F75
:1050100025913491821793070CF04CC0FB01259128
:105020003491281739070CF048C013E2A1E2B0E030
:1050300040E050E021E1115009F439C030E0E901CD
:10504000CC0FDD1FFB01EC0FFD1FE590F490FE017E
:105050003296E60FF71FC591D491C817D90724F4EB
:10506000A9012A0F3B1F06C08E159F0534F4D901F4
:10507000240F351F35952795DECF4EEC4203B00146
:10508000439F700D11249B012E513B4FBC016E19A3
:105090007F094603C001479F900D1124BE016E1980
:1050A0007F090E94802DC901860F971F08C080E0EC
:1050B00090E005C080E79EEF02C082EE94E0DF91B1
:1050C000CF911F91FF90EF900895EF92FF921F9361
:1050D000CF93DF93EB0111E17C01E61AF70A11503F
:1050E00039F0C7018C0F9D1F0E94282D8993F7CF9F
:1050F000DF91CF911F91FF90EF900895EF92FF9273
:105100000F931F93CF93DF937C018B01C0E0D0E01E
:10511000F80161918F01CE018E0D9F1D0E94362DE9
:105120002196C031D105A1F7DF91CF911F910F9149
:10513000FF90EF900895ACE0B0E0E1EAF8E20C9463
:10514000A32B6C015B017A01FC011782168283811B
:1051500081FF0EC1CE0101964C01F6010381F501DC
:1051600003FD159103FF11915F01112309F4FCC0A8
:10517000153249F403FD159103FF11915F011532BA
:1051800011F020E01BC0B601812F90E00E94282C76
:1051900037017301E2CF112309F4E6C0612F70E0FB
:1051A0008FE796E02C870E94DF2B2C85892B49F016
:1051B000F50103FD159103FF11915F0127FFEBCF6F
:1051C00009C0133229F01C3609F0D5C02068F0CF91
:1051D00020E1EECF022F112309F4C6C0612F70E049
:1051E00088E796E02C870E94DF2B2C85892B41F0E5
:1051F0003701F4E06F0E711CB6018FE390E011C02F
:10520000133639F0133781F0133519F5022F016089
:105210000BC0370182E0680E711CB601F701808176
:1052200091810E94282CB5CF3701F2E06F0E711CDE
:10523000F701E080F180F70100FD859100FF819189
:105240007F01882309F4A5CFB60190E00E94282CA5
:10525000F2CF143611F0193629F5370127FF09C0AE
:10526000F4E06F0E711CF70160817181828193817E
:105270000AC0F2E06F0E711CF70160817181072E88
:10528000000C880B990B022F0F7E97FF08C090959A
:105290008095709561957F4F8F4F9F4F00642AE0F6
:1052A00030E033C0103799F040F41835B1F01F36B4
:1052B00009F05AC028E030E014C0153719F018374B
:1052C00041F052C0022F0F7E2AE030E00AC0022FC8
:1052D0000061046220E130E004C0022F046020E19C
:1052E00032E0370107FF09C0F4E06F0E711CF701CF
:1052F000608171818281938108C0F2E06F0E711C20
:10530000F7016081718180E090E0A4010E94C72CC8
:10531000182F181906FF05C0B6018DE290E00E9413
:10532000282C04FF15C0FE01E10FF11D80818033A0
:1053300079F0B60180E390E00E94282C02FF08C0BB
:105340000072802F90E0B601885A9F4F0E94282C4F
:105350001150F401E10FF11D8081B60190E00E942F
:10536000282C1111F5CF15CFF6018681978105C044
:105370008FEF9FEF02C0022F31CF2C96EEE00C94FE
:10538000BF2B20FD09C0FC0123FD05C022FF02C088
:105390007383628351834083089544FD10C046FDAA
:1053A00010C0DB01FC01AA0FBB1FEE1FFF1F1094F2
:1053B000D1F76A0F7B1F8E1F9F1F31E003C033E0C0
:1053C00001C034E0660F771F881F991F3150D1F755
:1053D000620F711D811D911D08950F931F93CF932F
:1053E000DF938C01C8010E94EA2BEC0197FD08C0F5
:1053F0000E94D62B892BB1F7B801CE010E94AE2CAA
:10540000CE01DF91CF911F910F910895A1E0B0E0FF
:10541000ECE0FAE20C94A52B8C01C62E7A012983CC
:105420000E94EA2BAC01552729814B32510521F00E
:105430004D32510569F42068CA94C11002C080E061
:1054400076C0C80129830E94EA2B298197FDF7CFF6
:10545000322F3D7FD32E322F307349F5803339F50B
:10546000BB24BA94BC0C09F44EC0C80129830E9425
:10547000EA2B298197FD47C0382F3F7D383569F4E5
:105480008D2D8264D82ECA94CA94CC20E1F1C80133
:105490000E94EA2B97FF0BC036C026FF04C02D2DBB
:1054A0002260D22E03C03D2D3261D32ECB2C812C15
:1054B000912C540120ED280F283080F0D4FE04C038
:1054C000B8010E94AE2C1CC02A3040F0D6FEF8CFA6
:1054D0002F7D3FEE320F363098F727504D2DC50106
:1054E000B4010E94CD294B015C018D2D8260D82E24
:1054F000CA94CC2059F0C8010E94EA2B97FFDACF5A
:10550000D1FC04C09CCF812C912C5401D7FE08C043
:10551000B094A09490948094811C911CA11CB11C07
:105520002D2DB501A401C7010E94C12981E021965A
:10553000ECE00C94C12BA1E0B0E0E1EAFAE20C94BB
:10554000A12B7C012B015A01FC0117821682812CB0
:10555000F7017380F20173FC859173FE8191382FFE
:105560002F01882309F4E2C090E039830E94D62BF2
:105570003981892B21F0C7010E94ED29E9CF35320D
:1055800041F4F20173FC359173FE31912F013532F4
:1055900069F4C70139830E94EA2B398197FDC4C0A1
:1055A0003817B1F2B7010E94AE2CC0C03A3239F4BC
:1055B00073FC359173FE31912F0111E001C010E0B1
:1055C000620160E020ED230F2A3070F4126070E079
:1055D00080E090E040E20E94CD29F60173FC359115
:1055E00073FE31916F01EECF962E032F260111FF2E
:1055F00003C0611103C09AC099249A94383619F0F7
:105600003C3651F010C0F60173FC059173FE019118
:105610002F01083641F418601460F20173FC059103
:1056200073FE01912F01002309F480C0602F70E008
:105630008FE896E00E94DF2B892B09F477C010FDDC
:1056400007C0F501C080D180C50102965C0102C08F
:10565000C12CD12C0E3651F4F7014681578160E000
:1056600070E0212FC6010E94C12972CF0336A9F430
:1056700011FD02C099249394C7010E94EA2B97FD63
:1056800053C0C114D10429F0F6018083C6010196EC
:105690006C019A949110F0CF43C0C7010E94ED298C
:1056A00097FD42C00F3661F128F4043639F109360E
:1056B00051F128C0033771F0053701F123C0C1143F
:1056C000D10429F0F6016082C60101966C019A941A
:1056D000992071F0C7010E94EA2B3C0197FD08C098
:1056E0000E94D62B892B59F3B701C3010E94AE2C1F
:1056F000C114D104A9F0F601108212C0106203C0D7
:10570000106101C01064212FA601692DC7010E94FC
:10571000062A811105C0F7018381807329F406C030
:1057200010FD16CF839414CF882019F0882D90E0B7
:1057300002C08FEF9FEF2196E0E10C94BD2B2F92DA
:105740003F924F925F926F927F928F929F92AF9211
:10575000BF92CF92DF92EF92FF920F931F93CF935E
:10576000DF93CDB7DEB7CA1BDB0B0FB6F894DEBFF5
:105770000FBECDBF09942A88398848885F846E841B
:105780007D848C849B84AA84B984C884DF80EE8065
:10579000FD800C811B81AA81B981CE0FD11D0FB66E
:1057A000F894DEBF0FBECDBFED01089591110C94AA
:1057B000252D803219F089508550C8F70895FC01D5
:1057C0000590061621F00020D9F7C0010895319701
:1057D000CF010895CF93DF93EC012B8120FF33C0DD
:1057E00026FF0AC02F7B2B838E819F8101969F838A
:1057F0008E838A8190E029C022FF0FC0E881F98161
:105800008081082E000C990B009719F420622B83DD
:105810001AC03196F983E8830EC0EA85FB850995A5
:1058200097FF09C02B81019611F080E201C080E151
:10583000822B8B8308C02E813F812F5F3F4F3F8398
:105840002E83992702C08FEF9FEFDF91CF910895AC
:105850000F931F93CF93DF93FB01238121FD03C09F
:105860008FEF9FEF28C022FF16C046815781248109
:1058700035814217530744F4A081B1819D012F5F08
:105880003F4F318320838C93268137812F5F3F4F99
:105890003783268310C0EB01092F182F0084F18570
:1058A000E02D0995892BE1F68E819F8101969F83DA
:1058B0008E83812F902FDF91CF911F910F910895AB
:1058C000A0E0B0E0E6E6FCE20C94AD2BAE01495F4F
:1058D0005F4FDA016D917D91AD0107E117E0F801AD
:1058E00082819381DC0113962C9113972860139683
:1058F0002C930E949B28D8011296ED91FC9113974E
:105900002381277F2383E4E00C94C92BAEE0B0E031
:10591000ECE8FCE20C94AF2B8DE08C838B899C89A6
:105920009A838983AE01495E5F4F6D897E89CE017E
:1059300001960E949B2A2E96E2E00C94CB2BCF93EB
:10594000DF93EC018B8188608B83CE010E949B28C2
:105950002B81277F2B83DF91CF910895FB0123813A
:1059600020FF12C026FD10C08F3F3FEF930761F06C
:1059700082832F7D20642383268137812150310942
:1059800037832683992708958FEF9FEF0895FA01B3
:10599000AA27283051F1203181F1E8946F936E7F6E
:1059A0006E5F7F4F8F4F9F4FAF4FB1E03ED0B4E05F
:1059B0003CD0670F781F891F9A1FA11D680F791FA0
:1059C0008A1F911DA11D6A0F711D811D911DA11DB1
:1059D00020D009F468943F912AE0269F11243019C1
:1059E000305D3193DEF6CF010895462F4770405D5C
:1059F0004193B3E00FD0C9F7F6CF462F4F70405D0B
:105A00004A3318F0495D31FD4052419302D0A9F765
:105A1000EACFB4E0A6959795879577956795BA955F
:105A2000C9F700976105710508959B01AC010A2E25
:105A300006945795479537952795BA95C9F7620FFC
:105A4000731F841F951FA01D089599278827089507
:105A5000F999FECF92BD81BDF89A992780B5089536
:105A6000A8E1B0E042E050E00C945E2D262FF999B9
:105A7000FECF92BD81BDF89A019700B4021639F0AD
:105A80001FBA20BD0FB6F894FA9AF99A0FBE08957E
:105A90000196272F0E94372D0C94362D262FF99929
:105AA000FECF1FBA92BD81BD20BD0FB6F894FA9A01
:105AB000F99A0FBE01960895DC01CB01FC01F9991A
:105AC000FECF06C0F2BDE1BDF89A319600B40D924A
:105AD00041505040B8F70895AA1BBB1B51E107C0C5
